:100000000000022021710100497101004B710100C3
:100010004D7101004F71010051710100000000009D
:10002000000000000000000000000000537101000B
:100030005571010000000000577101005971010065
:100040005B7101005B710100C16F0100856F0100F0
:10005000996F01005B710100395A0100717701004D
:100060005D6B0100656B01006D6B01005B71010050
:100070005B7101005B7101005B7101005B7101004C
:100080005B7101005B7101005B7101005B7101003C
:100090005B7101005B7101005B7101005B7101002C
:1000A0005B7101005B710100756B01007D6B0100EC
:1000B0005B7101005B7101000000000000000000A6
:1000C0005B7101005B7101005B710100AD6F0100AC
:1000D0005B7101005B7101005B7101005B710100EC
:1000E000E96F0100000000000000000000000000B7
:1000F000000000005B71010000000000D56F0100EE
:1001000000000000000000000000000000000000EF
:1001100000000000000000000000000000000000DF
:1001200000000000000000000000000000000000CF
:1001300000000000000000000000000000000000BF
:1001400000000000000000000000000000000000AF
:10015000000000000000000000000000000000009F
:10016000000000000000000000000000000000008F
:10017000000000000000000000000000000000007F
:10018000000000000000000000000000000000006F
:10019000000000000000000000000000000000005F
:1001A000000000000000000000000000000000004F
:1001B000000000000000000000000000000000003F
:1001C000000000000000000000000000000000002F
:1001D000000000000000000000000000000000001F
:1001E000000000000000000000000000000000000F
:1001F00000000000000000000000000000000000FF
:100200007CB0EE877CB0EE87FF00FF00FF00FF00B0
:10021000FF00FF00FF00FF00FF00FF00FF00FF00E6
:10022000FF00FF00FF00FF00FF00FF00FF00FF00D6
:10023000FF00FF00FF00FF002DE9F04F85B00391A4
:100240000778A7F10903042B044607F07F0200F1A9
:100250000100F5D9202AF3D02B2F04BF677804467C
:100260002D2F72D09FED427B8DED007B4FF000086B
:100270004FF000098FB34FF0000E4FF0000ADFF887
:1002800000B1754619E01AF0B9F880468946304643
:100290001AF04EF842464B4619F0FEFE5246804692
:1002A00089465B46DDE9000135B31AF0D1F9CDE9A5
:1002B0000001AE4614F8017F7FB1A7F13006092E88
:1002C00052465B4640464946DDD9C5B92E2F16D168
:1002D00014F8017F0125002FEFD142464B46DDE99E
:1002E00000011AF08BF880468946039B4046494638
:1002F0001C6005B0BDE8F08F4FF0010EDAE7BEF1EB
:10030000000F29D042464B46DDE900011AF076F88D
:1003100007F0DF07452F80468946E6D10399601C28
:100320000A2219F09DFE1649024600201AF0C6FB6B
:1003300002460B46404649461AF060F88046894618
:100340004046494605B0BDE8F08F9FED0B7B6778CE
:100350008DED007B013489E7DFF828904FF000082D
:100360004046494605B0BDE8F08F00BFAFF30080BE
:10037000000000000000F03F000000000000F0BF9F
:10038000000024400000F87F2DE9F84F16460023B6
:10039000002204460D461AF0A3FA002840F09D8082
:1003A00000220023204629461AF090FA28B1302274
:1003B000002332707370BDE8F88F2046294618F08C
:1003C0001FFB1AF0CBFA7BA3D3E900238146294611
:1003D00020461AF085FA002800F08680B9F1000F57
:1003E000C0F2BE804A4600206F491AF067FB024601
:1003F0000B46204629461AF02BF904460D4666A105
:10040000D1E9000101274FF0000822462B4619F0E0
:10041000F5FF0022654B19F03FFE1AF08BFB002F11
:10042000CC464FF0FF3AC1464FF0000840F38580BC
:10043000DFF888E15E4C0122AEF1700945F6F32544
:100440004FF02E0BA94208BFA0424FF0300309D352
:10045000001B61EB0501A94208BFA04203F10103A3
:10046000F6D2DBB2337050EA010306F1010409D180
:10047000BA4210DACE4502F101020CD026467EE8DF
:100480000245DFE7BA4204BF86F801B0B41CCE458E
:1004900002F10102F2D1B8F1000F0DD02246302155
:1004A00002F8011BC2F1010353442344002BF7DC83
:1004B0002AEAEA7301331C44BCF1010F4CD06523D6
:1004C000BCF1000F2370C5BF2B236370611CA11CFE
:1004D0006046BDE8F84F0FF02FBF05F100431D4601
:1004E0002D23337001365BE72DA3D3E9002320468B
:1004F00029461AF013FA00287FF470AFB9F10E0FF5
:1005000009F101073DDDA9F10E0842460020264908
:100510001AF0D4FA02460B46204629461AF098F8FB
:100520000022224B19F0B8FD1AF004FB002FA9F1AC
:100530000F0A4FF0010C3FF77BAF334630222E24D9
:1005400003F8022B74707FEA090618D01E4403F8E2
:10055000012BB342FBD16BE700232370BDE8F88F7A
:10056000C9F10002002010491AF0A8FA02460B4611
:100570002046294619F042FF04460D463FE71E4635
:1005800056E7C9F10E0200200749C8461AF096FA4C
:100590004FF0010939E700BF0000901EC4BCD642ED
:1005A00050EFE2D6E41A4B44000024400000E03F44
:1005B00000407A108DEDB5A0F7C6B03E80B60100C0
:1005C00070B54FF0FF3006F035FA04466FF07F400B
:1005D00006F030FA0646204619F09AFE00220C4B2F
:1005E00019F00CFF044630460D4619F091FE06A3A3
:1005F000D3E900231AF02CF802460B462046294680
:1006000019F04AFD70BD00BF0000E0DFFFFF6F433F
:100610000000F03D000000002DE9F04F2DED028BB1
:10062000044683B0C06819F083FE8046206989467D
:1006300019F07EFE824660698B4619F079FE02460B
:1006400001F1004306460F464046494618F084F83B
:100650001AF0CCF9E062054617F032FF0190284607
:1006600017F0E2FE019B0546184619F073FE42465C
:100670004B4619F0C3FE80462846894619F06AFEAB
:1006800032463B4619F0BAFE02460B464046494602
:1006900019F000FD02460B465046594618F05CF82A
:1006A0001AF0A4F9002208EE100A00233046394659
:1006B0001AF034F928B3B5EEC08AF1EE10FA1CDD59
:1006C00011A7D7E9006718EE100A19F043FE024699
:1006D0000B463046394619F0DDFC32463B4619F0F0
:1006E000DBFC1AF083F9A062E38843F00203E380A5
:1006F00003B0BDEC028BBDE8F08F05A7D7E900671A
:10070000E1E784ED0A8AEFE7EA2E4454FB21F93F42
:10071000EA2E4454FB21F9BF08B511F0FBF8DFEDD8
:100720000C7A07EE100A67EE277A17EE900A19F096
:1007300011FE05A3D3E9002319F08AFF1AF00EF980
:1007400008BD00BFAFF30080EA2E4454FB211940DE
:100750000000B4430000000008B511F0EFF8DFED31
:100760000C7A07EE100A67EE277A17EE900A19F056
:10077000F1FD05A3D3E9002319F06AFF1AF0EEF8A2
:1007800008BD00BFAFF30080EA2E4454FB2119409E
:100790000000B44300000000494A21F000439342A6
:1007A0002DE9704304460D464BDC464A93420E4603
:1007B0000EDC3FA3D3E9002319F06EFC0022424B6C
:1007C0001AF0ACF800284CD020462946BDE87083CA
:1007D0003E4A93423BDCB3F1804F42DD17F00AFD05
:1007E0002246804689462B462046294619F006FEB9
:1007F0000022354B19F050FC18F0C0FB02460B46A6
:100800004046494619F048FC02460B4600202E4956
:1008100019F01EFF424604460D464B4640464946E7
:1008200019F03AFC02460B462046294619F034FCE2
:1008300002F06AF8002EC9DC01F100431946BDE858
:10084000708302460B4619F027FCBDE8708317F051
:10085000D1FC02F059F818A3D3E9002319F01CFCCD
:10086000E8E722462B462046294619F0C7FD804678
:1008700089462046294617F0BDFC002204460D4655
:10088000114B4046494619F007FC18F077FB00224F
:100890000D4B19F001FC02460B464046494619F043
:1008A000D7FE22462B4619F0F7FB00F0C5FAC1E748
:1008B0009C7500883CE4377EEF39FAFE422EE63F15
:1008C000FFFFEF7FFFFF2F3E0000F03F0000B04131
:1008D0002DE9F84FC44B21F000469E4204460D46D8
:1008E0008A460EDDC14B9E4200F3AC8000F0A7802B
:1008F000BAF1000F40F3EA809FA1D1E90001BDE801
:10090000F88FBB4B9E4200F3B580A3F1DE739E428D
:1009100040F3A0804FF0FF3B22462B46204629465D
:1009200019F06CFD02460B468046894619F066FDBB
:1009300093A3D3E9002306460F4619F05FFD92A367
:10094000D3E9002319F0A8FB32463B4619F056FDC7
:100950008FA3D3E9002319F09FFB32463B4619F0E1
:100960004DFD8DA3D3E9002319F096FB32463B469B
:1009700019F044FD8AA3D3E9002319F08DFB324618
:100980003B4619F03BFD88A3D3E9002319F084FB13
:1009900042464B4619F032FD85A3D3E90023804639
:1009A00089463046394619F029FD83A3D3E900234F
:1009B00019F070FB32463B4619F020FD80A3D3E9C5
:1009C000002319F067FB32463B4619F017FD7EA362
:1009D000D3E9002319F05EFB32463B4619F00EFDC9
:1009E0007BA3D3E9002319F055FB32463B4619F0AF
:1009F00005FDBBF1FF3F02460B466CD04046494621
:100A000019F04AFB22462B4619F0F8FC794E7A4B36
:100A10004FEACB0B5E449B44DBE9002319F03AFB21
:100A200022462B4619F036FB02460B46D6E900015A
:100A300019F030FBBAF1000F43DBBDE8F88F002856
:100A40003FF456AF22462B462046294619F024FB98
:100A5000BDE8F88F60A3D3E9002319F01DFB002245
:100A6000664B19F05BFF00283FF454AF204629463F
:100A7000BDE8F88F17F0BEFB614B9E4204460D4661
:100A800039DCA3F550239E425EDC02460B4619F08A
:100A900003FB0022594B19F0FDFA002206460F46CF
:100AA0004FF080432046294619F0F6FA02460B46DD
:100AB0003046394619F0CCFD4FF0000B04460D4688
:100AC0002AE701F100431946BDE8F88F44A1D1E9B6
:100AD0000001BDE8F88F4046494619F0DDFA22468C
:100AE0002B4619F08BFC02460B462046294619F08E
:100AF000D1FABDE8F88F434B9E421ADC0022424BEC
:100B000019F0C8FA002206460F463F4B20462946F8
:100B100019F074FC0022394B19F0BEFA02460B465C
:100B20003046394619F094FD4FF0020B04460D464D
:100B3000F2E602460B460020344919F089FD4FF0D9
:100B4000030B04460D46E7E600222C4B19F0A2FAEF
:100B5000002206460F46294B2046294619F09CFAEA
:100B600002460B463046394619F072FD4FF0010B34
:100B700004460D46D0E600BF182D4454FB21F93F32
:100B800011DA22E33AAD903FEB0D76244B7BA93F7F
:100B9000513DD0A0660DB13F6E204CC5CD45B73F4D
:100BA000FF8300922449C23F0D5555555555D53FF9
:100BB0002F6C6A2C44B4A2BF9AFDDE522DDEAD3FED
:100BC0006D9A74AFF2B0B33F711623FEC671BC3F8D
:100BD000C4EB98999999C93F9C7500883CE4377E8D
:100BE000182D4454FB21F9BFFFFF0F440000F07F94
:100BF000FFFFDB3F90B60100B0B601000000F03F00
:100C0000FFFFF23FFF7F03400000F83F0000F0BF0E
:100C10002DE9F843C1F30A59A9F2FF35132D024615
:100C20000B460C4606468846074622DC002D50DB64
:100C3000DFF8F09049FA05F901EA090E5EEA0606C6
:100C40001CD036A3D3E9002319F026FA0022002392
:100C500019F064FE48B1002C04DD4FF4801343FA10
:100C600005F5A84428EA0904002721463846BDE8CE
:100C7000F883332D06DDB5F5806F3DD0104619465B
:100C8000BDE8F883A9F213494FF0FF3E2EFA09F9A7
:100C900010EA090FF2D021A3D3E9002319F0FCF9DF
:100CA0000022002319F03AFE0028DED0002C09DDD6
:100CB000142D2BD00127C5F1340507FA05F5AE191F
:100CC00028BFB844444626EA090721463846BDE80D
:100CD000F88312A3D3E9002319F0DEF900220023E0
:100CE00019F01CFE0028C0D0002C0BDB54EA0607CC
:100CF00006D00027084CB8E719F0CEF9BDE8F88314
:100D00003C46B2E700274FF00044AEE704F101088B
:100D1000D8E700BFAFF300800000F03F9C7500886B
:100D20003CE4377EFFFF0F002DE9F041C1F30A5785
:100D3000A7F2FF35132D02460B460C4688460646A1
:100D40001CDC002D3FDB3A4F2F41864601EA070CA1
:100D50005CEA0E0E17D034A3D3E9002319F09CF9F6
:100D60000022002319F0DAFD20B1002C3FDB28EA35
:100D70000704002621463046BDE8F081332D06DD0C
:100D8000B5F5806F2FD010461946BDE8F081A7F267
:100D900013474FF0FF3E2EFA07F73842F3D022A355
:100DA000D3E9002319F078F90022002319F0B6FDE9
:100DB0000028DFD0002C20DB444626EA0706214627
:100DC0003046BDE8F08118A3D3E9002319F064F997
:100DD0000022002319F0A2FD0028CBD0002C17DB45
:100DE00000263446C6E719F057F9BDE8F0814FF404
:100DF000801343FA05F5A844B9E7142D10D0012358
:100E0000C5F1340503FA05F5AE1928BF9844D3E7B8
:100E100024F00042074B324318BF1C460026A9E7C6
:100E200004F10108C8E700BF9C7500883CE4377EE8
:100E3000FFFF0F000000F0BF2DE9F04FD84B9942A3
:100E400087B0804689460E4613DCD64B21F000441D
:100E50009C4218DD0022D44B19F038FD002879D0CF
:100E6000002200230020D14919F0F2FB07B0BDE8B1
:100E7000F08FCF4B99422FDD42464B4619F00CF9CB
:100E800007B0BDE8F08FCB4B9C4270DDCA4B1E44CF
:100E90009E427ED80022C94B4046494619F0FCF8D4
:100EA0004FEA215AAAF2FF3ABAF1000F04460D4662
:100EB0000E4640F3DE8142464B4619F0EBF80246FF
:100EC0000B460020BD4919F0E5F822462B4619F0E3
:100ED000BFFBCDE902010BE0B94B9E42DADD9FED8D
:100EE0009A7B8DED027B4FEA265A4446AAF2FF3ADE
:100EF000B44BC6F313069E4246F07F5500F3E780DD
:100F000045F44015204629460022AC4B19F0C2F8A2
:100F1000002204460D46AC4B19F070FA22462B46CF
:100F200019F06CFAA046CDE90401A946CDE900010B
:100F3000002E3AD1002200232046294619F0C6FC93
:100F4000002800F0CE80BAF1000F40F0748100203C
:100F5000002195E742464B464046314619F09AF843
:100F600002460B4619F074FB07B0BDE8F08F002273
:100F7000964B19F091F80022002319F0CFFC0028BD
:100F800000F0CC80924B9C4200F3C880404649461A
:100F900076E700228C4B19F031FA42464B4619F0A5
:100FA0002DFACDE900014FF0000A00224FF08043F6
:100FB0004046494619F070F802460B4640464946FD
:100FC00019F046FB02460B4606460F4619F016FA84
:100FD0005FA3D3E9002304460D4619F00FFA5EA380
:100FE000D3E9002319F058F822462B4619F006FAE7
:100FF0005BA3D3E9002319F04FF822462B4619F0E2
:10100000FDF959A3D3E9002319F046F822462B46EF
:1010100019F0F4F956A3D3E9002319F03DF822465C
:101020002B4619F0EBF954A3D3E9002319F034F857
:1010300022462B4619F0E2F951A3D3E9002319F017
:101040002BF822462B4619F0D9F904460D46BAF181
:10105000000F00F0BF80504619F06AF94AA3D3E9A7
:10106000002382468B4619F0C9F9DDE90023CDE95A
:1010700004012046294619F00FF832463B4619F084
:10108000BDF943A3D3E9002304460D465046594613
:1010900019F0B4F9DDE9022318F0FEFF02460B4611
:1010A0002046294618F0F8FF02460B46DDE900010C
:1010B00018F0F0FF42464B4618F0ECFF02460B4694
:1010C000DDE9040118F0E6FF07B0BDE8F08F45F454
:1010D0000015C6F5801620462946B6100AF1010A09
:1010E00012E72DA3D3E900232046294619F086F9FB
:1010F00002460B460020314918F0CCFFDDE90423FD
:1011000019F07CF906460F46BAF1000F73D102467A
:101110000B462046294618F0BDFFB1E642464B4635
:101120004046494619F06AF90022274B19F066F942
:1011300002460B464046494618F0ACFF07B0BDE8F2
:10114000F08F00BFAFF3008000000000000000003F
:1011500044523EDF12F1C23F9FC678D0099AC33F86
:10116000DE03CB966446C73FAF788E1DC571CC3F7A
:10117000599322942449D23F04FA97999999D93FD7
:10118000935555555555E53F0000E0FE422EE63F8C
:10119000763C7935EF39EA3D555555555555E53F7E
:1011A0007982DA3FFFFFEF3F0000F0BF000050C33D
:1011B000FFFFEF7FFFFF1F3E3C412D400000F03F4F
:1011C000FFFF3F439DA006000000E03F00005043AA
:1011D000FFFF8F3CDDE9004522462B4618F05CFFFF
:1011E00032463B4619F00AF902460B46204629468C
:1011F00018F050FF9CE7504619F09AF823A3D3E962
:10120000002382468B4619F0F9F822A3D3E9002384
:10121000804689465046594619F0F0F8DDE9022328
:1012200018F03AFF02460B463046394618F032FFB6
:1012300022462B46DCE7504619F07AF815A3D3E98D
:10124000002306460F4619F0D9F8DDE9022318F00D
:1012500023FF0EA3D3E9002304460D46304639464A
:1012600019F0CCF802460B462046294618F014FF28
:1012700006E60022044B18F00DFF02460B464046DE
:10128000494618F007FF20E60000F03F0000E0FEAE
:10129000422EE63F763C7935EF39EA3D000000000A
:1012A00008B517F02DFB04A3D3E9002319F0D0F9FA
:1012B00008BD00BFAFF30080EF39FAFE422EE63FD3
:1012C0002DE9F043DFF8B4808BB004460D4601F001
:1012D000F3F898F90030013306460F462BD022462A
:1012E0002B462046294619F023FB814618BB204691
:1012F000294616F07FFF1FA3D3E9002319F00EFB48
:10130000C8B1194A98F90030CDF820900321CDE9F1
:101310000445CDE902458DE806008BB9134B4FF02B
:101320006042CDE90623684618F0B6FC70B1089B10
:101330009BB9DDE90667304639460BB0BDE8F0835E
:101340000B490020022BCDE90601ECD118F030FE4C
:1013500022230360089B002BEBD018F029FE089B8A
:101360000360E6E7AFF30080A8C90100FFFFEF4785
:101370000000F07F7DF8B98FCE338640FF0100205A
:101380002DE9F043DFF8E4808BB004460D4601F010
:1013900043F998F90030013306460F4633D0204612
:1013A000294618F073FC70B32CA3D3E90023204620
:1013B000294619F0B3FA814650BB2AA3D3E900238A
:1013C0002046294619F08CFAE8B198F90030204AF5
:1013D000CDF82090002600270421022BCDE90445FA
:1013E000CDE90245CDE906678DE8060029D06846BB
:1013F00018F052FC28B3089B1BB118F0D9FD089BCC
:101400000360DDE90667304639460BB0BDE8F0837E
:101410000F4A98F90030019203210022CDE90445DA
:10142000CDE90245009108922BB90A4B4FF060427A
:10143000CDE90623DBE708490020022BCDE90601B0
:10144000D5D118F0B5FD22230360D4E7AFF30080B7
:10145000B0C90100FFFFEF470000F07FEF39FAFE4F
:10146000422E864051302DD5104987C0FF01002003
:101470002DE9F04FDFF80C938DB006460F46144669
:101480001D4601F0C5FC99F90080B8F1FF3FCDE998
:10149000000136D022462B462046294619F048FA4C
:1014A000834670BB32463B463046394619F040FA17
:1014B0008246002840F0A2803046394600220023B0
:1014C00019F004FA10B3002200232046294619F02F
:1014D000FDF9834600286AD09FEDA17B0122A44B31
:1014E000CDF828A00292CDE90467CDE906458DED3F
:1014F000087B0393B8F1000F45D09FED9B7B8DEDEA
:10150000007BDDE900010DB0BDE8F08FDDE90001F1
:1015100018F0BCFB8046002800F08D804FF0000AD8
:101520004FF0000BDDE9000152465B4619F0CEF9A1
:101530000028E6D03046394618F0A8FB0028E0D055
:101540002046294618F0A2FB0028DAD099F900308D
:10155000874A039204210022022BCDE90467CDE9DA
:101560000645CDE908AB02910A9203D002A818F013
:1015700093FB68B918F01CFD2223036008E09FED7F
:10158000787B8DED087B02A818F086FB002830D010
:101590000A9B1BB118F00CFD0A9B03609DED087BB4
:1015A0008DED007BDDE900010DB0BDE8F08F204638
:1015B000294618F06BFB0028A3D000220023204608
:1015C000294619F08DF900289BD099F90030684A16
:1015D000CDF828B00121CDE90467CDE90645029197
:1015E0000392002BCBD063490020022BCDE90801E8
:1015F000C9D118F0DDFC21230360C9E700220023D4
:101600002046294619F062F900283FF47AAF5A4B78
:101610005749CDF828B000220120B8F1020FCDE9DA
:1016200004670290CDE90645CDE908230391AAD1CC
:10163000CDE9002365E73046394618F027FB00283E
:101640003FF46CAF2046294618F020FB00283FF4F9
:1016500065AFDDE900231046194619F069F9002845
:101660005FD1032399F900800293414B0A90CDE9A1
:101670000467CDE906450393B8F1000F2BD1DFF8DD
:1016800008B14FF0604A0022002330463946CDE9C8
:1016900008AB19F025F900283FF468AF0022374B5A
:1016A0002046294618F0AAFE04460D4618F0FCFA1A
:1016B00002460B462046294619F008F970BB304B0C
:1016C00099F900804FF06042CDE90823B8F1020F8C
:1016D0007FF44CAF4EE7DFF8B4B04FF0000A0022C1
:1016E000002330463946CDE908AB19F0F9F8002857
:1016F000ECD00022214B2046294618F07FFE0446FC
:101700000D4618F0D1FA02460B462046294619F03C
:10171000DDF818B9174B0022CDE9082399F90080AC
:10172000D4E799F90090124BCDF828800122CDE939
:101730000467CDE9064502920393B9F1000F3FF427
:101740001EAF002200231046194618F081FFB9F1A0
:10175000020FCDE908013FF44CAF14E7AFF300806E
:101760000000000000000000000000000000F03F4A
:10177000C8C901000000F0FF0000F03F0000E03F9A
:10178000FFFFEFC7FF010020FFFFEF470000F07FE2
:101790002DE9F84FC44E21F00043B34204460D46F4
:1017A0000DDD03F1404303F58013034340F0B9809E
:1017B000002940F3408100200021BDE8F88FBB4E96
:1017C000B34240F3A6800029C0F2788102460B465E
:1017D0000020B74918F05EFC0022B64B18F00EFE50
:1017E00004460D4617F0CAFB95A3D3E900238946AA
:1017F00080462946204618F001FE93A3D3E9002332
:1018000018F04AFC22462B4618F0F8FD90A3D3E9C5
:10181000002318F03FFC22462B4618F0EFFD8EA364
:10182000D3E9002318F038FC22462B4618F0E6FDD9
:101830008BA3D3E9002318F02DFC22462B4618F089
:10184000DDFD89A3D3E9002318F026FC22462B46B0
:1018500018F0D4FD86A3D3E9002382468B462046A8
:10186000294618F0CBFD84A3D3E9002318F012FC1D
:1018700022462B4618F0C2FD81A3D3E9002318F0BD
:101880000BFC22462B4618F0B9FD7FA3D3E90023B9
:1018900018F000FC22462B4618F0B0FD0022844BC5
:1018A00018F0FAFB02460B465046594618F0D0FE97
:1018B00042464B4618F0A2FD002682468B46324631
:1018C0004B463046494618F099FD02460B462046E5
:1018D000294618F0DFFB324604460D464B4640468B
:1018E000494618F0D9FB02460B462046294618F017
:1018F000AFFE02460B465046594618F0CDFB324625
:101900004B4618F0C9FB02460B4618F0C5FBBDE874
:10191000F88F694A93420EDC5DA1D1E90001BDE870
:10192000F88F02460B4618F0B5FB02460B4618F03E
:101930008FFEBDE8F88F02460B4618F05FFD40A30E
:10194000D3E9002306460F4618F058FD3EA3D3E91D
:10195000002318F0A1FB32463B4618F04FFD3CA394
:10196000D3E9002318F096FB32463B4618F046FDBB
:1019700039A3D3E9002318F08FFB32463B4618F019
:101980003DFD37A3D3E9002318F084FB32463B46E4
:1019900018F034FD34A3D3E9002318F07DFB324660
:1019A0003B4618F02BFD32A3D3E90023804689463D
:1019B0003046394618F022FD2FA3D3E9002318F052
:1019C00069FB32463B4618F019FD2DA3D3E90023ED
:1019D00018F062FB32463B4618F010FD2AA3D3E90B
:1019E000002318F057FB32463B4618F007FD002253
:1019F0002F4B18F051FB02460B464046494618F063
:101A000027FE22462B4618F0F9FC02460B4622A17F
:101A1000D1E9000118F03EFB02460B46204629465C
:101A200018F038FB02460B4619A1D1E9000118F065
:101A300031FBBDE8F88F1AA1D1E90001BDE8F88FAC
:101A400009F7FD0DE13D023F88B20175E0EF493F26
:101A50003B8F68B52882A43F5544880E55C1C93FC5
:101A60007D6FEB0312D6D43F555555555555C53F9F
:101A700082922EB1C5B8B33F59018D1B6C06E63F6B
:101A8000C88A599CE52A00404B2D8A1C273A0340FE
:101A9000182D4454FB21F93F075C143326A6913CD2
:101AA000182D4454FB210940FFFFEF3FFFFFDF3FAC
:101AB0000000F03F0000E03F0000603C00225C4B73
:101AC00018F0EAFA00225B4B18F098FC40A3D3E927
:101AD000002304460D4618F091FC3FA3D3E90023F0
:101AE00018F0DAFA22462B4618F088FC3CA3D3E91A
:101AF000002318F0CFFA22462B4618F07FFC3AA3B9
:101B0000D3E9002318F0C8FA22462B4618F076FCD9
:101B100037A3D3E9002318F0BDFA22462B4618F06C
:101B20006DFC35A3D3E9002318F0B6FA22462B4604
:101B300018F064FC804689462046294617F01EFAB4
:101B40002FA3D3E9002306460F462046294618F066
:101B500055FC2DA3D3E9002318F09CFA22462B460E
:101B600018F04CFC2AA3D3E9002318F095FA22467A
:101B70002B4618F043FC28A3D3E9002318F08AFA77
:101B800022462B4618F03AFC0022294B18F084FA22
:101B900002460B464046494618F05AFD32463B463F
:101BA00018F02CFC1EA3D3E9002318F073FA324678
:101BB0003B4618F071FA02460B4618F06DFA0246E1
:101BC0000B4619A1D1E9000118F064FABDE8F88FBD
:101BD00009F7FD0DE13D023F88B20175E0EF493F95
:101BE0003B8F68B52882A43F5544880E55C1C93F34
:101BF0007D6FEB0312D6D43F555555555555C53F0E
:101C000082922EB1C5B8B33F59018D1B6C06E63FD9
:101C1000C88A599CE52A00404B2D8A1C273A03406C
:101C2000075C143326A6913C182D4454FB2109402F
:101C30000000F03F0000E03F434A91422DE9F843A5
:101C400004460D4639DD414A914209DD02F17952DF
:101C5000914240DD02460B4618F01EFABDE8F883BB
:101C600001F1404202F58012024330D0B1F1804FC1
:101C70003ADC0022364B18F00DFA02460B460446B9
:101C80000D4618F009FA224606460F462B46204616
:101C9000294618F0B3FB02460B463046394618F089
:101CA000FBF917F06BF90B4602462946204618F05F
:101CB000F3F9BDE8F843FFF7BFB802460B4618F04A
:101CC000E9F902460B4618F0C3FCBDE8F883002092
:101CD0000021BDE8F88300F017FE19A3D3E9002323
:101CE00018F0DAF9BDE8F88302460B4618F086FBD7
:101CF0000022174B18F0CEF917F040F92246804623
:101D000089462B462046294618F0C6F94246064623
:101D10000F464B462046294618F0BEF902460B46B0
:101D200000200B4918F094FC0B4602463946304619
:101D300018F0B0F9BDE8F84300F0E6BDAFF300805D
:101D4000EF39FAFE422EE63FFFFFEF3FFFFFAF41C4
:101D50000000F03F000000002DE9F047BE4B21F0ED
:101D60000048984584B004460D4612DD08F140480D
:101D700008F58018034658EA030321D002460B46B3
:101D800018F088F902460B4618F062FC04B0BDE872
:101D9000F087B24B98458A4629DCB8F1795F80F22A
:101DA000658191A3D3E9002318F076F90022AC4BAA
:101DB00018F0B4FDD8B12046294604B0BDE8F0873C
:101DC0008BA3D3E9002318F019FB8BA3D3E90023DD
:101DD00006460F462046294618F010FB02460B46E1
:101DE0003046394618F058F904B0BDE8F08720466F
:101DF000294616F0FFF902460B460020984918F0D4
:101E000049F90022974B18F0F9FA7DA3D3E9002392
:101E100004460D4618F0F2FA7BA3D3E9002318F02C
:101E20003BF922462B4618F0E9FA79A3D3E90023BF
:101E300018F030F922462B4618F0E0FA76A3D3E9E1
:101E4000002318F029F922462B4618F0D7FA74A37C
:101E5000D3E9002318F01EF922462B4618F0CEFADB
:101E600071A3D3E9002318F017F922462B4618F086
:101E7000C5FA6FA3D3E90023CDE900012046294626
:101E800018F0BCFA6CA3D3E9002318F003F922463A
:101E90002B4618F0B3FA6AA3D3E9002318F0FCF834
:101EA00022462B4618F0AAFA67A3D3E9002318F0BC
:101EB000F1F822462B4618F0A1FA694B002218F0DF
:101EC000EBF8CDE902012046294617F057F8664B9A
:101ED000984506460F4666DCDDE90223DDE9000190
:101EE00018F0B6FB3246CDE900013B463046394694
:101EF00018F0D2F802460B46DDE9000118F07EFA30
:101F00004FF00008CDE9000142463B4640463946C5
:101F100018F074FA02460B462046294618F0BAF823
:101F2000424604460D463B463046394618F0B4F862
:101F300002460B462046294618F08AFB02460B460D
:101F400018F0AAF802460B462BA1D1E9000118F0BF
:101F5000A1F802460B46DDE9000118F09BF8424665
:101F600004460D463B464046394618F095F8024671
:101F70000B4637A1D1E9000118F08CF802460B4658
:101F80002046294618F086F802460B4630A1D1E9D2
:101F9000000118F07FF8BAF1000F3FF7F7AE01F13A
:101FA00000431946F2E6DDE90223DDE9000118F0FD
:101FB0004FFB32463B4618F021FA32463B4618F0BA
:101FC0006BF802460B4618F067F80BA3D3E9002321
:101FD00018F060F802460B4605A1D1E9000118F09F
:101FE00059F8D8E7AFF300809C7500883CE4377E51
:101FF000182D4454FB21F93F075C143326A6913C6D
:1020000009F7FD0DE13D023F88B20175E0EF493F60
:102010003B8F68B52882A43F5544880E55C1C93FFF
:102020007D6FEB0312D6D43F555555555555C53FD9
:1020300082922EB1C5B8B33F59018D1B6C06E63FA5
:10204000C88A599CE52A00404B2D8A1C273A034038
:10205000182D4454FB21E93FFFFFEF3FFFFFDF3F17
:102060000000F03F0000E03F3233EF3F02460B46F6
:1020700018F0C4F937A3D3E9002306460F4618F039
:10208000BDF936A3D3E9002318F006F832463B46E3
:1020900018F0B4F933A3D3E9002317F0FBFF32465D
:1020A0003B4618F0ABF931A3D3E9002317F0F4FF56
:1020B00032463B4618F0A2F92EA3D3E9002317F0CD
:1020C000E9FF32463B4618F099F92CA3D3E90023E7
:1020D00017F0E2FF32463B4618F090F929A3D3E906
:1020E0000023804689463046394618F087F927A3F1
:1020F000D3E9002317F0CEFF32463B4618F07EF9B5
:1021000024A3D3E9002317F0C7FF32463B4618F05B
:1021100075F922A3D3E9002317F0BCFF32463B46F2
:1021200018F06CF900220A4B17F0B6FF02460B4676
:102130004046494618F08CFA22462B4618F05EF9C4
:1021400022462B4617F0A8FF04B0BDE8F08700BF79
:102150000000F03F09F7FD0DE13D023F88B2017537
:10216000E0EF493F3B8F68B52882A43F5544880E75
:1021700055C1C93F7D6FEB0312D6D43F5555555518
:102180005555C53F82922EB1C5B8B33F59018D1B3D
:102190006C06E63FC88A599CE52A00404B2D8A1CF4
:1021A000273A0340000000002DE9F84F1D46534236
:1021B000134325F0004ADFF8E0E14AEAD3737345A0
:1021C000144606460F4647D8C0F1000848EA000802
:1021D00021F0004343EAD878F0458B463CD805F11E
:1021E000404808F5801858EA020850D04FEAA57810
:1021F00008F0020848EAD17850EA030134D052EAE4
:102200000A023CD0F24557D0734538D0A3EB0A03FD
:102210001B153C2B42DC002D70DB22462B46304642
:10222000394618F015FA15F0E5FFFEF751FBB8F145
:10223000010F5FD0B8F1020F4ED0B8F1000F62D09D
:1022400043A3D3E9002317F025FF43A3D3E90023D9
:1022500017F020FFBDE8F88F32463B46204629465E
:1022600017F01AFFBDE8F88FB8F1020F1AD0B8F1D5
:10227000030F10D13AA1D1E90001BDE8F88FBBF1FD
:10228000000F14DB38A1D1E90001BDE8F88FBDE8EB
:10229000F84FFEF71DBB3946BDE8F88F32A1D1E9F2
:1022A0000001C4E72CA1D1E90001BDE8F88F30A1FD
:1022B000D1E90001BDE8F88F534526D0B8F1020FEF
:1022C000F0D0B8F1030FD5D0B8F1010F4FF00000F6
:1022D00029D00021BDE8F88F1DA3D3E9002317F012
:1022E000D9FE02460B461CA1D1E9000117F0D2FE2F
:1022F000BDE8F88F01F10041BDE8F88F3C338CDA7E
:102300000020002193E7BDE8F88FB8F1020F18D044
:10231000B8F1030F10D0B8F1010F08D016A1D1E920
:102320000001BDE8F88F4FF00041BDE8F88F14A11F
:10233000D1E90001BDE8F88F13A1D1E90001BDE8A2
:10234000F88F13A1D1E90001BDE8F88FAFF3008049
:10235000075C143326A6A13C182D4454FB210940E8
:10236000182D4454FB2109C0182D4454FB21F93F7A
:10237000182D4454FB21F9BF182D4454FB21E93F8B
:10238000182D4454FB21E9BFD221337F7CD902C0F0
:10239000D221337F7CD902400000F07F0000000092
:1023A00043422DE9F047034321F000463E4A46EA06
:1023B000D373934204460D4613D896423DD03B4B0F
:1023C0009E428A4617DC36A3D3E9002317F064FE49
:1023D0000022002318F0A2FAA8B320462946BDE83F
:1023E000F08702460B4617F055FE02460B4618F0E2
:1023F0002FF9BDE8F0872E4B9E42354624DD33464B
:102400000246314617F048FE224606460F462B4646
:102410000020254917F03EFE02460B46304639465D
:1024200018F016F9FEF708FD0022224B17F0E6FF20
:10243000BAF1000F2FDBBDE8F0870022002318F06F
:1024400007F9BDE8F087354622462B462046294647
:1024500017F022FE22462B4606460F4617F0CEFF07
:102460002246804689462B4600200F4917F012FE6F
:1024700002460B464046494618F0EAF832463B46CB
:1024800017F00AFEFEF7D8FC00220A4B17F0B6FF41
:10249000BAF1000FCFDA01F100431946BDE8F08729
:1024A0009C7500883CE4377E0000F03FFFFF2F3E24
:1024B000FFFFDF3F0000E03F2DE9F8434E4B21F0E6
:1024C00000449C4206460F461BDC4C4B9C4222DDDE
:1024D0004B4B9C4263DD4B4B9C427BDD4A4B9C4209
:1024E00046DD01339C4240D041A3D3E9002310468E
:1024F000194617F083FF06460F4630463946BDE8B9
:10250000F88302460B4617F079FF06460F46304621
:102510003946BDE8F88315F06DFE02F0B1FC0022EB
:102520003A4B8046894617F0B7FDB4F1725F064614
:102530000F46ECDB42464B464046494617F05EFFED
:1025400032463B4604460D463046394617F0A4FD58
:1025500002460B462046294618F07AF800222B4BFB
:1025600017F09AFD06460F46D1E7294B9842BBD893
:102570003046394615F03EFE0022264B17F03EFF4E
:1025800000F04AF8002204460D46224B17F036FFB1
:1025900022462B4617F032FF06460F46B7E715F0E6
:1025A00029FE00F039F800221A4B06460F4617F0B4
:1025B00025FF32463B4604460D460020154918F0DB
:1025C00047F802460B462046294617F065FD0646A9
:1025D0000F469CE715F00EFE00F01EF800220D4B92
:1025E00017F00CFF06460F4691E700BFAFF30080DF
:1025F0009C7500883CE4377EFFFFEF7F422ED63F7C
:10260000FFFF3540412E8640CD3386400000F03F2D
:102610007DF8B98F0000E03F2DE9F04FB04E21F07A
:102620000042B24283B004460D464FEAD1770DD93D
:10263000AC4EB24225D9C1F31303034340F0EC8002
:102640000FB10020002103B0BDE8F08FA64B9A42E5
:1026500000F2CB80A54B9A4200F2DC808AA3D3E93A
:10266000002317F019FD0022A14B18F057F900289C
:1026700000F006812046294600229D4B17F00CFDF4
:10268000E1E783A3D3E9002318F048F9002840F0DC
:10269000C88081A3D3E900232046294618F020F9F9
:1026A0000028CED1934E7EA3D3E9002306EBC706C4
:1026B0002046294617F0A2FED6E9002317F0ECFCCD
:1026C00018F04CF9064617F033FE77A3D3E9002340
:1026D0008046894617F092FE02460B462046294660
:1026E00017F0D8FC72A3D3E90023CDE900014046DE
:1026F000494617F083FE82468B4652465B46DDE92B
:10270000000117F0C7FC04460D4622462B46204622
:10271000294617F073FE68A3D3E900238046894653
:1027200017F06CFE66A3D3E9002317F0B3FC424612
:102730004B4617F063FE64A3D3E9002317F0ACFC0B
:1027400042464B4617F05AFE61A3D3E9002317F027
:10275000A1FC42464B4617F051FE5FA3D3E900238C
:1027600017F09AFC42464B4617F048FE02460B46CD
:102770002046294617F08EFC80468946002E58D008
:102780002046294642464B4617F038FE424604464C
:102790000D464B4600204FF0804117F07BFC02466F
:1027A0000B462046294617F053FF02460B4650467B
:1027B000594617F06FFCDDE9002317F06BFC0B4660
:1027C00002464B49002017F065FC6FF47F739E4270
:1027D00051DA06F57A7601EB065100224FF0B87314
:1027E00017F00CFE03B0BDE8F08F434B9A423FF662
:1027F00059AF424BFC002344D3E9002317F04AFCB5
:102800003F4BC7F101062344CDE90001D3E900ABFA
:10281000F61B72E7002678E702460B4617F03CFCF1
:1028200011E719A3D3E900231046194617F0E6FD76
:1028300009E702460B462046294617F0DFFD002235
:1028400006460F464FF080434046494617F022FCAB
:1028500002460B463046394617F0FAFE22462B4612
:1028600017F018FC02460B460020214917F012FC15
:1028700003B0BDE8F08F01EB065103B0BDE8F08F67
:10288000064642E7AFF300809C7500883CE4377E43
:10289000EF39FAFE422E864051302DD5104987C0BF
:1028A000FE822B654715F73F0000E0FE422EE63F13
:1028B000763C7935EF39EA3DD0A4BE726937663E81
:1028C000F16BD2C541BDBB3E2CDE25AF6A56113F30
:1028D00093BDBE166CC1663F3E5555555555C53F17
:1028E000412E8640FFFFEF7F422ED63FFFFF2F3E57
:1028F0000000F03FD0B60100B1A2F03FE0B6010009
:10290000F0B60100000000002DE9F04FB1F5801F86
:1029100085B006460F460B465ADA024621F00044BF
:10292000224300F0F8800029C0F27A810022D64BC1
:1029300017F064FDD54A0B46934206460F466FF0EA
:10294000350C4ADCC3F3130505F5152E0EF6647E2F
:102950000EF4801E8EF07F5282F440121C1542EA63
:102960000507A4F2FF3464440022C94B30463946BF
:1029700004EB1E5417F08EFBAB1CC3F31303022BA6
:1029800082468B464FF0000230DC002317F09EFF9A
:10299000002800F0C980002C00F04B81204617F081
:1029A000C7FCA5A3D3E9002306460F4617F026FD72
:1029B000A3A3D3E9002304460D463046394617F059
:1029C0001DFD02460B462046294617F065FB0AE02E
:1029D000AE4A93424FF0000CB4DD32463B463046DF
:1029E000394617F059FB05B0BDE8F08F4FF0804332
:1029F00017F052FB02460B465046594617F028FE88
:102A0000064620460F4617F093FC3246CDE90001FA
:102A10003B4630463946CDE9026717F0EFFC0246E7
:102A20000B468046894617F0E9FC87A3D3E90023CB
:102A300006460F4617F0E2FC85A3D3E9002317F002
:102A40002BFB32463B4617F0D9FC83A3D3E9002386
:102A500017F022FB32463B4617F0D0FC80A3D3E9A7
:102A6000002317F019FB42464B4617F0C7FC7EA324
:102A7000D3E90023804689463046394617F0BEFC2C
:102A80007BA3D3E9002317F007FB32463B4617F040
:102A9000B5FC79A3D3E9002317F0FEFA32463B4692
:102AA00017F0ACFC0B4602464946404617F0F4FAD4
:102AB000A5F5C223C5F5D725A3F27A4351351D43A9
:102AC000002D8046894656DD0022724B50465946FD
:102AD00017F094FC52465B4617F090FC06460F46F2
:102AE000002C68D132463B464046494617F0D4FA9E
:102AF000DDE9022317F082FC02460B4630463946D8
:102B000017F0C8FA02460B465046594617F0C2FA6B
:102B100005B0BDE8F08F0022002300205E4917F0C9
:102B200097FD05B0BDE8F08F55A3D3E900235046CB
:102B3000594617F063FC02460B460020554917F032
:102B4000A9FA524606460F465B465046594617F0CC
:102B500055FC02460B463046394617F04FFC0646F8
:102B60000F46002C40F09A8002460B4650465946CC
:102B700017F090FA37E7002C00F0A4802EA3D3E9D9
:102B80000023DDE9000117F039FC42464B460446BC
:102B90000D465046594617F07DFADDE9022317F03D
:102BA0002DFC27A3D3E9002306460F46DDE90001EB
:102BB00017F024FC21E020A3D3E90023DDE9000184
:102BC00017F01CFC32463B4604460D46404649463B
:102BD00017F062FADDE9022317F010FC18A3D3E91D
:102BE000002380468946DDE9000117F007FC024614
:102BF0000B464046494617F04FFA02460B46304610
:102C0000394617F047FA52465B4617F043FA024638
:102C10000B462046294617F03DFA05B0BDE8F08F77
:102C200002460B4617F036FA0022002317F010FD7B
:102C3000D9E600200021D6E60000E0FE422EE63F65
:102C4000763C7935EF39EA3D44523EDF12F1C23F1E
:102C5000DE03CB966446C73F599322942449D23F62
:102C6000935555555555E53F9FC678D0099AC33FB2
:102C7000AF788E1DC571CC3F04FA97999999D93FC9
:102C8000555555555555D53F00005043FFFFEF7F33
:102C90000000F03F0000E03F000050C3204617F066
:102CA00047FB0FA3D3E900238046894617F0A6FB14
:102CB0000DA3D3E9002304460D464046494617F0CC
:102CC0009DFB9AE702460B465046594617F0E2F93B
:102CD000DDE9022317F092FB14E700BFAFF3008099
:102CE0000000E0FE422EE63F763C7935EF39EA3DC2
:102CF000B1F5801F2DE9F84304460D460B461ADA5C
:102D0000024621F00046324359D000295FDB002201
:102D10003B4B17F073FB3B4A0D462B469342044650
:102D20006FF035010CDD22462B462046294617F070
:102D3000B3F9BDE8F883334A93424FF00001F2DC67
:102D40001815A0F2FF3008444FEAD0794844C3F385
:102D5000130817F0EDFAC9F57F73033348EA0355FA
:102D600006460F4620462946FFF7CEFD1EA3D3E9AF
:102D70000023804689463046394617F03FFB1CA3A6
:102D8000D3E9002304460D464046494617F036FB7A
:102D900002460B462046294617F07EF916A3D3E9D2
:102DA000002304460D463046394617F027FB0246FD
:102DB0000B462046294617F06FF9BDE8F88300223C
:102DC00000230020104917F043FCBDE8F8830246B9
:102DD0000B4617F05FF90022002317F039FCBDE81D
:102DE000F88300BFAFF30080362BF111F3FE593D9D
:102DF0000EE526157BCBDB3F00609F501344D33F8D
:102E000000005043FFFFEF7F000050C300000000B0
:102E10002DE9F04F23F0004757EA020493B037D072
:102E2000674C21F00046A64283460D4629DC9A46AF
:102E3000964625D0A74224DC614CA74279D0002DCC
:102E400080468946CDE9002377DB0024BEF1000FE0
:102E50002CD15B4B9F4200F08B805A4B9F4261D03C
:102E6000BAF1804F00F0C383574B9A451ED1002D15
:102E70001CDB4046494613B0BDE8F04F16F07EB863
:102E800058B106F1404606F5801656EA0B0306D106
:102E90004C49002013B0BDE8F08FB742CCDD4B4861
:102EA00013B0BDE8F04F16F0F9BE00244046494685
:102EB00015F0A0F9BBF1000F19D126B1414B25F057
:102EC00040429A4213D1BAF1000FC0F2CA83002DDA
:102ED000E0DA06F1404606F5801656EA040300F0F3
:102EE000A584012CD6D101F100431946D2E7ED0F9C
:102EF000013D54EA05034ED0354B9F426EDD03F190
:102F000004739F4240F3FE83324B9E424EDDBAF182
:102F1000000F4EDD28A3D3E900231046194617F011
:102F20006DFAB7E7BAF1000FC0F252844046494645
:102F3000B0E7BEF1000F82D0A3E7274B9F4228DC09
:102F4000A3F154739F4280DD3B15A3F2FF33142B92
:102F500040F35484C3F134032EFA03F202FA03F36C
:102F60009E457FF472AF02F00102C2F102046DE7E8
:102F700006F1404303F5801353EA0B0388D0154B49
:102F80009E4240F33B83BAF1000F12DBDDE9000102
:102F900080E702245AE742464B461046194617F08E
:102FA00079F802460B4617F053FB73E7BAF1000FAE
:102FB000B0DB002000216DE79C7500883CE4377E83
:102FC0000000F07F0000F03F0000E03F1CBF010068
:102FD0000000E041FFFFEF3FFFFF3F43B6F5801FDA
:102FE0004FF0000205DAD84B17F008FA6FF0340200
:102FF0000E463315D54FC6F31306A3F2FF33134421
:1030000046F07F5ABE421A460D934AF4401A40F3E6
:103010002F83CF4B9E4240F30D849FEDB57B8DED0A
:10302000087B8DED0E7B9FEDB47B13468DED067B0B
:1030300001330D93AAF5801A0027DDE906235146D6
:10304000CDE90A0117F026F8DDE906238046894616
:10305000DDE90A0117F020F802460B460020BD49C1
:1030600017F0F6FA0A460146CDE910121346494612
:103070000246404617F0C2F94FEA6A0343F0005394
:103080008C46834603F50023CDE904BCDA468B4623
:10309000D9190023CDE902AB0293DDE902AB002090
:1030A00006460F4602460B465046594617F0A6F90B
:1030B00002460B464046494616F0ECFFDDE9062382
:1030C000804689463046394616F0E4FF02460B46F4
:1030D000DDE90A0116F0DEFF52465B4617F08EF975
:1030E00002460B464046494616F0D4FFDDE9102360
:1030F00017F084F9DDE90467CDE9060132463B4665
:103100003046394617F07AF97DA3D3E90023064605
:103110000F4617F073F97CA3D3E9002316F0BCFF28
:1031200032463B4617F06AF979A3D3E9002316F03B
:10313000B3FF32463B4617F061F977A3D3E900238A
:1031400016F0AAFF32463B4617F058F974A3D3E9AC
:10315000002316F0A1FF32463B4617F04FF972A349
:10316000D3E9002316F098FF3246804689463B4655
:103170003046394617F042F902460B46404649466A
:1031800017F03CF9524606460F465B46DDE904015E
:1031900016F082FFDDE9062317F030F932463B4690
:1031A00016F07AFF5246804689465B46504659469D
:1031B00017F024F90022684BCDE90A0116F06CFFE4
:1031C00042464B4616F068FF02980F4606463246C6
:1031D0003B465046594617F011F9002282468B466D
:1031E0005D4B3046394616F055FFDDE90A2316F0EF
:1031F00051FF02460B464046494616F04BFFDDE9BB
:10320000042317F0FBF83246804689463B46DDE949
:10321000060117F0F3F802460B464046494616F001
:103220003BFF8046894602460B4650465946CDE94B
:1032300004AB16F031FFDDE902AB3DA3D3E9002377
:1032400050460F4617F0DAF8DDE90423CDE9020114
:103250003946504616F01EFF02460B464046494688
:1032600016F018FF34A3D3E9002317F0C7F834A3EE
:10327000D3E90023804689465046394617F0BEF808
:1032800002460B464046494616F006FFDDE90E238E
:1032900016F002FF80460D98894617F049F842461D
:1032A00006460F464B46DDE9020116F0F5FEDDE964
:1032B000082316F0F1FE32463B4616F0EDFE32468C
:1032C0003B4650468B4616F0E5FEDDE9082316F036
:1032D000E1FEDDE9022316F0DDFE02460B46404624
:1032E000494616F0D7FE8046894637E0AFF30080A6
:1032F0000000000000000000000000000000F03F9F
:10330000EF4E454A287ECA3F65DBC9934A86CD3FCA
:1033100001411DA96074D13F4D268F515555D53FB0
:10332000FFAB6FDBB66DDB3F033333333333E33F48
:10333000000000E009C7EE3FFD033ADC09C7EE3F9D
:10334000F5015B14E02F3EBE000040438E98030061
:1033500079B60B000000F03F00000840013C54EA41
:10336000050300F079819FEDC87B8DED047BDDE9DD
:1033700000120B461446CDE9023400230293DDE926
:10338000024508462B461146224616F083FE524659
:103390005B4617F033F8DDE9002306460F4640464A
:1033A000494617F02BF802460B463046394616F0D0
:1033B00073FE2246804689462B4650465946CDE943
:1033C000008917F01BF80B46024606460F4640469A
:1033D000494616F061FEC64B994204460D468A46A0
:1033E00040F3168101F13F4303F5E003034340F04E
:1033F000F781A7A3D3E90023DDE9000116F04CFE15
:103400003246804689463B462046294616F042FE13
:1034100002460B464046494617F080FA002840F025
:10342000DF81A8464FEA28534FF48012A3F2FE33FF
:1034300042FA03F35344C3F30A52AE4DA2F2FF32F1
:103440001541C3F3130423EA05010020C2F1140B54
:1034500044F48014BAF1000F02460B4644FA0BFB09
:1034600030463946B8BFCBF1000B16F013FE0246CA
:103470000B4606460F46DDE9000116F00DFE4FEA49
:103480000B5A0D46002484A3D3E900232046294685
:1034900016F0B4FF3246804689463B462046294610
:1034A00016F0F8FD02460B46DDE9000116F0F2FDCC
:1034B0007BA3D3E9002316F0A1FF7BA3D3E900236C
:1034C00006460F462046294616F098FF02460B4650
:1034D0003046394616F0E0FD06460F4602460B46DA
:1034E0004046494616F0D8FD42464B4604460D4636
:1034F00016F0D0FD02460B463046394616F0CAFD9E
:103500002246804689462B462046294616F076FFFD
:1035100067A3D3E9002306460F4616F06FFF66A3A4
:10352000D3E9002316F0B6FD32463B4616F066FF9F
:1035300063A3D3E9002316F0AFFD32463B4616F0F5
:103540005DFF61A3D3E9002316F0A4FD32463B469C
:1035500016F054FF5EA3D3E9002316F09DFD32461A
:103560003B4616F04BFF02460B462046294616F016
:1035700091FD06460F4602460B462046294616F0A8
:103580003DFF0022CDE900014FF08043304639462F
:1035900016F080FD02460B46DDE9000117F058F8F1
:1035A000424606460F464B462046294616F026FF61
:1035B00042464B4616F070FD02460B4630463946F1
:1035C00016F068FD22462B4616F064FD02460B46B7
:1035D0000020494916F05EFD8A44BAF5801FC0F20A
:1035E00039815146DDE9042316F008FF52E44246D2
:1035F0004B464046494616F001FF4BE4BAF1000F36
:10360000BFF6D7ACDDE90034184604F1004141E4CF
:103610003A4B21F00048984540F3FF80384B0B446B
:1036200003430CD132463B4616F034FD02460B46AE
:10363000DDE9000117F05EF900283FF4F3AEDDE9A3
:10364000040125A3D3E9002316F0D8FE22A3D3E971
:10365000002316F0D3FE1DE49FED217B8DED047B4E
:1036600085E602460B460020234916F0F1FF2EE4C2
:103670009FED1D7B8DED087B8DED0E7B9FED027B1D
:1036800000278DED067BD8E4000000000000F03F2D
:10369000FE822B654715973C00000000432EE63F55
:1036A000EF39FAFE422EE63F396CA80C615C20BE71
:1036B000D0A4BE726937663EF16BD2C541BDBB3E38
:1036C0002CDE25AF6A56113F93BDBE166CC1663F16
:1036D0003E5555555555C53F59F3F8C21F6EA501C6
:1036E000000000000000F0BF00000000000000002B
:1036F000FFFF8F40FFFF0F000000F03FFFCB904027
:1037000000346F3F684B9E427FF750AC674B9E4240
:103710003FF7FDAB0022654B16F0BCFC52A3D3E98A
:10372000002306460F4616F069FE51A3D3E9002395
:10373000804689463046394616F060FE00228246B1
:103740008B465B4B3046394616F058FE02460B4618
:1037500049A1D1E9000116F09DFC32463B4616F026
:103760004DFE02460B460020524916F093FC3246AD
:10377000CDE902013B463046394616F03FFE02468F
:103780000B46DDE9020116F039FE3DA3D3E9002323
:1037900016F034FE02460B465046594616F07AFCA7
:1037A00002460B4606460F464046494616F074FC54
:1037B00042464B46002082468B4616F06BFC024682
:1037C0000B463046394616F065FC80468946C5E50D
:1037D00042464B460020354916F03AFFFFF75ABBE8
:1037E000DDE9040128A3D3E9002316F007FE26A390
:1037F000D3E9002316F002FEFFF74CBBBEF1000F29
:103800007FF453ABC3F1140347FA03F202FA03F354
:103810009F4223D07446FFF720BB264B98453FF7C5
:1038200001AEDDE90223924693462BE602460B46A3
:10383000FFF7B3BB9FED167B8DED087B9FED167BED
:103840008DED0E7B9FED167B4FF480278DED067B73
:10385000FFF7F3BB5A4601F04FFDC3E602F0010249
:10386000C2F10204FFF7F9BA000000604715F73F04
:1038700044DF5DF80BAE543E555555555555D53F73
:10388000FE822B654715F73F9C7500883CE4377E28
:103890000000004003B8E23F06D0CF43EBFD4C3EB2
:1038A000000000000000F83FFEFFEF3F0000F03F87
:1038B0000000D03F0000E03F2DE9F0479C4B21F095
:1038C00000479F4290B08046894640F38E80994BD6
:1038D0009F420C46924626DC00298BA3D3E90023A5
:1038E00040F3B08116F0D6FB934B9F4204460D4641
:1038F00000F0908086A3D3E9002316F0CBFB0246AC
:103900000B46CAE900232046294616F0C3FB80A3D4
:10391000D3E9002316F0BEFB0125CAE902012846BF
:1039200010B0BDE8F087854B9F4240F39080844BF8
:103930009F4265DC3D15A5F21645A7EB05531946D8
:103940001F46064617F00AF816F0F2FC8046894634
:1039500042464B4630463946CDE90A8916F09AFB75
:103960000022784B16F04AFD8946804616F0F6FF95
:1039700016F0DEFC06460F4632463B4640464946B8
:10398000CDE90C6716F086FB00226E4B16F036FD73
:1039900000220023CDE90E0116F098FF002800F068
:1039A0006F81002330463946002216F08FFF002831
:1039B00014BF01230223644A019202212A46009186
:1039C0000AA8514600F08CFB002C054614DADAF800
:1039D0000420DAF80C3002F1004203F100434542C2
:1039E000CAF80420CAF80C3006E000200021C2E921
:1039F0000089C2E902010025284610B0BDE8F08721
:103A000002460B4616F046FB0025CAE90201CAE948
:103A10000001F1E740A3D3E9002316F03BFB40A3EC
:103A2000D3E900230D46044616F034FB02460B464C
:103A3000CAE900232946204616F02CFB38A3D3E917
:103A4000002316F027FB0125CAE90201D4E714F090
:103A5000D1FB35A3D3E900238046894616F0CEFC7E
:103A600000223A4B16F018FB16F078FF054616F0C8
:103A70005FFC25A3D3E90023CDE9060116F0BEFCC7
:103A800002460B464046494616F004FB20A3D3E904
:103A90000023CDE90201DDE9060116F0AFFC1F2D80
:103AA00080468946CDE9048954DC294B6A1E53F8C7
:103AB00022309F424ED002460B46DDE9020116F04D
:103AC000E9FA80468946CAE9008942464B46DDE963
:103AD000020116F0DFFADDE9042316F0DBFA002C10
:103AE000CAE9020188DA09F1004401F100436D429C
:103AF000CAF80080CAF80440CAF80800CAF80C30B6
:103B00007AE700BFAFF3008000004054FB21F93F8B
:103B10003163621A61B4D03D0000601A61B4D03DD7
:103B20007370032E8A19A33B83C8C96D305FE43FCD
:103B3000FB21E93F7BD90240FB21F93FFB213941C1
:103B4000FFFFEF7F0000704164CA01000000E03F0A
:103B5000E4C90100DDE90423DDE9020116F09AFA67
:103B60003F15C1F30A53FB1A80468946102BCAE958
:103B70000089AADD58A3D3E90023DDE9060116F088
:103B80003DFC8046894602460B46DDE9020116F0FF
:103B900081FA02460B46DDE90201CDE9082316F061
:103BA00079FA42464B4616F075FA4DA3D3E9002345
:103BB00080468946DDE9060116F020FC42464B4668
:103BC00016F068FA0B46CDE904010246DDE908016A
:103BD00016F060FAC1F30A53FF1A80468946312F66
:103BE000CAE900896CDD41A3D3E90023DDE90601C0
:103BF00016F004FCDDE9088906460F4602460B462E
:103C00004046494616F046FA02460B4640464946AB
:103C1000CDE9022316F03EFA32463B4616F03AFA58
:103C200034A3D3E9002306460F46DDE9060116F06A
:103C3000E5FB32463B4616F02DFA02460B46CDE92F
:103C400004233AE716F028FA274B9F4204460D4614
:103C500018D01FA3D3E9002316F01EFA02460B4624
:103C6000CAE900232946204616F014FA18A3D3E91E
:103C7000002316F011FA4FF0FF35CAE90201BBE646
:103C8000032398E614A3D3E9002316F005FA14A33E
:103C9000D3E900230D46044616F0FEF902460B4612
:103CA000CAE900232946204616F0F4F90CA3D3E90B
:103CB000002316F0F1F94FF0FF35CAE902019BE647
:103CC0009DED087B8DED027BFFE600BFAFF300802A
:103CD0003163621A61B4D03D0000601A61B4D03D16
:103CE0007370032E8A19A33BFB21F93F0000002EBD
:103CF0008A19A33BC14920259A837B390000000023
:103D0000594A2DE9F84F21F00048904506460F46E4
:103D10002BDC564B0029B4BF554D564D98454FF0FE
:103D2000000410DC544B984570DC4DA3D3E900230C
:103D300016F0B2F90022514B16F0F0FDD8B1304622
:103D40003946BDE8F88F4E4B98457CDD4D4B984584
:103D500044DD013398453ED03046394640A3D3E98F
:103D6000002316F04BFBBDE8F88F02460B4616F019
:103D700093F9BDE8F88F3046394614F03BFA01F06C
:103D80007FF806460F4632463B463046394616F027
:103D900083F9324682468B463B463046394616F01A
:103DA0002DFB002280468946344B3046394616F0BA
:103DB00073F902460B464046494616F049FC024656
:103DC0000B465046594616F065F922462B4616F02A
:103DD00015FBBDE8F88F2C4B9842BDD830463946CC
:103DE00014F008FA0022234B16F008FBFEF714FC2F
:103DF00006460F4602460B462046294616F0FEFAB6
:103E000032463B4616F0FAFABDE8F88F14F0F2F9A4
:103E100001F036F81D4B984506460F46B3DD0022EB
:103E2000164B16F039F902460B463046394616F065
:103E30000FFC32463B4616F02FF922462B4616F071
:103E4000DDFABDE8F88F14F0D5F9FEF7E5FB024680
:103E50000B462046294616F0D1FABDE8F88F00BF80
:103E60003374AC3C1F7BAC7FFFFFEF7FFFFF35401F
:103E70000000E0BF0000E03FFFFF2F3E0000F03FEA
:103E8000412E8640CD3386407DF8B98FFFFFEF3F4E
:103E90002DE9F04F21F00048B8F1795F85B0064672
:103EA0000F4692469B466BDA16F058FD002800F04C
:103EB000EA8032463B463046394616F09FFA74A3F4
:103EC000D3E9002304460D4616F098FA72A3D3E90D
:103ED000002316F0E1F822462B4616F08FFA70A365
:103EE000D3E9002316F0D6F822462B4616F086FAC0
:103EF0006DA3D3E9002316F0CFF822462B4616F027
:103F00007DFA6BA3D3E9002316F0C4F822462B46B2
:103F100016F074FA68A3D3E9002316F0BDF8224620
:103F20002B4616F06BFACDE900010022664B2046C5
:103F3000294616F063FADDE90023804689462046CB
:103F4000294616F05BFA524604460D465B4630465B
:103F5000394616F053FA02460B462046294616F01B
:103F600099F802460B464046494616F093F8024639
:103F70000B460020554916F08DF805B0BDE8F08FCE
:103F800002460B4616F03AFA41A3D3E90023044651
:103F90000D4616F033FA40A3D3E9002316F07CF85F
:103FA00022462B4616F02AFA3DA3D3E9002316F049
:103FB00071F822462B4616F021FA3BA3D3E90023E1
:103FC00016F06AF822462B4616F018FA38A3D3E901
:103FD000002316F05FF822462B4616F00FFA36A3A0
:103FE000D3E9002316F058F82B46224616F006FABD
:103FF000374B9845CDE9000197DD364B984539DCC4
:10400000A8F500130022002030499046994616F08A
:1040100041F8CDE9020100222B4B2046294616F03B
:10402000EDF942464B4616F035F8DDE900238046AF
:1040300089462046294616F0E1F9524604460D46C7
:104040005B463046394616F0D9F902460B46204603
:10405000294616F01FF802460B464046494616F020
:1040600019F802460B46DDE9020116F013F805B017
:10407000BDE8F08F9FED127B4FF000088DED027BC5
:10408000DFF85490C7E71149002005B0BDE8F08F74
:10409000D43888BEE9FAA8BDC4B1B4BD9EEE213EB5
:1040A000AD529C804F7E923E9015CB19A001FA3EF6
:1040B0007751C1166CC1563F4C5555555555A53FC6
:1040C000000000000000E73F0000E03F0000F03F7C
:1040D0003233D33F0000E93F0000D23F0000000030
:1040E0002DE9F04FADF51B7D9F4CA49E9F4D54F8DC
:1040F000264007942646D41E85FB0475E417C4EBBE
:10410000A50424EAE4741D460A93631CA3EB83030D
:10411000013D02EBC30306932B460B940395651BED
:10412000F418049008911AD42C4400260027013476
:104130000DF18808DDF8949208E059F8250016F092
:10414000F7F80135A542E8E8020108D0002DF4DABD
:10415000013530463946A542E8E80201F6D1079B11
:10416000002BC0F2DF83079B03F1010B0A9B22A9FE
:10417000DB001A4601EB03090093049B0DF5E47A7A
:1041800019460AEBCB0B01EB0208039B002BC0F294
:10419000F582049C4D460026002775E90223F4E8C9
:1041A000020116F02BF902460B463046394615F04F
:1041B00073FF444506460F46EFD1EAE80267DA4549
:1041C00009F10809E1D107990098049C009101F1D7
:1041D0008043013B9B0020441A1F83460EA80244E3
:1041E00003440C920D93009A9AA901EBC203002A92
:1041F00053E9284529DD0DF5E47A0AEBC2080DF1F3
:10420000340900225A4B2046294616F0F7F816F0DA
:10421000A5FB16F08DF80022564B06460F4616F009
:10422000EDF802460B462046294615F033FF16F0FE
:1042300095FB78E9022349F8040F3946304615F01A
:104240002BFFD04504460D46DBD1DDF81890204603
:1042500029464A4601F050F800224FF07F530446A9
:104260000D4616F0CBF8FCF75FFD0022424B16F02E
:10427000C5F802460B462046294615F00BFF0D46B1
:10428000044616F06BFB804616F052F80B460246C9
:104290002946204615F0FEFE4B46002B06460F46EB
:1042A00040F3F980009A0EA9013AC9F1180351F8B8
:1042B000225045FA03F101FA03F30EA8EB1A40F875
:1042C0002230C9F11705884443FA05F5002D6DDD4C
:1042D000009B002B08F1010840F36F820E9C002C1C
:1042E00040F01683009B012B40F38F820EAA01231E
:1042F00052F8044F002C00F08382581C0EAAC4F11F
:10430000807442F82340009A824219DD0EAA0EAC56
:1043100052F820106FF07F42511A44F82010009993
:10432000023399420CDD1046009A0EA901EB83037B
:1043300001EB82011A68821A43F8042B8B42F9D1EF
:10434000069B002B1ADD069B012B4FF0010440F069
:104350003C82009B5A1E0EAB0EA953F82230C3F3C9
:10436000160341F822303CE204CF0100ABAAAA2A8E
:104370000000703E0000704100002040022D15D169
:1043800032463B460020924915F084FE06460F4611
:10439000069A8F49002000F0AFFF02460B463046D8
:1043A000394615F077FE022506460F460022002307
:1043B0003046394616F08AFA002800F03782009A13
:1043C000079B501E83420FDC02F18043013B0EAA83
:1043D0000D9C02EB8303002253F80419A34242EA26
:1043E0000102F9D1002A67D1079B0EAA013B52F8BE
:1043F0002330002B40F018820C9A012352F8041944
:1044000001330029FAD0009AD31802F1010A9A4523
:1044100009933DDC009B0A990B9A0B4409990AEB1E
:104420000208994622AB08F1804803EBC9098B18B2
:10443000A59A08F1FF3802EB880872AA02EBCA0AB3
:10444000A59A02EB8303009358F8040F15F070FF50
:10445000039B002BE9E802014FF000064FF0000734
:1044600011DB049C4D4675E90223F4E8020115F0C6
:10447000C5FF02460B463046394615F00DFE5C4539
:1044800006460F46EFD1009B9845EAE80267DBD16C
:10449000099B0093A7E606D1009B0EAA013B52F8A8
:1044A0002350ED1512E700224A4B16F02DFA002892
:1044B00040F06E81054679E70EA9039551F820304A
:1044C0000699CDF8248018390246009006916BB900
:1044D00000F18043013B0EA800EB830353F804096D
:1044E000013A18390028F9D000920691069A384905
:1044F000002000F001FF009B002B04460D46C0F297
:10450000F781DA0072A901EB020B06920EAA02EB08
:104510008306DFF8C4904FF000080BF1080704365B
:1045200056F8040D15F004FF22462B4615F066FFE1
:104530004B4667E9020142462046294615F05EFFD8
:104540000EAB9E4204460D46EAD14AACDDF81C9003
:1045500004944FF0000AB9F1000FC0F22B81DFF88C
:104560007C805D4618A1D1E90001002600270024C7
:1045700003E0544510DCF8E80201F5E8022315F0E9
:104580003DFF02460B463046394615F085FD0134A5
:10459000A14506460F46ECDA049B03EBCA03ABF1D8
:1045A000080BC3E9006770AB9B450AF1010AD2D141
:1045B000A49B049C032B00F28980DFE803F0C58EE6
:1045C0008E1100BFAFF3008000000040FB21F93FD7
:1045D0000000F03F0000E03F0000703E18B701000F
:1045E000009B002B40F38181069A04EB020ADAE972
:1045F000008902F1080525440DF5987B1AED027B30
:1046000042464B4651EC170B8DED047B15F044FDF3
:1046100006460F4602460B46DDE9040115F03AFD59
:1046200042464B4615F038FD65E902015D45B0464E
:10463000B9466AE90267E1D1009B012B40F355813D
:10464000069BE518D5E9008903F1080B04EB0B0A7A
:1046500015ED027B42464B4651EC170B8DED007B6E
:1046600015F01AFD06460F4602460B46DDE900012D
:1046700015F010FD4B46424615F00EFD6AE90201A9
:104680004EAB5345B046B94665E90267E0D100201C
:10469000002104EB0B0575E9022315F0FDFCAA458A
:1046A000F9D1039B002B00F00A816268E368089F40
:1046B0002568A4683D6002F1004203F1004301F166
:1046C00000417A60FB60BC6038617961099B03F04E
:1046D00007000DF51B7DBDE8F08F069D08352544CC
:1046E0000020002175E9022315F0D6FCA542F9D17E
:1046F000039B002B00F0D280089E024601F100438C
:1047000086E80C000B460246D4E9000115F0C2FC15
:10471000009B002B0BDD4CAD0124F5E8022315F0C6
:10472000BBFC009B0134A342F7DA039B13B101F1F8
:1047300000431946089BC3E90201099B03F00700E7
:104740000DF51B7DBDE8F08F069D0835002000218A
:10475000254475E9022315F09FFCAC42F9D1039B77
:1047600013B101F100431946089BC3E90001099BFD
:1047700003F007000DF51B7DBDE8F08F0026002734
:10478000EAE80267DA4509F108097FF4FEAC1AE5A8
:10479000009B002B08F10108C8BF02253FF79EAD22
:1047A00032463B460020614915F074FC022506465E
:1047B0000F46FBE500260027EEE6069B002B27DDD3
:1047C0000024069B012B3FF4C4AD022B09D1009BB2
:1047D0005A1E0EAB0EA953F82230C3F3150341F84D
:1047E0002230022D7FF4E2AD32463B4600204F4995
:1047F00015F050FC06460F46002C3FF4D7ADC7E538
:104800000099013399427FF473AD069B002BD8DCED
:10481000022D7FF4CBAD32463B460020434915F0D4
:1048200039FC06460F46C1E50123ECE53946069FF3
:1048300003957A423046CDF8248000F05DFD0022D9
:104840003B4B04460D4616F05FF8002843D000228B
:10485000384B2046294615F0D1FD16F07FF8064664
:1048600015F066FD0022324B15F0C8FD02460B46DE
:104870002046294615F00EFC16F070F800990B46FC
:1048800001331A4600933B46183306930B460EA994
:1048900041F82300134641F8236027E6089B0246AF
:1048A000C3E900010B46D4E9000115F0F3FB009BBE
:1048B000002B3FF730AF089BC3E902013DE7D4E985
:1048C0000067D4E90223089DC5E90401C5E9006732
:1048D000C5E90223FAE62946204616F03FF8009A79
:1048E0000EA941F8220001E64AAC00200021D8E6DA
:1048F000A49B032B3FF6EAAE01A252F823F000BFBF
:104900001F4900001749000017490000E94800004E
:1049100001200023F2E4002000214AACE8E6002058
:1049200000211CE70A9BDB0000934CE40000F03FF1
:10493000000070410000703E2DE9F04F21F000466C
:10494000B6F1795F85B004460D469046994604DA83
:1049500016F004F8002800F0858022462B462046F9
:10496000294615F04BFD06460F4602460B462046EB
:10497000294615F043FD41A3D3E9002382468B4627
:104980003046394615F03AFD3EA3D3E9002315F031
:1049900081FB32463B4615F031FD3CA3D3E90023B1
:1049A00015F07AFB32463B4615F028FD39A3D3E9D2
:1049B000002315F06FFB32463B4615F01FFD37A371
:1049C000D3E9002315F068FB0E9BCDE900019BB3F2
:1049D0000022294B4046494615F010FDDDE9002331
:1049E000CDE902015046594615F008FD02460B4636
:1049F000DDE9020115F04EFB32463B4615F0FEFCA8
:104A000042464B4615F046FB19A3D3E90023064660
:104A10000F465046594615F0F1FC02460B4630460B
:104A2000394615F039FB02460B462046294615F05B
:104A300031FB05B0BDE8F08F02460B4630463946E3
:104A400015F0DCFC0AA3D3E9002315F023FB524642
:104A50005B4615F0D3FC22462B4615F01DFB05B036
:104A6000BDE8F08F2046294605B0BDE8F08F00BFB5
:104A7000495555555555C53F0000E03F7CD5CF5AA7
:104A80003AD9E53DEB9C2B8AE6E55A3E7DFEB157CF
:104A9000E31DC73ED561C119A0012A3FA6F8101138
:104AA0001111813F000000002DE9F04FBE4C21F0B4
:104AB000004687B0A64282468B460F46CDE90023CA
:104AC0001BDC15F04BFF002837D153461E43109BCB
:104AD0000133334300F0B381109B012B00F0C881F8
:104AE00052465B460020B14915F0B2FD04460D4622
:104AF0002046294607B0BDE8F08FAD4B9E421CDD35
:104B00000029C0F2A98152465B4687A1D1E9000184
:104B100015F0C0FADDE9002304460D4684A1D1E971
:104B2000000115F0B7FA9FED847B22462B468DEDF0
:104B3000007B15F0B1FA82468B4652465B465046E2
:104B4000594615F05BFC02460B468046894615F037
:104B500055FC424604460D464B465046594615F014
:104B60004DFC77A3D3E90023CDE902012046294675
:104B700015F044FC74A3D3E9002315F08DFA224606
:104B80002B4615F03BFC72A3D3E9002315F084FA01
:104B900022462B4615F032FC6FA3D3E9002315F013
:104BA0007BFA22462B4615F029FC6DA3D3E900239E
:104BB00015F072FA22462B4615F020FC6AA3D3E9C1
:104BC000002315F069FA42464B4615F017FC68A31E
:104BD000D3E90023CDE904012046294615F00EFC57
:104BE00065A3D3E9002315F057FA22462B4615F0AA
:104BF00005FC63A3D3E9002315F04EFA22462B46A9
:104C000015F0FCFB60A3D3E9002315F045FA22461A
:104C10002B4615F0F3FB5EA3D3E9002315F03CFA15
:104C200022462B4615F0EAFB5BA3D3E9002315F0DF
:104C300033FA02460B46DDE9040115F02DFADDE9F1
:104C4000022315F0DBFBDDE9004522462B4615F07B
:104C500023FA42464B4615F0D1FB02460B4620464E
:104C6000294615F019FA4EA3D3E9002304460D4650
:104C7000DDE9020115F0C2FB22462B4615F00CFAC5
:104C80000B460246804689465046594615F004FABE
:104C9000474B9E4204460D4600F38E80109B012B2D
:104CA0003BD002460B460020404915F0D1FC0024C1
:104CB00006460F462046294652465B46CDE9006728
:104CC000CDE90201009415F0E5F9DDE900AB0246FB
:104CD0000B464046494615F0DDF952465B4615F055
:104CE0008DFB524604460D465B46DDE9020115F098
:104CF00085FB00222F4B15F0CFF902460B462046CC
:104D0000294615F0C9F932463B4615F077FB524665
:104D10005B4615F0C1F904460D462046294607B00A
:104D2000BDE8F08FAFF30080182D4454FB21E93F1C
:104D3000075C143326A6813C000000000000000040
:104D4000D47ABF74702AFB3EE9A7F0320FB8123F45
:104D500068108D1AF726303F1583E0FEC8DB573FF9
:104D600093846EE9E326823FFE41B31BBAA1AB3FB9
:104D7000735360DBCB75F3BEA69237A0887E143FD9
:104D80000165F2F2D844433F280356C9226D6D3FB6
:104D900037D60684F464963F7AFE10111111C13F94
:104DA000635555555555D53FFFFF2F3E0000F0BFC9
:104DB0002794E53F0000F03F109815F0B9FA22461D
:104DC000CDE900012B462046294615F017FBDDE909
:104DD0000023CDE902012046294615F05DF902467F
:104DE0000B46DDE9020115F033FC42464B4615F057
:104DF00051F902460B465046594615F04BF902460A
:104E00000B4615F049F902460B46DDE9000115F0A5
:104E100041F90446B81700F00200C0F101000D4648
:104E200015F086FA02460B462046294615F0E6FAAA
:104E300004460D462046294607B0BDE8F08F50468F
:104E4000594613F0D7F902460B4600200A4915F0DF
:104E5000FFFB04460D4660E7DDE9004501F1004136
:104E6000224605F1004382468B46CDE900234AE6FF
:104E700054465D4651E700BF0000F03F00000000CF
:104E80002DE9F04FD24A21F00043934285B082468B
:104E90008B460C462DD9CF4A93421AD8002C80F26B
:104EA0001681B5A3D3E900235046594615F0F4F80E
:104EB0000022002315F014FDC0B9B1A3D3E90023EB
:104EC0005046594615F09AFA02460B460020C24950
:104ED00008E1C24A934240F2D0800346C1F3130274
:104EE000134340F0F481002980F2C4800020BC49C3
:104EF000C0E0BC4A934200F22981BB4A934240F28F
:104F0000DE80002301930022B84B5046594615F02D
:104F100075FA06460F4602460B465046594615F0AE
:104F20006DFA99A3D3E9002304460D4615F066FAFD
:104F300097A3D3E9002315F0AFF822462B4615F0CE
:104F40005DFA95A3D3E9002315F0A4F822462B4679
:104F500015F054FA92A3D3E9002315F09DF82246E8
:104F60002B4615F04BFA90A3D3E9002315F092F8E5
:104F700022462B4615F042FA00229D4B15F08CF884
:104F80008046894602460B463046394615F036FAC9
:104F900002460B460020974915F07CF8064602466B
:104FA0000B460F464046494615F074F83246804697
:104FB00089463B465046594615F020FA02460B46B4
:104FC00000208D4915F066F802460B4640464946DA
:104FD00015F03EFB22462B4615F010FA019E0246C4
:104FE0000B46002E38D0DDE9026732463B4615F00D
:104FF00051F852465B4615F001FA32463B4615F031
:1050000049F82B46224615F045F8019B0133064628
:105010000F4600F00F81019B012B00F0F180019BF6
:105020000133392B39D8019B132B40F31281019C9A
:10503000C4F57F75033500222B0515F02DF80246C7
:105040000B465046594615F025F80022684B15F0DE
:1050500023F801EB04510DE05046594615F0CEF906
:1050600022462B4615F016F802460B465046594686
:1050700015F010F805B0BDE8F08F4DA3D3E900237B
:1050800015F04CFC00283FF409AF4BA3D3E90023F3
:105090001046194615F0B2F9ECE752465B4614F09B
:1050A000F9FF02460B460020514914F0F3FF019A24
:1050B0004F4B01EB0251002214F0ECFFDAE73EA364
:1050C000D3E9002314F0E8FF02460B46CAE72CA3FD
:1050D000D3E900235046594615F090F90B46434951
:1050E0000246002014F0D8FF15F038FC019015F0AE
:1050F0001FF933A3D3E9002306460F4615F07EF9C6
:1051000002460B465046594614F0C4FF2EA3D3E97D
:105110000023804689463046394615F06FF9064629
:105120000F4632463B464046494614F0B3FF02461E
:105130000B4682468B464046494614F0ABFF32464A
:105140003B4614F0A7FFCDE90201DCE62B4A93426F
:1051500000F2958000291AA3D3E90023C0F2AC80A5
:1051600014F098FF012380468946019316A7D7E9DA
:105170000067D6E7AFF3008059F3F8C21F6EA501B0
:10518000FE822B654715F73F2DC3096EB7FD8ABE1A
:105190003952E686CACFD03EB7DBAA9E19CE143F5D
:1051A0008555FE19A0015A3FF41011111111A13FAC
:1051B000EF39FAFE422E86409C7500883CE4377E2B
:1051C0000000E0FE422EE63F763C7935EF39EA3DBD
:1051D00079684340412E86400000E0BFFFFFEF7F2B
:1051E0000000F0BF422ED63FFFFF8F3C0000E03FA3
:1051F0000000F03F0000084000001840B1A2F03F5E
:105200000022394B5046594615F06AFB002844D01D
:10521000504659460022354B14F03EFF02460B46DD
:105220003046394614F036FF00224FF0404315F067
:10523000E5F81FE702460B465046594614F02AFF90
:1052400000222A4B15F0DAF80022284B14F022FF36
:1052500010E7019C4FF400132341C3F17F575246DE
:105260005B4614F017FF002607F5401702460B4671
:105270003046394614F00EFF01EB0451FAE616A34E
:10528000D3E9002315F0BAF8002C02460B464FF084
:105290000000FFF61CAE154924E732463B46504657
:1052A000594614F0F7FE02460B4614F0F5FE0022B4
:1052B0000F4B14F0F1FEDDE614F0EEFE4FF0FF337D
:1052C00080468946019306A7D7E9006729E7024689
:1052D0000B4614F0E1FECDE6FE822B654715F73F45
:1052E000763C7935EF39EABD0000D0BF0000E03FE1
:1052F0000000F03F00000000F8B5C1F30A56044674
:105300000D460B4617460EBB21F00043034386466D
:1053100025D00022344B15F071F8344A97420446E8
:105320000D460B462ADBC1F30A56363E3E4440F298
:10533000FE72964228DC002E12DD23F0FF4323F498
:10534000E00343EA065520462946F8BD40F2FF72C5
:105350009642EBD102460B4614F09EFEF8BDF8BD16
:1053600016F1350F1DDA4CF250339F4222462B4680
:1053700025DC19A1D1E9000114F0FEFD16A3D3E943
:10538000002315F03BF8F8BD22462B4614A1D1E9C5
:10539000000114F0F1FD12A3D3E9002315F02EF85B
:1053A000F8BD23F0FF4323F4E003363643EA065505
:1053B0002046294600220E4B15F020F8F8BD08A122
:1053C000D1E9000114F0D8FD05A3D3E9002315F0BD
:1053D00015F8F8BDAFF3008059F3F8C21F6EA501B0
:1053E0009C7500883CE4377E00005043B03CFFFFD2
:1053F0000000903C10B5054C237833B9044B13B131
:105400000448AFF300800123237010BD1005002075
:10541000000000005CD001000C4B43B10C480D496A
:1054200010B5AFF300800C48036823B910BD0A48DB
:10543000036833B97047094B002BF7D0BDE8104023
:105440001847064B002BF5D0184700BF000000009E
:105450005CD00100140500201802002000000000AC
:10546000154B002B08BF134B9D46A3F5803A002136
:105470008B460F461348144A121A08F043FD0F4B8F
:10548000002B00D098470E4B002B00D098470020EF
:10549000002104000D000D48002802D00C48AFF395
:1054A000008014F09FFD2000290005F049F914F058
:1054B00085FD00BF00000800000002200000000081
:1054C0000000000000040020A80C002000000000E4
:1054D0000000000070B504460E4600F0D1F888B117
:1054E00003681B6B05469847082C0CD0A4F10903F0
:1054F000012B14D93246214610230D20BDE87040FF
:1055000004F0DEB870BD2B6828469B6A98470228D5
:10551000F0DC2B6828465B6A04219847EAE72B6891
:1055200028469B6A98470528E4DC2B6828465B6A76
:1055300008219847DEE700BF30B52DED028B83B020
:10554000054600F09DF8044640B103681B6B984780
:10555000032D50D8DFE805F0373F47080190019848
:1055600003B0BDEC028B30BD20460CF0A9F907EE6C
:10557000900A2046F8EEE78A0CF0B0F907EE900AA0
:105580002046B8EEE78A0CF0B7F968EE087A07EE25
:10559000100AE8EEA87AB8EEC77AE7EE077AF5EED9
:1055A000407AF1EE10FAB1EEE78A03D517EE900AD1
:1055B00013F06CFBFDEEC87ACDED017A019803B0D3
:1055C000BDEC028B30BD204603B0BDEC028BBDE8C4
:1055D00030400CF075B9204603B0BDEC028BBDE83D
:1055E00030400CF07BB9204603B0BDEC028BBDE827
:1055F00030400CF081B900230193B0E738B505467F
:1056000000F03EF858B103681B6B0446984745B15B
:10561000012D04D12046BDE83840FBF79DB800209D
:1056200038BD2046BDE83840FBF776B810B50446D3
:1056300000F026F828B1036821465B6ABDE81040F7
:10564000184710BD0048704716FCFFFF704700BFA9
:1056500010B5034B036004460BF02EFF204610BD2F
:1056600004C5010010B5054B036004460BF024FF90
:10567000204615F005FC204610BD00BF04C5010002
:105680002DE9F043C04C236885B01BB1986805B084
:10569000BDE8F0834FF0FF31012001F0FFFCC0B204
:1056A00004F000FB002800F0ED800C2015F0EAFB70
:1056B00003210646512001F0F1FCDFF8FCE2B34B78
:1056C000054605F00F07C5F3031815F4807518BFDC
:1056D0007346AF48394642460BF08EF82A1C18BF75
:1056E00001223946434630460EF014FE0023A948F5
:1056F000B3600BF081F84FF0FF31032001F0CEFCD6
:10570000C0B204F0CFFA4FF0FF310546022001F09D
:10571000C5FCC0B204F0C6FA002D00F09A80002843
:1057200000F097800146284604F0ACF807460028B0
:1057300000F0A4804FF0FF31462001F0AFFC32288A
:1057400080462BD028DD382869D068283FD14FF01B
:10575000FF31012001F0A2FCC0B204F0A3FA81469F
:105760005C2015F08FFB0523054601934A46CDF8D2
:105770000080394633460DF09FFD2846B06003682F
:10578000DB6A9847B06803681B6B984782480BF048
:1057900033F82660B0687AE7302818D14FF0FF312F
:1057A000012001F07BFCC0B204F07CFA814650205D
:1057B00015F068FB1FFA88F1054605234A4600915B
:1057C0000193394633460DF049FB2846D6E73A683F
:1057D0000125002301950095D2F82480B3600F22A3
:1057E0000DF10F0332213846C047002856D14FF043
:1057F0003208414669480AF0FFFF4FF0FF310120AF
:1058000001F04CFCC0B204F04DFA8146502015F076
:1058100039FB052305464A46CDF80080D0E74FF016
:10582000FF31012001F03AFCC0B204F03BFA81469E
:10583000502015F027FB052305464A46CDF8008089
:105840003946019333460DF013FC554B2B60284627
:1058500094E754480AF0D0FF4FF0FF31192001F0CF
:105860001DFCC0B204F01EFA4FF0FF3105461820AF
:1058700001F014FCC0B204F015FA53E74A480AF0EC
:10588000BBFF86E74FF0FF31032001F007FCC0B2F9
:1058900004F008FA00287FF408AFF8E63B680195A9
:1058A0000095D3F824800F220DF10F0330213846E4
:1058B000C04718B94FF0300841469BE73B68019557
:1058C0000095D3F824800D220DF10F0338213846BE
:1058D000C047C0B9382131480AF08EFF4FF0FF3180
:1058E000284601F0DBFBC0B204F0DCF98046502012
:1058F00015F0C8FA4FF0050E3823054642463946E2
:105900008DE808409EE73A6801950095D2F824801A
:105910000DF10F03752268213846C047E0B96821B0
:105920001E480AF069FF4FF0FF31284601F0B6FB30
:10593000C0B204F0B7F980465C2015F0A3FA4FF02E
:10594000050E682305468DE8084042463946334631
:105950000DF0B2FC284611E714480AF04DFFB0687C
:1059600000287FF40CAF4FF0FF31032001F096FBCD
:10597000C0B204F097F918B10D480AF03DFF08E7EE
:105980000C480AF039FF04E72C050020A8B70100F5
:10599000B0B70100D0B7010068B801008CB80100B1
:1059A00068B70100E0B70100F4B7010078B8010062
:1059B0000CB8010048B80100A0B7010008B501F01B
:1059C0009FFCFBF76DFCBDE8084001F0FDB900BF8E
:1059D00008B501F095FCFBF7D3FCBDE8084001F0E9
:1059E000F3B900BF08B501F08BFC12F079FCBDE8FB
:1059F000084001F0E9B900BF08B501F081FC13F0DF
:105A000081F8BDE8084001F0DFB900BF08B501F03A
:105A100077FCFBF755FCBDE8084001F0D5B900BFA5
:105A200008B501F06DFC12F099FEBDE8084001F0E8
:105A3000CBB900BF08B501F063FCFAF7ADFEBDE8D5
:105A4000084001F0C1B900BF08B501F059FC12F0DF
:105A5000D9FDBDE8084001F0B7B900BF70B5049E9C
:105A600096420C4628DB15466BB1002A00EB02017A
:105A700007DD2046A21811F8013D00F8013B9042D5
:105A8000F9D1002070BD042A0FD0022A02D110F0F3
:105A9000010306D001462A46204607F043F80020BD
:105AA00070BD02880A80184670BD10F00303F1D162
:105AB00002680A60184670BD0846002108F022FA04
:105AC0004FF0FF3070BD00BF0830704740B1002973
:105AD00005DB4368994202DA0844007A70470020E7
