:020000040801F1
:1000000000800120AD5C0208D5820208719A0108C7
:1000100039070308390703083907030800000000FF
:10002000000000000000000000000000D98202086B
:10003000DD82020800000000E1820208E582020879
:100040003907030839070308390703083907030884
:100050003907030839070308197902081D790208CE
:10006000217902082579020829790208F97F020816
:1000700009800208198002082980020839800208D4
:100080004980020859800208390703083907030824
:100090003907030839070308390703082D790208CF
:1000A0003907030839070308390703083907030824
:1000B000E5630208ED630208F563020839070308E7
:1000C000390703083907030839070308157E0208B2
:1000D000217E020839070308390703083907030896
:1000E000317902083907030839070308390703087B
:1000F000390703083907030839070308698002082C
:100100003907030839070308FD6302082D7E02083A
:1001100039070308390703083907030839070308B3
:10012000798002088980020899800208A980020863
:10013000B98002083907030839070308390703089B
:100140003907030839070308390703082966020835
:10015000C9800208D9800208E9800208390703082B
:100160003907030839070308390703083907030863
:10017000390703083907030839070308000000009E
:100180003907030839070308390703083907030843
:10019000397E0208390703083907030839070308BD
:1001A0003907030839070308390703083907030823
:1001B00039070308000000002DE9F04F85B00391D6
:1001C0000778A7F10903042B044607F07F0200F12A
:1001D0000100F5D9202AF3D02B2F04BF67780446FD
:1001E0002D2F72D09FED427B8DED007B4FF00008EC
:1001F0004FF000098FB34FF0000E4FF0000ADFF808
:1002000000B1754619E01DF057F880468946304622
:100210001CF0ECFF42464B461CF09CFE52468046CA
:1002200089465B46DDE9000135B31DF06FF9CDE984
:100230000001AE4614F8017F7FB1A7F13006092E08
:1002400052465B4640464946DDD9C5B92E2F16D1E8
:1002500014F8017F0125002FEFD142464B46DDE91E
:1002600000011DF029F880468946039B4046494617
:100270001C6005B0BDE8F08F4FF0010EDAE7BEF16B
:10028000000F29D042464B46DDE900011DF014F86D
:1002900007F0DF07452F80468946E6D10399601CA9
:1002A0000A221FF079FE1649024600201DF064FB69
:1002B00002460B46404649461CF0FEFF80468946F2
:1002C0004046494605B0BDE8F08F9FED0B7B67784F
:1002D0008DED007B013489E7DFF828904FF00008AE
:1002E0004046494605B0BDE8F08F00BFAFF300803F
:1002F000000000000000F03F000000000000F0BF20
:10030000000024400000F87F2DE9F84F1646002336
:10031000002204460D461DF041FA002840F09D8061
:1003200000220023204629461DF02EFA28B1302253
:10033000002332707370BDE8F88F204629461EF006
:100340002BF91DF069FA7BA3D3E9002381462946E6
:1003500020461DF023FA002800F08680B9F1000F36
:10036000C0F2BE804A4600206F491DF005FB0246E0
:100370000B46204629461DF0C9F804460D4666A1E5
:10038000D1E9000101274FF0000822462B461CF05E
:1003900093FF0022654B1CF0DDFD1DF029FB002FB3
:1003A000CC464FF0FF3AC1464FF0000840F385803D
:1003B000DFF888E15E4C0122AEF1700945F6F325C5
:1003C0004FF02E0BA94208BFA0424FF0300309D3D3
:1003D000001B61EB0501A94208BFA04203F1010324
:1003E000F6D2DBB2337050EA010306F1010409D101
:1003F000BA4210DACE4502F101020CD026467EE860
:100400000245DFE7BA4204BF86F801B0B41CCE450E
:1004100002F10102F2D1B8F1000F0DD022463021D5
:1004200002F8011BC2F1010353442344002BF7DC03
:100430002AEAEA7301331C44BCF1010F4CD0652356
:10044000BCF1000F2370C5BF2B236370611CA11C7E
:100450006046BDE8F84F10F031BF05F100431D467E
:100460002D23337001365BE72DA3D3E9002320460B
:1004700029461DF0B1F900287FF470AFB9F10E0FD5
:1004800009F101073DDDA9F10E0842460020264989
:100490001DF072FA02460B46204629461DF036F83A
:1004A0000022224B1CF056FD1DF0A2FA002FA9F1EC
:1004B0000F0A4FF0010C3FF77BAF334630222E245A
:1004C00003F8022B74707FEA090618D01E4403F863
:1004D000012BB342FBD16BE700232370BDE8F88FFB
:1004E000C9F10002002010491DF046FA02460B46F1
:1004F000204629461CF0E0FE04460D463FE71E4616
:1005000056E7C9F10E0200200749C8461DF034FA2B
:100510004FF0010939E700BF0000901EC4BCD6426D
:1005200050EFE2D6E41A4B44000024400000E03FC4
:1005300000407A108DEDB5A0F7C6B03E500F03080D
:1005400070B54FF0FF3006F085F804466FF07F403D
:1005500006F080F8064620461CF038FE00220C4BC0
:100560001CF0AAFE044630460D461CF02FFE06A3E2
:10057000D3E900231CF0CAFF02460B462046294659
:100580001CF0E8FC70BD00BF0000E0DFFFFF6F4320
:100590000000F03D000000002DE9F04F2DED028B32
:1005A000044683B0C0681CF021FE8046206989465D
:1005B0001CF01CFE824660698B461CF017FE02464A
:1005C00001F1004306460F46404649461DF094FEA1
:1005D0001DF06AF9E06205461DF052FD01902846C3
:1005E0001DF012FD019B054618461CF011FE424607
:1005F0004B461CF061FE8046284689461CF008FEEA
:1006000032463B461CF058FE02460B4640464946E1
:100610001CF09EFC02460B46504659461DF06CFEEF
:100620001DF042F9002208EE100A00233046394638
:100630001DF0D2F828B3B5EEC08AF1EE10FA1CDD39
:1006400011A7D7E9006718EE100A1CF0E1FD024679
:100650000B46304639461CF07BFC32463B461CF0CC
:1006600079FC1DF021F9A062E38843F00203E380E6
:1006700003B0BDEC028BBDE8F08F05A7D7E900679A
:10068000E1E784ED0A8AEFE7EA2E4454FB21F93FC3
:10069000EA2E4454FB21F9BF08B512F06DF8DFEDE6
:1006A0000C7A07EE100A67EE277A17EE900A1CF014
:1006B000AFFD05A3D3E900231CF028FF1DF0ACF823
:1006C00008BD00BFAFF30080EA2E4454FB2119405F
:1006D0000000B4430000000008B512F061F8DFED3F
:1006E0000C7A07EE100A67EE277A17EE900A1CF0D4
:1006F0008FFD05A3D3E900231CF008FF1DF08CF843
:1007000008BD00BFAFF30080EA2E4454FB2119401E
:100710000000B443000000004F4A21F00043934220
:100720002DE970430D4604464FDC4C4A93420E4679
:100730000FDC45A3D3E900231CF00CFC0022484B3E
:100740001DF04AF8002856D02B4620461946BDE831
:100750007083444A934242DCB3F1804F4BDD1DF07D
:1007600025FB2246804689462B46204629461CF01A
:10077000A3FD00223A4B1CF0EDFB1EF035FB0246B8
:100780000B46404649461CF0E5FB02460B4600205E
:1007900033491CF0BBFE424604460D464B464046DC
:1007A00049461CF0D7FB0B460246294620461CF062
:1007B000D1FB01F0FDFE04460B46002E0BDC03F1DD
:1007C000004320461946BDE870830B4602461CF0E4
:1007D000C1FB04460B4620461946BDE870831DF058
:1007E000E5FA01F0E5FE1AA3D3E900231CF0B2FB01
:1007F00004460B46E1E722462B46204629461CF0DC
:100800005BFD80468946204629461DF0CFFA00222E
:100810000446134B0D46404649461CF09BFB1EF018
:10082000E3FA00220E4B1CF095FB02460B464046B5
:1008300049461CF06BFE22462B461CF08BFB00F059
:10084000D3FA04460B46B8E79C7500883CE4377E33
:10085000EF39FAFE422EE63FFFFFEF7FFFFF2F3E0C
:100860000000F03F0000B0412DE9F84FC24B21F0ED
:1008700000469E420D468A46044610DDBF4B9E420E
:1008800000F3B58000F0B080BD4BBE49BE4CBAF15C
:10089000000FD8BF0B4620461946BDE8F88FBB4B6A
:1008A0009E4200F3C180A3F1DE739E4240F3AB8011
:1008B0004FF0FF3B22462B46204629461CF0FCFC0D
:1008C00002460B46804689461CF0F6FC92A3D3E90B
:1008D000002306460F461CF0EFFC91A3D3E900234A
:1008E0001CF038FB32463B461CF0E6FC8EA3D3E9F5
:1008F00000231CF02FFB32463B461CF0DDFC8CA392
:10090000D3E900231CF026FB32463B461CF0D4FC06
:1009100089A3D3E900231CF01DFB32463B461CF0A3
:10092000CBFC87A3D3E900231CF014FB42464B46C3
:100930001CF0C2FC84A3D3E90023804689463046DC
:1009400039461CF0B9FC82A3D3E900231CF000FB5C
:1009500032463B461CF0B0FC7FA3D3E900231CF0D9
:10096000F7FA32463B461CF0A7FC7DA3D3E90023EF
:100970001CF0EEFA32463B461CF09EFC7AA3D3E90B
:1009800000231CF0E5FA32463B461CF095FCBBF117
:10099000FF3F02460B466ED0404649461CF0DAFA4D
:1009A00022462B461CF088FC794E7A4B4FEACB0B43
:1009B0005E449B44DBE900231CF0CAFA22462B4626
:1009C0001CF0C6FA0B460246D6E900011CF0C0FA3C
:1009D000BAF1000F04460B46BFF65DAF01F10043CC
:1009E00020461946BDE8F88F00283FF44DAF224657
:1009F0002B46204629461CF0ADFA04460B462046FD
:100A00001946BDE8F88F5AA3D3E900231CF0A2FAD7
:100A10000022614B1CF0E0FE00283FF449AF2B465A
:100A200020461946BDE8F88F1DF0C0F95B4B9E4289
:100A300004460D4630DCA3F550239E4255DC0246A9
:100A40000B461CF087FA0022534B1CF081FA00225F
:100A500006460F464FF08043204629461CF07AFA9E
:100A600002460B46304639461CF050FD4FF0000B55
:100A700004460D461EE7404649461CF06BFA2246E6
:100A80002B461CF019FC0B460246294620461CF05A
:100A90005FFA04460B46FEE6414B9E421ADC0022FA
:100AA000404B1CF055FA002206460F463D4B2046AF
:100AB00029461CF001FC0022374B1CF04BFA024681
:100AC0000B46304639461CF021FD4FF0020B044620
:100AD0000D46EFE602460B46002033491CF016FD9A
:100AE0004FF0030B04460D46E4E600222A4B1CF0AF
:100AF0002FFA002206460F46274B204629461CF0B7
:100B000029FA02460B46304639461CF0FFFC4FF0EE
:100B1000010B04460D46CDE611DA22E33AAD903FD3
:100B2000EB0D76244B7BA93F513DD0A0660DB13F24
:100B30006E204CC5CD45B73FFF8300922449C23F8C
:100B40000D5555555555D53F2F6C6A2C44B4A2BF51
:100B50009AFDDE522DDEAD3F6D9A74AFF2B0B33F19
:100B6000711623FEC671BC3FC4EB98999999C93F91
:100B70009C7500883CE4377EFFFF0F440000F07F47
:100B8000FB21F93FFB21F9BF182D4454FFFFDB3F48
:100B9000600F0308800F03080000F03FFFFFF23FE3
:100BA000FF7F03400000F83F0000F0BF000000009E
:100BB0002DE9F047C1F30A59A9F2FF36132E0B466F
:100BC0000D46044607468846824622DC002E4FDB4F
:100BD0003D4A42FA06F901EA090202431ED038A34F
:100BE000D3E900231CF0B6F9002200231CF0F4FD29
:100BF00050B1002D04DD4FF4801343FA06F6B044E3
:100C000028EA09054FF0000A544629462046BDE867
:100C1000F087332E06DDB6F5806F3DD019462046AD
:100C2000BDE8F087A9F213494FF0FF3222FA09F923
:100C300010EA090FF2D022A3D3E900231CF08AF9AD
:100C4000002200231CF0C8FD0028DDD0002D09DDA6
:100C5000142E2FD00123C6F1340603FA06F63719F5
:100C600028BF9844454627EA090A54462946CDE755
:100C700013A3D3E900231CF06DF9002200231CF01C
:100C8000ABFD0028C0D0002D0FDB55EA040709D0CA
:100C90004FF0000A0D4DB7E702460B461CF05AF91B
:100CA0000446BCE7BA463D46AEE74FF0000A4FF0B7
:100CB0000045A9E705F10108D4E700BFAFF30080C4
:100CC0009C7500883CE4377EFFFF0F000000F03F7A
:100CD000C1F30A522DE9F843A2F2FF36132E0B4658
:100CE0000D460446884607461DDC002E40DB3C4A84
:100CF00042FA06F901EA09020243864618D036A3F1
:100D0000D3E900231CF026F9002200231CF064FD27
:100D100020B1002D42DB28EA090500273C46294680
:100D20002046BDE8F883332E06DDB6F5806F2FD060
:100D300019462046BDE8F883A2F213424FF0FF396E
:100D400029FA02F910EA090FF2D023A3D3E900230C
:100D50001CF000F9002200231CF03EFD0028DDD02D
:100D6000002D21DB454627EA09073C462946D7E7FF
:100D700019A3D3E900231CF0EDF8002200231CF096
:100D80002BFD0028CAD0002D19DB00273D46C5E702
:100D900002460B461CF0DEF80446CAE74FF4801307
:100DA00043FA06F6B044B6E7142E10D00123C6F17C
:100DB000340603FA06F6371928BF9844D2E725F01F
:100DC0000042084B224318BF1D460027A6E705F145
:100DD0000108C7E7AFF300809C7500883CE4377ECC
:100DE000FFFF0F000000F0BF2DE9F04FD64B9942F6
:100DF00089B00E460F46824613DCD44B21F00044E6
:100E00009C4218DD0022D24B1CF0BEFC002879D099
:100E1000002200230020CF491CF078FB09B0BDE878
:100E2000F08FCD4B99422FDD524633461CF092F89D
:100E300009B0BDE8F08FC94B9C4270DDC84B1F4420
:100E40009F427ED8504631460022C64B1CF082F8A5
:100E50004FEA215BABF2FF3BBBF1000F04460D46AE
:100E60000F4640F3E081524633461CF071F80246CB
:100E70000B460020BB491CF06BF822462B461CF0A9
:100E800045FBCDE900010BE0B74B9F42DADD0022C4
:100E90000023CDE900234FEA275B5446ABF2FF3B2A
:100EA000B24BC7F313079F4247F07F5500F3E7802B
:100EB00045F44015204629460022AA4B1CF048F86C
:100EC000002204460D46AA4B1CF0F6F922462B469A
:100ED0001CF0F2F9A246CDE902012E468046894671
:100EE000002F3AD100220023204629461CF04CFC5A
:100EF000002800F0CE80BBF1000F40F0768100208A
:100F0000014695E752463346504631461CF020F8DC
:100F100002460B461CF0FAFA09B0BDE8F08F002239
:100F2000944B1CF017F8002200231CF055FC0028FD
:100F300000F0CC80904B9C4200F3C8805046314674
:100F400076E700228A4B1CF0B7F9524633461CF074
:100F5000B3F94FF0000B8046894600224FF08043E2
:100F6000504631461BF0F6FF02460B4650463146CE
:100F70001CF0CCFA02460B46CDE902231CF09CF98A
:100F80005DA3D3E9002304460D461CF095F95CA34C
:100F9000D3E900231BF0DEFF22462B461CF08CF920
:100FA00059A3D3E900231BF0D5FF22462B461CF0A2
:100FB00083F957A3D3E900231BF0CCFF22462B462D
:100FC0001CF07AF954A3D3E900231BF0C3FF224697
:100FD0002B461CF071F952A3D3E900231BF0BAFF92
:100FE00022462B461CF068F94FA3D3E900231BF0DF
:100FF000B1FF22462B461CF05FF904460D46BBF1BB
:10100000000F00F0BB8058461CF0F0F848A3D3E96D
:101010000023CDE904011CF04FF94246CDE9060159
:101020004B46204629461BF095FFDDE902231CF0C4
:1010300043F941A3D3E9002304460D46DDE9040149
:101040001CF03AF9DDE900231BF084FF02460B4651
:10105000204629461BF07EFF02460B464046494685
:101060001BF076FF524633461BF072FF02460B46DA
:10107000DDE906011BF06CFF09B0BDE8F08F45F417
:101080000015C7F5801720462946BF100BF1010B4C
:1010900012E72BA3D3E90023204629461CF00CF9C4
:1010A00002460B4600202F491BF052FFDDE90223C8
:1010B0001CF002F906460F46BBF1000F6DD1024647
:1010C0000B46204629461BF043FFB1E65246334605
:1010D000504631461CF0F0F80022254B1CF0ECF88D
:1010E00002460B46504631461BF032FF09B0BDE8C0
:1010F000F08F00BFAFF3008044523EDF12F1C23FD9
:101100009FC678D0099AC33FDE03CB966446C73F9B
:10111000AF788E1DC571CC3F599322942449D23F9C
:1011200004FA97999999D93F935555555555E53FE7
:101130000000E0FE422EE63F763C7935EF39EA3D8D
:10114000555555555555E53F7982DA3FFFFFEF3F3D
:101150000000F0BF000050C3FFFFEF7FFFFF1F3E06
:101160003C412D400000F03FFFFF3F439DA00600A3
:101170000000E03F00005043FFFF8F3C42464B46DB
:101180001BF0E8FEDDE902231CF096F802460B4650
:10119000404649461BF0DCFEA2E758461CF026F804
:1011A00027A3D3E9002382468B461CF085F826A3AB
:1011B000D3E9002380468946504659461CF07CF806
:1011C000DDE900231BF0C6FE02460B4630463946D9
:1011D0001BF0BEFE22462B461BF0BAFE02460B4613
:1011E000404649461BF0B4FE22E658461BF0FEFF7F
:1011F00015A3D3E9002306460F461CF05DF8DDE990
:1012000000231BF0A7FE0EA3D3E9002304460D46DE
:10121000304639461CF050F802460B462046294617
:101220001BF098FE04E60022094B1BF091FE0246DB
:101230000B46504631461BF08BFE1EE6AFF3008096
:101240000000E0FE422EE63F763C7935EF39EA3D7C
:101250000000F03F0000000008B51DF021F904A3D4
:10126000D3E900231CF052F908BD00BFAFF30080A2
:10127000EF39FAFE422EE63F2DE9F043DFF8B48065
:101280008BB004460D4600F06BFF98F90030013337
:1012900006460F462BD022462B46204629461CF0F8
:1012A000A5FA814618BB204629461CF07FFD1CA3E9
:1012B000D3E900231CF090FAC8B11B4A98F900301A
:1012C000CDF820900321CDE90445CDE902458DE814
:1012D00006008BB9154B4FF06042CDE906236846F6
:1012E0001EF0C6FC70B1089B9BB9DDE9066730466D
:1012F00039460BB0BDE8F0830D490020022BCDE943
:101300000601ECD11EF004FE22230360089B002B93
:10131000EBD01EF0FDFD089B0360E6E7AFF3008015
:101320007DF8B98FCE338640742B0308FFFFEF475B
:101330000000F07F9A0300202DE9F043DFF8E480FD
:101340008BB004460D4600F0BBFF98F90030013326
:1013500006460F4633D0204629461EF083FC70B364
:1013600029A3D3E90023204629461CF035FA8146FB
:1013700050BB27A3D3E90023204629461CF00EFAD0
:10138000E8B198F90030244ACDF8209004260020D6
:101390000021022BCDE90445CDE9024500960192DA
:1013A000CDE9060129D068461EF062FC28B3089BEF
:1013B0001BB11EF0ADFD089B0360DDE906673046FA
:1013C00039460BB0BDE8F083134A98F9003001921A
:1013D00003210022CDE90445CDE9024500910892A0
:1013E0002BB90E4B4FF06042CDE90623DBE70C49E9
:1013F0000020022BCDE90601D5D11EF089FD222364
:101400000360D4E7AFF30080EF39FAFE422E864046
:1014100051302DD5104987C07C2B0308FFFFEF47C3
:101420000000F07F9A0300202DE9F84FC44E21F010
:101430000043B3420C4605460DDD03F1404303F57E
:101440008013034340F0B980002940F3408100201D
:101450000021BDE8F88FBB4EB34240F3A6800029BF
:10146000C0F2788102460B460020B7491BF070FDA0
:101470000022B64B1BF020FF04460D461DF0B4FCC5
:1014800095A3D3E9002389468046294620461BF0D0
:1014900013FF93A3D3E900231BF05CFD22462B46E8
:1014A0001BF00AFF90A3D3E900231BF051FD224655
:1014B0002B461BF001FF8EA3D3E900231BF04AFD4E
:1014C00022462B461BF0F8FE8BA3D3E900231BF02A
:1014D0003FFD22462B461BF0EFFE89A3D3E90023F4
:1014E0001BF038FD22462B461BF0E6FE86A3D3E90F
:1014F000002382468B46204629461BF0DDFE84A34E
:10150000D3E900231BF024FD22462B461BF0D4FE1A
:1015100081A3D3E900231BF01DFD22462B461BF0BF
:10152000CBFE7FA3D3E900231BF012FD22462B46FE
:101530001BF0C2FE0022844B1BF00CFD02460B4642
:10154000504659461BF0E2FF42464B461BF0B4FEA4
:10155000002682468B4632464B46304649461BF0B3
:10156000ABFE02460B46204629461BF0F1FC3246F4
:1015700004460D464B46404649461BF0EBFC0246EE
:101580000B46204629461BF0C1FF02460B4650463B
:1015900059461BF0DFFC32464B461BF0DBFC024693
:1015A0000B461BF0D7FCBDE8F88F694A93420EDC6E
:1015B0005DA1D1E90001BDE8F88F02460B461BF0A2
:1015C000C7FC02460B461BF0A1FFBDE8F88F0246A0
:1015D0000B461BF071FE40A3D3E9002306460F46DD
:1015E0001BF06AFE3EA3D3E900231BF0B3FC324696
:1015F0003B461BF061FE3CA3D3E900231BF0A8FC93
:1016000032463B461BF058FE39A3D3E900231BF0BA
:10161000A1FC32463B461BF04FFE37A3D3E9002323
:101620001BF096FC32463B461BF046FE34A3D3E942
:1016300000231BF08FFC32463B461BF03DFE32A3DD
:10164000D3E9002380468946304639461BF034FEF4
:101650002FA3D3E900231BF07BFC32463B461BF053
:101660002BFE2DA3D3E900231BF074FC32463B462E
:101670001BF022FE2AA3D3E900231BF069FC3246AB
:101680003B461BF019FE00222F4B1BF063FC024669
:101690000B46404649461BF039FF2A4623461BF0BD
:1016A0000BFE02460B4622A1D1E900011BF050FCC3
:1016B00002460B46284621461BF04AFC02460B46D2
:1016C00019A1D1E900011BF043FCBDE8F88F1AA174
:1016D000D1E90001BDE8F88F09F7FD0DE13D023FBA
:1016E00088B20175E0EF493F3B8F68B52882A43F7F
:1016F0005544880E55C1C93F7D6FEB0312D6D43FC8
:10170000555555555555C53F82922EB1C5B8B33F75
:1017100059018D1B6C06E63FC88A599CE52A00409A
:101720004B2D8A1C273A0340182D4454FB21F93FC6
:10173000075C143326A6913C182D4454FB21094024
:10174000FFFFEF3FFFFFDF3F0000F03F0000E03F03
:101750000000603C00225C4B1BF0FCFB00225B4B5A
:101760001BF0AAFD40A3D3E9002304460D461BF05D
:10177000A3FD3FA3D3E900231BF0ECFB22462B463D
:101780001BF09AFD3CA3D3E900231BF0E1FB2246AA
:101790002B461BF091FD3AA3D3E900231BF0DAFBA3
:1017A00022462B461BF088FD37A3D3E900231BF00C
:1017B000CFFB22462B461BF07FFD35A3D3E9002348
:1017C0001BF0C8FB22462B461BF076FD804689465F
:1017D000204629461DF008FB2FA3D3E90023064627
:1017E0000F46204629461BF067FD2DA3D3E90023B1
:1017F0001BF0AEFB22462B461BF05EFD2AA3D3E96D
:1018000000231BF0A7FB22462B461BF055FD28A307
:10181000D3E900231BF09CFB22462B461BF04CFD1A
:101820000022294B1BF096FB02460B4640464946D8
:101830001BF06CFE32463B461BF03EFD1EA3D3E977
:1018400000231BF085FB32463B461BF083FB024620
:101850000B461BF07FFB02460B4619A1D1E90001A4
:101860001BF076FBBDE8F88F09F7FD0DE13D023F67
:1018700088B20175E0EF493F3B8F68B52882A43FED
:101880005544880E55C1C93F7D6FEB0312D6D43F36
:10189000555555555555C53F82922EB1C5B8B33FE4
:1018A00059018D1B6C06E63FC88A599CE52A004009
:1018B0004B2D8A1C273A0340075C143326A6913C23
:1018C000182D4454FB2109400000F03F0000E03F88
:1018D000434A91422DE9F8430C46054639DD414A19
:1018E000914209DD02F17952914240DD02460B46F8
:1018F0001BF030FBBDE8F88301F1404202F5801295
:10190000024330D0B1F1804F3ADC0022364B1BF05D
:101910001FFB02460B4604460D461BF01BFB2246EE
:1019200006460F462B46204629461BF0C5FC0246BC
:101930000B46304639461BF00DFB1DF055FA0B46A1
:101940000246294620461BF005FBBDE8F843FFF799
:101950004BBA02460B461BF0FBFA02460B461BF045
:10196000D5FDBDE8F88300200021BDE8F88300F034
:101970001FFE19A3D3E900231BF0ECFABDE8F8839E
:1019800002460B461BF098FC0022174B1BF0E0FAB6
:101990001DF02AFA2A4680468946234628462146D3
:1019A0001BF0D8FA424606460F464B4628462146CB
:1019B0001BF0D0FA02460B4600200B491BF0A6FD97
:1019C0000B460246394630461BF0C2FABDE8F843E2
:1019D00000F0EEBDAFF30080EF39FAFE422EE63F95
:1019E000FFFFEF3FFFFFAF410000F03F00000000AE
:1019F0002DE9F047C44B21F00048984584B00D46CE
:101A0000044616DD08F1404808F58018034658EAF8
:101A1000030326D002460B461BF09AFA0B460246F9
:101A20001BF074FD04460B462046194604B0BDE881
:101A3000F087B64B98458A462EDCB8F1795F80F284
:101A40006D8195A3D3E900231BF084FA0022B04BEB
:101A50001BF0C2FE00B32B462046194604B0BDE879
:101A6000F0878FA3D3E900231BF026FC8EA3D3E9D4
:101A7000002306460F46204629461BF01DFC024661
:101A80000B46304639461BF065FA04460B462046A5
:101A9000194604B0BDE8F087204629461CF086F9B7
:101AA00002460B4600209A491BF052FA0022994B3D
:101AB0001BF002FC7EA3D3E9002304460D461BF075
:101AC000FBFB7DA3D3E900231BF044FA22462B46FF
:101AD0001BF0F2FB7AA3D3E900231BF039FA22466C
:101AE0002B461BF0E9FB78A3D3E900231BF032FA65
:101AF00022462B461BF0E0FB75A3D3E900231BF025
:101B000027FA22462B461BF0D7FB73A3D3E9002309
:101B10001BF020FA22462B461BF0CEFB70A3D3E924
:101B20000023CDE90001204629461BF0C5FB6EA32A
:101B3000D3E900231BF00CFA22462B461BF0BCFB1A
:101B40006BA3D3E900231BF005FA22462B461BF0BA
:101B5000B3FB69A3D3E900231BF0FAF922462B4615
:101B60001BF0AAFB6A4B00221BF0F4F9CDE902013D
:101B7000204629461DF038F9674B984506460F4622
:101B800067DCDDE90223DDE900011BF0BFFC324622
:101B9000CDE900013B46304639461BF0DBF90246F1
:101BA0000B46DDE900011BF087FB4FF00008CDE993
:101BB000000142463B46404639461BF07DFB02464B
:101BC0000B46204629461BF0C3F9424604460D4603
:101BD0003B46304639461BF0BDF902460B462046CF
:101BE00029461BF093FC02460B461BF0B3F9024654
:101BF0000B462DA1D1E900011BF0AAF902460B46C4
:101C0000DDE900011BF0A4F9424604460D463B46BF
:101C1000404639461BF09EF902460B4638A1D1E9F1
:101C200000011BF095F902460B46204629461BF0A1
:101C30008FF90B46024632A1D1E900011BF088F969
:101C400004460B46BAF1000F3FF7EEAE03F1004336
:101C5000EAE6DDE90223DDE900011BF057FC32462C
:101C60003B461BF029FB32463B461BF073F902460C
:101C70000B461BF06FF90CA3D3E900231BF068F9A6
:101C80000B46024606A1D1E900011BF061F90446AA
:101C90000B46D7E7AFF300809C7500883CE4377EA5
:101CA000182D4454FB21F93F075C143326A6913CC0
:101CB00009F7FD0DE13D023F88B20175E0EF493FB4
:101CC0003B8F68B52882A43F5544880E55C1C93F53
:101CD0007D6FEB0312D6D43F555555555555C53F2D
:101CE00082922EB1C5B8B33F59018D1B6C06E63FF9
:101CF000C88A599CE52A00404B2D8A1C273A03408C
:101D0000182D4454FB21E93FFFFFEF3FFFFFDF3F6A
:101D10000000F03F0000E03F3233EF3F02460B4649
:101D20001BF0CAFA38A3D3E9002306460F461BF07E
:101D3000C3FA37A3D3E900231BF00CF932463B4624
:101D40001BF0BAFA34A3D3E900231BF001F93246A1
:101D50003B461BF0B1FA32A3D3E900231BF0FAF89B
:101D600032463B461BF0A8FA2FA3D3E900231BF011
:101D7000EFF832463B461BF09FFA2DA3D3E9002330
:101D80001BF0E8F832463B461BF096FA2AA3D3E94B
:101D9000002380468946304639461BF08DFA28A339
:101DA000D3E900231BF0D4F832463B461BF084FAFB
:101DB00025A3D3E900231BF0CDF832463B461BF0A8
:101DC0007BFA23A3D3E900231BF0C2F832463B463B
:101DD0001BF072FA0022204B1BF0BCF802460B46A7
:101DE000404649461BF092FB22462B461BF064FA04
:101DF00022462B461BF0AEF804460B4620461946F9
:101E000004B0BDE8F08700BF09F7FD0DE13D023FDA
:101E100088B20175E0EF493F3B8F68B52882A43F47
:101E20005544880E55C1C93F7D6FEB0312D6D43F90
:101E3000555555555555C53F82922EB1C5B8B33F3E
:101E400059018D1B6C06E63FC88A599CE52A004063
:101E50004B2D8A1C273A03400000F03F0000000091
:101E60002DE9F84F5442144323F00049704E49EADB
:101E7000D474B44286460F4640D84442044321F00D
:101E8000004B4BEAD474B4428A4637D803F140443D
:101E900004F5801414434AD09C1704F0020444EA69
:101EA000D17450EA0B0131D052EA090137D0B14563
:101EB00052D0B34533D0ABEB09094FEA2959B9F1F8
:101EC0003C0F3BDC002B66DB704639461BF01EFBEB
:101ED0001BF06CFFFEF7C8FC012C58D0022C48D038
:101EE000002C5ED040A3D3E900231BF031F840A3BF
:101EF000D3E900231BF02CF8BDE8F88F10461946F3
:101F000072463B461BF026F8BDE8F88F022C19D02C
:101F1000032C10D138A1D1E90001BDE8F88FBAF146
:101F2000000F14DB36A1D1E90001BDE8F88FBDE850
:101F3000F84FFEF799BC3946BDE8F88F30A1D1E9DA
:101F40000001C9E72AA1D1E90001BDE8F88F2EA15F
:101F5000D1E90001BDE8F88FCB4524D0022CF1D0A7
:101F6000032CD7D0012C4FF0000027D00021BDE872
:101F7000F88F1DA3D3E900231AF0EAFF02460B46AF
:101F80001BA1D1E900011AF0E3FFBDE8F88F01F1D0
:101F90000041BDE8F88F19F13C0F95DA00200021CF
:101FA0009AE7BDE8F88F022C16D0032C0FD0012C35
:101FB00008D017A1D1E90001BDE8F88F4FF000412A
:101FC000BDE8F88F14A1D1E90001BDE8F88F14A194
:101FD000D1E90001BDE8F88F13A1D1E90001BDE806
:101FE000F88F00BFAFF30080075C143326A6A13C36
:101FF000182D4454FB210940182D4454FB2109C0DD
:10200000182D4454FB21F93F182D4454FB21F9BFEE
:10201000182D4454FB21E93F182D4454FB21E9BFFE
:10202000D221337F7CD902C0D221337F7CD90240B8
:102030000000F07F0000000043422DE9F047034319
:1020400021F00048424A48EAD373934206460F46BD
:1020500016D890454BD03F4B98458A461EDC3AA394
:10206000D3E9002304461AF075FF002200231BF079
:10207000B3FB002845D03B4620461946BDE8F08713
:1020800002460B461AF064FF0B4602461BF03EFA6E
:1020900004460B4620461946BDE8F0872E4B98456E
:1020A000044645462FDD0246434641461AF052FF9C
:1020B000224606460F464346002025491AF048FFAF
:1020C00002460B46304639461BF020FAFEF78CFEDE
:1020D000224B00221BF0F0F8BAF1000F04460B4629
:1020E000D8DA01F1004320461946BDE8F087002206
:1020F00000231BF00BFA04460B4620461946BDE8A8
:10210000F0873446454622462B46204629461AF09B
:1021100021FF22462B4606460F461BF0CDF82246ED
:10212000804689462B46002009491AF011FF0246D5
:102130000B46404649461BF0E9F932463B461AF049
:1021400009FFC3E7AFF300809C7500883CE4377E4D
:102150000000F03FFFFF2F3EFFFFDF3F0000E03FAA
:102160004F4A2DE9F84321F0004494420B460546BE
:102170001BDC4C4A944222DD4B4A944263DD4B4ABD
:1021800094427BDD4A4A944246DD0132944240D07B
:1021900041A3D3E90023104619461BF08DF80646EB
:1021A0000F4630463946BDE8F88302460B461BF021
:1021B00083F806460F4630463946BDE8F8831BF0E3
:1021C000F5FD02F0A9FC00223A4B804689461AF040
:1021D000C1FEB4F1725F06460F46ECDB42464B4649
:1021E000404649461BF068F832463B4604460D46D9
:1021F000304639461AF0AEFE02460B4620462946C6
:102200001BF084F900222B4B1AF0A4FE06460F4661
:10221000D1E7294A9042BBD8284619461BF0C6FD93
:102220000022264B1BF048F800F04AF80022044632
:102230000D46224B1BF040F822462B461BF03CF883
:1022400006460F46B7E71BF0B1FD00F039F8002253
:102250001A4B06460F461BF02FF832463B46044603
:102260000D46002015491BF051F902460B46204649
:1022700029461AF06FFE06460F469CE71BF096FDB6
:1022800000F01EF800220D4B1BF016F806460F4614
:1022900091E700BFAFF300809C7500883CE4377E77
:1022A000FFFFEF7F422ED63FFFFF3540412E864095
:1022B000CD3386400000F03F7DF8B98F0000E03F4D
:1022C0002DE9F04FB04F21F00042BA4283B00C46E6
:1022D0004FEAD17605460DD9AC4FBA4225D9C1F3A4
:1022E0001303034340F0EF800EB10020014603B01A
:1022F000BDE8F08FA64B9A4200F2CC80A54B9A42E3
:1023000000F2DE808AA3D3E900231AF023FE002224
:10231000A14B1BF061FA002800F0058128462146F8
:1023200000229D4B1AF016FEE1E783A3D3E90023B8
:102330001BF052FA002840F0CB802846214680A3AB
:10234000D3E900231BF02AFA0028CED1934B28466C
:1023500003EBC60621467CA3D3E900231AF0ACFFA9
:10236000D6E900231AF0F6FD1BF056FA80461AF063
:102370003DFF77A3D3E9002306460F461AF09CFFE2
:1023800002460B46284621461AF0E2FD72A3D3E925
:102390000023CDE90001304639461AF08DFF824610
:1023A0008B4652465B46DDE900011AF0D1FD054639
:1023B0000C462A462346284621461AF07DFF68A38C
:1023C000D3E9002306460F461AF076FF66A3D3E949
:1023D00000231AF0BDFD32463B461AF06DFF64A3A0
:1023E000D3E900231AF0B6FD32463B461AF064FFEB
:1023F00061A3D3E900231AF0ABFD32463B461AF045
:102400005BFF5FA3D3E900231AF0A4FD32463B46ED
:102410001AF052FF02460B46284621461AF098FD54
:1024200006460F462846214632463B46B8F1000F85
:1024300056D01AF041FF324604460D463B46002076
:102440004FF080411AF084FD02460B462046294693
:102450001BF05CF802460B46504659461AF078FDD0
:10246000DDE900231AF074FD0B4602464A490020BC
:102470001AF06EFD6FF47F7398454FDA08F57A789D
:1024800001EB085100224FF0B8731AF015FF03B0AA
:10249000BDE8F08F424B9A423FF658AF414BF400F3
:1024A0002344D3E900231AF053FD3F4BC6F1010842
:1024B0002344CDE90001D3E900ABA8EB060870E79F
:1024C0004FF0000875E702460B461AF043FD0EE791
:1024D00017A3D3E90023104619461AF0EDFE06E7CC
:1024E0001AF0EAFE0022804689464FF080433046CB
:1024F00039461AF02DFD02460B46404649461BF070
:1025000005F82A4623461AF023FD02460B46002012
:1025100021491AF01DFD03B0BDE8F08F01EB085111
:1025200003B0BDE8F08F804643E700BFAFF3008003
:102530009C7500883CE4377EEF39FAFE422E8640D7
:1025400051302DD5104987C0FE822B654715F73FC6
:102550000000E0FE422EE63F763C7935EF39EA3D59
:10256000D0A4BE726937663EF16BD2C541BDBB3E99
:102570002CDE25AF6A56113F93BDBE166CC1663F77
:102580003E5555555555C53F412E8640FFFFEF7FBF
:10259000422ED63FFFFF2F3E0000F03FA00F030862
:1025A000B1A2F03FB00F0308C00F03080000000005
:1025B0002DE9F04FB1F5801F85B006460F460B465A
:1025C0005ADA024621F00044224300F0F880002944
:1025D000C0F27A810022D64B1AF06EFED54A0B4625
:1025E000934206460F466FF0350C4ADCC3F31305E1
:1025F00005F5152E0EF6647E0EF4801E8EF07F52C9
:1026000082F440121C1542EA0507A4F2FF34644428
:102610000022C94B3046394604EB1E541AF098FC90
:10262000AB1CC3F31303022B82468B464FF0000210
:1026300030DC00231BF0A8F8002800F0C980002C33
:1026400000F04B8120461AF0D1FDA5A3D3E9002369
:1026500006460F461AF030FEA3A3D3E90023044632
:102660000D46304639461AF027FE02460B462046F4
:1026700029461AF06FFC0AE0AE4A93424FF0000C74
:10268000B4DD32463B46304639461AF063FC05B0AD
:10269000BDE8F08F4FF080431AF05CFC02460B4619
:1026A000504659461AF032FF064620460F461AF0A9
:1026B0009DFD3246CDE900013B4630463946CDE925
:1026C00002671AF0F9FD02460B46804689461AF069
:1026D000F3FD87A3D3E9002306460F461AF0ECFD6D
:1026E00085A3D3E900231AF035FC32463B461AF0A5
:1026F000E3FD83A3D3E900231AF02CFC32463B46CA
:102700001AF0DAFD80A3D3E900231AF023FC424635
:102710004B461AF0D1FD7EA3D3E9002380468946BB
:10272000304639461AF0C8FD7BA3D3E900231AF0DE
:1027300011FC32463B461AF0BFFD79A3D3E90023D2
:102740001AF008FC32463B461AF0B6FD0B4602462C
:10275000494640461AF0FEFBA5F5C223C5F5D7252C
:10276000A3F27A4351351D43002D8046894656DD3C
:102770000022724B504659461AF09EFD52465B4667
:102780001AF09AFD06460F46002C68D132463B46A9
:10279000404649461AF0DEFBDDE902231AF08CFDC3
:1027A00002460B46304639461AF0D2FB02460B462B
:1027B000504659461AF0CCFB05B0BDE8F08F002218
:1027C000002300205E491AF0A1FE05B0BDE8F08F9D
:1027D00055A3D3E90023504659461AF06DFD024631
:1027E0000B46002055491AF0B3FB524606460F46E9
:1027F0005B46504659461AF05FFD02460B4630468E
:1028000039461AF059FD06460F46002C40F09A80D2
:1028100002460B46504659461AF09AFB37E7002C01
:1028200000F0A4802EA3D3E90023DDE900011AF013
:1028300043FD42464B4604460D46504659461AF063
:1028400087FBDDE902231AF037FD27A3D3E9002334
:1028500006460F46DDE900011AF02EFD21E020A317
:10286000D3E90023DDE900011AF026FD32463B469C
:1028700004460D46404649461AF06CFBDDE902234A
:102880001AF01AFD18A3D3E9002380468946DDE932
:1028900000011AF011FD02460B46404649461AF067
:1028A00059FB02460B46304639461AF051FB524658
:1028B0005B461AF04DFB02460B46204629461AF0AD
:1028C00047FB05B0BDE8F08F02460B461AF040FB0F
:1028D000002200231AF01AFED9E600200021D6E6D5
:1028E0000000E0FE422EE63F763C7935EF39EA3DC6
:1028F00044523EDF12F1C23FDE03CB966446C73F2F
:10290000599322942449D23F935555555555E53F47
:102910009FC678D0099AC33FAF788E1DC571CC3F52
:1029200004FA97999999D93F555555555555D53F1D
:1029300000005043FFFFEF7F0000F03F0000E03F4A
:10294000000050C320461AF051FC0FA3D3E9002326
:10295000804689461AF0B0FC0DA3D3E90023044653
:102960000D46404649461AF0A7FC9AE702460B4638
:10297000504659461AF0ECFADDE902231AF09CFCA5
:1029800014E700BFAFF300800000E0FE422EE63FF8
:10299000763C7935EF39EA3DB1F5801F2DE9F843F2
:1029A00004460D460B461ADA024621F00046324331
:1029B00059D000295FDB00223B4B1AF07DFC3B4ADB
:1029C0000B4693420D4604466FF035010CDD22465E
:1029D0002B46204629461AF0BDFABDE8F883334A53
:1029E00093424FF00001F2DC1815A0F2FF300844CA
:1029F0004FEAD0794844C3F313081AF0F7FBC9F53E
:102A00007F73033348EA035506460F46204629469E
:102A1000FFF7CEFD1EA3D3E900238046894630464A
:102A200039461AF049FC1CA3D3E9002304460D469D
:102A3000404649461AF040FC02460B4620462946CD
:102A40001AF088FA16A3D3E9002304460D4630464F
:102A500039461AF031FC02460B46204629461AF048
:102A600079FABDE8F88300220023002010491AF00B
:102A70004DFDBDE8F88302460B461AF069FA0022C4
:102A800000231AF043FDBDE8F88300BFAFF30080D8
:102A9000362BF111F3FE593D0EE526157BCBDB3FBE
:102AA00000609F501344D33F00005043FFFFEF7F6F
:102AB000000050C3000000002DE9F04F23F0004754
:102AC00057EA020493B037D0674C21F00046A64283
:102AD00083460D4629DC9A46964625D0A74224DC3B
:102AE000614CA74279D0002D89468046CDE900236C
:102AF00077DB0024BEF1000F2CD15B4B9F4200F02E
:102B00008B805A4B9F4261D0BAF1804F00F0BA835C
:102B1000574B9A451ED1002D1CDB4046494613B049
:102B2000BDE8F04F1CF060B958B106F1404606F51B
:102B3000801656EA0B0306D14C49002013B0BDE8BD
:102B4000F08FB742CCDD4B4813B0BDE8F04F1DF01D
:102B500091B80024404649461BF028F9BBF1000F0C
:102B600019D126B1414B25F040429A4213D1BAF116
:102B7000000FC0F2BC83002DE0DA06F1404606F5F6
:102B8000801656EA040300F08F84012CD6D101F19F
:102B900000431946D2E7ED0F013D54EA05034ED03C
:102BA000354B9F426EDD03F104739F4240F3E8838F
:102BB000324B9E424EDDBAF1000F4EDD28A3D3E921
:102BC0000023104619461AF077FBB7E7BAF1000F59
:102BD000C0F23C8440464946B0E7BEF1000F82D0C7
:102BE000A3E7274B9F4228DCA3F154739F4280DD6B
:102BF0003B15A3F2FF33142B40F33E84C3F134039F
:102C00002EFA03F202FA03F39E457FF472AF02F04C
:102C10000102C2F102046DE706F1404303F580139F
:102C200053EA0B0388D0154B9E4240F33283BAF12E
:102C3000000F12DBDDE9000180E702245AE742467B
:102C40004B46404649461AF083F902460B461AF0B5
:102C50005DFC73E7BAF1000FB0DB002000216DE7E7
:102C60009C7500883CE4377E0000F07F0000F03F58
:102C70000000E03FE41803080000E041FFFFEF3FE1
:102C8000FFFF3F43B6F5801F4FF0000205DAD44B3B
:102C90001AF012FB6FF034020E463315D14FC6F313
:102CA0001306A3F2FF33134446F07F5ABE421A467E
:102CB0000D934AF4401A40F32183CB4B9E4240F3DC
:102CC000FD83134601330D93C84B0022CDE9062343
:102CD00000270026CDE90867CDE90E67AAF5801A1E
:102CE0000027024653465146CDE90A23DDE9062373
:102CF0001AF02EF9DDE9062380468946DDE90A014E
:102D00001AF028F902460B460020B8491AF0FEFBDB
:102D10000A460146CDE9101213464946024640468E
:102D20001AF0CAFA4FEA6A0343F000538C4683460E
:102D300003F50023CDE904BCDA468B46D9190023FC
:102D4000CDE902AB0293DDE902AB002006460F4657
:102D500002460B46504659461AF0AEFA02460B465A
:102D6000404649461AF0F4F8DDE9062380468946D4
:102D7000304639461AF0ECF802460B46DDE90A0106
:102D80001AF0E6F852465B461AF096FA02460B46EF
:102D9000404649461AF0DCF8DDE910231AF08CFAB7
:102DA000DDE90467CDE9060132463B463046394647
:102DB0001AF082FA78A3D3E9002306460F461AF0E8
:102DC0007BFA77A3D3E900231AF0C4F832463B46D6
:102DD0001AF072FA74A3D3E900231AF0BBF8324652
:102DE0003B461AF069FA72A3D3E900231AF0B2F84D
:102DF00032463B461AF060FA6FA3D3E900231AF07B
:102E0000A9F832463B461AF057FA6DA3D3E90023DE
:102E10001AF0A0F83246804689463B46304639468D
:102E20001AF04AFA02460B46404649461AF044FA5E
:102E3000524606460F465B46DDE904011AF08AF861
:102E4000DDE906231AF038FA32463B461AF082F8DA
:102E50005246804689465B46504659461AF02CFA3F
:102E60000022634BCDE90A011AF074F842464B4642
:102E70001AF070F802980F46064632463B46504616
:102E800059461AF019FA002282468B46584B3046B2
:102E900039461AF05DF8DDE90A231AF059F80246BE
:102EA0000B46404649461AF053F8DDE904231AF070
:102EB00003FA3246804689463B46DDE906011AF0B0
:102EC000FBF902460B46404649461AF043F8804655
:102ED000894602460B4650465946CDE904AB1AF0E6
:102EE00039F8DDE902AB38A3D3E9002350460F4699
:102EF0001AF0E2F9DDE90423CDE902013946504632
:102F00001AF026F802460B46404649461AF020F8C9
:102F10002FA3D3E900231AF0CFF92FA3D3E900237D
:102F200080468946504639461AF0C6F902460B4695
:102F3000404649461AF00EF8DDE90E231AF00AF869
:102F400080460D9889461AF051F9424606460F46CA
:102F50004B46DDE9020119F0FDFFDDE9082319F018
:102F6000F9FF32463B4619F0F5FF32463B465046E4
:102F70008B4619F0EDFFDDE9082319F0E9FFDDE9E3
:102F8000022319F0E5FF02460B464046494619F078
:102F9000DFFF80462EE000BFEF4E454A287ECA3F45
:102FA00065DBC9934A86CD3F01411DA96074D13FBD
:102FB0004D268F515555D53FFFAB6FDBB66DDB3FCF
:102FC000033333333333E33F000000E009C7EE3F00
:102FD000FD033ADC09C7EE3FF5015B14E02F3EBE6E
:102FE000000040438E98030079B60B000000F03FCC
:102FF000000008408946013C54EA0503DDE9000170
:1030000014BFD94CD94C0023CDE9043403460C46F7
:10301000CDE9023400230293DDE9024522462B4626
:1030200019F096FF52465B461AF046F9DDE9002397
:1030300006460F46404649461AF03EF902460B4600
:103040003046394619F086FF2246804689462B468F
:1030500050465946CDE900891AF02EF90B46024632
:1030600006460F464046494619F074FFC04B994248
:1030700004460D468A4640F3168101F13F4303F5AD
:10308000E003034340F0EA81A3A3D3E90023DDE991
:10309000000119F05FFF3246804689463B462046D4
:1030A000294619F055FF02460B46404649461AF09C
:1030B00093FB002840F0D281A8464FEA28534FF4F2
:1030C0008012A3F2FE3342FA03F35344C3F30A52CD
:1030D000A84DA2F2FF321541C3F3130423EA050100
:1030E0000020C2F1140B44F48014BAF1000F024620
:1030F0000B4644FA0BFB30463946B8BFCBF1000B08
:1031000019F026FF02460B4606460F46DDE9000190
:1031100019F020FF4FEA0B5A0D46002480A3D3E993
:103120000023204629461AF0C7F8324680468946D1
:103130003B462046294619F00BFF02460B46DDE9C7
:10314000000119F005FF78A3D3E900231AF0B4F8C1
:1031500077A3D3E9002306460F46204629461AF0F6
:10316000ABF802460B463046394619F0F3FE0646E8
:103170000F4602460B464046494619F0EBFE4246D2
:103180004B4604460D4619F0E3FE02460B46304618
:10319000394619F0DDFE2246804689462B462046F8
:1031A00029461AF089F864A3D3E9002306460F469E
:1031B0001AF082F862A3D3E9002319F0C9FE32465F
:1031C0003B461AF079F860A3D3E9002319F0C2FE58
:1031D00032463B461AF070F85DA3D3E9002319F09C
:1031E000B7FE32463B461AF067F85BA3D3E90023EB
:1031F00019F0B0FE32463B461AF05EF802460B4626
:103200002046294619F0A4FE06460F4602460B4604
:10321000204629461AF050F80022CDE900014FF06F
:1032200080433046394619F093FE02460B46DDE9ED
:1032300000011AF06BF9424606460F464B462046FF
:1032400029461AF039F842464B4619F083FE0246E9
:103250000B463046394619F07BFE22462B4619F0C4
:1032600077FE02460B4600203F4919F071FE8A4462
:10327000BAF5801FC0F233815146DDE904231AF00C
:103280001BF85BE4424640464B4649461AF014F8A8
:1032900054E4BAF1000FBFF6E0ACDDE900341846A3
:1032A00004F100414AE4344B21F00048984540F3D2
:1032B000F280324B0B4403430CD132463B4619F0AB
:1032C00047FE02460B46DDE900011AF071FA0028BC
:1032D0003FF4F3AEDDE9040121A3D3E9002319F0A3
:1032E000EBFF1FA3D3E9002319F0E6FF26E4024613
:1032F0000B4600201C491AF009F93CE40022002387
:10330000CDE90823CDE90E23174B00220027CDE994
:103310000623E6E4AFF30080FE822B654715973C59
:1033200000000000432EE63FEF39FAFE422EE63F52
:10333000396CA80C615C20BED0A4BE726937663EB1
:10334000F16BD2C541BDBB3E2CDE25AF6A56113FA5
:1033500093BDBE166CC1663F3E5555555555C53F8C
:1033600059F3F8C21F6EA5010000F03F0000F0BF46
:10337000FFFF8F40FFFF0F00FFCB904000346F3FF7
:103380006B4B9E427FF766AC6A4B9E423FF713AC95
:103390000022684B19F0DCFD57A3D3E90023064651
:1033A0000F4619F089FF56A3D3E9002380468946CA
:1033B0003046394619F080FF002282468B465E4B2C
:1033C0003046394619F078FF02460B464EA1D1E946
:1033D000000119F0BDFD32463B4619F06DFF024673
:1033E0000B460020554919F0B3FD3246CDE90201E4
:1033F0003B463046394619F05FFF02460B46DDE991
:10340000020119F059FF42A3D3E9002319F054FF38
:1034100002460B465046594619F09AFD02460B46A5
:1034200006460F464046494619F094FD42464B4633
:10343000002082468B4619F08BFD02460B46304633
:10344000394619F085FD80468946D4E542464B460B
:10345000002038491AF05AF8FFF770BBDDE9040183
:103460002DA3D3E9002319F027FF2BA3D3E90023D1
:1034700019F022FFFFF762BBBEF1000F7FF469ABCA
:10348000C3F1140347FA03F202FA03F39F422AD06E
:103490007446FFF736BB294B98453FF70EAEDDE982
:1034A00002239246934638E602460B4619F050FD39
:1034B00002460B461AF02AF8FFF740BB18A3D3E9DF
:1034C0000023CDE9082318A3D3E90023CDE90E2377
:1034D0001B4B00224FF48027CDE9062301E45A4616
:1034E00001F05AFDC9E602F00102C2F10204FFF741
:1034F00008BB00BFAFF30080000000604715F73F36
:1035000044DF5DF80BAE543E555555555555D53FE6
:10351000FE822B654715F73F9C7500883CE4377E9B
:103520000000004003B8E23F06D0CF43EBFD4C3E25
:10353000FEFFEF3F0000F03F0000D03F0000E03F03
:103540000000F83F000000002DE9F04F9A4E21F0F6
:103550000047B74291B040F38E809246974A974217
:103560000C4626DC00298AA3D3E9002340F3B4816A
:1035700019F0EEFC924B9F4204460D4600F09080FD
:1035800085A3D3E9002319F0E3FC02460B46CAE900
:1035900000232046294619F0DBFC7FA3D3E9002352
:1035A00019F0D6FC0125CAE90201284611B0BDE890
:1035B000F08F844A974240F39080834A974265DCBB
:1035C0003D15A5F21645A7EB055319461F460646BD
:1035D0001AF022F919F00AFE8046894602460B4687
:1035E00030463946CDE90A8919F0B2FC0022774B02
:1035F00019F062FE894680461AF00EF919F0F6FDC0
:1036000002460B4606460F4640464946CDE90C6742
:1036100019F09EFC00226D4B19F04EFE0022002393
:10362000CDE90E011AF0B0F8002800F073810023F4
:103630003046394600221AF0A7F8002814BF0123AB
:103640000223634A019202212A4600910AA85146A8
:1036500000F086FB002C054614DADAF80420DAF8CC
:103660000C3002F1004203F100434542CAF8042045
:10367000CAF80C3006E0C2E9000100250024C2E9C6
:1036800002450025284611B0BDE8F08F02460B46E2
:1036900019F05EFC0025CAE90201CAE90001F1E760
:1036A0003FA3D3E9002319F053FC3FA3D3E9002340
:1036B0000D46044619F04CFC02460B46CAE90023AD
:1036C0002946204619F044FC37A3D3E9002319F01A
:1036D0003FFC0125CAE90201D4E71AF067FB34A3D5
:1036E000D3E900238046894619F0E6FD0022394BD4
:1036F00019F030FC1AF090F8054619F077FD24A374
:10370000D3E90023CDE9040119F0D6FD02460B46AA
:103710004046494619F01CFC1FA3D3E9002380460C
:103720008946DDE9040119F0C7FD1F2DCDE902012D
:1037300054DC294B6A1E53F822309F424ED0024679
:103740000B464046494619F003FC02460B46CAE9BF
:10375000002383460E465A4633464046494619F0F2
:10376000F7FBDDE9022319F0F3FB002C02460B46C0
:10377000CAE9022386DA5B4606F1004601F1004100
:103780008AE84800CAF80C10CAF808006D4279E7C8
:1037900000004054FB21F93F3163621A61B4D03D0F
:1037A0000000601A61B4D03D7370032E8A19A33BE8
:1037B00083C8C96D305FE43FFB21E93F7BD90240FC
:1037C000FB21F93FFB213941FFFFEF7F00007041F2
:1037D000302C03080000E03FB02B0308DDE9022392
:1037E0004046494619F0B4FB3A15C1F30A53D31ABF
:1037F000102B83460E460992CAE90001ABDD58A39F
:10380000D3E90023DDE9040119F056FD06460F4611
:1038100002460B464046494619F09AFBCDE906019F
:1038200002460B464046494619F092FB32463B465B
:1038300019F08EFB4CA3D3E9002306460F46DDE9C1
:10384000040119F039FD32463B4619F081FBDDE9F0
:103850000689CDE9020102460B464046494619F069
:1038600077FB0B46C1F30A570E460999CF1B024658
:10387000312F8346CAE900236CDD3DA3D3E9002341
:10388000DDE9040119F018FD06460F4602460B4615
:1038900040464946CDE9068919F05AFB02460B46D7
:1038A00080468946DDE9060119F052FB32463B4667
:1038B00019F04EFB30A3D3E9002306460F46DDE99D
:1038C000040119F0F9FC32463B4619F041FB02466F
:1038D0000B46CDE9022334E719F03CFB2A4B9F420B
:1038E00004460D4618D026A3D3E9002319F032FB75
:1038F00002460B46CAE900232946204619F028FB58
:103900001FA3D3E9002319F025FB4FF0FF35CAE9C7
:103910000201B7E6032394E611A3D3E9002319F0CB
:1039200019FB11A3D3E900230D46044619F012FB3D
:1039300002460B46CAE900232946204619F008FB37
:1039400009A3D3E9002319F005FB4FF0FF35CAE9BD
:10395000020197E6DDE90689FDE600BFAFF30080CE
:103960000000601A61B4D03D7370032E8A19A33B26
:103970000000002E8A19A33BC14920259A837B3978
:103980003163621A61B4D03DFB21F93F00000000B1
:10399000574A2DE9F84F21F0004890450E4607465A
:1039A0002BDC544B0029B4BF534D544D98454FF078
:1039B000000410DC524B98456EDC4BA3D3E9002386
:1039C00019F0C8FA00224F4B19F006FFD8B138465B
:1039D0003146BDE8F88F4C4B984579DD4B4B984507
:1039E00043DD013398453DD0384631463EA3D3E907
:1039F000002319F061FCBDE8F88F02460B4619F070
:103A0000A9FABDE8F88F384631461AF0CFF901F02F
:103A100083F806460F4632463B463046394619F093
:103A200099FA324682468B463B463046394619F073
:103A300043FC002280468946324B3046394619F015
:103A400089FA02460B464046494619F05FFD024698
:103A50000B465046594619F07BFA22462B4619F080
:103A60002BFCCEE72A4B9842BED8384631461AF096
:103A70009DF90022214B19F01FFCFEF721FC0646A0
:103A80000F4602460B462046294619F015FC3246E1
:103A90003B4619F011FCB4E71AF088F901F03CF844
:103AA0001C4B984506460F46B5DD0022154B19F014
:103AB00051FA02460B463046394619F027FD324688
:103AC0003B4619F047FA22462B4619F0F5FB98E7DA
:103AD0001AF06CF9FEF7F4FB02460B462046294625
:103AE00019F0EAFB8DE700BF3374AC3C1F7BAC7F61
:103AF000FFFFEF7FFFFF35400000E0BF0000E03F29
:103B0000FFFF2F3E0000F03F412E8640CD33864020
:103B10007DF8B98FFFFFEF3F2DE9F04F21F0004610
:103B2000B6F1795F85B00C4692469B4605466BDA46
:103B300019F072FE002800F0E8802A462346284645
:103B4000214619F0B9FB74A3D3E9002380468946C6
:103B500019F0B2FB72A3D3E9002319F0FBF9424636
:103B60004B4619F0A9FB70A3D3E9002319F0F0F933
:103B700042464B4619F0A0FB6DA3D3E9002319F090
:103B8000E9F942464B4619F097FB6BA3D3E90023B2
:103B900019F0DEF942464B4619F08EFB68A3D3E9D3
:103BA000002319F0D7F942464B4619F085FBCDE9C1
:103BB00000010022644B4046494619F07DFBDDE9D7
:103BC000002306460F464046494619F075FB52460B
:103BD000804689465B462846214619F06DFB024621
:103BE0000B464046494619F0B3F902460B463046AB
:103BF000394619F0ADF902460B460020534919F039
:103C0000A7F905B0BDE8F08F02460B4619F054FB4A
:103C100041A3D3E900238046894619F04DFB40A318
:103C2000D3E9002319F096F942464B4619F044FBBC
:103C30003DA3D3E9002319F08BF942464B4619F016
:103C40003BFB3BA3D3E9002319F084F942464B46E2
:103C500019F032FB38A3D3E9002319F079F9424671
:103C60004B4619F029FB36A3D3E9002319F072F96A
:103C70004B46424619F020FB354B9E42CDE90001F0
:103C800097DD344B9E424FF0000238DCA6F500135E
:103C900000202E4916461F4619F05AF9CDE90201B7
:103CA0000022294B4046494619F006FB32463B4666
:103CB00019F04EF9DDE9002306460F464046494615
:103CC00019F0FAFA5246804689465B462846214654
:103CD00019F0F2FA02460B464046494619F038F907
:103CE00002460B463046394619F032F902460B4679
:103CF000DDE9020119F02CF905B0BDE8F08F164B93
:103D0000164FCDE902230026CAE71049002005B06E
:103D1000BDE8F08FAFF30080D43888BEE9FAA8BDC3
:103D2000C4B1B4BD9EEE213EAD529C804F7E923E0A
:103D30009015CB19A001FA3E7751C1166CC1563FC0
:103D40004C5555555555A53F0000E03F0000F03F4C
:103D50003233D33F0000E93F0000E73F0000D23F8D
:103D60002DE9F04FADF5197D9C4CA29E9C4D54F869
:103D7000264005942646D41E85FB0475E417C4EB43
:103D8000A50424EAE4741D460893631CA3EB830393
:103D9000013D02EBC30304932B4609940295651B76
:103DA000F418039006911AD42C4401340DF17808CC
:103DB00000260027DDF88C9208E059F8250019F05C
:103DC00015FA0135A542E8E9020108D0002DF4DA20
:103DD000013530463946A542E8E90201F6D1059B96
:103DE000002B2EDB089B4FEAC309039BA9F10808AF
:103DF000984420AB9944059B70AA02EBC30B0DF5C8
:103E0000DC7A029B002BC0F20F83039B4D46A3F18B
:103E100008040026002775E90223F4E9020119F0DD
:103E20004BFA02460B463046394619F093F84445A2
:103E300006460F46EFD1EAE90267DA4509F10809BB
:103E4000DFD10598089A009000F18043013B9B0068
:103E50000CAC191F234402F100520B93039B013A4F
:103E600021440A9103EBC20B009A98A901EBC2030B
:103E7000002A53E9284513462BDD01EBC308A8F1BE
:103E8000A8080DF12C090DF5DC7A0022554B2046CF
:103E9000294619F011FA19F0BFFC19F0A7F9002210
:103EA000514B06460F4619F007FA02460B462046CC
:103EB000294619F04DF819F0AFFC78E8022349F8CB
:103EC000040F3946304619F045F8D04504460D46F2
:103ED000DBD1DDF81090204629464A4601F05CF817
:103EE00000224FF07F5304460D4619F0E5F9FCF728
:103EF000EFFE00223D4B19F0DFF902460B4620464B
:103F0000294619F025F80D46044619F085FC80462F
:103F100019F06CF90B4602462946204619F018F8AC
:103F20004B46002B06460F4640F3F780009A0CA93B
:103F3000013AC9F1180351F8225045FA03F101FA88
:103F400003F30CA8EB1A40F82230C9F11705884496
:103F500043FA05F5002D63DD009B002B08F10108F5
:103F600040F381820C9C002C00F018830120002378
:103F70000CAAC4F1807442F82340009A824219DDF1
:103F80000CAA0CAC52F820106FF07F42511A44F882
:103F900020100099023399420CDD1046009A0CA9BA
:103FA00001EB830301EB82011A68821A43F8042BA8
:103FB0008B42F9D1049B002B1ADD049B012B4FF09F
:103FC000010440F05882009B5A1E0CAB0CA953F818
:103FD0002230C3F3160341F8223058E2D0300308F0
:103FE000ABAAAA2A0000703E0000704100002040E9
:103FF000022D15D132463B460020974918F0A8FF04
:1040000006460F46049A9449002000F0C5FF024678
:104010000B463046394618F09BFF022506460F46F0
:10402000002200233046394619F0AEFB002800F08C
:104030005282009A059B501E83420FDC02F180439E
:10404000013B0CAA0B9C02EB8303002253F80419DA
:10405000A34242EA0102F9D1002A6FD1059B0CAAC2
:10406000013B52F82330002B40F033820A9A01239F
:1040700052F8041901330029FAD0009AD31802F13A
:10408000010A9A4507933DDC009B0899099A0B4465
:1040900007990AEB0208994620AB08F1804803EB28
:1040A000C9098B18A39A08F1FF3802EB880870AA97
:1040B00002EBCA0AA39A02EB8303009358F8040F99
:1040C00019F094F8029B002BE9E802011DDB039B29
:1040D0004D46A3F108040026002775E90223F4E900
:1040E000020119F0E9F802460B463046394618F04D
:1040F00031FF5C4506460F46EFD1009B9845EAE844
:104100000267DBD1079B0093AEE6009B00260027E9
:104110009845EAE80267D1D1F4E706D1009B0CAAE2
:10412000013B52F82350ED1514E700224B4B19F0D8
:1041300049FB002840F08281054671E70CA90295F1
:1041400051F820300499CDF81C80183902460090AF
:1041500004916BB900F18043013B0CA800EB830391
:1041600053F80409013A18390028F9D00092049153
:10417000049A3949002000F00FFF009B002B0446F1
:104180000D46C0F20382DA0070A901EB020B049223
:104190000CAA02EB8306DFF8C8900BF1080704367F
:1041A0004FF0000856F8040D19F020F822462B466F
:1041B00019F082F84B4667E902014246204629463B
:1041C00019F07AF80CAB9E4204460D46EAD10DF583
:1041D000907ACDF80CA0DDF814A04FF00009BAF1E8
:1041E000000FC0F23D81DFF87C805D4618A1D1E967
:1041F000000100260027002403E04C4510DCF8E80D
:104200000201F5E8022319F057F802460B46304642
:10421000394618F09FFE0134A24506460F46ECDAF7
:10422000039B03EBC903ABF1080BC3E900676EAB5B
:104230005B4509F10109D2D1A29BDDF80CA0032B4B
:1042400000F28B80DFE813F0D100900090001000A6
:1042500000000040FB21F93F0000F03F0000E03F7C
:104260000000703EE80F0308009B002B40F3A48180
:10427000049B0AEB0308D8E90067D34658E9029A81
:1042800032463B464846514618F064FE04460D4609
:1042900002460B464846514618F05AFE32463B4607
:1042A00018F058FEC8E9000168E90245C3452646F2
:1042B0002F46E3D1009B012BDA4640F37D81049B1E
:1042C0005B44D3E90067984699460DF5947B59E91C
:1042D00002343246184621463B46CDE9000118F02B
:1042E00039FE04460D4602460B46DDE9000118F092
:1042F0002FFE32463B4618F02DFEC9E9000169E960
:104300000245CB4526462F46E1D1002308F1080897
:104310001D464CAC1846294678E9022318F01AFECF
:10432000444503460D46F5D1029A002A00F020814B
:10433000DAF80440DAF80C20069FDAF80010DAF810
:1043400008003B6105F1004504F1004402F1004220
:104350007D617C60FA603960B860079B03F00700FC
:104360000DF5197DBDE8F08F049C002608345444F7
:1043700033463046194674E9022318F0EBFD5445E4
:1043800006460B46F5D1029A30461946002A00F03F
:10439000DA80069803F10044324644600660DAE9A8
:1043A000000118F0D5FD0B460099002902460EDDEC
:1043B000012410461946FAE9022318F0CBFD0B46FA
:1043C00000990134A1420246F3DA029909B103F1DE
:1043D00000431946069B1046C3E90201079B03F000
:1043E00007000DF5197DBDE8F08F049C002208340C
:1043F000544413461046194674E9022318F0AAFDE6
:10440000A24502460B46F5D1029909B103F10043DA
:104410001946069B1046C3E90001079B03F00700FD
:104420000DF5197DBDE8F08F00260027EAE9026747
:10443000DA4509F108097FF4E4AC02E5009B002BA2
:1044400008F10108C8BF02253FF78CAD32463B4654
:104450000020634918F07CFD022506460F46DFE583
:1044600000260027DCE6049B002B26DD0024049BAD
:10447000012B3FF4A8AD022B09D1009B5A1E0CABB7
:104480000CA953F82230C3F3150341F82230022D52
:104490007FF4C6AD32463B460020514918F058FD26
:1044A00006460F46002C3FF4BBADABE50099013347
:1044B000994278D1049B002BD9DC022D7FF4B0AD5A
:1044C00032463B460020464918F042FD06460F465C
:1044D000A6E50123D1E53946049F02957A4230468C
:1044E000CDF81C8000F058FD00223E4B04460D46DE
:1044F00019F068F9002862D000223B4B204629467B
:1045000018F0DAFE19F088F9064618F06FFE00225E
:10451000344B18F0D1FE02460B462046294618F0CF
:1045200017FD19F079F900990B4601331A460093EB
:104530003B46183304930B460CA941F8230013465D
:1045400041F8236014E6069B3246C3E900010B469E
:10455000DAE9000118F0FCFC0B460099002902463C
:104560003FF726AF1946069B1046C3E9020135E71F
:1045700018462946DAE90023DAE90245069FC7E929
:104580000401C7E90023C7E90245E6E6A29B032B25
:104590003FF6E3AEDFE803F0211C1C0E009B012B6D
:1045A00088DD0CAA012352F8044F002C3FF47EAFA3
:1045B000581CDDE40DF5907A00231D46B4E629462B
:1045C000204619F029F9009A0CA941F82200CFE5FC
:1045D000002633460DF5907AD5E60022134613E700
:1045E0000000F03F000070410000703E000000003D
:1045F0002DE9F04F21F00046B6F1795F85B00C4609
:1046000090469946054604DA19F006F9002800F0AC
:1046100085802A4623462846214618F04DFE064648
:104620000F4602460B462846214618F045FE3EA39B
:10463000D3E9002382468B463046394618F03CFECB
:104640003BA3D3E9002318F083FC32463B4618F025
:1046500033FE39A3D3E9002318F07CFC32463B46F5
:1046600018F02AFE36A3D3E9002318F071FC324675
:104670003B4618F021FE34A3D3E9002318F06AFC6E
:104680000E9BCDE900019BB30022334B40464946C7
:1046900018F012FEDDE90023CDE90201504659462B
:1046A00018F00AFE02460B46DDE9020118F050FC44
:1046B00032463B4618F000FE42464B4618F048FC96
:1046C00023A3D3E9002306460F465046594618F067
:1046D000F3FD02460B463046394618F03BFC0246D5
:1046E0000B462846214618F033FC05B0BDE8F08F94
:1046F00002460B463046394618F0DEFD14A3D3E9D6
:10470000002318F025FC52465B4618F0D5FD2A46DA
:10471000234618F01FFC05B0BDE8F08F284621465F
:1047200005B0BDE8F08F00BF7CD5CF5A3AD9E53D42
:10473000EB9C2B8AE6E55A3E7DFEB157E31DC73E52
:10474000D561C119A0012A3FA6F810111111813FAE
:10475000495555555555C53F0000E03F0000000044
:104760002DE9F04FDA4C21F00046A64287B08A4688
:1047700089461746984683461ADC19F04DF8A8BBBF
:104780005B461E43109B0133334300F0A981109B0D
:10479000012B00F0B9815A4653460020CD4918F04C
:1047A000B5FE04460D462046294607B0BDE8F08F09
:1047B000C94B9E421ADD0029C0F29F815A465346DA
:1047C000A5A1D1E9000118F0C3FB3A4643460446CF
:1047D0000D46A3A1D1E9000118F0BAFB22462B46F1
:1047E00018F0B8FB002783468A46B8465A46534617
:1047F0005846514618F060FD03460C46CDE900349A
:1048000002460B4618F058FDDDE9002304460D462C
:104810005846514618F050FD93A3D3E90023CDE943
:1048200002012046294618F047FD91A3D3E9002351
:1048300018F090FB22462B4618F03EFD8EA3D3E9DC
:10484000002318F087FB22462B4618F035FD8CA379
:10485000D3E9002318F07EFB22462B4618F02CFDEE
:1048600089A3D3E9002318F075FB22462B4618F0E4
:1048700023FD87A3D3E9002318F06CFBDDE90023B7
:1048800018F01AFD84A3D3E90023CDE904012046E2
:10489000294618F011FD82A3D3E9002318F05AFB32
:1048A00022462B4618F008FD7FA3D3E9002318F019
:1048B00051FB22462B4618F0FFFC7DA3D3E90023D1
:1048C00018F048FB22462B4618F0F6FC7AA3D3E9F1
:1048D000002318F03FFB22462B4618F0EDFC78A38E
:1048E000D3E9002318F036FB02460B46DDE904014C
:1048F00018F030FBDDE9022318F0DEFC3A464346AF
:1049000018F028FBDDE9002318F0D6FC02460B4620
:104910003846414618F01EFB6BA3D3E9002304463A
:104920000D46DDE9020118F0C7FC22462B4618F0BF
:1049300011FB0B46024651465846CDE9002318F0BC
:1049400009FB654B9E4204460D463EDC109B012B45
:1049500036D002460B4600205E4918F0D7FD0024F1
:104960000F4606465A4653462046294618F0F0FAA6
:10497000A04602460B46DDE9000118F0E9FA42467E
:104980003B4618F099FCA94604460D4642463B4674
:104990004046494618F090FC0022504B18F0DAFAD5
:1049A00002460B462046294618F0D4FA32463B46CA
:1049B00018F082FC42463B4618F0CCFA04460D46FD
:1049C0002046294607B0BDE8F08F109818F00EFC7D
:1049D000224606460F462B462046294618F06CFC18
:1049E0003246CDE902013B462046294618F0B2FA8C
:1049F00002460B46DDE9020118F088FDDDE90023DF
:104A000018F0A6FA02460B465846514618F0A0FA8E
:104A100002460B4618F09EFA02460B4630463946CF
:104A200018F096FA04464FEAA97000F00200C0F1AF
:104A300001000D4618F0DAFB02460B4620462946D7
:104A400018F03AFC04460D462046294607B0BDE85A
:104A5000F08F00BFAFF30080182D4454FB21E93FD5
:104A6000075C143326A6813CD47ABF74702AFB3EBF
:104A7000E9A7F0320FB8123F68108D1AF726303FC1
:104A80001583E0FEC8DB573F93846EE9E326823F3F
:104A9000FE41B31BBAA1AB3F735360DBCB75F3BED2
:104AA000A69237A0887E143F0165F2F2D844433FB6
:104AB000280356C9226D6D3F37D60684F464963FAD
:104AC0007AFE10111111C13F635555555555D53F0B
:104AD000FFFF2F3E0000F0BF2794E53F0000F03FAE
:104AE0005846514619F062F902460B460020084923
:104AF00018F00CFD04460D4662E701F1004308F191
:104B0000004883469A4659E65C46554658E700BF3A
:104B10000000F03F000000002DE9F04FD24A21F0E4
:104B20000043934285B00C460E4605462DD9CF4A28
:104B300093421AD8002E80F21681B5A3D3E9002340
:104B40002846214618F006FA0022002318F026FE17
:104B5000C0B9B1A3D3E900232846214618F0ACFB25
:104B600002460B460020C24908E1C24A934240F285
:104B7000D0800346C1F31302134340F0F6810029AD
:104B800080F2C4800020BC49C0E0BC4A934200F2DD
:104B90002981BB4A934240F2DE8000230193002228
:104BA000B84B2846214618F087FB06460F460246BA
:104BB0000B462846214618F07FFB99A3D3E9002332
:104BC00082468B4618F078FB97A3D3E9002318F0B0
:104BD000C1F952465B4618F06FFB95A3D3E9002359
:104BE00018F0B6F952465B4618F066FB92A3D3E97B
:104BF000002318F0AFF952465B4618F05DFB90A316
:104C0000D3E9002318F0A4F952465B4618F054FB90
:104C100000229D4B18F09EF98046894602460B46BD
:104C20003046394618F048FB02460B4600209749AB
:104C300018F08EF9064602460B460F464046494696
:104C400018F086F93246804689463B46284621467A
:104C500018F032FB02460B4600208D4918F078F917
:104C600002460B464046494618F050FC52465B4609
:104C700018F022FB019E02460B46002E38D0DDE9DB
:104C8000026732463B4618F063F92A46234618F07D
:104C900013FB32463B4618F05BF95B46524618F070
:104CA00057F9019B013306460F4600F00F81019B27
:104CB000012B00F0F180019B0133392B39D8019B86
:104CC000132B40F31281019FC7F57F760336002234
:104CD000330518F03FF902460B462846214618F0E6
:104CE00037F90022684B18F035F901EB07510DE058
:104CF0002846214618F0E0FA52465B4618F028F99B
:104D000002460B462846214618F022F905B0BDE8B8
:104D1000F08F4DA3D3E9002318F05EFD00283FF487
:104D200009AF4BA3D3E900231046194618F0C4FA83
:104D3000ECE72A46234618F00BF902460B46002002
:104D4000514918F005F9019A4F4B01EB025100222D
:104D500018F0FEF8DAE73EA3D3E9002318F0FAF8DA
:104D600002460B46CAE72CA3D3E900232846214676
:104D700018F0A2FA0B4643490246002018F0EAF860
:104D800018F04AFD019018F031FA33A3D3E900235B
:104D900006460F4618F090FA02460B462846214672
:104DA00018F0D6F82EA3D3E9002380468946304672
:104DB000394618F081FA06460F4632463B464046D1
:104DC000494618F0C5F802460B4605460C464046D3
:104DD000494618F0BDF832463B4618F0B9F8CDE91F
:104DE0000201DCE62B4A934200F2978000291AA3C5
:104DF000D3E90023C0F2AE8018F0AAF80123804660
:104E00008946019316A7D7E90067D6E7AFF300807C
:104E100059F3F8C21F6EA501FE822B654715F73FB7
:104E20002DC3096EB7FD8ABE3952E686CACFD03E81
:104E3000B7DBAA9E19CE143F8555FE19A0015A3F33
:104E4000F41011111111A13FEF39FAFE422E8640E4
:104E50009C7500883CE4377E0000E0FE422EE63F71
:104E6000763C7935EF39EA3D79684340412E8640FA
:104E70000000E0BFFFFFEF7F0000F0BF422ED63FF3
:104E8000FFFF8F3C0000E03F0000F03F00000840C3
:104E900000001840B1A2F03F2846214600223A4BBC
:104EA00018F07CFC002846D0284621460022374BCB
:104EB00018F050F802460B463046394618F048F8CC
:104EC00000224FF0404318F0F7F91FE732463B4607
:104ED0002846214618F03CF800222C4B18F0ECF93B
:104EE00000222A4B18F034F810E7019E4FF4001E00
:104EF0004EFA06FE2A462346CEF17F5718F028F8D0
:104F0000002607F5401702460B463046394618F092
:104F10001FF8019E01EB0651F8E617A3D3E9002321
:104F200018F0CAF9002C02460B464FF00000FFF6BD
:104F30001AAE164922E732463B462846214618F06B
:104F400007F802460B4618F005F80022104B18F03F
:104F500001F8DBE617F0FEFF4FF0FF33804689468D
:104F6000019307A7D7E9006727E702460B4617F02A
:104F7000F1FFCBE6AFF30080FE822B654715F73FCC
:104F8000763C7935EF39EABD0000D0BF0000E03F44
:104F90000000F03F00000000F8B5C1F30A560446D7
:104FA0000D460B4617460EBB21F0004303438646D1
:104FB00025D00022344B18F07FF9344A974204463A
:104FC0000D460B462ADBC1F30A56363E3E4440F2FC
:104FD000FE72964228DC002E12DD23F0FF4323F4FC
:104FE000E00343EA065520462946F8BD40F2FF7229
:104FF0009642EBD102460B4617F0ACFFF8BDF8BD68
:1050000016F1350F1DDA4CF250339F4222462B46E3
:1050100025DC19A1D1E900011AF05EFF16A3D3E93E
:10502000002318F049F9F8BD22462B4614A1D1E916
:1050300000011AF051FF12A3D3E9002318F03CF944
:10504000F8BD23F0FF4323F4E003363643EA065568
:105050002046294600220E4B18F02EF9F8BD08A173
:10506000D1E900011AF038FF05A3D3E9002318F0B5
:1050700023F9F8BDAFF3008059F3F8C21F6EA50104
:105080009C7500883CE4377E00005043B03CFFFF35
:105090000000903C10B5054C237833B9044B13B194
:1050A0000448AFF300800123237010BDC803002023
:1050B00000000000503603080C4B43B10C480D496A
:1050C00010B5AFF300800C48036823B910BD0A483F
:1050D000036833B97047094B002BF7D0BDE8104087
:1050E0001847064B002BF5D0184700BF0000000002
:1050F00050360308CC030020B0030020000000005D
:1051000070B504460E4600F0D1F888B10368DB6A3A
:1051100005469847082C0CD0A4F10903012B14D99B
:105120003246214610230D20BDE8704004F0D8B867
:1051300070BD2B6828465B6A98470228F0DC2B6814
:1051400028461B6A04219847EAE72B6828465B6AD1
:1051500098470528E4DC2B6828461B6A08219847F5
:10516000DEE700BF30B52DED028B83B0054600F0C1
:105170009DF8044640B10368DB6A9847032D50D878
:10518000DFE805F0373F47080190019803B0BDEC18
:10519000028B30BD20460DF0C5FA07EE900A20467E
:1051A000F8EEE78A0DF0CCFA07EE900A2046B8EE4A
:1051B000E78A0DF0D3FA68EE087A07EE100AE8EEF7
:1051C000A87AB8EEC77AE7EE077AF5EE407AF1EE04
:1051D00010FAB1EEE78A03D517EE900A19F09CFC9D
:1051E000FDEEC87ACDED017A019803B0BDEC028BDB
:1051F00030BD204603B0BDEC028BBDE830400DF061
:1052000091BA204603B0BDEC028BBDE830400DF0F2
:1052100097BA204603B0BDEC028BBDE830400DF0DC
:105220009DBA00230193B0E738B5054600F03EF87B
:1052300058B10368DB6A0446984745B1012D04D193
:105240002046BDE83840FBF747BA002038BD20466D
:10525000BDE83840FBF720BA10B5044600F026F848
:1052600028B1036821461B6ABDE81040184710BDED
:105270000048704716FCFFFF704700BF10B5034B96
:10528000036004460DF04AF8204610BD2C200308A8
:1052900010B5054B036004460DF040F820461BF0A6
:1052A0004CFA204610BD00BF2C2003082DE9F04326
:1052B000BD4C236885B01BB1986805B0BDE8F0838C
:1052C0004FF0FF31012001F0F9FC05F001F8002852
:1052D00000F0EC800C201BF032FA4FF0FF31064654
:1052E000462001F0EBFC68280CBF3321032151203C
:1052F00001F0E4FCDFF8E0E2AC4B054605F00F07F7
:10530000C5F3031815F4807508BF7346A8483946DD
:1053100042460CF00BFA2A1C18BF012239464346BC
:1053200030460FF021FF0023A248B3600CF0FEF9D5
:105330004FF0FF31032001F0C1FC04F0C9FF4FF032
:10534000FF310546022001F0B9FC04F0C1FF002D39
:1053500000F09580002800F092800146284604F075
:10536000D3FB0746002800F09D803821462001F03D
:10537000A5FC322880462AD027DD382866D0682848
:105380003DD14FF0FF31012001F098FC04F0A0FF67
:1053900081465C201BF0D3F90523054601934A465C
:1053A000CDF80080394633460EF02EFF2846B06017
:1053B00003689B6A9847B0680368DB6A98477E4831
:1053C0000CF0B4F92660B06877E7302817D14FF0B9
:1053D000FF31012001F072FC04F07AFF8146502079
:1053E0001BF0ADF91FFA88F1054605234A460091E6
:1053F0000193394633460EF0D9FC2846D7E73A6880
:105400000125002301950095D2F82480B3600F2276
:105410000DF10F0332213846C047002851D14FF01B
:105420003208414665480CF081F94FF0FF31012008
:1054300001F044FC04F04CFF814650201BF07FF942
:10544000052305464A46CDF80080D1E74FF0FF31ED
:10545000012001F033FC04F03BFF814650201BF09B
:105460006EF9052305464A46CDF80080394601937A
:1054700033460EF0A5FD524B2B60284697E7514866
:105480000CF054F94FF0FF31192001F017FC04F033
:105490001FFF4FF0FF310546182001F00FFC04F00C
:1054A00017FF5AE748480CF041F98BE74FF0FF31FE
:1054B000032001F003FC04F00BFF00287FF40AAF87
:1054C000FBE63B6801950095D3F824800F220DF18F
:1054D0000F0330213846C04718B94FF03008414615
:1054E000A0E73B6801950095D3F824800D220DF1CB
:1054F0000F0338213846C047B8B938212F480CF07F
:1055000015F94FF0FF31284601F0D8FB04F0E0FE1A
:10551000804650201BF013F94FF0050E3823054646
:10552000424639468DE80840A2E73A680195009561
:10553000D2F824800DF10F03752268213846C04748
:10554000D8B968211D480CF0F1F84FF0FF3128461A
:1055500001F0B4FB04F0BCFE80465C201BF0EFF8C9
:105560004FF0050E682305468DE80840424639464F
:1055700033460EF049FE284619E714480CF0D6F8D9
:10558000B06800287FF414AF4FF0FF31032001F022
:1055900095FB04F09DFE18B10D480CF0C7F811E71B
:1055A0000C480CF0C3F80DE7E40300206C1003086E
:1055B0007C1003089C1003083411030858110308D9
:1055C00038100308AC100308C01003084411030886
:1055D000D8100308141103087410030808B501F06B
:1055E0009FFCFBF739FEBDE8084001F0FDB900BFA4
:1055F00008B501F095FCFBF79FFEBDE8084001F0FF
:10560000F3B900BF08B501F08BFC18F045FCBDE80C
:10561000084001F0E9B900BF08B501F081FC19F0BC
:10562000B7F9BDE8084001F0DFB900BF08B501F0E7
:1056300077FCFBF721FEBDE8084001F0D5B900BFBB
:1056400008B501F06DFC18F059FEBDE8084001F006
:10565000CBB900BF08B501F063FCFBF75DF8BDE80E
:10566000084001F0C1B900BF08B501F059FC18F0BD
:1056700099FDBDE8084001F0B7B900BF70B5049EC0
:1056800096420C4628DB15466BB1002A00EB02015E
:1056900007DD2046A21811F8013D00F8013B9042B9
:1056A000F9D1002070BD042A0FD0022A02D110F0D7
:1056B000010306D001462A46204607F0E7FF0020F6
:1056C00070BD02880A80184670BD10F00303F1D146
:1056D00002680A60184670BD0846002109F0C6F944
:1056E0004FF0FF3070BD00BF0830704740B1002957
:1056F00005DB4368994202DA0844007A70470020CB
:10570000704700BF30B1002904DB43689942BCBF39
:1057100040180272704700BF40B1002905DB4368A2
:10572000994202DA0844007A70470020704700BFAF
:10573000830705D120B1030F0CBF01200020704763
:105740000120704730B1002904DB43689942BCBF97
:1057500040180272704700BF002B23DB002921DBB9
:1057600070B54668B1421ADC5568761A1446EA1AD2
:10577000B242A8BF3246002A11DB84420D4607D050
:10578000083408300844E11807F080FF002070BD9D
:105790000834E11860191BF00CF8002070BD4FF0C0
:1057A000FF3070BD4FF0FF30704700BF406870475A
:1057B00010B4141E10DB426894420DDC33EA23035C
:1057C00028BF1346121B08309A422044A8BF1A462D
:1057D0005DF8044B09F04AB95DF8044B704700BF0F
:1057E00043688B4210B400F108041846A8BF08466D
:1057F00032EA220128BF19461B1A99422044A8BF49
:1058000019465DF8044B00F0F3BE00BF002BBCBF8F
:1058100043689B1A002A70B50E4620DB446899182D
:10582000A1421CDC8A421ADCCBB136F0004116D012
:1058300059428E4214DDB34212DD0830002E00EBD7
:10584000020515DB9C1B2246A91928461AF0B1FF58
:10585000324628190021BDE8704009F007B970BD33
:10586000002211464FF0FF33BDE87040FFF7A0BFA4
:1058700074429A19294628191AF09BFF2246284695
:105880000021BDE8704009F0F1B800BF03460830C0
:10589000596800F02DBE00BF70B504460020616855
:1058A000490000F0A7FD6668002E11DD094D04F1E6
:1058B000080100EB4606034611F8012B141102F013
:1058C0000F022C5DAA5C9C71DA7102339E42F3D107
:1058D00070BD00BF6C110308002BBCBF43689B1A4E
:1058E000002A2FDB70B445689C18AC4229DCA24228
:1058F00027DC33B331F0004423D00029B8BF01EBDB
:10590000032191FBF3F603FB1616002E00F10800AD
:10591000B8BFF61802441644B242134411D03046C0
:1059200004E0B24208460ED090420AD001461478F4
:1059300011F8015B02F8015B8B420470F1D1304633
:10594000F2E770BC70470E46EEE700BF00B583B0CB
:105950004FF0FF3300930023FFF7FEFE03B05DF826
:1059600004FB00BF10B50C1E0EDD4168083002F0CC
:10597000FFF81F2C09DC0123A34020FA04F4013BAB
:10598000444004EA030010BD002010BD0146002081
:1059900000F02EBE38B50021054600F0D7FD0146C7
:1059A000002000F025FE044600F10801284600F022
:1059B000CDFD204638BD00BF30B5013A83B0044666
:1059C0000D460F2A16D8DFE802F01717838D9417BB
:1059D0002E08081F424D5C367462184601F034FBF5
:1059E000012DADF8000005DD9DF800209DF8013087
:1059F0002370627003B030BD184601F025FB002D06
:105A0000F8DD207003B030BD184601F01DFB032DFA
:105A10000090EFDD6A46231D12F8011B03F8011DFB
:105A20009C42F9D1E6E7184601F00EFB002DC0B20A
:105A3000E0DD2070E6E7184601F072FA072DCDE9A7
:105A40000001D7DD6B4603CB20606160D2E71846CA
:105A500001F08EFA032DCDDDA3070CBF206020607E
:105A600003B030BD184601F083FA032D0090C1DD6C
:105A70006A46231D12F8011B03F8011D9C42F9D14F
:105A8000B8E7184601F078FB032DE5DCB2E71846CD
:105A900001F046FA072DCDE90001ABDD0DF1FF3233
:105AA00004F1080312F8011F03F8011DA342F9D104
:105AB000A0E7184601F060FB032D00909ADD6A46CE
:105AC000231D12F8011B03F8011DA342F9D191E730
:105AD000184601F0B9FA012D8CDDE20754BF208091
