:020000040002F8
:1060000000000420A9B70300D1B70300D3B70300F1
:10601000D5B70300D7B70300D9B7030000000000CD
:10602000000000000000000000000000DBB70300DB
:10603000DDB7030000000000DFB70300E1B7030095
:10604000E3B70300E3B7030049B603000DB603004E
:1060500021B60300E3B703008DAA0300E3B70300F2
:10606000EDB20300F5B20300FDB20300E3B7030095
:10607000E3B70300E3B70300E3B70300E3B70300AC
:10608000E3B70300E3B70300E3B70300E3B703009C
:10609000E3B70300E3B70300E3B70300E3B703008C
:1060A000E3B70300E3B7030005B303000DB3030038
:1060B000E3B70300E3B703000000000000000000A6
:1060C000E3B70300E3B70300E3B7030035B603000B
:1060D000E3B70300E3B70300E3B70300E3B703004C
:1060E00071B60300E3B70300E3B70300000000004C
:1060F00000000000E3B70300000000005DB60300ED
:10610000000000000000000000000000000000008F
:10611000000000000000000000000000000000007F
:10612000000000000000000000000000000000006F
:10613000000000000000000000000000000000005F
:10614000000000000000000000000000000000004F
:10615000000000000000000000000000000000003F
:10616000000000000000000000000000000000002F
:10617000000000000000000000000000000000001F
:10618000000000000000000000000000000000000F
:1061900000000000000000000000000000000000FF
:1061A00000000000000000000000000000000000EF
:1061B00000000000000000000000000000000000DF
:1061C00000000000000000000000000000000000CF
:1061D00000000000000000000000000000000000BF
:1061E00000000000000000000000000000000000AF
:1061F000000000000000000000000000000000009F
:106200007CB0EE877CB0EE87FF00FF00FF00FF0050
:10621000FF00FF00FF00FF00FF00FF00FF00FF0086
:10622000FF00FF00FF00FF00FF00FF00FF00FF0076
:10623000FF00FF00FF00FF002DE9F04F85B0039144
:106240000778A7F10903042B044607F07F0200F149
:106250000100F5D9202AF3D02B2F04BF677804461C
:106260002D2F72D09FED427B8DED007B4FF000080B
:106270004FF000098FB34FF0000E4FF0000ADFF827
:1062800000B1754619E018F075F980468946304628
:1062900018F00AF942464B4617F0BAFF52468046BC
:1062A00089465B46DDE9000135B318F08DFACDE98A
:1062B0000001AE4614F8017F7FB1A7F13006092E28
:1062C00052465B4640464946DDD9C5B92E2F16D108
:1062D00014F8017F0125002FEFD142464B46DDE93E
:1062E000000118F047F980468946039B404649461D
:1062F0001C6005B0BDE8F08F4FF0010EDAE7BEF18B
:10630000000F29D042464B46DDE9000118F032F972
:1063100007F0DF07452F80468946E6D10399601CC8
:106320000A2217F059FF16490246002018F082FC95
:1063300002460B464046494618F01CF980468946FD
:106340004046494605B0BDE8F08F9FED0B7B67786E
:106350008DED007B013489E7DFF828904FF00008CD
:106360004046494605B0BDE8F08F00BFAFF300805E
:10637000000000000000F03F000000000000F0BF3F
:10638000000024400000F87F2DE9F84F1646002356
:10639000002204460D4618F05FFB002840F09D8067
:1063A000002200232046294618F04CFB28B1302259
:1063B000002332707370BDE8F88F2046294616F02E
:1063C0004BFA18F087FB7BA3D3E9002381462946CB
:1063D000204618F041FB002800F08680B9F1000F3C
:1063E000C0F2BE804A4600206F4918F023FC0246E6
:1063F0000B462046294618F0E7F904460D4666A1EB
:10640000D1E9000101274FF0000822462B4618F081
:10641000B1F80022654B17F0FBFE18F047FC002F87
:10642000CC464FF0FF3AC1464FF0000840F385805C
:10643000DFF888E15E4C0122AEF1700945F6F325E4
:106440004FF02E0BA94208BFA0424FF0300309D3F2
:10645000001B61EB0501A94208BFA04203F1010343
:10646000F6D2DBB2337050EA010306F1010409D120
:10647000BA4210DACE4502F101020CD026467EE87F
:106480000245DFE7BA4204BF86F801B0B41CCE452E
:1064900002F10102F2D1B8F1000F0DD022463021F5
:1064A00002F8011BC2F1010353442344002BF7DC23
:1064B0002AEAEA7301331C44BCF1010F4CD0652376
:1064C000BCF1000F2370C5BF2B236370611CA11C9E
:1064D0006046BDE8F84F0FF0B3BE05F100431D461E
:1064E0002D23337001365BE72DA3D3E9002320462B
:1064F000294618F0CFFA00287FF470AFB9F10E0FDB
:1065000009F101073DDDA9F10E08424600202649A8
:1065100018F090FB02460B462046294618F054F925
:106520000022224B17F074FE18F0C0FB002FA9F1D7
:106530000F0A4FF0010C3FF77BAF334630222E2479
:1065400003F8022B74707FEA090618D01E4403F882
:10655000012BB342FBD16BE700232370BDE8F88F1A
:10656000C9F100020020104918F064FB02460B46F6
:106570002046294617F0FEFF04460D463FE71E461B
:1065800056E7C9F10E0200200749C84618F052FB31
:106590004FF0010939E700BF0000901EC4BCD6428D
:1065A00050EFE2D6E41A4B44000024400000E03FE4
:1065B00000407A108DEDB5A0F7C6B03EE0F70300BD
:1065C00070B54FF0FF3006F0B5F904466FF07F402C
:1065D00006F0B0F90646204617F056FF00220C4B95
:1065E00017F0C8FF044630460D4617F04DFF06A3CE
:1065F000D3E9002318F0E8F802460B462046294666
:1066000017F006FE70BD00BF0000E0DFFFFF6F4324
:106610000000F03D0000000008B511F0BDF8DFED0E
:106620000C7A07EE100A67EE277A17EE900A17F039
:106630004DFF05A3D3E9002318F0C6F818F04AFA75
:1066400008BD00BFAFF30080EA2E4454FB2119407F
:106650000000B4430000000008B511F0B1F8DFED10
:106660000C7A07EE100A67EE277A17EE900A17F0F9
:106670002DFF05A3D3E9002318F0A6F818F02AFA95
:1066800008BD00BFAFF30080EA2E4454FB2119403F
:106690000000B44300000000494A21F00043934247
:1066A0002DE9704304460D464BDC464A93420E46A4
:1066B0000EDC3FA3D3E9002317F0AAFD0022424BD2
:1066C00018F0E8F900284CD020462946BDE8708330
:1066D0003E4A93423BDCB3F1804F42DD15F0B6FCFD
:1066E0002246804689462B462046294617F042FF1F
:1066F0000022354B17F08CFD16F0E6FB02460B46E8
:106700004046494617F084FD02460B4600202E49BC
:1067100018F05AF8424604460D464B464046494654
:1067200017F076FD02460B462046294617F070FD0D
:1067300002F06AF8002EC9DC01F100431946BDE8F9
:10674000708302460B4617F063FDBDE8708315F0B9
:106750007DFC02F059F818A3D3E9002317F058FD87
:10676000E8E722462B462046294617F003FF8046DD
:1067700089462046294615F069FC002204460D464C
:10678000114B4046494617F043FD16F09DFB002291
:106790000D4B17F03DFD02460B464046494618F0AA
:1067A00013F822462B4617F033FD00F0C5FAC1E777
:1067B0009C7500883CE4377EEF39FAFE422EE63FB6
:1067C000FFFFEF7FFFFF2F3E0000F03F0000B041D2
:1067D0002DE9F84FC44B21F000469E4204460D4679
:1067E0008A460EDDC14B9E4200F3AC8000F0A780CC
:1067F000BAF1000F40F3EA809FA1D1E90001BDE8A2
:10680000F88FBB4B9E4200F3B580A3F1DE739E422E
:1068100040F3A0804FF0FF3B22462B4620462946FE
:1068200017F0A8FE02460B468046894617F0A2FEE6
:1068300093A3D3E9002306460F4617F09BFE92A3CD
:10684000D3E9002317F0E4FC32463B4617F092FEF2
:106850008FA3D3E9002317F0DBFC32463B4617F049
:1068600089FE8DA3D3E9002317F0D2FC32463B46C4
:1068700017F080FE8AA3D3E9002317F0C9FC324643
:106880003B4617F077FE88A3D3E9002317F0C0FC3E
:1068900042464B4617F06EFE85A3D3E9002380469F
:1068A00089463046394617F065FE83A3D3E90023B5
:1068B00017F0ACFC32463B4617F05CFE80A3D3E9F0
:1068C000002317F0A3FC32463B4617F053FE7EA38D
:1068D000D3E9002317F09AFC32463B4617F04AFEF4
:1068E0007BA3D3E9002317F091FC32463B4617F017
:1068F00041FEBBF1FF3F02460B466CD04046494685
:1069000017F086FC22462B4617F034FE794E7A4B60
:106910004FEACB0B5E449B44DBE9002317F076FC87
:1069200022462B4617F072FC02460B46D6E90001C0
:1069300017F06CFCBAF1000F43DBBDE8F88F0028BC
:106940003FF456AF22462B462046294617F060FCFE
:10695000BDE8F88F60A3D3E9002317F059FC0022AB
:10696000664B18F097F800283FF454AF20462946AC
:10697000BDE8F88F15F06AFB614B9E4204460D4658
:1069800039DCA3F550239E425EDC02460B4617F02D
:106990003FFC0022594B17F039FC002206460F46F7
:1069A0004FF080432046294617F032FC02460B4642
:1069B0003046394617F008FF4FF0000B04460D46ED
:1069C0002AE701F100431946BDE8F88F44A1D1E957
:1069D0000001BDE8F88F4046494617F019FC2246F1
:1069E0002B4617F0C7FD02460B462046294617F0F6
:1069F0000DFCBDE8F88F434B9E421ADC0022424B4F
:106A000017F004FC002206460F463F4B204629465D
:106A100017F0B0FD0022394B17F0FAFB02460B4687
:106A20003046394617F0D0FE4FF0020B04460D46B3
:106A3000F2E602460B460020344917F0C5FE4FF03F
:106A4000030B04460D46E7E600222C4B17F0DEFB55
:106A5000002206460F46294B2046294617F0D8FB50
:106A600002460B463046394617F0AEFE4FF0010B9A
:106A700004460D46D0E600BF182D4454FB21F93FD3
:106A800011DA22E33AAD903FEB0D76244B7BA93F20
:106A9000513DD0A0660DB13F6E204CC5CD45B73FEE
:106AA000FF8300922449C23F0D5555555555D53F9A
:106AB0002F6C6A2C44B4A2BF9AFDDE522DDEAD3F8E
:106AC0006D9A74AFF2B0B33F711623FEC671BC3F2E
:106AD000C4EB98999999C93F9C7500883CE4377E2E
:106AE000182D4454FB21F9BFFFFF0F440000F07F35
:106AF000FFFFDB3FF0F7030010F803000000F03F5A
:106B0000FFFFF23FFF7F03400000F83F0000F0BFAF
:106B10002DE9F843C1F30A59A9F2FF35132D0246B6
:106B20000B460C4606468846074622DC002D50DB05
:106B3000DFF8F09049FA05F901EA090E5EEA060667
:106B40001CD036A3D3E9002317F062FB00220023F8
:106B500017F0A0FF48B1002C04DD4FF4801343FA76
:106B600005F5A84428EA0904002721463846BDE86F
:106B7000F883332D06DDB5F5806F3DD010461946FC
:106B8000BDE8F883A9F213494FF0FF3E2EFA09F948
:106B900010EA090FF2D021A3D3E9002317F038FB44
:106BA0000022002317F076FF0028DED0002C09DD3C
:106BB000142D2BD00127C5F1340507FA05F5AE19C0
:106BC00028BFB844444626EA090721463846BDE8AE
:106BD000F88312A3D3E9002317F01AFB0022002345
:106BE00017F058FF0028C0D0002C0BDB54EA060732
:106BF00006D00027084CB8E717F00AFBBDE8F88379
:106C00003C46B2E700274FF00044AEE704F101082C
:106C1000D8E700BFAFF300800000F03F9C7500880C
:106C20003CE4377EFFFF0F002DE9F041C1F30A5726
:106C3000A7F2FF35132D02460B460C468846064642
:106C40001CDC002D3FDB3A4F2F41864601EA070C42
:106C50005CEA0E0E17D034A3D3E9002317F0D8FA5C
:106C60000022002317F016FF20B1002C3FDB28EA9A
:106C70000704002621463046BDE8F081332D06DDAD
:106C8000B5F5806F2FD010461946BDE8F081A7F208
:106C900013474FF0FF3E2EFA07F73842F3D022A3F6
:106CA000D3E9002317F0B4FA0022002317F0F2FE14
:106CB0000028DFD0002C20DB444626EA07062146C8
:106CC0003046BDE8F08118A3D3E9002317F0A0FAFD
:106CD0000022002317F0DEFE0028CBD0002C17DBAB
:106CE00000263446C6E717F093FABDE8F0814FF46A
:106CF000801343FA05F5A844B9E7142D10D00123F9
:106D0000C5F1340503FA05F5AE1928BF9844D3E759
:106D100024F00042074B324318BF1C460026A9E767
:106D200004F10108C8E700BF9C7500883CE4377E89
:106D3000FFFF0F000000F0BF2DE9F04FD84B994244
:106D400087B0804689460E4613DCD64B21F00044BE
:106D50009C4218DD0022D44B17F074FE002879D035
:106D6000002200230020D14917F02EFD07B0BDE816
:106D7000F08FCF4B99422FDD42464B4617F048FA31
:106D800007B0BDE8F08FCB4B9C4270DDCA4B1E4470
:106D90009E427ED80022C94B4046494617F038FA39
:106DA0004FEA215AAAF2FF3ABAF1000F04460D4603
:106DB0000E4640F3DE8142464B4617F027FA024664
:106DC0000B460020BD4917F021FA22462B4617F04A
:106DD000FBFCCDE902010BE0B94B9E42DADD9FEDF1
:106DE0009A7B8DED027B4FEA265A4446AAF2FF3A7F
:106DF000B44BC6F313069E4246F07F5500F3E7807E
:106E000045F44015204629460022AC4B17F0FEF908
:106E1000002204460D46AC4B17F0ACFB22462B4635
:106E200017F0A8FBA046CDE90401A946CDE9000171
:106E3000002E3AD1002200232046294617F002FEF8
:106E4000002800F0CE80BAF1000F40F074810020DD
:106E5000002195E742464B464046314617F0D6F9A9
:106E600002460B4617F0B0FC07B0BDE8F08F0022D9
:106E7000964B17F0CDF90022002317F00BFE0028E7
:106E800000F0CC80924B9C4200F3C88040464946BB
:106E900076E700228C4B17F06DFB42464B4617F00D
:106EA00069FBCDE900014FF0000A00224FF080435A
:106EB0004046494617F0ACF902460B464046494663
:106EC00017F082FC02460B4606460F4617F052FBAF
:106ED0005FA3D3E9002304460D4617F04BFB5EA3E6
:106EE000D3E9002317F094F922462B4617F042FB12
:106EF0005BA3D3E9002317F08BF922462B4617F04A
:106F000039FB59A3D3E9002317F082F922462B4617
:106F100017F030FB56A3D3E9002317F079F9224686
:106F20002B4617F027FB54A3D3E9002317F070F981
:106F300022462B4617F01EFB51A3D3E9002317F07E
:106F400067F922462B4617F015FB04460D46BAF1A9
:106F5000000F00F0BF80504617F0A6FA4AA3D3E90D
:106F6000002382468B4617F005FBDDE90023CDE9BF
:106F700004012046294617F04BF932463B4617F0EC
:106F8000F9FA43A3D3E9002304460D465046594677
:106F900017F0F0FADDE9022317F03AF902460B4642
:106FA0002046294617F034F902460B46DDE9000178
:106FB00017F02CF942464B4617F028F902460B46CB
:106FC000DDE9040117F022F907B0BDE8F08F45F4C0
:106FD0000015C6F5801620462946B6100AF1010AAA
:106FE00012E72DA3D3E900232046294617F0C2FA61
:106FF00002460B460020314917F008F9DDE9042369
:1070000017F0B8FA06460F46BAF1000F73D10246E0
:107010000B462046294617F0F9F8B1E642464B46A2
:107020004046494617F0A6FA0022274B17F0A2FA6D
:1070300002460B464046494617F0E8F807B0BDE85F
:10704000F08F00BFAFF300800000000000000000E0
:1070500044523EDF12F1C23F9FC678D0099AC33F27
:10706000DE03CB966446C73FAF788E1DC571CC3F1B
:10707000599322942449D23F04FA97999999D93F78
:10708000935555555555E53F0000E0FE422EE63F2D
:10709000763C7935EF39EA3D555555555555E53F1F
:1070A0007982DA3FFFFFEF3F0000F0BF000050C3DE
:1070B000FFFFEF7FFFFF1F3E3C412D400000F03FF0
:1070C000FFFF3F439DA006000000E03F000050434B
:1070D000FFFF8F3CDDE9004522462B4617F098F86C
:1070E00032463B4617F046FA02460B4620462946F2
:1070F00017F08CF89CE7504617F0D6F923A3D3E994
:10710000002382468B4617F035FA22A3D3E90023E9
:10711000804689465046594617F02CFADDE902238D
:1071200017F076F802460B463046394617F06EF8EF
:1071300022462B46DCE7504617F0B6F915A3D3E9F3
:10714000002306460F4617F015FADDE9022317F073
:107150005FF80EA3D3E9002304460D4630463946B6
:1071600017F008FA02460B462046294617F050F859
:1071700006E60022044B17F049F802460B4640464B
:10718000494617F043F820E60000F03F0000E0FE1B
:10719000422EE63F763C7935EF39EA3D00000000AB
:1071A00008B515F0D9FA04A3D3E9002317F00CFBB6
:1071B00008BD00BFAFF30080EF39FAFE422EE63F74
:1071C0002DE9F043DFF8B4808BB004460D4601F0A2
:1071D000F3F898F90030013306460F462BD02246CB
:1071E0002B462046294617F05FFC814618BB2046F7
:1071F000294614F02BFF1FA3D3E9002317F04AFC04
:10720000C8B1194A98F90030CDF820900321CDE992
:107210000445CDE902458DE806008BB9134B4FF0CC
:107220006042CDE90623684616F0F2FD70B1089B76
:107230009BB9DDE90667304639460BB0BDE8F083FF
:107240000B490020022BCDE90601ECD116F06CFFB2
:1072500022230360089B002BEBD016F065FF089BF0
:107260000360E6E7AFF30080440A0400FFFFEF4746
:107270000000F07F7DF8B98FCE338640FF8100207B
:107280002DE9F043DFF8E4808BB004460D4601F0B1
:1072900043F998F90030013306460F4633D02046B3
:1072A000294616F0AFFD70B32CA3D3E90023204686
:1072B000294617F0EFFB814650BB2AA3D3E90023F0
:1072C0002046294617F0C8FBE8B198F90030204A5B
:1072D000CDF82090002600270421022BCDE904459B
:1072E000CDE90245CDE906678DE8060029D068465C
:1072F00016F08EFD28B3089B1BB116F015FF089BF6
:107300000360DDE90667304639460BB0BDE8F0831F
:107310000F4A98F90030019203210022CDE904457B
:10732000CDE90245009108922BB90A4B4FF060421B
:10733000CDE90623DBE708490020022BCDE9060151
:10734000D5D116F0F1FE22230360D4E7AFF300801D
:107350004C0A0400FFFFEF470000F07FEF39FAFE10
:10736000422E864051302DD5104987C0FF81002024
:107370002DE9F04FDFF80C938DB006460F4614460A
:107380001D4601F0C5FC99F90080B8F1FF3FCDE939
:10739000000136D022462B462046294617F084FBB2
:1073A000834670BB32463B463046394617F07CFB7D
:1073B0008246002840F0A280304639460022002351
:1073C00017F040FB10B3002200232046294617F097
:1073D00039FB834600286AD09FEDA17B0122A44B94
:1073E000CDF828A00292CDE90467CDE906458DEDE0
:1073F000087B0393B8F1000F45D09FED9B7B8DED8B
:10740000007BDDE900010DB0BDE8F08FDDE9000192
:1074100016F0F8FC8046002800F08D804FF0000A3E
:107420004FF0000BDDE9000152465B4617F00AFB06
:107430000028E6D03046394616F0E4FC0028E0D0BB
:107440002046294616F0DEFC0028DAD099F90030F3
:10745000874A039204210022022BCDE90467CDE97B
:107460000645CDE908AB02910A9203D002A816F0B6
:10747000CFFC68B916F058FE2223036008E09FEDA8
:10748000787B8DED087B02A816F0C2FC002830D076
:107490000A9B1BB116F048FE0A9B03609DED087B1A
:1074A0008DED007BDDE900010DB0BDE8F08F2046D9
:1074B000294616F0A7FC0028A3D00022002320466E
:1074C000294617F0C9FA00289BD099F90030684A7C
:1074D000CDF828B00121CDE90467CDE90645029138
:1074E0000392002BCBD063490020022BCDE9080189
:1074F000C9D116F019FE21230360C9E70022002339
:107500002046294617F09EFA00283FF47AAF5A4BDE
:107510005749CDF828B000220120B8F1020FCDE97B
:1075200004670290CDE90645CDE908230391AAD16D
:10753000CDE9002365E73046394616F063FC0028A4
:107540003FF46CAF2046294616F05CFC00283FF45F
:1075500065AFDDE900231046194617F0A5FA0028AB
:107560005FD1032399F900800293414B0A90CDE942
:107570000467CDE906450393B8F1000F2BD1DFF87E
:1075800008B14FF0604A0022002330463946CDE969
:1075900008AB17F061FA00283FF468AF0022374BC0
:1075A0002046294616F0E6FF04460D4616F038FC44
:1075B00002460B462046294617F044FA70BB304B72
:1075C00099F900804FF06042CDE90823B8F1020F2D
:1075D0007FF44CAF4EE7DFF8B4B04FF0000A002262
:1075E000002330463946CDE908AB17F035FA0028BC
:1075F000ECD00022214B2046294616F0BBFF044662
:107600000D4616F00DFC02460B462046294617F0A3
:1076100019FA18B9174B0022CDE9082399F900800F
:10762000D4E799F90090124BCDF828800122CDE9DA
:107630000467CDE9064502920393B9F1000F3FF4C8
:107640001EAF002200231046194617F0BDF8B9F10D
:10765000020FCDE908013FF44CAF14E7AFF300800F
:107660000000000000000000000000000000F03FEB
:10767000640A04000000F0FF0000F03F0000E03F5B
:10768000FFFFEFC7FF810020FFFFEF470000F07F03
:107690002DE9F84FC44E21F00043B34204460D4695
:1076A0000DDD03F1404303F58013034340F0B9803F
:1076B000002940F3408100200021BDE8F88FBB4E37
:1076C000B34240F3A6800029C0F2788102460B46FF
:1076D0000020B74916F09AFD0022B64B16F04AFF7B
:1076E00004460D4615F0F0FB95A3D3E90023894627
:1076F00080462946204616F03DFF93A3D3E9002398
:1077000016F086FD22462B4616F034FF90A3D3E9EF
:10771000002316F07BFD22462B4616F02BFF8EA38E
:10772000D3E9002316F074FD22462B4616F022FF03
:107730008BA3D3E9002316F069FD22462B4616F0F1
:1077400019FF89A3D3E9002316F062FD22462B46D8
:1077500016F010FF86A3D3E9002382468B4620460D
:10776000294616F007FF84A3D3E9002316F04EFD47
:1077700022462B4616F0FEFE81A3D3E9002316F025
:1077800047FD22462B4616F0F5FE7FA3D3E90023E2
:1077900016F03CFD22462B4616F0ECFE0022844BF0
:1077A00016F036FD02460B465046594617F00CF8C7
:1077B00042464B4616F0DEFE002682468B46324697
:1077C0004B463046494616F0D5FE02460B4620464B
:1077D000294616F01BFD324604460D464B464046F0
:1077E000494616F015FD02460B462046294616F07E
:1077F000EBFF02460B465046594616F009FD32464D
:107800004B4616F005FD02460B4616F001FDBDE89D
:10781000F88F694A93420EDC5DA1D1E90001BDE811
:10782000F88F02460B4616F0F1FC02460B4616F0A6
:10783000CBFFBDE8F88F02460B4616F09BFE40A337
:10784000D3E9002306460F4616F094FE3EA3D3E983
:10785000002316F0DDFC32463B4616F08BFE3CA3BF
:10786000D3E9002316F0D2FC32463B4616F082FEE6
:1078700039A3D3E9002316F0CBFC32463B4616F081
:1078800079FE37A3D3E9002316F0C0FC32463B460D
:1078900016F070FE34A3D3E9002316F0B9FC32468B
:1078A0003B4616F067FE32A3D3E9002380468946A3
:1078B0003046394616F05EFE2FA3D3E9002316F0BA
:1078C000A5FC32463B4616F055FE2DA3D3E9002316
:1078D00016F09EFC32463B4616F04CFE2AA3D3E936
:1078E000002316F093FC32463B4616F043FE00227E
:1078F0002F4B16F08DFC02460B464046494616F0CB
:1079000063FF22462B4616F035FE02460B4622A1A7
:10791000D1E9000116F07AFC02460B4620462946C2
:1079200016F074FC02460B4619A1D1E9000116F0CD
:107930006DFCBDE8F88F1AA1D1E90001BDE8F88F10
:1079400009F7FD0DE13D023F88B20175E0EF493FC7
:107950003B8F68B52882A43F5544880E55C1C93F66
:107960007D6FEB0312D6D43F555555555555C53F40
:1079700082922EB1C5B8B33F59018D1B6C06E63F0C
:10798000C88A599CE52A00404B2D8A1C273A03409F
:10799000182D4454FB21F93F075C143326A6913C73
:1079A000182D4454FB210940FFFFEF3FFFFFDF3F4D
:1079B0000000F03F0000E03F0000603C00225C4B14
:1079C00016F026FC00225B4B16F0D4FD40A3D3E951
:1079D000002304460D4616F0CDFD3FA3D3E9002356
:1079E00016F016FC22462B4616F0C4FD3CA3D3E944
:1079F000002316F00BFC22462B4616F0BBFD3AA3E3
:107A0000D3E9002316F004FC22462B4616F0B2FD03
:107A100037A3D3E9002316F0F9FB22462B4616F0D4
:107A2000A9FD35A3D3E9002316F0F2FB22462B462D
:107A300016F0A0FD804689462046294615F044FAF6
:107A40002FA3D3E9002306460F462046294616F009
:107A500091FD2DA3D3E9002316F0D8FB22462B4637
:107A600016F088FD2AA3D3E9002316F0D1FB2246A5
:107A70002B4616F07FFD28A3D3E9002316F0C6FBA2
:107A800022462B4616F076FD0022294B16F0C0FB4D
:107A900002460B464046494616F096FE32463B46A5
:107AA00016F068FD1EA3D3E9002316F0AFFB3246A3
:107AB0003B4616F0ADFB02460B4616F0A9FB02460C
:107AC0000B4619A1D1E9000116F0A0FBBDE8F88F23
:107AD00009F7FD0DE13D023F88B20175E0EF493F36
:107AE0003B8F68B52882A43F5544880E55C1C93FD5
:107AF0007D6FEB0312D6D43F555555555555C53FAF
:107B000082922EB1C5B8B33F59018D1B6C06E63F7A
:107B1000C88A599CE52A00404B2D8A1C273A03400D
:107B2000075C143326A6913C182D4454FB210940D0
:107B30000000F03F0000E03F434A91422DE9F84346
:107B400004460D4639DD414A914209DD02F1795280
:107B5000914240DD02460B4616F05AFBBDE8F88321
:107B600001F1404202F58012024330D0B1F1804F62
:107B70003ADC0022364B16F049FB02460B4604461F
:107B80000D4616F045FB224606460F462B4620467C
:107B9000294616F0EFFC02460B463046394616F0F1
:107BA00037FB15F091F90B4602462946204616F0A0
:107BB0002FFBBDE8F843FFF7BFB802460B4616F0AF
:107BC00025FB02460B4616F0FFFDBDE8F8830020BA
:107BD0000021BDE8F88300F017FE19A3D3E90023C4
:107BE00016F016FBBDE8F88302460B4616F0C2FC01
:107BF0000022174B16F00AFB15F066F92246804664
:107C000089462B462046294616F002FB4246064688
:107C10000F464B462046294616F0FAFA02460B4616
:107C200000200B4916F0D0FD0B460246394630467F
:107C300016F0ECFABDE8F84300F0E6BDAFF30080C3
:107C4000EF39FAFE422EE63FFFFFEF3FFFFFAF4165
:107C50000000F03F000000002DE9F047BE4B21F08E
:107C60000048984584B004460D4612DD08F14048AE
:107C700008F58018034658EA030321D002460B4654
:107C800016F0C4FA02460B4616F09EFD04B0BDE89D
:107C9000F087B24B98458A4629DCB8F1795F80F2CB
:107CA000658191A3D3E9002316F0B2FA0022AC4B10
:107CB00016F0F0FED8B12046294604B0BDE8F087A2
:107CC0008BA3D3E9002316F055FC8BA3D3E9002343
:107CD00006460F462046294616F04CFC02460B4647
:107CE0003046394616F094FA04B0BDE8F0872046D5
:107CF000294614F0ABF902460B460020984916F0CD
:107D000085FA0022974B16F035FC7DA3D3E90023BA
:107D100004460D4616F02EFC7BA3D3E9002316F093
:107D200077FA22462B4616F025FC79A3D3E90023E7
:107D300016F06CFA22462B4616F01CFC76A3D3E90B
:107D4000002316F065FA22462B4616F013FC74A3A6
:107D5000D3E9002316F05AFA22462B4616F00AFC05
:107D600071A3D3E9002316F053FA22462B4616F0EE
:107D700001FC6FA3D3E90023CDE900012046294689
:107D800016F0F8FB6CA3D3E9002316F03FFA224665
:107D90002B4616F0EFFB6AA3D3E9002316F038FA5E
:107DA00022462B4616F0E6FB67A3D3E9002316F024
:107DB0002DFA22462B4616F0DDFB694B002216F009
:107DC00027FACDE902012046294615F07DF8664BD9
:107DD000984506460F4666DCDDE90223DDE9000131
:107DE00016F0F2FC3246CDE900013B4630463946FA
:107DF00016F00EFA02460B46DDE9000116F0BAFB5A
:107E00004FF00008CDE9000142463B464046394666
:107E100016F0B0FB02460B462046294616F0F6F94E
:107E2000424604460D463B463046394616F0F0F9C8
:107E300002460B462046294616F0C6FC02460B4673
:107E400016F0E6F902460B462BA1D1E9000116F027
:107E5000DDF902460B46DDE9000116F0D7F942468E
:107E600004460D463B464046394616F0D1F90246D7
:107E70000B4637A1D1E9000116F0C8F902460B46BE
:107E80002046294616F0C2F902460B4630A1D1E938
:107E9000000116F0BBF9BAF1000F3FF7F7AE01F1A0
:107EA00000431946F2E6DDE90223DDE9000116F0A0
:107EB0008BFC32463B4616F05DFB32463B4616F0E5
:107EC000A7F902460B4616F0A3F90BA3D3E900234A
:107ED00016F09CF902460B4605A1D1E9000116F007
:107EE00095F9D8E7AFF300809C7500883CE4377EB5
:107EF000182D4454FB21F93F075C143326A6913C0E
:107F000009F7FD0DE13D023F88B20175E0EF493F01
:107F10003B8F68B52882A43F5544880E55C1C93FA0
:107F20007D6FEB0312D6D43F555555555555C53F7A
:107F300082922EB1C5B8B33F59018D1B6C06E63F46
:107F4000C88A599CE52A00404B2D8A1C273A0340D9
:107F5000182D4454FB21E93FFFFFEF3FFFFFDF3FB8
:107F60000000F03F0000E03F3233EF3F02460B4697
:107F700016F000FB37A3D3E9002306460F4616F0A0
:107F8000F9FA36A3D3E9002316F042F932463B460C
:107F900016F0F0FA33A3D3E9002316F037F932468E
:107FA0003B4616F0E7FA31A3D3E9002316F030F987
:107FB00032463B4616F0DEFA2EA3D3E9002316F034
:107FC00025F932463B4616F0D5FA2CA3D3E9002317
:107FD00016F01EF932463B4616F0CCFA29A3D3E937
:107FE0000023804689463046394616F0C3FA27A357
:107FF000D3E9002316F00AF932463B4616F0BAFAE6
:1080000024A3D3E9002316F003F932463B4616F0C9
:10801000B1FA22A3D3E9002316F0F8F832463B4622
:1080200016F0A8FA00220A4B16F0F2F802460B46A8
:108030004046494616F0C8FB22462B4616F09AFAEF
:1080400022462B4616F0E4F804B0BDE8F08700BFE6
:108050000000F03F09F7FD0DE13D023F88B20175D8
:10806000E0EF493F3B8F68B52882A43F5544880E16
:1080700055C1C93F7D6FEB0312D6D43F55555555B9
:108080005555C53F82922EB1C5B8B33F59018D1BDE
:108090006C06E63FC88A599CE52A00404B2D8A1C95
:1080A000273A0340000000002DE9F84F1D465342D7
:1080B000134325F0004ADFF8E0E14AEAD373734541
:1080C000144606460F4647D8C0F1000848EA0008A3
:1080D00021F0004343EAD878F0458B463CD805F1BF
:1080E000404808F5801858EA020850D04FEAA578B1
:1080F00008F0020848EAD17850EA030134D052EA85
:108100000A023CD0F24557D0734538D0A3EB0A039E
:108110001B153C2B42DC002D70DB22462B463046E3
:10812000394616F051FB13F091FFFEF751FBB8F101
:10813000010F5FD0B8F1020F4ED0B8F1000F62D03E
:1081400043A3D3E9002316F061F843A3D3E9002346
:1081500016F05CF8BDE8F88F32463B4620462946CB
:1081600016F056F8BDE8F88FB8F1020F1AD0B8F142
:10817000030F10D13AA1D1E90001BDE8F88FBBF19E
:10818000000F14DB38A1D1E90001BDE8F88FBDE88C
:10819000F84FFEF71DBB3946BDE8F88F32A1D1E993
:1081A0000001C4E72CA1D1E90001BDE8F88F30A19E
:1081B000D1E90001BDE8F88F534526D0B8F1020F90
:1081C000F0D0B8F1030FD5D0B8F1010F4FF0000097
:1081D00029D00021BDE8F88F1DA3D3E9002316F0B4
:1081E00015F802460B461CA1D1E9000116F00EF865
:1081F000BDE8F88F01F10041BDE8F88F3C338CDA1F
:108200000020002193E7BDE8F88FB8F1020F18D0E5
:10821000B8F1030F10D0B8F1010F08D016A1D1E9C1
:108220000001BDE8F88F4FF00041BDE8F88F14A1C0
:10823000D1E90001BDE8F88F13A1D1E90001BDE843
:10824000F88F13A1D1E90001BDE8F88FAFF30080EA
:10825000075C143326A6A13C182D4454FB21094089
:10826000182D4454FB2109C0182D4454FB21F93F1B
:10827000182D4454FB21F9BF182D4454FB21E93F2C
:10828000182D4454FB21E9BFD221337F7CD902C091
:10829000D221337F7CD902400000F07F0000000033
:1082A00043422DE9F047034321F000463E4A46EAA7
:1082B000D373934204460D4613D896423DD03B4BB0
:1082C0009E428A4617DC36A3D3E9002315F0A0FFAF
:1082D0000022002316F0DEFBA8B320462946BDE8A5
:1082E000F08702460B4615F091FF02460B4616F04A
:1082F0006BFABDE8F0872E4B9E42354624DD3346AF
:108300000246314615F084FF224606460F462B46AC
:108310000020254915F07AFF02460B4630463946C3
:1083200016F052FAFEF708FD0022224B16F022F951
:10833000BAF1000F2FDBBDE8F0870022002316F012
:1083400043FABDE8F087354622462B4620462946AB
:1083500015F05EFF22462B4606460F4616F00AF938
:108360002246804689462B4600200F4915F04EFFD5
:1083700002460B464046494616F026FA32463B4630
:1083800015F046FFFEF7D8FC00220A4B16F0F2F873
:10839000BAF1000FCFDA01F100431946BDE8F087CA
:1083A0009C7500883CE4377E0000F03FFFFF2F3EC5
:1083B000FFFFDF3F0000E03F2DE9F8434E4B21F087
:1083C00000449C4206460F461BDC4C4B9C4222DD7F
:1083D0004B4B9C4263DD4B4B9C427BDD4A4B9C42AA
:1083E00046DD01339C4240D041A3D3E9002310462F
:1083F000194616F0BFF806460F4630463946BDE826
:10840000F88302460B4616F0B5F806460F4630468E
:108410003946BDE8F88313F019FE02F0B1FC0022E2
:108420003A4B8046894615F0F3FEB4F1725F06467A
:108430000F46ECDB42464B464046494616F09AF85A
:1084400032463B4604460D463046394615F0E0FEBE
:1084500002460B462046294616F0B6F900222B4B61
:1084600015F0D6FE06460F46D1E7294B9842BBD8F9
:108470003046394613F0EAFD0022264B16F07AF812
:1084800000F04AF8002204460D46224B16F072F81E
:1084900022462B4616F06EF806460F46B7E713F055
:1084A000D5FD00F039F800221A4B06460F4616F0AB
:1084B00061F832463B4604460D460020154916F049
:1084C00083F902460B462046294615F0A1FE0646D2
:1084D0000F469CE713F0BAFD00F01EF800220D4B8A
:1084E00016F048F806460F4691E700BFAFF300804C
:1084F0009C7500883CE4377EFFFFEF7F422ED63F1D
:10850000FFFF3540412E8640CD3386400000F03FCE
:108510007DF8B98F0000E03F2DE9F04FB04E21F01B
:108520000042B24283B004460D464FEAD1770DD9DE
:10853000AC4EB24225D9C1F31303034340F0EC80A3
:108540000FB10020002103B0BDE8F08FA64B9A4286
:1085500000F2CB80A54B9A4200F2DC808AA3D3E9DB
:10856000002315F055FE0022A14B16F093FA0028C7
:1085700000F006812046294600229D4B15F048FE5A
:10858000E1E783A3D3E9002316F084FA002840F042
:10859000C88081A3D3E900232046294616F05CFA5F
:1085A0000028CED1934E7EA3D3E9002306EBC70665
:1085B0002046294615F0DEFFD6E9002315F028FEF7
:1085C00016F088FA064615F06FFF77A3D3E900236B
:1085D0008046894615F0CEFF02460B4620462946C6
:1085E00015F014FE72A3D3E90023CDE90001404643
:1085F000494615F0BFFF82468B4652465B46DDE991
:10860000000115F003FE04460D4622462B46204687
:10861000294615F0AFFF68A3D3E9002380468946B9
:1086200015F0A8FF66A3D3E9002315F0EFFD42463D
:108630004B4615F09FFF64A3D3E9002315F0E8FD36
:1086400042464B4615F096FF61A3D3E9002315F08F
:10865000DDFD42464B4615F08DFF5FA3D3E90023B5
:1086600015F0D6FD42464B4615F084FF02460B46F8
:108670002046294615F0CAFD80468946002E58D06E
:108680002046294642464B4615F074FF42460446B2
:108690000D464B4600204FF0804115F0B7FD0246D5
:1086A0000B462046294616F08FF802460B465046E8
:1086B000594615F0ABFDDDE9002315F0A7FD0B468B
:1086C00002464B49002015F0A1FD6FF47F739E42D6
:1086D00051DA06F57A7601EB065100224FF0B873B5
:1086E00015F048FF03B0BDE8F08F434B9A423FF6C8
:1086F00059AF424BFC002344D3E9002315F086FD1B
:108700003F4BC7F101062344CDE90001D3E900AB9B
:10871000F61B72E7002678E702460B4615F078FD57
:1087200011E719A3D3E900231046194615F022FFDB
:1087300009E702460B462046294615F01BFF00229A
:1087400006460F464FF080434046494615F05EFD11
:1087500002460B463046394616F036F822462B467E
:1087600015F054FD02460B460020214915F04EFD40
:1087700003B0BDE8F08F01EB065103B0BDE8F08F08
:10878000064642E7AFF300809C7500883CE4377EE4
:10879000EF39FAFE422E864051302DD5104987C060
:1087A000FE822B654715F73F0000E0FE422EE63FB4
:1087B000763C7935EF39EA3DD0A4BE726937663E22
:1087C000F16BD2C541BDBB3E2CDE25AF6A56113FD1
:1087D00093BDBE166CC1663F3E5555555555C53FB8
:1087E000412E8640FFFFEF7F422ED63FFFFF2F3EF8
:1087F0000000F03F30F80300B1A2F03F40F8030062
:1088000050F80300000000002DE9F04FB1F5801F83
:1088100085B006460F460B465ADA024621F0004460
:10882000224300F0F8800029C0F27A810022D64B62
:1088300015F0A0FED54A0B46934206460F466FF050
:10884000350C4ADCC3F3130505F5152E0EF6647ED0
:108850000EF4801E8EF07F5282F440121C1542EA04
:108860000507A4F2FF3464440022C94B3046394660
:1088700004EB1E5415F0CAFCAB1CC3F31303022B0C
:1088800082468B464FF0000230DC002316F0DAF807
:10889000002800F0C980002C00F04B81204615F024
:1088A00003FEA5A3D3E9002306460F4615F062FE9A
:1088B000A3A3D3E9002304460D463046394615F0FC
:1088C00059FE02460B462046294615F0A1FC0AE057
:1088D000AE4A93424FF0000CB4DD32463B46304680
:1088E000394615F095FC05B0BDE8F08F4FF0804398
:1088F00015F08EFC02460B465046594615F064FFB3
:10890000064620460F4615F0CFFD3246CDE9000160
:108910003B4630463946CDE9026715F02BFE02464C
:108920000B468046894615F025FE87A3D3E9002330
:1089300006460F4615F01EFE85A3D3E9002315F069
:1089400067FC32463B4615F015FE83A3D3E90023AE
:1089500015F05EFC32463B4615F00CFE80A3D3E9D1
:10896000002315F055FC42464B4615F003FE7EA34E
:10897000D3E90023804689463046394615F0FAFD92
:108980007BA3D3E9002315F043FC32463B4615F0A8
:10899000F1FD79A3D3E9002315F03AFC32463B46BA
:1089A00015F0E8FD0B4602464946404615F030FCFE
:1089B000A5F5C223C5F5D725A3F27A4351351D434A
:1089C000002D8046894656DD0022724B504659469E
:1089D00015F0D0FD52465B4615F0CCFD06460F461D
:1089E000002C68D132463B464046494615F010FC03
:1089F000DDE9022315F0BEFD02460B46304639463E
:108A000015F004FC02460B465046594615F0FEFB95
:108A100005B0BDE8F08F0022002300205E4915F06C
:108A2000D3FE05B0BDE8F08F55A3D3E9002350462F
:108A3000594615F09FFD02460B460020554915F09A
:108A4000E5FB524606460F465B465046594615F032
:108A500091FD02460B463046394615F08BFD064621
:108A60000F46002C40F09A8002460B46504659466D
:108A700015F0CCFB37E7002C00F0A4802EA3D3E93F
:108A80000023DDE9000115F075FD42464B46044622
:108A90000D465046594615F0B9FBDDE9022315F0A5
:108AA00069FD27A3D3E9002306460F46DDE900014F
:108AB00015F060FD21E020A3D3E90023DDE90001EA
:108AC00015F058FD32463B4604460D4640464946A1
:108AD00015F09EFBDDE9022315F04CFD18A3D3E948
:108AE000002380468946DDE9000115F043FD02467A
:108AF0000B464046494615F08BFB02460B46304676
:108B0000394615F083FB52465B4615F07FFB024663
:108B10000B462046294615F079FB05B0BDE8F08FDD
:108B200002460B4615F072FB0022002315F04CFEA6
:108B3000D9E600200021D6E60000E0FE422EE63F06
:108B4000763C7935EF39EA3D44523EDF12F1C23FBF
:108B5000DE03CB966446C73F599322942449D23F03
:108B6000935555555555E53F9FC678D0099AC33F53
:108B7000AF788E1DC571CC3F04FA97999999D93F6A
:108B8000555555555555D53F00005043FFFFEF7FD4
:108B90000000F03F0000E03F000050C3204615F009
:108BA00083FC0FA3D3E900238046894615F0E2FC3D
:108BB0000DA3D3E9002304460D464046494615F06F
:108BC000D9FC9AE702460B465046594615F01EFB63
:108BD000DDE9022315F0CEFC14E700BFAFF30080FF
:108BE0000000E0FE422EE63F763C7935EF39EA3D63
:108BF000B1F5801F2DE9F84304460D460B461ADAFD
:108C0000024621F00046324359D000295FDB0022A2
:108C10003B4B15F0AFFC3B4A0D462B4693420446B6
:108C20006FF035010CDD22462B462046294615F013
:108C3000EFFABDE8F883334A93424FF00001F2DCCB
:108C40001815A0F2FF3008444FEAD0794844C3F326
:108C5000130815F029FCC9F57F73033348EA03555F
:108C600006460F4620462946FFF7CEFD1EA3D3E950
:108C70000023804689463046394615F07BFC1CA30C
:108C8000D3E9002304460D464046494615F072FCE0
:108C900002460B462046294615F0BAFA16A3D3E938
:108CA000002304460D463046394615F063FC024663
:108CB0000B462046294615F0ABFABDE8F8830022A2
:108CC00000230020104915F07FFDBDE8F88302461F
:108CD0000B4615F09BFA0022002315F075FDBDE848
:108CE000F88300BFAFF30080362BF111F3FE593D3E
:108CF0000EE526157BCBDB3F00609F501344D33F2E
:108D000000005043FFFFEF7F000050C30000000051
:108D10002DE9F04F23F0004757EA020493B037D013
:108D2000674C21F00046A64283460D4629DC9A4650
:108D3000964625D0A74224DC614CA74279D0002D6D
:108D400080468946CDE9002377DB0024BEF1000F81
:108D50002CD15B4B9F4200F08B805A4B9F4261D0DD
:108D6000BAF1804F00F0C383574B9A451ED1002DB6
:108D70001CDB4046494613B0BDE8F04F14F0A4B8E0
:108D800058B106F1404606F5801656EA0B0306D1A7
:108D90004C49002013B0BDE8F08FB742CCDD4B4802
:108DA00013B0BDE8F04F15F035B8002440464946F1
:108DB00013F04CF9BBF1000F19D126B1414B25F04E
:108DC00040429A4213D1BAF1000FC0F2CA83002D7B
:108DD000E0DA06F1404606F5801656EA040300F094
:108DE000A584012CD6D101F100431946D2E7ED0F3D
:108DF000013D54EA05034ED0354B9F426EDD03F131
:108E000004739F4240F3FE83324B9E424EDDBAF123
:108E1000000F4EDD28A3D3E900231046194615F0B4
:108E2000A9FBB7E7BAF1000FC0F2528440464946A9
:108E3000B0E7BEF1000F82D0A3E7274B9F4228DCAA
:108E4000A3F154739F4280DD3B15A3F2FF33142B33
:108E500040F35484C3F134032EFA03F202FA03F30D
:108E60009E457FF472AF02F00102C2F102046DE789
:108E700006F1404303F5801353EA0B0388D0154BEA
:108E80009E4240F33B83BAF1000F12DBDDE90001A3
:108E900080E702245AE742464B461046194615F031
:108EA000B5F902460B4615F08FFC73E7BAF1000FD7
:108EB000B0DB002000216DE79C7500883CE4377E24
:108EC0000000F07F0000F03F0000E03F940004004D
:108ED0000000E041FFFFEF3FFFFF3F43B6F5801F7B
:108EE0004FF0000205DAD84B15F044FB6FF0340266
:108EF0000E463315D54FC6F31306A3F2FF331344C2
:108F000046F07F5ABE421A460D934AF4401A40F387
:108F10002F83CF4B9E4240F30D849FEDB57B8DEDAB
:108F2000087B8DED0E7B9FEDB47B13468DED067BAC
:108F300001330D93AAF5801A0027DDE90623514677
:108F4000CDE90A0115F062F9DDE90623804689467C
:108F5000DDE90A0115F05CF902460B460020BD4927
:108F600015F032FC0A460146CDE910121346494677
:108F70000246404615F0FEFA4FEA6A0343F00053FA
:108F80008C46834603F50023CDE904BCDA468B46C4
:108F9000D9190023CDE902AB0293DDE902AB002031
:108FA00006460F4602460B465046594615F0E2FA71
:108FB00002460B464046494615F028F9DDE90623EE
:108FC000804689463046394615F020F902460B4660
:108FD000DDE90A0115F01AF952465B4615F0CAFAA6
:108FE00002460B464046494615F010F9DDE91023CC
:108FF00015F0C0FADDE90467CDE9060132463B46CB
:109000003046394615F0B6FA7DA3D3E9002306466B
:109010000F4615F0AFFA7CA3D3E9002315F0F8F85A
:1090200032463B4615F0A6FA79A3D3E9002315F0A2
:10903000EFF832463B4615F09DFA77A3D3E90023BB
:1090400015F0E6F832463B4615F094FA74A3D3E9DE
:10905000002315F0DDF832463B4615F08BFA72A37B
:10906000D3E9002315F0D4F83246804689463B46C2
:109070003046394615F07EFA02460B4640464946D0
:1090800015F078FA524606460F465B46DDE90401C4
:1090900015F0BEF8DDE9062315F06CFA32463B46C2
:1090A00015F0B6F85246804689465B46504659460A
:1090B00015F060FA0022684BCDE90A0115F0A8F816
:1090C00042464B4615F0A4F802980F460646324633
:1090D0003B465046594615F04DFA002282468B46D3
:1090E0005D4B3046394615F091F8DDE90A2315F05D
:1090F0008DF802460B464046494615F087F8DDE9F3
:10910000042315F037FA3246804689463B46DDE9AE
:10911000060115F02FFA02460B464046494615F067
:1091200077F88046894602460B4650465946CDE9B7
:1091300004AB15F06DF8DDE902AB3DA3D3E90023E4
:1091400050460F4615F016FADDE90423CDE9020179
:109150003946504615F05AF802460B4640464946F5
:1091600015F054F834A3D3E9002315F003FA34A31F
:10917000D3E90023804689465046394615F0FAF96E
:1091800002460B464046494615F042F8DDE90E23FB
:1091900015F03EF880460D98894615F085F942464F
:1091A00006460F464B46DDE9020115F031F8DDE9D0
:1091B000082315F02DF832463B4615F029F83246C3
:1091C0003B4650468B4615F021F8DDE9082315F0A3
:1091D0001DF8DDE9022315F019F802460B4640465A
:1091E000494615F013F88046894637E0AFF3008012
:1091F0000000000000000000000000000000F03F40
:10920000EF4E454A287ECA3F65DBC9934A86CD3F6B
:1092100001411DA96074D13F4D268F515555D53F51
:10922000FFAB6FDBB66DDB3F033333333333E33FE9
:10923000000000E009C7EE3FFD033ADC09C7EE3F3E
:10924000F5015B14E02F3EBE000040438E98030002
:1092500079B60B000000F03F00000840013C54EAE2
:10926000050300F079819FEDC87B8DED047BDDE97E
:1092700000120B461446CDE9023400230293DDE9C7
:10928000024508462B461146224614F0BFFF5246BF
:109290005B4615F06FF9DDE9002306460F464046B0
:1092A000494615F067F902460B463046394614F038
:1092B000AFFF2246804689462B4650465946CDE9A7
:1092C000008915F057F90B46024606460F46404600
:1092D000494614F09DFFC64B994204460D468A4606
:1092E00040F3168101F13F4303F5E003034340F0EF
:1092F000F781A7A3D3E90023DDE9000114F088FF7B
:109300003246804689463B462046294614F07EFF79
:1093100002460B464046494615F0BCFB002840F08B
:10932000DF81A8464FEA28534FF48012A3F2FE33A0
:1093300042FA03F35344C3F30A52AE4DA2F2FF3292
:109340001541C3F3130423EA05010020C2F1140BF5
:1093500044F48014BAF1000F02460B4644FA0BFBAA
:1093600030463946B8BFCBF1000B14F04FFF024630
:109370000B4606460F46DDE9000114F049FF4FEAAF
:109380000B5A0D46002484A3D3E900232046294626
:1093900015F0F0F83246804689463B46204629467D
:1093A00014F034FF02460B46DDE9000114F02EFFF5
:1093B0007BA3D3E9002315F0DDF87BA3D3E90023D9
:1093C00006460F462046294615F0D4F802460B46BD
:1093D0003046394614F01CFF06460F4602460B463F
:1093E0004046494614F014FF42464B4604460D469B
:1093F00014F00CFF02460B463046394614F006FFC7
:109400002246804689462B462046294615F0B2F86A
:1094100067A3D3E9002306460F4615F0ABF866A311
:10942000D3E9002314F0F2FE32463B4615F0A2F8D1
:1094300063A3D3E9002314F0EBFE32463B4615F05C
:1094400099F861A3D3E9002314F0E0FE32463B46CD
:1094500015F090F85EA3D3E9002314F0D9FE32464C
:109460003B4615F087F802460B462046294614F085
:10947000CDFE06460F4602460B462046294615F00D
:1094800079F80022CDE900014FF08043304639469B
:1094900014F0BCFE02460B46DDE9000115F094F91C
:1094A000424606460F464B462046294615F062F8CE
:1094B00042464B4614F0ACFE02460B463046394657
:1094C00014F0A4FE22462B4614F0A0FE02460B46E2
:1094D0000020494914F09AFE8A44BAF5801FC0F270
:1094E00039815146DDE9042315F044F852E442463F
:1094F0004B464046494615F03DF84BE4BAF1000FA3
:10950000BFF6D7ACDDE90034184604F1004141E470
:109510003A4B21F00048984540F3FF80384B0B440C
:1095200003430CD132463B4614F070FE02460B4614
:10953000DDE9000115F09AFA00283FF4F3AEDDE909
:10954000040125A3D3E9002315F014F822A3D3E9DD
:10955000002315F00FF81DE49FED217B8DED047BBA
:1095600085E602460B460020234915F02DF92EE42E
:109570009FED1D7B8DED087B8DED0E7B9FED027BBE
:1095800000278DED067BD8E4000000000000F03FCE
:10959000FE822B654715973C00000000432EE63FF6
:1095A000EF39FAFE422EE63F396CA80C615C20BE12
:1095B000D0A4BE726937663EF16BD2C541BDBB3ED9
:1095C0002CDE25AF6A56113F93BDBE166CC1663FB7
:1095D0003E5555555555C53F59F3F8C21F6EA50167
:1095E000000000000000F0BF0000000000000000CC
:1095F000FFFF8F40FFFF0F000000F03FFFCB9040C8
:1096000000346F3F684B9E427FF750AC674B9E42E1
:109610003FF7FDAB0022654B14F0F8FD52A3D3E9F0
:10962000002306460F4614F0A5FF51A3D3E90023FB
:10963000804689463046394614F09CFF0022824617
:109640008B465B4B3046394614F094FF02460B467E
:1096500049A1D1E9000114F0D9FD32463B4614F08E
:1096600089FF02460B460020524914F0CFFD3246D6
:10967000CDE902013B463046394614F07BFF0246F5
:109680000B46DDE9020114F075FF3DA3D3E9002389
:1096900014F070FF02460B465046594614F0B6FDD2
:1096A00002460B4606460F464046494614F0B0FDBA
:1096B00042464B46002082468B4614F0A7FD0246E8
:1096C0000B463046394614F0A1FD80468946C5E573
:1096D00042464B460020354915F076F8FFF75ABB55
:1096E000DDE9040128A3D3E9002314F043FF26A3F6
:1096F000D3E9002314F03EFFFFF74CBBBEF1000F8F
:109700007FF453ABC3F1140347FA03F202FA03F3F5
:109710009F4223D07446FFF720BB264B98453FF766
:1097200001AEDDE90223924693462BE602460B4644
:10973000FFF7B3BB9FED167B8DED087B9FED167B8E
:109740008DED0E7B9FED167B4FF480278DED067B14
:10975000FFF7F3BB5A4601F04FFDC3E602F00102EA
:10976000C2F10204FFF7F9BA000000604715F73FA5
:1097700044DF5DF80BAE543E555555555555D53F14
:10978000FE822B654715F73F9C7500883CE4377EC9
:109790000000004003B8E23F06D0CF43EBFD4C3E53
:1097A000000000000000F83FFEFFEF3F0000F03F28
:1097B0000000D03F0000E03F2DE9F0479C4B21F036
:1097C00000479F4290B08046894640F38E80994B77
:1097D0009F420C46924626DC00298BA3D3E9002346
:1097E00040F3B08114F012FD934B9F4204460D46A6
:1097F00000F0908086A3D3E9002314F007FD024611
:109800000B46CAE900232046294614F0FFFC80A33A
:10981000D3E9002314F0FAFC0125CAE90201284625
:1098200010B0BDE8F087854B9F4240F39080844B99
:109830009F4265DC3D15A5F21645A7EB0553194679
:109840001F46064615F046F914F02EFE804689465E
:1098500042464B4630463946CDE90A8914F0D6FCDB
:109860000022784B14F086FE8946804615F032F9C6
:1098700014F01AFE06460F4632463B46404649461D
:10988000CDE90C6714F0C2FC00226E4B14F072FE9E
:1098900000220023CDE90E0115F0D4F8002800F0D5
:1098A0006F81002330463946002215F0CBF800289E
:1098B00014BF01230223644A019202212A46009127
:1098C0000AA8514600F08CFB002C054614DADAF8A1
:1098D0000420DAF80C3002F1004203F10043454263
:1098E000CAF80420CAF80C3006E000200021C2E9C2
:1098F0000089C2E902010025284610B0BDE8F087C2
:1099000002460B4614F082FC0025CAE90201CAE9AE
:109910000001F1E740A3D3E9002314F077FC40A352
:10992000D3E900230D46044614F070FC02460B46B2
:10993000CAE900232946204614F068FC38A3D3E97D
:10994000002314F063FC0125CAE90201D4E712F0F8
:109950007DFB35A3D3E900238046894614F00AFE37
:1099600000223A4B14F054FC15F0B4F8054614F0FC
:109970009BFD25A3D3E90023CDE9060114F0FAFDF0
:1099800002460B464046494614F040FC20A3D3E96A
:109990000023CDE90201DDE9060114F0EBFD1F2DE6
:1099A00080468946CDE9048954DC294B6A1E53F868
:1099B00022309F424ED002460B46DDE9020114F0F0
:1099C00025FC80468946CAE9008942464B46DDE9C6
:1099D000020114F01BFCDDE9042314F017FC002C39
:1099E000CAE9020188DA09F1004401F100436D423D
:1099F000CAF80080CAF80440CAF80800CAF80C3057
:109A00007AE700BFAFF3008000004054FB21F93F2C
:109A10003163621A61B4D03D0000601A61B4D03D78
:109A20007370032E8A19A33B83C8C96D305FE43F6E
:109A3000FB21E93F7BD90240FB21F93FFB21394162
:109A4000FFFFEF7F00007041080B04000000E03FC3
:109A5000880A0400DDE90423DDE9020114F0D6FBE5
:109A60003F15C1F30A53FB1A80468946102BCAE9F9
:109A70000089AADD58A3D3E90023DDE9060114F02B
:109A800079FD8046894602460B46DDE9020114F065
:109A9000BDFB02460B46DDE90201CDE9082314F0C7
:109AA000B5FB42464B4614F0B1FB4DA3D3E900236E
:109AB00080468946DDE9060114F05CFD42464B46CE
:109AC00014F0A4FB0B46CDE904010246DDE90801D0
:109AD00014F09CFBC1F30A53FF1A80468946312FCC
:109AE000CAE900896CDD41A3D3E90023DDE9060161
:109AF00014F040FDDDE9088906460F4602460B4694
:109B00004046494614F082FB02460B464046494611
:109B1000CDE9022314F07AFB32463B4614F076FB83
:109B200034A3D3E9002306460F46DDE9060114F00D
:109B300021FD32463B4614F069FB02460B46CDE957
:109B400004233AE714F064FB274B9F4204460D467A
:109B500018D01FA3D3E9002314F05AFB02460B468A
:109B6000CAE900232946204614F050FB18A3D3E984
:109B7000002314F04DFB4FF0FF35CAE90201BBE6AC
:109B8000032398E614A3D3E9002314F041FB14A3A4
:109B9000D3E900230D46044614F03AFB02460B4677
:109BA000CAE900232946204614F030FB0CA3D3E970
:109BB000002314F02DFB4FF0FF35CAE902019BE6AC
:109BC0009DED087B8DED027BFFE600BFAFF30080CB
:109BD0003163621A61B4D03D0000601A61B4D03DB7
:109BE0007370032E8A19A33BFB21F93F0000002E5E
:109BF0008A19A33BC14920259A837B3900000000C4
:109C0000594A2DE9F84F21F00048904506460F4685
:109C10002BDC564B0029B4BF554D564D98454FF09F
:109C2000000410DC544B984570DC4DA3D3E90023AD
:109C300014F0EEFA0022514B14F02CFFD8B130464C
:109C40003946BDE8F88F4E4B98457CDD4D4B984525
:109C500044DD013398453ED03046394640A3D3E930
:109C6000002314F087FCBDE8F88F02460B4614F081
:109C7000CFFABDE8F88F3046394612F0E7F901F027
:109C80007FF806460F4632463B463046394614F0CA
:109C9000BFFA324682468B463B463046394614F080
:109CA00069FC002280468946344B3046394614F020
:109CB000AFFA02460B464046494614F085FD02467F
:109CC0000B465046594614F0A1FA22462B4614F092
:109CD00051FCBDE8F88F2C4B9842BDD83046394630
:109CE00012F0B4F90022234B14F044FCFEF714FCEC
:109CF00006460F4602460B462046294614F03AFC1B
:109D000032463B4614F036FCBDE8F88F12F09EF95F
:109D100001F036F81D4B984506460F46B3DD00228C
:109D2000164B14F075FA02460B463046394614F0CD
:109D30004BFD32463B4614F06BFA22462B4614F09C
:109D400019FCBDE8F88F12F081F9FEF7E5FB024639
:109D50000B462046294614F00DFCBDE8F88F00BFE5
:109D60003374AC3C1F7BAC7FFFFFEF7FFFFF3540C0
:109D70000000E0BF0000E03FFFFF2F3E0000F03F8B
:109D8000412E8640CD3386407DF8B98FFFFFEF3FEF
:109D90002DE9F04F21F00048B8F1795F85B0064613
:109DA0000F4692469B466BDA14F094FE002800F0B2
:109DB000EA8032463B463046394614F0DBFB74A35A
:109DC000D3E9002304460D4614F0D4FB72A3D3E973
:109DD000002314F01DFA22462B4614F0CBFB70A38F
:109DE000D3E9002314F012FA22462B4614F0C2FBEA
:109DF0006DA3D3E9002314F00BFA22462B4614F08E
:109E0000B9FB6BA3D3E9002314F000FA22462B46DA
:109E100014F0B0FB68A3D3E9002314F0F9F922464B
:109E20002B4614F0A7FBCDE900010022664B20462B
:109E3000294614F09FFBDDE9002380468946204631
:109E4000294614F097FB524604460D465B463046C1
:109E5000394614F08FFB02460B462046294614F083
:109E6000D5F902460B464046494614F0CFF9024662
:109E70000B460020554914F0C9F905B0BDE8F08F34
:109E800002460B4614F076FB41A3D3E900230446B7
:109E90000D4614F06FFB40A3D3E9002314F0B8F98A
:109EA00022462B4614F066FB3DA3D3E9002314F0B1
:109EB000ADF922462B4614F05DFB3BA3D3E900230A
:109EC00014F0A6F922462B4614F054FB38A3D3E92C
:109ED000002314F09BF922462B4614F04BFB36A3CB
:109EE000D3E9002314F094F92B46224614F042FBE8
:109EF000374B9845CDE9000197DD364B984539DC65
:109F0000A8F500130022002030499046994614F02D
:109F10007DF9CDE9020100222B4B2046294614F0A1
:109F200029FB42464B4614F071F9DDE900238046D7
:109F300089462046294614F01DFB524604460D462C
:109F40005B463046394614F015FB02460B46204668
:109F5000294614F05BF902460B464046494614F088
:109F600055F902460B46DDE9020114F04FF905B040
:109F7000BDE8F08F9FED127B4FF000088DED027B66
:109F8000DFF85490C7E71149002005B0BDE8F08F15
:109F9000D43888BEE9FAA8BDC4B1B4BD9EEE213E56
:109FA000AD529C804F7E923E9015CB19A001FA3E97
:109FB0007751C1166CC1563F4C5555555555A53F67
:109FC000000000000000E73F0000E03F0000F03F1D
:109FD0003233D33F0000E93F0000D23F00000000D1
:109FE0002DE9F04FADF51B7D9F4CA49E9F4D54F87D
:109FF000264007942646D41E85FB0475E417C4EB5F
:10A00000A50424EAE4741D460A93631CA3EB8303AE
:10A01000013D02EBC30306932B460B940395651B8E
:10A02000F418049008911AD42C4400260027013417
:10A030000DF18808DDF8949208E059F8250014F035
:10A0400033FA0135A542E8E8020108D0002DF4DA20
:10A05000013530463946A542E8E80201F6D1079BB2
:10A06000002BC0F2DF83079B03F1010B0A9B22A99F
:10A07000DB001A4601EB03090093049B0DF5E47A1B
:10A0800019460AEBCB0B01EB0208039B002BC0F235
:10A09000F582049C4D460026002775E90223F4E86A
:10A0A000020114F067FA02460B463046394614F0B6
:10A0B000AFF8444506460F46EFD1EAE80267DA45B5
:10A0C00009F10809E1D107990098049C009101F178
:10A0D0008043013B9B0020441A1F83460EA8024484
:10A0E00003440C920D93009A9AA901EBC203002A33
:10A0F00053E9284529DD0DF5E47A0AEBC2080DF194
:10A10000340900225A4B2046294614F033FA14F041
:10A11000E1FC14F0C9F90022564B06460F4614F034
:10A1200029FA02460B462046294614F06FF814F02F
:10A13000D1FC78E9022349F8040F3946304614F07F
:10A1400067F8D04504460D46DBD1DDF8189020466F
:10A1500029464A4601F050F800224FF07F5304464A
:10A160000D4614F007FAFCF75FFD0022424B14F095
:10A1700001FA02460B462046294614F047F80D46E0
:10A18000044614F0A7FC804614F08EF90B460246F4
:10A190002946204614F03AF84B46002B06460F4657
:10A1A00040F3F980009A0EA9013AC9F1180351F859
:10A1B000225045FA03F101FA03F30EA8EB1A40F816
:10A1C0002230C9F11705884443FA05F5002D6DDDED
:10A1D000009B002B08F1010840F36F820E9C002CBD
:10A1E00040F01683009B012B40F38F820EAA0123BF
:10A1F00052F8044F002C00F08382581C0EAAC4F1C0
:10A20000807442F82340009A824219DD0EAA0EACF7
:10A2100052F820106FF07F42511A44F82010009934
:10A22000023399420CDD1046009A0EA901EB83031C
:10A2300001EB82011A68821A43F8042B8B42F9D190
:10A24000069B002B1ADD069B012B4FF0010440F00A
:10A250003C82009B5A1E0EAB0EA953F82230C3F36A
:10A26000160341F822303CE2A80F0400ABAAAA2A48
:10A270000000703E0000704100002040022D15D10A
:10A2800032463B460020924913F0C0FF06460F4677
:10A29000069A8F49002000F0AFFF02460B46304679
:10A2A000394613F0B3FF022506460F46002200236D
:10A2B0003046394614F0C6FB002800F03782009A79
:10A2C000079B501E83420FDC02F18043013B0EAA24
:10A2D0000D9C02EB8303002253F80419A34242EAC7
:10A2E0000102F9D1002A67D1079B0EAA013B52F85F
:10A2F0002330002B40F018820C9A012352F80419E5
:10A3000001330029FAD0009AD31802F1010A9A45C4
:10A3100009933DDC009B0A990B9A0B4409990AEBBF
:10A320000208994622AB08F1804803EBC9098B1853
:10A33000A59A08F1FF3802EB880872AA02EBCA0A54
:10A34000A59A02EB8303009358F8040F14F0ACF8BD
:10A35000039B002BE9E802014FF000064FF00007D5
:10A3600011DB049C4D4675E90223F4E8020114F068
:10A3700001F902460B463046394613F049FF5C4569
:10A3800006460F46EFD1009B9845EAE80267DBD10D
:10A39000099B0093A7E606D1009B0EAA013B52F849
:10A3A0002350ED1512E700224A4B14F069FB0028F8
:10A3B00040F06E81054679E70EA9039551F82030EB
:10A3C0000699CDF8248018390246009006916BB9A1
:10A3D00000F18043013B0EA800EB830353F804090E
:10A3E000013A18390028F9D000920691069A3849A6
:10A3F000002000F001FF009B002B04460D46C0F238
:10A40000F781DA0072A901EB020B06920EAA02EBA9
:10A410008306DFF8C4904FF000080BF108070436FC
:10A4200056F8040D14F040F822462B4614F0A2F81A
:10A430004B4667E9020142462046294614F09AF845
:10A440000EAB9E4204460D46EAD14AACDDF81C90A4
:10A4500004944FF0000AB9F1000FC0F22B81DFF82D
:10A460007C805D4618A1D1E9000100260027002468
:10A4700003E0544510DCF8E80201F5E8022314F08B
:10A4800079F802460B463046394613F0C1FE0134D6
:10A49000A14506460F46ECDA049B03EBCA03ABF179
:10A4A000080BC3E9006770AB9B450AF1010AD2D1E2
:10A4B000A49B049C032B00F28980DFE803F0C58E87
:10A4C0008E1100BFAFF3008000000040FB21F93F78
:10A4D0000000F03F0000E03F0000703E78F803000D
:10A4E000009B002B40F38181069A04EB020ADAE913
:10A4F000008902F1080525440DF5987B1AED027BD1
:10A5000042464B4651EC170B8DED047B13F080FE59
:10A5100006460F4602460B46DDE9040113F076FEBF
:10A5200042464B4613F074FE65E902015D45B046B4
:10A53000B9466AE90267E1D1009B012B40F35581DE
:10A54000069BE518D5E9008903F1080B04EB0B0A1B
:10A5500015ED027B42464B4651EC170B8DED007B0F
:10A5600013F056FE06460F4602460B46DDE9000193
:10A5700013F04CFE4B46424613F04AFE6AE90201D4
:10A580004EAB5345B046B94665E90267E0D10020BD
:10A59000002104EB0B0575E9022313F039FEAA45EF
:10A5A000F9D1039B002B00F00A816268E368089FE1
:10A5B0002568A4683D6002F1004203F1004301F107
:10A5C00000417A60FB60BC6038617961099B03F0EF
:10A5D00007000DF51B7DBDE8F08F069D083525446D
:10A5E0000020002175E9022313F012FEA542F9D1E3
:10A5F000039B002B00F0D280089E024601F100432D
:10A6000086E80C000B460246D4E9000113F0FEFD7B
:10A61000009B002B0BDD4CAD0124F5E8022313F069
:10A62000F7FD009B0134A342F7DA039B13B101F15C
:10A6300000431946089BC3E90201099B03F0070088
:10A640000DF51B7DBDE8F08F069D0835002000212B
:10A65000254475E9022313F0DBFDAC42F9D1039BDD
:10A6600013B101F100431946089BC3E90001099B9E
:10A6700003F007000DF51B7DBDE8F08F00260027D5
:10A68000EAE80267DA4509F108097FF4FEAC1AE549
:10A69000009B002B08F10108C8BF02253FF79EADC3
:10A6A00032463B460020614913F0B0FD02250646C4
:10A6B0000F46FBE500260027EEE6069B002B27DD74
:10A6C0000024069B012B3FF4C4AD022B09D1009B53
:10A6D0005A1E0EAB0EA953F82230C3F3150341F8EE
:10A6E0002230022D7FF4E2AD32463B4600204F4936
:10A6F00013F08CFD06460F46002C3FF4D7ADC7E59E
:10A700000099013399427FF473AD069B002BD8DC8E
:10A71000022D7FF4CBAD32463B460020434913F077
:10A7200075FD06460F46C1E50123ECE53946069F57
:10A7300003957A423046CDF8248000F05DFD00227A
:10A740003B4B04460D4614F09BF9002843D00022F1
:10A75000384B2046294613F00DFF14F0BBF906468E
:10A7600013F0A2FE0022324B13F004FF02460B4608
:10A770002046294613F04AFD14F0ACF900990B4627
:10A7800001331A4600933B46183306930B460EA935
:10A7900041F82300134641F8236027E6089B024650
:10A7A000C3E900010B46D4E9000113F02FFD009B23
:10A7B000002B3FF730AF089BC3E902013DE7D4E926
:10A7C0000067D4E90223089DC5E90401C5E90067D3
:10A7D000C5E90223FAE62946204614F07BF9009ADF
:10A7E0000EA941F8220001E64AAC00200021D8E67B
:10A7F000A49B032B3FF6EAAE01A252F823F000BF60
:10A800001FA8020017A8020017A80200E9A702006B
:10A8100001200023F2E4002000214AACE8E60020F9
:10A8200000211CE70A9BDB0000934CE40000F03F92
:10A83000000070410000703E2DE9F04F21F000460D
:10A84000B6F1795F85B004460D469046994604DA24
:10A8500014F040F9002800F0858022462B4620465F
:10A86000294613F087FE06460F4602460B46204651
:10A87000294613F07FFE41A3D3E9002382468B468D
:10A880003046394613F076FE3EA3D3E9002313F099
:10A89000BDFC32463B4613F06DFE3CA3D3E90023DA
:10A8A00013F0B6FC32463B4613F064FE39A3D3E9FD
:10A8B000002313F0ABFC32463B4613F05BFE37A39C
:10A8C000D3E9002313F0A4FC0E9BCDE900019BB358
:10A8D0000022294B4046494613F04CFEDDE9002397
:10A8E000CDE902015046594613F044FE02460B469C
:10A8F000DDE9020113F08AFC32463B4613F03AFED2
:10A9000042464B4613F082FC19A3D3E900230646C6
:10A910000F465046594613F02DFE02460B46304670
:10A92000394613F075FC02460B462046294613F0C3
:10A930006DFC05B0BDE8F08F02460B463046394647
:10A9400013F018FE0AA3D3E9002313F05FFC52466C
:10A950005B4613F00FFE22462B4613F059FC05B060
:10A96000BDE8F08F2046294605B0BDE8F08F00BF56
:10A97000495555555555C53F0000E03F7CD5CF5A48
:10A980003AD9E53DEB9C2B8AE6E55A3E7DFEB15770
:10A99000E31DC73ED561C119A0012A3FA6F81011D9
:10A9A0001111813F000000002DE9F04FBE4C21F055
:10A9B000004687B0A64282468B460F46CDE900236B
:10A9C0001BDC14F087F8002837D153461E43109B38
:10A9D0000133334300F0B381109B012B00F0C88199
:10A9E00052465B460020B14913F0EEFE04460D4688
:10A9F0002046294607B0BDE8F08FAD4B9E421CDDD6
:10AA00000029C0F2A98152465B4687A1D1E9000125
:10AA100013F0FCFBDDE9002304460D4684A1D1E9D7
:10AA2000000113F0F3FB9FED847B22462B468DED56
:10AA3000007B13F0EDFB82468B4652465B46504648
:10AA4000594613F097FD02460B468046894613F09F
:10AA500091FD424604460D464B465046594613F07A
:10AA600089FD77A3D3E90023CDE9020120462946D9
:10AA700013F080FD74A3D3E9002313F0C9FB224631
:10AA80002B4613F077FD72A3D3E9002313F0C0FB2C
:10AA900022462B4613F06EFD6FA3D3E9002313F07B
:10AAA000B7FB22462B4613F065FD6DA3D3E90023C7
:10AAB00013F0AEFB22462B4613F05CFD6AA3D3E9EC
:10AAC000002313F0A5FB42464B4613F053FD68A349
:10AAD000D3E90023CDE904012046294613F04AFDBD
:10AAE00065A3D3E9002313F093FB22462B4613F012
:10AAF00041FD63A3D3E9002313F08AFB22462B46D2
:10AB000013F038FD60A3D3E9002313F081FB224644
:10AB10002B4613F02FFD5EA3D3E9002313F078FB3F
:10AB200022462B4613F026FD5BA3D3E9002313F046
:10AB30006FFB02460B46DDE9040113F069FBDDE91A
:10AB4000022313F017FDDDE9004522462B4613F0E2
:10AB50005FFB42464B4613F00DFD02460B46204676
:10AB6000294613F055FB4EA3D3E9002304460D46B6
:10AB7000DDE9020113F0FEFC22462B4613F048FBF0
:10AB80000B460246804689465046594613F040FB24
:10AB9000474B9E4204460D4600F38E80109B012BCE
:10ABA0003BD002460B460020404913F00DFE002426
:10ABB00006460F462046294652465B46CDE90067C9
:10ABC000CDE90201009413F021FBDDE900AB024660
:10ABD0000B464046494613F019FB52465B4613F0BC
:10ABE000C9FC524604460D465B46DDE9020113F0FE
:10ABF000C1FC00222F4B13F00BFB02460B462046F4
:10AC0000294613F005FB32463B4613F0B3FC52468F
:10AC10005B4613F0FDFA04460D462046294607B070
:10AC2000BDE8F08FAFF30080182D4454FB21E93FBD
:10AC3000075C143326A6813C0000000000000000E1
:10AC4000D47ABF74702AFB3EE9A7F0320FB8123FE6
:10AC500068108D1AF726303F1583E0FEC8DB573F9A
:10AC600093846EE9E326823FFE41B31BBAA1AB3F5A
:10AC7000735360DBCB75F3BEA69237A0887E143F7A
:10AC80000165F2F2D844433F280356C9226D6D3F57
:10AC900037D60684F464963F7AFE10111111C13F35
:10ACA000635555555555D53FFFFF2F3E0000F0BF6A
:10ACB0002794E53F0000F03F109813F0F5FB224683
:10ACC000CDE900012B462046294613F053FCDDE96F
:10ACD0000023CDE902012046294613F099FA0246E5
:10ACE0000B46DDE9020113F06FFD42464B4613F0BF
:10ACF0008DFA02460B465046594613F087FA024633
:10AD00000B4613F085FA02460B46DDE9000113F00D
:10AD10007DFA0446B81700F00200C0F101000D46AC
:10AD200013F0C2FB02460B462046294613F022FCD4
:10AD300004460D462046294607B0BDE8F08F504630
:10AD4000594611F083F902460B4600200A4913F0D8
:10AD50003BFD04460D4660E7DDE9004501F1004199
:10AD6000224605F1004382468B46CDE900234AE6A0
:10AD700054465D4651E700BF0000F03F0000000070
:10AD80002DE9F04FD24A21F00043934285B082462C
:10AD90008B460C462DD9CF4A93421AD8002C80F20C
:10ADA0001681B5A3D3E900235046594613F030FA73
:10ADB0000022002313F050FEC0B9B1A3D3E9002351
:10ADC0005046594613F0D6FB02460B460020C249B6
:10ADD00008E1C24A934240F2D0800346C1F3130215
:10ADE000134340F0F481002980F2C4800020BC4964
:10ADF000C0E0BC4A934200F22981BB4A934240F230
:10AE0000DE80002301930022B84B5046594613F0D0
:10AE1000B1FB06460F4602460B465046594613F014
:10AE2000A9FB99A3D3E9002304460D4613F0A2FB26
:10AE300097A3D3E9002313F0EBF922462B4613F036
:10AE400099FB95A3D3E9002313F0E0F922462B46A2
:10AE500013F090FB92A3D3E9002313F0D9F9224613
:10AE60002B4613F087FB90A3D3E9002313F0CEF910
:10AE700022462B4613F07EFB00229D4B13F0C8F9AF
:10AE80008046894602460B463046394613F072FB2F
:10AE900002460B460020974913F0B8F906460246D1
:10AEA0000B460F464046494613F0B0F932468046FD
:10AEB00089463B465046594613F05CFB02460B461A
:10AEC00000208D4913F0A2F902460B464046494640
:10AED00013F07AFC22462B4613F04CFB019E0246EF
:10AEE0000B46002E38D0DDE9026732463B4613F0B0
:10AEF0008DF952465B4613F03DFB32463B4613F05C
:10AF000085F92B46224613F081F9019B0133064651
:10AF10000F4600F00F81019B012B00F0F180019B97
:10AF20000133392B39D8019B132B40F31281019C3B
:10AF3000C4F57F75033500222B0513F069F902462D
:10AF40000B465046594613F061F90022684B13F046
:10AF50005FF901EB04510DE05046594613F00AFB2E
:10AF600022462B4613F052F902460B4650465946EC
:10AF700013F04CF905B0BDE8F08F4DA3D3E90023E1
:10AF800013F088FD00283FF409AF4BA3D3E9002359
:10AF90001046194613F0EEFAECE752465B4613F002
:10AFA00035F902460B460020514913F02FF9019A5A
:10AFB0004F4B01EB0251002213F028F9DAE73EA3D0
:10AFC000D3E9002313F024F902460B46CAE72CA369
:10AFD000D3E900235046594613F0CCFA0B464349B7
:10AFE0000246002013F014F913F074FD019013F0E1
:10AFF0005BFA33A3D3E9002306460F4613F0BAFAEF
:10B0000002460B465046594613F000F92EA3D3E9E9
:10B010000023804689463046394613F0ABFA06468F
:10B020000F4632463B464046494613F0EFF802468B
:10B030000B4682468B464046494613F0E7F83246B7
:10B040003B4613F0E3F8CDE90201DCE62B4A9342DC
:10B0500000F2958000291AA3D3E90023C0F2AC8046
:10B0600013F0D4F8012380468946019316A7D7E947
:10B070000067D6E7AFF3008059F3F8C21F6EA50151
:10B08000FE822B654715F73F2DC3096EB7FD8ABEBB
:10B090003952E686CACFD03EB7DBAA9E19CE143FFE
:10B0A0008555FE19A0015A3FF41011111111A13F4D
:10B0B000EF39FAFE422E86409C7500883CE4377ECC
:10B0C0000000E0FE422EE63F763C7935EF39EA3D5E
:10B0D00079684340412E86400000E0BFFFFFEF7FCC
:10B0E0000000F0BF422ED63FFFFF8F3C0000E03F44
:10B0F0000000F03F0000084000001840B1A2F03FFF
:10B100000022394B5046594613F0A6FC002844D083
:10B11000504659460022354B13F07AF802460B464A
:10B120003046394613F072F800224FF0404313F0D6
:10B1300021FA1FE702460B465046594613F066F8BF
:10B1400000222A4B13F016FA0022284B13F05EF867
:10B1500010E7019C4FF400132341C3F17F5752467F
:10B160005B4613F053F8002607F5401702460B46DE
:10B170003046394613F04AF801EB0451FAE616A3BB
:10B18000D3E9002313F0F6F9002C02460B464FF0EA
:10B190000000FFF61CAE154924E732463B465046F8
:10B1A000594613F033F802460B4613F031F80022EB
:10B1B0000F4B13F02DF8DDE613F02AF84FF0FF33B4
:10B1C00080468946019306A7D7E9006729E702462A
:10B1D0000B4613F01DF8CDE6FE822B654715F73FB1
:10B1E000763C7935EF39EABD0000D0BF0000E03F82
:10B1F0000000F03F00000000F8B5C1F30A56044615
:10B200000D460B4617460EBB21F00043034386460E
:10B2100025D00022344B13F0ADF9344A974204464E
:10B220000D460B462ADBC1F30A56363E3E4440F239
:10B23000FE72964228DC002E12DD23F0FF4323F439
:10B24000E00343EA065520462946F8BD40F2FF7266
:10B250009642EBD102460B4612F0DAFFF8BDF8BD7C
:10B2600016F1350F1DDA4CF250339F4222462B4621
:10B2700025DC19A1D1E9000112F03AFF16A3D3E9A8
:10B28000002313F077F9F8BD22462B4614A1D1E92B
:10B29000000112F02DFF12A3D3E9002313F06AF985
:10B2A000F8BD23F0FF4323F4E003363643EA0655A6
:10B2B0002046294600220E4B13F05CF9F8BD08A188
:10B2C000D1E9000112F014FF05A3D3E9002313F024
:10B2D00051F9F8BDAFF3008059F3F8C21F6EA50114
:10B2E0009C7500883CE4377E00005043B03CFFFF73
:10B2F0000000903C10B5054C237833B9044B13B1D2
:10B300000448AFF300800123237010BD1085002096
:10B3100000000000001104000C4B43B10C480D4923
:10B3200010B5AFF300800C48036823B910BD0A487C
:10B33000036833B97047094B002BF7D0BDE81040C4
:10B340001847064B002BF5D0184700BF000000003F
:10B350000011040014850020148200200000000069
:10B36000154B002B08BF134B9D46A3F5803A0021D7
:10B370008B460F461348144A121A08F0A5FD0F4BCE
:10B38000002B00D098470E4B002B00D09847002090
:10B39000002104000D000D48002802D00C48AFF336
:10B3A000008012F0DBFE2000290005F0B7F912F052
:10B3B000C1FE00BF000008000000042000000000E3
:10B3C0000000000000840020848C002000000000A9
:10B3D0000000000070B504460E4600F0D1F888B1B8
:10B3E0000368DB6A05469847082C0CD0A4F10903D2
:10B3F000012B14D93246214610230D20BDE87040A0
:10B4000004F0BCB870BD2B6828465B6A98470228D8
:10B41000F0DC2B6828461B6A04219847EAE72B6872
:10B4200028465B6A98470528E4DC2B6828461B6A97
:10B4300008219847DEE700BF30B52DED028B83B0C1
:10B44000054600F09DF8044640B10368DB6A984762
:10B45000032D50D8DFE805F0373F470801900198E9
:10B4600003B0BDEC028B30BD20460CF00DF907EEA9
:10B47000900A2046F8EEE78A0CF016F907EE900ADB
:10B480002046B8EEE78A0CF01FF968EE087A07EE5E
:10B49000100AE8EEA87AB8EEC77AE7EE077AF5EE7A
:10B4A000407AF1EE10FAB1EEE78A03D517EE900A72
:10B4B00011F092FBFDEEC87ACDED017A019803B050
:10B4C000BDEC028B30BD204603B0BDEC028BBDE865
:10B4D00030400CF0D9B8204603B0BDEC028BBDE87B
:10B4E00030400CF0E1B8204603B0BDEC028BBDE863
:10B4F00030400CF0E9B800230193B0E738B50546B9
:10B5000000F03EF858B10368DB6A0446984745B13D
:10B51000012D04D12046BDE83840FBF79DB800203E
:10B5200038BD2046BDE83840FBF776B810B5044674
:10B5300000F026F828B1036821461B6ABDE81040D8
:10B54000184710BD0048704716FCFFFF704700BF4A
:10B5500010B5034B036004460BF076FE204610BD89
:10B560001806040010B5054B036004460BF06CFE92
:10B57000204613F041FD204610BD00BF1806040010
:10B580002DE9F043C04C236885B01BB1986805B025
:10B59000BDE8F0834FF0FF31012001F0FFFCC0B2A5
:10B5A00004F03CFB002800F0ED800C2013F026FD99
:10B5B00003210646512001F0F1FCDFF8FCE2B34B19
:10B5C000054605F00F07C5F3031815F4807518BF7D
:10B5D0007346AF48394642460BF034F82A1C18BF70
:10B5E00001223946434630460EF0AAF90023A94805
:10B5F000B3600BF027F84FF0FF31032001F0CEFCD1
:10B60000C0B204F00BFB4FF0FF310546022001F001
:10B61000C5FCC0B204F002FB002D00F09A800028A7
:10B6200000F097800146284604F08AF80746002873
:10B6300000F0A4804FF0FF31462001F0AFFC32282B
:10B6400080462BD028DD382869D068283FD14FF0BC
:10B65000FF31012001F0A2FCC0B204F0DFFA814604
:10B660004C2013F0CBFC0523054601934A46CDF848
:10B670000080394633460DF0A5F82846B0600368CF
:10B680009B6A9847B0680368DB6A984782480AF06B
:10B69000D9FF2660B0687AE7302818D14FF0FF3123
:10B6A000012001F07BFCC0B204F0B8FA81464C20C6
:10B6B00013F0A4FC1FFA88F1054605234A460091C1
:10B6C0000193394633460CF05FFE2846D6E73A68C8
:10B6D0000125002301950095D2F82080B3600F2248
:10B6E0000DF10F0332213846C047002856D14FF0E4
:10B6F0003208414669480AF0A5FF4FF0FF310120AA
:10B7000001F04CFCC0B204F089FA81464C2013F0E1
:10B7100075FC052305464A46CDF80080D0E74FF07A
:10B72000FF31012001F03AFCC0B204F077FA814603
:10B73000442013F063FC052305464A46CDF80080FB
:10B740003946019333460CF095FF554B2B60284644
:10B7500094E754480AF076FF4FF0FF31192001F0CA
:10B760001DFCC0B204F05AFA4FF0FF310546182014
:10B7700001F014FCC0B204F051FA53E74A480AF051
:10B7800061FF86E74FF0FF31032001F007FCC0B2F4
:10B7900004F044FA00287FF408AFF8E63B6801950E
:10B7A0000095D3F820800F220DF10F033021384689
:10B7B000C04718B94FF0300841469BE73B680195F8
:10B7C0000095D3F820800D220DF10F033821384663
:10B7D000C047C0B9382131480AF034FF4FF0FF317B
:10B7E000284601F0DBFBC0B204F018FA8046442082
:10B7F00013F004FC4FF0050E382305464246394647
:10B800008DE808409EE73A6801950095D2F82080BF
:10B810000DF10F03752268213846C047E0B9682151
:10B820001E480AF00FFF4FF0FF31284601F0B6FB2B
:10B83000C0B204F0F3F980464C2013F0DFFB4FF068
:10B84000050E682305468DE80840424639463346D2
:10B850000CF0B8FF284611E714480AF0F3FEB06870
:10B8600000287FF40CAF4FF0FF31032001F096FB6E
:10B87000C0B204F0D3F918B10D480AF0E3FE08E7AE
:10B880000C480AF0DFFE04E72C85002004F90300D1
:10B890000CF903002CF90300C4F90300E8F90300D4
:10B8A000C8F803003CF9030050F90300D4F9030081
:10B8B00068F90300A4F90300FCF8030008B501F0DF
:10B8C0009FFCFBF76DFCBDE8084001F0FDB900BF2F
:10B8D00008B501F095FCFBF7D3FCBDE8084001F08A
:10B8E000F3B900BF08B501F08BFC10F025FCBDE8F2
:10B8F000084001F0E9B900BF08B501F081FC11F082
:10B900002DF8BDE8084001F0DFB900BF08B501F02F
:10B9100077FCFBF755FCBDE8084001F0D5B900BF46
:10B9200008B501F06DFC10F045FEBDE8084001F0DF
:10B93000CBB900BF08B501F063FCFAF7ADFEBDE876
:10B94000084001F0C1B900BF08B501F059FC10F082
:10B9500085FDBDE8084001F0B7B900BF70B5049E91
:10B9600096420C4628DB15466BB1002A00EB02011B
:10B9700007DD2046A21811F8013D00F8013B904276
:10B98000F9D1002070BD042A0FD0022A02D110F094
:10B99000010306D001462A46204607F0A5F80020FC
:10B9A00070BD02880A80184670BD10F00303F1D103
:10B9B00002680A60184670BD0846002108F084FA43
:10B9C0004FF0FF3070BD00BF0830704740B1002914
:10B9D00005DB4368994202DA0844007A7047002088
:10B9E000704700BF30B1002904DB43689942BCBFF7
:10B9F00040180272704700BF40B1002905DB436860
:10BA0000994202DA0844007A70470020704700BF6C
:10BA1000830705D120B1030F0CBF01200020704720
:10BA20000120704730B1002904DB43689942BCBF54
:10BA300040180272704700BF002B23DB002921DB76
:10BA400070B54668B1421ADC5568761A1446EA1A8F
:10BA5000B242A8BF3246002A11DB84420D4607D00D
:10BA6000083408300844E11807F03EF8002070BDA3
:10BA70000834E118601913F0FBFA002070BD4FF094
:10BA8000FF3070BD4FF0FF30704700BF4068704717
:10BA900010B4141E10DB426894420DDC33EA230319
:10BAA00028BF1346121B08309A422044A8BF1A46EA
:10BAB0005DF8044B08F008BA5DF8044B704700BF0E
:10BAC00043688B4210B400F108041846A8BF08462A
:10BAD00032EA220128BF19461B1A99422044A8BF06
