:1000000000000220E1620100096301000B630100AE
:100010000D6301000F630100116301000000000087
:100020000000000000000000000000001363010059
:10003000156301000000000017630100196301004F
:100040001B6301001B630100816101004561010028
:10005000596101001B6301005D520100316901001B
:10006000695D0100715D0100795D01001B630100A4
:100070001B6301001B6301001B6301001B63010084
:100080001B6301001B6301001B6301001B63010074
:100090001B6301001B6301001B6301001B63010064
:1000A0001B6301001B630100815D0100895D01008C
:1000B0001B6301001B630100000000000000000042
:1000C0001B6301001B6301001B6301006D610100E4
:1000D0001B6301001B6301001B6301001B63010024
:1000E000A961010000000000000000000000000005
:1000F000000000001B63010000000000956101008A
:1001000000000000000000000000000000000000EF
:1001100000000000000000000000000000000000DF
:1001200000000000000000000000000000000000CF
:1001300000000000000000000000000000000000BF
:1001400000000000000000000000000000000000AF
:10015000000000000000000000000000000000009F
:10016000000000000000000000000000000000008F
:10017000000000000000000000000000000000007F
:10018000000000000000000000000000000000006F
:10019000000000000000000000000000000000005F
:1001A000000000000000000000000000000000004F
:1001B000000000000000000000000000000000003F
:1001C000000000000000000000000000000000002F
:1001D000000000000000000000000000000000001F
:1001E000000000000000000000000000000000000F
:1001F00000000000000000000000000000000000FF
:100200007CB0EE877CB0EE87FF00FF00FF00FF00B0
:10021000FF00FF00FF00FF00FF00FF00FF00FF00E6
:10022000FF00FF00FF00FF00FF00FF00FF00FF00D6
:10023000FF00FF00FF00FF002DE9F04F85B00391A4
:100240000778A7F10903042B044607F07F0200F1A9
:100250000100F5D9202AF3D02B2F04BF677804467C
:100260002D2F72D09FED427B8DED007B4FF000086B
:100270004FF000098FB34FF0000E4FF0000ADFF887
:1002800000B1754619E019F091F98046894630466B
:1002900019F026F942464B4618F0D6FF52468046E2
:1002A00089465B46DDE9000135B319F0A9FACDE9CD
:1002B0000001AE4614F8017F7FB1A7F13006092E88
:1002C00052465B4640464946DDD9C5B92E2F16D168
:1002D00014F8017F0125002FEFD142464B46DDE99E
:1002E000000119F063F980468946039B4046494660
:1002F0001C6005B0BDE8F08F4FF0010EDAE7BEF1EB
:10030000000F29D042464B46DDE9000119F04EF9B5
:1003100007F0DF07452F80468946E6D10399601C28
:100320000A2218F075FF16490246002019F09EFCBB
:1003300002460B464046494619F038F98046894640
:100340004046494605B0BDE8F08F9FED0B7B6778CE
:100350008DED007B013489E7DFF828904FF000082D
:100360004046494605B0BDE8F08F00BFAFF30080BE
:10037000000000000000F03F000000000000F0BF9F
:10038000000024400000F87F2DE9F84F16460023B6
:10039000002204460D4619F07BFB002840F09D80AA
:1003A000002200232046294619F068FB28B130229C
:1003B000002332707370BDE8F88F2046294617F08D
:1003C000F7FB19F0A3FB7BA3D3E900238146294661
:1003D000204619F05DFB002800F08680B9F1000F7F
:1003E000C0F2BE804A4600206F4919F03FFC024629
:1003F0000B462046294619F003FA04460D4666A12D
:10040000D1E9000101274FF0000822462B4619F0E0
:10041000CDF80022654B18F017FF19F063FC002F90
:10042000CC464FF0FF3AC1464FF0000840F38580BC
:10043000DFF888E15E4C0122AEF1700945F6F32544
:100440004FF02E0BA94208BFA0424FF0300309D352
:10045000001B61EB0501A94208BFA04203F10103A3
:10046000F6D2DBB2337050EA010306F1010409D180
:10047000BA4210DACE4502F101020CD026467EE8DF
:100480000245DFE7BA4204BF86F801B0B41CCE458E
:1004900002F10102F2D1B8F1000F0DD02246302155
:1004A00002F8011BC2F1010353442344002BF7DC83
:1004B0002AEAEA7301331C44BCF1010F4CD06523D6
:1004C000BCF1000F2370C5BF2B236370611CA11CFE
:1004D0006046BDE8F84F10F019B905F100431D461C
:1004E0002D23337001365BE72DA3D3E9002320468B
:1004F000294619F0EBFA00287FF470AFB9F10E0F1E
:1005000009F101073DDDA9F10E0842460020264908
:1005100019F0ACFB02460B462046294619F070F94B
:100520000022224B18F090FE19F0DCFB002FA9F1FD
:100530000F0A4FF0010C3FF77BAF334630222E24D9
:1005400003F8022B74707FEA090618D01E4403F8E2
:10055000012BB342FBD16BE700232370BDE8F88F7A
:10056000C9F100020020104919F080FB02460B4639
:100570002046294619F01AF804460D463FE71E4664
:1005800056E7C9F10E0200200749C84619F06EFB74
:100590004FF0010939E700BF0000901EC4BCD642ED
:1005A00050EFE2D6E41A4B44000024400000E03F44
:1005B00000407A108DEDB5A0F7C6B03E00A801004E
:1005C00070B54FF0FF3006F035FA04466FF07F400B
:1005D00006F030FA0646204618F072FF00220C4B57
:1005E00018F0E4FF044630460D4618F069FF06A3F4
:1005F000D3E9002319F004F902460B4620462946A8
:1006000018F022FE70BD00BF0000E0DFFFFF6F4367
:100610000000F03D000000002DE9F04F2DED028BB1
:10062000044683B0C06818F05BFF804620698946A5
:1006300018F056FF824660698B4618F051FF02465B
:1006400001F1004306460F464046494617F05CF963
:1006500019F0A4FAE062054617F00AF8019028465E
:1006600016F0BAFF019B0546184618F04BFF4246AC
:100670004B4618F09BFF80462846894618F042FFFB
:1006800032463B4618F092FF02460B46404649462A
:1006900018F0D8FD02460B465046594617F034F97B
:1006A00019F07CFA002208EE100A00233046394681
:1006B00019F00CFA28B3B5EEC08AF1EE10FA1CDD81
:1006C00011A7D7E9006718EE100A18F01BFF0246C1
:1006D0000B463046394618F0B5FD32463B4618F019
:1006E000B3FD19F05BFAA062E38843F00203E380F4
:1006F00003B0BDEC028BBDE8F08F05A7D7E900671A
:10070000E1E784ED0A8AEFE7EA2E4454FB21F93F42
:10071000EA2E4454FB21F9BF08B511F0E5FADFEDEC
:100720000C7A07EE100A67EE277A17EE900A18F097
:10073000E9FE05A3D3E9002319F062F819F0E6F900
:1007400008BD00BFAFF30080EA2E4454FB211940DE
:100750000000B4430000000008B511F0D9FADFED45
:100760000C7A07EE100A67EE277A17EE900A18F057
:10077000C9FE05A3D3E9002319F042F819F0C6F920
:1007800008BD00BFAFF30080EA2E4454FB2119409E
:100790000000B44300000000494A21F000439342A6
:1007A0002DE9704304460D464BDC464A93420E4603
:1007B0000EDC3FA3D3E9002318F046FD0022424B94
:1007C00019F084F900284CD020462946BDE87083F2
:1007D0003E4A93423BDCB3F1804F42DD16F0E2FD2E
:1007E0002246804689462B462046294618F0DEFEE2
:1007F0000022354B18F028FD17F098FC02460B46F6
:100800004046494618F020FD02460B4600202E497E
:1008100018F0F6FF424604460D464B464046494610
:1008200018F012FD02460B462046294618F00CFD32
:1008300002F06AF8002EC9DC01F100431946BDE858
:10084000708302460B4618F0FFFCBDE8708316F07B
:10085000A9FD02F059F818A3D3E9002318F0F4FC1D
:10086000E8E722462B462046294618F09FFE8046A0
:1008700089462046294616F095FD002204460D467D
:10088000114B4046494618F0DFFC17F04FFC0022A0
:100890000D4B18F0D9FC02460B464046494618F06D
:1008A000AFFF22462B4618F0CFFC00F0C5FAC1E797
:1008B0009C7500883CE4377EEF39FAFE422EE63F15
:1008C000FFFFEF7FFFFF2F3E0000F03F0000B04131
:1008D0002DE9F84FC44B21F000469E4204460D46D8
:1008E0008A460EDDC14B9E4200F3AC8000F0A7802B
:1008F000BAF1000F40F3EA809FA1D1E90001BDE801
:10090000F88FBB4B9E4200F3B580A3F1DE739E428D
:1009100040F3A0804FF0FF3B22462B46204629465D
:1009200018F044FE02460B468046894618F03EFE0B
:1009300093A3D3E9002306460F4618F037FE92A38F
:10094000D3E9002318F080FC32463B4618F02EFE17
:100950008FA3D3E9002318F077FC32463B4618F00A
:1009600025FE8DA3D3E9002318F06EFC32463B46EA
:1009700018F01CFE8AA3D3E9002318F065FC324668
:100980003B4618F013FE88A3D3E9002318F05CFC63
:1009900042464B4618F00AFE85A3D3E90023804661
:1009A00089463046394618F001FE83A3D3E9002377
:1009B00018F048FC32463B4618F0F8FD80A3D3E916
:1009C000002318F03FFC32463B4618F0EFFD7EA3B3
:1009D000D3E9002318F036FC32463B4618F0E6FD1A
:1009E0007BA3D3E9002318F02DFC32463B4618F0D8
:1009F000DDFDBBF1FF3F02460B466CD04046494649
:100A000018F022FC22462B4618F0D0FD794E7A4B86
:100A10004FEACB0B5E449B44DBE9002318F012FC49
:100A200022462B4618F00EFC02460B46D6E9000182
:100A300018F008FCBAF1000F43DBBDE8F88F00287E
:100A40003FF456AF22462B462046294618F0FCFBC1
:100A5000BDE8F88F60A3D3E9002318F0F5FB00226E
:100A6000664B19F033F800283FF454AF204629466E
:100A7000BDE8F88F16F096FC614B9E4204460D4689
:100A800039DCA3F550239E425EDC02460B4618F08B
:100A9000DBFB0022594B18F0D5FB002206460F461F
:100AA0004FF080432046294618F0CEFB02460B4605
:100AB0003046394618F0A4FE4FF0000B04460D46B0
:100AC0002AE701F100431946BDE8F88F44A1D1E9B6
:100AD0000001BDE8F88F4046494618F0B5FB2246B4
:100AE0002B4618F063FD02460B462046294618F0B7
:100AF000A9FBBDE8F88F434B9E421ADC0022424B13
:100B000018F0A0FB002206460F463F4B2046294620
:100B100018F04CFD0022394B18F096FB02460B46AC
:100B20003046394618F06CFE4FF0020B04460D4675
:100B3000F2E602460B460020344918F061FE4FF001
:100B4000030B04460D46E7E600222C4B18F07AFB17
:100B5000002206460F46294B2046294618F074FB12
:100B600002460B463046394618F04AFE4FF0010B5C
:100B700004460D46D0E600BF182D4454FB21F93F32
:100B800011DA22E33AAD903FEB0D76244B7BA93F7F
:100B9000513DD0A0660DB13F6E204CC5CD45B73F4D
:100BA000FF8300922449C23F0D5555555555D53FF9
:100BB0002F6C6A2C44B4A2BF9AFDDE522DDEAD3FED
:100BC0006D9A74AFF2B0B33F711623FEC671BC3F8D
:100BD000C4EB98999999C93F9C7500883CE4377E8D
:100BE000182D4454FB21F9BFFFFF0F440000F07F94
:100BF000FFFFDB3F10A8010030A801000000F03F1C
:100C0000FFFFF23FFF7F03400000F83F0000F0BF0E
:100C10002DE9F843C1F30A59A9F2FF35132D024615
:100C20000B460C4606468846074622DC002D50DB64
:100C3000DFF8F09049FA05F901EA090E5EEA0606C6
:100C40001CD036A3D3E9002318F0FEFA00220023BB
:100C500018F03CFF48B1002C04DD4FF4801343FA38
:100C600005F5A84428EA0904002721463846BDE8CE
:100C7000F883332D06DDB5F5806F3DD0104619465B
:100C8000BDE8F883A9F213494FF0FF3E2EFA09F9A7
:100C900010EA090FF2D021A3D3E9002318F0D4FA07
:100CA0000022002318F012FF0028DED0002C09DDFE
:100CB000142D2BD00127C5F1340507FA05F5AE191F
:100CC00028BFB844444626EA090721463846BDE80D
:100CD000F88312A3D3E9002318F0B6FA0022002308
:100CE00018F0F4FE0028C0D0002C0BDB54EA0607F5
:100CF00006D00027084CB8E718F0A6FABDE8F8833C
:100D00003C46B2E700274FF00044AEE704F101088B
:100D1000D8E700BFAFF300800000F03F9C7500886B
:100D20003CE4377EFFFF0F002DE9F041C1F30A5785
:100D3000A7F2FF35132D02460B460C4688460646A1
:100D40001CDC002D3FDB3A4F2F41864601EA070CA1
:100D50005CEA0E0E17D034A3D3E9002318F074FA1E
:100D60000022002318F0B2FE20B1002C3FDB28EA5D
:100D70000704002621463046BDE8F081332D06DD0C
:100D8000B5F5806F2FD010461946BDE8F081A7F267
:100D900013474FF0FF3E2EFA07F73842F3D022A355
:100DA000D3E9002318F050FA0022002318F08EFE39
:100DB0000028DFD0002C20DB444626EA0706214627
:100DC0003046BDE8F08118A3D3E9002318F03CFABF
:100DD0000022002318F07AFE0028CBD0002C17DB6D
:100DE00000263446C6E718F02FFABDE8F0814FF42C
:100DF000801343FA05F5A844B9E7142D10D0012358
:100E0000C5F1340503FA05F5AE1928BF9844D3E7B8
:100E100024F00042074B324318BF1C460026A9E7C6
:100E200004F10108C8E700BF9C7500883CE4377EE8
:100E3000FFFF0F000000F0BF2DE9F04FD84B9942A3
:100E400087B0804689460E4613DCD64B21F000441D
:100E50009C4218DD0022D44B18F010FE002879D0F7
:100E6000002200230020D14918F0CAFC07B0BDE8D9
:100E7000F08FCF4B99422FDD42464B4618F0E4F9F4
:100E800007B0BDE8F08FCB4B9C4270DDCA4B1E44CF
:100E90009E427ED80022C94B4046494618F0D4F9FC
:100EA0004FEA215AAAF2FF3ABAF1000F04460D4662
:100EB0000E4640F3DE8142464B4618F0C3F9024627
:100EC0000B460020BD4918F0BDF922462B4618F00C
:100ED00097FCCDE902010BE0B94B9E42DADD9FEDB4
:100EE0009A7B8DED027B4FEA265A4446AAF2FF3ADE
:100EF000B44BC6F313069E4246F07F5500F3E780DD
:100F000045F44015204629460022AC4B18F09AF9CA
:100F1000002204460D46AC4B18F048FB22462B46F7
:100F200018F044FBA046CDE90401A946CDE9000133
:100F3000002E3AD1002200232046294618F09EFDBB
:100F4000002800F0CE80BAF1000F40F0748100203C
:100F5000002195E742464B464046314618F072F96B
:100F600002460B4618F04CFC07B0BDE8F08F00229B
:100F7000964B18F069F90022002318F0A7FD00280D
:100F800000F0CC80924B9C4200F3C880404649461A
:100F900076E700228C4B18F009FB42464B4618F0CE
:100FA00005FBCDE900014FF0000A00224FF080431D
:100FB0004046494618F048F902460B464046494625
:100FC00018F01EFC02460B4606460F4618F0EEFAD5
:100FD0005FA3D3E9002304460D4618F0E7FA5EA3A9
:100FE000D3E9002318F030F922462B4618F0DEFA38
:100FF0005BA3D3E9002318F027F922462B4618F00B
:10100000D5FA59A3D3E9002318F01EF922462B463E
:1010100018F0CCFA56A3D3E9002318F015F92246AC
:101020002B4618F0C3FA54A3D3E9002318F00CF9A7
:1010300022462B4618F0BAFA51A3D3E9002318F040
:1010400003F922462B4618F0B1FA04460D46BAF1D0
:10105000000F00F0BF80504618F042FA4AA3D3E9CF
:10106000002382468B4618F0A1FADDE90023CDE982
:1010700004012046294618F0E7F832463B4618F0AE
:1010800095FA43A3D3E9002304460D46504659463A
:1010900018F08CFADDE9022318F0D6F802460B4668
:1010A0002046294618F0D0F802460B46DDE900013B
:1010B00018F0C8F842464B4618F0C4F802460B46F2
:1010C000DDE9040118F0BEF807B0BDE8F08F45F483
:1010D0000015C6F5801620462946B6100AF1010A09
:1010E00012E72DA3D3E900232046294618F05EFA23
:1010F00002460B460020314918F0A4F8DDE904232C
:1011000018F054FA06460F46BAF1000F73D10246A2
:101110000B462046294618F095F8B1E642464B4664
:101120004046494618F042FA0022274B18F03EFA92
:1011300002460B464046494618F084F807B0BDE821
:10114000F08F00BFAFF3008000000000000000003F
:1011500044523EDF12F1C23F9FC678D0099AC33F86
:10116000DE03CB966446C73FAF788E1DC571CC3F7A
:10117000599322942449D23F04FA97999999D93FD7
:10118000935555555555E53F0000E0FE422EE63F8C
:10119000763C7935EF39EA3D555555555555E53F7E
:1011A0007982DA3FFFFFEF3F0000F0BF000050C33D
:1011B000FFFFEF7FFFFF1F3E3C412D400000F03F4F
:1011C000FFFF3F439DA006000000E03F00005043AA
:1011D000FFFF8F3CDDE9004522462B4618F034F82E
:1011E00032463B4618F0E2F902460B4620462946B5
:1011F00018F028F89CE7504618F072F923A3D3E9B9
:10120000002382468B4618F0D1F922A3D3E90023AC
:10121000804689465046594618F0C8F9DDE9022350
:1012200018F012F802460B463046394618F00AF814
:1012300022462B46DCE7504618F052F915A3D3E9B5
:10124000002306460F4618F0B1F9DDE9022317F036
:10125000FBFF0EA3D3E9002304460D463046394672
:1012600018F0A4F902460B462046294617F0ECFF79
:1012700006E60022044B17F0E5FF02460B46404607
:10128000494617F0DFFF20E60000F03F0000E0FED7
:10129000422EE63F763C7935EF39EA3D000000000A
:1012A00008B516F005FC04A3D3E9002318F0A8FA4A
:1012B00008BD00BFAFF30080EF39FAFE422EE63FD3
:1012C0002DE9F043DFF8B4808BB004460D4601F001
:1012D000F3F898F90030013306460F462BD022462A
:1012E0002B462046294618F0FBFB814618BB2046BA
:1012F000294616F057F81FA3D3E9002318F0E6FBA0
:10130000C8B1194A98F90030CDF820900321CDE9F1
:101310000445CDE902458DE806008BB9134B4FF02B
:101320006042CDE90623684617F08EFD70B1089B38
:101330009BB9DDE90667304639460BB0BDE8F0835E
:101340000B490020022BCDE90601ECD117F008FF74
:1013500022230360089B002BEBD017F001FF089BB2
:101360000360E6E7AFF300809CBA0100FFFFEF47A0
:101370000000F07F7DF8B98FCE338640FB0100205E
:101380002DE9F043DFF8E4808BB004460D4601F010
:1013900043F998F90030013306460F4633D0204612
:1013A000294617F04BFD70B32CA3D3E90023204648
:1013B000294618F08BFB814650BB2AA3D3E90023B2
:1013C0002046294618F064FBE8B198F90030204A1D
:1013D000CDF82090002600270421022BCDE90445FA
:1013E000CDE90245CDE906678DE8060029D06846BB
:1013F00017F02AFD28B3089B1BB117F0B1FE089B1C
:101400000360DDE90667304639460BB0BDE8F0837E
:101410000F4A98F90030019203210022CDE90445DA
:10142000CDE90245009108922BB90A4B4FF060427A
:10143000CDE90623DBE708490020022BCDE90601B0
:10144000D5D117F08DFE22230360D4E7AFF30080DF
:10145000A4BA0100FFFFEF470000F07FEF39FAFE6A
:10146000422E864051302DD5104987C0FB01002007
:101470002DE9F04FDFF80C938DB006460F46144669
:101480001D4601F0C5FC99F90080B8F1FF3FCDE998
:10149000000136D022462B462046294618F020FB74
:1014A000834670BB32463B463046394618F018FB3F
:1014B0008246002840F0A2803046394600220023B0
:1014C00018F0DCFA10B3002200232046294618F059
:1014D000D5FA834600286AD09FEDA17B0122A44B58
:1014E000CDF828A00292CDE90467CDE906458DED3F
:1014F000087B0393B8F1000F45D09FED9B7B8DEDEA
:10150000007BDDE900010DB0BDE8F08FDDE90001F1
:1015100017F094FC8046002800F08D804FF0000A00
:101520004FF0000BDDE9000152465B4618F0A6FAC9
:101530000028E6D03046394617F080FC0028E0D07D
:101540002046294617F07AFC0028DAD099F90030B5
:10155000874A039204210022022BCDE90467CDE9DA
:101560000645CDE908AB02910A9203D002A817F014
:101570006BFC68B917F0F4FD2223036008E09FEDCF
:10158000787B8DED087B02A817F05EFC002830D038
:101590000A9B1BB117F0E4FD0A9B03609DED087BDD
:1015A0008DED007BDDE900010DB0BDE8F08F204638
:1015B000294617F043FC0028A3D000220023204630
:1015C000294618F065FA00289BD099F90030684A3E
:1015D000CDF828B00121CDE90467CDE90645029197
:1015E0000392002BCBD063490020022BCDE90801E8
:1015F000C9D117F0B5FD21230360C9E700220023FC
:101600002046294618F03AFA00283FF47AAF5A4BA0
:101610005749CDF828B000220120B8F1020FCDE9DA
:1016200004670290CDE90645CDE908230391AAD1CC
:10163000CDE9002365E73046394617F0FFFB002867
:101640003FF46CAF2046294617F0F8FB00283FF422
:1016500065AFDDE900231046194618F041FA00286D
:101660005FD1032399F900800293414B0A90CDE9A1
:101670000467CDE906450393B8F1000F2BD1DFF8DD
:1016800008B14FF0604A0022002330463946CDE9C8
:1016900008AB18F0FDF900283FF468AF0022374B83
:1016A0002046294617F082FF04460D4617F0D4FB6A
:1016B00002460B462046294618F0E0F970BB304B35
:1016C00099F900804FF06042CDE90823B8F1020F8C
:1016D0007FF44CAF4EE7DFF8B4B04FF0000A0022C1
:1016E000002330463946CDE908AB18F0D1F900287F
:1016F000ECD00022214B2046294617F057FF044624
:101700000D4617F0A9FB02460B462046294618F065
:10171000B5F918B9174B0022CDE9082399F90080D3
:10172000D4E799F90090124BCDF828800122CDE939
:101730000467CDE9064502920393B9F1000F3FF427
:101740001EAF002200231046194618F059F8B9F1CF
:10175000020FCDE908013FF44CAF14E7AFF300806E
:101760000000000000000000000000000000F03F4A
:10177000BCBA01000000F0FF0000F03F0000E03FB5
:10178000FFFFEFC7FB010020FFFFEF470000F07FE6
:101790002DE9F84FC44E21F00043B34204460D46F4
:1017A0000DDD03F1404303F58013034340F0B9809E
:1017B000002940F3408100200021BDE8F88FBB4E96
:1017C000B34240F3A6800029C0F2788102460B465E
:1017D0000020B74917F036FD0022B64B17F0E6FEA1
:1017E00004460D4616F0A2FC95A3D3E900238946D2
:1017F00080462946204617F0D9FE93A3D3E900235B
:1018000017F022FD22462B4617F0D0FE90A3D3E915
:10181000002317F017FD22462B4617F0C7FE8EA3B4
:10182000D3E9002317F010FD22462B4617F0BEFE29
:101830008BA3D3E9002317F005FD22462B4617F0B2
:10184000B5FE89A3D3E9002317F0FEFC22462B4600
:1018500017F0ACFE86A3D3E9002382468B462046D0
:10186000294617F0A3FE84A3D3E9002317F0EAFC6E
:1018700022462B4617F09AFE81A3D3E9002317F0E6
:10188000E3FC22462B4617F091FE7FA3D3E9002309
:1018900017F0D8FC22462B4617F088FE0022844B16
:1018A00017F0D2FC02460B465046594617F0A8FFE7
:1018B00042464B4617F07AFE002682468B46324659
:1018C0004B463046494617F071FE02460B4620460D
:1018D000294617F0B7FC324604460D464B464046B3
:1018E000494617F0B1FC02460B462046294617F040
:1018F00087FF02460B465046594617F0A5FC324674
:101900004B4617F0A1FC02460B4617F09DFCBDE8C4
:10191000F88F694A93420EDC5DA1D1E90001BDE870
:10192000F88F02460B4617F08DFC02460B4617F067
:1019300067FFBDE8F88F02460B4617F037FE40A35D
:10194000D3E9002306460F4617F030FE3EA3D3E945
:10195000002317F079FC32463B4617F027FE3CA3E4
:10196000D3E9002317F06EFC32463B4617F01EFE0B
:1019700039A3D3E9002317F067FC32463B4617F042
:1019800015FE37A3D3E9002317F05CFC32463B4633
:1019900017F00CFE34A3D3E9002317F055FC3246B0
:1019A0003B4617F003FE32A3D3E900238046894665
:1019B0003046394617F0FAFD2FA3D3E9002317F07C
:1019C00041FC32463B4617F0F1FD2DA3D3E900233D
:1019D00017F03AFC32463B4617F0E8FD2AA3D3E95C
:1019E000002317F02FFC32463B4617F0DFFD0022A4
:1019F0002F4B17F029FC02460B464046494617F08C
:101A0000FFFE22462B4617F0D1FD02460B4622A1CF
:101A1000D1E9000117F016FC02460B462046294684
:101A200017F010FC02460B4619A1D1E9000117F08E
:101A300009FCBDE8F88F1AA1D1E90001BDE8F88FD3
:101A400009F7FD0DE13D023F88B20175E0EF493F26
:101A50003B8F68B52882A43F5544880E55C1C93FC5
:101A60007D6FEB0312D6D43F555555555555C53F9F
:101A700082922EB1C5B8B33F59018D1B6C06E63F6B
:101A8000C88A599CE52A00404B2D8A1C273A0340FE
:101A9000182D4454FB21F93F075C143326A6913CD2
:101AA000182D4454FB210940FFFFEF3FFFFFDF3FAC
:101AB0000000F03F0000E03F0000603C00225C4B73
:101AC00017F0C2FB00225B4B17F070FD40A3D3E977
:101AD000002304460D4617F069FD3FA3D3E9002318
:101AE00017F0B2FB22462B4617F060FD3CA3D3E96A
:101AF000002317F0A7FB22462B4617F057FD3AA309
:101B0000D3E9002317F0A0FB22462B4617F04EFD29
:101B100037A3D3E9002317F095FB22462B4617F095
:101B200045FD35A3D3E9002317F08EFB22462B4653
:101B300017F03CFD804689462046294616F0F6FA05
:101B40002FA3D3E9002306460F462046294617F067
:101B50002DFD2DA3D3E9002317F074FB22462B465D
:101B600017F024FD2AA3D3E9002317F06DFB2246CA
:101B70002B4617F01BFD28A3D3E9002317F062FBC7
:101B800022462B4617F012FD0022294B17F05CFB72
:101B900002460B464046494617F032FE32463B4667
:101BA00017F004FD1EA3D3E9002317F04BFB3246C8
:101BB0003B4617F049FB02460B4617F045FB024631
:101BC0000B4619A1D1E9000117F03CFBBDE8F88FE5
:101BD00009F7FD0DE13D023F88B20175E0EF493F95
:101BE0003B8F68B52882A43F5544880E55C1C93F34
:101BF0007D6FEB0312D6D43F555555555555C53F0E
:101C000082922EB1C5B8B33F59018D1B6C06E63FD9
:101C1000C88A599CE52A00404B2D8A1C273A03406C
:101C2000075C143326A6913C182D4454FB2109402F
:101C30000000F03F0000E03F434A91422DE9F843A5
:101C400004460D4639DD414A914209DD02F17952DF
:101C5000914240DD02460B4617F0F6FABDE8F883E4
:101C600001F1404202F58012024330D0B1F1804FC1
:101C70003ADC0022364B17F0E5FA02460B460446E2
:101C80000D4617F0E1FA224606460F462B4620463F
:101C9000294617F08BFC02460B463046394617F0B2
:101CA000D3FA16F043FA0B4602462946204617F0AF
:101CB000CBFABDE8F843FFF7BFB802460B4617F072
:101CC000C1FA02460B4617F09BFDBDE8F8830020E1
:101CD0000021BDE8F88300F017FE19A3D3E9002323
:101CE00017F0B2FABDE8F88302460B4617F05EFC27
:101CF0000022174B17F0A6FA16F018FA2246804673
:101D000089462B462046294617F09EFA424606464B
:101D10000F464B462046294617F096FA02460B46D8
:101D200000200B4917F06CFD0B4602463946304641
:101D300017F088FABDE8F84300F0E6BDAFF3008085
:101D4000EF39FAFE422EE63FFFFFEF3FFFFFAF41C4
:101D50000000F03F000000002DE9F047BE4B21F0ED
:101D60000048984584B004460D4612DD08F140480D
:101D700008F58018034658EA030321D002460B46B3
:101D800017F060FA02460B4617F03AFD04B0BDE8C2
:101D9000F087B24B98458A4629DCB8F1795F80F22A
:101DA000658191A3D3E9002317F04EFA0022AC4BD2
:101DB00017F08CFED8B12046294604B0BDE8F08764
:101DC0008BA3D3E9002317F0F1FB8BA3D3E9002306
:101DD00006460F462046294617F0E8FB02460B460A
:101DE0003046394617F030FA04B0BDE8F087204697
:101DF000294615F0D7FA02460B460020984917F0FD
:101E000021FA0022974B17F0D1FB7DA3D3E90023E1
:101E100004460D4617F0CAFB7BA3D3E9002317F055
:101E200013FA22462B4617F0C1FB79A3D3E900230E
:101E300017F008FA22462B4617F0B8FB76A3D3E931
:101E4000002317F001FA22462B4617F0AFFB74A3CC
:101E5000D3E9002317F0F6F922462B4617F0A6FB2C
:101E600071A3D3E9002317F0EFF922462B4617F0B0
:101E70009DFB6FA3D3E90023CDE90001204629464D
:101E800017F094FB6CA3D3E9002317F0DBF922468B
:101E90002B4617F08BFB6AA3D3E9002317F0D4F984
:101EA00022462B4617F082FB67A3D3E9002317F0E5
:101EB000C9F922462B4617F079FB694B002217F02F
:101EC000C3F9CDE902012046294616F02FF9664BE9
:101ED000984506460F4666DCDDE90223DDE9000190
:101EE00017F08EFC3246CDE900013B4630463946BC
:101EF00017F0AAF902460B46DDE9000117F056FB80
:101F00004FF00008CDE9000142463B4640463946C5
:101F100017F04CFB02460B462046294617F092F973
:101F2000424604460D463B463046394617F08CF98A
:101F300002460B462046294617F062FC02460B4635
:101F400017F082F902460B462BA1D1E9000117F0E8
:101F500079F902460B46DDE9000117F073F94246B4
:101F600004460D463B464046394617F06DF9024699
:101F70000B4637A1D1E9000117F064F902460B4680
:101F80002046294617F05EF902460B4630A1D1E9FA
:101F9000000117F057F9BAF1000F3FF7F7AE01F162
:101FA00000431946F2E6DDE90223DDE9000117F0FE
:101FB00027FC32463B4617F0F9FA32463B4617F00B
:101FC00043F902460B4617F03FF90BA3D3E9002370
:101FD00017F038F902460B4605A1D1E9000117F0C8
:101FE00031F9D8E7AFF300809C7500883CE4377E78
:101FF000182D4454FB21F93F075C143326A6913C6D
:1020000009F7FD0DE13D023F88B20175E0EF493F60
:102010003B8F68B52882A43F5544880E55C1C93FFF
:102020007D6FEB0312D6D43F555555555555C53FD9
:1020300082922EB1C5B8B33F59018D1B6C06E63FA5
:10204000C88A599CE52A00404B2D8A1C273A034038
:10205000182D4454FB21E93FFFFFEF3FFFFFDF3F17
:102060000000F03F0000E03F3233EF3F02460B46F6
:1020700017F09CFA37A3D3E9002306460F4617F062
:1020800095FA36A3D3E9002317F0DEF832463B4633
:1020900017F08CFA33A3D3E9002317F0D3F83246B4
:1020A0003B4617F083FA31A3D3E9002317F0CCF8AD
:1020B00032463B4617F07AFA2EA3D3E9002317F0F5
:1020C000C1F832463B4617F071FA2CA3D3E900233E
:1020D00017F0BAF832463B4617F068FA29A3D3E95D
:1020E0000023804689463046394617F05FFA27A319
:1020F000D3E9002317F0A6F832463B4617F056FA0C
:1021000024A3D3E9002317F09FF832463B4617F08B
:102110004DFA22A3D3E9002317F094F832463B4648
:1021200017F044FA00220A4B17F08EF802460B46CD
:102130004046494617F064FB22462B4617F036FA14
:1021400022462B4617F080F804B0BDE8F08700BFA8
:102150000000F03F09F7FD0DE13D023F88B2017537
:10216000E0EF493F3B8F68B52882A43F5544880E75
:1021700055C1C93F7D6FEB0312D6D43F5555555518
:102180005555C53F82922EB1C5B8B33F59018D1B3D
:102190006C06E63FC88A599CE52A00404B2D8A1CF4
:1021A000273A0340000000002DE9F84F1D46534236
:1021B000134325F0004ADFF8E0E14AEAD3737345A0
:1021C000144606460F4647D8C0F1000848EA000802
:1021D00021F0004343EAD878F0458B463CD805F11E
:1021E000404808F5801858EA020850D04FEAA57810
:1021F00008F0020848EAD17850EA030134D052EAE4
:102200000A023CD0F24557D0734538D0A3EB0A03FD
:102210001B153C2B42DC002D70DB22462B46304642
:10222000394617F0EDFA15F0BDF8FEF751FBB8F19D
:10223000010F5FD0B8F1020F4ED0B8F1000F62D09D
:1022400043A3D3E9002316F0FDFF43A3D3E9002302
:1022500016F0F8FFBDE8F88F32463B462046294687
:1022600016F0F2FFBDE8F88FB8F1020F1AD0B8F1FE
:10227000030F10D13AA1D1E90001BDE8F88FBBF1FD
:10228000000F14DB38A1D1E90001BDE8F88FBDE8EB
:10229000F84FFEF71DBB3946BDE8F88F32A1D1E9F2
:1022A0000001C4E72CA1D1E90001BDE8F88F30A1FD
:1022B000D1E90001BDE8F88F534526D0B8F1020FEF
:1022C000F0D0B8F1030FD5D0B8F1010F4FF00000F6
:1022D00029D00021BDE8F88F1DA3D3E9002316F013
:1022E000B1FF02460B461CA1D1E9000116F0AAFF7E
:1022F000BDE8F88F01F10041BDE8F88F3C338CDA7E
:102300000020002193E7BDE8F88FB8F1020F18D044
:10231000B8F1030F10D0B8F1010F08D016A1D1E920
:102320000001BDE8F88F4FF00041BDE8F88F14A11F
:10233000D1E90001BDE8F88F13A1D1E90001BDE8A2
:10234000F88F13A1D1E90001BDE8F88FAFF3008049
:10235000075C143326A6A13C182D4454FB210940E8
:10236000182D4454FB2109C0182D4454FB21F93F7A
:10237000182D4454FB21F9BF182D4454FB21E93F8B
:10238000182D4454FB21E9BFD221337F7CD902C0F0
:10239000D221337F7CD902400000F07F0000000092
:1023A00043422DE9F047034321F000463E4A46EA06
:1023B000D373934204460D4613D896423DD03B4B0F
:1023C0009E428A4617DC36A3D3E9002316F03CFF71
:1023D0000022002317F07AFBA8B320462946BDE867
:1023E000F08702460B4616F02DFF02460B4617F00B
:1023F00007FABDE8F0872E4B9E42354624DD334672
:102400000246314616F020FF224606460F462B466E
:102410000020254916F016FF02460B463046394685
:1024200017F0EEF9FEF708FD0022224B17F0BEF878
:10243000BAF1000F2FDBBDE8F0870022002317F070
:10244000DFF9BDE8F087354622462B46204629466F
:1024500016F0FAFE22462B4606460F4617F0A6F85F
:102460002246804689462B4600200F4916F0EAFE98
:1024700002460B464046494617F0C2F932463B46F3
:1024800016F0E2FEFEF7D8FC00220A4B17F08EF899
:10249000BAF1000FCFDA01F100431946BDE8F08729
:1024A0009C7500883CE4377E0000F03FFFFF2F3E24
:1024B000FFFFDF3F0000E03F2DE9F8434E4B21F0E6
:1024C00000449C4206460F461BDC4C4B9C4222DDDE
:1024D0004B4B9C4263DD4B4B9C427BDD4A4B9C4209
:1024E00046DD01339C4240D041A3D3E9002310468E
:1024F000194617F05BF806460F4630463946BDE8E8
:10250000F88302460B4617F051F806460F46304650
:102510003946BDE8F88314F045FF02F0B1FC002213
:102520003A4B8046894616F08FFEB4F1725F06463C
:102530000F46ECDB42464B464046494617F036F81C
:1025400032463B4604460D463046394616F07CFE80
:1025500002460B462046294617F052F900222B4B23
:1025600016F072FE06460F46D1E7294B9842BBD8BB
:102570003046394614F016FF0022264B17F016F8A5
:1025800000F04AF8002204460D46224B17F00EF8E0
:1025900022462B4617F00AF806460F46B7E714F016
:1025A00001FF00F039F800221A4B06460F4616F0DC
:1025B000FDFF32463B4604460D460020154917F004
:1025C0001FF902460B462046294616F03DFE0646F8
:1025D0000F469CE714F0E6FE00F01EF800220D4BBB
:1025E00016F0E4FF06460F4691E700BFAFF3008008
:1025F0009C7500883CE4377EFFFFEF7F422ED63F7C
:10260000FFFF3540412E8640CD3386400000F03F2D
:102610007DF8B98F0000E03F2DE9F04FB04E21F07A
:102620000042B24283B004460D464FEAD1770DD93D
:10263000AC4EB24225D9C1F31303034340F0EC8002
:102640000FB10020002103B0BDE8F08FA64B9A42E5
:1026500000F2CB80A54B9A4200F2DC808AA3D3E93A
:10266000002316F0F1FD0022A14B17F02FFA0028ED
:1026700000F006812046294600229D4B16F0E4FD1D
:10268000E1E783A3D3E9002317F020FA002840F004
:10269000C88081A3D3E900232046294617F0F8F922
:1026A0000028CED1934E7EA3D3E9002306EBC706C4
:1026B0002046294616F07AFFD6E9002316F0C4FD1D
:1026C00017F024FA064616F00BFF77A3D3E9002390
:1026D0008046894616F06AFF02460B462046294688
:1026E00016F0B0FD72A3D3E90023CDE90001404606
:1026F000494616F05BFF82468B4652465B46DDE953
:10270000000116F09FFD04460D4622462B4620464A
:10271000294616F04BFF68A3D3E90023804689467B
:1027200016F044FF66A3D3E9002316F08BFD424662
:102730004B4616F03BFF64A3D3E9002316F084FD5B
:1027400042464B4616F032FF61A3D3E9002316F050
:1027500079FD42464B4616F029FF5FA3D3E90023DB
:1027600016F072FD42464B4616F020FF02460B461D
:102770002046294616F066FD80468946002E58D030
:102780002046294642464B4616F010FF4246044674
:102790000D464B4600204FF0804116F053FD024697
:1027A0000B462046294617F02BF802460B465046AA
:1027B000594616F047FDDDE9002316F043FD0B46B0
:1027C00002464B49002016F03DFD6FF47F739E4298
:1027D00051DA06F57A7601EB065100224FF0B87314
:1027E00016F0E4FE03B0BDE8F08F434B9A423FF68B
:1027F00059AF424BFC002344D3E9002316F022FDDD
:102800003F4BC7F101062344CDE90001D3E900ABFA
:10281000F61B72E7002678E702460B4616F014FD19
:1028200011E719A3D3E900231046194616F0BEFE9E
:1028300009E702460B462046294616F0B7FE00225D
:1028400006460F464FF080434046494616F0FAFCD4
:1028500002460B463046394616F0D2FF22462B463A
:1028600016F0F0FC02460B460020214916F0EAFC67
:1028700003B0BDE8F08F01EB065103B0BDE8F08F67
:10288000064642E7AFF300809C7500883CE4377E43
:10289000EF39FAFE422E864051302DD5104987C0BF
:1028A000FE822B654715F73F0000E0FE422EE63F13
:1028B000763C7935EF39EA3DD0A4BE726937663E81
:1028C000F16BD2C541BDBB3E2CDE25AF6A56113F30
:1028D00093BDBE166CC1663F3E5555555555C53F17
:1028E000412E8640FFFFEF7F422ED63FFFFF2F3E57
:1028F0000000F03F50A80100B1A2F03F60A8010025
:1029000070A80100000000002DE9F04FB1F5801F14
:1029100085B006460F460B465ADA024621F00044BF
:10292000224300F0F8800029C0F27A810022D64BC1
:1029300016F03CFED54A0B46934206460F466FF012
:10294000350C4ADCC3F3130505F5152E0EF6647E2F
:102950000EF4801E8EF07F5282F440121C1542EA63
:102960000507A4F2FF3464440022C94B30463946BF
:1029700004EB1E5416F066FCAB1CC3F31303022BCE
:1029800082468B464FF0000230DC002317F076F8C9
:10299000002800F0C980002C00F04B81204616F082
:1029A0009FFDA5A3D3E9002306460F4616F0FEFDC2
:1029B000A3A3D3E9002304460D463046394616F05A
:1029C000F5FD02460B462046294616F03DFC0AE07E
:1029D000AE4A93424FF0000CB4DD32463B463046DF
:1029E000394616F031FC05B0BDE8F08F4FF080435A
:1029F00016F02AFC02460B465046594616F000FFD8
:102A0000064620460F4616F06BFD3246CDE9000122
:102A10003B4630463946CDE9026716F0C7FD02460F
:102A20000B468046894616F0C1FD87A3D3E90023F3
:102A300006460F4616F0BAFD85A3D3E9002316F02B
:102A400003FC32463B4616F0B1FD83A3D3E90023D5
:102A500016F0FAFB32463B4616F0A8FD80A3D3E9F8
:102A6000002316F0F1FB42464B4616F09FFD7EA375
:102A7000D3E90023804689463046394616F096FD54
:102A80007BA3D3E9002316F0DFFB32463B4616F06A
:102A90008DFD79A3D3E9002316F0D6FB32463B46E1
:102AA00016F084FD0B4602464946404616F0CCFB24
:102AB000A5F5C223C5F5D725A3F27A4351351D43A9
:102AC000002D8046894656DD0022724B50465946FD
:102AD00016F06CFD52465B4616F068FD06460F4642
:102AE000002C68D132463B464046494616F0ACFBC6
:102AF000DDE9022316F05AFD02460B463046394600
:102B000016F0A0FB02460B465046594616F09AFBBB
:102B100005B0BDE8F08F0022002300205E4916F0CA
:102B20006FFE05B0BDE8F08F55A3D3E900235046F2
:102B3000594616F03BFD02460B460020554916F05B
:102B400081FB524606460F465B465046594616F0F4
:102B50002DFD02460B463046394616F027FD064647
:102B60000F46002C40F09A8002460B4650465946CC
:102B700016F068FB37E7002C00F0A4802EA3D3E901
:102B80000023DDE9000116F011FD42464B460446E4
:102B90000D465046594616F055FBDDE9022316F066
:102BA00005FD27A3D3E9002306460F46DDE9000112
:102BB00016F0FCFC21E020A3D3E90023DDE90001AD
:102BC00016F0F4FC32463B4604460D464046494664
:102BD00016F03AFBDDE9022316F0E8FC18A3D3E96E
:102BE000002380468946DDE9000116F0DFFC02463D
:102BF0000B464046494616F027FB02460B46304638
:102C0000394616F01FFB52465B4616F01BFB024688
:102C10000B462046294616F015FB05B0BDE8F08F9F
:102C200002460B4616F00EFB0022002316F0E8FDCC
:102C3000D9E600200021D6E60000E0FE422EE63F65
:102C4000763C7935EF39EA3D44523EDF12F1C23F1E
:102C5000DE03CB966446C73F599322942449D23F62
:102C6000935555555555E53F9FC678D0099AC33FB2
:102C7000AF788E1DC571CC3F04FA97999999D93FC9
:102C8000555555555555D53F00005043FFFFEF7F33
:102C90000000F03F0000E03F000050C3204616F067
:102CA0001FFC0FA3D3E900238046894616F07EFC63
:102CB0000DA3D3E9002304460D464046494616F0CD
:102CC00075FC9AE702460B465046594616F0BAFA8A
:102CD000DDE9022316F06AFC14E700BFAFF30080C1
:102CE0000000E0FE422EE63F763C7935EF39EA3DC2
:102CF000B1F5801F2DE9F84304460D460B461ADA5C
:102D0000024621F00046324359D000295FDB002201
:102D10003B4B16F04BFC3B4A0D462B469342044678
:102D20006FF035010CDD22462B462046294616F071
:102D30008BFABDE8F883334A93424FF00001F2DC8E
:102D40001815A0F2FF3008444FEAD0794844C3F385
:102D5000130816F0C5FBC9F57F73033348EA035522
:102D600006460F4620462946FFF7CEFD1EA3D3E9AF
:102D70000023804689463046394616F017FC1CA3CE
:102D8000D3E9002304460D464046494616F00EFCA2
:102D900002460B462046294616F056FA16A3D3E9FA
:102DA000002304460D463046394616F0FFFB024626
:102DB0000B462046294616F047FABDE8F883002264
:102DC00000230020104916F01BFDBDE8F8830246E1
:102DD0000B4616F037FA0022002316F011FDBDE86D
:102DE000F88300BFAFF30080362BF111F3FE593D9D
:102DF0000EE526157BCBDB3F00609F501344D33F8D
:102E000000005043FFFFEF7F000050C300000000B0
:102E10002DE9F04F23F0004757EA020493B037D072
:102E2000674C21F00046A64283460D4629DC9A46AF
:102E3000964625D0A74224DC614CA74279D0002DCC
:102E400080468946CDE9002377DB0024BEF1000FE0
:102E50002CD15B4B9F4200F08B805A4B9F4261D03C
:102E6000BAF1804F00F0C383574B9A451ED1002D15
:102E70001CDB4046494613B0BDE8F04F15F056B98B
:102E800058B106F1404606F5801656EA0B0306D106
:102E90004C49002013B0BDE8F08FB742CCDD4B4861
:102EA00013B0BDE8F04F15F0D1BF002440464946AD
:102EB00014F078FABBF1000F19D126B1414B25F07F
:102EC00040429A4213D1BAF1000FC0F2CA83002DDA
:102ED000E0DA06F1404606F5801656EA040300F0F3
:102EE000A584012CD6D101F100431946D2E7ED0F9C
:102EF000013D54EA05034ED0354B9F426EDD03F190
:102F000004739F4240F3FE83324B9E424EDDBAF182
:102F1000000F4EDD28A3D3E900231046194616F012
:102F200045FBB7E7BAF1000FC0F25284404649466C
:102F3000B0E7BEF1000F82D0A3E7274B9F4228DC09
:102F4000A3F154739F4280DD3B15A3F2FF33142B92
:102F500040F35484C3F134032EFA03F202FA03F36C
:102F60009E457FF472AF02F00102C2F102046DE7E8
:102F700006F1404303F5801353EA0B0388D0154B49
:102F80009E4240F33B83BAF1000F12DBDDE9000102
:102F900080E702245AE742464B461046194616F08F
:102FA00051F902460B4616F02BFC73E7BAF1000FFD
:102FB000B0DB002000216DE79C7500883CE4377E83
:102FC0000000F07F0000F03F0000E03F9CB00100F7
:102FD0000000E041FFFFEF3FFFFF3F43B6F5801FDA
:102FE0004FF0000205DAD84B16F0E0FA6FF0340229
:102FF0000E463315D54FC6F31306A3F2FF33134421
:1030000046F07F5ABE421A460D934AF4401A40F3E6
:103010002F83CF4B9E4240F30D849FEDB57B8DED0A
:10302000087B8DED0E7B9FEDB47B13468DED067B0B
:1030300001330D93AAF5801A0027DDE906235146D6
:10304000CDE90A0116F0FEF8DDE90623804689463F
:10305000DDE90A0116F0F8F802460B460020BD49EA
:1030600016F0CEFB0A460146CDE91012134649463A
:103070000246404616F09AFA4FEA6A0343F00053BC
:103080008C46834603F50023CDE904BCDA468B4623
:10309000D9190023CDE902AB0293DDE902AB002090
:1030A00006460F4602460B465046594616F07EFA33
:1030B00002460B464046494616F0C4F8DDE90623B1
:1030C000804689463046394616F0BCF802460B4623
:1030D000DDE90A0116F0B6F852465B4616F066FACC
:1030E00002460B464046494616F0ACF8DDE910238F
:1030F00016F05CFADDE90467CDE9060132463B468D
:103100003046394616F052FA7DA3D3E9002306462D
:103110000F4616F04BFA7CA3D3E9002316F094F87F
:1031200032463B4616F042FA79A3D3E9002316F063
:103130008BF832463B4616F039FA77A3D3E90023E1
:1031400016F082F832463B4616F030FA74A3D3E903
:10315000002316F079F832463B4616F027FA72A3A0
:10316000D3E9002316F070F83246804689463B4684
:103170003046394616F01AFA02460B464046494692
:1031800016F014FA524606460F465B46DDE9040186
:1031900016F05AF8DDE9062316F008FA32463B46E7
:1031A00016F052F85246804689465B4650465946CC
:1031B00016F0FCF90022684BCDE90A0116F044F83C
:1031C00042464B4616F040F802980F4606463246F5
:1031D0003B465046594616F0E9F9002282468B4696
:1031E0005D4B3046394616F02DF8DDE90A2316F01E
:1031F00029F802460B464046494616F023F8DDE919
:10320000042316F0D3F93246804689463B46DDE971
:10321000060116F0CBF902460B464046494616F029
:1032200013F88046894602460B4650465946CDE97A
:1032300004AB16F009F8DDE902AB3DA3D3E90023A6
:1032400050460F4616F0B2F9DDE90423CDE902013C
:103250003946504615F0F6FF02460B4640464946B1
:1032600015F0F0FF34A3D3E9002316F09FF934A33F
:10327000D3E90023804689465046394616F096F930
:1032800002460B464046494615F0DEFFDDE90E23B7
:1032900015F0DAFF80460D98894616F021F942466E
:1032A00006460F464B46DDE9020115F0CDFFDDE98C
:1032B000082315F0C9FF32463B4615F0C5FF3246DC
:1032C0003B4650468B4615F0BDFFDDE9082315F05F
:1032D000B9FFDDE9022315F0B5FF02460B46404673
:1032E000494615F0AFFF8046894637E0AFF30080CE
:1032F0000000000000000000000000000000F03F9F
:10330000EF4E454A287ECA3F65DBC9934A86CD3FCA
:1033100001411DA96074D13F4D268F515555D53FB0
:10332000FFAB6FDBB66DDB3F033333333333E33F48
:10333000000000E009C7EE3FFD033ADC09C7EE3F9D
:10334000F5015B14E02F3EBE000040438E98030061
:1033500079B60B000000F03F00000840013C54EA41
:10336000050300F079819FEDC87B8DED047BDDE9DD
:1033700000120B461446CDE9023400230293DDE926
:10338000024508462B461146224615F05BFF524681
:103390005B4616F00BF9DDE9002306460F46404672
:1033A000494616F003F902460B463046394615F0F9
:1033B0004BFF2246804689462B4650465946CDE96A
:1033C000008916F0F3F80B46024606460F464046C3
:1033D000494615F039FFC64B994204460D468A46C8
:1033E00040F3168101F13F4303F5E003034340F04E
:1033F000F781A7A3D3E90023DDE9000115F024FF3D
:103400003246804689463B462046294615F01AFF3B
:1034100002460B464046494616F058FB002840F04D
:10342000DF81A8464FEA28534FF48012A3F2FE33FF
:1034300042FA03F35344C3F30A52AE4DA2F2FF32F1
:103440001541C3F3130423EA05010020C2F1140B54
:1034500044F48014BAF1000F02460B4644FA0BFB09
:1034600030463946B8BFCBF1000B15F0EBFE0246F3
:103470000B4606460F46DDE9000115F0E5FE4FEA72
:103480000B5A0D46002484A3D3E900232046294685
:1034900016F08CF83246804689463B46204629463F
:1034A00015F0D0FE02460B46DDE9000115F0CAFE1C
:1034B0007BA3D3E9002316F079F87BA3D3E900239B
:1034C00006460F462046294616F070F802460B467F
:1034D0003046394615F0B8FE06460F4602460B4602
:1034E0004046494615F0B0FE42464B4604460D465E
:1034F00015F0A8FE02460B463046394615F0A2FEEE
:103500002246804689462B462046294616F04EF82C
:1035100067A3D3E9002306460F4616F047F866A3D3
:10352000D3E9002315F08EFE32463B4616F03EF8F6
:1035300063A3D3E9002315F087FE32463B4616F01D
:1035400035F861A3D3E9002315F07CFE32463B46F3
:1035500016F02CF85EA3D3E9002315F075FE324671
:103560003B4616F023F802460B462046294615F046
:1035700069FE06460F4602460B462046294616F0CF
:1035800015F80022CDE900014FF08043304639465E
:1035900015F058FE02460B46DDE9000116F030F941
:1035A000424606460F464B462046294615F0FEFF8A
:1035B00042464B4615F048FE02460B463046394619
:1035C00015F040FE22462B4615F03CFE02460B4607
:1035D0000020494915F036FE8A44BAF5801FC0F232
:1035E00039815146DDE9042315F0E0FF52E44246FB
:1035F0004B464046494615F0D9FF4BE4BAF1000F5F
:10360000BFF6D7ACDDE90034184604F1004141E4CF
:103610003A4B21F00048984540F3FF80384B0B446B
:1036200003430CD132463B4615F00CFE02460B46D6
:10363000DDE9000116F036FA00283FF4F3AEDDE9CB
:10364000040125A3D3E9002315F0B0FF22A3D3E999
:10365000002315F0ABFF1DE49FED217B8DED047B76
:1036600085E602460B460020234916F0C9F82EE4F1
:103670009FED1D7B8DED087B8DED0E7B9FED027B1D
:1036800000278DED067BD8E4000000000000F03F2D
:10369000FE822B654715973C00000000432EE63F55
:1036A000EF39FAFE422EE63F396CA80C615C20BE71
:1036B000D0A4BE726937663EF16BD2C541BDBB3E38
:1036C0002CDE25AF6A56113F93BDBE166CC1663F16
:1036D0003E5555555555C53F59F3F8C21F6EA501C6
:1036E000000000000000F0BF00000000000000002B
:1036F000FFFF8F40FFFF0F000000F03FFFCB904027
:1037000000346F3F684B9E427FF750AC674B9E4240
:103710003FF7FDAB0022654B15F094FD52A3D3E9B2
:10372000002306460F4615F041FF51A3D3E90023BD
:10373000804689463046394615F038FF00228246D9
:103740008B465B4B3046394615F030FF02460B4640
:1037500049A1D1E9000115F075FD32463B4615F04F
:1037600025FF02460B460020524915F06BFD3246FC
:10377000CDE902013B463046394615F017FF0246B7
:103780000B46DDE9020115F011FF3DA3D3E900234B
:1037900015F00CFF02460B465046594615F052FDF7
:1037A00002460B4606460F464046494615F04CFD7C
:1037B00042464B46002082468B4615F043FD0246AA
:1037C0000B463046394615F03DFD80468946C5E535
:1037D00042464B460020354916F012F8FFF75ABB17
:1037E000DDE9040128A3D3E9002315F0DFFE26A3B9
:1037F000D3E9002315F0DAFEFFF74CBBBEF1000F52
:103800007FF453ABC3F1140347FA03F202FA03F354
:103810009F4223D07446FFF720BB264B98453FF7C5
:1038200001AEDDE90223924693462BE602460B46A3
:10383000FFF7B3BB9FED167B8DED087B9FED167BED
:103840008DED0E7B9FED167B4FF480278DED067B73
:10385000FFF7F3BB5A4601F04FFDC3E602F0010249
:10386000C2F10204FFF7F9BA000000604715F73F04
:1038700044DF5DF80BAE543E555555555555D53F73
:10388000FE822B654715F73F9C7500883CE4377E28
:103890000000004003B8E23F06D0CF43EBFD4C3EB2
:1038A000000000000000F83FFEFFEF3F0000F03F87
:1038B0000000D03F0000E03F2DE9F0479C4B21F095
:1038C00000479F4290B08046894640F38E80994BD6
:1038D0009F420C46924626DC00298BA3D3E90023A5
:1038E00040F3B08115F0AEFC934B9F4204460D4669
:1038F00000F0908086A3D3E9002315F0A3FC0246D4
:103900000B46CAE900232046294615F09BFC80A3FC
:10391000D3E9002315F096FC0125CAE902012846E7
:1039200010B0BDE8F087854B9F4240F39080844BF8
:103930009F4265DC3D15A5F21645A7EB05531946D8
:103940001F46064616F0E2F815F0CAFD8046894685
:1039500042464B4630463946CDE90A8915F072FC9D
:103960000022784B15F022FE8946804616F0CEF8EC
:1039700015F0B6FD06460F4632463B4640464946E0
:10398000CDE90C6715F05EFC00226E4B15F00EFEC3
:1039900000220023CDE90E0116F070F8002800F097
:1039A0006F81002330463946002216F067F8002860
:1039B00014BF01230223644A019202212A46009186
:1039C0000AA8514600F08CFB002C054614DADAF800
:1039D0000420DAF80C3002F1004203F100434542C2
:1039E000CAF80420CAF80C3006E000200021C2E921
:1039F0000089C2E902010025284610B0BDE8F08721
:103A000002460B4615F01EFC0025CAE90201CAE970
:103A10000001F1E740A3D3E9002315F013FC40A314
:103A2000D3E900230D46044615F00CFC02460B4674
:103A3000CAE900232946204615F004FC38A3D3E93F
:103A4000002315F0FFFB0125CAE90201D4E713F0BA
:103A5000A9FC35A3D3E900238046894615F0A6FDCD
:103A600000223A4B15F0F0FB16F050F8054615F021
:103A700037FD25A3D3E90023CDE9060115F096FD16
:103A800002460B464046494615F0DCFB20A3D3E92D
:103A90000023CDE90201DDE9060115F087FD1F2DA8
:103AA00080468946CDE9048954DC294B6A1E53F8C7
:103AB00022309F424ED002460B46DDE9020115F04E
:103AC000C1FB80468946CAE9008942464B46DDE98A
:103AD000020115F0B7FBDDE9042315F0B3FB002C60
:103AE000CAE9020188DA09F1004401F100436D429C
:103AF000CAF80080CAF80440CAF80800CAF80C30B6
:103B00007AE700BFAFF3008000004054FB21F93F8B
:103B10003163621A61B4D03D0000601A61B4D03DD7
:103B20007370032E8A19A33B83C8C96D305FE43FCD
:103B3000FB21E93F7BD90240FB21F93FFB213941C1
:103B4000FFFFEF7F0000704158BB01000000E03F25
:103B5000D8BA0100DDE90423DDE9020115F072FBAA
:103B60003F15C1F30A53FB1A80468946102BCAE958
:103B70000089AADD58A3D3E90023DDE9060115F089
:103B800015FD8046894602460B46DDE9020115F027
:103B900059FB02460B46DDE90201CDE9082315F089
:103BA00051FB42464B4615F04DFB4DA3D3E9002394
:103BB00080468946DDE9060115F0F8FC42464B4691
:103BC00015F040FB0B46CDE904010246DDE9080192
:103BD00015F038FBC1F30A53FF1A80468946312F8E
:103BE000CAE900896CDD41A3D3E90023DDE90601C0
:103BF00015F0DCFCDDE9088906460F4602460B4657
:103C00004046494615F01EFB02460B4640464946D3
:103C1000CDE9022315F016FB32463B4615F012FBA8
:103C200034A3D3E9002306460F46DDE9060115F06B
:103C3000BDFC32463B4615F005FB02460B46CDE97E
:103C400004233AE715F000FB274B9F4204460D463C
:103C500018D01FA3D3E9002315F0F6FA02460B464D
:103C6000CAE900232946204615F0ECFA18A3D3E947
:103C7000002315F0E9FA4FF0FF35CAE90201BBE66F
:103C8000032398E614A3D3E9002315F0DDFA14A367
:103C9000D3E900230D46044615F0D6FA02460B463A
:103CA000CAE900232946204615F0CCFA0CA3D3E933
:103CB000002315F0C9FA4FF0FF35CAE902019BE66F
:103CC0009DED087B8DED027BFFE600BFAFF300802A
:103CD0003163621A61B4D03D0000601A61B4D03D16
:103CE0007370032E8A19A33BFB21F93F0000002EBD
:103CF0008A19A33BC14920259A837B390000000023
:103D0000594A2DE9F84F21F00048904506460F46E4
:103D10002BDC564B0029B4BF554D564D98454FF0FE
:103D2000000410DC544B984570DC4DA3D3E900230C
:103D300015F08AFA0022514B15F0C8FED8B1304672
:103D40003946BDE8F88F4E4B98457CDD4D4B984584
:103D500044DD013398453ED03046394640A3D3E98F
:103D6000002315F023FCBDE8F88F02460B4615F042
:103D70006BFABDE8F88F3046394613F013FB01F0BB
:103D80007FF806460F4632463B463046394615F028
:103D90005BFA324682468B463B463046394615F042
:103DA00005FC002280468946344B3046394615F0E2
:103DB0004BFA02460B464046494615F021FD0246A5
:103DC0000B465046594615F03DFA22462B4615F053
:103DD000EDFBBDE8F88F2C4B9842BDD830463946F4
:103DE00013F0E0FA0022234B15F0E0FBFEF714FC81
:103DF00006460F4602460B462046294615F0D6FBDE
:103E000032463B4615F0D2FBBDE8F88F13F0CAFAF4
:103E100001F036F81D4B984506460F46B3DD0022EB
:103E2000164B15F011FA02460B463046394615F08E
:103E3000E7FC32463B4615F007FA22462B4615F0C2
:103E4000B5FBBDE8F88F13F0ADFAFEF7E5FB0246CF
:103E50000B462046294615F0A9FBBDE8F88F00BFA8
:103E60003374AC3C1F7BAC7FFFFFEF7FFFFF35401F
:103E70000000E0BF0000E03FFFFF2F3E0000F03FEA
:103E8000412E8640CD3386407DF8B98FFFFFEF3F4E
:103E90002DE9F04F21F00048B8F1795F85B0064672
:103EA0000F4692469B466BDA15F030FE002800F074
:103EB000EA8032463B463046394615F077FB74A31C
:103EC000D3E9002304460D4615F070FB72A3D3E935
:103ED000002315F0B9F922462B4615F067FB70A3B5
:103EE000D3E9002315F0AEF922462B4615F05EFB10
:103EF0006DA3D3E9002315F0A7F922462B4615F050
:103F000055FB6BA3D3E9002315F09CF922462B4601
:103F100015F04CFB68A3D3E9002315F095F9224670
:103F20002B4615F043FBCDE900010022664B2046ED
:103F3000294615F03BFBDDE90023804689462046F3
:103F4000294615F033FB524604460D465B46304683
:103F5000394615F02BFB02460B462046294615F044
:103F600071F902460B464046494615F06BF9024688
:103F70000B460020554915F065F905B0BDE8F08FF6
:103F800002460B4615F012FB41A3D3E90023044679
:103F90000D4615F00BFB40A3D3E9002315F054F9AF
:103FA00022462B4615F002FB3DA3D3E9002315F072
:103FB00049F922462B4615F0F9FA3BA3D3E9002331
:103FC00015F042F922462B4615F0F0FA38A3D3E952
:103FD000002315F037F922462B4615F0E7FA36A3F1
:103FE000D3E9002315F030F92B46224615F0DEFA0E
:103FF000374B9845CDE9000197DD364B984539DCC4
:10400000A8F500130022002030499046994615F08B
:1040100019F9CDE9020100222B4B2046294615F063
:10402000C5FA42464B4615F00DF9DDE900238046FE
:1040300089462046294615F0B9FA524604460D46EF
:104040005B463046394615F0B1FA02460B4620462B
:10405000294615F0F7F802460B464046494615F04A
:10406000F1F802460B46DDE9020115F0EBF805B068
:10407000BDE8F08F9FED127B4FF000088DED027BC5
:10408000DFF85490C7E71149002005B0BDE8F08F74
:10409000D43888BEE9FAA8BDC4B1B4BD9EEE213EB5
:1040A000AD529C804F7E923E9015CB19A001FA3EF6
:1040B0007751C1166CC1563F4C5555555555A53FC6
:1040C000000000000000E73F0000E03F0000F03F7C
:1040D0003233D33F0000E93F0000D23F0000000030
:1040E0002DE9F04FADF51B7D9F4CA49E9F4D54F8DC
:1040F000264007942646D41E85FB0475E417C4EBBE
:10410000A50424EAE4741D460A93631CA3EB83030D
:10411000013D02EBC30306932B460B940395651BED
:10412000F418049008911AD42C4400260027013476
:104130000DF18808DDF8949208E059F8250015F093
:10414000CFF90135A542E8E8020108D0002DF4DAE4
:10415000013530463946A542E8E80201F6D1079B11
:10416000002BC0F2DF83079B03F1010B0A9B22A9FE
:10417000DB001A4601EB03090093049B0DF5E47A7A
:1041800019460AEBCB0B01EB0208039B002BC0F294
:10419000F582049C4D460026002775E90223F4E8C9
:1041A000020115F003FA02460B463046394615F077
:1041B0004BF8444506460F46EFD1EAE80267DA4578
:1041C00009F10809E1D107990098049C009101F1D7
:1041D0008043013B9B0020441A1F83460EA80244E3
:1041E00003440C920D93009A9AA901EBC203002A92
:1041F00053E9284529DD0DF5E47A0AEBC2080DF1F3
:10420000340900225A4B2046294615F0CFF915F003
:104210007DFC15F065F90022564B06460F4615F059
:10422000C5F902460B462046294615F00BF815F055
:104230006DFC78E9022349F8040F3946304615F041
:1042400003F8D04504460D46DBD1DDF81890204632
:1042500029464A4601F050F800224FF07F530446A9
:104260000D4615F0A3F9FCF75FFD0022424B15F057
:104270009DF902460B462046294614F0E3FF0D4601
:10428000044615F043FC804615F02AF90B46024619
:104290002946204614F0D6FF4B46002B06460F4613
:1042A00040F3F980009A0EA9013AC9F1180351F8B8
:1042B000225045FA03F101FA03F30EA8EB1A40F875
:1042C0002230C9F11705884443FA05F5002D6DDD4C
:1042D000009B002B08F1010840F36F820E9C002C1C
:1042E00040F01683009B012B40F38F820EAA01231E
:1042F00052F8044F002C00F08382581C0EAAC4F11F
:10430000807442F82340009A824219DD0EAA0EAC56
:1043100052F820106FF07F42511A44F82010009993
:10432000023399420CDD1046009A0EA901EB83037B
:1043300001EB82011A68821A43F8042B8B42F9D1EF
:10434000069B002B1ADD069B012B4FF0010440F069
:104350003C82009B5A1E0EAB0EA953F82230C3F3C9
:10436000160341F822303CE2F8BF0100ABAAAA2AAA
:104370000000703E0000704100002040022D15D169
:1043800032463B460020924914F05CFF06460F4639
:10439000069A8F49002000F0AFFF02460B463046D8
:1043A000394614F04FFF022506460F46002200232F
:1043B0003046394615F062FB002800F03782009A3B
:1043C000079B501E83420FDC02F18043013B0EAA83
:1043D0000D9C02EB8303002253F80419A34242EA26
:1043E0000102F9D1002A67D1079B0EAA013B52F8BE
:1043F0002330002B40F018820C9A012352F8041944
:1044000001330029FAD0009AD31802F1010A9A4523
:1044100009933DDC009B0A990B9A0B4409990AEB1E
:104420000208994622AB08F1804803EBC9098B18B2
:10443000A59A08F1FF3802EB880872AA02EBCA0AB3
:10444000A59A02EB8303009358F8040F15F048F87F
:10445000039B002BE9E802014FF000064FF0000734
:1044600011DB049C4D4675E90223F4E8020115F0C6
:104470009DF802460B463046394614F0E5FE5C4591
:1044800006460F46EFD1009B9845EAE80267DBD16C
:10449000099B0093A7E606D1009B0EAA013B52F8A8
:1044A0002350ED1512E700224A4B15F005FB0028BA
:1044B00040F06E81054679E70EA9039551F820304A
:1044C0000699CDF8248018390246009006916BB900
:1044D00000F18043013B0EA800EB830353F804096D
:1044E000013A18390028F9D000920691069A384905
:1044F000002000F001FF009B002B04460D46C0F297
:10450000F781DA0072A901EB020B06920EAA02EB08
:104510008306DFF8C4904FF000080BF1080704365B
:1045200056F8040D14F0DCFF22462B4615F03EF839
:104530004B4667E9020142462046294615F036F807
:104540000EAB9E4204460D46EAD14AACDDF81C9003
:1045500004944FF0000AB9F1000FC0F22B81DFF88C
:104560007C805D4618A1D1E90001002600270024C7
:1045700003E0544510DCF8E80201F5E8022315F0E9
:1045800015F802460B463046394614F05DFE0134FC
:10459000A14506460F46ECDA049B03EBCA03ABF1D8
:1045A000080BC3E9006770AB9B450AF1010AD2D141
:1045B000A49B049C032B00F28980DFE803F0C58EE6
:1045C0008E1100BFAFF3008000000040FB21F93FD7
:1045D0000000F03F0000E03F0000703E98A801009E
:1045E000009B002B40F38181069A04EB020ADAE972
:1045F000008902F1080525440DF5987B1AED027B30
:1046000042464B4651EC170B8DED047B14F01CFE1B
:1046100006460F4602460B46DDE9040114F012FE81
:1046200042464B4614F010FE65E902015D45B04676
:10463000B9466AE90267E1D1009B012B40F355813D
:10464000069BE518D5E9008903F1080B04EB0B0A7A
:1046500015ED027B42464B4651EC170B8DED007B6E
:1046600014F0F2FD06460F4602460B46DDE9000156
:1046700014F0E8FD4B46424614F0E6FD6AE90201FB
:104680004EAB5345B046B94665E90267E0D100201C
:10469000002104EB0B0575E9022314F0D5FDAA45B2
:1046A000F9D1039B002B00F00A816268E368089F40
:1046B0002568A4683D6002F1004203F1004301F166
:1046C00000417A60FB60BC6038617961099B03F04E
:1046D00007000DF51B7DBDE8F08F069D08352544CC
:1046E0000020002175E9022314F0AEFDA542F9D1A6
:1046F000039B002B00F0D280089E024601F100438C
:1047000086E80C000B460246D4E9000114F09AFD3D
:10471000009B002B0BDD4CAD0124F5E8022314F0C7
:1047200093FD009B0134A342F7DA039B13B101F11F
:1047300000431946089BC3E90201099B03F00700E7
:104740000DF51B7DBDE8F08F069D0835002000218A
:10475000254475E9022314F077FDAC42F9D1039B9F
:1047600013B101F100431946089BC3E90001099BFD
:1047700003F007000DF51B7DBDE8F08F0026002734
:10478000EAE80267DA4509F108097FF4FEAC1AE5A8
:10479000009B002B08F10108C8BF02253FF79EAD22
:1047A00032463B460020614914F04CFD0225064686
:1047B0000F46FBE500260027EEE6069B002B27DDD3
:1047C0000024069B012B3FF4C4AD022B09D1009BB2
:1047D0005A1E0EAB0EA953F82230C3F3150341F84D
:1047E0002230022D7FF4E2AD32463B4600204F4995
:1047F00014F028FD06460F46002C3FF4D7ADC7E560
:104800000099013399427FF473AD069B002BD8DCED
:10481000022D7FF4CBAD32463B460020434914F0D5
:1048200011FD06460F46C1E50123ECE53946069F1A
:1048300003957A423046CDF8248000F05DFD0022D9
:104840003B4B04460D4615F037F9002843D00022B3
:10485000384B2046294614F0A9FE15F057F90646B4
:1048600014F03EFE0022324B14F0A0FE02460B462E
:104870002046294614F0E6FC15F048F900990B464D
:1048800001331A4600933B46183306930B460EA994
:1048900041F82300134641F8236027E6089B0246AF
:1048A000C3E900010B46D4E9000114F0CBFC009BE6
:1048B000002B3FF730AF089BC3E902013DE7D4E985
:1048C0000067D4E90223089DC5E90401C5E9006732
:1048D000C5E90223FAE62946204615F017F9009AA1
:1048E0000EA941F8220001E64AAC00200021D8E6DA
:1048F000A49B032B3FF6EAAE01A252F823F000BFBF
:104900001F4900001749000017490000E94800004E
:1049100001200023F2E4002000214AACE8E6002058
:1049200000211CE70A9BDB0000934CE40000F03FF1
:10493000000070410000703E2DE9F04F21F000466C
:10494000B6F1795F85B004460D469046994604DA83
:1049500015F0DCF8002800F0858022462B46204622
:10496000294614F023FE06460F4602460B46204613
:10497000294614F01BFE41A3D3E9002382468B464F
:104980003046394614F012FE3EA3D3E9002314F05A
:1049900059FC32463B4614F009FE3CA3D3E9002300
:1049A00014F052FC32463B4614F000FE39A3D3E922
:1049B000002314F047FC32463B4614F0F7FD37A3C2
:1049C000D3E9002314F040FC0E9BCDE900019BB31A
:1049D0000022294B4046494614F0E8FDDDE900235A
:1049E000CDE902015046594614F0E0FD02460B465F
:1049F000DDE9020114F026FC32463B4614F0D6FDF8
:104A000042464B4614F01EFC19A3D3E90023064688
:104A10000F465046594614F0C9FD02460B46304633
:104A2000394614F011FC02460B462046294614F084
:104A300009FC05B0BDE8F08F02460B46304639460A
:104A400014F0B4FD0AA3D3E9002314F0FBFB524693
:104A50005B4614F0ABFD22462B4614F0F5FB05B087
:104A6000BDE8F08F2046294605B0BDE8F08F00BFB5
:104A7000495555555555C53F0000E03F7CD5CF5AA7
:104A80003AD9E53DEB9C2B8AE6E55A3E7DFEB157CF
:104A9000E31DC73ED561C119A0012A3FA6F8101138
:104AA0001111813F000000002DE9F04FBE4C21F0B4
:104AB000004687B0A64282468B460F46CDE90023CA
:104AC0001BDC15F023F8002837D153461E43109BFA
:104AD0000133334300F0B381109B012B00F0C881F8
:104AE00052465B460020B14914F08AFE04460D464A
:104AF0002046294607B0BDE8F08FAD4B9E421CDD35
:104B00000029C0F2A98152465B4687A1D1E9000184
:104B100014F098FBDDE9002304460D4684A1D1E999
:104B2000000114F08FFB9FED847B22462B468DED18
:104B3000007B14F089FB82468B4652465B4650460A
:104B4000594614F033FD02460B468046894614F060
:104B50002DFD424604460D464B465046594614F03C
:104B600025FD77A3D3E90023CDE90201204629469C
:104B700014F01CFD74A3D3E9002314F065FB224656
:104B80002B4614F013FD72A3D3E9002314F05CFB51
:104B900022462B4614F00AFD6FA3D3E9002314F03C
:104BA00053FB22462B4614F001FD6DA3D3E90023ED
:104BB00014F04AFB22462B4614F0F8FC6AA3D3E912
:104BC000002314F041FB42464B4614F0EFFC68A36F
:104BD000D3E90023CDE904012046294614F0E6FC80
:104BE00065A3D3E9002314F02FFB22462B4614F0D3
:104BF000DDFC63A3D3E9002314F026FB22462B46F9
:104C000014F0D4FC60A3D3E9002314F01DFB22466A
:104C10002B4614F0CBFC5EA3D3E9002314F014FB65
:104C200022462B4614F0C2FC5BA3D3E9002314F008
:104C30000BFB02460B46DDE9040114F005FBDDE940
:104C4000022314F0B3FCDDE9004522462B4614F0A4
:104C5000FBFA42464B4614F0A9FC02460B4620469E
:104C6000294614F0F1FA4EA3D3E9002304460D4679
:104C7000DDE9020114F09AFC22462B4614F0E4FA16
:104C80000B460246804689465046594614F0DCFAE7
:104C9000474B9E4204460D4600F38E80109B012B2D
:104CA0003BD002460B460020404914F0A9FD0024E9
:104CB00006460F462046294652465B46CDE9006728
:104CC000CDE90201009414F0BDFADDE900AB024623
:104CD0000B464046494614F0B5FA52465B4614F07E
:104CE00065FC524604460D465B46DDE9020114F0C0
:104CF0005DFC00222F4B14F0A7FA02460B4620461B
:104D0000294614F0A1FA32463B4614F04FFC5246B5
:104D10005B4614F099FA04460D462046294607B032
:104D2000BDE8F08FAFF30080182D4454FB21E93F1C
:104D3000075C143326A6813C000000000000000040
:104D4000D47ABF74702AFB3EE9A7F0320FB8123F45
:104D500068108D1AF726303F1583E0FEC8DB573FF9
:104D600093846EE9E326823FFE41B31BBAA1AB3FB9
:104D7000735360DBCB75F3BEA69237A0887E143FD9
:104D80000165F2F2D844433F280356C9226D6D3FB6
:104D900037D60684F464963F7AFE10111111C13F94
:104DA000635555555555D53FFFFF2F3E0000F0BFC9
:104DB0002794E53F0000F03F109814F091FB224645
:104DC000CDE900012B462046294614F0EFFBDDE932
:104DD0000023CDE902012046294614F035FA0246A7
:104DE0000B46DDE9020114F00BFD42464B4614F080
:104DF00029FA02460B465046594614F023FA024659
:104E00000B4614F021FA02460B46DDE9000114F0CE
:104E100019FA0446B81700F00200C0F101000D466F
:104E200014F05EFB02460B462046294614F0BEFBFA
:104E300004460D462046294607B0BDE8F08F50468F
:104E4000594612F0AFFA02460B4600200A4914F008
:104E5000D7FC04460D4660E7DDE9004501F100415D
:104E6000224605F1004382468B46CDE900234AE6FF
:104E700054465D4651E700BF0000F03F00000000CF
:104E80002DE9F04FD24A21F00043934285B082468B
:104E90008B460C462DD9CF4A93421AD8002C80F26B
:104EA0001681B5A3D3E900235046594614F0CCF936
:104EB0000022002314F0ECFDC0B9B1A3D3E9002314
:104EC0005046594614F072FB02460B460020C24978
:104ED00008E1C24A934240F2D0800346C1F3130274
:104EE000134340F0F481002980F2C4800020BC49C3
:104EF000C0E0BC4A934200F22981BB4A934240F28F
:104F0000DE80002301930022B84B5046594614F02E
:104F10004DFB06460F4602460B465046594614F0D6
:104F200045FB99A3D3E9002304460D4614F03EFB4C
:104F300097A3D3E9002314F087F922462B4614F0F7
:104F400035FB95A3D3E9002314F07CF922462B46C8
:104F500014F02CFB92A3D3E9002314F075F9224638
:104F60002B4614F023FB90A3D3E9002314F06AF935
:104F700022462B4614F01AFB00229D4B14F064F9D4
:104F80008046894602460B463046394614F00EFBF1
:104F900002460B460020974914F054F90646024693
:104FA0000B460F464046494614F04CF932468046BF
:104FB00089463B465046594614F0F8FA02460B46DD
:104FC00000208D4914F03EF902460B464046494602
:104FD00014F016FC22462B4614F0E8FA019E024615
:104FE0000B46002E38D0DDE9026732463B4614F00E
:104FF00029F952465B4614F0D9FA32463B4614F082
:1050000021F92B46224614F01DF9019B0133064677
:105010000F4600F00F81019B012B00F0F180019BF6
:105020000133392B39D8019B132B40F31281019C9A
:10503000C4F57F75033500222B0514F005F90246EF
:105040000B465046594614F0FDF80022684B14F008
:10505000FBF801EB04510DE05046594614F0A6FA56
:1050600022462B4614F0EEF802460B4650465946AF
:1050700014F0E8F805B0BDE8F08F4DA3D3E90023A4
:1050800014F024FD00283FF409AF4BA3D3E900231B
:105090001046194614F08AFAECE752465B4614F0C3
:1050A000D1F802460B460020514914F0CBF8019A82
:1050B0004F4B01EB0251002214F0C4F8DAE73EA393
:1050C000D3E9002314F0C0F802460B46CAE72CA32C
:1050D000D3E900235046594614F068FA0B46434979
:1050E0000246002014F0B0F814F010FD019014F006
:1050F000F7F933A3D3E9002306460F4614F056FA16
:1051000002460B465046594614F09CF82EA3D3E9AC
:105110000023804689463046394614F047FA064651
:105120000F4632463B464046494614F08BF802464D
:105130000B4682468B464046494614F083F8324679
:105140003B4614F07FF8CDE90201DCE62B4A93429E
:1051500000F2958000291AA3D3E90023C0F2AC80A5
:1051600014F070F8012380468946019316A7D7E909
:105170000067D6E7AFF3008059F3F8C21F6EA501B0
:10518000FE822B654715F73F2DC3096EB7FD8ABE1A
:105190003952E686CACFD03EB7DBAA9E19CE143F5D
:1051A0008555FE19A0015A3FF41011111111A13FAC
:1051B000EF39FAFE422E86409C7500883CE4377E2B
:1051C0000000E0FE422EE63F763C7935EF39EA3DBD
:1051D00079684340412E86400000E0BFFFFFEF7F2B
:1051E0000000F0BF422ED63FFFFF8F3C0000E03FA3
:1051F0000000F03F0000084000001840B1A2F03F5E
:105200000022394B5046594614F042FC002844D045
:10521000504659460022354B14F016F802460B460C
:105220003046394614F00EF800224FF0404314F097
:10523000BDF91FE702460B465046594614F002F8E6
:1052400000222A4B14F0B2F90022284B13F0FAFF87
:1052500010E7019C4FF400132341C3F17F575246DE
:105260005B4613F0EFFF002607F5401702460B469A
:105270003046394613F0E6FF01EB0451FAE616A377
:10528000D3E9002314F092F9002C02460B464FF0AC
:105290000000FFF61CAE154924E732463B46504657
:1052A000594613F0CFFF02460B4613F0CDFF002204
:1052B0000F4B13F0C9FFDDE613F0C6FF4FF0FF33CD
:1052C00080468946019306A7D7E9006729E7024689
:1052D0000B4613F0B9FFCDE6FE822B654715F73F6D
:1052E000763C7935EF39EABD0000D0BF0000E03FE1
:1052F0000000F03F00000000F8B5C1F30A56044674
:105300000D460B4617460EBB21F00043034386466D
:1053100025D00022344B14F049F9344A9742044610
:105320000D460B462ADBC1F30A56363E3E4440F298
:10533000FE72964228DC002E12DD23F0FF4323F498
:10534000E00343EA065520462946F8BD40F2FF72C5
:105350009642EBD102460B4613F076FFF8BDF8BD3E
:1053600016F1350F1DDA4CF250339F4222462B4680
:1053700025DC19A1D1E9000113F0D6FE16A3D3E96B
:10538000002314F013F9F8BD22462B4614A1D1E9ED
:10539000000113F0C9FE12A3D3E9002314F006F9AB
:1053A000F8BD23F0FF4323F4E003363643EA065505
:1053B0002046294600220E4B14F0F8F8F8BD08A14B
:1053C000D1E9000113F0B0FE05A3D3E9002314F0E6
:1053D000EDF8F8BDAFF3008059F3F8C21F6EA501D8
:1053E0009C7500883CE4377E00005043B03CFFFFD2
:1053F0000000903C10B5054C237833B9044B13B131
:105400000448AFF300800123237010BD1005002075
:105410000000000050C101000C4B43B10C480D4985
:1054200010B5AFF300800C48036823B910BD0A48DB
:10543000036833B97047094B002BF7D0BDE8104023
:105440001847064B002BF5D0184700BF000000009E
:1054500050C10100140500201002002000000000CF
:10546000154B002B08BF134B9D46A3F5803A002136
:105470008B460F461348144A121A08F043FD0F4B8F
:10548000002B00D098470E4B002B00D098470020EF
:10549000002104000D000D48002802D00C48AFF395
:1054A000008013F077FE2000290005F049F913F081
:1054B0005DFE00BF000008000000022000000000A8
:1054C0000000000000040020A00C002000000000EC
:1054D0000000000070B504460E4600F0D1F888B117
:1054E00003681B6B05469847082C0CD0A4F10903F0
:1054F000012B14D93246214610230D20BDE87040FF
:1055000004F0DEB870BD2B6828469B6A98470228D5
:10551000F0DC2B6828465B6A04219847EAE72B6891
:1055200028469B6A98470528E4DC2B6828465B6A76
:1055300008219847DEE700BF30B52DED028B83B020
:10554000054600F09DF8044640B103681B6B984780
:10555000032D50D8DFE805F0373F47080190019848
:1055600003B0BDEC028B30BD20460CF093FB07EE80
:10557000900A2046F8EEE78A0CF09AFB07EE900AB4
:105580002046B8EEE78A0CF0A1FB68EE087A07EE39
:10559000100AE8EEA87AB8EEC77AE7EE077AF5EED9
:1055A000407AF1EE10FAB1EEE78A03D517EE900AD1
:1055B00012F044FCFDEEC87ACDED017A019803B0FB
:1055C000BDEC028B30BD204603B0BDEC028BBDE8C4
:1055D00030400CF05FBB204603B0BDEC028BBDE851
:1055E00030400CF065BB204603B0BDEC028BBDE83B
:1055F00030400CF06BBB00230193B0E738B5054693
:1056000000F03EF858B103681B6B0446984745B15B
:10561000012D04D12046BDE83840FBF79DB800209D
:1056200038BD2046BDE83840FBF776B810B50446D3
:1056300000F026F828B1036821465B6ABDE81040F7
:10564000184710BD0048704716FCFFFF704700BFA9
:1056500010B5034B036004460CF018F9204610BD4A
:1056600040B6010010B5054B036004460CF00EF97E
:10567000204614F0DDFC204610BD00BF40B60100FE
:105680002DE9F043C04C236885B01BB1986805B084
:10569000BDE8F0834FF0FF31012001F0FFFCC0B204
:1056A00004F000FB002800F0ED800C2014F0C2FC98
:1056B00003210646512001F0F1FCDFF8FCE2B34B78
:1056C000054605F00F07C5F3031815F4807518BFDC
:1056D0007346AF48394642460BF078FA2A1C18BF89
:1056E00001223946434630460EF0C2FA0023A9484B
:1056F000B3600BF06BFA4FF0FF31032001F0CEFCEA
:10570000C0B204F0CFFA4FF0FF310546022001F09D
:10571000C5FCC0B204F0C6FA002D00F09A80002843
:1057200000F097800146284604F0ACF807460028B0
:1057300000F0A4804FF0FF31462001F0AFFC32288A
:1057400080462BD028DD382869D068283FD14FF01B
:10575000FF31012001F0A2FCC0B204F0A3FA81469F
:105760005C2014F067FC0523054601934A46CDF8FA
:105770000080394633460DF04DFA2846B060036884
:10578000DB6A9847B06803681B6B984782480BF048
:105790001DFA2660B0687AE7302818D14FF0FF3143
:1057A000012001F07BFCC0B204F07CFA814650205D
:1057B00014F040FC1FFA88F1054605234A46009183
:1057C0000193394633460CF0F7FF2846D6E73A688E
:1057D0000125002301950095D2F82480B3600F22A3
:1057E0000DF10F0332213846C047002856D14FF043
:1057F0003208414669480BF0E9F94FF0FF310120CA
:1058000001F04CFCC0B204F04DFA8146502014F077
:1058100011FC052305464A46CDF80080D0E74FF03D
:10582000FF31012001F03AFCC0B204F03BFA81469E
:10583000502014F0FFFB052305464A46CDF80080B2
:105840003946019333460DF0C1F8554B2B6028467D
:1058500094E754480BF0BAF94FF0FF31192001F0EA
:105860001DFCC0B204F01EFA4FF0FF3105461820AF
:1058700001F014FCC0B204F015FA53E74A480BF0EB
:10588000A5F986E74FF0FF31032001F007FCC0B215
:1058900004F008FA00287FF408AFF8E63B680195A9
:1058A0000095D3F824800F220DF10F0330213846E4
:1058B000C04718B94FF0300841469BE73B68019557
:1058C0000095D3F824800D220DF10F0338213846BE
:1058D000C047C0B9382131480BF078F94FF0FF319B
:1058E000284601F0DBFBC0B204F0DCF98046502012
:1058F00014F0A0FB4FF0050E38230546424639460A
:105900008DE808409EE73A6801950095D2F824801A
:105910000DF10F03752268213846C047E0B96821B0
:105920001E480BF053F94FF0FF31284601F0B6FB4B
:10593000C0B204F0B7F980465C2014F07BFB4FF056
:10594000050E682305468DE8084042463946334631
:105950000DF060F9284611E714480BF037F9B068EC
:1059600000287FF40CAF4FF0FF31032001F096FBCD
:10597000C0B204F097F918B10D480BF027F908E709
:105980000C480BF023F904E72C05002028A901009E
:1059900030A9010050A90100E8A901000CAA0100EA
:1059A000E8A8010060A9010074A90100F8A901009C
:1059B0008CA90100C8A9010020A9010008B501F0C7
:1059C0009FFCFBF76DFCBDE8084001F0FDB900BF8E
:1059D00008B501F095FCFBF7D3FCBDE8084001F0E9
:1059E000F3B900BF08B501F08BFC11F051FDBDE823
:1059F000084001F0E9B900BF08B501F081FC12F0E0
:105A000059F9BDE8084001F0DFB900BF08B501F061
:105A100077FCFBF755FCBDE8084001F0D5B900BFA5
:105A200008B501F06DFC11F071FFBDE8084001F010
:105A3000CBB900BF08B501F063FCFAF7ADFEBDE8D5
:105A4000084001F0C1B900BF08B501F059FC11F0E0
:105A5000B1FEBDE8084001F0B7B900BF70B5049EC3
:105A600096420C4628DB15466BB1002A00EB02017A
:105A700007DD2046A21811F8013D00F8013B9042D5
:105A8000F9D1002070BD042A0FD0022A02D110F0F3
:105A9000010306D001462A46204607F043F80020BD
:105AA00070BD02880A80184670BD10F00303F1D162
:105AB00002680A60184670BD0846002108F022FA04
:105AC0004FF0FF3070BD00BF0830704740B1002973
:105AD00005DB4368994202DA0844007A70470020E7
