:1000000000000220C1620100E9620100EB62010010
:10001000ED620100EF620100F162010000000000EA
:10002000000000000000000000000000F36201007A
:10003000F562010000000000F7620100F9620100B2
:10004000FB620100FB6201006161010025610100AA
:1000500039610100FB6201003D520100116901009C
:10006000495D0100515D0100595D0100FB62010025
:10007000FB620100FB620100FB620100FB62010008
:10008000FB620100FB620100FB620100FB620100F8
:10009000FB620100FB620100FB620100FB620100E8
:1000A000FB620100FB620100615D0100695D01000E
:1000B000FB620100FB620100000000000000000084
:1000C000FB620100FB620100FB6201004D61010067
:1000D000FB620100FB620100FB620100FB620100A8
:1000E0008961010000000000000000000000000025
:1000F00000000000FB6201000000000075610100CB
:1001000000000000000000000000000000000000EF
:1001100000000000000000000000000000000000DF
:1001200000000000000000000000000000000000CF
:1001300000000000000000000000000000000000BF
:1001400000000000000000000000000000000000AF
:10015000000000000000000000000000000000009F
:10016000000000000000000000000000000000008F
:10017000000000000000000000000000000000007F
:10018000000000000000000000000000000000006F
:10019000000000000000000000000000000000005F
:1001A000000000000000000000000000000000004F
:1001B000000000000000000000000000000000003F
:1001C000000000000000000000000000000000002F
:1001D000000000000000000000000000000000001F
:1001E000000000000000000000000000000000000F
:1001F00000000000000000000000000000000000FF
:100200007CB0EE877CB0EE87FF00FF00FF00FF00B0
:10021000FF00FF00FF00FF00FF00FF00FF00FF00E6
:10022000FF00FF00FF00FF00FF00FF00FF00FF00D6
:10023000FF00FF00FF00FF002DE9F04F85B00391A4
:100240000778A7F10903042B044607F07F0200F1A9
:100250000100F5D9202AF3D02B2F04BF677804467C
:100260002D2F72D09FED427B8DED007B4FF000086B
:100270004FF000098FB34FF0000E4FF0000ADFF887
:1002800000B1754619E019F019FB804689463046E1
:1002900019F0AEFA42464B4619F05EF952468046D6
:1002A00089465B46DDE9000135B319F031FCCDE943
:1002B0000001AE4614F8017F7FB1A7F13006092E88
:1002C00052465B4640464946DDD9C5B92E2F16D168
:1002D00014F8017F0125002FEFD142464B46DDE99E
:1002E000000119F0EBFA80468946039B40464946D7
:1002F0001C6005B0BDE8F08F4FF0010EDAE7BEF1EB
:10030000000F29D042464B46DDE9000119F0D6FA2C
:1003100007F0DF07452F80468946E6D10399601C28
:100320000A2219F0FDF816490246002019F026FEAF
:1003300002460B464046494619F0C0FA80468946B7
:100340004046494605B0BDE8F08F9FED0B7B6778CE
:100350008DED007B013489E7DFF828904FF000082D
:100360004046494605B0BDE8F08F00BFAFF30080BE
:10037000000000000000F03F000000000000F0BF9F
:10038000000024400000F87F2DE9F84F16460023B6
:10039000002204460D4619F003FD002840F09D8020
:1003A000002200232046294619F0F0FC28B1302213
:1003B000002332707370BDE8F88F2046294617F08D
:1003C000EFFB19F02BFD7BA3D3E9002381462946DF
:1003D000204619F0E5FC002800F08680B9F1000FF6
:1003E000C0F2BE804A4600206F4919F0C7FD0246A0
:1003F0000B462046294619F08BFB04460D4666A1A4
:10040000D1E9000101274FF0000822462B4619F0E0
:1004100055FA0022654B19F09FF819F0EBFD002FFB
:10042000CC464FF0FF3AC1464FF0000840F38580BC
:10043000DFF888E15E4C0122AEF1700945F6F32544
:100440004FF02E0BA94208BFA0424FF0300309D352
:10045000001B61EB0501A94208BFA04203F10103A3
:10046000F6D2DBB2337050EA010306F1010409D180
:10047000BA4210DACE4502F101020CD026467EE8DF
:100480000245DFE7BA4204BF86F801B0B41CCE458E
:1004900002F10102F2D1B8F1000F0DD02246302155
:1004A00002F8011BC2F1010353442344002BF7DC83
:1004B0002AEAEA7301331C44BCF1010F4CD06523D6
:1004C000BCF1000F2370C5BF2B236370611CA11CFE
:1004D0006046BDE8F84F0FF0D3BE05F100431D465E
:1004E0002D23337001365BE72DA3D3E9002320468B
:1004F000294619F073FC00287FF470AFB9F10E0F94
:1005000009F101073DDDA9F10E0842460020264908
:1005100019F034FD02460B462046294619F0F8FA38
:100520000022224B19F018F819F064FD002FA9F1F0
:100530000F0A4FF0010C3FF77BAF334630222E24D9
:1005400003F8022B74707FEA090618D01E4403F8E2
:10055000012BB342FBD16BE700232370BDE8F88F7A
:10056000C9F100020020104919F008FD02460B46AF
:100570002046294619F0A2F904460D463FE71E46DB
:1005800056E7C9F10E0200200749C84619F0F6FCEB
:100590004FF0010939E700BF0000901EC4BCD642ED
:1005A00050EFE2D6E41A4B44000024400000E03F44
:1005B00000407A108DEDB5A0F7C6B03E20AB01002B
:1005C00070B54FF0FF3006F035FA04466FF07F400B
:1005D00006F030FA0646204619F0FAF800220C4BD5
:1005E00019F06CF9044630460D4619F0F1F806A3EF
:1005F000D3E9002319F08CFA02460B46204629461F
:1006000018F0AAFF70BD00BF0000E0DFFFFF6F43DE
:100610000000F03D000000002DE9F04F2DED028BB1
:10062000044683B0C06819F0E3F880462069894623
:1006300019F0DEF8824660698B4619F0D9F8024657
:1006400001F1004306460F464046494617F054F96B
:1006500019F02CFCE062054617F002F801902846DC
:1006600016F0B2FF019B0546184619F0D3F8424632
:100670004B4619F023F980462846894619F0CAF8F6
:1006800032463B4619F01AF902460B4640464946A7
:1006900018F060FF02460B465046594617F02CF9F9
:1006A00019F004FC002208EE100A002330463946F7
:1006B00019F094FB28B3B5EEC08AF1EE10FA1CDDF8
:1006C00011A7D7E9006718EE100A19F0A3F802463F
:1006D0000B463046394618F03DFF32463B4618F08F
:1006E0003BFF19F0E3FBA062E38843F00203E380E1
:1006F00003B0BDEC028BBDE8F08F05A7D7E900671A
:10070000E1E784ED0A8AEFE7EA2E4454FB21F93F42
:10071000EA2E4454FB21F9BF08B511F09FF8DFED34
:100720000C7A07EE100A67EE277A17EE900A19F096
:1007300071F805A3D3E9002319F0EAF919F06EFB6B
:1007400008BD00BFAFF30080EA2E4454FB211940DE
:100750000000B4430000000008B511F093F8DFED8D
:100760000C7A07EE100A67EE277A17EE900A19F056
:1007700051F805A3D3E9002319F0CAF919F04EFB8B
:1007800008BD00BFAFF30080EA2E4454FB2119409E
:100790000000B44300000000494A21F000439342A6
:1007A0002DE9704304460D464BDC464A93420E4603
:1007B0000EDC3FA3D3E9002318F0CEFE0022424B0B
:1007C00019F00CFB00284CD020462946BDE8708368
:1007D0003E4A93423BDCB3F1804F42DD16F0DAFD36
:1007E0002246804689462B462046294619F066F85F
:1007F0000022354B18F0B0FE17F00AFD02460B46FA
:100800004046494618F0A8FE02460B4600202E49F5
:1008100019F07EF9424604460D464B46404649468D
:1008200018F09AFE02460B462046294618F094FE20
:1008300002F06AF8002EC9DC01F100431946BDE858
:10084000708302460B4618F087FEBDE8708316F0F1
:10085000A1FD02F059F818A3D3E9002318F07CFE9B
:10086000E8E722462B462046294619F027F880461D
:1008700089462046294616F08DFD002204460D4685
:10088000114B4046494618F067FE17F0C1FC0022A4
:100890000D4B18F061FE02460B464046494619F0E2
:1008A00037F922462B4618F057FE00F0C5FAC1E78B
:1008B0009C7500883CE4377EEF39FAFE422EE63F15
:1008C000FFFFEF7FFFFF2F3E0000F03F0000B04131
:1008D0002DE9F84FC44B21F000469E4204460D46D8
:1008E0008A460EDDC14B9E4200F3AC8000F0A7802B
:1008F000BAF1000F40F3EA809FA1D1E90001BDE801
:10090000F88FBB4B9E4200F3B580A3F1DE739E428D
:1009100040F3A0804FF0FF3B22462B46204629465D
:1009200018F0CCFF02460B468046894618F0C6FFF9
:1009300093A3D3E9002306460F4618F0BFFF92A306
:10094000D3E9002318F008FE32463B4618F0B6FF04
:100950008FA3D3E9002318F0FFFD32463B4618F081
:10096000ADFF8DA3D3E9002318F0F6FD32463B46D8
:1009700018F0A4FF8AA3D3E9002318F0EDFD324656
:100980003B4618F09BFF88A3D3E9002318F0E4FD51
:1009900042464B4618F092FF85A3D3E900238046D8
:1009A00089463046394618F089FF83A3D3E90023EE
:1009B00018F0D0FD32463B4618F080FF80A3D3E903
:1009C000002318F0C7FD32463B4618F077FF7EA3A0
:1009D000D3E9002318F0BEFD32463B4618F06EFF07
:1009E0007BA3D3E9002318F0B5FD32463B4618F04F
:1009F00065FFBBF1FF3F02460B466CD040464946BF
:100A000018F0AAFD22462B4618F058FF794E7A4B73
:100A10004FEACB0B5E449B44DBE9002318F09AFDC0
:100A200022462B4618F096FD02460B46D6E90001F9
:100A300018F090FDBAF1000F43DBBDE8F88F0028F5
:100A40003FF456AF22462B462046294618F084FD37
:100A5000BDE8F88F60A3D3E9002318F07DFD0022E4
:100A6000664B19F0BBF900283FF454AF20462946E5
:100A7000BDE8F88F16F08EFC614B9E4204460D4691
:100A800039DCA3F550239E425EDC02460B4618F08B
:100A900063FD0022594B18F05DFD002206460F460B
:100AA0004FF080432046294618F056FD02460B467B
:100AB0003046394619F02CF84FF0000B04460D462D
:100AC0002AE701F100431946BDE8F88F44A1D1E9B6
:100AD0000001BDE8F88F4046494618F03DFD22462A
:100AE0002B4618F0EBFE02460B462046294618F02E
:100AF00031FDBDE8F88F434B9E421ADC0022424B89
:100B000018F028FD002206460F463F4B2046294696
:100B100018F0D4FE0022394B18F01EFD02460B4699
:100B20003046394618F0F4FF4FF0020B04460D46EC
:100B3000F2E602460B460020344918F0E9FF4FF078
:100B4000030B04460D46E7E600222C4B18F002FD8D
:100B5000002206460F46294B2046294618F0FCFC89
:100B600002460B463046394618F0D2FF4FF0010BD3
:100B700004460D46D0E600BF182D4454FB21F93F32
:100B800011DA22E33AAD903FEB0D76244B7BA93F7F
:100B9000513DD0A0660DB13F6E204CC5CD45B73F4D
:100BA000FF8300922449C23F0D5555555555D53FF9
:100BB0002F6C6A2C44B4A2BF9AFDDE522DDEAD3FED
:100BC0006D9A74AFF2B0B33F711623FEC671BC3F8D
:100BD000C4EB98999999C93F9C7500883CE4377E8D
:100BE000182D4454FB21F9BFFFFF0F440000F07F94
:100BF000FFFFDB3F30AB010050AB01000000F03FD6
:100C0000FFFFF23FFF7F03400000F83F0000F0BF0E
:100C10002DE9F843C1F30A59A9F2FF35132D024615
:100C20000B460C4606468846074622DC002D50DB64
:100C3000DFF8F09049FA05F901EA090E5EEA0606C6
:100C40001CD036A3D3E9002318F086FC0022002331
:100C500019F0C4F848B1002C04DD4FF4801343FAB6
:100C600005F5A84428EA0904002721463846BDE8CE
:100C7000F883332D06DDB5F5806F3DD0104619465B
:100C8000BDE8F883A9F213494FF0FF3E2EFA09F9A7
:100C900010EA090FF2D021A3D3E9002318F05CFC7D
:100CA0000022002319F09AF80028DED0002C09DD7C
:100CB000142D2BD00127C5F1340507FA05F5AE191F
:100CC00028BFB844444626EA090721463846BDE80D
:100CD000F88312A3D3E9002318F03EFC002200237E
:100CE00019F07CF80028C0D0002C0BDB54EA060772
:100CF00006D00027084CB8E718F02EFCBDE8F883B2
:100D00003C46B2E700274FF00044AEE704F101088B
:100D1000D8E700BFAFF300800000F03F9C7500886B
:100D20003CE4377EFFFF0F002DE9F041C1F30A5785
:100D3000A7F2FF35132D02460B460C4688460646A1
:100D40001CDC002D3FDB3A4F2F41864601EA070CA1
:100D50005CEA0E0E17D034A3D3E9002318F0FCFB95
:100D60000022002319F03AF820B1002C3FDB28EADA
:100D70000704002621463046BDE8F081332D06DD0C
:100D8000B5F5806F2FD010461946BDE8F081A7F267
:100D900013474FF0FF3E2EFA07F73842F3D022A355
:100DA000D3E9002318F0D8FB0022002319F016F82D
:100DB0000028DFD0002C20DB444626EA0706214627
:100DC0003046BDE8F08118A3D3E9002318F0C4FB36
:100DD0000022002319F002F80028CBD0002C17DBEA
:100DE00000263446C6E718F0B7FBBDE8F0814FF4A3
:100DF000801343FA05F5A844B9E7142D10D0012358
:100E0000C5F1340503FA05F5AE1928BF9844D3E7B8
:100E100024F00042074B324318BF1C460026A9E7C6
:100E200004F10108C8E700BF9C7500883CE4377EE8
:100E3000FFFF0F000000F0BF2DE9F04FD84B9942A3
:100E400087B0804689460E4613DCD64B21F000441D
:100E50009C4218DD0022D44B18F098FF002879D06E
:100E6000002200230020D14918F052FE07B0BDE84F
:100E7000F08FCF4B99422FDD42464B4618F06CFB6A
:100E800007B0BDE8F08FCB4B9C4270DDCA4B1E44CF
:100E90009E427ED80022C94B4046494618F05CFB72
:100EA0004FEA215AAAF2FF3ABAF1000F04460D4662
:100EB0000E4640F3DE8142464B4618F04BFB02469D
:100EC0000B460020BD4918F045FB22462B4618F082
:100ED0001FFECDE902010BE0B94B9E42DADD9FED2A
:100EE0009A7B8DED027B4FEA265A4446AAF2FF3ADE
:100EF000B44BC6F313069E4246F07F5500F3E780DD
:100F000045F44015204629460022AC4B18F022FB40
:100F1000002204460D46AC4B18F0D0FC22462B466E
:100F200018F0CCFCA046CDE90401A946CDE90001AA
:100F3000002E3AD1002200232046294618F026FF31
:100F4000002800F0CE80BAF1000F40F0748100203C
:100F5000002195E742464B464046314618F0FAFAE2
:100F600002460B4618F0D4FD07B0BDE8F08F002212
:100F7000964B18F0F1FA0022002318F02FFF0028FA
:100F800000F0CC80924B9C4200F3C880404649461A
:100F900076E700228C4B18F091FC42464B4618F045
:100FA0008DFCCDE900014FF0000A00224FF0804394
:100FB0004046494618F0D0FA02460B46404649469C
:100FC00018F0A6FD02460B4606460F4618F076FCC2
:100FD0005FA3D3E9002304460D4618F06FFC5EA31F
:100FE000D3E9002318F0B8FA22462B4618F066FC25
:100FF0005BA3D3E9002318F0AFFA22462B4618F082
:101000005DFC59A3D3E9002318F0A6FA22462B462B
:1010100018F054FC56A3D3E9002318F09DFA224699
:101020002B4618F04BFC54A3D3E9002318F094FA94
:1010300022462B4618F042FC51A3D3E9002318F0B6
:101040008BFA22462B4618F039FC04460D46BAF1BD
:10105000000F00F0BF80504618F0CAFB4AA3D3E946
:10106000002382468B4618F029FCDDE90023CDE9F8
:1010700004012046294618F06FFA32463B4618F024
:101080001DFC43A3D3E9002304460D4650465946B0
:1010900018F014FCDDE9022318F05EFA02460B4654
:1010A0002046294618F058FA02460B46DDE90001B1
:1010B00018F050FA42464B4618F04CFA02460B46DE
:1010C000DDE9040118F046FA07B0BDE8F08F45F4F9
:1010D0000015C6F5801620462946B6100AF1010A09
:1010E00012E72DA3D3E900232046294618F0E6FB9A
:1010F00002460B460020314918F02CFADDE90423A2
:1011000018F0DCFB06460F46BAF1000F73D1024619
:101110000B462046294618F01DFAB1E642464B46DA
:101120004046494618F0CAFB0022274B18F0C6FB80
:1011300002460B464046494618F00CFA07B0BDE897
:10114000F08F00BFAFF3008000000000000000003F
:1011500044523EDF12F1C23F9FC678D0099AC33F86
:10116000DE03CB966446C73FAF788E1DC571CC3F7A
:10117000599322942449D23F04FA97999999D93FD7
:10118000935555555555E53F0000E0FE422EE63F8C
:10119000763C7935EF39EA3D555555555555E53F7E
:1011A0007982DA3FFFFFEF3F0000F0BF000050C33D
:1011B000FFFFEF7FFFFF1F3E3C412D400000F03F4F
:1011C000FFFF3F439DA006000000E03F00005043AA
:1011D000FFFF8F3CDDE9004522462B4618F0BCF9A5
:1011E00032463B4618F06AFB02460B46204629462B
:1011F00018F0B0F99CE7504618F0FAFA23A3D3E9A7
:10120000002382468B4618F059FB22A3D3E9002322
:10121000804689465046594618F050FBDDE90223C6
:1012200018F09AF902460B463046394618F092F902
:1012300022462B46DCE7504618F0DAFA15A3D3E92C
:10124000002306460F4618F039FBDDE9022318F0AB
:1012500083F90EA3D3E9002304460D4630463946F0
:1012600018F02CFB02460B462046294618F074F96C
:1012700006E60022044B18F06DF902460B46404684
:10128000494618F067F920E60000F03F0000E0FE54
:10129000422EE63F763C7935EF39EA3D000000000A
:1012A00008B516F0FDFB04A3D3E9002318F030FCC9
:1012B00008BD00BFAFF30080EF39FAFE422EE63FD3
:1012C0002DE9F043DFF8B4808BB004460D4601F001
:1012D000F3F898F90030013306460F462BD022462A
:1012E0002B462046294618F083FD814618BB204630
:1012F000294616F04FF81FA3D3E9002318F06EFD1E
:10130000C8B1194A98F90030CDF820900321CDE9F1
:101310000445CDE902458DE806008BB9134B4FF02B
:101320006042CDE90623684617F016FF70B1089BAE
:101330009BB9DDE90667304639460BB0BDE8F0835E
:101340000B490020022BCDE90601ECD118F090F8F2
:1013500022230360089B002BEBD018F089F8089B30
:101360000360E6E7AFF3008040BE0100FFFFEF47F8
:101370000000F07F7DF8B98FCE338640FF0100205A
:101380002DE9F043DFF8E4808BB004460D4601F010
:1013900043F998F90030013306460F4633D0204612
:1013A000294617F0D3FE70B32CA3D3E900232046BF
:1013B000294618F013FD814650BB2AA3D3E9002328
:1013C0002046294618F0ECFCE8B198F90030204A94
:1013D000CDF82090002600270421022BCDE90445FA
:1013E000CDE90245CDE906678DE8060029D06846BB
:1013F00017F0B2FE28B3089B1BB118F039F8089B10
:101400000360DDE90667304639460BB0BDE8F0837E
:101410000F4A98F90030019203210022CDE90445DA
:10142000CDE90245009108922BB90A4B4FF060427A
:10143000CDE90623DBE708490020022BCDE90601B0
:10144000D5D118F015F822230360D4E7AFF300805C
:1014500048BE0100FFFFEF470000F07FEF39FAFEC2
:10146000422E864051302DD5104987C0FF01002003
:101470002DE9F04FDFF80C938DB006460F46144669
:101480001D4601F0C5FC99F90080B8F1FF3FCDE998
:10149000000136D022462B462046294618F0A8FCEB
:1014A000834670BB32463B463046394618F0A0FCB6
:1014B0008246002840F0A2803046394600220023B0
:1014C00018F064FC10B3002200232046294618F0CF
:1014D0005DFC834600286AD09FEDA17B0122A44BCE
:1014E000CDF828A00292CDE90467CDE906458DED3F
:1014F000087B0393B8F1000F45D09FED9B7B8DEDEA
:10150000007BDDE900010DB0BDE8F08FDDE90001F1
:1015100017F01CFE8046002800F08D804FF0000A76
:101520004FF0000BDDE9000152465B4618F02EFC3F
:101530000028E6D03046394617F008FE0028E0D0F3
:101540002046294617F002FE0028DAD099F900302B
:10155000874A039204210022022BCDE90467CDE9DA
:101560000645CDE908AB02910A9203D002A817F014
:10157000F3FD68B917F07CFF2223036008E09FEDBC
:10158000787B8DED087B02A817F0E6FD002830D0AF
:101590000A9B1BB117F06CFF0A9B03609DED087B53
:1015A0008DED007BDDE900010DB0BDE8F08F204638
:1015B000294617F0CBFD0028A3D0002200232046A7
:1015C000294618F0EDFB00289BD099F90030684AB5
:1015D000CDF828B00121CDE90467CDE90645029197
:1015E0000392002BCBD063490020022BCDE90801E8
:1015F000C9D117F03DFF21230360C9E70022002372
:101600002046294618F0C2FB00283FF47AAF5A4B17
:101610005749CDF828B000220120B8F1020FCDE9DA
:1016200004670290CDE90645CDE908230391AAD1CC
:10163000CDE9002365E73046394617F087FD0028DD
:101640003FF46CAF2046294617F080FD00283FF498
:1016500065AFDDE900231046194618F0C9FB0028E4
:101660005FD1032399F900800293414B0A90CDE9A1
:101670000467CDE906450393B8F1000F2BD1DFF8DD
:1016800008B14FF0604A0022002330463946CDE9C8
:1016900008AB18F085FB00283FF468AF0022374BF9
:1016A0002046294618F00AF904460D4617F05CFD5D
:1016B00002460B462046294618F068FB70BB304BAB
:1016C00099F900804FF06042CDE90823B8F1020F8C
:1016D0007FF44CAF4EE7DFF8B4B04FF0000A0022C1
:1016E000002330463946CDE908AB18F059FB0028F5
:1016F000ECD00022214B2046294618F0DFF80446A2
:101700000D4617F031FD02460B462046294618F0DB
:101710003DFB18B9174B0022CDE9082399F9008049
:10172000D4E799F90090124BCDF828800122CDE939
:101730000467CDE9064502920393B9F1000F3FF427
:101740001EAF002200231046194618F0E1F9B9F146
:10175000020FCDE908013FF44CAF14E7AFF300806E
:101760000000000000000000000000000000F03F4A
:1017700060BE01000000F0FF0000F03F0000E03F0D
:10178000FFFFEFC7FF010020FFFFEF470000F07FE2
:101790002DE9F84FC44E21F00043B34204460D46F4
:1017A0000DDD03F1404303F58013034340F0B9809E
:1017B000002940F3408100200021BDE8F88FBB4E96
:1017C000B34240F3A6800029C0F2788102460B465E
:1017D0000020B74917F0BEFE0022B64B18F06EF895
:1017E00004460D4616F014FD95A3D3E9002389465F
:1017F00080462946204618F061F893A3D3E90023D8
:1018000017F0AAFE22462B4618F058F890A3D3E909
:10181000002317F09FFE22462B4618F04FF88EA3A8
:10182000D3E9002317F098FE22462B4618F046F81D
:101830008BA3D3E9002317F08DFE22462B4618F028
:101840003DF889A3D3E9002317F086FE22462B46F4
:1018500018F034F886A3D3E9002382468B4620464D
:10186000294618F02BF884A3D3E9002317F072FE61
:1018700022462B4618F022F881A3D3E9002317F063
:101880006BFE22462B4618F019F87FA3D3E90023FC
:1018900017F060FE22462B4618F010F80022844B09
:1018A00017F05AFE02460B465046594618F030F9DA
:1018B00042464B4618F002F8002682468B463246D6
:1018C0004B463046494617F0F9FF02460B46204684
:1018D000294617F03FFE324604460D464B46404629
:1018E000494617F039FE02460B462046294618F0B5
:1018F0000FF902460B465046594617F02DFE324668
:101900004B4617F029FE02460B4617F025FEBDE8B0
:10191000F88F694A93420EDC5DA1D1E90001BDE870
:10192000F88F02460B4617F015FE02460B4618F0DC
:10193000EFF8BDE8F88F02460B4617F0BFFF40A353
:10194000D3E9002306460F4617F0B8FF3EA3D3E9BC
:10195000002317F001FE32463B4617F0AFFF3CA3D1
:10196000D3E9002317F0F6FD32463B4617F0A6FFF9
:1019700039A3D3E9002317F0EFFD32463B4617F0B9
:101980009DFF37A3D3E9002317F0E4FD32463B4621
:1019900017F094FF34A3D3E9002317F0DDFD32469E
:1019A0003B4617F08BFF32A3D3E9002380468946DC
:1019B0003046394617F082FF2FA3D3E9002317F0F2
:1019C000C9FD32463B4617F079FF2DA3D3E900232A
:1019D00017F0C2FD32463B4617F070FF2AA3D3E949
:1019E000002317F0B7FD32463B4617F067FF002291
:1019F0002F4B17F0B1FD02460B464046494618F002
:101A000087F822462B4617F059FF02460B4622A1C3
:101A1000D1E9000117F09EFD02460B4620462946FB
:101A200017F098FD02460B4619A1D1E9000117F005
:101A300091FDBDE8F88F1AA1D1E90001BDE8F88F4A
:101A400009F7FD0DE13D023F88B20175E0EF493F26
:101A50003B8F68B52882A43F5544880E55C1C93FC5
:101A60007D6FEB0312D6D43F555555555555C53F9F
:101A700082922EB1C5B8B33F59018D1B6C06E63F6B
:101A8000C88A599CE52A00404B2D8A1C273A0340FE
:101A9000182D4454FB21F93F075C143326A6913CD2
:101AA000182D4454FB210940FFFFEF3FFFFFDF3FAC
:101AB0000000F03F0000E03F0000603C00225C4B73
:101AC00017F04AFD00225B4B17F0F8FE40A3D3E964
:101AD000002304460D4617F0F1FE3FA3D3E900238F
:101AE00017F03AFD22462B4617F0E8FE3CA3D3E957
:101AF000002317F02FFD22462B4617F0DFFE3AA3F6
:101B0000D3E9002317F028FD22462B4617F0D6FE16
:101B100037A3D3E9002317F01DFD22462B4617F00B
:101B2000CDFE35A3D3E9002317F016FD22462B4640
:101B300017F0C4FE804689462046294616F068FB09
:101B40002FA3D3E9002306460F462046294617F067
:101B5000B5FE2DA3D3E9002317F0FCFC22462B464B
:101B600017F0ACFE2AA3D3E9002317F0F5FC2246B8
:101B70002B4617F0A3FE28A3D3E9002317F0EAFCB5
:101B800022462B4617F09AFE0022294B17F0E4FC60
:101B900002460B464046494617F0BAFF32463B46DE
:101BA00017F08CFE1EA3D3E9002317F0D3FC3246B6
:101BB0003B4617F0D1FC02460B4617F0CDFC02461F
:101BC0000B4619A1D1E9000117F0C4FCBDE8F88F5C
:101BD00009F7FD0DE13D023F88B20175E0EF493F95
:101BE0003B8F68B52882A43F5544880E55C1C93F34
:101BF0007D6FEB0312D6D43F555555555555C53F0E
:101C000082922EB1C5B8B33F59018D1B6C06E63FD9
:101C1000C88A599CE52A00404B2D8A1C273A03406C
:101C2000075C143326A6913C182D4454FB2109402F
:101C30000000F03F0000E03F434A91422DE9F843A5
:101C400004460D4639DD414A914209DD02F17952DF
:101C5000914240DD02460B4617F07EFCBDE8F8835A
:101C600001F1404202F58012024330D0B1F1804FC1
:101C70003ADC0022364B17F06DFC02460B46044658
:101C80000D4617F069FC224606460F462B462046B5
:101C9000294617F013FE02460B463046394617F028
:101CA0005BFC16F0B5FA0B4602462946204617F0B3
:101CB00053FCBDE8F843FFF7BFB802460B4617F0E8
:101CC00049FC02460B4617F023FFBDE8F8830020CD
:101CD0000021BDE8F88300F017FE19A3D3E9002323
:101CE00017F03AFCBDE8F88302460B4617F0E6FD14
:101CF0000022174B17F02EFC16F08AFA2246804677
:101D000089462B462046294617F026FC42460646C1
:101D10000F464B462046294617F01EFC02460B464E
:101D200000200B4917F0F4FE0B46024639463046B8
:101D300017F010FCBDE8F84300F0E6BDAFF30080FB
:101D4000EF39FAFE422EE63FFFFFEF3FFFFFAF41C4
:101D50000000F03F000000002DE9F047BE4B21F0ED
:101D60000048984584B004460D4612DD08F140480D
:101D700008F58018034658EA030321D002460B46B3
:101D800017F0E8FB02460B4617F0C2FE04B0BDE8B0
:101D9000F087B24B98458A4629DCB8F1795F80F22A
:101DA000658191A3D3E9002317F0D6FB0022AC4B49
:101DB00018F014F8D8B12046294604B0BDE8F087E1
:101DC0008BA3D3E9002317F079FD8BA3D3E900237C
:101DD00006460F462046294617F070FD02460B4680
:101DE0003046394617F0B8FB04B0BDE8F08720460E
:101DF000294615F0CFFA02460B460020984917F005
:101E0000A9FB0022974B17F059FD7DA3D3E90023CE
:101E100004460D4617F052FD7BA3D3E9002317F0CB
:101E20009BFB22462B4617F049FD79A3D3E90023FB
:101E300017F090FB22462B4617F040FD76A3D3E91E
:101E4000002317F089FB22462B4617F037FD74A3B9
:101E5000D3E9002317F07EFB22462B4617F02EFD18
:101E600071A3D3E9002317F077FB22462B4617F026
:101E700025FD6FA3D3E90023CDE9000120462946C3
:101E800017F01CFD6CA3D3E9002317F063FB224677
:101E90002B4617F013FD6AA3D3E9002317F05CFB70
:101EA00022462B4617F00AFD67A3D3E9002317F05B
:101EB00051FB22462B4617F001FD694B002217F01B
:101EC0004BFBCDE902012046294616F0A1F9664BED
:101ED000984506460F4666DCDDE90223DDE9000190
:101EE00017F016FE3246CDE900013B463046394632
:101EF00017F032FB02460B46DDE9000117F0DEFC6D
:101F00004FF00008CDE9000142463B4640463946C5
:101F100017F0D4FC02460B462046294617F01AFB60
:101F2000424604460D463B463046394617F014FB00
:101F300002460B462046294617F0EAFD02460B46AC
:101F400017F00AFB02460B462BA1D1E9000117F05E
:101F500001FB02460B46DDE9000117F0FBFA4246A1
:101F600004460D463B464046394617F0F5FA024610
:101F70000B4637A1D1E9000117F0ECFA02460B46F7
:101F80002046294617F0E6FA02460B4630A1D1E971
:101F9000000117F0DFFABAF1000F3FF7F7AE01F1D9
:101FA00000431946F2E6DDE90223DDE9000117F0FE
:101FB000AFFD32463B4617F081FC32463B4617F0F8
:101FC000CBFA02460B4617F0C7FA0BA3D3E900235E
:101FD00017F0C0FA02460B4605A1D1E9000117F03F
:101FE000B9FAD8E7AFF300809C7500883CE4377EEF
:101FF000182D4454FB21F93F075C143326A6913C6D
:1020000009F7FD0DE13D023F88B20175E0EF493F60
:102010003B8F68B52882A43F5544880E55C1C93FFF
:102020007D6FEB0312D6D43F555555555555C53FD9
:1020300082922EB1C5B8B33F59018D1B6C06E63FA5
:10204000C88A599CE52A00404B2D8A1C273A034038
:10205000182D4454FB21E93FFFFFEF3FFFFFDF3F17
:102060000000F03F0000E03F3233EF3F02460B46F6
:1020700017F024FC37A3D3E9002306460F4617F0D8
:102080001DFC36A3D3E9002317F066FA32463B461F
:1020900017F014FC33A3D3E9002317F05BFA3246A0
:1020A0003B4617F00BFC31A3D3E9002317F054FA99
:1020B00032463B4617F002FC2EA3D3E9002317F06B
:1020C00049FA32463B4617F0F9FB2CA3D3E900232B
:1020D00017F042FA32463B4617F0F0FB29A3D3E94A
:1020E0000023804689463046394617F0E7FB27A390
:1020F000D3E9002317F02EFA32463B4617F0DEFBF9
:1021000024A3D3E9002317F027FA32463B4617F001
:10211000D5FB22A3D3E9002317F01CFA32463B4635
:1021200017F0CCFB00220A4B17F016FA02460B46BA
:102130004046494617F0ECFC22462B4617F0BEFB02
:1021400022462B4617F008FA04B0BDE8F08700BF1E
:102150000000F03F09F7FD0DE13D023F88B2017537
:10216000E0EF493F3B8F68B52882A43F5544880E75
:1021700055C1C93F7D6FEB0312D6D43F5555555518
:102180005555C53F82922EB1C5B8B33F59018D1B3D
:102190006C06E63FC88A599CE52A00404B2D8A1CF4
:1021A000273A0340000000002DE9F84F1D46534236
:1021B000134325F0004ADFF8E0E14AEAD3737345A0
:1021C000144606460F4647D8C0F1000848EA000802
:1021D00021F0004343EAD878F0458B463CD805F11E
:1021E000404808F5801858EA020850D04FEAA57810
:1021F00008F0020848EAD17850EA030134D052EAE4
:102200000A023CD0F24557D0734538D0A3EB0A03FD
:102210001B153C2B42DC002D70DB22462B46304642
:10222000394617F075FC15F0B5F8FEF751FBB8F11B
:10223000010F5FD0B8F1020F4ED0B8F1000F62D09D
:1022400043A3D3E9002317F085F943A3D3E900237F
:1022500017F080F9BDE8F88F32463B462046294604
:1022600017F07AF9BDE8F88FB8F1020F1AD0B8F17B
:10227000030F10D13AA1D1E90001BDE8F88FBBF1FD
:10228000000F14DB38A1D1E90001BDE8F88FBDE8EB
:10229000F84FFEF71DBB3946BDE8F88F32A1D1E9F2
:1022A0000001C4E72CA1D1E90001BDE8F88F30A1FD
:1022B000D1E90001BDE8F88F534526D0B8F1020FEF
:1022C000F0D0B8F1030FD5D0B8F1010F4FF00000F6
:1022D00029D00021BDE8F88F1DA3D3E9002317F012
:1022E00039F902460B461CA1D1E9000117F032F979
:1022F000BDE8F88F01F10041BDE8F88F3C338CDA7E
:102300000020002193E7BDE8F88FB8F1020F18D044
:10231000B8F1030F10D0B8F1010F08D016A1D1E920
:102320000001BDE8F88F4FF00041BDE8F88F14A11F
:10233000D1E90001BDE8F88F13A1D1E90001BDE8A2
:10234000F88F13A1D1E90001BDE8F88FAFF3008049
:10235000075C143326A6A13C182D4454FB210940E8
:10236000182D4454FB2109C0182D4454FB21F93F7A
:10237000182D4454FB21F9BF182D4454FB21E93F8B
:10238000182D4454FB21E9BFD221337F7CD902C0F0
:10239000D221337F7CD902400000F07F0000000092
:1023A00043422DE9F047034321F000463E4A46EA06
:1023B000D373934204460D4613D896423DD03B4B0F
:1023C0009E428A4617DC36A3D3E9002317F0C4F8EF
:1023D0000022002317F002FDA8B320462946BDE8DD
:1023E000F08702460B4617F0B5F802460B4617F089
:1023F0008FFBBDE8F0872E4B9E42354624DD3346E9
:102400000246314617F0A8F8224606460F462B46EC
:102410000020254917F09EF802460B463046394603
:1024200017F076FBFEF708FD0022224B17F046FA64
:10243000BAF1000F2FDBBDE8F0870022002317F070
:1024400067FBBDE8F087354622462B4620462946E5
:1024500017F082F822462B4606460F4617F02EFA52
:102460002246804689462B4600200F4917F072F815
:1024700002460B464046494617F04AFB32463B4669
:1024800017F06AF8FEF7D8FC00220A4B17F016FA8C
:10249000BAF1000FCFDA01F100431946BDE8F08729
:1024A0009C7500883CE4377E0000F03FFFFF2F3E24
:1024B000FFFFDF3F0000E03F2DE9F8434E4B21F0E6
:1024C00000449C4206460F461BDC4C4B9C4222DDDE
:1024D0004B4B9C4263DD4B4B9C427BDD4A4B9C4209
:1024E00046DD01339C4240D041A3D3E9002310468E
:1024F000194617F0E3F906460F4630463946BDE85F
:10250000F88302460B4617F0D9F906460F463046C7
:102510003946BDE8F88314F03DFF02F0B1FC00221B
:102520003A4B8046894617F017F8B4F1725F0646B9
:102530000F46ECDB42464B464046494617F0BEF993
:1025400032463B4604460D463046394617F004F8FD
:1025500002460B462046294617F0DAFA00222B4B9A
:1025600016F0FAFF06460F46D1E7294B9842BBD832
:102570003046394614F00EFF0022264B17F09EF924
:1025800000F04AF8002204460D46224B17F096F957
:1025900022462B4617F092F906460F46B7E714F08D
:1025A000F9FE00F039F800221A4B06460F4617F0E4
:1025B00085F932463B4604460D460020154917F082
:1025C000A7FA02460B462046294616F0C5FF0646E6
:1025D0000F469CE714F0DEFE00F01EF800220D4BC3
:1025E00017F06CF906460F4691E700BFAFF3008085
:1025F0009C7500883CE4377EFFFFEF7F422ED63F7C
:10260000FFFF3540412E8640CD3386400000F03F2D
:102610007DF8B98F0000E03F2DE9F04FB04E21F07A
:102620000042B24283B004460D464FEAD1770DD93D
:10263000AC4EB24225D9C1F31303034340F0EC8002
:102640000FB10020002103B0BDE8F08FA64B9A42E5
:1026500000F2CB80A54B9A4200F2DC808AA3D3E93A
:10266000002316F079FF0022A14B17F0B7FB0028DA
:1026700000F006812046294600229D4B16F06CFF93
:10268000E1E783A3D3E9002317F0A8FB002840F07B
:10269000C88081A3D3E900232046294617F080FB98
:1026A0000028CED1934E7EA3D3E9002306EBC706C4
:1026B0002046294617F002F9D6E9002316F04CFF10
:1026C00017F0ACFB064617F093F877A3D3E9002385
:1026D0008046894617F0F2F802460B462046294606
:1026E00016F038FF72A3D3E90023CDE9000140467C
:1026F000494617F0E3F882468B4652465B46DDE9D1
:10270000000116F027FF04460D4622462B462046C0
:10271000294617F0D3F868A3D3E9002380468946F9
:1027200017F0CCF866A3D3E9002316F013FF424656
:102730004B4617F0C3F864A3D3E9002316F00CFF4F
:1027400042464B4617F0BAF861A3D3E9002316F0CE
:1027500001FF42464B4617F0B1F85FA3D3E90023CF
:1027600016F0FAFE42464B4617F0A8F802460B4612
:102770002046294616F0EEFE80468946002E58D0A7
:102780002046294642464B4617F098F842460446F2
:102790000D464B4600204FF0804116F0DBFE02460E
:1027A0000B462046294617F0B3F902460B46504621
:1027B000594616F0CFFEDDE9002316F0CBFE0B469E
:1027C00002464B49002016F0C5FE6FF47F739E420F
:1027D00051DA06F57A7601EB065100224FF0B87314
:1027E00017F06CF803B0BDE8F08F434B9A423FF608
:1027F00059AF424BFC002344D3E9002316F0AAFE54
:102800003F4BC7F101062344CDE90001D3E900ABFA
:10281000F61B72E7002678E702460B4616F09CFE90
:1028200011E719A3D3E900231046194617F046F81B
:1028300009E702460B462046294617F03FF80022DA
:1028400006460F464FF080434046494616F082FE4A
:1028500002460B463046394617F05AF922462B46B7
:1028600016F078FE02460B460020214916F072FE53
:1028700003B0BDE8F08F01EB065103B0BDE8F08F67
:10288000064642E7AFF300809C7500883CE4377E43
:10289000EF39FAFE422E864051302DD5104987C0BF
:1028A000FE822B654715F73F0000E0FE422EE63F13
:1028B000763C7935EF39EA3DD0A4BE726937663E81
:1028C000F16BD2C541BDBB3E2CDE25AF6A56113F30
:1028D00093BDBE166CC1663F3E5555555555C53F17
:1028E000412E8640FFFFEF7F422ED63FFFFF2F3E57
:1028F0000000F03F70AB0100B1A2F03F80AB0100DF
:1029000090AB0100000000002DE9F04FB1F5801FF1
:1029100085B006460F460B465ADA024621F00044BF
:10292000224300F0F8800029C0F27A810022D64BC1
:1029300016F0C4FFD54A0B46934206460F466FF089
:10294000350C4ADCC3F3130505F5152E0EF6647E2F
:102950000EF4801E8EF07F5282F440121C1542EA63
:102960000507A4F2FF3464440022C94B30463946BF
:1029700004EB1E5416F0EEFDAB1CC3F31303022B45
:1029800082468B464FF0000230DC002317F0FEF940
:10299000002800F0C980002C00F04B81204616F082
:1029A00027FFA5A3D3E9002306460F4616F086FFAE
:1029B000A3A3D3E9002304460D463046394616F05A
:1029C0007DFF02460B462046294616F0C5FD0AE06B
:1029D000AE4A93424FF0000CB4DD32463B463046DF
:1029E000394616F0B9FD05B0BDE8F08F4FF08043D1
:1029F00016F0B2FD02460B465046594617F088F8CD
:102A0000064620460F4616F0F3FE3246CDE9000199
:102A10003B4630463946CDE9026716F04FFF024685
:102A20000B468046894616F049FF87A3D3E9002369
:102A300006460F4616F042FF85A3D3E9002316F0A1
:102A40008BFD32463B4616F039FF83A3D3E90023C2
:102A500016F082FD32463B4616F030FF80A3D3E9E4
:102A6000002316F079FD42464B4616F027FF7EA361
:102A7000D3E90023804689463046394616F01EFFCA
:102A80007BA3D3E9002316F067FD32463B4616F0E0
:102A900015FF79A3D3E9002316F05EFD32463B46CD
:102AA00016F00CFF0B4602464946404616F054FD10
:102AB000A5F5C223C5F5D725A3F27A4351351D43A9
:102AC000002D8046894656DD0022724B50465946FD
:102AD00016F0F4FE52465B4616F0F0FE06460F4630
:102AE000002C68D132463B464046494616F034FD3C
:102AF000DDE9022316F0E2FE02460B463046394677
:102B000016F028FD02460B465046594616F022FDA7
:102B100005B0BDE8F08F0022002300205E4916F0CA
:102B2000F7FF05B0BDE8F08F55A3D3E90023504669
:102B3000594616F0C3FE02460B460020554916F0D2
:102B400009FD524606460F465B465046594616F06A
:102B5000B5FE02460B463046394616F0AFFE064635
:102B60000F46002C40F09A8002460B4650465946CC
:102B700016F0F0FC37E7002C00F0A4802EA3D3E978
:102B80000023DDE9000116F099FE42464B4604465B
:102B90000D465046594616F0DDFCDDE9022316F0DD
:102BA0008DFE27A3D3E9002306460F46DDE9000189
:102BB00016F084FE21E020A3D3E90023DDE9000123
:102BC00016F07CFE32463B4604460D4640464946DA
:102BD00016F0C2FCDDE9022316F070FE18A3D3E95B
:102BE000002380468946DDE9000116F067FE0246B3
:102BF0000B464046494616F0AFFC02460B463046AF
:102C0000394616F0A7FC52465B4616F0A3FC024676
:102C10000B462046294616F09DFC05B0BDE8F08F16
:102C200002460B4616F096FC0022002316F070FFB9
:102C3000D9E600200021D6E60000E0FE422EE63F65
:102C4000763C7935EF39EA3D44523EDF12F1C23F1E
:102C5000DE03CB966446C73F599322942449D23F62
:102C6000935555555555E53F9FC678D0099AC33FB2
:102C7000AF788E1DC571CC3F04FA97999999D93FC9
:102C8000555555555555D53F00005043FFFFEF7F33
:102C90000000F03F0000E03F000050C3204616F067
:102CA000A7FD0FA3D3E900238046894616F006FE50
:102CB0000DA3D3E9002304460D464046494616F0CD
:102CC000FDFD9AE702460B465046594616F042FC77
:102CD000DDE9022316F0F2FD14E700BFAFF3008038
:102CE0000000E0FE422EE63F763C7935EF39EA3DC2
:102CF000B1F5801F2DE9F84304460D460B461ADA5C
:102D0000024621F00046324359D000295FDB002201
:102D10003B4B16F0D3FD3B4A0D462B4693420446EF
:102D20006FF035010CDD22462B462046294616F071
:102D300013FCBDE8F883334A93424FF00001F2DC04
:102D40001815A0F2FF3008444FEAD0794844C3F385
:102D5000130816F04DFDC9F57F73033348EA035598
:102D600006460F4620462946FFF7CEFD1EA3D3E9AF
:102D70000023804689463046394616F09FFD1CA345
:102D8000D3E9002304460D464046494616F096FD19
:102D900002460B462046294616F0DEFB16A3D3E971
:102DA000002304460D463046394616F087FD02469C
:102DB0000B462046294616F0CFFBBDE8F8830022DB
:102DC00000230020104916F0A3FEBDE8F883024658
:102DD0000B4616F0BFFB0022002316F099FEBDE85B
:102DE000F88300BFAFF30080362BF111F3FE593D9D
:102DF0000EE526157BCBDB3F00609F501344D33F8D
:102E000000005043FFFFEF7F000050C300000000B0
:102E10002DE9F04F23F0004757EA020493B037D072
:102E2000674C21F00046A64283460D4629DC9A46AF
:102E3000964625D0A74224DC614CA74279D0002DCC
:102E400080468946CDE9002377DB0024BEF1000FE0
:102E50002CD15B4B9F4200F08B805A4B9F4261D03C
:102E6000BAF1804F00F0C383574B9A451ED1002D15
:102E70001CDB4046494613B0BDE8F04F15F0C8B919
:102E800058B106F1404606F5801656EA0B0306D106
:102E90004C49002013B0BDE8F08FB742CCDD4B4861
:102EA00013B0BDE8F04F16F059B90024404649462A
:102EB00014F070FABBF1000F19D126B1414B25F087
:102EC00040429A4213D1BAF1000FC0F2CA83002DDA
:102ED000E0DA06F1404606F5801656EA040300F0F3
:102EE000A584012CD6D101F100431946D2E7ED0F9C
:102EF000013D54EA05034ED0354B9F426EDD03F190
:102F000004739F4240F3FE83324B9E424EDDBAF182
:102F1000000F4EDD28A3D3E900231046194616F012
:102F2000CDFCB7E7BAF1000FC0F2528440464946E3
:102F3000B0E7BEF1000F82D0A3E7274B9F4228DC09
:102F4000A3F154739F4280DD3B15A3F2FF33142B92
:102F500040F35484C3F134032EFA03F202FA03F36C
:102F60009E457FF472AF02F00102C2F102046DE7E8
:102F700006F1404303F5801353EA0B0388D0154B49
:102F80009E4240F33B83BAF1000F12DBDDE9000102
:102F900080E702245AE742464B461046194616F08F
:102FA000D9FA02460B4616F0B3FD73E7BAF1000FEB
:102FB000B0DB002000216DE79C7500883CE4377E83
:102FC0000000F07F0000F03F0000E03FBCB30100D4
:102FD0000000E041FFFFEF3FFFFF3F43B6F5801FDA
:102FE0004FF0000205DAD84B16F068FC6FF034029F
:102FF0000E463315D54FC6F31306A3F2FF33134421
:1030000046F07F5ABE421A460D934AF4401A40F3E6
:103010002F83CF4B9E4240F30D849FEDB57B8DED0A
:10302000087B8DED0E7B9FEDB47B13468DED067B0B
:1030300001330D93AAF5801A0027DDE906235146D6
:10304000CDE90A0116F086FADDE9062380468946B5
:10305000DDE90A0116F080FA02460B460020BD4960
:1030600016F056FD0A460146CDE9101213464946B0
:103070000246404616F022FC4FEA6A0343F0005332
:103080008C46834603F50023CDE904BCDA468B4623
:10309000D9190023CDE902AB0293DDE902AB002090
:1030A00006460F4602460B465046594616F006FCA9
:1030B00002460B464046494616F04CFADDE9062327
:1030C000804689463046394616F044FA02460B4699
:1030D000DDE90A0116F03EFA52465B4616F0EEFBB9
:1030E00002460B464046494616F034FADDE9102305
:1030F00016F0E4FBDDE90467CDE9060132463B4604
:103100003046394616F0DAFB7DA3D3E900230646A4
:103110000F4616F0D3FB7CA3D3E9002316F01CFA6C
:1031200032463B4616F0CAFB79A3D3E9002316F0DA
:1031300013FA32463B4616F0C1FB77A3D3E90023CE
:1031400016F00AFA32463B4616F0B8FB74A3D3E9F0
:10315000002316F001FA32463B4616F0AFFB72A38D
:10316000D3E9002316F0F8F93246804689463B46FB
:103170003046394616F0A2FB02460B464046494609
:1031800016F09CFB524606460F465B46DDE90401FD
:1031900016F0E2F9DDE9062316F090FB32463B46D5
:1031A00016F0DAF95246804689465B465046594643
:1031B00016F084FB0022684BCDE90A0116F0CCF929
:1031C00042464B4616F0C8F902980F46064632466C
:1031D0003B465046594616F071FB002282468B460C
:1031E0005D4B3046394616F0B5F9DDE90A2316F095
:1031F000B1F902460B464046494616F0ABF9DDE907
:10320000042316F05BFB3246804689463B46DDE9E7
:10321000060116F053FB02460B464046494616F09F
:103220009BF98046894602460B4650465946CDE9F1
:1032300004AB16F091F9DDE902AB3DA3D3E900231D
:1032400050460F4616F03AFBDDE90423CDE90201B2
:103250003946504616F07EF902460B46404649462E
:1032600016F078F934A3D3E9002316F027FB34A332
:10327000D3E90023804689465046394616F01EFBA6
:1032800002460B464046494616F066F9DDE90E2334
:1032900016F062F980460D98894616F0A9FA424662
:1032A00006460F464B46DDE9020116F055F9DDE909
:1032B000082316F051F932463B4616F04DF93246D6
:1032C0003B4650468B4616F045F9DDE9082316F0DB
:1032D00041F9DDE9022316F03DF902460B4640466E
:1032E000494616F037F98046894637E0AFF300804B
:1032F0000000000000000000000000000000F03F9F
:10330000EF4E454A287ECA3F65DBC9934A86CD3FCA
:1033100001411DA96074D13F4D268F515555D53FB0
:10332000FFAB6FDBB66DDB3F033333333333E33F48
:10333000000000E009C7EE3FFD033ADC09C7EE3F9D
:10334000F5015B14E02F3EBE000040438E98030061
:1033500079B60B000000F03F00000840013C54EA41
:10336000050300F079819FEDC87B8DED047BDDE9DD
:1033700000120B461446CDE9023400230293DDE926
:10338000024508462B461146224616F0E3F85246FF
:103390005B4616F093FADDE9002306460F464046E9
:1033A000494616F08BFA02460B463046394616F06F
:1033B000D3F82246804689462B4650465946CDE9E9
:1033C000008916F07BFA0B46024606460F46404639
:1033D000494616F0C1F8C64B994204460D468A4646
:1033E00040F3168101F13F4303F5E003034340F04E
:1033F000F781A7A3D3E90023DDE9000116F0ACF8BB
:103400003246804689463B462046294616F0A2F8B9
:1034100002460B464046494616F0E0FC002840F0C4
:10342000DF81A8464FEA28534FF48012A3F2FE33FF
:1034300042FA03F35344C3F30A52AE4DA2F2FF32F1
:103440001541C3F3130423EA05010020C2F1140B54
:1034500044F48014BAF1000F02460B4644FA0BFB09
:1034600030463946B8BFCBF1000B16F073F8024670
:103470000B4606460F46DDE9000116F06DF84FEAEF
:103480000B5A0D46002484A3D3E900232046294685
:1034900016F014FA3246804689463B4620462946B5
:1034A00016F058F802460B46DDE9000116F052F816
:1034B0007BA3D3E9002316F001FA7BA3D3E9002311
:1034C00006460F462046294616F0F8F902460B46F6
:1034D0003046394616F040F806460F4602460B467F
:1034E0004046494616F038F842464B4604460D46DB
:1034F00016F030F802460B463046394616F02AF8E8
:103500002246804689462B462046294616F0D6F9A3
:1035100067A3D3E9002306460F4616F0CFF966A34A
:10352000D3E9002316F016F832463B4616F0C6F9EA
:1035300063A3D3E9002316F00FF832463B4616F09A
:10354000BDF961A3D3E9002316F004F832463B46E7
:1035500016F0B4F95EA3D3E9002315F0FDFF32465F
:103560003B4616F0ABF902460B462046294615F0BD
:10357000F1FF06460F4602460B462046294616F046
:103580009DF90022CDE900014FF0804330463946D5
:1035900015F0E0FF02460B46DDE9000116F0B8FA2F
:1035A000424606460F464B462046294616F086F907
:1035B00042464B4615F0D0FF02460B463046394690
:1035C00015F0C8FF22462B4615F0C4FF02460B46F5
:1035D0000020494915F0BEFF8A44BAF5801FC0F2A9
:1035E00039815146DDE9042316F068F952E4424678
:1035F0004B464046494616F061F94BE4BAF1000FDC
:10360000BFF6D7ACDDE90034184604F1004141E4CF
:103610003A4B21F00048984540F3FF80384B0B446B
:1036200003430CD132463B4615F094FF02460B464D
:10363000DDE9000116F0BEFB00283FF4F3AEDDE942
:10364000040125A3D3E9002316F038F922A3D3E916
:10365000002316F033F91DE49FED217B8DED047BF3
:1036600085E602460B460020234916F051FA2EE467
:103670009FED1D7B8DED087B8DED0E7B9FED027B1D
:1036800000278DED067BD8E4000000000000F03F2D
:10369000FE822B654715973C00000000432EE63F55
:1036A000EF39FAFE422EE63F396CA80C615C20BE71
:1036B000D0A4BE726937663EF16BD2C541BDBB3E38
:1036C0002CDE25AF6A56113F93BDBE166CC1663F16
:1036D0003E5555555555C53F59F3F8C21F6EA501C6
:1036E000000000000000F0BF00000000000000002B
:1036F000FFFF8F40FFFF0F000000F03FFFCB904027
:1037000000346F3F684B9E427FF750AC674B9E4240
:103710003FF7FDAB0022654B15F01CFF52A3D3E928
:10372000002306460F4616F0C9F851A3D3E900233B
:10373000804689463046394616F0C0F80022824657
:103740008B465B4B3046394616F0B8F802460B46BE
:1037500049A1D1E9000115F0FDFE32463B4616F0C5
:10376000ADF802460B460020524915F0F3FE3246F2
:10377000CDE902013B463046394616F09FF8024635
:103780000B46DDE9020116F099F83DA3D3E90023C9
:1037900016F094F802460B465046594615F0DAFEEC
:1037A00002460B4606460F464046494615F0D4FEF3
:1037B00042464B46002082468B4615F0CBFE024621
:1037C0000B463046394615F0C5FE80468946C5E5AC
:1037D00042464B460020354916F09AF9FFF75ABB8E
:1037E000DDE9040128A3D3E9002316F067F826A336
:1037F000D3E9002316F062F8FFF74CBBBEF1000FCF
:103800007FF453ABC3F1140347FA03F202FA03F354
:103810009F4223D07446FFF720BB264B98453FF7C5
:1038200001AEDDE90223924693462BE602460B46A3
:10383000FFF7B3BB9FED167B8DED087B9FED167BED
:103840008DED0E7B9FED167B4FF480278DED067B73
:10385000FFF7F3BB5A4601F04FFDC3E602F0010249
:10386000C2F10204FFF7F9BA000000604715F73F04
:1038700044DF5DF80BAE543E555555555555D53F73
:10388000FE822B654715F73F9C7500883CE4377E28
:103890000000004003B8E23F06D0CF43EBFD4C3EB2
:1038A000000000000000F83FFEFFEF3F0000F03F87
:1038B0000000D03F0000E03F2DE9F0479C4B21F095
:1038C00000479F4290B08046894640F38E80994BD6
:1038D0009F420C46924626DC00298BA3D3E90023A5
:1038E00040F3B08115F036FE934B9F4204460D46DF
:1038F00000F0908086A3D3E9002315F02BFE02464A
:103900000B46CAE900232046294615F023FE80A372
:10391000D3E9002315F01EFE0125CAE9020128465D
:1039200010B0BDE8F087854B9F4240F39080844BF8
:103930009F4265DC3D15A5F21645A7EB05531946D8
:103940001F46064616F06AFA15F052FF8046894671
:1039500042464B4630463946CDE90A8915F0FAFD14
:103960000022784B15F0AAFF8946804616F056FAD9
:1039700015F03EFF06460F4632463B464046494656
:10398000CDE90C6715F0E6FD00226E4B15F096FFB1
:1039900000220023CDE90E0116F0F8F9002800F00E
:1039A0006F81002330463946002216F0EFF90028D7
:1039B00014BF01230223644A019202212A46009186
:1039C0000AA8514600F08CFB002C054614DADAF800
:1039D0000420DAF80C3002F1004203F100434542C2
:1039E000CAF80420CAF80C3006E000200021C2E921
:1039F0000089C2E902010025284610B0BDE8F08721
:103A000002460B4615F0A6FD0025CAE90201CAE9E7
:103A10000001F1E740A3D3E9002315F09BFD40A38B
:103A2000D3E900230D46044615F094FD02460B46EB
:103A3000CAE900232946204615F08CFD38A3D3E9B6
:103A4000002315F087FD0125CAE90201D4E713F030
:103A5000A1FC35A3D3E900238046894615F02EFF4B
:103A600000223A4B15F078FD16F0D8F9054615F00E
:103A7000BFFE25A3D3E90023CDE9060115F01EFF03
:103A800002460B464046494615F064FD20A3D3E9A3
:103A90000023CDE90201DDE9060115F00FFF1F2D1E
:103AA00080468946CDE9048954DC294B6A1E53F8C7
:103AB00022309F424ED002460B46DDE9020115F04E
:103AC00049FD80468946CAE9008942464B46DDE900
:103AD000020115F03FFDDDE9042315F03BFD002C4C
:103AE000CAE9020188DA09F1004401F100436D429C
:103AF000CAF80080CAF80440CAF80800CAF80C30B6
:103B00007AE700BFAFF3008000004054FB21F93F8B
:103B10003163621A61B4D03D0000601A61B4D03DD7
:103B20007370032E8A19A33B83C8C96D305FE43FCD
:103B3000FB21E93F7BD90240FB21F93FFB213941C1
:103B4000FFFFEF7F0000704104BF01000000E03F75
:103B500084BE0100DDE90423DDE9020115F0FAFC71
:103B60003F15C1F30A53FB1A80468946102BCAE958
:103B70000089AADD58A3D3E90023DDE9060115F089
:103B80009DFE8046894602460B46DDE9020115F09E
:103B9000E1FC02460B46DDE90201CDE9082315F000
:103BA000D9FC42464B4615F0D5FC4DA3D3E9002382
:103BB00080468946DDE9060115F080FE42464B4607
:103BC00015F0C8FC0B46CDE904010246DDE9080109
:103BD00015F0C0FCC1F30A53FF1A80468946312F05
:103BE000CAE900896CDD41A3D3E90023DDE90601C0
:103BF00015F064FEDDE9088906460F4602460B46CD
:103C00004046494615F0A6FC02460B46404649464A
:103C1000CDE9022315F09EFC32463B4615F09AFC96
:103C200034A3D3E9002306460F46DDE9060115F06B
:103C300045FE32463B4615F08DFC02460B46CDE96B
:103C400004233AE715F088FC274B9F4204460D46B3
:103C500018D01FA3D3E9002315F07EFC02460B46C3
:103C6000CAE900232946204615F074FC18A3D3E9BD
:103C7000002315F071FC4FF0FF35CAE90201BBE6E5
:103C8000032398E614A3D3E9002315F065FC14A3DD
:103C9000D3E900230D46044615F05EFC02460B46B0
:103CA000CAE900232946204615F054FC0CA3D3E9A9
:103CB000002315F051FC4FF0FF35CAE902019BE6E5
:103CC0009DED087B8DED027BFFE600BFAFF300802A
:103CD0003163621A61B4D03D0000601A61B4D03D16
:103CE0007370032E8A19A33BFB21F93F0000002EBD
:103CF0008A19A33BC14920259A837B390000000023
:103D0000594A2DE9F84F21F00048904506460F46E4
:103D10002BDC564B0029B4BF554D564D98454FF0FE
:103D2000000410DC544B984570DC4DA3D3E900230C
:103D300015F012FC0022514B16F050F8D8B1304665
:103D40003946BDE8F88F4E4B98457CDD4D4B984584
:103D500044DD013398453ED03046394640A3D3E98F
:103D6000002315F0ABFDBDE8F88F02460B4615F0B9
:103D7000F3FBBDE8F88F3046394613F00BFB01F03A
:103D80007FF806460F4632463B463046394615F028
:103D9000E3FB324682468B463B463046394615F0B9
:103DA0008DFD002280468946344B3046394615F059
:103DB000D3FB02460B464046494615F0A9FE024693
:103DC0000B465046594615F0C5FB22462B4615F0CA
:103DD00075FDBDE8F88F2C4B9842BDD8304639466A
:103DE00013F0D8FA0022234B15F068FDFEF714FCFF
:103DF00006460F4602460B462046294615F05EFD54
:103E000032463B4615F05AFDBDE8F88F13F0C2FA72
:103E100001F036F81D4B984506460F46B3DD0022EB
:103E2000164B15F099FB02460B463046394615F005
:103E30006FFE32463B4615F08FFB22462B4615F0AF
:103E40003DFDBDE8F88F13F0A5FAFEF7E5FB02464D
:103E50000B462046294615F031FDBDE8F88F00BF1E
:103E60003374AC3C1F7BAC7FFFFFEF7FFFFF35401F
:103E70000000E0BF0000E03FFFFF2F3E0000F03FEA
:103E8000412E8640CD3386407DF8B98FFFFFEF3F4E
:103E90002DE9F04F21F00048B8F1795F85B0064672
:103EA0000F4692469B466BDA15F0B8FF002800F0EB
:103EB000EA8032463B463046394615F0FFFC74A393
:103EC000D3E9002304460D4615F0F8FC72A3D3E9AC
:103ED000002315F041FB22462B4615F0EFFC70A3A2
:103EE000D3E9002315F036FB22462B4615F0E6FCFD
:103EF0006DA3D3E9002315F02FFB22462B4615F0C6
:103F0000DDFC6BA3D3E9002315F024FB22462B46EE
:103F100015F0D4FC68A3D3E9002315F01DFB22465D
:103F20002B4615F0CBFCCDE900010022664B204664
:103F3000294615F0C3FCDDE900238046894620466A
:103F4000294615F0BBFC524604460D465B463046FA
:103F5000394615F0B3FC02460B462046294615F0BB
:103F6000F9FA02460B464046494615F0F3FA024676
:103F70000B460020554915F0EDFA05B0BDE8F08F6D
:103F800002460B4615F09AFC41A3D3E900230446F0
:103F90000D4615F093FC40A3D3E9002315F0DCFA9D
:103FA00022462B4615F08AFC3DA3D3E9002315F0E9
:103FB000D1FA22462B4615F081FC3BA3D3E900231E
:103FC00015F0CAFA22462B4615F078FC38A3D3E93F
:103FD000002315F0BFFA22462B4615F06FFC36A3DE
:103FE000D3E9002315F0B8FA2B46224615F066FCFB
:103FF000374B9845CDE9000197DD364B984539DCC4
:10400000A8F500130022002030499046994615F08B
:10401000A1FACDE9020100222B4B2046294615F0DA
:104020004DFC42464B4615F095FADDE900238046EB
:1040300089462046294615F041FC524604460D4665
:104040005B463046394615F039FC02460B462046A1
:10405000294615F07FFA02460B464046494615F0C0
:1040600079FA02460B46DDE9020115F073FA05B054
:10407000BDE8F08F9FED127B4FF000088DED027BC5
:10408000DFF85490C7E71149002005B0BDE8F08F74
:10409000D43888BEE9FAA8BDC4B1B4BD9EEE213EB5
:1040A000AD529C804F7E923E9015CB19A001FA3EF6
:1040B0007751C1166CC1563F4C5555555555A53FC6
:1040C000000000000000E73F0000E03F0000F03F7C
:1040D0003233D33F0000E93F0000D23F0000000030
:1040E0002DE9F04FADF51B7D9F4CA49E9F4D54F8DC
:1040F000264007942646D41E85FB0475E417C4EBBE
:10410000A50424EAE4741D460A93631CA3EB83030D
:10411000013D02EBC30306932B460B940395651BED
:10412000F418049008911AD42C4400260027013476
:104130000DF18808DDF8949208E059F8250015F093
:1041400057FB0135A542E8E8020108D0002DF4DA5A
:10415000013530463946A542E8E80201F6D1079B11
:10416000002BC0F2DF83079B03F1010B0A9B22A9FE
:10417000DB001A4601EB03090093049B0DF5E47A7A
:1041800019460AEBCB0B01EB0208039B002BC0F294
:10419000F582049C4D460026002775E90223F4E8C9
:1041A000020115F08BFB02460B463046394615F0EE
:1041B000D3F9444506460F46EFD1EAE80267DA45EF
:1041C00009F10809E1D107990098049C009101F1D7
:1041D0008043013B9B0020441A1F83460EA80244E3
:1041E00003440C920D93009A9AA901EBC203002A92
:1041F00053E9284529DD0DF5E47A0AEBC2080DF1F3
:10420000340900225A4B2046294615F057FB15F079
:1042100005FE15F0EDFA0022564B06460F4615F046
:104220004DFB02460B462046294615F093F915F042
:10423000F5FD78E9022349F8040F3946304615F0B8
:104240008BF9D04504460D46DBD1DDF818902046A9
:1042500029464A4601F050F800224FF07F530446A9
:104260000D4615F02BFBFCF75FFD0022424B15F0CD
:1042700025FB02460B462046294615F06BF90D46F4
:10428000044615F0CBFD804615F0B2FA0B46024607
:104290002946204615F05EF94B46002B06460F4690
:1042A00040F3F980009A0EA9013AC9F1180351F8B8
:1042B000225045FA03F101FA03F30EA8EB1A40F875
:1042C0002230C9F11705884443FA05F5002D6DDD4C
:1042D000009B002B08F1010840F36F820E9C002C1C
:1042E00040F01683009B012B40F38F820EAA01231E
:1042F00052F8044F002C00F08382581C0EAAC4F11F
:10430000807442F82340009A824219DD0EAA0EAC56
:1043100052F820106FF07F42511A44F82010009993
:10432000023399420CDD1046009A0EA901EB83037B
:1043300001EB82011A68821A43F8042B8B42F9D1EF
:10434000069B002B1ADD069B012B4FF0010440F069
:104350003C82009B5A1E0EAB0EA953F82230C3F3C9
:10436000160341F822303CE2A4C30100ABAAAA2AFA
:104370000000703E0000704100002040022D15D169
:1043800032463B460020924915F0E4F806460F46B7
:10439000069A8F49002000F0AFFF02460B463046D8
:1043A000394615F0D7F8022506460F4600220023AD
:1043B0003046394615F0EAFC002800F03782009AB2
:1043C000079B501E83420FDC02F18043013B0EAA83
:1043D0000D9C02EB8303002253F80419A34242EA26
:1043E0000102F9D1002A67D1079B0EAA013B52F8BE
:1043F0002330002B40F018820C9A012352F8041944
:1044000001330029FAD0009AD31802F1010A9A4523
:1044100009933DDC009B0A990B9A0B4409990AEB1E
:104420000208994622AB08F1804803EBC9098B18B2
:10443000A59A08F1FF3802EB880872AA02EBCA0AB3
:10444000A59A02EB8303009358F8040F15F0D0F9F6
:10445000039B002BE9E802014FF000064FF0000734
:1044600011DB049C4D4675E90223F4E8020115F0C6
:1044700025FA02460B463046394615F06DF85C4584
:1044800006460F46EFD1009B9845EAE80267DBD16C
:10449000099B0093A7E606D1009B0EAA013B52F8A8
:1044A0002350ED1512E700224A4B15F08DFC002831
:1044B00040F06E81054679E70EA9039551F820304A
:1044C0000699CDF8248018390246009006916BB900
:1044D00000F18043013B0EA800EB830353F804096D
:1044E000013A18390028F9D000920691069A384905
:1044F000002000F001FF009B002B04460D46C0F297
:10450000F781DA0072A901EB020B06920EAA02EB08
:104510008306DFF8C4904FF000080BF1080704365B
:1045200056F8040D15F064F922462B4615F0C6F92D
:104530004B4667E9020142462046294615F0BEF97E
:104540000EAB9E4204460D46EAD14AACDDF81C9003
:1045500004944FF0000AB9F1000FC0F22B81DFF88C
:104560007C805D4618A1D1E90001002600270024C7
:1045700003E0544510DCF8E80201F5E8022315F0E9
:104580009DF902460B463046394614F0E5FF0134EA
:10459000A14506460F46ECDA049B03EBCA03ABF1D8
:1045A000080BC3E9006770AB9B450AF1010AD2D141
:1045B000A49B049C032B00F28980DFE803F0C58EE6
:1045C0008E1100BFAFF3008000000040FB21F93FD7
:1045D0000000F03F0000E03F0000703EB8AB01007B
:1045E000009B002B40F38181069A04EB020ADAE972
:1045F000008902F1080525440DF5987B1AED027B30
:1046000042464B4651EC170B8DED047B14F0A4FF92
:1046100006460F4602460B46DDE9040114F09AFFF8
:1046200042464B4614F098FF65E902015D45B046ED
:10463000B9466AE90267E1D1009B012B40F355813D
:10464000069BE518D5E9008903F1080B04EB0B0A7A
:1046500015ED027B42464B4651EC170B8DED007B6E
:1046600014F07AFF06460F4602460B46DDE90001CC
:1046700014F070FF4B46424614F06EFF6AE90201E7
:104680004EAB5345B046B94665E90267E0D100201C
:10469000002104EB0B0575E9022314F05DFFAA4528
:1046A000F9D1039B002B00F00A816268E368089F40
:1046B0002568A4683D6002F1004203F1004301F166
:1046C00000417A60FB60BC6038617961099B03F04E
:1046D00007000DF51B7DBDE8F08F069D08352544CC
:1046E0000020002175E9022314F036FFA542F9D11C
:1046F000039B002B00F0D280089E024601F100438C
:1047000086E80C000B460246D4E9000114F022FFB3
:10471000009B002B0BDD4CAD0124F5E8022314F0C7
:104720001BFF009B0134A342F7DA039B13B101F195
:1047300000431946089BC3E90201099B03F00700E7
:104740000DF51B7DBDE8F08F069D0835002000218A
:10475000254475E9022314F0FFFEAC42F9D1039B16
:1047600013B101F100431946089BC3E90001099BFD
:1047700003F007000DF51B7DBDE8F08F0026002734
:10478000EAE80267DA4509F108097FF4FEAC1AE5A8
:10479000009B002B08F10108C8BF02253FF79EAD22
:1047A00032463B460020614914F0D4FE02250646FD
:1047B0000F46FBE500260027EEE6069B002B27DDD3
:1047C0000024069B012B3FF4C4AD022B09D1009BB2
:1047D0005A1E0EAB0EA953F82230C3F3150341F84D
:1047E0002230022D7FF4E2AD32463B4600204F4995
:1047F00014F0B0FE06460F46002C3FF4D7ADC7E5D7
:104800000099013399427FF473AD069B002BD8DCED
:10481000022D7FF4CBAD32463B460020434914F0D5
:1048200099FE06460F46C1E50123ECE53946069F91
:1048300003957A423046CDF8248000F05DFD0022D9
:104840003B4B04460D4615F0BFFA002843D000222A
:10485000384B2046294615F031F815F0DFFA0646A8
:1048600014F0C6FF0022324B15F028F802460B4622
:104870002046294614F06EFE15F0D0FA00990B463A
:1048800001331A4600933B46183306930B460EA994
:1048900041F82300134641F8236027E6089B0246AF
:1048A000C3E900010B46D4E9000114F053FE009B5C
:1048B000002B3FF730AF089BC3E902013DE7D4E985
:1048C0000067D4E90223089DC5E90401C5E9006732
:1048D000C5E90223FAE62946204615F09FFA009A18
:1048E0000EA941F8220001E64AAC00200021D8E6DA
:1048F000A49B032B3FF6EAAE01A252F823F000BFBF
:104900001F4900001749000017490000E94800004E
:1049100001200023F2E4002000214AACE8E6002058
:1049200000211CE70A9BDB0000934CE40000F03FF1
:10493000000070410000703E2DE9F04F21F000466C
:10494000B6F1795F85B004460D469046994604DA83
:1049500015F064FA002800F0858022462B46204698
:10496000294614F0ABFF06460F4602460B4620468A
:10497000294614F0A3FF41A3D3E9002382468B46C6
:104980003046394614F09AFF3EA3D3E9002314F0D1
:10499000E1FD32463B4614F091FF3CA3D3E90023EE
:1049A00014F0DAFD32463B4614F088FF39A3D3E910
:1049B000002314F0CFFD32463B4614F07FFF37A3AF
:1049C000D3E9002314F0C8FD0E9BCDE900019BB391
:1049D0000022294B4046494614F070FFDDE90023D0
:1049E000CDE902015046594614F068FF02460B46D5
:1049F000DDE9020114F0AEFD32463B4614F05EFFE5
:104A000042464B4614F0A6FD19A3D3E900230646FF
:104A10000F465046594614F051FF02460B463046A9
:104A2000394614F099FD02460B462046294614F0FB
:104A300091FD05B0BDE8F08F02460B463046394681
:104A400014F03CFF0AA3D3E9002314F083FD52467F
:104A50005B4614F033FF22462B4614F07DFD05B073
:104A6000BDE8F08F2046294605B0BDE8F08F00BFB5
:104A7000495555555555C53F0000E03F7CD5CF5AA7
:104A80003AD9E53DEB9C2B8AE6E55A3E7DFEB157CF
:104A9000E31DC73ED561C119A0012A3FA6F8101138
:104AA0001111813F000000002DE9F04FBE4C21F0B4
:104AB000004687B0A64282468B460F46CDE90023CA
:104AC0001BDC15F0ABF9002837D153461E43109B71
:104AD0000133334300F0B381109B012B00F0C881F8
:104AE00052465B460020B14915F012F804460D46C7
:104AF0002046294607B0BDE8F08FAD4B9E421CDD35
:104B00000029C0F2A98152465B4687A1D1E9000184
:104B100014F020FDDDE9002304460D4684A1D1E90F
:104B2000000114F017FD9FED847B22462B468DED8E
:104B3000007B14F011FD82468B4652465B46504680
:104B4000594614F0BBFE02460B468046894614F0D7
:104B5000B5FE424604460D464B465046594614F0B3
:104B6000ADFE77A3D3E90023CDE902012046294613
:104B700014F0A4FE74A3D3E9002314F0EDFC224644
:104B80002B4614F09BFE72A3D3E9002314F0E4FC3F
:104B900022462B4614F092FE6FA3D3E9002314F0B3
:104BA000DBFC22462B4614F089FE6DA3D3E90023DB
:104BB00014F0D2FC22462B4614F080FE6AA3D3E9FF
:104BC000002314F0C9FC42464B4614F077FE68A35C
:104BD000D3E90023CDE904012046294614F06EFEF6
:104BE00065A3D3E9002314F0B7FC22462B4614F04A
:104BF00065FE63A3D3E9002314F0AEFC22462B46E6
:104C000014F05CFE60A3D3E9002314F0A5FC224657
:104C10002B4614F053FE5EA3D3E9002314F09CFC52
:104C200022462B4614F04AFE5BA3D3E9002314F07E
:104C300093FC02460B46DDE9040114F08DFCDDE92E
:104C4000022314F03BFEDDE9004522462B4614F01A
:104C500083FC42464B4614F031FE02460B4620468A
:104C6000294614F079FC4EA3D3E9002304460D46EF
:104C7000DDE9020114F022FE22462B4614F06CFC02
:104C80000B460246804689465046594614F064FC5D
:104C9000474B9E4204460D4600F38E80109B012B2D
:104CA0003BD002460B460020404914F031FF00245F
:104CB00006460F462046294652465B46CDE9006728
:104CC000CDE90201009414F045FCDDE900AB024699
:104CD0000B464046494614F03DFC52465B4614F0F4
:104CE000EDFD524604460D465B46DDE9020114F037
:104CF000E5FD00222F4B14F02FFC02460B46204608
:104D0000294614F029FC32463B4614F0D7FD5246A2
:104D10005B4614F021FC04460D462046294607B0A8
:104D2000BDE8F08FAFF30080182D4454FB21E93F1C
:104D3000075C143326A6813C000000000000000040
:104D4000D47ABF74702AFB3EE9A7F0320FB8123F45
:104D500068108D1AF726303F1583E0FEC8DB573FF9
:104D600093846EE9E326823FFE41B31BBAA1AB3FB9
:104D7000735360DBCB75F3BEA69237A0887E143FD9
:104D80000165F2F2D844433F280356C9226D6D3FB6
:104D900037D60684F464963F7AFE10111111C13F94
:104DA000635555555555D53FFFFF2F3E0000F0BFC9
:104DB0002794E53F0000F03F109814F019FD2246BB
:104DC000CDE900012B462046294614F077FDDDE9A8
:104DD0000023CDE902012046294614F0BDFB02461E
:104DE0000B46DDE9020114F093FE42464B4614F0F7
:104DF000B1FB02460B465046594614F0ABFB024647
:104E00000B4614F0A9FB02460B46DDE9000114F045
:104E1000A1FB0446B81700F00200C0F101000D46E6
:104E200014F0E6FC02460B462046294614F046FDE7
:104E300004460D462046294607B0BDE8F08F50468F
:104E4000594612F0A7FA02460B4600200A4914F010
:104E50005FFE04460D4660E7DDE9004501F10041D3
:104E6000224605F1004382468B46CDE900234AE6FF
:104E700054465D4651E700BF0000F03F00000000CF
:104E80002DE9F04FD24A21F00043934285B082468B
:104E90008B460C462DD9CF4A93421AD8002C80F26B
:104EA0001681B5A3D3E900235046594614F054FBAC
:104EB0000022002314F074FFC0B9B1A3D3E900238A
:104EC0005046594614F0FAFC02460B460020C249EF
:104ED00008E1C24A934240F2D0800346C1F3130274
:104EE000134340F0F481002980F2C4800020BC49C3
:104EF000C0E0BC4A934200F22981BB4A934240F28F
:104F0000DE80002301930022B84B5046594614F02E
:104F1000D5FC06460F4602460B465046594614F04D
:104F2000CDFC99A3D3E9002304460D4614F0C6FC3A
:104F300097A3D3E9002314F00FFB22462B4614F06D
:104F4000BDFC95A3D3E9002314F004FB22462B46B5
:104F500014F0B4FC92A3D3E9002314F0FDFA224626
:104F60002B4614F0ABFC90A3D3E9002314F0F2FA23
:104F700022462B4614F0A2FC00229D4B14F0ECFAC2
:104F80008046894602460B463046394614F096FC68
:104F900002460B460020974914F0DCFA064602460A
:104FA0000B460F464046494614F0D4FA3246804636
:104FB00089463B465046594614F080FC02460B4653
:104FC00000208D4914F0C6FA02460B464046494679
:104FD00014F09EFD22462B4614F070FC019E024602
:104FE0000B46002E38D0DDE9026732463B4614F00E
:104FF000B1FA52465B4614F061FC32463B4614F06F
:10500000A9FA2B46224614F0A5FA019B0133064665
:105010000F4600F00F81019B012B00F0F180019BF6
:105020000133392B39D8019B132B40F31281019C9A
:10503000C4F57F75033500222B0514F08DFA024666
:105040000B465046594614F085FA0022684B14F07E
:1050500083FA01EB04510DE05046594614F02EFC42
:1050600022462B4614F076FA02460B465046594625
:1050700014F070FA05B0BDE8F08F4DA3D3E900231A
:1050800014F0ACFE00283FF409AF4BA3D3E9002392
:105090001046194614F012FCECE752465B4614F039
:1050A00059FA02460B460020514914F053FA019A6E
:1050B0004F4B01EB0251002214F04CFADAE73EA309
:1050C000D3E9002314F048FA02460B46CAE72CA3A2
:1050D000D3E900235046594614F0F0FB0B464349F0
:1050E0000246002014F038FA14F098FE019014F0F3
:1050F0007FFB33A3D3E9002306460F4614F0DEFB03
:1051000002460B465046594614F024FA2EA3D3E922
:105110000023804689463046394614F0CFFB0646C8
:105120000F4632463B464046494614F013FA0246C3
:105130000B4682468B464046494614F00BFA3246EF
:105140003B4614F007FACDE90201DCE62B4A934214
:1051500000F2958000291AA3D3E90023C0F2AC80A5
:1051600014F0F8F9012380468946019316A7D7E980
:105170000067D6E7AFF3008059F3F8C21F6EA501B0
:10518000FE822B654715F73F2DC3096EB7FD8ABE1A
:105190003952E686CACFD03EB7DBAA9E19CE143F5D
:1051A0008555FE19A0015A3FF41011111111A13FAC
:1051B000EF39FAFE422E86409C7500883CE4377E2B
:1051C0000000E0FE422EE63F763C7935EF39EA3DBD
:1051D00079684340412E86400000E0BFFFFFEF7F2B
:1051E0000000F0BF422ED63FFFFF8F3C0000E03FA3
:1051F0000000F03F0000084000001840B1A2F03F5E
:105200000022394B5046594614F0CAFD002844D0BC
:10521000504659460022354B14F09EF902460B4683
:105220003046394614F096F900224FF0404314F00E
:1052300045FB1FE702460B465046594614F08AF9D3
:1052400000222A4B14F03AFB0022284B14F082F97A
:1052500010E7019C4FF400132341C3F17F575246DE
:105260005B4614F077F9002607F5401702460B4617
:105270003046394614F06EF901EB0451FAE616A3F4
:10528000D3E9002314F01AFB002C02460B464FF022
:105290000000FFF61CAE154924E732463B46504657
:1052A000594614F057F902460B4614F055F90022FE
:1052B0000F4B14F051F9DDE614F04EF94FF0FF33C7
:1052C00080468946019306A7D7E9006729E7024689
:1052D0000B4614F041F9CDE6FE822B654715F73FEA
:1052E000763C7935EF39EABD0000D0BF0000E03FE1
:1052F0000000F03F00000000F8B5C1F30A56044674
:105300000D460B4617460EBB21F00043034386466D
:1053100025D00022344B14F0D1FA344A9742044687
:105320000D460B462ADBC1F30A56363E3E4440F298
:10533000FE72964228DC002E12DD23F0FF4323F498
:10534000E00343EA065520462946F8BD40F2FF72C5
:105350009642EBD102460B4614F0FEF8F8BDF8BDBC
:1053600016F1350F1DDA4CF250339F4222462B4680
:1053700025DC19A1D1E9000114F05EF816A3D3E9E8
:10538000002314F09BFAF8BD22462B4614A1D1E964
:10539000000114F051F812A3D3E9002314F08EFA9F
:1053A000F8BD23F0FF4323F4E003363643EA065505
:1053B0002046294600220E4B14F080FAF8BD08A1C1
:1053C000D1E9000114F038F805A3D3E9002314F063
:1053D00075FAF8BDAFF3008059F3F8C21F6EA5014E
:1053E0009C7500883CE4377E00005043B03CFFFFD2
:1053F0000000903C10B5054C237833B9044B13B131
:105400000448AFF300800123237010BD1005002075
:1054100000000000FCC401000C4B43B10C480D49D6
:1054200010B5AFF300800C48036823B910BD0A48DB
:10543000036833B97047094B002BF7D0BDE8104023
:105440001847064B002BF5D0184700BF000000009E
:10545000FCC401001405002014020020000000001C
:10546000154B002B08BF134B9D46A3F5803A002136
:105470008B460F461348144A121A08F043FD0F4B8F
:10548000002B00D098470E4B002B00D098470020EF
:10549000002104000D000D48002802D00C48AFF395
:1054A000008013F0FFFF2000290005F049F913F0F8
:1054B000E5FF00BF0000080000000220000000001F
:1054C0000000000000040020A40C002000000000E8
:1054D0000000000070B504460E4600F0D1F888B117
:1054E00003681B6B05469847082C0CD0A4F10903F0
:1054F000012B14D93246214610230D20BDE87040FF
:1055000004F0DEB870BD2B6828469B6A98470228D5
:10551000F0DC2B6828465B6A04219847EAE72B6891
:1055200028469B6A98470528E4DC2B6828465B6A76
:1055300008219847DEE700BF30B52DED028B83B020
:10554000054600F09DF8044640B103681B6B984780
:10555000032D50D8DFE805F0373F47080190019848
:1055600003B0BDEC028B30BD20460CF04DF907EEC8
:10557000900A2046F8EEE78A0CF054F907EE900AFC
:105580002046B8EEE78A0CF05BF968EE087A07EE81
:10559000100AE8EEA87AB8EEC77AE7EE077AF5EED9
:1055A000407AF1EE10FAB1EEE78A03D517EE900AD1
:1055B00012F0B6FCFDEEC87ACDED017A019803B089
:1055C000BDEC028B30BD204603B0BDEC028BBDE8C4
:1055D00030400CF019B9204603B0BDEC028BBDE899
:1055E00030400CF01FB9204603B0BDEC028BBDE883
:1055F00030400CF025B900230193B0E738B50546DB
:1056000000F03EF858B103681B6B0446984745B15B
:10561000012D04D12046BDE83840FBF79DB800209D
:1056200038BD2046BDE83840FBF776B810B50446D3
:1056300000F026F828B1036821465B6ABDE81040F7
:10564000184710BD0048704716FCFFFF704700BFA9
:1056500010B5034B036004460BF0D2FE204610BD8C
:105660008CB9010010B5054B036004460BF0C8FE71
:10567000204614F065FE204610BD00BF8CB9010025
:105680002DE9F043C04C236885B01BB1986805B084
:10569000BDE8F0834FF0FF31012001F0FFFCC0B204
:1056A00004F000FB002800F0ED800C2014F04AFE0E
:1056B00003210646512001F0F1FCDFF8FCE2B34B78
:1056C000054605F00F07C5F3031815F4807518BFDC
:1056D0007346AF48394642460BF032F82A1C18BFD1
:1056E00001223946434630460EF076FA0023A94897
:1056F000B3600BF025F84FF0FF31032001F0CEFC32
:10570000C0B204F0CFFA4FF0FF310546022001F09D
:10571000C5FCC0B204F0C6FA002D00F09A80002843
:1057200000F097800146284604F0ACF807460028B0
:1057300000F0A4804FF0FF31462001F0AFFC32288A
:1057400080462BD028DD382869D068283FD14FF01B
:10575000FF31012001F0A2FCC0B204F0A3FA81469F
:105760005C2014F0EFFD0523054601934A46CDF871
:105770000080394633460DF073F92846B06003685F
:10578000DB6A9847B06803681B6B984782480AF049
:10579000D7FF2660B0687AE7302818D14FF0FF3184
:1057A000012001F07BFCC0B204F07CFA814650205D
:1057B00014F0C8FD1FFA88F1054605234A460091FA
:1057C0000193394633460CF01DFF2846D6E73A6868
:1057D0000125002301950095D2F82480B3600F22A3
:1057E0000DF10F0332213846C047002856D14FF043
:1057F0003208414669480AF0A3FF4FF0FF3101200B
:1058000001F04CFCC0B204F04DFA8146502014F077
:1058100099FD052305464A46CDF80080D0E74FF0B4
:10582000FF31012001F03AFCC0B204F03BFA81469E
:10583000502014F087FD052305464A46CDF8008028
:105840003946019333460CF0E7FF554B2B60284651
:1058500094E754480AF074FF4FF0FF31192001F02B
:105860001DFCC0B204F01EFA4FF0FF3105461820AF
:1058700001F014FCC0B204F015FA53E74A480AF0EC
:105880005FFF86E74FF0FF31032001F007FCC0B255
:1058900004F008FA00287FF408AFF8E63B680195A9
:1058A0000095D3F824800F220DF10F0330213846E4
:1058B000C04718B94FF0300841469BE73B68019557
:1058C0000095D3F824800D220DF10F0338213846BE
:1058D000C047C0B9382131480AF032FF4FF0FF31DC
:1058E000284601F0DBFBC0B204F0DCF98046502012
:1058F00014F028FD4FF0050E382305464246394680
:105900008DE808409EE73A6801950095D2F824801A
:105910000DF10F03752268213846C047E0B96821B0
:105920001E480AF00DFF4FF0FF31284601F0B6FB8C
:10593000C0B204F0B7F980465C2014F003FD4FF0CC
:10594000050E682305468DE8084042463946334631
:105950000DF086F8284611E714480AF0F1FEB06809
:1059600000287FF40CAF4FF0FF31032001F096FBCD
:10597000C0B204F097F918B10D480AF0E1FE08E74B
:105980000C480AF0DDFE04E72C05002048AC0100BD
:1059900050AC010070AC010008AD01002CAD01005D
:1059A00008AC010080AC010094AC010018AD01000E
:1059B000ACAC0100E8AC010040AC010008B501F05E
:1059C0009FFCFBF76DFCBDE8084001F0FDB900BF8E
:1059D00008B501F095FCFBF7D3FCBDE8084001F0E9
:1059E000F3B900BF08B501F08BFC11F049FDBDE82B
:1059F000084001F0E9B900BF08B501F081FC12F0E0
:105A000051F9BDE8084001F0DFB900BF08B501F069
:105A100077FCFBF755FCBDE8084001F0D5B900BFA5
:105A200008B501F06DFC11F069FFBDE8084001F018
:105A3000CBB900BF08B501F063FCFAF7ADFEBDE8D5
:105A4000084001F0C1B900BF08B501F059FC11F0E0
:105A5000A9FEBDE8084001F0B7B900BF70B5049ECB
:105A600096420C4628DB15466BB1002A00EB02017A
:105A700007DD2046A21811F8013D00F8013B9042D5
:105A8000F9D1002070BD042A0FD0022A02D110F0F3
:105A9000010306D001462A46204607F043F80020BD
:105AA00070BD02880A80184670BD10F00303F1D162
:105AB00002680A60184670BD0846002108F022FA04
:105AC0004FF0FF3070BD00BF0830704740B1002973
:105AD00005DB4368994202DA0844007A70470020E7
