:10400000000003208D4901008949010099DB00006F
:104010008949010089490100894901000000000027
:1040200000000000000000000000000089490100BD
:104030008949010000000000894901008949010007
:104040008949010089490100894901008949010024
:104050008949010089490100894901008949010014
:104060008949010089490100894901008949010004
:1040700081D0010089D0010091D0010099D00100C8
:10408000A1D00100A9D00100B1D00100B9D0010038
:10409000C1D00100C9D00100D1D00100D9D00100A8
:1040A000E1D00100E9D00100F1D00100F9D0010018
:1040B0008949010089490100894901002DCB01008E
:1040C00031CB010035CB010039CB01003DCB0100E4
:1040D0008949010089490100894901008949010094
:1040E0008949010089490100894901008949010084
:1040F000000000008949010071C601006DC6010081
:1041000069C601005DC6010089C6010085C60100BF
:1041100081C6010075C60100A1C601009DC601004F
:1041200099C601008DC60100B9C60100B5C60100DF
:10413000B1C60100A5C60100D1C60100CDC601006F
:10414000C9C60100BDC60100E9C60100E5C60100FF
:10415000E1C60100D5C6010000000000000000001B
:10416000000000000000000000000000000000004F
:10417000000000000000000000000000000000003F
:10418000DD9C0100E19C0100D99C0100D59C01004F
:1041900000000000894901008949010089490100A6
:1041A00089490100894901008949010089490100C3
:1041B00089490100894901008949010089490100B3
:1041C00089490100894901008949010089490100A3
:1041D0008949010089490100894901008949010093
:1041E00089490100894901008949010035BD010063
:1041F0003DBD010045BD01004DBD010055BD0100A3
:104200005DBD0100000000000000000089490100C0
:104210008949010089490100894901008949010052
:104220008949010089490100894901008949010042
:104230008949010089490100894901008949010032
:104240008949010089490100894901008949010022
:104250008949010089490100894901008949010012
:10426000000000007CB0EE877CB0EE87FF00FF000E
:10427000FF00FF00FF00FF00FF00FF00FF00FF0046
:10428000FF00FF00FF00FF00FF00FF00FF00FF0036
:10429000FF00FF00FF00FF00FF00FF000000000024
:1042A0002DE9F04F85B003910778A7F10903042B9E
:1042B000044607F07F0200F10100F5D9202AF3D06F
:1042C0002B2F04BF677804462D2F72D09FED427BC1
:1042D0008DED007B4FF000084FF000098FB34FF0D9
:1042E000000E4FF0000ADFF800B1754619E019F032
:1042F000C9F980468946304619F05EF942464B4678
:1043000019F00EF85246804689465B46DDE9000109
:1043100035B319F0E1FACDE90001AE4614F8017F9A
:104320007FB1A7F13006092E52465B46404649460A
:10433000DDD9C5B92E2F16D114F8017F0125002F24
:10434000EFD142464B46DDE9000119F09BF980466A
:104350008946039B404649461C6005B0BDE8F08F86
:104360004FF0010EDAE7BEF1000F29D042464B466E
:10437000DDE9000119F086F907F0DF07452F8046D7
:104380008946E6D10399601C0A221BF0EBFF16490F
:104390000246002019F0D6FC02460B46404649462C
:1043A00019F070F9804689464046494605B0BDE897
:1043B000F08F9FED0B7B67788DED007B013489E7F3
:1043C000DFF828904FF000084046494605B0BDE8A8
:1043D000F08F00BFAFF30080000000000000F03F4E
:1043E000000000000000F0BF000024400000F87F43
:1043F0002DE9F84F16460023002204460D4619F019
:10440000B3FB002840F09D8000220023204629466F
:1044100019F0A0FB28B13022002332707370BDE880
:10442000F88F204629461AF09DFA19F0DBFB7BA392
:10443000D3E9002381462946204619F095FB002840
:1044400000F08680B9F1000FC0F2BE804A4600201D
:104450006F4919F077FC02460B462046294619F0B1
:104460003BFA04460D4666A1D1E9000101274FF051
:10447000000822462B4619F005F90022654B18F07A
:104480004FFF19F09BFC002FCC464FF0FF3AC1467E
:104490004FF0000840F38580DFF888E15E4C012290
:1044A000AEF1700945F6F3254FF02E0BA94208BF77
:1044B000A0424FF0300309D3001B61EB0501A94274
:1044C00008BFA04203F10103F6D2DBB2337050EA19
:1044D000010306F1010409D1BA4210DACE4502F116
:1044E00001020CD026467EE80245DFE7BA4204BF4F
:1044F00086F801B0B41CCE4502F10102F2D1B8F148
:10450000000F0DD02246302102F8011BC2F1010339
:1045100053442344002BF7DC2AEAEA7301331C449A
:10452000BCF1010F4CD06523BCF1000F2370C5BF57
:104530002B236370611CA11C6046BDE8F84F10F08E
:1045400093BA05F100431D462D23337001365BE716
:104550002DA3D3E900232046294619F023FB002888
:104560007FF470AFB9F10E0F09F101073DDDA9F13C
:104570000E0842460020264919F0E4FB02460B468D
:104580002046294619F0A8F90022224B18F0C8FE4F
:1045900019F014FC002FA9F10F0A4FF0010C3FF79E
:1045A0007BAF334630222E2403F8022B74707FEA4F
:1045B000090618D01E4403F8012BB342FBD16BE768
:1045C00000232370BDE8F88FC9F1000200201049D4
:1045D00019F0B8FB02460B462046294619F052F85E
:1045E00004460D463FE71E4656E7C9F10E0200207D
:1045F0000749C84619F0A6FB4FF0010939E700BF8B
:104600000000901EC4BCD64250EFE2D6E41A4B44E0
:10461000000024400000E03F00407A108DEDB5A07E
:10462000F7C6B03E0814020070B54FF0FF3006F038
:10463000CBF804466FF07F4006F0C6F806462046E9
:1046400018F0AAFF00220C4B19F01CF80446304663
:104650000D4618F0A1FF06A3D3E9002319F03CF999
:1046600002460B462046294618F05AFE70BD00BF90
:104670000000E0DFFFFF6F430000F03D000000009E
:1046800008B511F0A5FCDFED0C7A07EE100A67EE15
:10469000277A17EE900A18F0A1FF05A3D3E90023AB
:1046A00019F01AF919F09EFA08BD00BFAFF30080A7
:1046B000EA2E4454FB2119400000B44300000000DE
:1046C00008B511F099FCDFED0C7A07EE100A67EEE1
:1046D000277A17EE900A18F081FF05A3D3E900238B
:1046E00019F0FAF819F07EFA08BD00BFAFF30080A8
:1046F000EA2E4454FB2119400000B443000000009E
:104700002DE9F04F046985B0E3699B07FCD123686C
:10471000C3F3400BBBF1000F40F0AF80B0F80CA02A
:1047200015468046BAF1000F23D0BAF1010F62D0CE
:10473000BAF1020F40F0A4805500E1685448C5F575
:104740003B438033B3FBF5F31A0421F47F0102F4F9
:104750007F020A43E260E2685B00A0FB03135B0890
:1047600022F07F4242EA03635846E36005B0BDE8A9
:10477000F08FE2684BF6803B05EB850022F0FF03EB
:10478000ABEB4000019318F007FF0646B8F80E00A7
:104790000F4618F011FF3CA3D3E9002318F072FF75
:1047A00080460BFB05F0894618F0F6FE02460B46E4
:1047B0004046494618F066FF02460B4630463946E9
:1047C00018F0ACFD064668000F4618F0E5FE0246FC
:1047D0000B463046394619F07FF819F02BFA019B49
:1047E000C0B21843E060E368504623F47F43E360BF
:1047F00005B0BDE8F08FE2684BF6803A05EB850026
:1048000022F0FF03AAEB4000019318F0C5FECDE9AA
:104810000201B8F80E0018F0CFFE1BA3D3E9002365
:1048200018F030FF06460AFB05F00F4618F0B4FEFC
:1048300002460B463046394618F024FF02460B4626
:10484000DDE9020118F06AFD064668000F4618F01F
:10485000A3FE02460B463046394619F03DF819F0E2
:10486000E9F9019AC3B21343E360E368584623F4BD
:104870007F43E36005B0BDE8F08F6FF0100075E78F
:104880006FF00C0072E700BF95D626E80B2E113EA4
:10489000ABAAAAAA000000004F4A21F000439342AD
:1048A0002DE970430D4604464FDC4C4A93420E46B8
:1048B0000FDC45A3D3E9002318F032FD0022484B5A
:1048C00019F070F9002856D02B4620461946BDE84D
:1048D0007083444A934242DCB3F1804F4BDD19F0C0
:1048E0004BFC2246804689462B462046294618F036
:1048F000C9FE00223A4B18F013FD1AF05BFC024689
:104900000B464046494618F00BFD02460B46002078
:10491000334918F0E1FF424604460D464B464046F7
:10492000494618F0FDFC0B4602462946204618F081
:10493000F7FC01F0FDFE04460B46002E0BDC03F1F4
:10494000004320461946BDE870830B46024618F026
:10495000E7FC04460B4620461946BDE8708319F073
:104960000BFC01F0E5FE1AA3D3E9002318F0D8FCF4
:1049700004460B46E1E722462B462046294618F01E
:1049800081FE804689462046294619F0F5FB002223
:104990000446134B0D464046494618F0C1FC1AF038
:1049A00009FC00220E4B18F0BBFC02460B464046A9
:1049B000494618F091FF22462B4618F0B1FC00F052
:1049C000D3FA04460B46B8E79C7500883CE4377E72
:1049D000EF39FAFE422EE63FFFFFEF7FFFFF2F3E4B
:1049E0000000F03F0000B0412DE9F84FC24B21F02C
:1049F00000469E420D468A46044610DDBF4B9E424D
:104A000000F3B58000F0B080BD4BBE49BE4CBAF19A
:104A1000000FD8BF0B4620461946BDE8F88FBB4BA8
:104A20009E4200F3C180A3F1DE739E4240F3AB804F
:104A30004FF0FF3B22462B462046294618F022FE27
:104A400002460B468046894618F01CFE92A3D3E925
:104A5000002306460F4618F015FE91A3D3E9002364
:104A600018F05EFC32463B4618F00CFE8EA3D3E9EC
:104A7000002318F055FC32463B4618F003FE8CA389
:104A8000D3E9002318F04CFC32463B4618F0FAFDFF
:104A900089A3D3E9002318F043FC32463B4618F0C3
:104AA000F1FD87A3D3E9002318F03AFC42464B46B8
:104AB00018F0E8FD84A3D3E90023804689463046F8
:104AC000394618F0DFFD82A3D3E9002318F026FC55
:104AD00032463B4618F0D6FD7FA3D3E9002318F0F9
:104AE0001DFC32463B4618F0CDFD7DA3D3E90023E3
:104AF00018F014FC32463B4618F0C4FD7AA3D3E903
:104B0000002318F00BFC32463B4618F0BBFDBBF10E
:104B1000FF3F02460B466ED04046494618F000FC67
:104B200022462B4618F0AEFD794E7A4B4FEACB0B5E
:104B30005E449B44DBE9002318F0F0FB22462B4641
:104B400018F0ECFB0B460246D6E9000118F0E6FB34
:104B5000BAF1000F04460B46BFF65DAF01F100430A
:104B600020461946BDE8F88F00283FF44DAF224695
:104B70002B462046294618F0D3FB04460B46204618
:104B80001946BDE8F88F5AA3D3E9002318F0C8FBF3
:104B90000022614B19F006F800283FF449AF2B467C
:104BA00020461946BDE8F88F19F0E6FA5B4B9E42A5
:104BB00004460D4630DCA3F550239E4255DC0246E8
:104BC0000B4618F0ADFB0022534B18F0A7FB002258
:104BD00006460F464FF080432046294618F0A0FBBA
:104BE00002460B463046394618F076FE4FF0000B71
:104BF00004460D461EE74046494618F091FB224602
:104C00002B4618F03FFD0B4602462946204618F079
:104C100085FB04460B46FEE6414B9E421ADC002211
:104C2000404B18F07BFB002206460F463D4B2046CA
:104C3000294618F027FD0022374B18F071FB024679
:104C40000B463046394618F047FE4FF0020B04463B
:104C50000D46EFE602460B460020334918F03CFEB5
:104C60004FF0030B04460D46E4E600222A4B18F0F1
:104C700055FB002206460F46274B2046294618F0D2
:104C80004FFB02460B463046394618F025FE4FF0E2
:104C9000010B04460D46CDE611DA22E33AAD903F12
:104CA000EB0D76244B7BA93F513DD0A0660DB13F63
:104CB0006E204CC5CD45B73FFF8300922449C23FCB
:104CC0000D5555555555D53F2F6C6A2C44B4A2BF90
:104CD0009AFDDE522DDEAD3F6D9A74AFF2B0B33F58
:104CE000711623FEC671BC3FC4EB98999999C93FD0
:104CF0009C7500883CE4377EFFFF0F440000F07F86
:104D0000FB21F93FFB21F9BF182D4454FFFFDB3F86
:104D100018140200381402000000F03FFFFFF23FB9
:104D2000FF7F03400000F83F0000F0BF00000000DC
:104D30002DE9F047C1F30A59A9F2FF36132E0B46AD
:104D40000D46044607468846824622DC002E4FDB8D
:104D50003D4A42FA06F901EA090202431ED038A38D
:104D6000D3E9002318F0DCFA0022002318F01AFF20
:104D700050B1002D04DD4FF4801343FA06F6B04421
:104D800028EA09054FF0000A544629462046BDE8A6
:104D9000F087332E06DDB6F5806F3DD019462046EC
:104DA000BDE8F087A9F213494FF0FF3222FA09F962
:104DB00010EA090FF2D022A3D3E9002318F0B0FAC9
:104DC0000022002318F0EEFE0028DDD0002D09DDC2
:104DD000142E2FD00123C6F1340603FA06F6371934
:104DE00028BF9844454627EA090A54462946CDE794
:104DF00013A3D3E9002318F093FA0022002318F03C
:104E0000D1FE0028C0D0002D0FDB55EA040709D0E1
:104E10004FF0000A0D4DB7E702460B4618F080FA36
:104E20000446BCE7BA463D46AEE74FF0000A4FF0F5
:104E30000045A9E705F10108D4E700BFAFF3008002
:104E40009C7500883CE4377EFFFF0F000000F03FB8
:104E5000C1F30A522DE9F843A2F2FF36132E0B4696
:104E60000D460446884607461DDC002E40DB3C4AC2
:104E700042FA06F901EA09020243864618D036A32F
:104E8000D3E9002318F04CFA0022002318F08AFE20
:104E900020B1002D42DB28EA090500273C462946BF
:104EA0002046BDE8F883332E06DDB6F5806F2FD09F
:104EB00019462046BDE8F883A2F213424FF0FF39AD
:104EC00029FA02F910EA090FF2D023A3D3E900234B
:104ED00018F026FA0022002318F064FE0028DDD026
:104EE000002D21DB454627EA09073C462946D7E73E
:104EF00019A3D3E9002318F013FA0022002318F0B5
:104F000051FE0028CAD0002D19DB00273D46C5E719
:104F100002460B4618F004FA0446CAE74FF4801321
:104F200043FA06F6B044B6E7142E10D00123C6F1BA
:104F3000340603FA06F6371928BF9844D2E725F05D
:104F40000042084B224318BF1D460027A6E705F183
:104F50000108C7E7AFF300809C7500883CE4377E0A
:104F6000FFFF0F000000F0BF2DE9F04FD64B994234
:104F700089B00E460F46824613DCD44B21F0004424
:104F80009C4218DD0022D24B18F0E4FD002879D0B5
:104F9000002200230020CF4918F09EFC09B0BDE894
:104FA000F08FCD4B99422FDD5246334618F0B8F9B9
:104FB00009B0BDE8F08FC94B9C4270DDC84B1F445F
:104FC0009F427ED8504631460022C64B18F0A8F9C1
:104FD0004FEA215BABF2FF3BBBF1000F04460D46ED
:104FE0000F4640F3E0815246334618F097F90246E7
:104FF0000B460020BB4918F091F922462B4618F0C9
:105000006BFCCDE900010BE0B74B9F42DADD0022DB
:105010000023CDE900234FEA275B5446ABF2FF3B68
:10502000B24BC7F313079F4247F07F5500F3E78069
:1050300045F44015204629460022AA4B18F06EF987
:10504000002204460D46AA4B18F01CFB22462B46B4
:1050500018F018FBA246CDE902012E46804689468B
:10506000002F3AD1002200232046294618F072FD75
:10507000002800F0CE80BBF1000F40F076810020C8
:10508000014695E7524633465046314618F046F9F8
:1050900002460B4618F020FC09B0BDE8F08F002254
:1050A000944B18F03DF90022002318F07BFD0028F6
:1050B00000F0CC80904B9C4200F3C88050463146B3
:1050C00076E700228A4B18F0DDFA5246334618F094
:1050D000D9FA4FF0000B8046894600224FF08043FA
:1050E0005046314618F01CF902460B4650463146F0
:1050F00018F0F2FB02460B46CDE9022318F0C2FA83
:105100005DA3D3E9002304460D4618F0BBFA5CA367
:10511000D3E9002318F004F922462B4618F0B2FA1E
:1051200059A3D3E9002318F0FBF822462B4618F0C8
:10513000A9FA57A3D3E9002318F0F2F822462B4628
:1051400018F0A0FA54A3D3E9002318F0E9F8224696
:105150002B4618F097FA52A3D3E9002318F0E0F891
:1051600022462B4618F08EFA4FA3D3E9002318F0FD
:10517000D7F822462B4618F085FA04460D46BBF1B7
:10518000000F00F0BB80584618F016FA48A3D3E988
:105190000023CDE9040118F075FA4246CDE9060175
:1051A0004B462046294618F0BBF8DDE9022318F0EB
:1051B00069FA41A3D3E9002304460D46DDE9040161
:1051C00018F060FADDE9002318F0AAF802460B4651
:1051D0002046294618F0A4F802460B4640464946A8
:1051E00018F09CF85246334618F098F802460B46E1
:1051F000DDE9060118F092F809B0BDE8F08F45F43A
:105200000015C7F5801720462946BF100BF1010B8A
:1052100012E72BA3D3E900232046294618F032FADF
:1052200002460B4600202F4918F078F8DDE90223EA
:1052300018F028FA06460F46BBF1000F6DD1024662
:105240000B462046294618F069F8B1E65246334627
:105250005046314618F016FA0022254B18F012FA83
:1052600002460B465046314618F058F809B0BDE8E2
:10527000F08F00BFAFF3008044523EDF12F1C23F17
:105280009FC678D0099AC33FDE03CB966446C73FDA
:10529000AF788E1DC571CC3F599322942449D23FDB
:1052A00004FA97999999D93F935555555555E53F26
:1052B0000000E0FE422EE63F763C7935EF39EA3DCC
:1052C000555555555555E53F7982DA3FFFFFEF3F7C
:1052D0000000F0BF000050C3FFFFEF7FFFFF1F3E45
:1052E0003C412D400000F03FFFFF3F439DA00600E2
:1052F0000000E03F00005043FFFF8F3C42464B461A
:1053000018F00EF8DDE9022318F0BCF902460B464E
:105310004046494618F002F8A2E7584618F04CF902
:1053200027A3D3E9002382468B4618F0ABF926A3C6
:10533000D3E90023804689465046594618F0A2F921
:10534000DDE9002317F0ECFF02460B4630463946F4
:1053500017F0E4FF22462B4617F0E0FF02460B460B
:105360004046494617F0DAFF22E6584618F024F97D
:1053700015A3D3E9002306460F4618F083F9DDE9AB
:10538000002317F0CDFF0EA3D3E9002304460D46FA
:105390003046394618F076F902460B462046294633
:1053A00017F0BEFF04E60022094B17F0B7FF0246D4
:1053B0000B465046314617F0B1FF1EE6AFF30080B2
:1053C0000000E0FE422EE63F763C7935EF39EA3DBB
:1053D0000000F03F0000000008B519F047FA04A3F0
:1053E000D3E9002318F078FA08BD00BFAFF30080BE
:1053F000EF39FAFE422EE63F2DE9F043DFF8B480A4
:105400008BB004460D4600F06BFF98F90030013375
:1054100006460F462BD022462B462046294618F03A
:10542000CBFB814618BB2046294618F0A5FE1CA3DD
:10543000D3E9002318F0B6FBC8B11B4A98F9003035
:10544000CDF820900321CDE90445CDE902458DE852
:1054500006008BB9154B4FF06042CDE90623684634
:105460001AF0ECFD70B1089B9BB9DDE90667304688
:1054700039460BB0BDE8F0830D490020022BCDE981
:105480000601ECD11AF02AFF22230360089B002BAF
:10549000EBD01AF023FF089B0360E6E7AFF3008030
:1054A0007DF8B98FCE338640602B0200FFFFEF47B7
:1054B0000000F07F1E0200202DE9F043DFF8E480B9
:1054C0008BB004460D4600F0BBFF98F90030013365
:1054D00006460F4633D0204629461AF0A9FD70B380
:1054E00029A3D3E900232046294618F05BFB814617
:1054F00050BB27A3D3E900232046294618F034FBEC
:10550000E8B198F90030244ACDF820900426002014
:105510000021022BCDE90445CDE902450096019218
:10552000CDE9060129D068461AF088FD28B3089B0A
:105530001BB11AF0D3FE089B0360DDE90667304615
:1055400039460BB0BDE8F083134A98F90030019258
:1055500003210022CDE90445CDE9024500910892DE
:105560002BB90E4B4FF06042CDE90623DBE70C4927
:105570000020022BCDE90601D5D11AF0AFFE22237F
:105580000360D4E7AFF30080EF39FAFE422E864085
:1055900051302DD5104987C0682B0200FFFFEF471F
:1055A0000000F07F1E0200202DE9F84FC44E21F0CC
:1055B0000043B3420C4605460DDD03F1404303F5BD
:1055C0008013034340F0B980002940F3408100205C
:1055D0000021BDE8F88FBB4EB34240F3A6800029FE
:1055E000C0F2788102460B460020B74917F096FEBC
:1055F0000022B64B18F046F804460D4619F0DAFDC5
:1056000095A3D3E90023894680462946204618F011
:1056100039F893A3D3E9002317F082FE22462B46E4
:1056200018F030F890A3D3E9002317F077FE224654
:105630002B4618F027F88EA3D3E9002317F070FE4D
:1056400022462B4618F01EF88BA3D3E9002317F04F
:1056500065FE22462B4618F015F889A3D3E90023EE
:1056600017F05EFE22462B4618F00CF886A3D3E90D
:10567000002382468B462046294618F003F884A36F
:10568000D3E9002317F04AFE22462B4617F0FAFF13
:1056900081A3D3E9002317F043FE22462B4617F0DF
:1056A000F1FF7FA3D3E9002317F038FE22462B46F3
:1056B00017F0E8FF0022844B17F032FE02460B463B
:1056C0005046594618F008F942464B4617F0DAFFA3
:1056D000002682468B4632464B463046494617F0F6
:1056E000D1FF02460B462046294617F017FE3246E8
:1056F00004460D464B464046494617F011FE024609
:105700000B462046294618F0E7F802460B4650465D
:10571000594617F005FE32464B4617F001FE024689
:105720000B4617F0FDFDBDE8F88F694A93420EDC89
:105730005DA1D1E90001BDE8F88F02460B4617F0E4
:10574000EDFD02460B4618F0C7F8BDE8F88F02469B
:105750000B4617F097FF40A3D3E9002306460F46F8
:1057600017F090FF3EA3D3E9002317F0D9FD32468E
:105770003B4617F087FF3CA3D3E9002317F0CEFD8B
:1057800032463B4617F07EFF39A3D3E9002317F0DA
:10579000C7FD32463B4617F075FF37A3D3E9002318
:1057A00017F0BCFD32463B4617F06CFF34A3D3E93B
:1057B000002317F0B5FD32463B4617F063FF32A3D6
:1057C000D3E90023804689463046394617F05AFF10
:1057D0002FA3D3E9002317F0A1FD32463B4617F073
:1057E00051FF2DA3D3E9002317F09AFD32463B4623
:1057F00017F048FF2AA3D3E9002317F08FFD3246A4
:105800003B4617F03FFF00222F4B17F089FD024661
:105810000B464046494618F05FF82A46234617F0E3
:1058200031FF02460B4622A1D1E9000117F076FDB7
:1058300002460B462846214617F070FD02460B46ED
:1058400019A1D1E9000117F069FDBDE8F88F1AA18F
:10585000D1E90001BDE8F88F09F7FD0DE13D023FF8
:1058600088B20175E0EF493F3B8F68B52882A43FBD
:105870005544880E55C1C93F7D6FEB0312D6D43F06
:10588000555555555555C53F82922EB1C5B8B33FB4
:1058900059018D1B6C06E63FC88A599CE52A0040D9
:1058A0004B2D8A1C273A0340182D4454FB21F93F05
:1058B000075C143326A6913C182D4454FB21094063
:1058C000FFFFEF3FFFFFDF3F0000F03F0000E03F42
:1058D0000000603C00225C4B17F022FD00225B4B75
:1058E00017F0D0FE40A3D3E9002304460D4617F07D
:1058F000C9FE3FA3D3E9002317F012FD22462B4631
:1059000017F0C0FE3CA3D3E9002317F007FD2246A1
:105910002B4617F0B7FE3AA3D3E9002317F000FD9A
:1059200022462B4617F0AEFE37A3D3E9002317F02B
:10593000F5FC22462B4617F0A5FE35A3D3E900233C
:1059400017F0EEFC22462B4617F09CFE8046894657
:105950002046294619F02EFC2FA3D3E90023064642
:105960000F462046294617F08DFE2DA3D3E90023CC
:1059700017F0D4FC22462B4617F084FE2AA3D3E965
:10598000002317F0CDFC22462B4617F07BFE28A300
:10599000D3E9002317F0C2FC22462B4617F072FE13
:1059A0000022294B17F0BCFC02460B4640464946F4
:1059B00017F092FF32463B4617F064FE1EA3D3E970
:1059C000002317F0ABFC32463B4617F0A9FC024619
:1059D0000B4617F0A5FC02460B4619A1D1E90001C0
:1059E00017F09CFCBDE8F88F09F7FD0DE13D023F83
:1059F00088B20175E0EF493F3B8F68B52882A43F2C
:105A00005544880E55C1C93F7D6FEB0312D6D43F74
:105A1000555555555555C53F82922EB1C5B8B33F22
:105A200059018D1B6C06E63FC88A599CE52A004047
:105A30004B2D8A1C273A0340075C143326A6913C61
:105A4000182D4454FB2109400000F03F0000E03FC6
:105A5000434A91422DE9F8430C46054639DD414A57
:105A6000914209DD02F17952914240DD02460B4636
:105A700017F056FCBDE8F88301F1404202F58012B0
:105A8000024330D0B1F1804F3ADC0022364B17F0A0
:105A900045FC02460B4604460D4617F041FC2246E3
:105AA00006460F462B462046294617F0EBFD0246D8
:105AB0000B463046394617F033FC19F07BFB0B469A
:105AC00002462946204617F02BFCBDE8F843FFF7B5
:105AD0004BBA02460B4617F021FC02460B4617F064
:105AE000FBFEBDE8F88300200021BDE8F88300F04C
:105AF0001FFE19A3D3E9002317F012FCBDE8F883B9
:105B000002460B4617F0BEFD0022174B17F006FCAD
:105B100019F050FB2A4680468946234628462146EE
:105B200017F0FEFB424606460F464B4628462146E6
:105B300017F0F6FB02460B4600200B4917F0CCFE8F
:105B40000B4602463946304617F0E8FBBDE8F843FD
:105B500000F0EEBDAFF30080EF39FAFE422EE63FD3
:105B6000FFFFEF3FFFFFAF410000F03F00000000EC
:105B70002DE9F047C44B21F00048984584B00D460C
:105B8000044616DD08F1404808F58018034658EA37
:105B9000030326D002460B4617F0C0FB0B46024615
:105BA00017F09AFE04460B462046194604B0BDE89D
:105BB000F087B64B98458A462EDCB8F1795F80F2C3
:105BC0006D8195A3D3E9002317F0AAFB0022B04B07
:105BD00017F0E8FF00B32B462046194604B0BDE895
:105BE000F0878FA3D3E9002317F04CFD8EA3D3E9F0
:105BF000002306460F462046294617F043FD02467D
:105C00000B463046394617F08BFB04460B462046C0
:105C1000194604B0BDE8F0872046294618F0ACFAD2
:105C200002460B4600209A4917F078FB0022994B58
:105C300017F028FD7EA3D3E9002304460D4617F094
:105C400021FD7DA3D3E9002317F06AFB22462B46F2
:105C500017F018FD7AA3D3E9002317F05FFB224663
:105C60002B4617F00FFD78A3D3E9002317F058FB5C
:105C700022462B4617F006FD75A3D3E9002317F043
:105C80004DFB22462B4617F0FDFC73A3D3E90023FE
:105C900017F046FB22462B4617F0F4FC70A3D3E91D
:105CA0000023CDE900012046294617F0EBFC6EA346
:105CB000D3E9002317F032FB22462B4617F0E2FC13
:105CC0006BA3D3E9002317F02BFB22462B4617F0DA
:105CD000D9FC69A3D3E9002317F020FB22462B4609
:105CE00017F0D0FC6A4B002217F01AFBCDE9020135
:105CF0002046294619F05EFA674B984506460F463E
:105D000067DCDDE90223DDE9000117F0E5FD32463D
:105D1000CDE900013B463046394617F001FB02460B
:105D20000B46DDE9000117F0ADFC4FF00008CDE9AE
:105D3000000142463B464046394617F0A3FC024666
:105D40000B462046294617F0E9FA424604460D461E
:105D50003B463046394617F0E3FA02460B462046EA
:105D6000294617F0B9FD02460B4617F0D9FA02464C
:105D70000B462DA1D1E9000117F0D0FA02460B46DF
:105D8000DDE9000117F0CAFA424604460D463B46DB
:105D90004046394617F0C4FA02460B4638A1D1E90D
:105DA000000117F0BBFA02460B462046294617F0C1
:105DB000B5FA0B46024632A1D1E9000117F0AEFA5E
:105DC00004460B46BAF1000F3FF7EEAE03F1004375
:105DD000EAE6DDE90223DDE9000117F07DFD324648
:105DE0003B4617F04FFC32463B4617F099FA024605
:105DF0000B4617F095FA0CA3D3E9002317F08EFA9F
:105E00000B46024606A1D1E9000117F087FA0446C5
:105E10000B46D7E7AFF300809C7500883CE4377EE3
:105E2000182D4454FB21F93F075C143326A6913CFE
:105E300009F7FD0DE13D023F88B20175E0EF493FF2
:105E40003B8F68B52882A43F5544880E55C1C93F91
:105E50007D6FEB0312D6D43F555555555555C53F6B
:105E600082922EB1C5B8B33F59018D1B6C06E63F37
:105E7000C88A599CE52A00404B2D8A1C273A0340CA
:105E8000182D4454FB21E93FFFFFEF3FFFFFDF3FA9
:105E90000000F03F0000E03F3233EF3F02460B4688
:105EA00017F0F0FB38A3D3E9002306460F4617F09E
:105EB000E9FB37A3D3E9002317F032FA32463B4619
:105EC00017F0E0FB34A3D3E9002317F027FA32469A
:105ED0003B4617F0D7FB32A3D3E9002317F020FA93
:105EE00032463B4617F0CEFB2FA3D3E9002317F031
:105EF00015FA32463B4617F0C5FB2DA3D3E9002324
:105F000017F00EFA32463B4617F0BCFB2AA3D3E942
:105F10000023804689463046394617F0B3FB28A354
:105F2000D3E9002317F0FAF932463B4617F0AAFBF3
:105F300025A3D3E9002317F0F3F932463B4617F0C7
:105F4000A1FB23A3D3E9002317F0E8F932463B462F
:105F500017F098FB0022204B17F0E2F902460B469F
:105F60004046494617F0B8FC22462B4617F08AFBFC
:105F700022462B4617F0D4F904460B462046194614
:105F800004B0BDE8F08700BF09F7FD0DE13D023F19
:105F900088B20175E0EF493F3B8F68B52882A43F86
:105FA0005544880E55C1C93F7D6FEB0312D6D43FCF
:105FB000555555555555C53F82922EB1C5B8B33F7D
:105FC00059018D1B6C06E63FC88A599CE52A0040A2
:105FD0004B2D8A1C273A03400000F03F00000000D0
:105FE0002DE9F84F5442144323F00049704E49EA1A
:105FF000D474B44286460F4640D84442044321F04C
:10600000004B4BEAD474B4428A4637D803F140447B
:1060100004F5801414434AD09C1704F0020444EAA7
:10602000D17450EA0B0131D052EA090137D0B145A1
:1060300052D0B34533D0ABEB09094FEA2959B9F136
:106040003C0F3BDC002B66DB7046394617F044FC06
:1060500018F092F8FEF7C8FC012C58D0022C48D05A
:10606000002C5ED040A3D3E9002317F057F940A3DA
:10607000D3E9002317F052F9BDE8F88F104619460E
:1060800072463B4617F04CF9BDE8F88F022C19D048
:10609000032C10D138A1D1E90001BDE8F88FBAF185
:1060A000000F14DB36A1D1E90001BDE8F88FBDE88F
:1060B000F84FFEF799BC3946BDE8F88F30A1D1E919
:1060C0000001C9E72AA1D1E90001BDE8F88F2EA19E
:1060D000D1E90001BDE8F88FCB4524D0022CF1D0E6
:1060E000032CD7D0012C4FF0000027D00021BDE8B1
:1060F000F88F1DA3D3E9002317F010F902460B46D1
:106100001BA1D1E9000117F009F9BDE8F88F01F1F1
:106110000041BDE8F88F19F13C0F95DA002000210D
:106120009AE7BDE8F88F022C16D0032C0FD0012C73
:1061300008D017A1D1E90001BDE8F88F4FF0004168
:10614000BDE8F88F14A1D1E90001BDE8F88F14A1D2
:10615000D1E90001BDE8F88F13A1D1E90001BDE844
:10616000F88F00BFAFF30080075C143326A6A13C74
:10617000182D4454FB210940182D4454FB2109C01B
:10618000182D4454FB21F93F182D4454FB21F9BF2D
:10619000182D4454FB21E93F182D4454FB21E9BF3D
:1061A000D221337F7CD902C0D221337F7CD90240F7
:1061B0000000F07F0000000043422DE9F047034358
:1061C00021F00048424A48EAD373934206460F46FC
:1061D00016D890454BD03F4B98458A461EDC3AA3D3
:1061E000D3E90023044617F09BF80022002317F0A0
:1061F000D9FC002845D03B4620461946BDE8F0872B
:1062000002460B4617F08AF80B46024617F064FB6D
:1062100004460B4620461946BDE8F0872E4B9845AC
:10622000044645462FDD02464346414617F078F8BE
:10623000224606460F4643460020254917F06EF8D1
:1062400002460B463046394617F046FBFEF78CFEF9
:10625000224B002217F016FABAF1000F04460B4643
:10626000D8DA01F1004320461946BDE8F087002244
:10627000002317F031FB04460B4620461946BDE8C3
:10628000F0873446454622462B462046294617F0DD
:1062900047F822462B4606460F4617F0F3F92246EA
:1062A000804689462B460020094917F037F80246F8
:1062B0000B464046494617F00FFB32463B4617F067
:1062C0002FF8C3E7AFF300809C7500883CE4377E6D
:1062D0000000F03FFFFF2F3EFFFFDF3F0000E03FE9
:1062E0004F4A2DE9F84321F0004494420B460546FD
:1062F0001BDC4C4A944222DD4B4A944263DD4B4AFC
:1063000094427BDD4A4A944246DD0132944240D0B9
:1063100041A3D3E900231046194617F0B3F9064606
:106320000F4630463946BDE8F88302460B4617F063
:10633000A9F906460F4630463946BDE8F88317F0FE
:106340001BFF02F0A9FC00223A4B8046894616F05A
:10635000E7FFB4F1725F06460F46ECDB42464B4660
:106360004046494617F08EF932463B4604460D46F4
:106370003046394616F0D4FF02460B4620462946E1
:1063800017F0AAFA00222B4B16F0CAFF06460F465A
:10639000D1E7294A9042BBD82846194617F0ECFEAF
:1063A0000022264B17F06EF900F04AF8002204464E
:1063B0000D46224B17F066F922462B4617F062F97C
:1063C00006460F46B7E717F0D7FE00F039F800226F
:1063D0001A4B06460F4617F055F932463B4604461F
:1063E0000D460020154917F077FA02460B46204665
:1063F000294616F095FF06460F469CE717F0BCFEAF
:1064000000F01EF800220D4B17F03CF906460F462F
:1064100091E700BFAFF300809C7500883CE4377EB5
:10642000FFFFEF7F422ED63FFFFF3540412E8640D3
:10643000CD3386400000F03F7DF8B98F0000E03F8B
:106440002DE9F04FB04F21F00042BA4283B00C4624
:106450004FEAD17605460DD9AC4FBA4225D9C1F3E2
:106460001303034340F0EF800EB10020014603B058
:10647000BDE8F08FA64B9A4200F2CC80A54B9A4221
:1064800000F2DE808AA3D3E9002316F049FF002240
:10649000A14B17F087FB002800F005812846214614
:1064A00000229D4B16F03CFFE1E783A3D3E90023D4
:1064B00017F078FB002840F0CB802846214680A3C7
:1064C000D3E9002317F050FB0028CED1934B284688
:1064D00003EBC60621467CA3D3E9002317F0D2F8CC
:1064E000D6E9002316F01CFF17F07CFB804617F05E
:1064F00063F877A3D3E9002306460F4617F0C2F8E6
:1065000002460B462846214616F008FF72A3D3E93F
:106510000023CDE900013046394617F0B3F8824632
:106520008B4652465B46DDE9000116F0F7FE054654
:106530000C462A4623462846214617F0A3F868A3AE
:10654000D3E9002306460F4617F09CF866A3D3E96B
:10655000002316F0E3FE32463B4617F093F864A39F
:10656000D3E9002316F0DCFE32463B4617F08AF8EA
:1065700061A3D3E9002316F0D1FE32463B4617F063
:1065800081F85FA3D3E9002316F0CAFE32463B46EA
:1065900017F078F802460B462846214616F0BEFE54
:1065A00006460F462846214632463B46B8F1000FC4
:1065B00056D017F067F8324604460D463B46002099
:1065C0004FF0804116F0AAFE02460B4620462946AF
:1065D00017F082F902460B465046594616F09EFEC9
:1065E000DDE9002316F09AFE0B4602464A490020D8
:1065F00016F094FE6FF47F7398454FDA08F57A78B9
:1066000001EB085100224FF0B87317F03BF803B0CC
:10661000BDE8F08F424B9A423FF658AF414BF40031
:106620002344D3E9002316F079FE3F4BC6F101085D
:106630002344CDE90001D3E900ABA8EB060870E7DD
:106640004FF0000875E702460B4616F069FE0EE7AC
:1066500017A3D3E900231046194617F013F806E7ED
:1066600017F010F80022804689464FF080433046EC
:10667000394616F053FE02460B464046494617F08F
:106680002BF92A46234616F049FE02460B46002007
:10669000214916F043FE03B0BDE8F08F01EB08512D
:1066A00003B0BDE8F08F804643E700BFAFF3008042
:1066B0009C7500883CE4377EEF39FAFE422E864016
:1066C00051302DD5104987C0FE822B654715F73F05
:1066D0000000E0FE422EE63F763C7935EF39EA3D98
:1066E000D0A4BE726937663EF16BD2C541BDBB3ED8
:1066F0002CDE25AF6A56113F93BDBE166CC1663FB6
:106700003E5555555555C53F412E8640FFFFEF7FFD
:10671000422ED63FFFFF2F3E0000F03F58140200EC
:10672000B1A2F03F681402007814020000000000DB
:106730002DE9F04FB1F5801F85B006460F460B4698
:106740005ADA024621F00044224300F0F880002982
:10675000C0F27A810022D64B16F094FFD54A0B4640
:10676000934206460F466FF0350C4ADCC3F313051F
:1067700005F5152E0EF6647E0EF4801E8EF07F5207
:1067800082F440121C1542EA0507A4F2FF34644467
:106790000022C94B3046394604EB1E5416F0BEFDAC
:1067A000AB1CC3F31303022B82468B464FF000024F
:1067B00030DC002317F0CEF9002800F0C980002C4F
:1067C00000F04B81204616F0F7FEA5A3D3E9002385
:1067D00006460F4616F056FFA3A3D3E9002304464E
:1067E0000D463046394616F04DFF02460B46204610
:1067F000294616F095FD0AE0AE4A93424FF0000C90
:10680000B4DD32463B463046394616F089FD05B0C8
:10681000BDE8F08F4FF0804316F082FD02460B4634
:106820005046594617F058F8064620460F4616F0CF
:10683000C3FE3246CDE900013B4630463946CDE93C
:10684000026716F01FFF02460B468046894616F087
:1068500019FF87A3D3E9002306460F4616F012FF5F
:1068600085A3D3E9002316F05BFD32463B4616F0C4
:1068700009FF83A3D3E9002316F052FD32463B46BD
:1068800016F000FF80A3D3E9002316F049FD42462D
:106890004B4616F0F7FE7EA3D3E9002380468946D7
:1068A0003046394616F0EEFE7BA3D3E9002316F0FE
:1068B00037FD32463B4616F0E5FE79A3D3E90023C7
:1068C00016F02EFD32463B4616F0DCFE0B46024625
:1068D0004946404616F024FDA5F5C223C5F5D72547
:1068E000A3F27A4351351D43002D8046894656DD7B
:1068F0000022724B5046594616F0C4FE52465B4683
:1069000016F0C0FE06460F46002C68D132463B46C4
:106910004046494616F004FDDDE9022316F0B2FEBA
:1069200002460B463046394616F0F8FC02460B4646
:106930005046594616F0F2FC05B0BDE8F08F002233
:10694000002300205E4916F0C7FF05B0BDE8F08FB8
:1069500055A3D3E900235046594616F093FE02464C
:106960000B460020554916F0D9FC524606460F4604
:106970005B465046594616F085FE02460B463046A9
:10698000394616F07FFE06460F46002C40F09A80EE
:1069900002460B465046594616F0C0FC37E7002C1D
:1069A00000F0A4802EA3D3E90023DDE9000116F056
:1069B00069FE42464B4604460D465046594616F07F
:1069C000ADFCDDE9022316F05DFE27A3D3E9002329
:1069D00006460F46DDE9000116F054FE21E020A333
:1069E000D3E90023DDE9000116F04CFE32463B46B8
:1069F00004460D464046494616F092FCDDE9022366
:106A000016F040FE18A3D3E9002380468946DDE94D
:106A1000000116F037FE02460B464046494616F086
:106A20007FFC02460B463046394616F077FC52464C
:106A30005B4616F073FC02460B462046294616F0CC
:106A40006DFC05B0BDE8F08F02460B4616F066FC03
:106A50000022002316F040FFD9E600200021D6E6F0
:106A60000000E0FE422EE63F763C7935EF39EA3D04
:106A700044523EDF12F1C23FDE03CB966446C73F6D
:106A8000599322942449D23F935555555555E53F86
:106A90009FC678D0099AC33FAF788E1DC571CC3F91
:106AA00004FA97999999D93F555555555555D53F5C
:106AB00000005043FFFFEF7F0000F03F0000E03F89
:106AC000000050C3204616F077FD0FA3D3E9002342
:106AD0008046894616F0D6FD0DA3D3E9002304466F
:106AE0000D464046494616F0CDFD9AE702460B4654
:106AF0005046594616F012FCDDE9022316F0C2FD9D
:106B000014E700BFAFF300800000E0FE422EE63F36
:106B1000763C7935EF39EA3DB1F5801F2DE9F84330
:106B200004460D460B461ADA024621F0004632436F
:106B300059D000295FDB00223B4B16F0A3FD3B4AF6
:106B40000B4693420D4604466FF035010CDD22469C
:106B50002B462046294616F0E3FBBDE8F883334A6E
:106B600093424FF00001F2DC1815A0F2FF30084408
:106B70004FEAD0794844C3F3130816F01DFDC9F558
:106B80007F73033348EA035506460F4620462946DD
:106B9000FFF7CEFD1EA3D3E9002380468946304689
:106BA000394616F06FFD1CA3D3E9002304460D46B9
:106BB0004046494616F066FD02460B4620462946E9
:106BC00016F0AEFB16A3D3E9002304460D4630466B
:106BD000394616F057FD02460B462046294616F068
:106BE0009FFBBDE8F883002200230020104916F027
:106BF00073FEBDE8F88302460B4616F08FFB0022B9
:106C0000002316F069FEBDE8F88300BFAFF30080F3
:106C1000362BF111F3FE593D0EE526157BCBDB3FFC
:106C200000609F501344D33F00005043FFFFEF7FAD
:106C3000000050C3000000002DE9F04F23F0004792
:106C400057EA020493B037D0674C21F00046A642C1
:106C500083460D4629DC9A46964625D0A74224DC79
:106C6000614CA74279D0002D89468046CDE90023AA
:106C700077DB0024BEF1000F2CD15B4B9F4200F06C
:106C80008B805A4B9F4261D0BAF1804F00F0BA839B
:106C9000574B9A451ED1002D1CDB4046494613B088
:106CA000BDE8F04F18F086BA58B106F1404606F537
:106CB000801656EA0B0306D14C49002013B0BDE8FC
:106CC000F08FB742CCDD4B4813B0BDE8F04F19F060
:106CD000B7B900244046494617F04EFABBF1000F01
:106CE00019D126B1414B25F040429A4213D1BAF155
:106CF000000FC0F2BC83002DE0DA06F1404606F535
:106D0000801656EA040300F08F84012CD6D101F1DD
:106D100000431946D2E7ED0F013D54EA05034ED07A
:106D2000354B9F426EDD03F104739F4240F3E883CD
:106D3000324B9E424EDDBAF1000F4EDD28A3D3E95F
:106D400000231046194616F09DFCB7E7BAF1000F74
:106D5000C0F23C8440464946B0E7BEF1000F82D005
:106D6000A3E7274B9F4228DCA3F154739F4280DDA9
:106D70003B15A3F2FF33142B40F33E84C3F13403DD
:106D80002EFA03F202FA03F39E457FF472AF02F08B
:106D90000102C2F102046DE706F1404303F58013DE
:106DA00053EA0B0388D0154B9E4240F33283BAF16D
:106DB000000F12DBDDE9000180E702245AE74246BA
:106DC0004B464046494616F0A9FA02460B4616F0D5
:106DD00083FD73E7BAF1000FB0DB002000216DE7FF
:106DE0009C7500883CE4377E0000F07F0000F03F97
:106DF0000000E03F881D02000000E041FFFFEF3F80
:106E0000FFFF3F43B6F5801F4FF0000205DAD44B79
:106E100016F038FC6FF034020E463315D14FC6F32E
:106E20001306A3F2FF33134446F07F5ABE421A46BC
:106E30000D934AF4401A40F32183CB4B9E4240F31A
:106E4000FD83134601330D93C84B0022CDE9062381
:106E500000270026CDE90867CDE90E67AAF5801A5C
:106E60000027024653465146CDE90A23DDE90623B1
:106E700016F054FADDE9062380468946DDE90A0169
:106E800016F04EFA02460B460020B84916F024FDD3
:106E90000A460146CDE910121346494602464046CD
:106EA00016F0F0FB4FEA6A0343F000538C4683462A
:106EB00003F50023CDE904BCDA468B46D91900233B
:106EC000CDE902AB0293DDE902AB002006460F4696
:106ED00002460B465046594616F0D4FB02460B4676
:106EE0004046494616F01AFADDE9062380468946EF
:106EF0003046394616F012FA02460B46DDE90A0121
:106F000016F00CFA52465B4616F0BCFB02460B46E6
:106F10004046494616F002FADDE9102316F0B2FBAE
:106F2000DDE90467CDE9060132463B463046394685
:106F300016F0A8FB78A3D3E9002306460F4616F007
:106F4000A1FB77A3D3E9002316F0EAF932463B46CA
:106F500016F098FB74A3D3E9002316F0E1F932464A
:106F60003B4616F08FFB72A3D3E9002316F0D8F945
:106F700032463B4616F086FB6FA3D3E9002316F09A
:106F8000CFF932463B4616F07DFB6DA3D3E90023D3
:106F900016F0C6F93246804689463B4630463946A9
:106FA00016F070FB02460B464046494616F06AFB57
:106FB000524606460F465B46DDE9040116F0B0F97D
:106FC000DDE9062316F05EFB32463B4616F0A8F9D3
:106FD0005246804689465B465046594616F052FB5B
:106FE0000022634BCDE90A0116F09AF942464B465E
:106FF00016F096F902980F46064632463B46504632
:10700000594616F03FFB002282468B46584B3046CD
:10701000394616F083F9DDE90A2316F07FF90246B6
:107020000B464046494616F079F9DDE9042316F08F
:1070300029FB3246804689463B46DDE9060116F0CB
:1070400021FB02460B464046494616F069F9804648
:10705000894602460B4650465946CDE904AB16F028
:107060005FF9DDE902AB38A3D3E9002350460F46B0
:1070700016F008FBDDE90423CDE90201394650464C
:1070800016F04CF902460B464046494616F046F9C2
:107090002FA3D3E9002316F0F5FA2FA3D3E9002399
:1070A000804689465046394616F0ECFA02460B46B1
:1070B0004046494616F034F9DDE90E2316F030F962
:1070C00080460D98894616F077FA424606460F46E6
:1070D0004B46DDE9020116F023F9DDE9082316F03D
:1070E0001FF932463B4616F01BF932463B465046E6
:1070F0008B4616F013F9DDE9082316F00FF9DDE9E8
:10710000022316F00BF902460B464046494616F09C
:1071100005F980462EE000BFEF4E454A287ECA3F63
:1071200065DBC9934A86CD3F01411DA96074D13FFB
:107130004D268F515555D53FFFAB6FDBB66DDB3F0D
:10714000033333333333E33F000000E009C7EE3F3E
:10715000FD033ADC09C7EE3FF5015B14E02F3EBEAC
:10716000000040438E98030079B60B000000F03F0A
:10717000000008408946013C54EA0503DDE90001AE
:1071800014BFD94CD94C0023CDE9043403460C4636
:10719000CDE9023400230293DDE9024522462B4665
:1071A00016F0BCF852465B4616F06CFADDE9002397
:1071B00006460F464046494616F064FA02460B461C
:1071C0003046394616F0ACF82246804689462B46B2
:1071D00050465946CDE9008916F054FA0B4602464E
:1071E00006460F464046494616F09AF8C04B99426B
:1071F00004460D468A4640F3168101F13F4303F5EC
:10720000E003034340F0EA81A3A3D3E90023DDE9CF
:10721000000116F085F83246804689463B462046F6
:10722000294616F07BF802460B464046494616F0C2
:10723000B9FC002840F0D281A8464FEA28534FF409
:107240008012A3F2FE3342FA03F35344C3F30A520B
:10725000A84DA2F2FF321541C3F3130423EA05013E
:107260000020C2F1140B44F48014BAF1000F02465E
:107270000B4644FA0BFB30463946B8BFCBF1000B46
:1072800016F04CF802460B4606460F46DDE90001B3
:1072900016F046F84FEA0B5A0D46002480A3D3E9B6
:1072A00000232046294616F0EDF9324680468946ED
:1072B0003B462046294616F031F802460B46DDE9EA
:1072C000000116F02BF878A3D3E9002316F0DAF9C1
:1072D00077A3D3E9002306460F462046294616F039
:1072E000D1F902460B463046394616F019F80646E3
:1072F0000F4602460B464046494616F011F84246F4
:107300004B4604460D4616F009F802460B46304639
:10731000394616F003F82246804689462B46204619
:10732000294616F0AFF964A3D3E9002306460F46B9
:1073300016F0A8F962A3D3E9002315F0EFFF324657
:107340003B4616F09FF960A3D3E9002315F0E8FF50
:1073500032463B4616F096F95DA3D3E9002315F0BB
:10736000DDFF32463B4616F08DF95BA3D3E90023DF
:1073700015F0D6FF32463B4616F084F902460B461E
:107380002046294615F0CAFF06460F4602460B4620
:107390002046294616F076F90022CDE900014FF08B
:1073A00080433046394615F0B9FF02460B46DDE909
:1073B000000116F091FA424606460F464B4620461B
:1073C000294616F05FF942464B4615F0A9FF0246E2
:1073D0000B463046394615F0A1FF22462B4615F0E4
:1073E0009DFF02460B4600203F4915F097FF8A4457
:1073F000BAF5801FC0F233815146DDE9042316F04F
:1074000041F95BE4424640464B46494616F03AF99C
:1074100054E4BAF1000FBFF6E0ACDDE900341846E1
:1074200004F100414AE4344B21F00048984540F310
:10743000F280324B0B4403430CD132463B4615F0ED
:107440006DFF02460B46DDE9000116F097FB0028B0
:107450003FF4F3AEDDE9040121A3D3E9002316F0E4
:1074600011F91FA3D3E9002316F00CF926E4024614
:107470000B4600201C4916F02FFA3CE400220023A2
:10748000CDE90823CDE90E23174B00220027CDE9D3
:107490000623E6E4AFF30080FE822B654715973C98
:1074A00000000000432EE63FEF39FAFE422EE63F91
:1074B000396CA80C615C20BED0A4BE726937663EF0
:1074C000F16BD2C541BDBB3E2CDE25AF6A56113FE4
:1074D00093BDBE166CC1663F3E5555555555C53FCB
:1074E00059F3F8C21F6EA5010000F03F0000F0BF85
:1074F000FFFF8F40FFFF0F00FFCB904000346F3F36
:107500006B4B9E427FF766AC6A4B9E423FF713ACD3
:107510000022684B15F002FF57A3D3E9002306466B
:107520000F4616F0AFF856A3D3E9002380468946EC
:107530003046394616F0A6F8002282468B465E4B4E
:107540003046394616F09EF802460B464EA1D1E968
:10755000000115F0E3FE32463B4616F093F8024672
:107560000B460020554915F0D9FE3246CDE90201FF
:107570003B463046394616F085F802460B46DDE9B3
:10758000020116F07FF842A3D3E9002316F07AF83F
:1075900002460B465046594615F0C0FE02460B46C1
:1075A00006460F464046494615F0BAFE42464B464F
:1075B000002082468B4615F0B1FE02460B4630464F
:1075C000394615F0ABFE80468946D4E542464B4627
:1075D0000020384916F080F9FFF770BBDDE904019F
:1075E0002DA3D3E9002316F04DF82BA3D3E90023F4
:1075F00016F048F8FFF762BBBEF1000F7FF469ABED
:10760000C3F1140347FA03F202FA03F39F422AD0AC
:107610007446FFF736BB294B98453FF70EAEDDE9C0
:1076200002239246934638E602460B4615F076FE54
:1076300002460B4616F050F9FFF740BB18A3D3E9FA
:107640000023CDE9082318A3D3E90023CDE90E23B5
:107650001B4B00224FF48027CDE9062301E45A4654
:1076600001F05AFDC9E602F00102C2F10204FFF77F
:1076700008BB00BFAFF30080000000604715F73F74
:1076800044DF5DF80BAE543E555555555555D53F25
:10769000FE822B654715F73F9C7500883CE4377EDA
:1076A0000000004003B8E23F06D0CF43EBFD4C3E64
:1076B000FEFFEF3F0000F03F0000D03F0000E03F42
:1076C0000000F83F000000002DE9F04F9A4E21F035
:1076D0000047B74291B040F38E809246974A974256
:1076E0000C4626DC00298AA3D3E9002340F3B481A9
:1076F00015F014FE924B9F4204460D4600F0908018
:1077000085A3D3E9002315F009FE02460B46CAE91A
:1077100000232046294615F001FE7FA3D3E900236C
:1077200015F0FCFD0125CAE90201284611B0BDE8AB
:10773000F08F844A974240F39080834A974265DCF9
:107740003D15A5F21645A7EB055319461F460646FB
:1077500016F048FA15F030FF8046894602460B467F
:1077600030463946CDE90A8915F0D8FD0022774B1D
:1077700015F088FF8946804616F034FA15F01CFF94
:1077800002460B4606460F4640464946CDE90C6781
:1077900015F0C4FD00226D4B15F074FF002200238C
:1077A000CDE90E0116F0D6F9002800F07381002310
:1077B00030463946002216F0CDF9002814BF0123C7
:1077C0000223634A019202212A4600910AA85146E7
:1077D00000F086FB002C054614DADAF80420DAF80B
:1077E0000C3002F1004203F100434542CAF8042084
:1077F000CAF80C3006E0C2E9000100250024C2E905
:1078000002450025284611B0BDE8F08F02460B4620
:1078100015F084FD0025CAE90201CAE90001F1E77B
:107820003FA3D3E9002315F079FD3FA3D3E900235B
:107830000D46044615F072FD02460B46CAE90023C8
:107840002946204615F06AFD37A3D3E9002315F039
:1078500065FD0125CAE90201D4E716F08DFC34A3C9
:10786000D3E900238046894615F00CFF0022394BEE
:1078700015F056FD16F0B6F9054615F09DFE24A349
:10788000D3E90023CDE9040115F0FCFE02460B46C6
:107890004046494615F042FD1FA3D3E90023804628
:1078A0008946DDE9040115F0EDFE1F2DCDE9020149
:1078B00054DC294B6A1E53F822309F424ED00246B8
:1078C0000B464046494615F029FD02460B46CAE9DB
:1078D000002383460E465A4633464046494615F035
:1078E0001DFDDDE9022315F019FD002C02460B46B3
:1078F000CAE9022386DA5B4606F1004601F100413F
:107900008AE84800CAF80C10CAF808006D4279E706
:1079100000004054FB21F93F3163621A61B4D03D4D
:107920000000601A61B4D03D7370032E8A19A33B26
:1079300083C8C96D305FE43FFB21E93F7BD902403A
:10794000FB21F93FFB213941FFFFEF7F0000704130
:107950001C2C02000000E03F9C2B0200DDE902230A
:107960004046494615F0DAFC3A15C1F30A53D31ADA
:10797000102B83460E460992CAE90001ABDD58A3DD
:10798000D3E90023DDE9040115F07CFE06460F462D
:1079900002460B464046494615F0C0FCCDE90601BB
:1079A00002460B464046494615F0B8FC32463B4677
:1079B00015F0B4FC4CA3D3E9002306460F46DDE9DD
:1079C000040115F05FFE32463B4615F0A7FCDDE9E9
:1079D0000689CDE9020102460B464046494615F0AC
:1079E0009DFC0B46C1F30A570E460999CF1B024670
:1079F000312F8346CAE900236CDD3DA3D3E9002380
:107A0000DDE9040115F03EFE06460F4602460B4630
:107A100040464946CDE9068915F080FC02460B46F2
:107A200080468946DDE9060115F078FC32463B4682
:107A300015F074FC30A3D3E9002306460F46DDE9B8
:107A4000040115F01FFE32463B4615F067FC024666
:107A50000B46CDE9022334E715F062FC2A4B9F4226
:107A600004460D4618D026A3D3E9002315F058FC90
:107A700002460B46CAE900232946204615F04EFC73
:107A80001FA3D3E9002315F04BFC4FF0FF35CAE9E3
:107A90000201B7E6032394E611A3D3E9002315F00E
:107AA0003FFC11A3D3E900230D46044615F038FC32
:107AB00002460B46CAE900232946204615F02EFC53
:107AC00009A3D3E9002315F02BFC4FF0FF35CAE9D9
:107AD000020197E6DDE90689FDE600BFAFF300800D
:107AE0000000601A61B4D03D7370032E8A19A33B65
:107AF0000000002E8A19A33BC14920259A837B39B7
:107B00003163621A61B4D03DFB21F93F00000000EF
:107B1000574A2DE9F84F21F0004890450E46074698
:107B20002BDC544B0029B4BF534D544D98454FF0B6
:107B3000000410DC524B98456EDC4BA3D3E90023C4
:107B400015F0EEFB00224F4B16F02CF8D8B138465A
:107B50003146BDE8F88F4C4B984579DD4B4B984545
:107B600043DD013398453DD0384631463EA3D3E945
:107B7000002315F087FDBDE8F88F02460B4615F08F
:107B8000CFFBBDE8F88F3846314616F0F5FA01F024
:107B900083F806460F4632463B463046394615F0D6
:107BA000BFFB324682468B463B463046394615F08F
:107BB00069FD002280468946324B3046394615F031
:107BC000AFFB02460B464046494615F085FE02468D
:107BD0000B465046594615F0A1FB22462B4615F0A0
:107BE00051FDCEE72A4B9842BED83846314616F0B2
:107BF000C3FA0022214B15F045FDFEF721FC064695
:107C00000F4602460B462046294615F03BFD3246FC
:107C10003B4615F037FDB4E716F0AEFA01F03CF83C
:107C20001C4B984506460F46B5DD0022154B15F056
:107C300077FB02460B463046394615F04DFE32467C
:107C40003B4615F06DFB22462B4615F01BFD98E7D1
:107C500016F092FAFEF7F4FB02460B462046294640
:107C600015F010FD8DE700BF3374AC3C1F7BAC7F7B
:107C7000FFFFEF7FFFFF35400000E0BF0000E03F67
:107C8000FFFF2F3E0000F03F412E8640CD3386405F
:107C90007DF8B98FFFFFEF3F2DE9F04F21F000464F
:107CA000B6F1795F85B00C4692469B4605466BDA85
:107CB00015F098FF002800F0E8802A462346284661
:107CC000214615F0DFFC74A3D3E9002380468946E2
:107CD00015F0D8FC72A3D3E9002315F021FB42462E
:107CE0004B4615F0CFFC70A3D3E9002315F016FB2B
:107CF00042464B4615F0C6FC6DA3D3E9002315F0B0
:107D00000FFB42464B4615F0BDFC6BA3D3E90023A5
:107D100015F004FB42464B4615F0B4FC68A3D3E9CA
:107D2000002315F0FDFA42464B4615F0ABFCCDE9B9
:107D300000010022644B4046494615F0A3FCDDE9F2
:107D4000002306460F464046494615F09BFC524626
:107D5000804689465B462846214615F093FC02463C
:107D60000B464046494615F0D9FA02460B463046C6
:107D7000394615F0D3FA02460B460020534915F058
:107D8000CDFA05B0BDE8F08F02460B4615F07AFC3F
:107D900041A3D3E900238046894615F073FC40A334
:107DA000D3E9002315F0BCFA42464B4615F06AFCB5
:107DB0003DA3D3E9002315F0B1FA42464B4615F036
:107DC00061FC3BA3D3E9002315F0AAFA42464B46D7
:107DD00015F058FC38A3D3E9002315F09FFA42466A
:107DE0004B4615F04FFC36A3D3E9002315F098FA63
:107DF0004B46424615F046FC354B9E42CDE900010C
:107E000097DD344B9E424FF0000238DCA6F500139C
:107E100000202E4916461F4615F080FACDE90201D2
:107E20000022294B4046494615F02CFC32463B4681
:107E300015F074FADDE9002306460F464046494630
:107E400015F020FC5246804689465B46284621466E
:107E500015F018FC02460B464046494615F05EFAFE
:107E600002460B463046394615F058FA02460B4694
:107E7000DDE9020115F052FA05B0BDE8F08F164BAE
:107E8000164FCDE902230026CAE71049002005B0AD
:107E9000BDE8F08FAFF30080D43888BEE9FAA8BD02
:107EA000C4B1B4BD9EEE213EAD529C804F7E923E49
:107EB0009015CB19A001FA3E7751C1166CC1563FFF
:107EC0004C5555555555A53F0000E03F0000F03F8B
:107ED0003233D33F0000E93F0000E73F0000D23FCC
:107EE0002DE9F04FADF5197D9C4CA29E9C4D54F8A8
:107EF000264005942646D41E85FB0475E417C4EB82
:107F0000A50424EAE4741D460893631CA3EB8303D1
:107F1000013D02EBC30304932B4609940295651BB4
:107F2000F418039006911AD42C4401340DF178080A
:107F300000260027DDF88C9208E059F8250015F09E
:107F40003BFB0135A542E8E9020108D0002DF4DA37
:107F5000013530463946A542E8E90201F6D1059BD4
:107F6000002B2EDB089B4FEAC309039BA9F10808ED
:107F7000984420AB9944059B70AA02EBC30B0DF506
:107F8000DC7A029B002BC0F20F83039B4D46A3F1CA
:107F900008040026002775E90223F4E9020115F020
:107FA00071FB02460B463046394615F0B9F9444597
:107FB00006460F46EFD1EAE90267DA4509F10809FA
:107FC000DFD10598089A009000F18043013B9B00A7
:107FD0000CAC191F234402F100520B93039B013A8E
:107FE00021440A9103EBC20B009A98A901EBC2034A
:107FF000002A53E9284513462BDD01EBC308A8F1FD
:10800000A8080DF12C090DF5DC7A0022554B20460D
:10801000294615F037FB15F0E5FD15F0CDFA0022E5
:10802000514B06460F4615F02DFB02460B462046E7
:10803000294615F073F915F0D5FD78E8022349F8C3
:10804000040F3946304615F06BF9D04504460D460D
:10805000DBD1DDF81090204629464A4601F05CF855
:1080600000224FF07F5304460D4615F00BFBFCF742
:10807000EFFE00223D4B15F005FB02460B46204665
:10808000294615F04BF90D46044615F0ABFD804628
:1080900015F092FA0B4602462946204615F03EF9A5
:1080A0004B46002B06460F4640F3F780009A0CA97A
:1080B000013AC9F1180351F8225045FA03F101FAC7
:1080C00003F30CA8EB1A40F82230C9F117058844D5
:1080D00043FA05F5002D63DD009B002B08F1010834
:1080E00040F381820C9C002C00F0188301200023B7
:1080F0000CAAC4F1807442F82340009A824219DD30
:108100000CAA0CAC52F820106FF07F42511A44F8C0
:1081100020100099023399420CDD1046009A0CA9F8
:1081200001EB830301EB82011A68821A43F8042BE6
:108130008B42F9D1049B002B1ADD049B012B4FF0DD
:10814000010440F05882009B5A1E0CAB0CA953F856
:108150002230C3F3160341F8223058E2BC3002004B
:10816000ABAAAA2A0000703E000070410000204027
:10817000022D15D132463B460020974915F0CEF826
:1081800006460F46049A9449002000F0C5FF0246B7
:108190000B463046394615F0C1F8022506460F4613
:1081A000002200233046394615F0D4FC002800F0A8
:1081B0005282009A059B501E83420FDC02F18043DD
:1081C000013B0CAA0B9C02EB8303002253F8041919
:1081D000A34242EA0102F9D1002A6FD1059B0CAA01
:1081E000013B52F82330002B40F033820A9A0123DE
:1081F00052F8041901330029FAD0009AD31802F179
:10820000010A9A4507933DDC009B0899099A0B44A3
:1082100007990AEB0208994620AB08F1804803EB66
:10822000C9098B18A39A08F1FF3802EB880870AAD5
:1082300002EBCA0AA39A02EB8303009358F8040FD7
:1082400015F0BAF9029B002BE9E802011DDB039B44
:108250004D46A3F108040026002775E90223F4E93E
:10826000020115F00FFA02460B463046394615F06A
:1082700057F85C4506460F46EFD1009B9845EAE863
:108280000267DBD1079B0093AEE6009B0026002728
:108290009845EAE80267D1D1F4E706D1009B0CAA21
:1082A000013B52F82350ED1514E700224B4B15F01B
:1082B0006FFC002840F08281054671E70CA9029509
:1082C00051F820300499CDF81C80183902460090EE
:1082D00004916BB900F18043013B0CA800EB8303D0
:1082E00053F80409013A18390028F9D00092049192
:1082F000049A3949002000F00FFF009B002B044630
:108300000D46C0F20382DA0070A901EB020B049261
:108310000CAA02EB8306DFF8C8900BF108070436BD
:108320004FF0000856F8040D15F046F922462B468A
:1083300015F0A8F94B4667E9020142462046294656
:1083400015F0A0F90CAB9E4204460D46EAD10DF59E
:10835000907ACDF80CA0DDF814A04FF00009BAF126
:10836000000FC0F23D81DFF87C805D4618A1D1E9A5
:10837000000100260027002403E04C4510DCF8E84B
:108380000201F5E8022315F07DF902460B4630465E
:10839000394614F0C5FF0134A24506460F46ECDA13
:1083A000039B03EBC903ABF1080BC3E900676EAB9A
:1083B0005B4509F10109D2D1A29BDDF80CA0032B8A
:1083C00000F28B80DFE813F0D100900090001000E5
:1083D00000000040FB21F93F0000F03F0000E03FBB
:1083E0000000703EA0140200009B002B40F3A4810B
:1083F000049B0AEB0308D8E90067D34658E9029AC0
:1084000032463B464846514614F08AFF04460D4624
:1084100002460B464846514614F080FF32463B4622
:1084200014F07EFFC8E9000168E90245C34526460D
:108430002F46E3D1009B012BDA4640F37D81049B5C
:108440005B44D3E90067984699460DF5947B59E95A
:1084500002343246184621463B46CDE9000114F06D
:108460005FFF04460D4602460B46DDE9000114F0AD
:1084700055FF32463B4614F053FFC9E9000169E954
:108480000245CB4526462F46E1D1002308F10808D6
:108490001D464CAC1846294678E9022314F040FFEB
:1084A000444503460D46F5D1029A002A00F020818A
:1084B000DAF80440DAF80C20069FDAF80010DAF84F
:1084C00008003B6105F1004504F1004402F100425F
:1084D0007D617C60FA603960B860079B03F007003B
:1084E0000DF5197DBDE8F08F049C00260834544436
:1084F00033463046194674E9022314F011FF5445FF
:1085000006460B46F5D1029A30461946002A00F07D
:10851000DA80069803F10044324644600660DAE9E6
:10852000000114F0FBFE0B460099002902460EDD07
:10853000012410461946FAE9022314F0F1FE0B4615
:1085400000990134A1420246F3DA029909B103F11C
:1085500000431946069B1046C3E90201079B03F03E
:1085600007000DF5197DBDE8F08F049C002208344A
:10857000544413461046194674E9022314F0D0FE01
:10858000A24502460B46F5D1029909B103F1004319
:108590001946069B1046C3E90001079B03F007003C
:1085A0000DF5197DBDE8F08F00260027EAE9026786
:1085B000DA4509F108097FF4E4AC02E5009B002BE1
:1085C00008F10108C8BF02253FF78CAD32463B4693
:1085D0000020634914F0A2FE022506460F46DFE59F
:1085E00000260027DCE6049B002B26DD0024049BEC
:1085F000012B3FF4A8AD022B09D1009B5A1E0CABF6
:108600000CA953F82230C3F3150341F82230022D90
:108610007FF4C6AD32463B460020514914F07EFE41
:1086200006460F46002C3FF4BBADABE50099013385
:10863000994278D1049B002BD9DC022D7FF4B0AD98
:1086400032463B460020464914F068FE06460F4677
:10865000A6E50123D1E53946049F02957A423046CA
:10866000CDF81C8000F058FD00223E4B04460D461C
:1086700015F08EFA002862D000223B4B2046294696
:1086800015F000F815F0AEFA064614F095FF00223A
:10869000344B14F0F7FF02460B462046294614F0EF
:1086A0003DFE15F09FFA00990B4601331A460093E0
:1086B0003B46183304930B460CA941F8230013469C
:1086C00041F8236014E6069B3246C3E900010B46DD
:1086D000DAE9000114F022FE0B4600990029024657
:1086E0003FF726AF1946069B1046C3E9020135E75E
:1086F00018462946DAE90023DAE90245069FC7E968
:108700000401C7E90023C7E90245E6E6A29B032B63
:108710003FF6E3AEDFE803F0211C1C0E009B012BAB
:1087200088DD0CAA012352F8044F002C3FF47EAFE1
:10873000581CDDE40DF5907A00231D46B4E6294669
:10874000204615F04FFA009A0CA941F82200CFE517
:10875000002633460DF5907AD5E60022134613E73E
:108760000000F03F000070410000703E000000007B
:108770002DE9F04F21F00046B6F1795F85B00C4647
:1087800090469946054604DA15F02CFA002800F0C8
:1087900085802A4623462846214614F073FF064664
:1087A0000F4602460B462846214614F06BFF3EA3B7
:1087B000D3E9002382468B463046394614F062FFE7
:1087C0003BA3D3E9002314F0A9FD32463B4614F045
:1087D00059FF39A3D3E9002314F0A2FD32463B46EA
:1087E00014F050FF36A3D3E9002314F097FD32466E
:1087F0003B4614F047FF34A3D3E9002314F090FD67
:108800000E9BCDE900019BB30022334B4046494605
:1088100014F038FFDDE90023CDE902015046594646
:1088200014F030FF02460B46DDE9020114F076FD3C
:1088300032463B4614F026FF42464B4614F06EFD8E
:1088400023A3D3E9002306460F465046594614F0A9
:1088500019FF02460B463046394614F061FD0246C8
:108860000B462846214614F059FD05B0BDE8F08FAF
:1088700002460B463046394614F004FF14A3D3E9F0
:10888000002314F04BFD52465B4614F0FBFE2A46D3
:10889000234614F045FD05B0BDE8F08F284621467B
:1088A00005B0BDE8F08F00BF7CD5CF5A3AD9E53D81
:1088B000EB9C2B8AE6E55A3E7DFEB157E31DC73E91
:1088C000D561C119A0012A3FA6F810111111813FED
:1088D000495555555555C53F0000E03F0000000083
:1088E0002DE9F04FDA4C21F00046A64287B08A46C7
:1088F00089461746984683461ADC15F073F9A8BBDB
:108900005B461E43109B0133334300F0A981109B4B
:10891000012B00F0B9815A4653460020CD4914F08E
:10892000DBFF04460D462046294607B0BDE8F08F20
:10893000C94B9E421ADD0029C0F29F815A46534618
:10894000A5A1D1E9000114F0E9FC3A4643460446EA
:108950000D46A3A1D1E9000114F0E0FC22462B460C
:1089600014F0DEFC002783468A46B8465A46534632
:108970005846514614F086FE03460C46CDE90034B5
:1089800002460B4614F07EFEDDE9002304460D4648
:108990005846514614F076FE93A3D3E90023CDE95F
:1089A00002012046294614F06DFE91A3D3E900236D
:1089B00014F0B6FC22462B4614F064FE8EA3D3E9D5
:1089C000002314F0ADFC22462B4614F05BFE8CA372
:1089D000D3E9002314F0A4FC22462B4614F052FEE7
:1089E00089A3D3E9002314F09BFC22462B4614F004
:1089F00049FE87A3D3E9002314F092FCDDE90023AC
:108A000014F040FE84A3D3E90023CDE904012046FD
:108A1000294614F037FE82A3D3E9002314F080FC2A
:108A200022462B4614F02EFE7FA3D3E9002314F038
:108A300077FC22462B4614F025FE7DA3D3E90023C4
:108A400014F06EFC22462B4614F01CFE7AA3D3E9E8
:108A5000002314F065FC22462B4614F013FE78A385
:108A6000D3E9002314F05CFC02460B46DDE9040167
:108A700014F056FCDDE9022314F004FE3A464346A6
:108A800014F04EFCDDE9002314F0FCFD02460B4619
:108A90003846414614F044FC6BA3D3E90023044656
:108AA0000D46DDE9020114F0EDFD22462B4614F0DF
:108AB00037FC0B46024651465846CDE9002314F0D8
:108AC0002FFC654B9E4204460D463EDC109B012B5D
:108AD00036D002460B4600205E4914F0FDFE00240D
:108AE0000F4606465A4653462046294614F016FCC1
:108AF000A04602460B46DDE9000114F00FFC424699
:108B00003B4614F0BFFDA94604460D4642463B468F
:108B10004046494614F0B6FD0022504B14F000FCCC
:108B200002460B462046294614F0FAFB32463B46E5
:108B300014F0A8FD42463B4614F0F2FB04460D46F5
:108B40002046294607B0BDE8F08F109814F034FD98
:108B5000224606460F462B462046294614F092FD33
:108B60003246CDE902013B462046294614F0D8FBA7
:108B700002460B46DDE9020114F0AEFEDDE90023FA
:108B800014F0CCFB02460B465846514614F0C6FB87
:108B900002460B4614F0C4FB02460B4630463946EB
:108BA00014F0BCFB04464FEAA97000F00200C0F1CB
:108BB00001000D4614F000FD02460B4620462946F2
:108BC00014F060FD04460D462046294607B0BDE876
:108BD000F08F00BFAFF30080182D4454FB21E93F14
:108BE000075C143326A6813CD47ABF74702AFB3EFE
:108BF000E9A7F0320FB8123F68108D1AF726303F00
:108C00001583E0FEC8DB573F93846EE9E326823F7D
:108C1000FE41B31BBAA1AB3F735360DBCB75F3BE10
:108C2000A69237A0887E143F0165F2F2D844433FF4
:108C3000280356C9226D6D3F37D60684F464963FEB
:108C40007AFE10111111C13F635555555555D53F49
:108C5000FFFF2F3E0000F0BF2794E53F0000F03FEC
:108C60005846514615F088FA02460B46002008493E
:108C700014F032FE04460D4662E701F1004308F1AC
:108C8000004883469A4659E65C46554658E700BF79
:108C90000000F03F000000002DE9F04FD24A21F023
:108CA0000043934285B00C460E4605462DD9CF4A67
:108CB00093421AD8002E80F21681B5A3D3E900237F
:108CC0002846214614F02CFB0022002314F04CFF10
:108CD000C0B9B1A3D3E900232846214614F0D2FC41
:108CE00002460B460020C24908E1C24A934240F2C4
:108CF000D0800346C1F31302134340F0F6810029EC
:108D000080F2C4800020BC49C0E0BC4A934200F21B
:108D10002981BB4A934240F2DE8000230193002266
:108D2000B84B2846214614F0ADFC06460F460246D5
:108D30000B462846214614F0A5FC99A3D3E900234D
:108D400082468B4614F09EFC97A3D3E9002314F0CF
:108D5000E7FA52465B4614F095FC95A3D3E900234D
:108D600014F0DCFA52465B4614F08CFC92A3D3E973
:108D7000002314F0D5FA52465B4614F083FC90A30E
:108D8000D3E9002314F0CAFA52465B4614F07AFC89
:108D900000229D4B14F0C4FA8046894602460B46D9
:108DA0003046394614F06EFC02460B4600209749C7
:108DB00014F0B4FA064602460B460F4640464946B2
:108DC00014F0ACFA3246804689463B462846214696
:108DD00014F058FC02460B4600208D4914F09EFA10
:108DE00002460B464046494614F076FD52465B4625
:108DF00014F048FC019E02460B46002E38D0DDE9F7
:108E0000026732463B4614F089FA2A46234614F09C
:108E100039FC32463B4614F081FA5B46524614F068
:108E20007DFA019B013306460F4600F00F81019B3E
:108E3000012B00F0F180019B0133392B39D8019BC4
:108E4000132B40F31281019FC7F57F760336002272
:108E5000330514F065FA02460B462846214614F005
:108E60005DFA0022684B14F05BFA01EB07510DE04C
:108E70002846214614F006FC52465B4614F04EFA92
:108E800002460B462846214614F048FA05B0BDE8D4
:108E9000F08F4DA3D3E9002314F084FE00283FF4A3
:108EA00009AF4BA3D3E900231046194614F0EAFB9F
:108EB000ECE72A46234614F031FA02460B4600201E
:108EC000514914F02BFA019A4F4B01EB0251002249
:108ED00014F024FADAE73EA3D3E9002314F020FAD1
:108EE00002460B46CAE72CA3D3E9002328462146B5
:108EF00014F0C8FB0B4643490246002014F010FA58
:108F000014F070FE019014F057FB33A3D3E9002353
:108F100006460F4614F0B6FB02460B46284621468D
:108F200014F0FCF92EA3D3E900238046894630468D
:108F3000394614F0A7FB06460F4632463B464046EC
:108F4000494614F0EBF902460B4605460C464046EE
:108F5000494614F0E3F932463B4614F0DFF9CDE917
:108F60000201DCE62B4A934200F2978000291AA303
:108F7000D3E90023C0F2AE8014F0D0F9012380467B
:108F80008946019316A7D7E90067D6E7AFF30080BB
:108F900059F3F8C21F6EA501FE822B654715F73FF6
:108FA0002DC3096EB7FD8ABE3952E686CACFD03EC0
:108FB000B7DBAA9E19CE143F8555FE19A0015A3F72
:108FC000F41011111111A13FEF39FAFE422E864023
:108FD0009C7500883CE4377E0000E0FE422EE63FB0
:108FE000763C7935EF39EA3D79684340412E864039
:108FF0000000E0BFFFFFEF7F0000F0BF422ED63F32
:10900000FFFF8F3C0000E03F0000F03F0000084001
:1090100000001840B1A2F03F2846214600223A4BFA
:1090200014F0A2FD002846D0284621460022374BE6
:1090300014F076F902460B463046394614F06EF9C4
:1090400000224FF0404314F01DFB1FE732463B4621
:109050002846214614F062F900222C4B14F012FB32
:1090600000222A4B14F05AF910E7019E4FF4001E1B
:109070004EFA06FE2A462346CEF17F5714F04EF9EB
:10908000002607F5401702460B463046394614F0D5
:1090900045F9019E01EB0651F8E617A3D3E9002339
:1090A00014F0F0FA002C02460B464FF00000FFF6D9
:1090B0001AAE164922E732463B462846214614F0AE
:1090C0002DF902460B4614F02BF90022104B14F038
:1090D00027F9DBE614F024F94FF0FF338046894688
:1090E000019307A7D7E9006727E702460B4614F06C
:1090F00017F9CBE6AFF30080FE822B654715F73FEB
:10910000763C7935EF39EABD0000D0BF0000E03F82
:109110000000F03F00000000F8B5C1F30A56044615
:109120000D460B4617460EBB21F00043034386460F
:1091300025D00022344B14F0A5FA344A9742044655
:109140000D460B462ADBC1F30A56363E3E4440F23A
:10915000FE72964228DC002E12DD23F0FF4323F43A
:10916000E00343EA065520462946F8BD40F2FF7267
:109170009642EBD102460B4614F0D2F8F8BDF8BD8A
:1091800016F1350F1DDA4CF250339F4222462B4622
:1091900025DC19A1D1E9000117F084F816A3D3E961
:1091A000002314F06FFAF8BD22462B4614A1D1E932
:1091B000000117F077F812A3D3E9002314F062FA44
:1091C000F8BD23F0FF4323F4E003363643EA0655A7
:1091D0002046294600220E4B14F054FAF8BD08A18F
:1091E000D1E9000117F05EF805A3D3E9002314F0DC
:1091F00049FAF8BDAFF3008059F3F8C21F6EA5011C
:109200009C7500883CE4377E00005043B03CFFFF73
:109210000000903C10B5054C237833B9044B13B1D2
:109220000448AFF300800123237010BD30020020FA
:1092300000000000443202000C4B43B10C480D49C1
:1092400010B5AFF300800C48036823B910BD0A487D
:10925000036833B97047094B002BF7D0BDE81040C5
:109260001847064B002BF5D0184700BF0000000040
:1092700044320200340200204432020000000000A8
:1092800070B504460E4600F0D1F888B10368DB6A79
:1092900005469847082C0CD0A4F10903012B14D9DA
:1092A0003246214610230D20BDE8704004F0B0B8CE
:1092B00070BD2B6828465B6A98470228F0DC2B6853
:1092C00028461B6A04219847EAE72B6828465B6A10
:1092D00098470528E4DC2B6828461B6A0821984734
:1092E000DEE700BF30B52DED028B83B0054600F000
:1092F0009DF8044640B10368DB6A9847032D50D8B7
:10930000DFE805F0373F47080190019803B0BDEC56
:10931000028B30BD20460CF0D3FD07EE900A2046AC
:10932000F8EEE78A0CF0DCFD07EE900A2046B8EE76
:10933000E78A0CF0E5FD68EE087A07EE100AE8EE21
:10934000A87AB8EEC77AE7EE077AF5EE407AF1EE42
:1093500010FAB1EEE78A03D517EE900A15F0C2FDB8
:10936000FDEEC87ACDED017A019803B0BDEC028B19
:1093700030BD204603B0BDEC028BBDE830400CF0A0
:109380009FBD204603B0BDEC028BBDE830400CF021
:10939000A7BD204603B0BDEC028BBDE830400CF009
:1093A000AFBD00230193B0E738B5054600F03EF8A5
:1093B00058B10368DB6A0446984745B1012D04D1D2
:1093C0002046BDE83840FBF77BB9002038BD204679
:1093D000BDE83840FBF754B910B5044600F026F854
:1093E00028B1036821461B6ABDE81040184710BD2C
:1093F0000048704716FCFFFF704700BF10B5034BD5
:10940000036004460CF03CFB204610BDC42402005F
:1094100010B5054B036004460CF032FB204617F0F4
:10942000DDFB204610BD00BFC42402002DE9F0433F
:10943000BA4C236885B01BB1986805B0BDE8F083CD
:109440004FF0FF31012001F0F5FC04F0DFFD0028B2
:1094500000F0E5800C2017F0C3FB032106465120E5
:1094600001F0E8FCDFF8E4E2AD4B054605F00F073C
:10947000C5F3031815F4807518BF7346A94839461B
:1094800042460BF0F3FC2A1C18BF01223946434622
:1094900030460FF079FA0023A348B3600BF0E6FCE6
:1094A0004FF0FF31032001F0C5FC04F0AFFD4FF099
:1094B000FF310546022001F0BDFC04F0A7FD002DA0
:1094C00000F09680002800F093800146284604F0C2
:1094D000AFFB0746002800F09E804FF0FF3146208A
:1094E00001F0A8FC322880462AD027DD382866D033
:1094F00068283DD14FF0FF31012001F09BFC04F0C2
:1095000085FD81464C2017F06BFB05230546019332
:109510004A46CDF80080394633460EF005FA284613
:10952000B06003689B6A9847B0680368DB6A984735
:109530007E480BF09BFC2660B0687EE7302817D190
:109540004FF0FF31012001F075FC04F05FFD814612
:109550004C2017F045FB1FFA88F1054605234A46C3
:1095600000910193394633460DF0C0FF2846D7E7F6
:109570003A680125002301950095D2F82080B36058
:109580000F220DF10F0332213846C047002851D178
:109590004FF03208414666480BF068FC4FF0FF314F
:1095A000012001F047FC04F031FD81464C2017F00A
:1095B00017FB052305464A46CDF80080D1E74FF05A
:1095C000FF31012001F036FC04F020FD81464420EB
:1095D00017F006FB052305464A46CDF800803946BC
:1095E000019333460EF0F8F8524B2B60284697E76C
:1095F00051480BF03BFC4FF0FF31192001F01AFCF1
:1096000004F004FD4FF0FF310546182001F012FC74
:1096100004F0FCFC59E749480BF028FC8BE74FF0BD
:10962000FF31032001F006FC04F0F0FC00287FF479
:1096300011AF02E73B6801950095D3F820800F2217
:109640000DF10F0330213846C04718B94FF03008EC
:109650004146A0E73B6801950095D3F820800D2294
:109660000DF10F0338213846C047B8B938213048CA
:109670000BF0FCFB4FF0FF31284601F0DBFB04F060
:10968000C5FC8046442017F0ABFA4FF0050E382396
:109690000546424639468DE80840A2E73A680195FA
:1096A0000095D2F820800DF10F037522682138460D
:1096B000C047D8B968211E480BF0D8FB4FF0FF31E6
:1096C000284601F0B7FB04F0A1FC80464C2017F0BF
:1096D00087FA4FF0050E682305468DE8084042469C
:1096E000394633460EF020F9284619E714480BF0A6
:1096F000BDFBB06800287FF414AF4FF0FF310320AA
:1097000001F098FB04F082FC18B10E480BF0AEFBA0
:1097100011E70D480BF0AAFB0DE700BF4C0200203B
:109720002C1502003415020054150200EC1502003D
:1097300010160200F01402006415020078150200F1
:10974000FC15020090150200CC1502002415020041
:1097500008B501F0A1FCFBF73FFEBDE8084001F0B1
:10976000FDB900BF08B501F097FCFBF7A5FEBDE809
:10977000084001F0F3B900BF08B501F08DFC14F00A
:1097800071FDBDE8084001F0E9B900BF08B501F07E
:1097900083FC15F0E3FABDE8084001F0DFB900BF33
:1097A00008B501F079FCFBF727FEBDE8084001F0A1
:1097B000D5B900BF08B501F06FFC14F085FFBDE816
:1097C000084001F0CBB900BF08B501F065FCFBF71C
:1097D00063F8BDE8084001F0C1B900BF08B501F069
:1097E0005BFC14F0C5FEBDE8084001F0B7B900BF4E
:1097F00070B5049E96420C4628DB15466BB1002AD4
:1098000000EB020107DD2046A21811F8013D00F827
:10981000013B9042F9D1002070BD042A0FD0022AEA
:1098200002D110F0010306D001462A46204607F077
:10983000D5FC002070BD02880A80184670BD10F06B
:109840000303F1D102680A60184670BD0846002182
:1098500008F0B4FE4FF0FF3070BD00BF0830704715
:1098600040B1002905DB4368994202DA0844007AD6
:1098700070470020704700BF30B1002904DB436807
:109880009942BCBF40180272704700BF40B1002926
:1098900005DB4368994202DA0844007A70470020E9
:1098A000704700BF830705D120B1030F0CBF012013
:1098B000002070470120704730B1002904DB436865
:1098C0009942BCBF40180272704700BF002B23DBD7
:1098D000002921DB70B54668B1421ADC5568761A5A
:1098E0001446EA1AB242A8BF3246002A11DB84426B
:1098F0000D4607D0083408300844E11807F06EFC24
:10990000002070BD0834E118601917F0A3F9002099
:1099100070BD4FF0FF3070BD4FF0FF30704700BF9B
:109920004068704710B4141E10DB426894420DDC8E
:1099300033EA230328BF1346121B08309A422044FF
:10994000A8BF1A465DF8044B08F038BE5DF8044B1A
:10995000704700BF43688B4210B400F108041846FA
:10996000A8BF084632EA220128BF19461B1A9942AD
:109970002044A8BF19465DF8044B00F0F3BE00BFB9
:10998000002BBCBF43689B1A002A70B50E4620DB33
:1099900044689918A1421CDC8A421ADCCBB136F02B
:1099A000004116D059428E4214DDB34212DD083018
:1099B000002E00EB020515DB9C1B2246A919284648
:1099C00017F048F9324628190021BDE8704008F028
:1099D000F5BD70BD002211464FF0FF33BDE8704069
:1099E000FFF7A0BF74429A192946281917F032F9D7
:1099F000224628460021BDE8704008F0DFBD00BFC8
:109A000003460830596800F02DBE00BF70B504460B
:109A100000206168490000F0A7FD6668002E11DD96
:109A2000094D04F1080100EB4606034611F8012B2D
:109A3000141102F00F022C5DAA5C9C71DA710233E2
:109A40009E42F3D170BD00BF24160200002BBCBFA4
:109A500043689B1A002A2FDB70B445689C18AC42FF
:109A600029DCA24227DC33B331F0004423D00029A3
:109A7000B8BF01EB032191FBF3F603FB1616002E92
:109A800000F10800B8BFF61802441644B24213446D
:109A900011D0304604E0B24208460ED090420AD0BF
:109AA0000146147811F8015B02F8015B8B420470E7
:109AB000F1D13046F2E770BC70470E46EEE700BFCA
:109AC00000B583B04FF0FF3300930023FFF7FEFE95
:109AD00003B05DF804FB00BF10B50C1E0EDD41683D
