:020000040002F8
:10600000000004205DB7030085B7030087B70300D5
:1060100089B703008BB703008DB7030000000000B1
:106020000000000000000000000000008FB7030027
:1060300091B703000000000093B7030095B7030079
:1060400097B7030097B70300FDB50300C1B5030080
:10605000D5B5030097B7030041AA030097B7030023
:10606000A1B20300A9B20300B1B2030097B70300C5
:1060700097B7030097B7030097B7030097B70300DC
:1060800097B7030097B7030097B7030097B70300CC
:1060900097B7030097B7030097B7030097B70300BC
:1060A00097B7030097B70300B9B20300C1B203006A
:1060B00097B7030097B7030000000000000000003E
:1060C00097B7030097B7030097B70300E9B503003C
:1060D00097B7030097B7030097B7030097B703007C
:1060E00025B6030097B7030097B703000000000030
:1060F0000000000097B703000000000011B6030085
:10610000000000000000000000000000000000008F
:10611000000000000000000000000000000000007F
:10612000000000000000000000000000000000006F
:10613000000000000000000000000000000000005F
:10614000000000000000000000000000000000004F
:10615000000000000000000000000000000000003F
:10616000000000000000000000000000000000002F
:10617000000000000000000000000000000000001F
:10618000000000000000000000000000000000000F
:1061900000000000000000000000000000000000FF
:1061A00000000000000000000000000000000000EF
:1061B00000000000000000000000000000000000DF
:1061C00000000000000000000000000000000000CF
:1061D00000000000000000000000000000000000BF
:1061E00000000000000000000000000000000000AF
:1061F000000000000000000000000000000000009F
:106200007CB0EE877CB0EE87FF00FF00FF00FF0050
:10621000FF00FF00FF00FF00FF00FF00FF00FF0086
:10622000FF00FF00FF00FF00FF00FF00FF00FF0076
:10623000FF00FF00FF00FF002DE9F04F85B0039144
:106240000778A7F10903042B044607F07F0200F149
:106250000100F5D9202AF3D02B2F04BF677804461C
:106260002D2F72D09FED427B8DED007B4FF000080B
:106270004FF000098FB34FF0000E4FF0000ADFF827
:1062800000B1754619E017F0BFFF804689463046D9
:1062900017F054FF42464B4617F004FE5246804624
:1062A00089465B46DDE9000135B318F0D7F8CDE942
:1062B0000001AE4614F8017F7FB1A7F13006092E28
:1062C00052465B4640464946DDD9C5B92E2F16D108
:1062D00014F8017F0125002FEFD142464B46DDE93E
:1062E000000117F091FF80468946039B40464946CE
:1062F0001C6005B0BDE8F08F4FF0010EDAE7BEF18B
:10630000000F29D042464B46DDE9000117F07CFF23
:1063100007F0DF07452F80468946E6D10399601CC8
:106320000A2217F0A3FD16490246002018F0CCFA05
:1063300002460B464046494617F066FF80468946AE
:106340004046494605B0BDE8F08F9FED0B7B67786E
:106350008DED007B013489E7DFF828904FF00008CD
:106360004046494605B0BDE8F08F00BFAFF300805E
:10637000000000000000F03F000000000000F0BF3F
:10638000000024400000F87F2DE9F84F1646002356
:10639000002204460D4618F0A9F9002840F09D801F
:1063A000002200232046294618F096F928B1302211
:1063B000002332707370BDE8F88F2046294616F02E
:1063C00025FA18F0D1F97BA3D3E9002381462946A9
:1063D000204618F08BF9002800F08680B9F1000FF4
:1063E000C0F2BE804A4600206F4918F06DFA02469E
:1063F0000B462046294618F031F804460D4666A1A2
:10640000D1E9000101274FF0000822462B4617F082
:10641000FBFE0022654B17F045FD18F091FA002FA6
:10642000CC464FF0FF3AC1464FF0000840F385805C
:10643000DFF888E15E4C0122AEF1700945F6F325E4
:106440004FF02E0BA94208BFA0424FF0300309D3F2
:10645000001B61EB0501A94208BFA04203F1010343
:10646000F6D2DBB2337050EA010306F1010409D120
:10647000BA4210DACE4502F101020CD026467EE87F
:106480000245DFE7BA4204BF86F801B0B41CCE452E
:1064900002F10102F2D1B8F1000F0DD022463021F5
:1064A00002F8011BC2F1010353442344002BF7DC23
:1064B0002AEAEA7301331C44BCF1010F4CD0652376
:1064C000BCF1000F2370C5BF2B236370611CA11C9E
:1064D0006046BDE8F84F0FF0FDBE05F100431D46D4
:1064E0002D23337001365BE72DA3D3E9002320462B
:1064F000294618F019F900287FF470AFB9F10E0F92
:1065000009F101073DDDA9F10E08424600202649A8
:1065100018F0DAF902460B462046294617F09EFF8E
:106520000022224B17F0BEFC18F00AFA002FA9F146
:106530000F0A4FF0010C3FF77BAF334630222E2479
:1065400003F8022B74707FEA090618D01E4403F882
:10655000012BB342FBD16BE700232370BDE8F88F1A
:10656000C9F100020020104918F0AEF902460B46AE
:106570002046294617F048FE04460D463FE71E46D2
:1065800056E7C9F10E0200200749C84618F09CF9E9
:106590004FF0010939E700BF0000901EC4BCD6428D
:1065A00050EFE2D6E41A4B44000024400000E03FE4
:1065B00000407A108DEDB5A0F7C6B03E60F4030040
:1065C00070B54FF0FF3006F0B5F904466FF07F402C
:1065D00006F0B0F90646204617F0A0FD00220C4B4D
:1065E00017F012FE044630460D4617F097FD06A33D
:1065F000D3E9002317F032FF02460B462046294616
:1066000017F050FC70BD00BF0000E0DFFFFF6F43DC
:106610000000F03D0000000008B511F007F9DFEDC3
:106620000C7A07EE100A67EE277A17EE900A17F039
:1066300097FD05A3D3E9002317F010FF18F094F895
:1066400008BD00BFAFF30080EA2E4454FB2119407F
:106650000000B4430000000008B511F0FBF8DFEDC6
:106660000C7A07EE100A67EE277A17EE900A17F0F9
:1066700077FD05A3D3E9002317F0F0FE18F074F8B6
:1066800008BD00BFAFF30080EA2E4454FB2119403F
:106690000000B44300000000494A21F00043934247
:1066A0002DE9704304460D464BDC464A93420E46A4
:1066B0000EDC3FA3D3E9002317F0F4FB0022424B8A
:1066C00018F032F800284CD020462946BDE87083E7
:1066D0003E4A93423BDCB3F1804F42DD15F090FC23
:1066E0002246804689462B462046294617F08CFDD7
:1066F0000022354B17F0D6FB16F046FB02460B4640
:106700004046494617F0CEFB02460B4600202E4974
:1067100017F0A4FE424604460D464B464046494605
:1067200017F0C0FB02460B462046294617F0BAFB7D
:1067300002F06AF8002EC9DC01F100431946BDE8F9
:10674000708302460B4617F0ADFBBDE8708315F071
:1067500057FC02F059F818A3D3E9002317F0A2FB65
:10676000E8E722462B462046294617F04DFD804695
:1067700089462046294615F043FC002204460D4672
:10678000114B4046494617F08DFB16F0FDFA0022EA
:106790000D4B17F087FB02460B464046494617F063
:1067A0005DFE22462B4617F07DFB00F0C5FAC1E7DF
:1067B0009C7500883CE4377EEF39FAFE422EE63FB6
:1067C000FFFFEF7FFFFF2F3E0000F03F0000B041D2
:1067D0002DE9F84FC44B21F000469E4204460D4679
:1067E0008A460EDDC14B9E4200F3AC8000F0A780CC
:1067F000BAF1000F40F3EA809FA1D1E90001BDE8A2
:10680000F88FBB4B9E4200F3B580A3F1DE739E422E
:1068100040F3A0804FF0FF3B22462B4620462946FE
:1068200017F0F2FC02460B468046894617F0ECFC56
:1068300093A3D3E9002306460F4617F0E5FC92A385
:10684000D3E9002317F02EFB32463B4617F0DCFC61
:106850008FA3D3E9002317F025FB32463B4617F000
:10686000D3FC8DA3D3E9002317F01CFB32463B4633
:1068700017F0CAFC8AA3D3E9002317F013FB3246B2
:106880003B4617F0C1FC88A3D3E9002317F00AFBAD
:1068900042464B4617F0B8FC85A3D3E90023804657
:1068A00089463046394617F0AFFC83A3D3E900236D
:1068B00017F0F6FA32463B4617F0A6FC80A3D3E960
:1068C000002317F0EDFA32463B4617F09DFC7EA3FD
:1068D000D3E9002317F0E4FA32463B4617F094FC64
:1068E0007BA3D3E9002317F0DBFA32463B4617F0CF
:1068F0008BFCBBF1FF3F02460B466CD0404649463D
:1069000017F0D0FA22462B4617F07EFC794E7A4BD0
:106910004FEACB0B5E449B44DBE9002317F0C0FA3F
:1069200022462B4617F0BCFA02460B46D6E9000178
:1069300017F0B6FABAF1000F43DBBDE8F88F002874
:106940003FF456AF22462B462046294617F0AAFAB6
:10695000BDE8F88F60A3D3E9002317F0A3FA002263
:10696000664B17F0E1FE00283FF454AF204629465D
:10697000BDE8F88F15F044FB614B9E4204460D467E
:1069800039DCA3F550239E425EDC02460B4617F02D
:1069900089FA0022594B17F083FA002206460F4667
:1069A0004FF080432046294617F07CFA02460B46FA
:1069B0003046394617F052FD4FF0000B04460D46A5
:1069C0002AE701F100431946BDE8F88F44A1D1E957
:1069D0000001BDE8F88F4046494617F063FA2246A9
:1069E0002B4617F011FC02460B462046294617F0AD
:1069F00057FABDE8F88F434B9E421ADC0022424B07
:106A000017F04EFA002206460F463F4B2046294615
:106A100017F0FAFB0022394B17F044FA02460B46F6
:106A20003046394617F01AFD4FF0020B04460D466A
:106A3000F2E602460B460020344917F00FFD4FF0F6
:106A4000030B04460D46E7E600222C4B17F028FA0C
:106A5000002206460F46294B2046294617F022FA07
:106A600002460B463046394617F0F8FC4FF0010B52
:106A700004460D46D0E600BF182D4454FB21F93FD3
:106A800011DA22E33AAD903FEB0D76244B7BA93F20
:106A9000513DD0A0660DB13F6E204CC5CD45B73FEE
:106AA000FF8300922449C23F0D5555555555D53F9A
:106AB0002F6C6A2C44B4A2BF9AFDDE522DDEAD3F8E
:106AC0006D9A74AFF2B0B33F711623FEC671BC3F2E
:106AD000C4EB98999999C93F9C7500883CE4377E2E
:106AE000182D4454FB21F9BFFFFF0F440000F07F35
:106AF000FFFFDB3F70F4030090F403000000F03F61
:106B0000FFFFF23FFF7F03400000F83F0000F0BFAF
:106B10002DE9F843C1F30A59A9F2FF35132D0246B6
:106B20000B460C4606468846074622DC002D50DB05
:106B3000DFF8F09049FA05F901EA090E5EEA060667
:106B40001CD036A3D3E9002317F0ACF900220023B0
:106B500017F0EAFD48B1002C04DD4FF4801343FA2E
:106B600005F5A84428EA0904002721463846BDE86F
:106B7000F883332D06DDB5F5806F3DD010461946FC
:106B8000BDE8F883A9F213494FF0FF3E2EFA09F948
:106B900010EA090FF2D021A3D3E9002317F082F9FC
:106BA0000022002317F0C0FD0028DED0002C09DDF4
:106BB000142D2BD00127C5F1340507FA05F5AE19C0
:106BC00028BFB844444626EA090721463846BDE8AE
:106BD000F88312A3D3E9002317F064F900220023FD
:106BE00017F0A2FD0028C0D0002C0BDB54EA0607EA
:106BF00006D00027084CB8E717F054F9BDE8F88331
:106C00003C46B2E700274FF00044AEE704F101082C
:106C1000D8E700BFAFF300800000F03F9C7500880C
:106C20003CE4377EFFFF0F002DE9F041C1F30A5726
:106C3000A7F2FF35132D02460B460C468846064642
:106C40001CDC002D3FDB3A4F2F41864601EA070C42
:106C50005CEA0E0E17D034A3D3E9002317F022F913
:106C60000022002317F060FD20B1002C3FDB28EA52
:106C70000704002621463046BDE8F081332D06DDAD
:106C8000B5F5806F2FD010461946BDE8F081A7F208
:106C900013474FF0FF3E2EFA07F73842F3D022A3F6
:106CA000D3E9002317F0FEF80022002317F03CFD83
:106CB0000028DFD0002C20DB444626EA07062146C8
:106CC0003046BDE8F08118A3D3E9002317F0EAF8B5
:106CD0000022002317F028FD0028CBD0002C17DB62
:106CE00000263446C6E717F0DDF8BDE8F0814FF422
:106CF000801343FA05F5A844B9E7142D10D00123F9
:106D0000C5F1340503FA05F5AE1928BF9844D3E759
:106D100024F00042074B324318BF1C460026A9E767
:106D200004F10108C8E700BF9C7500883CE4377E89
:106D3000FFFF0F000000F0BF2DE9F04FD84B994244
:106D400087B0804689460E4613DCD64B21F00044BE
:106D50009C4218DD0022D44B17F0BEFC002879D0ED
:106D6000002200230020D14917F078FB07B0BDE8CE
:106D7000F08FCF4B99422FDD42464B4617F092F8E9
:106D800007B0BDE8F08FCB4B9C4270DDCA4B1E4470
:106D90009E427ED80022C94B4046494617F082F8F1
:106DA0004FEA215AAAF2FF3ABAF1000F04460D4603
:106DB0000E4640F3DE8142464B4617F071F802461C
:106DC0000B460020BD4917F06BF822462B4617F002
:106DD00045FBCDE902010BE0B94B9E42DADD9FEDA8
:106DE0009A7B8DED027B4FEA265A4446AAF2FF3A7F
:106DF000B44BC6F313069E4246F07F5500F3E7807E
:106E000045F44015204629460022AC4B17F048F8BF
:106E1000002204460D46AC4B17F0F6F922462B46ED
:106E200017F0F2F9A046CDE90401A946CDE9000129
:106E3000002E3AD1002200232046294617F04CFCB0
:106E4000002800F0CE80BAF1000F40F074810020DD
:106E5000002195E742464B464046314617F020F860
:106E600002460B4617F0FAFA07B0BDE8F08F002291
:106E7000964B17F017F80022002317F055FC002856
:106E800000F0CC80924B9C4200F3C88040464946BB
:106E900076E700228C4B17F0B7F942464B4617F0C5
:106EA000B3F9CDE900014FF0000A00224FF0804312
:106EB0004046494616F0F6FF02460B464046494614
:106EC00017F0CCFA02460B4606460F4617F09CF91F
:106ED0005FA3D3E9002304460D4617F095F95EA39E
:106EE000D3E9002316F0DEFF22462B4617F08CF97B
:106EF0005BA3D3E9002316F0D5FF22462B4617F0FB
:106F000083F959A3D3E9002316F0CCFF22462B4680
:106F100017F07AF956A3D3E9002316F0C3FF2246EF
:106F20002B4617F071F954A3D3E9002316F0BAFFEA
:106F300022462B4617F068F951A3D3E9002316F037
:106F4000B1FF22462B4617F05FF904460D46BAF111
:106F5000000F00F0BF80504617F0F0F84AA3D3E9C5
:106F6000002382468B4617F04FF9DDE90023CDE977
:106F700004012046294616F095FF32463B4617F09D
:106F800043F943A3D3E9002304460D46504659462E
:106F900017F03AF9DDE9022316F084FF02460B46AA
:106FA0002046294616F07EFF02460B46DDE9000129
:106FB00016F076FF42464B4616F072FF02460B462D
:106FC000DDE9040116F06CFF07B0BDE8F08F45F471
:106FD0000015C6F5801620462946B6100AF1010AAA
:106FE00012E72DA3D3E900232046294617F00CF918
:106FF00002460B460020314916F052FFDDE904231A
:1070000017F002F906460F46BAF1000F73D1024697
:107010000B462046294616F043FFB1E642464B4652
:107020004046494617F0F0F80022274B17F0ECF8DD
:1070300002460B464046494616F032FF07B0BDE80F
:10704000F08F00BFAFF300800000000000000000E0
:1070500044523EDF12F1C23F9FC678D0099AC33F27
:10706000DE03CB966446C73FAF788E1DC571CC3F1B
:10707000599322942449D23F04FA97999999D93F78
:10708000935555555555E53F0000E0FE422EE63F2D
:10709000763C7935EF39EA3D555555555555E53F1F
:1070A0007982DA3FFFFFEF3F0000F0BF000050C3DE
:1070B000FFFFEF7FFFFF1F3E3C412D400000F03FF0
:1070C000FFFF3F439DA006000000E03F000050434B
:1070D000FFFF8F3CDDE9004522462B4616F0E2FE1D
:1070E00032463B4617F090F802460B4620462946AA
:1070F00016F0D6FE9CE7504617F020F823A3D3E9FC
:10710000002382468B4617F07FF822A3D3E90023A1
:10711000804689465046594617F076F8DDE9022345
:1071200016F0C0FE02460B463046394616F0B8FE51
:1071300022462B46DCE7504617F000F815A3D3E9AA
:10714000002306460F4617F05FF8DDE9022316F02C
:10715000A9FE0EA3D3E9002304460D463046394666
:1071600017F052F802460B462046294616F09AFEC2
:1071700006E60022044B16F093FE02460B464046FC
:10718000494616F08DFE20E60000F03F0000E0FECC
:10719000422EE63F763C7935EF39EA3D00000000AB
:1071A00008B515F0B3FA04A3D3E9002317F056F994
:1071B00008BD00BFAFF30080EF39FAFE422EE63F74
:1071C0002DE9F043DFF8B4808BB004460D4601F0A2
:1071D000F3F898F90030013306460F462BD02246CB
:1071E0002B462046294617F0A9FA814618BB2046AF
:1071F000294614F005FF1FA3D3E9002317F094FAE2
:10720000C8B1194A98F90030CDF820900321CDE992
:107210000445CDE902458DE806008BB9134B4FF0CC
:107220006042CDE90623684616F03CFC70B1089B2D
:107230009BB9DDE90667304639460BB0BDE8F083FF
:107240000B490020022BCDE90601ECD116F0B6FD6A
:1072500022230360089B002BEBD016F0AFFD089BA8
:107260000360E6E7AFF300809C060400FFFFEF47F2
:107270000000F07F7DF8B98FCE338640FF8100207B
:107280002DE9F043DFF8E4808BB004460D4601F0B1
:1072900043F998F90030013306460F4633D02046B3
:1072A000294616F0F9FB70B32CA3D3E9002320463E
:1072B000294617F039FA814650BB2AA3D3E90023A7
:1072C0002046294617F012FAE8B198F90030204A12
:1072D000CDF82090002600270421022BCDE904459B
:1072E000CDE90245CDE906678DE8060029D068465C
:1072F00016F0D8FB28B3089B1BB116F05FFD089B66
:107300000360DDE90667304639460BB0BDE8F0831F
:107310000F4A98F90030019203210022CDE904457B
:10732000CDE90245009108922BB90A4B4FF060421B
:10733000CDE90623DBE708490020022BCDE9060151
:10734000D5D116F03BFD22230360D4E7AFF30080D4
:10735000A4060400FFFFEF470000F07FEF39FAFEBC
:10736000422E864051302DD5104987C0FF81002024
:107370002DE9F04FDFF80C938DB006460F4614460A
:107380001D4601F0C5FC99F90080B8F1FF3FCDE939
:10739000000136D022462B462046294617F0CEF96A
:1073A000834670BB32463B463046394617F0C6F935
:1073B0008246002840F0A280304639460022002351
:1073C00017F08AF910B3002200232046294617F04F
:1073D00083F9834600286AD09FEDA17B0122A44B4C
:1073E000CDF828A00292CDE90467CDE906458DEDE0
:1073F000087B0393B8F1000F45D09FED9B7B8DED8B
:10740000007BDDE900010DB0BDE8F08FDDE9000192
:1074100016F042FB8046002800F08D804FF0000AF5
:107420004FF0000BDDE9000152465B4617F054F9BE
:107430000028E6D03046394616F02EFB0028E0D072
:107440002046294616F028FB0028DAD099F90030AA
:10745000874A039204210022022BCDE90467CDE97B
:107460000645CDE908AB02910A9203D002A816F0B6
:1074700019FB68B916F0A2FC2223036008E09FED17
:10748000787B8DED087B02A816F00CFB002830D02D
:107490000A9B1BB116F092FC0A9B03609DED087BD2
:1074A0008DED007BDDE900010DB0BDE8F08F2046D9
:1074B000294616F0F1FA0028A3D000220023204626
:1074C000294617F013F900289BD099F90030684A33
:1074D000CDF828B00121CDE90467CDE90645029138
:1074E0000392002BCBD063490020022BCDE9080189
:1074F000C9D116F063FC21230360C9E700220023F1
:107500002046294617F0E8F800283FF47AAF5A4B96
:107510005749CDF828B000220120B8F1020FCDE97B
:1075200004670290CDE90645CDE908230391AAD16D
:10753000CDE9002365E73046394616F0ADFA00285C
:107540003FF46CAF2046294616F0A6FA00283FF417
:1075500065AFDDE900231046194617F0EFF8002863
:107560005FD1032399F900800293414B0A90CDE942
:107570000467CDE906450393B8F1000F2BD1DFF87E
:1075800008B14FF0604A0022002330463946CDE969
:1075900008AB17F0ABF800283FF468AF0022374B78
:1075A0002046294616F030FE04460D4616F082FAB3
:1075B00002460B462046294617F08EF870BB304B2A
:1075C00099F900804FF06042CDE90823B8F1020F2D
:1075D0007FF44CAF4EE7DFF8B4B04FF0000A002262
:1075E000002330463946CDE908AB17F07FF8002874
:1075F000ECD00022214B2046294616F005FE044619
:107600000D4616F057FA02460B462046294617F05B
:1076100063F818B9174B0022CDE9082399F90080C7
:10762000D4E799F90090124BCDF828800122CDE9DA
:107630000467CDE9064502920393B9F1000F3FF4C8
:107640001EAF002200231046194616F007FFB9F1BD
:10765000020FCDE908013FF44CAF14E7AFF300800F
:107660000000000000000000000000000000F03FEB
:10767000BC0604000000F0FF0000F03F0000E03F07
:10768000FFFFEFC7FF810020FFFFEF470000F07F03
:107690002DE9F84FC44E21F00043B34204460D4695
:1076A0000DDD03F1404303F58013034340F0B9803F
:1076B000002940F3408100200021BDE8F88FBB4E37
:1076C000B34240F3A6800029C0F2788102460B46FF
:1076D0000020B74916F0E4FB0022B64B16F094FDEB
:1076E00004460D4615F050FB95A3D3E900238946C7
:1076F00080462946204616F087FD93A3D3E9002350
:1077000016F0D0FB22462B4616F07EFD90A3D3E95F
:10771000002316F0C5FB22462B4616F075FD8EA3FE
:10772000D3E9002316F0BEFB22462B4616F06CFD73
:107730008BA3D3E9002316F0B3FB22462B4616F0A9
:1077400063FD89A3D3E9002316F0ACFB22462B4648
:1077500016F05AFD86A3D3E9002382468B462046C5
:10776000294616F051FD84A3D3E9002316F098FBB7
:1077700022462B4616F048FD81A3D3E9002316F0DC
:1077800091FB22462B4616F03FFD7FA3D3E9002351
:1077900016F086FB22462B4616F036FD0022844B5F
:1077A00016F080FB02460B465046594616F056FE30
:1077B00042464B4616F028FD002682468B4632464E
:1077C0004B463046494616F01FFD02460B46204602
:1077D000294616F065FB324604460D464B464046A8
:1077E000494616F05FFB02460B462046294616F036
:1077F00035FE02460B465046594616F053FB3246BC
:107800004B4616F04FFB02460B4616F04BFBBDE80D
:10781000F88F694A93420EDC5DA1D1E90001BDE811
:10782000F88F02460B4616F03BFB02460B4616F05D
:1078300015FEBDE8F88F02460B4616F0E5FC40A3A6
:10784000D3E9002306460F4616F0DEFC3EA3D3E93B
:10785000002316F027FB32463B4616F0D5FC3CA32E
:10786000D3E9002316F01CFB32463B4616F0CCFC55
:1078700039A3D3E9002316F015FB32463B4616F038
:10788000C3FC37A3D3E9002316F00AFB32463B467C
:1078900016F0BAFC34A3D3E9002316F003FB3246FA
:1078A0003B4616F0B1FC32A3D3E90023804689465B
:1078B0003046394616F0A8FC2FA3D3E9002316F072
:1078C000EFFA32463B4616F09FFC2DA3D3E9002386
:1078D00016F0E8FA32463B4616F096FC2AA3D3E9A6
:1078E000002316F0DDFA32463B4616F08DFC0022EE
:1078F0002F4B16F0D7FA02460B464046494616F083
:10790000ADFD22462B4616F07FFC02460B4622A117
:10791000D1E9000116F0C4FA02460B46204629467A
:1079200016F0BEFA02460B4619A1D1E9000116F085
:10793000B7FABDE8F88F1AA1D1E90001BDE8F88FC8
:1079400009F7FD0DE13D023F88B20175E0EF493FC7
:107950003B8F68B52882A43F5544880E55C1C93F66
:107960007D6FEB0312D6D43F555555555555C53F40
:1079700082922EB1C5B8B33F59018D1B6C06E63F0C
:10798000C88A599CE52A00404B2D8A1C273A03409F
:10799000182D4454FB21F93F075C143326A6913C73
:1079A000182D4454FB210940FFFFEF3FFFFFDF3F4D
:1079B0000000F03F0000E03F0000603C00225C4B14
:1079C00016F070FA00225B4B16F01EFC40A3D3E9C0
:1079D000002304460D4616F017FC3FA3D3E900230D
:1079E00016F060FA22462B4616F00EFC3CA3D3E9B3
:1079F000002316F055FA22462B4616F005FC3AA352
:107A0000D3E9002316F04EFA22462B4616F0FCFB73
:107A100037A3D3E9002316F043FA22462B4616F08B
:107A2000F3FB35A3D3E9002316F03CFA22462B469C
:107A300016F0EAFB804689462046294615F0A4F94F
:107A40002FA3D3E9002306460F462046294616F009
:107A5000DBFB2DA3D3E9002316F022FA22462B46A6
:107A600016F0D2FB2AA3D3E9002316F01BFA224614
:107A70002B4616F0C9FB28A3D3E9002316F010FA11
:107A800022462B4616F0C0FB0022294B16F00AFABC
:107A900002460B464046494616F0E0FC32463B465D
:107AA00016F0B2FB1EA3D3E9002316F0F9F9324613
:107AB0003B4616F0F7F902460B4616F0F3F902467C
:107AC0000B4619A1D1E9000116F0EAF9BDE8F88FDB
:107AD00009F7FD0DE13D023F88B20175E0EF493F36
:107AE0003B8F68B52882A43F5544880E55C1C93FD5
:107AF0007D6FEB0312D6D43F555555555555C53FAF
:107B000082922EB1C5B8B33F59018D1B6C06E63F7A
:107B1000C88A599CE52A00404B2D8A1C273A03400D
:107B2000075C143326A6913C182D4454FB210940D0
:107B30000000F03F0000E03F434A91422DE9F84346
:107B400004460D4639DD414A914209DD02F1795280
:107B5000914240DD02460B4616F0A4F9BDE8F883D9
:107B600001F1404202F58012024330D0B1F1804F62
:107B70003ADC0022364B16F093F902460B460446D7
:107B80000D4616F08FF9224606460F462B46204634
:107B9000294616F039FB02460B463046394616F0A8
:107BA00081F915F0F1F80B4602462946204616F0F9
:107BB00079F9BDE8F843FFF7BFB802460B4616F067
:107BC0006FF902460B4616F049FCBDE8F883002029
:107BD0000021BDE8F88300F017FE19A3D3E90023C4
:107BE00016F060F9BDE8F88302460B4616F00CFB70
:107BF0000022174B16F054F915F0C6F822468046BD
:107C000089462B462046294616F04CF94246064640
:107C10000F464B462046294616F044F902460B46CD
:107C200000200B4916F01AFC0B4602463946304636
:107C300016F036F9BDE8F84300F0E6BDAFF300807A
:107C4000EF39FAFE422EE63FFFFFEF3FFFFFAF4165
:107C50000000F03F000000002DE9F047BE4B21F08E
:107C60000048984584B004460D4612DD08F14048AE
:107C700008F58018034658EA030321D002460B4654
:107C800016F00EF902460B4616F0E8FB04B0BDE80C
:107C9000F087B24B98458A4629DCB8F1795F80F2CB
:107CA000658191A3D3E9002316F0FCF80022AC4BC8
:107CB00016F03AFDD8B12046294604B0BDE8F08759
:107CC0008BA3D3E9002316F09FFA8BA3D3E90023FB
:107CD00006460F462046294616F096FA02460B46FF
:107CE0003046394616F0DEF804B0BDE8F08720468D
:107CF000294614F085F902460B460020984916F0F3
:107D0000CFF80022974B16F07FFA7DA3D3E900232A
:107D100004460D4616F078FA7BA3D3E9002316F04B
:107D2000C1F822462B4616F06FFA79A3D3E9002357
:107D300016F0B6F822462B4616F066FA76A3D3E97B
:107D4000002316F0AFF822462B4616F05DFA74A316
:107D5000D3E9002316F0A4F822462B4616F054FA75
:107D600071A3D3E9002316F09DF822462B4616F0A6
:107D70004BFA6FA3D3E90023CDE900012046294641
:107D800016F042FA6CA3D3E9002316F089F82246D4
:107D90002B4616F039FA6AA3D3E9002316F082F8CD
:107DA00022462B4616F030FA67A3D3E9002316F0DB
:107DB00077F822462B4616F027FA694B002216F078
:107DC00071F8CDE902012046294614F0DDFF664B2B
:107DD000984506460F4666DCDDE90223DDE9000131
:107DE00016F03CFB3246CDE900013B4630463946B1
:107DF00016F058F802460B46DDE9000116F004FAC9
:107E00004FF00008CDE9000142463B464046394666
:107E100016F0FAF902460B462046294616F040F8BD
:107E2000424604460D463B463046394616F03AF87F
:107E300002460B462046294616F010FB02460B462A
:107E400016F030F802460B462BA1D1E9000116F0DE
:107E500027F802460B46DDE9000116F021F84246FC
:107E600004460D463B464046394616F01BF802468E
:107E70000B4637A1D1E9000116F012F802460B4675
:107E80002046294616F00CF802460B4630A1D1E9EF
:107E9000000116F005F8BAF1000F3FF7F7AE01F157
:107EA00000431946F2E6DDE90223DDE9000116F0A0
:107EB000D5FA32463B4616F0A7F932463B4615F056
:107EC000F1FF02460B4615F0EDFF0BA3D3E90023AB
:107ED00015F0E6FF02460B4605A1D1E9000115F0B9
:107EE000DFFFD8E7AFF300809C7500883CE4377E65
:107EF000182D4454FB21F93F075C143326A6913C0E
:107F000009F7FD0DE13D023F88B20175E0EF493F01
:107F10003B8F68B52882A43F5544880E55C1C93FA0
:107F20007D6FEB0312D6D43F555555555555C53F7A
:107F300082922EB1C5B8B33F59018D1B6C06E63F46
:107F4000C88A599CE52A00404B2D8A1C273A0340D9
:107F5000182D4454FB21E93FFFFFEF3FFFFFDF3FB8
:107F60000000F03F0000E03F3233EF3F02460B4697
:107F700016F04AF937A3D3E9002306460F4616F058
:107F800043F936A3D3E9002315F08CFF32463B4674
:107F900016F03AF933A3D3E9002315F081FF3246F6
:107FA0003B4616F031F931A3D3E9002315F07AFFEF
:107FB00032463B4616F028F92EA3D3E9002315F0EC
:107FC0006FFF32463B4616F01FF92CA3D3E900237E
:107FD00015F068FF32463B4616F016F929A3D3E99F
:107FE0000023804689463046394616F00DF927A30E
:107FF000D3E9002315F054FF32463B4616F004F94E
:1080000024A3D3E9002315F04DFF32463B4616F07A
:10801000FBF822A3D3E9002315F042FF32463B468A
:1080200016F0F2F800220A4B15F03CFF02460B4610
:108030004046494616F012FA22462B4616F0E4F85E
:1080400022462B4615F02EFF04B0BDE8F08700BF96
:108050000000F03F09F7FD0DE13D023F88B20175D8
:10806000E0EF493F3B8F68B52882A43F5544880E16
:1080700055C1C93F7D6FEB0312D6D43F55555555B9
:108080005555C53F82922EB1C5B8B33F59018D1BDE
:108090006C06E63FC88A599CE52A00404B2D8A1C95
:1080A000273A0340000000002DE9F84F1D465342D7
:1080B000134325F0004ADFF8E0E14AEAD373734541
:1080C000144606460F4647D8C0F1000848EA0008A3
:1080D00021F0004343EAD878F0458B463CD805F1BF
:1080E000404808F5801858EA020850D04FEAA578B1
:1080F00008F0020848EAD17850EA030134D052EA85
:108100000A023CD0F24557D0734538D0A3EB0A039E
:108110001B153C2B42DC002D70DB22462B463046E3
:10812000394616F09BF913F06BFFFEF751FBB8F1DF
:10813000010F5FD0B8F1020F4ED0B8F1000F62D03E
:1081400043A3D3E9002315F0ABFE43A3D3E90023F7
:1081500015F0A6FEBDE8F88F32463B46204629467C
:1081600015F0A0FEBDE8F88FB8F1020F1AD0B8F1F3
:10817000030F10D13AA1D1E90001BDE8F88FBBF19E
:10818000000F14DB38A1D1E90001BDE8F88FBDE88C
:10819000F84FFEF71DBB3946BDE8F88F32A1D1E993
:1081A0000001C4E72CA1D1E90001BDE8F88F30A19E
:1081B000D1E90001BDE8F88F534526D0B8F1020F90
:1081C000F0D0B8F1030FD5D0B8F1010F4FF0000097
:1081D00029D00021BDE8F88F1DA3D3E9002315F0B5
:1081E0005FFE02460B461CA1D1E9000115F058FEC6
:1081F000BDE8F88F01F10041BDE8F88F3C338CDA1F
:108200000020002193E7BDE8F88FB8F1020F18D0E5
:10821000B8F1030F10D0B8F1010F08D016A1D1E9C1
:108220000001BDE8F88F4FF00041BDE8F88F14A1C0
:10823000D1E90001BDE8F88F13A1D1E90001BDE843
:10824000F88F13A1D1E90001BDE8F88FAFF30080EA
:10825000075C143326A6A13C182D4454FB21094089
:10826000182D4454FB2109C0182D4454FB21F93F1B
:10827000182D4454FB21F9BF182D4454FB21E93F2C
:10828000182D4454FB21E9BFD221337F7CD902C091
:10829000D221337F7CD902400000F07F0000000033
:1082A00043422DE9F047034321F000463E4A46EAA7
:1082B000D373934204460D4613D896423DD03B4BB0
:1082C0009E428A4617DC36A3D3E9002315F0EAFD67
:1082D0000022002316F028FAA8B320462946BDE85C
:1082E000F08702460B4615F0DBFD02460B4616F002
:1082F000B5F8BDE8F0872E4B9E42354624DD334667
:108300000246314615F0CEFD224606460F462B4664
:108310000020254915F0C4FD02460B46304639467B
:1083200016F09CF8FEF708FD0022224B15F06CFFBA
:10833000BAF1000F2FDBBDE8F0870022002316F012
:108340008DF8BDE8F087354622462B462046294663
:1083500015F0A8FD22462B4606460F4615F054FFA1
:108360002246804689462B4600200F4915F098FD8D
:1083700002460B464046494616F070F832463B46E8
:1083800015F090FDFEF7D8FC00220A4B15F03CFFDB
:10839000BAF1000FCFDA01F100431946BDE8F087CA
:1083A0009C7500883CE4377E0000F03FFFFF2F3EC5
:1083B000FFFFDF3F0000E03F2DE9F8434E4B21F087
:1083C00000449C4206460F461BDC4C4B9C4222DD7F
:1083D0004B4B9C4263DD4B4B9C427BDD4A4B9C42AA
:1083E00046DD01339C4240D041A3D3E9002310462F
:1083F000194615F009FF06460F4630463946BDE8D6
:10840000F88302460B4615F0FFFE06460F4630463F
:108410003946BDE8F88313F0F3FD02F0B1FC002209
:108420003A4B8046894615F03DFDB4F1725F064631
:108430000F46ECDB42464B464046494615F0E4FE0B
:1084400032463B4604460D463046394615F02AFD75
:1084500002460B462046294616F000F800222B4B18
:1084600015F020FD06460F46D1E7294B9842BBD8B0
:108470003046394613F0C4FD0022264B15F0C4FEE9
:1084800000F04AF8002204460D46224B15F0BCFECF
:1084900022462B4615F0B8FE06460F46B7E713F006
:1084A000AFFD00F039F800221A4B06460F4615F0D2
:1084B000ABFE32463B4604460D460020154915F0FA
:1084C000CDFF02460B462046294615F0EBFC06463A
:1084D0000F469CE713F094FD00F01EF800220D4BB0
:1084E00015F092FE06460F4691E700BFAFF30080FD
:1084F0009C7500883CE4377EFFFFEF7F422ED63F1D
:10850000FFFF3540412E8640CD3386400000F03FCE
:108510007DF8B98F0000E03F2DE9F04FB04E21F01B
:108520000042B24283B004460D464FEAD1770DD9DE
:10853000AC4EB24225D9C1F31303034340F0EC80A3
:108540000FB10020002103B0BDE8F08FA64B9A4286
:1085500000F2CB80A54B9A4200F2DC808AA3D3E9DB
:10856000002315F09FFC0022A14B16F0DDF8002837
:1085700000F006812046294600229D4B15F092FC12
:10858000E1E783A3D3E9002316F0CEF8002840F0FA
:10859000C88081A3D3E900232046294616F0A6F817
:1085A0000028CED1934E7EA3D3E9002306EBC70665
:1085B0002046294615F028FED6E9002315F072FC66
:1085C00016F0D2F8064615F0B9FD77A3D3E90023DB
:1085D0008046894615F018FE02460B46204629467D
:1085E00015F05EFC72A3D3E90023CDE900014046FB
:1085F000494615F009FE82468B4652465B46DDE948
:10860000000115F04DFC04460D4622462B4620463F
:10861000294615F0F9FD68A3D3E900238046894671
:1086200015F0F2FD66A3D3E9002315F039FC4246AC
:108630004B4615F0E9FD64A3D3E9002315F032FCA5
:1086400042464B4615F0E0FD61A3D3E9002315F047
:1086500027FC42464B4615F0D7FD5FA3D3E9002324
:1086600015F020FC42464B4615F0CEFD02460B4667
:108670002046294615F014FC80468946002E58D025
:108680002046294642464B4615F0BEFD424604466A
:108690000D464B4600204FF0804115F001FC02468C
:1086A0000B462046294615F0D9FE02460B46504699
:1086B000594615F0F5FBDDE9002315F0F1FB0B46FB
:1086C00002464B49002015F0EBFB6FF47F739E428E
:1086D00051DA06F57A7601EB065100224FF0B873B5
:1086E00015F092FD03B0BDE8F08F434B9A423FF680
:1086F00059AF424BFC002344D3E9002315F0D0FBD3
:108700003F4BC7F101062344CDE90001D3E900AB9B
:10871000F61B72E7002678E702460B4615F0C2FB0F
:1087200011E719A3D3E900231046194615F06CFD93
:1087300009E702460B462046294615F065FD002252
:1087400006460F464FF080434046494615F0A8FBC9
:1087500002460B463046394615F080FE22462B462F
:1087600015F09EFB02460B460020214915F098FBB0
:1087700003B0BDE8F08F01EB065103B0BDE8F08F08
:10878000064642E7AFF300809C7500883CE4377EE4
:10879000EF39FAFE422E864051302DD5104987C060
:1087A000FE822B654715F73F0000E0FE422EE63FB4
:1087B000763C7935EF39EA3DD0A4BE726937663E22
:1087C000F16BD2C541BDBB3E2CDE25AF6A56113FD1
:1087D00093BDBE166CC1663F3E5555555555C53FB8
:1087E000412E8640FFFFEF7F422ED63FFFFF2F3EF8
:1087F0000000F03FB0F40300B1A2F03FC0F403006A
:10880000D0F40300000000002DE9F04FB1F5801F07
:1088100085B006460F460B465ADA024621F0004460
:10882000224300F0F8800029C0F27A810022D64B62
:1088300015F0EAFCD54A0B46934206460F466FF008
:10884000350C4ADCC3F3130505F5152E0EF6647ED0
:108850000EF4801E8EF07F5282F440121C1542EA04
:108860000507A4F2FF3464440022C94B3046394660
:1088700004EB1E5415F014FBAB1CC3F31303022BC3
:1088800082468B464FF0000230DC002315F024FFB7
:10889000002800F0C980002C00F04B81204615F024
:1088A0004DFCA5A3D3E9002306460F4615F0ACFC0A
:1088B000A3A3D3E9002304460D463046394615F0FC
:1088C000A3FC02460B462046294615F0EBFA0AE0C7
:1088D000AE4A93424FF0000CB4DD32463B46304680
:1088E000394615F0DFFA05B0BDE8F08F4FF0804350
:1088F00015F0D8FA02460B465046594615F0AEFD23
:10890000064620460F4615F019FC3246CDE9000117
:108910003B4630463946CDE9026715F075FC024604
:108920000B468046894615F06FFC87A3D3E90023E8
:1089300006460F4615F068FC85A3D3E9002315F021
:10894000B1FA32463B4615F05FFC83A3D3E900231E
:1089500015F0A8FA32463B4615F056FC80A3D3E941
:10896000002315F09FFA42464B4615F04DFC7EA3BE
:10897000D3E90023804689463046394615F044FC49
:108980007BA3D3E9002315F08DFA32463B4615F060
:108990003BFC79A3D3E9002315F084FA32463B4629
:1089A00015F032FC0B4602464946404615F07AFA6D
:1089B000A5F5C223C5F5D725A3F27A4351351D434A
:1089C000002D8046894656DD0022724B504659469E
:1089D00015F01AFC52465B4615F016FC06460F468B
:1089E000002C68D132463B464046494615F05AFABB
:1089F000DDE9022315F008FC02460B4630463946F5
:108A000015F04EFA02460B465046594615F048FA04
:108A100005B0BDE8F08F0022002300205E4915F06C
:108A20001DFD05B0BDE8F08F55A3D3E900235046E6
:108A3000594615F0E9FB02460B460020554915F052
:108A40002FFA524606460F465B465046594615F0E9
:108A5000DBFB02460B463046394615F0D5FB064691
:108A60000F46002C40F09A8002460B46504659466D
:108A700015F016FA37E7002C00F0A4802EA3D3E9F6
:108A80000023DDE9000115F0BFFB42464B460446DA
:108A90000D465046594615F003FADDE9022315F05C
:108AA000B3FB27A3D3E9002306460F46DDE9000107
:108AB00015F0AAFB21E020A3D3E90023DDE90001A2
:108AC00015F0A2FB32463B4604460D464046494659
:108AD00015F0E8F9DDE9022315F096FB18A3D3E9B8
:108AE000002380468946DDE9000115F08DFB024632
:108AF0000B464046494615F0D5F902460B4630462E
:108B0000394615F0CDF952465B4615F0C9F90246D3
:108B10000B462046294615F0C3F905B0BDE8F08F95
:108B200002460B4615F0BCF90022002315F096FC16
:108B3000D9E600200021D6E60000E0FE422EE63F06
:108B4000763C7935EF39EA3D44523EDF12F1C23FBF
:108B5000DE03CB966446C73F599322942449D23F03
:108B6000935555555555E53F9FC678D0099AC33F53
:108B7000AF788E1DC571CC3F04FA97999999D93F6A
:108B8000555555555555D53F00005043FFFFEF7FD4
:108B90000000F03F0000E03F000050C3204615F009
:108BA000CDFA0FA3D3E900238046894615F02CFBAC
:108BB0000DA3D3E9002304460D464046494615F06F
:108BC00023FB9AE702460B465046594615F068F9D2
:108BD000DDE9022315F018FB14E700BFAFF30080B6
:108BE0000000E0FE422EE63F763C7935EF39EA3D63
:108BF000B1F5801F2DE9F84304460D460B461ADAFD
:108C0000024621F00046324359D000295FDB0022A2
:108C10003B4B15F0F9FA3B4A0D462B46934204466E
:108C20006FF035010CDD22462B462046294615F013
:108C300039F9BDE8F883334A93424FF00001F2DC82
:108C40001815A0F2FF3008444FEAD0794844C3F326
:108C5000130815F073FAC9F57F73033348EA035517
:108C600006460F4620462946FFF7CEFD1EA3D3E950
:108C70000023804689463046394615F0C5FA1CA3C4
:108C8000D3E9002304460D464046494615F0BCFA98
:108C900002460B462046294615F004F916A3D3E9EF
:108CA000002304460D463046394615F0ADFA02461B
:108CB0000B462046294615F0F5F8BDE8F88300225A
:108CC00000230020104915F0C9FBBDE8F8830246D7
:108CD0000B4615F0E5F80022002315F0BFFBBDE8B8
:108CE000F88300BFAFF30080362BF111F3FE593D3E
:108CF0000EE526157BCBDB3F00609F501344D33F2E
:108D000000005043FFFFEF7F000050C30000000051
:108D10002DE9F04F23F0004757EA020493B037D013
:108D2000674C21F00046A64283460D4629DC9A4650
:108D3000964625D0A74224DC614CA74279D0002D6D
:108D400080468946CDE9002377DB0024BEF1000F81
:108D50002CD15B4B9F4200F08B805A4B9F4261D0DD
:108D6000BAF1804F00F0C383574B9A451ED1002DB6
:108D70001CDB4046494613B0BDE8F04F14F004B880
:108D800058B106F1404606F5801656EA0B0306D1A7
:108D90004C49002013B0BDE8F08FB742CCDD4B4802
:108DA00013B0BDE8F04F14F07FBE002440464946A2
:108DB00013F026F9BBF1000F19D126B1414B25F074
:108DC00040429A4213D1BAF1000FC0F2CA83002D7B
:108DD000E0DA06F1404606F5801656EA040300F094
:108DE000A584012CD6D101F100431946D2E7ED0F3D
:108DF000013D54EA05034ED0354B9F426EDD03F131
:108E000004739F4240F3FE83324B9E424EDDBAF123
:108E1000000F4EDD28A3D3E900231046194615F0B4
:108E2000F3F9B7E7BAF1000FC0F252844046494661
:108E3000B0E7BEF1000F82D0A3E7274B9F4228DCAA
:108E4000A3F154739F4280DD3B15A3F2FF33142B33
:108E500040F35484C3F134032EFA03F202FA03F30D
:108E60009E457FF472AF02F00102C2F102046DE789
:108E700006F1404303F5801353EA0B0388D0154BEA
:108E80009E4240F33B83BAF1000F12DBDDE90001A3
:108E900080E702245AE742464B461046194614F032
:108EA000FFFF02460B4615F0D9FA73E7BAF1000F3F
:108EB000B0DB002000216DE79C7500883CE4377E24
:108EC0000000F07F0000F03F0000E03F14FD0300D1
:108ED0000000E041FFFFEF3FFFFF3F43B6F5801F7B
:108EE0004FF0000205DAD84B15F08EF96FF034021E
:108EF0000E463315D54FC6F31306A3F2FF331344C2
:108F000046F07F5ABE421A460D934AF4401A40F387
:108F10002F83CF4B9E4240F30D849FEDB57B8DEDAB
:108F2000087B8DED0E7B9FEDB47B13468DED067BAC
:108F300001330D93AAF5801A0027DDE90623514677
:108F4000CDE90A0114F0ACFFDDE90623804689462D
:108F5000DDE90A0114F0A6FF02460B460020BD49D8
:108F600015F07CFA0A460146CDE91012134649462F
:108F70000246404615F048F94FEA6A0343F00053B1
:108F80008C46834603F50023CDE904BCDA468B46C4
:108F9000D9190023CDE902AB0293DDE902AB002031
:108FA00006460F4602460B465046594615F02CF928
:108FB00002460B464046494614F072FFDDE906239F
:108FC000804689463046394614F06AFF02460B4611
:108FD000DDE90A0114F064FF52465B4615F014F90E
:108FE00002460B464046494614F05AFFDDE910237D
:108FF00015F00AF9DDE90467CDE9060132463B4682
:109000003046394615F000F97DA3D3E90023064622
:109010000F4615F0F9F87CA3D3E9002314F042FFC2
:1090200032463B4615F0F0F879A3D3E9002314F05B
:1090300039FF32463B4615F0E7F877A3D3E9002322
:1090400014F030FF32463B4615F0DEF874A3D3E946
:10905000002314F027FF32463B4615F0D5F872A3E3
:10906000D3E9002314F01EFF3246804689463B4672
:109070003046394615F0C8F802460B464046494688
:1090800015F0C2F8524606460F465B46DDE904017C
:1090900014F008FFDDE9062315F0B6F832463B462A
:1090A00014F000FF5246804689465B4650465946BA
:1090B00015F0AAF80022684BCDE90A0114F0F2FE7F
:1090C00042464B4614F0EEFE02980F4606463246E4
:1090D0003B465046594615F097F8002282468B468B
:1090E0005D4B3046394614F0DBFEDDE90A2314F00F
:1090F000D7FE02460B464046494614F0D1FEDDE954
:10910000042315F081F83246804689463B46DDE966
:10911000060115F079F802460B464046494614F020
:10912000C1FE8046894602460B4650465946CDE967
:1091300004AB14F0B7FEDDE902AB3DA3D3E9002395
:1091400050460F4615F060F8DDE90423CDE9020131
:109150003946504614F0A4FE02460B4640464946A6
:1091600014F09EFE34A3D3E9002315F04DF834A388
:10917000D3E90023804689465046394615F044F825
:1091800002460B464046494614F08CFEDDE90E23AC
:1091900014F088FE80460D98894614F0CFFF4246B1
:1091A00006460F464B46DDE9020114F07BFEDDE981
:1091B000082314F077FE32463B4614F073FE324625
:1091C0003B4650468B4614F06BFEDDE9082314F055
:1091D00067FEDDE9022314F063FE02460B464046BB
:1091E000494614F05DFE8046894637E0AFF30080C3
:1091F0000000000000000000000000000000F03F40
:10920000EF4E454A287ECA3F65DBC9934A86CD3F6B
:1092100001411DA96074D13F4D268F515555D53F51
:10922000FFAB6FDBB66DDB3F033333333333E33FE9
:10923000000000E009C7EE3FFD033ADC09C7EE3F3E
:10924000F5015B14E02F3EBE000040438E98030002
:1092500079B60B000000F03F00000840013C54EAE2
:10926000050300F079819FEDC87B8DED047BDDE97E
:1092700000120B461446CDE9023400230293DDE9C7
:10928000024508462B461146224614F009FE524676
:109290005B4614F0B9FFDDE9002306460F46404661
:1092A000494614F0B1FF02460B463046394614F0E9
:1092B000F9FD2246804689462B4650465946CDE95F
:1092C000008914F0A1FF0B46024606460F464046B1
:1092D000494614F0E7FDC64B994204460D468A46BE
:1092E00040F3168101F13F4303F5E003034340F0EF
:1092F000F781A7A3D3E90023DDE9000114F0D2FD33
:109300003246804689463B462046294614F0C8FD31
:1093100002460B464046494615F006FA002840F042
:10932000DF81A8464FEA28534FF48012A3F2FE33A0
:1093300042FA03F35344C3F30A52AE4DA2F2FF3292
:109340001541C3F3130423EA05010020C2F1140BF5
:1093500044F48014BAF1000F02460B4644FA0BFBAA
:1093600030463946B8BFCBF1000B14F099FD0246E8
:109370000B4606460F46DDE9000114F093FD4FEA67
:109380000B5A0D46002484A3D3E900232046294626
:1093900014F03AFF3246804689463B46204629462D
:1093A00014F07EFD02460B46DDE9000114F078FD65
:1093B0007BA3D3E9002314F027FF7BA3D3E9002389
:1093C00006460F462046294614F01EFF02460B466D
:1093D0003046394614F066FD06460F4602460B46F7
:1093E0004046494614F05EFD42464B4604460D4653
:1093F00014F056FD02460B463046394614F050FD37
:109400002246804689462B462046294614F0FCFE1B
:1094100067A3D3E9002306460F4614F0F5FE66A3C2
:10942000D3E9002314F03CFD32463B4614F0ECFE39
:1094300063A3D3E9002314F035FD32463B4614F014
:10944000E3FE61A3D3E9002314F02AFD32463B4634
:1094500014F0DAFE5EA3D3E9002314F023FD3246B4
:109460003B4614F0D1FE02460B462046294614F036
:1094700017FD06460F4602460B462046294614F0C5
:10948000C3FE0022CDE900014FF08043304639464B
:1094900014F006FD02460B46DDE9000114F0DEFF84
:1094A000424606460F464B462046294614F0ACFE7F
:1094B00042464B4614F0F6FC02460B46304639460F
:1094C00014F0EEFC22462B4614F0EAFC02460B4652
:1094D0000020494914F0E4FC8A44BAF5801FC0F228
:1094E00039815146DDE9042314F08EFE52E44246F0
:1094F0004B464046494614F087FE4BE4BAF1000F54
:10950000BFF6D7ACDDE90034184604F1004141E470
:109510003A4B21F00048984540F3FF80384B0B440C
:1095200003430CD132463B4614F0BAFC02460B46CC
:10953000DDE9000115F0E4F800283FF4F3AEDDE9C1
:10954000040125A3D3E9002314F05EFE22A3D3E98E
:10955000002314F059FE1DE49FED217B8DED047B6B
:1095600085E602460B460020234914F077FF2EE4DF
:109570009FED1D7B8DED087B8DED0E7B9FED027BBE
:1095800000278DED067BD8E4000000000000F03FCE
:10959000FE822B654715973C00000000432EE63FF6
:1095A000EF39FAFE422EE63F396CA80C615C20BE12
:1095B000D0A4BE726937663EF16BD2C541BDBB3ED9
:1095C0002CDE25AF6A56113F93BDBE166CC1663FB7
:1095D0003E5555555555C53F59F3F8C21F6EA50167
:1095E000000000000000F0BF0000000000000000CC
:1095F000FFFF8F40FFFF0F000000F03FFFCB9040C8
:1096000000346F3F684B9E427FF750AC674B9E42E1
:109610003FF7FDAB0022654B14F042FC52A3D3E9A7
:10962000002306460F4614F0EFFD51A3D3E90023B3
:10963000804689463046394614F0E6FD00228246CF
:109640008B465B4B3046394614F0DEFD02460B4636
:1096500049A1D1E9000114F023FC32463B4614F045
:10966000D3FD02460B460020524914F019FC324645
:10967000CDE902013B463046394614F0C5FD0246AD
:109680000B46DDE9020114F0BFFD3DA3D3E9002341
:1096900014F0BAFD02460B465046594614F000FC41
:1096A00002460B4606460F464046494614F0FAFB72
:1096B00042464B46002082468B4614F0F1FB0246A0
:1096C0000B463046394614F0EBFB80468946C5E52B
:1096D00042464B460020354914F0C0FEFFF75ABB06
:1096E000DDE9040128A3D3E9002314F08DFD26A3AE
:1096F000D3E9002314F088FDFFF74CBBBEF1000F47
:109700007FF453ABC3F1140347FA03F202FA03F3F5
:109710009F4223D07446FFF720BB264B98453FF766
:1097200001AEDDE90223924693462BE602460B4644
:10973000FFF7B3BB9FED167B8DED087B9FED167B8E
:109740008DED0E7B9FED167B4FF480278DED067B14
:10975000FFF7F3BB5A4601F04FFDC3E602F00102EA
:10976000C2F10204FFF7F9BA000000604715F73FA5
:1097700044DF5DF80BAE543E555555555555D53F14
:10978000FE822B654715F73F9C7500883CE4377EC9
:109790000000004003B8E23F06D0CF43EBFD4C3E53
:1097A000000000000000F83FFEFFEF3F0000F03F28
:1097B0000000D03F0000E03F2DE9F0479C4B21F036
:1097C00000479F4290B08046894640F38E80994B77
:1097D0009F420C46924626DC00298BA3D3E9002346
:1097E00040F3B08114F05CFB934B9F4204460D465E
:1097F00000F0908086A3D3E9002314F051FB0246C9
:109800000B46CAE900232046294614F049FB80A3F1
:10981000D3E9002314F044FB0125CAE902012846DC
:1098200010B0BDE8F087854B9F4240F39080844B99
:109830009F4265DC3D15A5F21645A7EB0553194679
:109840001F46064614F090FF14F078FC80468946C7
:1098500042464B4630463946CDE90A8914F020FB92
:109860000022784B14F0D0FC8946804614F07CFF2F
:1098700014F064FC06460F4632463B4640464946D5
:10988000CDE90C6714F00CFB00226E4B14F0BCFC0D
:1098900000220023CDE90E0114F01EFF002800F085
:1098A0006F81002330463946002214F015FF00284E
:1098B00014BF01230223644A019202212A46009127
:1098C0000AA8514600F08CFB002C054614DADAF8A1
:1098D0000420DAF80C3002F1004203F10043454263
:1098E000CAF80420CAF80C3006E000200021C2E9C2
:1098F0000089C2E902010025284610B0BDE8F087C2
:1099000002460B4614F0CCFA0025CAE90201CAE966
:109910000001F1E740A3D3E9002314F0C1FA40A30A
:10992000D3E900230D46044614F0BAFA02460B466A
:10993000CAE900232946204614F0B2FA38A3D3E935
:10994000002314F0ADFA0125CAE90201D4E712F0B0
:1099500057FB35A3D3E900238046894614F054FC15
:1099600000223A4B14F09EFA14F0FEFE054614F065
:10997000E5FB25A3D3E90023CDE9060114F044FC5F
:1099800002460B464046494614F08AFA20A3D3E922
:109990000023CDE90201DDE9060114F035FC1F2D9D
:1099A00080468946CDE9048954DC294B6A1E53F868
:1099B00022309F424ED002460B46DDE9020114F0F0
:1099C0006FFA80468946CAE9008942464B46DDE97E
:1099D000020114F065FADDE9042314F061FA002CA9
:1099E000CAE9020188DA09F1004401F100436D423D
:1099F000CAF80080CAF80440CAF80800CAF80C3057
:109A00007AE700BFAFF3008000004054FB21F93F2C
:109A10003163621A61B4D03D0000601A61B4D03D78
:109A20007370032E8A19A33B83C8C96D305FE43F6E
:109A3000FB21E93F7BD90240FB21F93FFB21394162
:109A4000FFFFEF7F00007041580704000000E03F77
:109A5000D8060400DDE90423DDE9020114F020FA50
:109A60003F15C1F30A53FB1A80468946102BCAE9F9
:109A70000089AADD58A3D3E90023DDE9060114F02B
:109A8000C3FB8046894602460B46DDE9020114F01D
:109A900007FA02460B46DDE90201CDE9082314F07E
:109AA000FFF942464B4614F0FBF94DA3D3E90023DE
:109AB00080468946DDE9060114F0A6FB42464B4686
:109AC00014F0EEF90B46CDE904010246DDE9080188
:109AD00014F0E6F9C1F30A53FF1A80468946312F84
:109AE000CAE900896CDD41A3D3E90023DDE9060161
:109AF00014F08AFBDDE9088906460F4602460B464C
:109B00004046494614F0CCF902460B4640464946C9
:109B1000CDE9022314F0C4F932463B4614F0C0F9F3
:109B200034A3D3E9002306460F46DDE9060114F00D
:109B30006BFB32463B4614F0B3F902460B46CDE9C7
:109B400004233AE714F0AEF9274B9F4204460D4632
:109B500018D01FA3D3E9002314F0A4F902460B4642
:109B6000CAE900232946204614F09AF918A3D3E93C
:109B7000002314F097F94FF0FF35CAE90201BBE664
:109B8000032398E614A3D3E9002314F08BF914A35C
:109B9000D3E900230D46044614F084F902460B462F
:109BA000CAE900232946204614F07AF90CA3D3E928
:109BB000002314F077F94FF0FF35CAE902019BE664
:109BC0009DED087B8DED027BFFE600BFAFF30080CB
:109BD0003163621A61B4D03D0000601A61B4D03DB7
:109BE0007370032E8A19A33BFB21F93F0000002E5E
:109BF0008A19A33BC14920259A837B3900000000C4
:109C0000594A2DE9F84F21F00048904506460F4685
:109C10002BDC564B0029B4BF554D564D98454FF09F
:109C2000000410DC544B984570DC4DA3D3E90023AD
:109C300014F038F90022514B14F076FDD8B13046BB
:109C40003946BDE8F88F4E4B98457CDD4D4B984525
:109C500044DD013398453ED03046394640A3D3E930
:109C6000002314F0D1FABDE8F88F02460B4614F039
:109C700019F9BDE8F88F3046394612F0C1F901F004
:109C80007FF806460F4632463B463046394614F0CA
:109C900009F9324682468B463B463046394614F037
:109CA000B3FA002280468946344B3046394614F0D8
:109CB000F9F802460B464046494614F0CFFB0246EF
:109CC0000B465046594614F0EBF822462B4614F04A
:109CD0009BFABDE8F88F2C4B9842BDD830463946E8
:109CE00012F08EF90022234B14F08EFAFEF714FCCA
:109CF00006460F4602460B462046294614F084FAD3
:109D000032463B4614F080FABDE8F88F12F078F93D
:109D100001F036F81D4B984506460F46B3DD00228C
:109D2000164B14F0BFF802460B463046394614F085
:109D300095FB32463B4614F0B5F822462B4614F00C
:109D400063FABDE8F88F12F05BF9FEF7E5FB024617
:109D50000B462046294614F057FABDE8F88F00BF9D
:109D60003374AC3C1F7BAC7FFFFFEF7FFFFF3540C0
:109D70000000E0BF0000E03FFFFF2F3E0000F03F8B
:109D8000412E8640CD3386407DF8B98FFFFFEF3FEF
:109D90002DE9F04F21F00048B8F1795F85B0064613
:109DA0000F4692469B466BDA14F0DEFC002800F06A
:109DB000EA8032463B463046394614F025FA74A311
:109DC000D3E9002304460D4614F01EFA72A3D3E92A
:109DD000002314F067F822462B4614F015FA70A3FE
:109DE000D3E9002314F05CF822462B4614F00CFA59
:109DF0006DA3D3E9002314F055F822462B4614F046
:109E000003FA6BA3D3E9002314F04AF822462B4649
:109E100014F0FAF968A3D3E9002314F043F82246BA
:109E20002B4614F0F1F9CDE900010022664B2046E3
:109E3000294614F0E9F9DDE90023804689462046E9
:109E4000294614F0E1F9524604460D465B46304679
:109E5000394614F0D9F902460B462046294614F03B
:109E60001FF802460B464046494614F019F80246D0
:109E70000B460020554914F013F805B0BDE8F08FEB
:109E800002460B4614F0C0F941A3D3E9002304466F
:109E90000D4614F0B9F940A3D3E9002314F002F8F9
:109EA00022462B4614F0B0F93DA3D3E9002313F06A
:109EB000F7FF22462B4614F0A7F93BA3D3E9002372
:109EC00013F0F0FF22462B4614F09EF938A3D3E995
:109ED000002313F0E5FF22462B4614F095F936A334
:109EE000D3E9002313F0DEFF2B46224614F08CF951
:109EF000374B9845CDE9000197DD364B984539DC65
:109F0000A8F500130022002030499046994613F02E
:109F1000C7FFCDE9020100222B4B2046294614F051
:109F200073F942464B4613F0BBFFDDE90023804640
:109F300089462046294614F067F9524604460D46E4
:109F40005B463046394614F05FF902460B46204620
:109F5000294613F0A5FF02460B464046494613F03A
:109F60009FFF02460B46DDE9020113F099FF05B0A1
:109F7000BDE8F08F9FED127B4FF000088DED027B66
:109F8000DFF85490C7E71149002005B0BDE8F08F15
:109F9000D43888BEE9FAA8BDC4B1B4BD9EEE213E56
:109FA000AD529C804F7E923E9015CB19A001FA3E97
:109FB0007751C1166CC1563F4C5555555555A53F67
:109FC000000000000000E73F0000E03F0000F03F1D
:109FD0003233D33F0000E93F0000D23F00000000D1
:109FE0002DE9F04FADF51B7D9F4CA49E9F4D54F87D
:109FF000264007942646D41E85FB0475E417C4EB5F
:10A00000A50424EAE4741D460A93631CA3EB8303AE
:10A01000013D02EBC30306932B460B940395651B8E
:10A02000F418049008911AD42C4400260027013417
:10A030000DF18808DDF8949208E059F8250014F035
:10A040007DF80135A542E8E8020108D0002DF4DAD8
:10A05000013530463946A542E8E80201F6D1079BB2
:10A06000002BC0F2DF83079B03F1010B0A9B22A99F
:10A07000DB001A4601EB03090093049B0DF5E47A1B
:10A0800019460AEBCB0B01EB0208039B002BC0F235
:10A09000F582049C4D460026002775E90223F4E86A
:10A0A000020114F0B1F802460B463046394613F06F
:10A0B000F9FE444506460F46EFD1EAE80267DA4565
:10A0C00009F10809E1D107990098049C009101F178
:10A0D0008043013B9B0020441A1F83460EA8024484
:10A0E00003440C920D93009A9AA901EBC203002A33
:10A0F00053E9284529DD0DF5E47A0AEBC2080DF194
:10A10000340900225A4B2046294614F07DF814F0F9
:10A110002BFB14F013F80022564B06460F4614F0A2
:10A1200073F802460B462046294613F0B9FE14F098
:10A130001BFB78E9022349F8040F3946304613F037
:10A14000B1FED04504460D46DBD1DDF8189020461F
:10A1500029464A4601F050F800224FF07F5304464A
:10A160000D4614F051F8FCF75FFD0022424B14F04D
:10A170004BF802460B462046294613F091FE0D4649
:10A18000044614F0F1FA804613F0D8FF0B4602465D
:10A190002946204613F084FE4B46002B06460F4608
:10A1A00040F3F980009A0EA9013AC9F1180351F859
:10A1B000225045FA03F101FA03F30EA8EB1A40F816
:10A1C0002230C9F11705884443FA05F5002D6DDDED
:10A1D000009B002B08F1010840F36F820E9C002CBD
:10A1E00040F01683009B012B40F38F820EAA0123BF
:10A1F00052F8044F002C00F08382581C0EAAC4F1C0
:10A20000807442F82340009A824219DD0EAA0EACF7
:10A2100052F820106FF07F42511A44F82010009934
:10A22000023399420CDD1046009A0EA901EB83031C
:10A2300001EB82011A68821A43F8042B8B42F9D190
:10A24000069B002B1ADD069B012B4FF0010440F00A
:10A250003C82009B5A1E0EAB0EA953F82230C3F36A
:10A26000160341F822303CE2F80B0400ABAAAA2AFC
:10A270000000703E0000704100002040022D15D10A
:10A2800032463B460020924913F00AFE06460F462E
:10A29000069A8F49002000F0AFFF02460B46304679
:10A2A000394613F0FDFD022506460F460022002325
:10A2B0003046394614F010FA002800F03782009A30
:10A2C000079B501E83420FDC02F18043013B0EAA24
:10A2D0000D9C02EB8303002253F80419A34242EAC7
:10A2E0000102F9D1002A67D1079B0EAA013B52F85F
:10A2F0002330002B40F018820C9A012352F80419E5
:10A3000001330029FAD0009AD31802F1010A9A45C4
:10A3100009933DDC009B0A990B9A0B4409990AEBBF
:10A320000208994622AB08F1804803EBC9098B1853
:10A33000A59A08F1FF3802EB880872AA02EBCA0A54
:10A34000A59A02EB8303009358F8040F13F0F6FE6E
:10A35000039B002BE9E802014FF000064FF00007D5
:10A3600011DB049C4D4675E90223F4E8020113F069
:10A370004BFF02460B463046394613F093FD5C45D1
:10A3800006460F46EFD1009B9845EAE80267DBD10D
:10A39000099B0093A7E606D1009B0EAA013B52F849
:10A3A0002350ED1512E700224A4B14F0B3F90028B0
:10A3B00040F06E81054679E70EA9039551F82030EB
:10A3C0000699CDF8248018390246009006916BB9A1
:10A3D00000F18043013B0EA800EB830353F804090E
:10A3E000013A18390028F9D000920691069A3849A6
:10A3F000002000F001FF009B002B04460D46C0F238
:10A40000F781DA0072A901EB020B06920EAA02EBA9
:10A410008306DFF8C4904FF000080BF108070436FC
:10A4200056F8040D13F08AFE22462B4613F0ECFE7C
:10A430004B4667E9020142462046294613F0E4FEF6
:10A440000EAB9E4204460D46EAD14AACDDF81C90A4
:10A4500004944FF0000AB9F1000FC0F22B81DFF82D
:10A460007C805D4618A1D1E9000100260027002468
:10A4700003E0544510DCF8E80201F5E8022313F08C
:10A48000C3FE02460B463046394613F00BFD01343D
:10A49000A14506460F46ECDA049B03EBCA03ABF179
:10A4A000080BC3E9006770AB9B450AF1010AD2D1E2
:10A4B000A49B049C032B00F28980DFE803F0C58E87
:10A4C0008E1100BFAFF3008000000040FB21F93F78
:10A4D0000000F03F0000E03F0000703EF8F4030091
:10A4E000009B002B40F38181069A04EB020ADAE913
:10A4F000008902F1080525440DF5987B1AED027BD1
:10A5000042464B4651EC170B8DED047B13F0CAFC11
:10A5100006460F4602460B46DDE9040113F0C0FC77
:10A5200042464B4613F0BEFC65E902015D45B0466C
:10A53000B9466AE90267E1D1009B012B40F35581DE
:10A54000069BE518D5E9008903F1080B04EB0B0A1B
:10A5500015ED027B42464B4651EC170B8DED007B0F
:10A5600013F0A0FC06460F4602460B46DDE900014B
:10A5700013F096FC4B46424613F094FC6AE9020144
:10A580004EAB5345B046B94665E90267E0D10020BD
:10A59000002104EB0B0575E9022313F083FCAA45A7
:10A5A000F9D1039B002B00F00A816268E368089FE1
:10A5B0002568A4683D6002F1004203F1004301F107
:10A5C00000417A60FB60BC6038617961099B03F0EF
:10A5D00007000DF51B7DBDE8F08F069D083525446D
:10A5E0000020002175E9022313F05CFCA542F9D19B
:10A5F000039B002B00F0D280089E024601F100432D
:10A6000086E80C000B460246D4E9000113F048FC32
:10A61000009B002B0BDD4CAD0124F5E8022313F069
:10A6200041FC009B0134A342F7DA039B13B101F113
:10A6300000431946089BC3E90201099B03F0070088
:10A640000DF51B7DBDE8F08F069D0835002000212B
:10A65000254475E9022313F025FCAC42F9D1039B94
:10A6600013B101F100431946089BC3E90001099B9E
:10A6700003F007000DF51B7DBDE8F08F00260027D5
:10A68000EAE80267DA4509F108097FF4FEAC1AE549
:10A69000009B002B08F10108C8BF02253FF79EADC3
:10A6A00032463B460020614913F0FAFB022506467C
:10A6B0000F46FBE500260027EEE6069B002B27DD74
:10A6C0000024069B012B3FF4C4AD022B09D1009B53
:10A6D0005A1E0EAB0EA953F82230C3F3150341F8EE
:10A6E0002230022D7FF4E2AD32463B4600204F4936
:10A6F00013F0D6FB06460F46002C3FF4D7ADC7E556
:10A700000099013399427FF473AD069B002BD8DC8E
:10A71000022D7FF4CBAD32463B460020434913F077
:10A72000BFFB06460F46C1E50123ECE53946069F0F
:10A7300003957A423046CDF8248000F05DFD00227A
:10A740003B4B04460D4613F0E5FF002843D00022A2
:10A75000384B2046294613F057FD14F005F80646FD
:10A7600013F0ECFC0022324B13F04EFD02460B4678
:10A770002046294613F094FB13F0F6FF00990B4690
:10A7800001331A4600933B46183306930B460EA935
:10A7900041F82300134641F8236027E6089B024650
:10A7A000C3E900010B46D4E9000113F079FB009BDB
:10A7B000002B3FF730AF089BC3E902013DE7D4E926
:10A7C0000067D4E90223089DC5E90401C5E90067D3
:10A7D000C5E90223FAE62946204613F0C5FF009A90
:10A7E0000EA941F8220001E64AAC00200021D8E67B
:10A7F000A49B032B3FF6EAAE01A252F823F000BF60
:10A800001FA8020017A8020017A80200E9A702006B
:10A8100001200023F2E4002000214AACE8E60020F9
:10A8200000211CE70A9BDB0000934CE40000F03F92
:10A83000000070410000703E2DE9F04F21F000460D
:10A84000B6F1795F85B004460D469046994604DA24
:10A8500013F08AFF002800F0858022462B46204610
:10A86000294613F0D1FC06460F4602460B46204609
:10A87000294613F0C9FC41A3D3E9002382468B4645
:10A880003046394613F0C0FC3EA3D3E9002313F051
:10A8900007FB32463B4613F0B7FC3CA3D3E9002349
:10A8A00013F000FB32463B4613F0AEFC39A3D3E96C
:10A8B000002313F0F5FA32463B4613F0A5FC37A30C
:10A8C000D3E9002313F0EEFA0E9BCDE900019BB310
:10A8D0000022294B4046494613F096FCDDE900234F
:10A8E000CDE902015046594613F08EFC02460B4654
:10A8F000DDE9020113F0D4FA32463B4613F084FC42
:10A9000042464B4613F0CCFA19A3D3E9002306467E
:10A910000F465046594613F077FC02460B46304628
:10A92000394613F0BFFA02460B462046294613F07B
:10A93000B7FA05B0BDE8F08F02460B4630463946FF
:10A9400013F062FC0AA3D3E9002313F0A9FA5246DC
:10A950005B4613F059FC22462B4613F0A3FA05B0D0
:10A96000BDE8F08F2046294605B0BDE8F08F00BF56
:10A97000495555555555C53F0000E03F7CD5CF5A48
:10A980003AD9E53DEB9C2B8AE6E55A3E7DFEB15770
:10A99000E31DC73ED561C119A0012A3FA6F81011D9
:10A9A0001111813F000000002DE9F04FBE4C21F055
:10A9B000004687B0A64282468B460F46CDE900236B
:10A9C0001BDC13F0D1FE002837D153461E43109BE9
:10A9D0000133334300F0B381109B012B00F0C88199
:10A9E00052465B460020B14913F038FD04460D463F
:10A9F0002046294607B0BDE8F08FAD4B9E421CDDD6
:10AA00000029C0F2A98152465B4687A1D1E9000125
:10AA100013F046FADDE9002304460D4684A1D1E98E
:10AA2000000113F03DFA9FED847B22462B468DED0D
:10AA3000007B13F037FA82468B4652465B465046FF
:10AA4000594613F0E1FB02460B468046894613F057
:10AA5000DBFB424604460D464B465046594613F032
:10AA6000D3FB77A3D3E90023CDE902012046294691
:10AA700013F0CAFB74A3D3E9002313F013FA2246A0
:10AA80002B4613F0C1FB72A3D3E9002313F00AFA9B
:10AA900022462B4613F0B8FB6FA3D3E9002313F033
:10AAA00001FA22462B4613F0AFFB6DA3D3E9002336
:10AAB00013F0F8F922462B4613F0A6FB6AA3D3E95C
:10AAC000002313F0EFF942464B4613F09DFB68A3B9
:10AAD000D3E90023CDE904012046294613F094FB75
:10AAE00065A3D3E9002313F0DDF922462B4613F0CA
:10AAF0008BFB63A3D3E9002313F0D4F922462B4642
:10AB000013F082FB60A3D3E9002313F0CBF92246B4
:10AB10002B4613F079FB5EA3D3E9002313F0C2F9AF
:10AB200022462B4613F070FB5BA3D3E9002313F0FE
:10AB3000B9F902460B46DDE9040113F0B3F9DDE98A
:10AB4000022313F061FBDDE9004522462B4613F09A
:10AB5000A9F942464B4613F057FB02460B462046E6
:10AB6000294613F09FF94EA3D3E9002304460D466E
:10AB7000DDE9020113F048FB22462B4613F092F95F
:10AB80000B460246804689465046594613F08AF9DC
:10AB9000474B9E4204460D4600F38E80109B012BCE
:10ABA0003BD002460B460020404913F057FC0024DE
:10ABB00006460F462046294652465B46CDE90067C9
:10ABC000CDE90201009413F06BF9DDE900AB024618
:10ABD0000B464046494613F063F952465B4613F074
:10ABE00013FB524604460D465B46DDE9020113F0B5
:10ABF0000BFB00222F4B13F055F902460B46204663
:10AC0000294613F04FF932463B4613F0FDFA5246FF
:10AC10005B4613F047F904460D462046294607B027
:10AC2000BDE8F08FAFF30080182D4454FB21E93FBD
:10AC3000075C143326A6813C0000000000000000E1
:10AC4000D47ABF74702AFB3EE9A7F0320FB8123FE6
:10AC500068108D1AF726303F1583E0FEC8DB573F9A
:10AC600093846EE9E326823FFE41B31BBAA1AB3F5A
:10AC7000735360DBCB75F3BEA69237A0887E143F7A
:10AC80000165F2F2D844433F280356C9226D6D3F57
:10AC900037D60684F464963F7AFE10111111C13F35
:10ACA000635555555555D53FFFFF2F3E0000F0BF6A
:10ACB0002794E53F0000F03F109813F03FFA22463A
:10ACC000CDE900012B462046294613F09DFADDE927
:10ACD0000023CDE902012046294613F0E3F802469D
:10ACE0000B46DDE9020113F0B9FB42464B4613F077
:10ACF000D7F802460B465046594613F0D1F80246A3
:10AD00000B4613F0CFF802460B46DDE9000113F0C5
:10AD1000C7F80446B81700F00200C0F101000D4664
:10AD200013F00CFA02460B462046294613F06CFA43
:10AD300004460D462046294607B0BDE8F08F504630
:10AD4000594611F05DF902460B4600200A4913F0FE
:10AD500085FB04460D4660E7DDE9004501F1004151
:10AD6000224605F1004382468B46CDE900234AE6A0
:10AD700054465D4651E700BF0000F03F0000000070
:10AD80002DE9F04FD24A21F00043934285B082462C
:10AD90008B460C462DD9CF4A93421AD8002C80F20C
:10ADA0001681B5A3D3E900235046594613F07AF82B
:10ADB0000022002313F09AFCC0B9B1A3D3E9002309
:10ADC0005046594613F020FA02460B460020C2496D
:10ADD00008E1C24A934240F2D0800346C1F3130215
:10ADE000134340F0F481002980F2C4800020BC4964
:10ADF000C0E0BC4A934200F22981BB4A934240F230
:10AE0000DE80002301930022B84B5046594613F0D0
:10AE1000FBF906460F4602460B465046594613F0CC
:10AE2000F3F999A3D3E9002304460D4613F0ECF996
:10AE300097A3D3E9002313F035F822462B4613F0ED
:10AE4000E3F995A3D3E9002313F02AF822462B4611
:10AE500013F0DAF992A3D3E9002313F023F8224682
:10AE60002B4613F0D1F990A3D3E9002313F018F87F
:10AE700022462B4613F0C8F900229D4B13F012F81E
:10AE80008046894602460B463046394613F0BCF9E7
:10AE900002460B460020974913F002F80646024688
:10AEA0000B460F464046494612F0FAFF32468046AE
:10AEB00089463B465046594613F0A6F902460B46D2
:10AEC00000208D4912F0ECFF02460B4640464946F1
:10AED00013F0C4FA22462B4613F096F9019E02465F
:10AEE0000B46002E38D0DDE9026732463B4612F0B1
:10AEF000D7FF52465B4613F087F932463B4612F0C5
:10AF0000CFFF2B46224612F0CBFF019B01330646B2
:10AF10000F4600F00F81019B012B00F0F180019B97
:10AF20000133392B39D8019B132B40F31281019C3B
:10AF3000C4F57F75033500222B0512F0B3FF0246DE
:10AF40000B465046594612F0ABFF0022684B12F0F8
:10AF5000A9FF01EB04510DE05046594613F054F996
:10AF600022462B4612F09CFF02460B46504659469D
:10AF700012F096FF05B0BDE8F08F4DA3D3E9002392
:10AF800013F0D2FB00283FF409AF4BA3D3E9002311
:10AF90001046194613F038F9ECE752465B4612F0BA
:10AFA0007FFF02460B460020514912F079FF019ABB
:10AFB0004F4B01EB0251002212F072FFDAE73EA381
:10AFC000D3E9002312F06EFF02460B46CAE72CA31A
:10AFD000D3E900235046594613F016F90B4643496E
:10AFE0000246002012F05EFF13F0BEFB019013F04A
:10AFF000A5F833A3D3E9002306460F4613F004F95E
:10B0000002460B465046594612F04AFF2EA3D3E99A
:10B010000023804689463046394613F0F5F8064647
:10B020000F4632463B464046494612F039FF02463B
:10B030000B4682468B464046494612F031FF324667
:10B040003B4612F02DFFCDE90201DCE62B4A93428C
:10B0500000F2958000291AA3D3E90023C0F2AC8046
:10B0600012F01EFF012380468946019316A7D7E9F7
:10B070000067D6E7AFF3008059F3F8C21F6EA50151
:10B08000FE822B654715F73F2DC3096EB7FD8ABEBB
:10B090003952E686CACFD03EB7DBAA9E19CE143FFE
:10B0A0008555FE19A0015A3FF41011111111A13F4D
:10B0B000EF39FAFE422E86409C7500883CE4377ECC
:10B0C0000000E0FE422EE63F763C7935EF39EA3D5E
:10B0D00079684340412E86400000E0BFFFFFEF7FCC
:10B0E0000000F0BF422ED63FFFFF8F3C0000E03F44
:10B0F0000000F03F0000084000001840B1A2F03FFF
:10B100000022394B5046594613F0F0FA002844D03B
:10B11000504659460022354B12F0C4FE02460B46FB
:10B120003046394612F0BCFE00224FF0404313F087
:10B130006BF81FE702460B465046594612F0B0FE28
:10B1400000222A4B13F060F80022284B12F0A8FED0
:10B1500010E7019C4FF400132341C3F17F5752467F
:10B160005B4612F09DFE002607F5401702460B468F
:10B170003046394612F094FE01EB0451FAE616A36C
:10B18000D3E9002313F040F8002C02460B464FF0A1
:10B190000000FFF61CAE154924E732463B465046F8
:10B1A000594612F07DFE02460B4612F07BFE00224D
:10B1B0000F4B12F077FEDDE612F074FE4FF0FF3316
:10B1C00080468946019306A7D7E9006729E702462A
:10B1D0000B4612F067FECDE6FE822B654715F73F62
:10B1E000763C7935EF39EABD0000D0BF0000E03F82
:10B1F0000000F03F00000000F8B5C1F30A56044615
:10B200000D460B4617460EBB21F00043034386460E
:10B2100025D00022344B12F0F7FF344A97420446FF
:10B220000D460B462ADBC1F30A56363E3E4440F239
:10B23000FE72964228DC002E12DD23F0FF4323F439
:10B24000E00343EA065520462946F8BD40F2FF7266
:10B250009642EBD102460B4612F024FEF8BDF8BD33
:10B2600016F1350F1DDA4CF250339F4222462B4621
:10B2700025DC19A1D1E9000112F084FD16A3D3E960
:10B28000002312F0C1FFF8BD22462B4614A1D1E9DC
:10B29000000112F077FD12A3D3E9002312F0B4FFEE
:10B2A000F8BD23F0FF4323F4E003363643EA0655A6
:10B2B0002046294600220E4B12F0A6FFF8BD08A139
:10B2C000D1E9000112F05EFD05A3D3E9002312F0DD
:10B2D0009BFFF8BDAFF3008059F3F8C21F6EA501C4
:10B2E0009C7500883CE4377E00005043B03CFFFF73
:10B2F0000000903C10B5054C237833B9044B13B1D2
:10B300000448AFF300800123237010BD1085002096
:10B3100000000000500D04000C4B43B10C480D49D7
:10B3200010B5AFF300800C48036823B910BD0A487C
:10B33000036833B97047094B002BF7D0BDE81040C4
:10B340001847064B002BF5D0184700BF000000003F
:10B35000500D04001485002014820020000000001D
:10B36000154B002B08BF134B9D46A3F5803A0021D7
:10B370008B460F461348144A121A08F075FE0F4BFD
:10B38000002B00D098470E4B002B00D09847002090
:10B39000002104000D000D48002802D00C48AFF336
:10B3A000008012F025FD2000290005F087FA12F038
:10B3B0000BFD00BF0000080000000420000000009A
:10B3C0000000000000840020848C002000000000A9
:10B3D0000000000070B504460E4600F0D1F888B1B8
:10B3E0000368DB6A05469847082C0CD0A4F10903D2
:10B3F000012B14D93246214610230D20BDE87040A0
:10B4000004F0BCB870BD2B6828465B6A98470228D8
:10B41000F0DC2B6828461B6A04219847EAE72B6872
:10B4200028465B6A98470528E4DC2B6828461B6A97
:10B4300008219847DEE700BF30B52DED028B83B0C1
:10B44000054600F09DF8044640B10368DB6A984762
:10B45000032D50D8DFE805F0373F470801900198E9
:10B4600003B0BDEC028B30BD20460CF057F907EE5F
:10B47000900A2046F8EEE78A0CF060F907EE900A91
:10B480002046B8EEE78A0CF069F968EE087A07EE14
:10B49000100AE8EEA87AB8EEC77AE7EE077AF5EE7A
:10B4A000407AF1EE10FAB1EEE78A03D517EE900A72
:10B4B00011F0F2FAFDEEC87ACDED017A019803B0F1
:10B4C000BDEC028B30BD204603B0BDEC028BBDE865
:10B4D00030400CF023B9204603B0BDEC028BBDE830
:10B4E00030400CF02BB9204603B0BDEC028BBDE818
:10B4F00030400CF033B900230193B0E738B505466E
:10B5000000F03EF858B10368DB6A0446984745B13D
:10B51000012D04D12046BDE83840FBF79DB800203E
:10B5200038BD2046BDE83840FBF776B810B5044674
:10B5300000F026F828B1036821461B6ABDE81040D8
:10B54000184710BD0048704716FCFFFF704700BF4A
:10B5500010B5034B036004460BF0C0FE204610BD3F
:10B56000C002040010B5054B036004460BF0B6FEA4
:10B57000204613F08BFB204610BD00BFC002040024
:10B580002DE9F043C04C236885B01BB1986805B025
:10B59000BDE8F0834FF0FF31012001F0FFFCC0B2A5
:10B5A00004F03CFB002800F0ED800C2013F070FB51
:10B5B00003210646512001F0F1FCDFF8FCE2B34B19
:10B5C000054605F00F07C5F3031815F4807518BF7D
:10B5D0007346AF48394642460BF07EF82A1C18BF26
:10B5E00001223946434630460EF0C0F90023A948EF
:10B5F000B3600BF071F84FF0FF31032001F0CEFC87
:10B60000C0B204F00BFB4FF0FF310546022001F001
:10B61000C5FCC0B204F002FB002D00F09A800028A7
:10B6200000F097800146284604F08AF80746002873
:10B6300000F0A4804FF0FF31462001F0AFFC32282B
:10B6400080462BD028DD382869D068283FD14FF0BC
:10B65000FF31012001F0A2FCC0B204F0DFFA814604
:10B660004C2013F015FB0523054601934A46CDF8FF
:10B670000080394633460DF049F92846B06003682A
:10B680009B6A9847B0680368DB6A984782480BF06A
:10B6900023F82660B0687AE7302818D14FF0FF31E0
:10B6A000012001F07BFCC0B204F0B8FA81464C20C6
:10B6B00013F0EEFA1FFA88F1054605234A46009179
:10B6C0000193394633460CF003FF2846D6E73A6823
:10B6D0000125002301950095D2F82080B3600F2248
:10B6E0000DF10F0332213846C047002856D14FF0E4
:10B6F0003208414669480AF0EFFF4FF0FF31012060
:10B7000001F04CFCC0B204F089FA81464C2013F0E1
:10B71000BFFA052305464A46CDF80080D0E74FF032
:10B72000FF31012001F03AFCC0B204F077FA814603
:10B73000442013F0ADFA052305464A46CDF80080B3
:10B740003946019333460DF039F8554B2B602846A6
:10B7500094E754480AF0C0FF4FF0FF31192001F080
:10B760001DFCC0B204F05AFA4FF0FF310546182014
:10B7700001F014FCC0B204F051FA53E74A480AF051
:10B78000ABFF86E74FF0FF31032001F007FCC0B2AA
:10B7900004F044FA00287FF408AFF8E63B6801950E
:10B7A0000095D3F820800F220DF10F033021384689
:10B7B000C04718B94FF0300841469BE73B680195F8
:10B7C0000095D3F820800D220DF10F033821384663
:10B7D000C047C0B9382131480AF07EFF4FF0FF3131
:10B7E000284601F0DBFBC0B204F018FA8046442082
:10B7F00013F04EFA4FF0050E3823054642463946FF
:10B800008DE808409EE73A6801950095D2F82080BF
:10B810000DF10F03752268213846C047E0B9682151
:10B820001E480AF059FF4FF0FF31284601F0B6FBE1
:10B83000C0B204F0F3F980464C2013F029FA4FF01F
:10B84000050E682305468DE80840424639463346D2
:10B850000DF05CF8284611E714480AF03DFFB06887
:10B8600000287FF40CAF4FF0FF31032001F096FB6E
:10B87000C0B204F0D3F918B10D480AF02DFF08E763
:10B880000C480AF029FF04E72C85002084F503000A
:10B890008CF50300ACF5030044F6030068F60300E2
:10B8A00048F50300BCF50300D0F5030054F603008F
:10B8B000E8F5030024F603007CF5030008B501F069
:10B8C0009FFCFBF76DFCBDE8084001F0FDB900BF2F
:10B8D00008B501F095FCFBF7D3FCBDE8084001F08A
:10B8E000F3B900BF08B501F08BFC10F0FFFBBDE819
:10B8F000084001F0E9B900BF08B501F081FC11F082
:10B9000007F8BDE8084001F0DFB900BF08B501F055
:10B9100077FCFBF755FCBDE8084001F0D5B900BF46
:10B9200008B501F06DFC10F01FFEBDE8084001F005
:10B93000CBB900BF08B501F063FCFAF7ADFEBDE876
:10B94000084001F0C1B900BF08B501F059FC10F082
:10B950005FFDBDE8084001F0B7B900BF70B5049EB7
:10B9600096420C4628DB15466BB1002A00EB02011B
:10B9700007DD2046A21811F8013D00F8013B904276
:10B98000F9D1002070BD042A0FD0022A02D110F094
:10B99000010306D001462A46204607F075F900202B
:10B9A00070BD02880A80184670BD10F00303F1D103
:10B9B00002680A60184670BD0846002108F054FB72
:10B9C0004FF0FF3070BD00BF0830704740B1002914
:10B9D00005DB4368994202DA0844007A7047002088
:10B9E000704700BF30B1002904DB43689942BCBFF7
:10B9F00040180272704700BF40B1002905DB436860
:10BA0000994202DA0844007A70470020704700BF6C
:10BA1000830705D120B1030F0CBF01200020704720
:10BA20000120704730B1002904DB43689942BCBF54
:10BA300040180272704700BF002B23DB002921DB76
:10BA400070B54668B1421ADC5568761A1446EA1A8F
:10BA5000B242A8BF3246002A11DB84420D4607D00D
:10BA6000083408300844E11807F00EF9002070BDD2
:10BA70000834E118601913F045F9002070BD4FF04B
:10BA8000FF3070BD4FF0FF30704700BF4068704717
:10BA900010B4141E10DB426894420DDC33EA230319
:10BAA00028BF1346121B08309A422044A8BF1A46EA
:10BAB0005DF8044B08F0D8BA5DF8044B704700BF3E
:10BAC00043688B4210B400F108041846A8BF08462A
:10BAD00032EA220128BF19461B1A99422044A8BF06
