:020000040801F1
:1000000000800120155702083D7D0208719A010801
:10001000A1010308A1010308A101030800000000D9
:10002000000000000000000000000000417D020808
:10003000457D020800000000497D02084D7D020850
:10004000A1010308A1010308A1010308A1010308FC
:10005000A1010308A1010308817302088573020846
:10006000897302088D73020891730208617A02088D
:10007000717A0208817A0208917A0208A17A02084C
:10008000B17A0208C17A0208A1010308A10103089C
:10009000A1010308A1010308A10103089573020847
:1000A000A1010308A1010308A1010308A10103089C
:1000B0004D5E0208555E02085D5E0208A10103085C
:1000C000A1010308A1010308A10103087D7802082A
:1000D00089780208A1010308A1010308A10103080E
:1000E00099730208A1010308A1010308A1010308F3
:1000F000A1010308A1010308A1010308D17A0208A4
:10010000A1010308A1010308655E020895780208B1
:10011000A1010308A1010308A1010308A10103082B
:10012000E17A0208F17A0208017B0208117B0208D9
:10013000217B0208A1010308A1010308A101030812
:10014000A1010308A1010308A101030891600208AD
:10015000317B0208417B0208517B0208A1010308A0
:10016000A1010308A1010308A1010308A1010308DB
:10017000A1010308A1010308A10103080000000078
:10018000A1010308A1010308A1010308A1010308BB
:10019000A1780208A1010308A1010308A101030835
:1001A000A1010308A1010308A1010308A10103089B
:1001B000A1010308000000002DE9F04F85B0039174
:1001C0000778A7F10903042B044607F07F0200F12A
:1001D0000100F5D9202AF3D02B2F04BF67780446FD
:1001E0002D2F72D09FED427B8DED007B4FF00008EC
:1001F0004FF000098FB34FF0000E4FF0000ADFF808
:1002000000B1754619E01CF08BFD804689463046EA
:100210001CF020FD42464B461CF0D0FB5246804667
:1002200089465B46DDE9000135B31CF0A3FECDE94C
:100230000001AE4614F8017F7FB1A7F13006092E08
:1002400052465B4640464946DDD9C5B92E2F16D1E8
:1002500014F8017F0125002FEFD142464B46DDE91E
:1002600000011CF05DFD80468946039B40464946DF
:100270001C6005B0BDE8F08F4FF0010EDAE7BEF16B
:10028000000F29D042464B46DDE900011CF048FD35
:1002900007F0DF07452F80468946E6D10399601CA9
:1002A0000A221FF0ADFB1649024600201DF098F807
:1002B00002460B46404649461CF032FD80468946C0
:1002C0004046494605B0BDE8F08F9FED0B7B67784F
:1002D0008DED007B013489E7DFF828904FF00008AE
:1002E0004046494605B0BDE8F08F00BFAFF300803F
:1002F000000000000000F03F000000000000F0BF20
:10030000000024400000F87F2DE9F84F1646002336
:10031000002204460D461CF075FF002840F09D8029
:1003200000220023204629461CF062FF28B130221B
:10033000002332707370BDE8F88F204629461DF007
:100340005FFE1CF09DFF7BA3D3E900238146294675
:1003500020461CF057FF002800F08680B9F1000FFE
:10036000C0F2BE804A4600206F491DF039F80246AF
:100370000B46204629461CF0FDFD04460D4666A1AD
:10038000D1E9000101274FF0000822462B461CF05E
:10039000C7FC0022654B1CF011FB1DF05DF8002F1F
:1003A000CC464FF0FF3AC1464FF0000840F385803D
:1003B000DFF888E15E4C0122AEF1700945F6F325C5
:1003C0004FF02E0BA94208BFA0424FF0300309D3D3
:1003D000001B61EB0501A94208BFA04203F1010324
:1003E000F6D2DBB2337050EA010306F1010409D101
:1003F000BA4210DACE4502F101020CD026467EE860
:100400000245DFE7BA4204BF86F801B0B41CCE450E
:1004100002F10102F2D1B8F1000F0DD022463021D5
:1004200002F8011BC2F1010353442344002BF7DC03
:100430002AEAEA7301331C44BCF1010F4CD0652356
:10044000BCF1000F2370C5BF2B236370611CA11C7E
:100450006046BDE8F84F10F065BC05F100431D464D
:100460002D23337001365BE72DA3D3E9002320460B
:1004700029461CF0E5FE00287FF470AFB9F10E0F9D
:1004800009F101073DDDA9F10E0842460020264989
:100490001CF0A6FF02460B46204629461CF06AFDCA
:1004A0000022224B1CF08AFA1CF0D6FF002FA9F183
:1004B0000F0A4FF0010C3FF77BAF334630222E245A
:1004C00003F8022B74707FEA090618D01E4403F863
:1004D000012BB342FBD16BE700232370BDE8F88FFB
:1004E000C9F10002002010491CF07AFF02460B46B9
:1004F000204629461CF014FC04460D463FE71E46E4
:1005000056E7C9F10E0200200749C8461CF068FFF3
:100510004FF0010939E700BF0000901EC4BCD6426D
:1005200050EFE2D6E41A4B44000024400000E03FC4
:1005300000407A108DEDB5A0F7C6B03EC80903089B
:1005400070B54FF0FF3006F085F804466FF07F403D
:1005500006F080F8064620461CF06CFB00220C4B8F
:100560001CF0DEFB044630460D461CF063FB06A380
:10057000D3E900231CF0FEFC02460B462046294628
:100580001CF01CFA70BD00BF0000E0DFFFFF6F43EE
:100590000000F03D000000002DE9F04F2DED028B32
:1005A000044683B0C0681CF055FB8046206989462C
:1005B0001CF050FB824660698B461CF04BFB0246E8
:1005C00001F1004306460F46404649461DF0C8FB70
:1005D0001CF09EFEE06205461DF086FA019028465A
:1005E0001DF046FA019B054618461CF045FB4246A5
:1005F0004B461CF095FB8046284689461CF03CFB88
:1006000032463B461CF08CFB02460B4640464946B0
:100610001CF0D2F902460B46504659461DF0A0FB8D
:100620001CF076FE002208EE100A00233046394600
:100630001CF006FE28B3B5EEC08AF1EE10FA1CDD00
:1006400011A7D7E9006718EE100A1CF015FB024647
:100650000B46304639461CF0AFF932463B461CF09B
:10066000ADF91CF055FEA062E38843F00203E3807D
:1006700003B0BDEC028BBDE8F08F05A7D7E900679A
:10068000E1E784ED0A8AEFE7EA2E4454FB21F93FC3
:10069000EA2E4454FB21F9BF08B511F0A1FDDFEDAE
:1006A0000C7A07EE100A67EE277A17EE900A1CF014
:1006B000E3FA05A3D3E900231CF05CFC1CF0E0FD89
:1006C00008BD00BFAFF30080EA2E4454FB2119405F
:1006D0000000B4430000000008B511F095FDDFED07
:1006E0000C7A07EE100A67EE277A17EE900A1CF0D4
:1006F000C3FA05A3D3E900231CF03CFC1CF0C0FDA9
:1007000008BD00BFAFF30080EA2E4454FB2119401E
:100710000000B443000000004F4A21F00043934220
:100720002DE970430D4604464FDC4C4A93420E4679
:100730000FDC45A3D3E900231CF040F90022484B0D
:100740001CF07EFD002856D02B4620461946BDE8F9
:100750007083444A934242DCB3F1804F4BDD1DF07D
:1007600059F82246804689462B46204629461CF0E9
:10077000D7FA00223A4B1CF021F91EF069F8024624
:100780000B46404649461CF019F902460B4600202C
:1007900033491CF0EFFB424604460D464B464046AB
:1007A00049461CF00BF90B460246294620461CF030
:1007B00005F901F0FDFE04460B46002E0BDC03F1AB
:1007C000004320461946BDE870830B4602461CF0E4
:1007D000F5F804460B4620461946BDE870831DF027
:1007E00019F801F0E5FE1AA3D3E900231CF0E6F89E
:1007F00004460B46E1E722462B46204629461CF0DC
:100800008FFA80468946204629461DF003F80022CB
:100810000446134B0D46404649461CF0CFF81EF0E7
:1008200017F800220E4B1CF0C9F802460B46404652
:1008300049461CF09FFB22462B461CF0BFF800F0F7
:10084000D3FA04460B46B8E79C7500883CE4377E33
:10085000EF39FAFE422EE63FFFFFEF7FFFFF2F3E0C
:100860000000F03F0000B0412DE9F84FC24B21F0ED
:1008700000469E420D468A46044610DDBF4B9E420E
:1008800000F3B58000F0B080BD4BBE49BE4CBAF15C
:10089000000FD8BF0B4620461946BDE8F88FBB4B6A
:1008A0009E4200F3C180A3F1DE739E4240F3AB8011
:1008B0004FF0FF3B22462B46204629461CF030FADB
:1008C00002460B46804689461CF02AFA92A3D3E9D9
:1008D000002306460F461CF023FA91A3D3E9002318
:1008E0001CF06CF832463B461CF01AFA8EA3D3E992
:1008F00000231CF063F832463B461CF011FA8CA32F
:10090000D3E900231CF05AF832463B461CF008FAA3
:1009100089A3D3E900231CF051F832463B461CF072
:10092000FFF987A3D3E900231CF048F842464B4661
:100930001CF0F6F984A3D3E90023804689463046AB
:1009400039461CF0EDF982A3D3E900231CF034F8FA
:1009500032463B461CF0E4F97FA3D3E900231CF0A8
:100960002BF832463B461CF0DBF97DA3D3E900238C
:100970001CF022F832463B461CF0D2F97AA3D3E9A8
:1009800000231CF019F832463B461CF0C9F9BBF1B4
:10099000FF3F02460B466ED0404649461CF00EF81B
:1009A00022462B461CF0BCF9794E7A4B4FEACB0B12
:1009B0005E449B44DBE900231BF0FEFF22462B46EE
:1009C0001BF0FAFF0B460246D6E900011BF0F4FFCC
:1009D000BAF1000F04460B46BFF65DAF01F10043CC
:1009E00020461946BDE8F88F00283FF44DAF224657
:1009F0002B46204629461BF0E1FF04460B462046C5
:100A00001946BDE8F88F5AA3D3E900231BF0D6FF9F
:100A10000022614B1CF014FC00283FF449AF2B4628
:100A200020461946BDE8F88F1CF0F4FE5B4B9E4251
:100A300004460D4630DCA3F550239E4255DC0246A9
:100A40000B461BF0BBFF0022534B1BF0B5FF0022EF
:100A500006460F464FF08043204629461BF0AEFF66
:100A600002460B46304639461CF084FA4FF0000B24
:100A700004460D461EE7404649461BF09FFF2246AE
:100A80002B461CF04DF90B460246294620461BF02A
:100A900093FF04460B46FEE6414B9E421ADC0022C1
:100AA000404B1BF089FF002206460F463D4B204677
:100AB00029461CF035F90022374B1BF07FFF024618
:100AC0000B46304639461CF055FA4FF0020B0446EF
:100AD0000D46EFE602460B46002033491CF04AFA69
:100AE0004FF0030B04460D46E4E600222A4B1BF0B0
:100AF00063FF002206460F46274B204629461BF07F
:100B00005DFF02460B46304639461CF033FA4FF083
:100B1000010B04460D46CDE611DA22E33AAD903FD3
:100B2000EB0D76244B7BA93F513DD0A0660DB13F24
:100B30006E204CC5CD45B73FFF8300922449C23F8C
:100B40000D5555555555D53F2F6C6A2C44B4A2BF51
:100B50009AFDDE522DDEAD3F6D9A74AFF2B0B33F19
:100B6000711623FEC671BC3FC4EB98999999C93F91
:100B70009C7500883CE4377EFFFF0F440000F07F47
:100B8000FB21F93FFB21F9BF182D4454FFFFDB3F48
:100B9000D8090308F80903080000F03FFFFFF23FFF
:100BA000FF7F03400000F83F0000F0BF000000009E
:100BB0002DE9F047C1F30A59A9F2FF36132E0B466F
:100BC0000D46044607468846824622DC002E4FDB4F
:100BD0003D4A42FA06F901EA090202431ED038A34F
:100BE000D3E900231BF0EAFE002200231CF028FBBF
:100BF00050B1002D04DD4FF4801343FA06F6B044E3
:100C000028EA09054FF0000A544629462046BDE867
:100C1000F087332E06DDB6F5806F3DD019462046AD
:100C2000BDE8F087A9F213494FF0FF3222FA09F923
:100C300010EA090FF2D022A3D3E900231BF0BEFE75
:100C4000002200231CF0FCFA0028DDD0002D09DD75
:100C5000142E2FD00123C6F1340603FA06F63719F5
:100C600028BF9844454627EA090A54462946CDE755
:100C700013A3D3E900231BF0A1FE002200231CF0E4
:100C8000DFFA0028C0D0002D0FDB55EA040709D099
:100C90004FF0000A0D4DB7E702460B461BF08EFEE3
:100CA0000446BCE7BA463D46AEE74FF0000A4FF0B7
:100CB0000045A9E705F10108D4E700BFAFF30080C4
:100CC0009C7500883CE4377EFFFF0F000000F03F7A
:100CD000C1F30A522DE9F843A2F2FF36132E0B4658
:100CE0000D460446884607461DDC002E40DB3C4A84
:100CF00042FA06F901EA09020243864618D036A3F1
:100D0000D3E900231BF05AFE002200231CF098FABE
:100D100020B1002D42DB28EA090500273C46294680
:100D20002046BDE8F883332E06DDB6F5806F2FD060
:100D300019462046BDE8F883A2F213424FF0FF396E
:100D400029FA02F910EA090FF2D023A3D3E900230C
:100D50001BF034FE002200231CF072FA0028DDD0C4
:100D6000002D21DB454627EA09073C462946D7E7FF
:100D700019A3D3E900231BF021FE002200231CF05D
:100D80005FFA0028CAD0002D19DB00273D46C5E7D1
:100D900002460B461BF012FE0446CAE74FF48013CE
:100DA00043FA06F6B044B6E7142E10D00123C6F17C
:100DB000340603FA06F6371928BF9844D2E725F01F
:100DC0000042084B224318BF1D460027A6E705F145
:100DD0000108C7E7AFF300809C7500883CE4377ECC
:100DE000FFFF0F000000F0BF2DE9F04FD64B9942F6
:100DF00089B00E460F46824613DCD44B21F00044E6
:100E00009C4218DD0022D24B1CF0F2F9002879D068
:100E1000002200230020CF491CF0ACF809B0BDE847
:100E2000F08FCD4B99422FDD524633461BF0C6FD65
:100E300009B0BDE8F08FC94B9C4270DDC84B1F4420
:100E40009F427ED8504631460022C64B1BF0B6FD6D
:100E50004FEA215BABF2FF3BBBF1000F04460D46AE
:100E60000F4640F3E081524633461BF0A5FD024693
:100E70000B460020BB491BF09FFD22462B461CF071
:100E800079F8CDE900010BE0B74B9F42DADD002293
:100E90000023CDE900234FEA275B5446ABF2FF3B2A
:100EA000B24BC7F313079F4247F07F5500F3E7802B
:100EB00045F44015204629460022AA4B1BF07CFD34
:100EC000002204460D46AA4B1BF02AFF22462B4661
:100ED0001BF026FFA246CDE902012E468046894638
:100EE000002F3AD100220023204629461CF080F929
:100EF000002800F0CE80BBF1000F40F0768100208A
:100F0000014695E752463346504631461BF054FDA4
:100F100002460B461CF02EF809B0BDE8F08F002207
:100F2000944B1BF04BFD002200231CF089F9002894
:100F300000F0CC80904B9C4200F3C8805046314674
:100F400076E700228A4B1BF0EBFE524633461BF03D
:100F5000E7FE4FF0000B8046894600224FF08043A9
:100F6000504631461BF02AFD02460B46504631469C
:100F70001CF000F802460B46CDE902231BF0D0FE20
:100F80005DA3D3E9002304460D461BF0C9FE5CA314
:100F9000D3E900231BF012FD22462B461BF0C0FEB6
:100FA00059A3D3E900231BF009FD22462B461BF071
:100FB000B7FE57A3D3E900231BF000FD22462B46C2
:100FC0001BF0AEFE54A3D3E900231BF0F7FC22462E
:100FD0002B461BF0A5FE52A3D3E900231BF0EEFC29
:100FE00022462B461BF09CFE4FA3D3E900231BF0A7
:100FF000E5FC22462B461BF093FE04460D46BBF152
:10100000000F00F0BB8058461BF024FE48A3D3E934
:101010000023CDE904011BF083FE4246CDE9060121
:101020004B46204629461BF0C9FCDDE902231BF094
:1010300077FE41A3D3E9002304460D46DDE9040110
:101040001BF06EFEDDE900231BF0B8FC02460B46E8
:10105000204629461BF0B2FC02460B464046494654
:101060001BF0AAFC524633461BF0A6FC02460B4678
:10107000DDE906011BF0A0FC09B0BDE8F08F45F4E6
:101080000015C7F5801720462946BF100BF1010B4C
:1010900012E72BA3D3E90023204629461BF040FE8C
:1010A00002460B4600202F491BF086FCDDE9022397
:1010B0001BF036FE06460F46BBF1000F6DD102460F
:1010C0000B46204629461BF077FCB1E652463346D4
:1010D000504631461BF024FE0022254B1BF020FE1B
:1010E00002460B46504631461BF066FC09B0BDE88F
:1010F000F08F00BFAFF3008044523EDF12F1C23FD9
:101100009FC678D0099AC33FDE03CB966446C73F9B
:10111000AF788E1DC571CC3F599322942449D23F9C
:1011200004FA97999999D93F935555555555E53FE7
:101130000000E0FE422EE63F763C7935EF39EA3D8D
:10114000555555555555E53F7982DA3FFFFFEF3F3D
:101150000000F0BF000050C3FFFFEF7FFFFF1F3E06
:101160003C412D400000F03FFFFF3F439DA00600A3
:101170000000E03F00005043FFFF8F3C42464B46DB
:101180001BF01CFCDDE902231BF0CAFD02460B46E6
:10119000404649461BF010FCA2E758461BF05AFD9A
:1011A00027A3D3E9002382468B461BF0B9FD26A373
:1011B000D3E9002380468946504659461BF0B0FDCE
:1011C000DDE900231BF0FAFB02460B4630463946A8
:1011D0001BF0F2FB22462B461BF0EEFB02460B46B1
:1011E000404649461BF0E8FB22E658461BF032FD1C
:1011F00015A3D3E9002306460F461BF091FDDDE958
:1012000000231BF0DBFB0EA3D3E9002304460D46AD
:10121000304639461BF084FD02460B4620462946DF
:101220001BF0CCFB04E60022094B1BF0C5FB024679
:101230000B46504631461BF0BFFB1EE6AFF3008065
:101240000000E0FE422EE63F763C7935EF39EA3D7C
:101250000000F03F0000000008B51CF055FE04A39C
:10126000D3E900231BF086FE08BD00BFAFF300806A
:10127000EF39FAFE422EE63F2DE9F043DFF8B48065
:101280008BB004460D4600F06BFF98F90030013337
:1012900006460F462BD022462B46204629461BF0F9
:1012A000D9FF814618BB204629461CF0B3FA1CA37F
:1012B000D3E900231BF0C4FFC8B11B4A98F90030E2
:1012C000CDF820900321CDE90445CDE902458DE814
:1012D00006008BB9154B4FF06042CDE906236846F6
:1012E0001EF0FAF970B1089B9BB9DDE9066730463C
:1012F00039460BB0BDE8F0830D490020022BCDE943
:101300000601ECD11EF038FB22230360089B002B62
:10131000EBD01EF031FB089B0360E6E7AFF30080E3
:101320007DF8B98FCE338640EC250308FFFFEF47E9
:101330000000F07F9A0300202DE9F043DFF8E480FD
:101340008BB004460D4600F0BBFF98F90030013326
:1013500006460F4633D0204629461EF0B7F970B333
:1013600029A3D3E90023204629461BF069FF8146C3
:1013700050BB27A3D3E90023204629461BF042FF98
:10138000E8B198F90030244ACDF8209004260020D6
:101390000021022BCDE90445CDE9024500960192DA
:1013A000CDE9060129D068461EF096F928B3089BBE
:1013B0001BB11EF0E1FA089B0360DDE906673046C9
:1013C00039460BB0BDE8F083134A98F9003001921A
:1013D00003210022CDE90445CDE9024500910892A0
:1013E0002BB90E4B4FF06042CDE90623DBE70C49E9
:1013F0000020022BCDE90601D5D11EF0BDFA222333
:101400000360D4E7AFF30080EF39FAFE422E864046
:1014100051302DD5104987C0F4250308FFFFEF4751
:101420000000F07F9A0300202DE9F84FC44E21F010
:101430000043B3420C4605460DDD03F1404303F57E
:101440008013034340F0B980002940F3408100201D
:101450000021BDE8F88FBB4EB34240F3A6800029BF
:10146000C0F2788102460B460020B7491BF0A4FA6F
:101470000022B64B1BF054FC04460D461DF0E8F963
:1014800095A3D3E9002389468046294620461BF0D0
:1014900047FC93A3D3E900231BF090FA22462B4686
:1014A0001BF03EFC90A3D3E900231BF085FA2246F3
:1014B0002B461BF035FC8EA3D3E900231BF07EFAEC
:1014C00022462B461BF02CFC8BA3D3E900231BF0F8
:1014D00073FA22462B461BF023FC89A3D3E9002391
:1014E0001BF06CFA22462B461BF01AFC86A3D3E9AC
:1014F000002382468B46204629461BF011FC84A31C
:10150000D3E900231BF058FA22462B461BF008FCB7
:1015100081A3D3E900231BF051FA22462B461BF08E
:10152000FFFB7FA3D3E900231BF046FA22462B469C
:101530001BF0F6FB0022844B1BF040FA02460B46E0
:10154000504659461BF016FD42464B461BF0E8FB41
:10155000002682468B4632464B46304649461BF0B3
:10156000DFFB02460B46204629461BF025FA324691
:1015700004460D464B46404649461BF01FFA0246BC
:101580000B46204629461BF0F5FC02460B4650460A
:1015900059461BF013FA32464B461BF00FFA02462F
:1015A0000B461BF00BFABDE8F88F694A93420EDC3C
:1015B0005DA1D1E90001BDE8F88F02460B461BF0A2
:1015C000FBF902460B461BF0D5FCBDE8F88F02463E
:1015D0000B461BF0A5FB40A3D3E9002306460F46AC
:1015E0001BF09EFB3EA3D3E900231BF0E7F9324634
:1015F0003B461BF095FB3CA3D3E900231BF0DCF931
:1016000032463B461BF08CFB39A3D3E900231BF089
:10161000D5F932463B461BF083FB37A3D3E90023C1
:101620001BF0CAF932463B461BF07AFB34A3D3E9E0
:1016300000231BF0C3F932463B461BF071FB32A37B
:10164000D3E9002380468946304639461BF068FBC3
:101650002FA3D3E900231BF0AFF932463B461BF022
:101660005FFB2DA3D3E900231BF0A8F932463B46CC
:101670001BF056FB2AA3D3E900231BF09DF9324649
:101680003B461BF04DFB00222F4B1BF097F9024607
:101690000B46404649461BF06DFC2A4623461BF08C
:1016A0003FFB02460B4622A1D1E900011BF084F961
:1016B00002460B46284621461BF07EF902460B46A1
:1016C00019A1D1E900011BF077F9BDE8F88F1AA143
:1016D000D1E90001BDE8F88F09F7FD0DE13D023FBA
:1016E00088B20175E0EF493F3B8F68B52882A43F7F
:1016F0005544880E55C1C93F7D6FEB0312D6D43FC8
:10170000555555555555C53F82922EB1C5B8B33F75
:1017100059018D1B6C06E63FC88A599CE52A00409A
:101720004B2D8A1C273A0340182D4454FB21F93FC6
:10173000075C143326A6913C182D4454FB21094024
:10174000FFFFEF3FFFFFDF3F0000F03F0000E03F03
:101750000000603C00225C4B1BF030F900225B4B28
:101760001BF0DEFA40A3D3E9002304460D461BF02C
:10177000D7FA3FA3D3E900231BF020F922462B46DA
:101780001BF0CEFA3CA3D3E900231BF015F9224647
:101790002B461BF0C5FA3AA3D3E900231BF00EF940
:1017A00022462B461BF0BCFA37A3D3E900231BF0DB
:1017B00003F922462B461BF0B3FA35A3D3E90023E5
:1017C0001BF0FCF822462B461BF0AAFA80468946FD
:1017D000204629461DF03CF82FA3D3E900230646F6
:1017E0000F46204629461BF09BFA2DA3D3E9002380
:1017F0001BF0E2F822462B461BF092FA2AA3D3E90B
:1018000000231BF0DBF822462B461BF089FA28A3A5
:10181000D3E900231BF0D0F822462B461BF080FAB8
:101820000022294B1BF0CAF802460B4640464946A7
:101830001BF0A0FB32463B461BF072FA1EA3D3E915
:1018400000231BF0B9F832463B461BF0B7F80246BE
:101850000B461BF0B3F802460B4619A1D1E9000173
:101860001BF0AAF8BDE8F88F09F7FD0DE13D023F36
:1018700088B20175E0EF493F3B8F68B52882A43FED
:101880005544880E55C1C93F7D6FEB0312D6D43F36
:10189000555555555555C53F82922EB1C5B8B33FE4
:1018A00059018D1B6C06E63FC88A599CE52A004009
:1018B0004B2D8A1C273A0340075C143326A6913C23
:1018C000182D4454FB2109400000F03F0000E03F88
:1018D000434A91422DE9F8430C46054639DD414A19
:1018E000914209DD02F17952914240DD02460B46F8
:1018F0001BF064F8BDE8F88301F1404202F5801264
:10190000024330D0B1F1804F3ADC0022364B1BF05D
:1019100053F802460B4604460D461BF04FF822468C
:1019200006460F462B46204629461BF0F9F902468B
:101930000B46304639461BF041F81CF089FF0B4638
:101940000246294620461BF039F8BDE8F843FFF768
:101950004BBA02460B461BF02FF802460B461BF013
:1019600009FBBDE8F88300200021BDE8F88300F002
:101970001FFE19A3D3E900231BF020F8BDE8F8836C
:1019800002460B461BF0CCF90022174B1BF014F853
:101990001CF05EFF2A46804689462346284621469B
:1019A0001BF00CF8424606460F464B462846214699
:1019B0001BF004F802460B4600200B491BF0DAFA34
:1019C0000B460246394630461AF0F6FFBDE8F843AA
:1019D00000F0EEBDAFF30080EF39FAFE422EE63F95
:1019E000FFFFEF3FFFFFAF410000F03F00000000AE
:1019F0002DE9F047C44B21F00048984584B00D46CE
:101A0000044616DD08F1404808F58018034658EAF8
:101A1000030326D002460B461AF0CEFF0B460246C1
:101A20001BF0A8FA04460B462046194604B0BDE850
:101A3000F087B64B98458A462EDCB8F1795F80F284
:101A40006D8195A3D3E900231AF0B8FF0022B04BB3
:101A50001BF0F6FB00B32B462046194604B0BDE848
:101A6000F0878FA3D3E900231BF05AF98EA3D3E9A3
:101A7000002306460F46204629461BF051F9024630
:101A80000B46304639461AF099FF04460B4620466D
:101A9000194604B0BDE8F087204629461BF0BAFE7F
:101AA00002460B4600209A491AF086FF0022994B05
:101AB0001BF036F97EA3D3E9002304460D461BF044
:101AC0002FF97DA3D3E900231AF078FF22462B4695
:101AD0001BF026F97AA3D3E900231AF06DFF224602
:101AE0002B461BF01DF978A3D3E900231AF066FFFB
:101AF00022462B461BF014F975A3D3E900231AF0F4
:101B00005BFF22462B461BF00BF973A3D3E900239E
:101B10001AF054FF22462B461BF002F970A3D3E9BA
:101B20000023CDE90001204629461BF0F9F86EA3F9
:101B3000D3E900231AF040FF22462B461BF0F0F8B1
:101B40006BA3D3E900231AF039FF22462B461BF082
:101B5000E7F869A3D3E900231AF02EFF22462B46AB
:101B60001BF0DEF86A4B00221AF028FFCDE90201D3
:101B7000204629461CF06CFE674B984506460F46EA
:101B800067DCDDE90223DDE900011BF0F3F93246F1
:101B9000CDE900013B46304639461AF00FFF0246B8
:101BA0000B46DDE900011BF0BBF84FF00008CDE962
:101BB000000142463B46404639461BF0B1F802461A
:101BC0000B46204629461AF0F7FE424604460D46CB
:101BD0003B46304639461AF0F1FE02460B46204697
:101BE00029461BF0C7F902460B461AF0E7FE0246EB
:101BF0000B462DA1D1E900011AF0DEFE02460B468C
:101C0000DDE900011AF0D8FE424604460D463B4687
:101C1000404639461AF0D2FE02460B4638A1D1E9B9
:101C200000011AF0C9FE02460B46204629461AF06A
:101C3000C3FE0B46024632A1D1E900011AF0BCFEF8
:101C400004460B46BAF1000F3FF7EEAE03F1004336
:101C5000EAE6DDE90223DDE900011BF08BF93246FB
:101C60003B461BF05DF832463B461AF0A7FE0246A3
:101C70000B461AF0A3FE0CA3D3E900231AF09CFE36
:101C80000B46024606A1D1E900011AF095FE044672
:101C90000B46D7E7AFF300809C7500883CE4377EA5
:101CA000182D4454FB21F93F075C143326A6913CC0
:101CB00009F7FD0DE13D023F88B20175E0EF493FB4
:101CC0003B8F68B52882A43F5544880E55C1C93F53
:101CD0007D6FEB0312D6D43F555555555555C53F2D
:101CE00082922EB1C5B8B33F59018D1B6C06E63FF9
:101CF000C88A599CE52A00404B2D8A1C273A03408C
:101D0000182D4454FB21E93FFFFFEF3FFFFFDF3F6A
:101D10000000F03F0000E03F3233EF3F02460B4649
:101D20001AF0FEFF38A3D3E9002306460F461AF047
:101D3000F7FF37A3D3E900231AF040FE32463B46B3
:101D40001AF0EEFF34A3D3E900231AF035FE324631
:101D50003B461AF0E5FF32A3D3E900231AF02EFE2A
:101D600032463B461AF0DCFF2FA3D3E900231AF0DA
:101D700023FE32463B461AF0D3FF2DA3D3E90023BE
:101D80001AF01CFE32463B461AF0CAFF2AA3D3E9DA
:101D9000002380468946304639461AF0C1FF28A301
:101DA000D3E900231AF008FE32463B461AF0B8FF8A
:101DB00025A3D3E900231AF001FE32463B461AF070
:101DC000AFFF23A3D3E900231AF0F6FD32463B46CA
:101DD0001AF0A6FF0022204B1AF0F0FD02460B4637
:101DE000404649461BF0C6F822462B461AF098FF9B
:101DF00022462B461AF0E2FD04460B4620461946C1
:101E000004B0BDE8F08700BF09F7FD0DE13D023FDA
:101E100088B20175E0EF493F3B8F68B52882A43F47
:101E20005544880E55C1C93F7D6FEB0312D6D43F90
:101E3000555555555555C53F82922EB1C5B8B33F3E
:101E400059018D1B6C06E63FC88A599CE52A004063
:101E50004B2D8A1C273A03400000F03F0000000091
:101E60002DE9F84F5442144323F00049704E49EADB
:101E7000D474B44286460F4640D84442044321F00D
:101E8000004B4BEAD474B4428A4637D803F140443D
:101E900004F5801414434AD09C1704F0020444EA69
:101EA000D17450EA0B0131D052EA090137D0B14563
:101EB00052D0B34533D0ABEB09094FEA2959B9F1F8
:101EC0003C0F3BDC002B66DB704639461BF052F8BA
:101ED0001BF0A0FCFEF7C8FC012C58D0022C48D007
:101EE000002C5ED040A3D3E900231AF065FD40A387
:101EF000D3E900231AF060FDBDE8F88F10461946BB
:101F000072463B461AF05AFDBDE8F88F022C19D0F4
:101F1000032C10D138A1D1E90001BDE8F88FBAF146
:101F2000000F14DB36A1D1E90001BDE8F88FBDE850
:101F3000F84FFEF799BC3946BDE8F88F30A1D1E9DA
:101F40000001C9E72AA1D1E90001BDE8F88F2EA15F
:101F5000D1E90001BDE8F88FCB4524D0022CF1D0A7
:101F6000032CD7D0012C4FF0000027D00021BDE872
:101F7000F88F1DA3D3E900231AF01EFD02460B467D
:101F80001BA1D1E900011AF017FDBDE8F88F01F19E
:101F90000041BDE8F88F19F13C0F95DA00200021CF
:101FA0009AE7BDE8F88F022C16D0032C0FD0012C35
:101FB00008D017A1D1E90001BDE8F88F4FF000412A
:101FC000BDE8F88F14A1D1E90001BDE8F88F14A194
:101FD000D1E90001BDE8F88F13A1D1E90001BDE806
:101FE000F88F00BFAFF30080075C143326A6A13C36
:101FF000182D4454FB210940182D4454FB2109C0DD
:10200000182D4454FB21F93F182D4454FB21F9BFEE
:10201000182D4454FB21E93F182D4454FB21E9BFFE
:10202000D221337F7CD902C0D221337F7CD90240B8
:102030000000F07F0000000043422DE9F047034319
:1020400021F00048424A48EAD373934206460F46BD
:1020500016D890454BD03F4B98458A461EDC3AA394
:10206000D3E9002304461AF0A9FC002200231BF048
:10207000E7F8002845D03B4620461946BDE8F087E2
:1020800002460B461AF098FC0B4602461AF072FF05
:1020900004460B4620461946BDE8F0872E4B98456E
:1020A000044645462FDD0246434641461AF086FC6B
:1020B000224606460F464346002025491AF07CFC7E
:1020C00002460B46304639461AF054FFFEF78CFEA6
:1020D000224B00221AF024FEBAF1000F04460B46F0
:1020E000D8DA01F1004320461946BDE8F087002206
:1020F00000231AF03FFF04460B4620461946BDE870
:10210000F0873446454622462B46204629461AF09B
:1021100055FC22462B4606460F461AF001FE224683
:10212000804689462B46002009491AF045FC0246A4
:102130000B46404649461AF01DFF32463B461AF010
:102140003DFCC3E7AFF300809C7500883CE4377E1C
:102150000000F03FFFFF2F3EFFFFDF3F0000E03FAA
:102160004F4A2DE9F84321F0004494420B460546BE
:102170001BDC4C4A944222DD4B4A944263DD4B4ABD
:1021800094427BDD4A4A944246DD0132944240D07B
:1021900041A3D3E90023104619461AF0C1FD0646B3
:1021A0000F4630463946BDE8F88302460B461AF022
:1021B000B7FD06460F4630463946BDE8F8831BF0AA
:1021C00029FB02F0A9FC00223A4B804689461AF00E
:1021D000F5FBB4F1725F06460F46ECDB42464B4618
:1021E000404649461AF09CFD32463B4604460D46A1
:1021F000304639461AF0E2FB02460B462046294695
:102200001AF0B8FE00222B4B1AF0D8FB06460F46F8
:10221000D1E7294A9042BBD8284619461BF0FAFA62
:102220000022264B1AF07CFD00F04AF800220446FA
:102230000D46224B1AF074FD22462B461AF070FD13
:1022400006460F46B7E71BF0E5FA00F039F8002222
:102250001A4B06460F461AF063FD32463B460446CB
:102260000D46002015491AF085FE02460B46204611
:1022700029461AF0A3FB06460F469CE71BF0CAFA54
:1022800000F01EF800220D4B1AF04AFD06460F46DC
:1022900091E700BFAFF300809C7500883CE4377E77
:1022A000FFFFEF7F422ED63FFFFF3540412E864095
:1022B000CD3386400000F03F7DF8B98F0000E03F4D
:1022C0002DE9F04FB04F21F00042BA4283B00C46E6
:1022D0004FEAD17605460DD9AC4FBA4225D9C1F3A4
:1022E0001303034340F0EF800EB10020014603B01A
:1022F000BDE8F08FA64B9A4200F2CC80A54B9A42E3
:1023000000F2DE808AA3D3E900231AF057FB0022F3
:10231000A14B1AF095FF002800F0058128462146C0
:1023200000229D4B1AF04AFBE1E783A3D3E9002387
:102330001AF086FF002840F0CB802846214680A373
:10234000D3E900231AF05EFF0028CED1934B284634
:1023500003EBC60621467CA3D3E900231AF0E0FC78
:10236000D6E900231AF02AFB1AF08AFF80461AF0F9
:1023700071FC77A3D3E9002306460F461AF0D0FC80
:1023800002460B46284621461AF016FB72A3D3E9F3
:102390000023CDE90001304639461AF0C1FC8246DF
:1023A0008B4652465B46DDE900011AF005FB054607
:1023B0000C462A462346284621461AF0B1FC68A35B
:1023C000D3E9002306460F461AF0AAFC66A3D3E918
:1023D00000231AF0F1FA32463B461AF0A1FC64A33E
:1023E000D3E900231AF0EAFA32463B461AF098FC89
:1023F00061A3D3E900231AF0DFFA32463B461AF014
:102400008FFC5FA3D3E900231AF0D8FA32463B468B
:102410001AF086FC02460B46284621461AF0CCFAF2
:1024200006460F462846214632463B46B8F1000F85
:1024300056D01AF075FC324604460D463B46002045
:102440004FF080411AF0B8FA02460B462046294662
:102450001AF090FD02460B46504659461AF0ACFA67
:10246000DDE900231AF0A8FA0B4602464A4900208B
:102470001AF0A2FA6FF47F7398454FDA08F57A786C
:1024800001EB085100224FF0B8731AF049FC03B079
:10249000BDE8F08F424B9A423FF658AF414BF400F3
:1024A0002344D3E900231AF087FA3F4BC6F1010811
:1024B0002344CDE90001D3E900ABA8EB060870E79F
:1024C0004FF0000875E702460B461AF077FA0EE760
:1024D00017A3D3E90023104619461AF021FC06E79A
:1024E0001AF01EFC0022804689464FF08043304699
:1024F00039461AF061FA02460B46404649461AF040
:1025000039FD2A4623461AF057FA02460B460020A8
:1025100021491AF051FA03B0BDE8F08F01EB0851E0
:1025200003B0BDE8F08F804643E700BFAFF3008003
:102530009C7500883CE4377EEF39FAFE422E8640D7
:1025400051302DD5104987C0FE822B654715F73FC6
:102550000000E0FE422EE63F763C7935EF39EA3D59
:10256000D0A4BE726937663EF16BD2C541BDBB3E99
:102570002CDE25AF6A56113F93BDBE166CC1663F77
:102580003E5555555555C53F412E8640FFFFEF7FBF
:10259000422ED63FFFFF2F3E0000F03F180A0308EF
:1025A000B1A2F03F280A0308380A0308000000001F
:1025B0002DE9F04FB1F5801F85B006460F460B465A
:1025C0005ADA024621F00044224300F0F880002944
:1025D000C0F27A810022D64B1AF0A2FBD54A0B46F4
:1025E000934206460F466FF0350C4ADCC3F31305E1
:1025F00005F5152E0EF6647E0EF4801E8EF07F52C9
:1026000082F440121C1542EA0507A4F2FF34644428
:102610000022C94B3046394604EB1E541AF0CCF95F
:10262000AB1CC3F31303022B82468B464FF0000210
:1026300030DC00231AF0DCFD002800F0C980002CFB
:1026400000F04B8120461AF005FBA5A3D3E9002337
:1026500006460F461AF064FBA3A3D3E90023044601
:102660000D46304639461AF05BFB02460B462046C3
:1026700029461AF0A3F90AE0AE4A93424FF0000C43
:10268000B4DD32463B46304639461AF097F905B07C
:10269000BDE8F08F4FF080431AF090F902460B46E8
:1026A000504659461AF066FC064620460F461AF078
:1026B000D1FA3246CDE900013B4630463946CDE9F4
:1026C00002671AF02DFB02460B46804689461AF037
:1026D00027FB87A3D3E9002306460F461AF020FB09
:1026E00085A3D3E900231AF069F932463B461AF074
:1026F00017FB83A3D3E900231AF060F932463B4667
:102700001AF00EFB80A3D3E900231AF057F94246D2
:102710004B461AF005FB7EA3D3E900238046894689
:10272000304639461AF0FCFA7BA3D3E900231AF0AD
:1027300045F932463B461AF0F3FA79A3D3E9002370
:102740001AF03CF932463B461AF0EAFA0B460246CA
:10275000494640461AF032F9A5F5C223C5F5D725FA
:10276000A3F27A4351351D43002D8046894656DD3C
:102770000022724B504659461AF0D2FA52465B4636
:102780001AF0CEFA06460F46002C68D132463B4678
:10279000404649461AF012F9DDE902231AF0C0FA60
:1027A00002460B46304639461AF006F902460B46F9
:1027B000504659461AF000F905B0BDE8F08F0022E6
:1027C000002300205E491AF0D5FB05B0BDE8F08F6C
:1027D00055A3D3E90023504659461AF0A1FA024600
:1027E0000B46002055491AF0E7F8524606460F46B8
:1027F0005B46504659461AF093FA02460B4630465D
:1028000039461AF08DFA06460F46002C40F09A80A1
:1028100002460B46504659461AF0CEF837E7002CD0
:1028200000F0A4802EA3D3E90023DDE900011AF013
:1028300077FA42464B4604460D46504659461AF032
:10284000BBF8DDE902231AF06BFA27A3D3E90023D2
:1028500006460F46DDE900011AF062FA21E020A3E6
:10286000D3E90023DDE900011AF05AFA32463B466B
:1028700004460D46404649461AF0A0F8DDE9022319
:102880001AF04EFA18A3D3E9002380468946DDE901
:1028900000011AF045FA02460B46404649461AF036
:1028A0008DF802460B46304639461AF085F85246F6
:1028B0005B461AF081F802460B46204629461AF07C
:1028C0007BF805B0BDE8F08F02460B461AF074F8AD
:1028D000002200231AF04EFBD9E600200021D6E6A4
:1028E0000000E0FE422EE63F763C7935EF39EA3DC6
:1028F00044523EDF12F1C23FDE03CB966446C73F2F
:10290000599322942449D23F935555555555E53F47
:102910009FC678D0099AC33FAF788E1DC571CC3F52
:1029200004FA97999999D93F555555555555D53F1D
:1029300000005043FFFFEF7F0000F03F0000E03F4A
:10294000000050C320461AF085F90FA3D3E90023F5
:10295000804689461AF0E4F90DA3D3E90023044622
:102960000D46404649461AF0DBF99AE702460B4607
:10297000504659461AF020F8DDE902231AF0D0F942
:1029800014E700BFAFF300800000E0FE422EE63FF8
:10299000763C7935EF39EA3DB1F5801F2DE9F843F2
:1029A00004460D460B461ADA024621F00046324331
:1029B00059D000295FDB00223B4B1AF0B1F93B4AAA
:1029C0000B4693420D4604466FF035010CDD22465E
:1029D0002B462046294619F0F1FFBDE8F883334A1B
:1029E00093424FF00001F2DC1815A0F2FF300844CA
:1029F0004FEAD0794844C3F313081AF02BF9C9F50C
:102A00007F73033348EA035506460F46204629469E
:102A1000FFF7CEFD1EA3D3E900238046894630464A
:102A200039461AF07DF91CA3D3E9002304460D466C
:102A3000404649461AF074F902460B46204629469C
:102A400019F0BCFF16A3D3E9002304460D46304617
:102A500039461AF065F902460B462046294619F018
:102A6000ADFFBDE8F88300220023002010491AF0D2
:102A700081FABDE8F88302460B4619F09DFF00225B
:102A800000231AF077FABDE8F88300BFAFF30080A7
:102A9000362BF111F3FE593D0EE526157BCBDB3FBE
:102AA00000609F501344D33F00005043FFFFEF7F6F
:102AB000000050C3000000002DE9F04F23F0004754
:102AC00057EA020493B037D0674C21F00046A64283
:102AD00083460D4629DC9A46964625D0A74224DC3B
:102AE000614CA74279D0002D89468046CDE900236C
:102AF00077DB0024BEF1000F2CD15B4B9F4200F02E
:102B00008B805A4B9F4261D0BAF1804F00F0BA835C
:102B1000574B9A451ED1002D1CDB4046494613B049
:102B2000BDE8F04F1BF094BE58B106F1404606F5E3
:102B3000801656EA0B0306D14C49002013B0BDE8BD
:102B4000F08FB742CCDD4B4813B0BDE8F04F1CF01E
:102B5000C5BD0024404649461AF05CFEBBF1000F9B
:102B600019D126B1414B25F040429A4213D1BAF116
:102B7000000FC0F2BC83002DE0DA06F1404606F5F6
:102B8000801656EA040300F08F84012CD6D101F19F
:102B900000431946D2E7ED0F013D54EA05034ED03C
:102BA000354B9F426EDD03F104739F4240F3E8838F
:102BB000324B9E424EDDBAF1000F4EDD28A3D3E921
:102BC0000023104619461AF0ABF8B7E7BAF1000F28
:102BD000C0F23C8440464946B0E7BEF1000F82D0C7
:102BE000A3E7274B9F4228DCA3F154739F4280DD6B
:102BF0003B15A3F2FF33142B40F33E84C3F134039F
:102C00002EFA03F202FA03F39E457FF472AF02F04C
:102C10000102C2F102046DE706F1404303F580139F
:102C200053EA0B0388D0154B9E4240F33283BAF12E
:102C3000000F12DBDDE9000180E702245AE742467B
:102C40004B464046494619F0B7FE02460B461AF07D
:102C500091F973E7BAF1000FB0DB002000216DE7B6
:102C60009C7500883CE4377E0000F07F0000F03F58
:102C70000000E03F5C1303080000E041FFFFEF3F6E
:102C8000FFFF3F43B6F5801F4FF0000205DAD44B3B
:102C90001AF046F86FF034020E463315D14FC6F3E2
:102CA0001306A3F2FF33134446F07F5ABE421A467E
:102CB0000D934AF4401A40F32183CB4B9E4240F3DC
:102CC000FD83134601330D93C84B0022CDE9062343
:102CD00000270026CDE90867CDE90E67AAF5801A1E
:102CE0000027024653465146CDE90A23DDE9062373
:102CF00019F062FEDDE9062380468946DDE90A0116
:102D000019F05CFE02460B460020B8491AF032F971
:102D10000A460146CDE9101213464946024640468E
:102D200019F0FEFF4FEA6A0343F000538C468346D6
:102D300003F50023CDE904BCDA468B46D9190023FC
:102D4000CDE902AB0293DDE902AB002006460F4657
:102D500002460B465046594619F0E2FF02460B4622
:102D60004046494619F028FEDDE90623804689469B
:102D70003046394619F020FE02460B46DDE90A01CD
:102D800019F01AFE52465B4619F0CAFF02460B467E
:102D90004046494619F010FEDDE9102319F0C0FF46
:102DA000DDE90467CDE9060132463B463046394647
:102DB00019F0B6FF78A3D3E9002306460F4619F0B1
:102DC000AFFF77A3D3E9002319F0F8FD32463B4665
:102DD00019F0A6FF74A3D3E9002319F0EFFD3246E2
:102DE0003B4619F09DFF72A3D3E9002319F0E6FDDD
:102DF00032463B4619F094FF6FA3D3E9002319F044
:102E0000DDFD32463B4619F08BFF6DA3D3E900236D
:102E100019F0D4FD3246804689463B463046394655
:102E200019F07EFF02460B464046494619F078FFEE
:102E3000524606460F465B46DDE9040119F0BEFD29
:102E4000DDE9062319F06CFF32463B4619F0B6FD6A
:102E50005246804689465B465046594619F060FF07
:102E60000022634BCDE90A0119F0A8FD42464B460A
:102E700019F0A4FD02980F46064632463B465046DE
:102E8000594619F04DFF002282468B46584B30467A
:102E9000394619F091FDDDE90A2319F08DFD02464E
:102EA0000B464046494619F087FDDDE9042319F039
:102EB00037FF3246804689463B46DDE9060119F078
:102EC0002FFF02460B464046494619F077FD8046E3
:102ED000894602460B4650465946CDE904AB19F0E7
:102EE0006DFDDDE902AB38A3D3E9002350460F4660
:102EF00019F016FFDDE90423CDE9020139465046F9
:102F000019F05AFD02460B464046494619F054FD59
:102F10002FA3D3E9002319F003FF2FA3D3E9002344
:102F2000804689465046394619F0FAFE02460B465D
:102F30004046494619F042FDDDE90E2319F03EFDF9
:102F400080460D98894619F085FE424606460F4692
:102F50004B46DDE9020119F031FDDDE9082319F0E6
:102F60002DFD32463B4619F029FD32463B46504680
:102F70008B4619F021FDDDE9082319F01DFDDDE97F
:102F8000022319F019FD02460B464046494619F046
:102F900013FD80462EE000BFEF4E454A287ECA3F13
:102FA00065DBC9934A86CD3F01411DA96074D13FBD
:102FB0004D268F515555D53FFFAB6FDBB66DDB3FCF
:102FC000033333333333E33F000000E009C7EE3F00
:102FD000FD033ADC09C7EE3FF5015B14E02F3EBE6E
:102FE000000040438E98030079B60B000000F03FCC
:102FF000000008408946013C54EA0503DDE9000170
:1030000014BFD94CD94C0023CDE9043403460C46F7
:10301000CDE9023400230293DDE9024522462B4626
:1030200019F0CAFC52465B4619F07AFEDDE900232E
:1030300006460F464046494619F072FE02460B46C8
:103040003046394619F0BAFC2246804689462B465E
:1030500050465946CDE9008919F062FE0B460246FA
:1030600006460F464046494619F0A8FCC04B994217
:1030700004460D468A4640F3168101F13F4303F5AD
:10308000E003034340F0EA81A3A3D3E90023DDE991
:10309000000119F093FC3246804689463B462046A3
:1030A000294619F089FC02460B46404649461AF06B
:1030B000C7F8002840F0D281A8464FEA28534FF4C1
:1030C0008012A3F2FE3342FA03F35344C3F30A52CD
:1030D000A84DA2F2FF321541C3F3130423EA050100
:1030E0000020C2F1140B44F48014BAF1000F024620
:1030F0000B4644FA0BFB30463946B8BFCBF1000B08
:1031000019F05AFC02460B4606460F46DDE900015F
:1031100019F054FC4FEA0B5A0D46002480A3D3E962
:1031200000232046294619F0FBFD32468046894699
:103130003B462046294619F03FFC02460B46DDE996
:10314000000119F039FC78A3D3E9002319F0E8FD58
:1031500077A3D3E9002306460F462046294619F0F7
:10316000DFFD02460B463046394619F027FC06467D
:103170000F4602460B464046494619F01FFC4246A0
:103180004B4604460D4619F017FC02460B463046E6
:10319000394619F011FC2246804689462B462046C6
:1031A000294619F0BDFD64A3D3E9002306460F4666
:1031B00019F0B6FD62A3D3E9002319F0FDFB3246F6
:1031C0003B4619F0ADFD60A3D3E9002319F0F6FBEF
:1031D00032463B4619F0A4FD5DA3D3E9002319F064
:1031E000EBFB32463B4619F09BFD5BA3D3E9002382
:1031F00019F0E4FB32463B4619F092FD02460B46BD
:103200002046294619F0D8FB06460F4602460B46D3
:103210002046294619F084FD0022CDE900014FF037
:1032200080433046394619F0C7FB02460B46DDE9BC
:10323000000119F09FFE424606460F464B462046C7
:10324000294619F06DFD42464B4619F0B7FB024680
:103250000B463046394619F0AFFB22462B4619F093
:10326000ABFB02460B4600203F4919F0A5FB8A4400
:10327000BAF5801FC0F233815146DDE9042319F00D
:103280004FFD5BE4424640464B46494619F048FD37
:1032900054E4BAF1000FBFF6E0ACDDE900341846A3
:1032A00004F100414AE4344B21F00048984540F3D2
:1032B000F280324B0B4403430CD132463B4619F0AB
:1032C0007BFB02460B46DDE9000119F0A5FF002853
:1032D0003FF4F3AEDDE9040121A3D3E9002319F0A3
:1032E0001FFD1FA3D3E9002319F01AFD26E40246AF
:1032F0000B4600201C4919F03DFE3CE4002200234F
:10330000CDE90823CDE90E23174B00220027CDE994
:103310000623E6E4AFF30080FE822B654715973C59
:1033200000000000432EE63FEF39FAFE422EE63F52
:10333000396CA80C615C20BED0A4BE726937663EB1
:10334000F16BD2C541BDBB3E2CDE25AF6A56113FA5
:1033500093BDBE166CC1663F3E5555555555C53F8C
:1033600059F3F8C21F6EA5010000F03F0000F0BF46
:10337000FFFF8F40FFFF0F00FFCB904000346F3FF7
:103380006B4B9E427FF766AC6A4B9E423FF713AC95
:103390000022684B19F010FB57A3D3E9002306461F
:1033A0000F4619F0BDFC56A3D3E900238046894699
:1033B0003046394619F0B4FC002282468B465E4BFB
:1033C0003046394619F0ACFC02460B464EA1D1E915
:1033D000000119F0F1FA32463B4619F0A1FC024611
:1033E0000B460020554919F0E7FA3246CDE90201B3
:1033F0003B463046394619F093FC02460B46DDE960
:10340000020119F08DFC42A3D3E9002319F088FCD6
:1034100002460B465046594619F0CEFA02460B4674
:1034200006460F464046494619F0C8FA42464B4602
:10343000002082468B4619F0BFFA02460B46304602
:10344000394619F0B9FA80468946D4E542464B46DA
:103450000020384919F08EFDFFF770BBDDE904014B
:103460002DA3D3E9002319F05BFC2BA3D3E90023A0
:1034700019F056FCFFF762BBBEF1000F7FF469AB99
:10348000C3F1140347FA03F202FA03F39F422AD06E
:103490007446FFF736BB294B98453FF70EAEDDE982
:1034A00002239246934638E602460B4619F084FA08
:1034B00002460B4619F05EFDFFF740BB18A3D3E9A7
:1034C0000023CDE9082318A3D3E90023CDE90E2377
:1034D0001B4B00224FF48027CDE9062301E45A4616
:1034E00001F05AFDC9E602F00102C2F10204FFF741
:1034F00008BB00BFAFF30080000000604715F73F36
:1035000044DF5DF80BAE543E555555555555D53FE6
:10351000FE822B654715F73F9C7500883CE4377E9B
:103520000000004003B8E23F06D0CF43EBFD4C3E25
:10353000FEFFEF3F0000F03F0000D03F0000E03F03
:103540000000F83F000000002DE9F04F9A4E21F0F6
:103550000047B74291B040F38E809246974A974217
:103560000C4626DC00298AA3D3E9002340F3B4816A
:1035700019F022FA924B9F4204460D4600F09080CB
:1035800085A3D3E9002319F017FA02460B46CAE9CE
:1035900000232046294619F00FFA7FA3D3E9002320
:1035A00019F00AFA0125CAE90201284611B0BDE85E
:1035B000F08F844A974240F39080834A974265DCBB
:1035C0003D15A5F21645A7EB055319461F460646BD
:1035D00019F056FE19F03EFB8046894602460B461E
:1035E00030463946CDE90A8919F0E6F90022774BD1
:1035F00019F096FB8946804619F042FE19F02AFB25
:1036000002460B4606460F4640464946CDE90C6742
:1036100019F0D2F900226D4B19F082FB0022002331
:10362000CDE90E0119F0E4FD002800F073810023BC
:1036300030463946002219F0DBFD002814BF012373
:103640000223634A019202212A4600910AA85146A8
:1036500000F086FB002C054614DADAF80420DAF8CC
:103660000C3002F1004203F100434542CAF8042045
:10367000CAF80C3006E0C2E9000100250024C2E9C6
:1036800002450025284611B0BDE8F08F02460B46E2
:1036900019F092F90025CAE90201CAE90001F1E72F
:1036A0003FA3D3E9002319F087F93FA3D3E900230F
:1036B0000D46044619F080F902460B46CAE900237C
:1036C0002946204619F078F937A3D3E9002319F0E9
:1036D00073F90125CAE90201D4E71AF09BF834A373
:1036E000D3E900238046894619F01AFB0022394BA2
:1036F00019F064F919F0C4FD054619F0ABFA24A3DA
:10370000D3E90023CDE9040119F00AFB02460B4678
:103710004046494619F050F91FA3D3E900238046DB
:103720008946DDE9040119F0FBFA1F2DCDE90201FC
:1037300054DC294B6A1E53F822309F424ED0024679
:103740000B464046494619F037F902460B46CAE98E
:10375000002383460E465A4633464046494619F0F2
:103760002BF9DDE9022319F027F9002C02460B465C
:10377000CAE9022386DA5B4606F1004601F1004100
:103780008AE84800CAF80C10CAF808006D4279E7C8
:1037900000004054FB21F93F3163621A61B4D03D0F
:1037A0000000601A61B4D03D7370032E8A19A33BE8
:1037B00083C8C96D305FE43FFB21E93F7BD90240FC
:1037C000FB21F93FFB213941FFFFEF7F00007041F2
:1037D000A82603080000E03F28260308DDE90223AD
:1037E0004046494619F0E8F83A15C1F30A53D31A8E
:1037F000102B83460E460992CAE90001ABDD58A39F
:10380000D3E90023DDE9040119F08AFA06460F46E0
:1038100002460B464046494619F0CEF8CDE906016E
:1038200002460B464046494619F0C6F832463B462A
:1038300019F0C2F84CA3D3E9002306460F46DDE990
:10384000040119F06DFA32463B4619F0B5F8DDE98E
:103850000689CDE9020102460B464046494619F069
:10386000ABF80B46C1F30A570E460999CF1B024627
:10387000312F8346CAE900236CDD3DA3D3E9002341
:10388000DDE9040119F04CFA06460F4602460B46E4
:1038900040464946CDE9068919F08EF802460B46A6
:1038A00080468946DDE9060119F086F832463B4636
:1038B00019F082F830A3D3E9002306460F46DDE96C
:1038C000040119F02DFA32463B4619F075F802460C
:1038D0000B46CDE9022334E719F070F82A4B9F42DA
:1038E00004460D4618D026A3D3E9002319F066F844
:1038F00002460B46CAE900232946204619F05CF827
:103900001FA3D3E9002319F059F84FF0FF35CAE996
:103910000201B7E6032394E611A3D3E9002319F0CB
:103920004DF811A3D3E900230D46044619F046F8DB
:1039300002460B46CAE900232946204619F03CF806
:1039400009A3D3E9002319F039F84FF0FF35CAE98C
:10395000020197E6DDE90689FDE600BFAFF30080CE
:103960000000601A61B4D03D7370032E8A19A33B26
:103970000000002E8A19A33BC14920259A837B3978
:103980003163621A61B4D03DFB21F93F00000000B1
:10399000574A2DE9F84F21F0004890450E4607465A
:1039A0002BDC544B0029B4BF534D544D98454FF078
:1039B000000410DC524B98456EDC4BA3D3E9002386
:1039C00018F0FCFF00224F4B19F03AFCD8B13846F2
:1039D0003146BDE8F88F4C4B984579DD4B4B984507
:1039E00043DD013398453DD0384631463EA3D3E907
:1039F000002319F095F9BDE8F88F02460B4618F040
:103A0000DDFFBDE8F88F3846314619F003FF01F0BD
:103A100083F806460F4632463B463046394618F094
:103A2000CDFF324682468B463B463046394619F03A
:103A300077F9002280468946324B3046394618F0E5
:103A4000BDFF02460B464046494619F093FA02462E
:103A50000B465046594618F0AFFF22462B4619F048
:103A60005FF9CEE72A4B9842BED83846314619F066
:103A7000D1FE0022214B19F053F9FEF721FC064636
:103A80000F4602460B462046294619F049F93246B0
:103A90003B4619F045F9B4E719F0BCFE01F03CF8DB
:103AA0001C4B984506460F46B5DD0022154B18F015
:103AB00085FF02460B463046394619F05BFA32461E
:103AC0003B4618F07BFF22462B4619F029F998E770
:103AD00019F0A0FEFEF7F4FB02460B4620462946ED
:103AE00019F01EF98DE700BF3374AC3C1F7BAC7F2F
:103AF000FFFFEF7FFFFF35400000E0BF0000E03F29
:103B0000FFFF2F3E0000F03F412E8640CD33864020
:103B10007DF8B98FFFFFEF3F2DE9F04F21F0004610
:103B2000B6F1795F85B00C4692469B4605466BDA46
:103B300019F0A6FB002800F0E8802A462346284614
:103B4000214619F0EDF874A3D3E900238046894695
:103B500019F0E6F872A3D3E9002318F02FFF4246CC
:103B60004B4619F0DDF870A3D3E9002318F024FFC9
:103B700042464B4619F0D4F86DA3D3E9002318F060
:103B80001DFF42464B4619F0CBF86BA3D3E9002347
:103B900018F012FF42464B4619F0C2F868A3D3E969
:103BA000002318F00BFF42464B4619F0B9F8CDE957
:103BB00000010022644B4046494619F0B1F8DDE9A6
:103BC000002306460F464046494619F0A9F85246DA
:103BD000804689465B462846214619F0A1F80246F0
:103BE0000B464046494618F0E7FE02460B46304673
:103BF000394618F0E1FE02460B460020534918F002
:103C0000DBFE05B0BDE8F08F02460B4619F088F8E0
:103C100041A3D3E900238046894619F081F840A3E7
:103C2000D3E9002318F0CAFE42464B4619F078F853
:103C30003DA3D3E9002318F0BFFE42464B4619F0DE
:103C40006FF83BA3D3E9002318F0B8FE42464B4679
:103C500019F066F838A3D3E9002318F0ADFE424608
:103C60004B4619F05DF836A3D3E9002318F0A6FE01
:103C70004B46424619F054F8354B9E42CDE90001BF
:103C800097DD344B9E424FF0000238DCA6F500135E
:103C900000202E4916461F4618F08EFECDE902017F
:103CA0000022294B4046494619F03AF832463B4635
:103CB00018F082FEDDE9002306460F4640464946DD
:103CC00019F02EF85246804689465B462846214622
:103CD00019F026F802460B464046494618F06CFE9D
:103CE00002460B463046394618F066FE02460B4641
:103CF000DDE9020118F060FE05B0BDE8F08F164B5B
:103D0000164FCDE902230026CAE71049002005B06E
:103D1000BDE8F08FAFF30080D43888BEE9FAA8BDC3
:103D2000C4B1B4BD9EEE213EAD529C804F7E923E0A
:103D30009015CB19A001FA3E7751C1166CC1563FC0
:103D40004C5555555555A53F0000E03F0000F03F4C
:103D50003233D33F0000E93F0000E73F0000D23F8D
:103D60002DE9F04FADF5197D9C4CA29E9C4D54F869
:103D7000264005942646D41E85FB0475E417C4EB43
:103D8000A50424EAE4741D460893631CA3EB830393
:103D9000013D02EBC30304932B4609940295651B76
:103DA000F418039006911AD42C4401340DF17808CC
:103DB00000260027DDF88C9208E059F8250018F05D
:103DC00049FF0135A542E8E9020108D0002DF4DAE7
:103DD000013530463946A542E8E90201F6D1059B96
:103DE000002B2EDB089B4FEAC309039BA9F10808AF
:103DF000984420AB9944059B70AA02EBC30B0DF5C8
:103E0000DC7A029B002BC0F20F83039B4D46A3F18B
:103E100008040026002775E90223F4E9020118F0DE
:103E20007FFF02460B463046394618F0C7FD444531
:103E300006460F46EFD1EAE90267DA4509F10809BB
:103E4000DFD10598089A009000F18043013B9B0068
:103E50000CAC191F234402F100520B93039B013A4F
:103E600021440A9103EBC20B009A98A901EBC2030B
:103E7000002A53E9284513462BDD01EBC308A8F1BE
:103E8000A8080DF12C090DF5DC7A0022554B2046CF
:103E9000294618F045FF19F0F3F918F0DBFE00226F
:103EA000514B06460F4618F03BFF02460B46204694
:103EB000294618F081FD19F0E3F978E8022349F862
:103EC000040F3946304618F079FDD04504460D46BA
:103ED000DBD1DDF81090204629464A4601F05CF817
:103EE00000224FF07F5304460D4618F019FFFCF7EF
:103EF000EFFE00223D4B18F013FF02460B46204612
:103F0000294618F059FD0D46044619F0B9F98046C6
:103F100018F0A0FE0B4602462946204618F04CFD3C
:103F20004B46002B06460F4640F3F780009A0CA93B
:103F3000013AC9F1180351F8225045FA03F101FA88
:103F400003F30CA8EB1A40F82230C9F11705884496
:103F500043FA05F5002D63DD009B002B08F10108F5
:103F600040F381820C9C002C00F018830120002378
:103F70000CAAC4F1807442F82340009A824219DDF1
:103F80000CAA0CAC52F820106FF07F42511A44F882
:103F900020100099023399420CDD1046009A0CA9BA
:103FA00001EB830301EB82011A68821A43F8042BA8
:103FB0008B42F9D1049B002B1ADD049B012B4FF09F
:103FC000010440F05882009B5A1E0CAB0CA953F818
:103FD0002230C3F3160341F8223058E2482B03087D
:103FE000ABAAAA2A0000703E0000704100002040E9
:103FF000022D15D132463B460020974918F0DCFCD3
:1040000006460F46049A9449002000F0C5FF024678
:104010000B463046394618F0CFFC022506460F46BF
:10402000002200233046394619F0E2F8002800F05B
:104030005282009A059B501E83420FDC02F180439E
:10404000013B0CAA0B9C02EB8303002253F80419DA
:10405000A34242EA0102F9D1002A6FD1059B0CAAC2
:10406000013B52F82330002B40F033820A9A01239F
:1040700052F8041901330029FAD0009AD31802F13A
:10408000010A9A4507933DDC009B0899099A0B4465
:1040900007990AEB0208994620AB08F1804803EB28
:1040A000C9098B18A39A08F1FF3802EB880870AA97
:1040B00002EBCA0AA39A02EB8303009358F8040F99
:1040C00018F0C8FD029B002BE9E802011DDB039BF1
:1040D0004D46A3F108040026002775E90223F4E900
:1040E000020118F01DFE02460B463046394618F014
:1040F00065FC5C4506460F46EFD1009B9845EAE813
:104100000267DBD1079B0093AEE6009B00260027E9
:104110009845EAE80267D1D1F4E706D1009B0CAAE2
:10412000013B52F82350ED1514E700224B4B19F0D8
:104130007DF8002840F08281054671E70CA90295C0
:1041400051F820300499CDF81C80183902460090AF
:1041500004916BB900F18043013B0CA800EB830391
:1041600053F80409013A18390028F9D00092049153
:10417000049A3949002000F00FFF009B002B0446F1
:104180000D46C0F20382DA0070A901EB020B049223
:104190000CAA02EB8306DFF8C8900BF1080704367F
:1041A0004FF0000856F8040D18F054FD22462B4637
:1041B00018F0B6FD4B4667E9020142462046294603
:1041C00018F0AEFD0CAB9E4204460D46EAD10DF54B
:1041D000907ACDF80CA0DDF814A04FF00009BAF1E8
:1041E000000FC0F23D81DFF87C805D4618A1D1E967
:1041F000000100260027002403E04C4510DCF8E80D
:104200000201F5E8022318F08BFD02460B4630460A
:10421000394618F0D3FB0134A24506460F46ECDAC6
:10422000039B03EBC903ABF1080BC3E900676EAB5B
:104230005B4509F10109D2D1A29BDDF80CA0032B4B
:1042400000F28B80DFE813F0D100900090001000A6
:1042500000000040FB21F93F0000F03F0000E03F7C
:104260000000703E600A0308009B002B40F3A4810D
:10427000049B0AEB0308D8E90067D34658E9029A81
:1042800032463B464846514618F098FB04460D46D8
:1042900002460B464846514618F08EFB32463B46D6
:1042A00018F08CFBC8E9000168E90245C3452646C1
:1042B0002F46E3D1009B012BDA4640F37D81049B1E
:1042C0005B44D3E90067984699460DF5947B59E91C
:1042D00002343246184621463B46CDE9000118F02B
:1042E0006DFB04460D4602460B46DDE9000118F061
:1042F00063FB32463B4618F061FBC9E9000169E9FE
:104300000245CB4526462F46E1D1002308F1080897
:104310001D464CAC1846294678E9022318F04EFB9E
:10432000444503460D46F5D1029A002A00F020814B
:10433000DAF80440DAF80C20069FDAF80010DAF810
:1043400008003B6105F1004504F1004402F1004220
:104350007D617C60FA603960B860079B03F00700FC
:104360000DF5197DBDE8F08F049C002608345444F7
:1043700033463046194674E9022318F01FFB5445B2
:1043800006460B46F5D1029A30461946002A00F03F
:10439000DA80069803F10044324644600660DAE9A8
:1043A000000118F009FB0B460099002902460EDDBA
:1043B000012410461946FAE9022318F0FFFA0B46C9
:1043C00000990134A1420246F3DA029909B103F1DE
:1043D00000431946069B1046C3E90201079B03F000
:1043E00007000DF5197DBDE8F08F049C002208340C
:1043F000544413461046194674E9022318F0DEFAB5
:10440000A24502460B46F5D1029909B103F10043DA
:104410001946069B1046C3E90001079B03F00700FD
:104420000DF5197DBDE8F08F00260027EAE9026747
:10443000DA4509F108097FF4E4AC02E5009B002BA2
:1044400008F10108C8BF02253FF78CAD32463B4654
:104450000020634918F0B0FA022506460F46DFE552
:1044600000260027DCE6049B002B26DD0024049BAD
:10447000012B3FF4A8AD022B09D1009B5A1E0CABB7
:104480000CA953F82230C3F3150341F82230022D52
:104490007FF4C6AD32463B460020514918F08CFAF5
:1044A00006460F46002C3FF4BBADABE50099013347
:1044B000994278D1049B002BD9DC022D7FF4B0AD5A
:1044C00032463B460020464918F076FA06460F462B
:1044D000A6E50123D1E53946049F02957A4230468C
:1044E000CDF81C8000F058FD00223E4B04460D46DE
:1044F00018F09CFE002862D000223B4B2046294643
:1045000018F00EFC18F0BCFE064618F0A3FB0022C3
:10451000344B18F005FC02460B462046294618F09D
:104520004BFA18F0ADFE00990B4601331A46009382
:104530003B46183304930B460CA941F8230013465D
:1045400041F8236014E6069B3246C3E900010B469E
:10455000DAE9000118F030FA0B460099002902460A
:104560003FF726AF1946069B1046C3E9020135E71F
:1045700018462946DAE90023DAE90245069FC7E929
:104580000401C7E90023C7E90245E6E6A29B032B25
:104590003FF6E3AEDFE803F0211C1C0E009B012B6D
:1045A00088DD0CAA012352F8044F002C3FF47EAFA3
:1045B000581CDDE40DF5907A00231D46B4E629462B
:1045C000204618F05DFE009A0CA941F82200CFE5C4
:1045D000002633460DF5907AD5E60022134613E700
:1045E0000000F03F000070410000703E000000003D
:1045F0002DE9F04F21F00046B6F1795F85B00C4609
:1046000090469946054604DA18F03AFE002800F074
:1046100085802A4623462846214618F081FB064617
:104620000F4602460B462846214618F079FB3EA36A
:10463000D3E9002382468B463046394618F070FB9A
:104640003BA3D3E9002318F0B7F932463B4618F0F4
:1046500067FB39A3D3E9002318F0B0F932463B4693
:1046600018F05EFB36A3D3E9002318F0A5F9324613
:104670003B4618F055FB34A3D3E9002318F09EF90C
:104680000E9BCDE900019BB30022334B40464946C7
:1046900018F046FBDDE90023CDE9020150465946FA
:1046A00018F03EFB02460B46DDE9020118F084F9E2
:1046B00032463B4618F034FB42464B4618F07CF934
:1046C00023A3D3E9002306460F465046594618F067
:1046D00027FB02460B463046394618F06FF9024672
:1046E0000B462846214618F067F905B0BDE8F08F63
:1046F00002460B463046394618F012FB14A3D3E9A4
:10470000002318F059F952465B4618F009FB2A4677
:10471000234618F053F905B0BDE8F08F284621462E
:1047200005B0BDE8F08F00BF7CD5CF5A3AD9E53D42
:10473000EB9C2B8AE6E55A3E7DFEB157E31DC73E52
:10474000D561C119A0012A3FA6F810111111813FAE
:10475000495555555555C53F0000E03F0000000044
:104760002DE9F04FDA4C21F00046A64287B08A4688
:1047700089461746984683461ADC18F081FDA8BB87
:104780005B461E43109B0133334300F0A981109B0D
:10479000012B00F0B9815A4653460020CD4918F04C
:1047A000E9FB04460D462046294607B0BDE8F08FD8
:1047B000C94B9E421ADD0029C0F29F815A465346DA
:1047C000A5A1D1E9000118F0F7F83A46434604469E
:1047D0000D46A3A1D1E9000118F0EEF822462B46C0
:1047E00018F0ECF8002783468A46B8465A465346E6
:1047F0005846514618F094FA03460C46CDE9003469
:1048000002460B4618F08CFADDE9002304460D46FB
:104810005846514618F084FA93A3D3E90023CDE912
:1048200002012046294618F07BFA91A3D3E9002320
:1048300018F0C4F822462B4618F072FA8EA3D3E97A
:10484000002318F0BBF822462B4618F069FA8CA317
:10485000D3E9002318F0B2F822462B4618F060FA8C
:1048600089A3D3E9002318F0A9F822462B4618F0B3
:1048700057FA87A3D3E9002318F0A0F8DDE9002355
:1048800018F04EFA84A3D3E90023CDE904012046B1
:10489000294618F045FA82A3D3E9002318F08EF8D0
:1048A00022462B4618F03CFA7FA3D3E9002318F0E8
:1048B00085F822462B4618F033FA7DA3D3E900236E
:1048C00018F07CF822462B4618F02AFA7AA3D3E98E
:1048D000002318F073F822462B4618F021FA78A32B
:1048E000D3E9002318F06AF802460B46DDE904011B
:1048F00018F064F8DDE9022318F012FA3A4643464C
:1049000018F05CF8DDE9002318F00AFA02460B46BD
:104910003846414618F052F86BA3D3E90023044609
:104920000D46DDE9020118F0FBF922462B4618F08E
:1049300045F80B46024651465846CDE9002318F08B
:104940003DF8654B9E4204460D463EDC109B012B14
:1049500036D002460B4600205E4918F00BFB0024BF
:104960000F4606465A4653462046294618F024F874
:10497000A04602460B46DDE9000118F01DF842464C
:104980003B4618F0CDF9A94604460D4642463B4643
:104990004046494618F0C4F90022504B18F00EF872
:1049A00002460B462046294618F008F832463B4698
:1049B00018F0B6F942463B4618F000F804460D469A
:1049C0002046294607B0BDE8F08F109818F042F94C
:1049D000224606460F462B462046294618F0A0F9E7
:1049E0003246CDE902013B462046294617F0E6FF54
:1049F00002460B46DDE9020118F0BCFADDE90023AE
:104A000017F0DAFF02460B465846514617F0D4FF1E
:104A100002460B4617F0D2FF02460B463046394697
:104A200017F0CAFF04464FEAA97000F00200C0F177
:104A300001000D4618F00EF902460B4620462946A5
:104A400018F06EF904460D462046294607B0BDE829
:104A5000F08F00BFAFF30080182D4454FB21E93FD5
:104A6000075C143326A6813CD47ABF74702AFB3EBF
:104A7000E9A7F0320FB8123F68108D1AF726303FC1
:104A80001583E0FEC8DB573F93846EE9E326823F3F
:104A9000FE41B31BBAA1AB3F735360DBCB75F3BED2
:104AA000A69237A0887E143F0165F2F2D844433FB6
:104AB000280356C9226D6D3F37D60684F464963FAD
:104AC0007AFE10111111C13F635555555555D53F0B
:104AD000FFFF2F3E0000F0BF2794E53F0000F03FAE
:104AE0005846514618F096FE02460B4600200849EB
:104AF00018F040FA04460D4662E701F1004308F160
:104B0000004883469A4659E65C46554658E700BF3A
:104B10000000F03F000000002DE9F04FD24A21F0E4
:104B20000043934285B00C460E4605462DD9CF4A28
:104B300093421AD8002E80F21681B5A3D3E9002340
:104B40002846214617F03AFF0022002318F05AFBAE
:104B5000C0B9B1A3D3E900232846214618F0E0F8F4
:104B600002460B460020C24908E1C24A934240F285
:104B7000D0800346C1F31302134340F0F6810029AD
:104B800080F2C4800020BC49C0E0BC4A934200F2DD
:104B90002981BB4A934240F2DE8000230193002228
:104BA000B84B2846214618F0BBF806460F46024689
:104BB0000B462846214618F0B3F899A3D3E9002301
:104BC00082468B4618F0ACF897A3D3E9002317F080
:104BD000F5FE52465B4618F0A3F895A3D3E90023EF
:104BE00017F0EAFE52465B4618F09AF892A3D3E912
:104BF000002317F0E3FE52465B4618F091F890A3AD
:104C0000D3E9002317F0D8FE52465B4618F088F827
:104C100000229D4B17F0D2FE8046894602460B4685
:104C20003046394618F07CF802460B46002097497A
:104C300017F0C2FE064602460B460F46404649465E
:104C400017F0BAFE3246804689463B462846214642
:104C500018F066F802460B4600208D4917F0ACFEAE
:104C600002460B464046494618F084F952465B46D8
:104C700018F056F8019E02460B46002E38D0DDE9AA
:104C8000026732463B4617F097FE2A46234618F045
:104C900047F832463B4617F08FFE5B46524617F008
:104CA0008BFE019B013306460F4600F00F81019BEE
:104CB000012B00F0F180019B0133392B39D8019B86
:104CC000132B40F31281019FC7F57F760336002234
:104CD000330517F073FE02460B462846214617F0AF
:104CE0006BFE0022684B17F069FE01EB07510DE0E7
:104CF0002846214618F014F852465B4617F05CFE31
:104D000002460B462846214617F056FE05B0BDE880
:104D1000F08F4DA3D3E9002318F092FA00283FF456
:104D200009AF4BA3D3E900231046194617F0F8FF4B
:104D3000ECE72A46234617F03FFE02460B460020CA
:104D4000514917F039FE019A4F4B01EB02510022F5
:104D500017F032FEDAE73EA3D3E9002317F02EFE68
:104D600002460B46CAE72CA3D3E900232846214676
:104D700017F0D6FF0B4643490246002017F01EFEEF
:104D800018F07EFA019017F065FF33A3D3E90023F2
:104D900006460F4617F0C4FF02460B46284621463A
:104DA00017F00AFE2EA3D3E9002380468946304639
:104DB000394617F0B5FF06460F4632463B46404699
:104DC000494617F0F9FD02460B4605460C4640469B
:104DD000494617F0F1FD32463B4617F0EDFDCDE9AF
:104DE0000201DCE62B4A934200F2978000291AA3C5
:104DF000D3E90023C0F2AE8017F0DEFD0123804628
:104E00008946019316A7D7E90067D6E7AFF300807C
:104E100059F3F8C21F6EA501FE822B654715F73FB7
:104E20002DC3096EB7FD8ABE3952E686CACFD03E81
:104E3000B7DBAA9E19CE143F8555FE19A0015A3F33
:104E4000F41011111111A13FEF39FAFE422E8640E4
:104E50009C7500883CE4377E0000E0FE422EE63F71
:104E6000763C7935EF39EA3D79684340412E8640FA
:104E70000000E0BFFFFFEF7F0000F0BF422ED63FF3
:104E8000FFFF8F3C0000E03F0000F03F00000840C3
:104E900000001840B1A2F03F2846214600223A4BBC
:104EA00018F0B0F9002846D0284621460022374B9A
:104EB00017F084FD02460B463046394617F07CFD5C
:104EC00000224FF0404317F02BFF1FE732463B46CE
:104ED0002846214617F070FD00222C4B17F020FFCA
:104EE00000222A4B17F068FD10E7019E4FF4001EC8
:104EF0004EFA06FE2A462346CEF17F5717F05CFD98
:104F0000002607F5401702460B463046394617F093
:104F100053FD019E01EB0651F8E617A3D3E90023E8
:104F200017F0FEFE002C02460B464FF00000FFF685
:104F30001AAE164922E732463B462846214617F06C
:104F40003BFD02460B4617F039FD0022104B17F0CF
:104F500035FDDBE617F032FD4FF0FF338046894622
:104F6000019307A7D7E9006727E702460B4617F02A
:104F700025FDCBE6AFF30080FE822B654715F73F9A
:104F8000763C7935EF39EABD0000D0BF0000E03F44
:104F90000000F03F00000000F8B5C1F30A560446D7
:104FA0000D460B4617460EBB21F0004303438646D1
:104FB00025D00022344B17F0B3FE344A9742044602
:104FC0000D460B462ADBC1F30A56363E3E4440F2FC
:104FD000FE72964228DC002E12DD23F0FF4323F4FC
:104FE000E00343EA065520462946F8BD40F2FF7229
:104FF0009642EBD102460B4617F0E0FCF8BDF8BD37
:1050000016F1350F1DDA4CF250339F4222462B46E3
:1050100025DC19A1D1E900011AF092FC16A3D3E90D
:10502000002317F07DFEF8BD22462B4614A1D1E9DE
:1050300000011AF085FC12A3D3E9002317F070FEDB
:10504000F8BD23F0FF4323F4E003363643EA065568
:105050002046294600220E4B17F062FEF8BD08A13B
:10506000D1E900011AF06CFC05A3D3E9002317F085
:1050700057FEF8BDAFF3008059F3F8C21F6EA501CB
:105080009C7500883CE4377E00005043B03CFFFF35
:105090000000903C10B5054C237833B9044B13B194
:1050A0000448AFF300800123237010BDC803002023
:1050B00000000000C83003080C4B43B10C480D49F8
:1050C00010B5AFF300800C48036823B910BD0A483F
:1050D000036833B97047094B002BF7D0BDE8104087
:1050E0001847064B002BF5D0184700BF0000000002
:1050F000C8300308CC030020B003002000000000EB
:1051000070B504460E4600F0D1F888B10368DB6A3A
:1051100005469847082C0CD0A4F10903012B14D99B
:105120003246214610230D20BDE8704004F0D8B867
:1051300070BD2B6828465B6A98470228F0DC2B6814
:1051400028461B6A04219847EAE72B6828465B6AD1
:1051500098470528E4DC2B6828461B6A08219847F5
:10516000DEE700BF30B52DED028B83B0054600F0C1
:105170009DF8044640B10368DB6A9847032D50D878
:10518000DFE805F0373F47080190019803B0BDEC18
:10519000028B30BD20460CF0F9FF07EE900A204646
:1051A000F8EEE78A0DF000F807EE900A2046B8EE18
:1051B000E78A0DF007F868EE087A07EE100AE8EEC5
:1051C000A87AB8EEC77AE7EE077AF5EE407AF1EE04
:1051D00010FAB1EEE78A03D517EE900A19F0D0F96C
:1051E000FDEEC87ACDED017A019803B0BDEC028BDB
:1051F00030BD204603B0BDEC028BBDE830400CF062
:10520000C5BF204603B0BDEC028BBDE830400CF0BA
:10521000CBBF204603B0BDEC028BBDE830400CF0A4
:10522000D1BF00230193B0E738B5054600F03EF842
:1052300058B10368DB6A0446984745B1012D04D193
:105240002046BDE83840FBF747BA002038BD20466D
:10525000BDE83840FBF720BA10B5044600F026F848
:1052600028B1036821461B6ABDE81040184710BDED
:105270000048704716FCFFFF704700BF10B5034B96
:10528000036004460CF07EFD204610BDA41A0308FE
:1052900010B5054B036004460CF074FD20461AF06F
:1052A00080FF204610BD00BFA41A03082DE9F0437B
:1052B000BD4C236885B01BB1986805B0BDE8F0838C
:1052C0004FF0FF31012001F0F9FC05F001F8002852
:1052D00000F0EC800C201AF066FF4FF0FF3106461C
:1052E000462001F0EBFC68280CBF3321032151203C
:1052F00001F0E4FCDFF8E0E2AC4B054605F00F07F7
:10530000C5F3031815F4807508BF7346A8483946DD
:1053100042460BF03FFF2A1C18BF01223946434684
:1053200030460FF055FC0023A248B3600BF032FF6B
:105330004FF0FF31032001F0C1FC04F0C9FF4FF032
:10534000FF310546022001F0B9FC04F0C1FF002D39
:1053500000F09580002800F092800146284604F075
:10536000D3FB0746002800F09D803821462001F03D
:10537000A5FC322880462AD027DD382866D0682848
:105380003DD14FF0FF31012001F098FC04F0A0FF67
:1053900081465C201AF007FF0523054601934A4623
:1053A000CDF80080394633460EF062FC2846B060E6
:1053B00003689B6A9847B0680368DB6A98477E4831
:1053C0000BF0E8FE2660B06877E7302817D14FF081
:1053D000FF31012001F072FC04F07AFF8146502079
:1053E0001AF0E1FE1FFA88F1054605234A460091AE
:1053F0000193394633460EF00DFA2846D7E73A684E
:105400000125002301950095D2F82480B3600F2276
:105410000DF10F0332213846C047002851D14FF01B
:105420003208414665480BF0B5FE4FF0FF310120D0
:1054300001F044FC04F04CFF814650201AF0B3FE0A
:10544000052305464A46CDF80080D1E74FF0FF31ED
:10545000012001F033FC04F03BFF814650201AF09C
:10546000A2FE052305464A46CDF800803946019341
:1054700033460EF0D9FA524B2B60284697E7514835
:105480000BF088FE4FF0FF31192001F017FC04F0FB
:105490001FFF4FF0FF310546182001F00FFC04F00C
:1054A00017FF5AE748480BF075FE8BE74FF0FF31C6
:1054B000032001F003FC04F00BFF00287FF40AAF87
:1054C000FBE63B6801950095D3F824800F220DF18F
:1054D0000F0330213846C04718B94FF03008414615
:1054E000A0E73B6801950095D3F824800D220DF1CB
:1054F0000F0338213846C047B8B938212F480BF080
:1055000049FE4FF0FF31284601F0D8FB04F0E0FEE1
:10551000804650201AF047FE4FF0050E382305460E
:10552000424639468DE80840A2E73A680195009561
:10553000D2F824800DF10F03752268213846C04748
:10554000D8B968211D480BF025FE4FF0FF312846E1
:1055500001F0B4FB04F0BCFE80465C201AF023FE90
:105560004FF0050E682305468DE80840424639464F
:1055700033460EF07DFB284619E714480BF00AFE6F
:10558000B06800287FF414AF4FF0FF31032001F022
:1055900095FB04F09DFE18B10D480BF0FBFD11E7E3
:1055A0000C480BF0F7FD0DE7E4030020E40A0308C4
:1055B000F40A0308140B0308AC0B0308D00B030810
:1055C000B00A0308240B0308380B0308BC0B0308BC
:1055D000500B03088C0B0308EC0A030808B501F014
:1055E0009FFCFBF739FEBDE8084001F0FDB900BFA4
:1055F00008B501F095FCFBF79FFEBDE8084001F0FF
:10560000F3B900BF08B501F08BFC18F079F9BDE8DB
:10561000084001F0E9B900BF08B501F081FC18F0BD
:10562000EBFEBDE8084001F0DFB900BF08B501F0AE
:1056300077FCFBF721FEBDE8084001F0D5B900BFBB
:1056400008B501F06DFC18F08DFBBDE8084001F0D5
:10565000CBB900BF08B501F063FCFBF75DF8BDE80E
:10566000084001F0C1B900BF08B501F059FC18F0BD
:10567000CDFABDE8084001F0B7B900BF70B5049E8F
:1056800096420C4628DB15466BB1002A00EB02015E
:1056900007DD2046A21811F8013D00F8013B9042B9
:1056A000F9D1002070BD042A0FD0022A02D110F0D7
:1056B000010306D001462A46204607F0E7FF0020F6
:1056C00070BD02880A80184670BD10F00303F1D146
:1056D00002680A60184670BD0846002109F0C6F944
:1056E0004FF0FF3070BD00BF0830704740B1002957
:1056F00005DB4368994202DA0844007A70470020CB
:10570000704700BF30B1002904DB43689942BCBF39
:1057100040180272704700BF40B1002905DB4368A2
:10572000994202DA0844007A70470020704700BFAF
:10573000830705D120B1030F0CBF01200020704763
:105740000120704730B1002904DB43689942BCBF97
:1057500040180272704700BF002B23DB002921DBB9
:1057600070B54668B1421ADC5568761A1446EA1AD2
:10577000B242A8BF3246002A11DB84420D4607D050
:10578000083408300844E11807F080FF002070BD9D
:105790000834E11860191AF040FD002070BD4FF088
:1057A000FF3070BD4FF0FF30704700BF406870475A
:1057B00010B4141E10DB426894420DDC33EA23035C
:1057C00028BF1346121B08309A422044A8BF1A462D
:1057D0005DF8044B09F04AB95DF8044B704700BF0F
:1057E00043688B4210B400F108041846A8BF08466D
:1057F00032EA220128BF19461B1A99422044A8BF49
:1058000019465DF8044B00F0F3BE00BF002BBCBF8F
:1058100043689B1A002A70B50E4620DB446899182D
:10582000A1421CDC8A421ADCCBB136F0004116D012
:1058300059428E4214DDB34212DD0830002E00EBD7
:10584000020515DB9C1B2246A91928461AF0E5FC27
:10585000324628190021BDE8704009F007B970BD33
:10586000002211464FF0FF33BDE87040FFF7A0BFA4
:1058700074429A19294628191AF0CFFC2246284664
:105880000021BDE8704009F0F1B800BF03460830C0
:10589000596800F02DBE00BF70B504460020616855
:1058A000490000F0A7FD6668002E11DD094D04F1E6
:1058B000080100EB4606034611F8012B141102F013
:1058C0000F022C5DAA5C9C71DA7102339E42F3D107
:1058D00070BD00BFE40B0308002BBCBF43689B1ADC
:1058E000002A2FDB70B445689C18AC4229DCA24228
:1058F00027DC33B331F0004423D00029B8BF01EBDB
:10590000032191FBF3F603FB1616002E00F10800AD
:10591000B8BFF61802441644B242134411D03046C0
:1059200004E0B24208460ED090420AD001461478F4
:1059300011F8015B02F8015B8B420470F1D1304633
:10594000F2E770BC70470E46EEE700BF00B583B0CB
:105950004FF0FF3300930023FFF7FEFE03B05DF826
:1059600004FB00BF10B50C1E0EDD4168083002F0CC
:10597000FFF81F2C09DC0123A34020FA04F4013BAB
:10598000444004EA030010BD002010BD0146002081
:1059900000F02EBE38B50021054600F0D7FD0146C7
:1059A000002000F025FE044600F10801284600F022
:1059B000CDFD204638BD00BF30B5013A83B0044666
:1059C0000D460F2A16D8DFE802F01717838D9417BB
:1059D0002E08081F424D5C367462184601F034FBF5
:1059E000012DADF8000005DD9DF800209DF8013087
:1059F0002370627003B030BD184601F025FB002D06
:105A0000F8DD207003B030BD184601F01DFB032DFA
:105A10000090EFDD6A46231D12F8011B03F8011DFB
:105A20009C42F9D1E6E7184601F00EFB002DC0B20A
:105A3000E0DD2070E6E7184601F072FA072DCDE9A7
:105A40000001D7DD6B4603CB20606160D2E71846CA
:105A500001F08EFA032DCDDDA3070CBF206020607E
:105A600003B030BD184601F083FA032D0090C1DD6C
:105A70006A46231D12F8011B03F8011D9C42F9D14F
:105A8000B8E7184601F078FB032DE5DCB2E71846CD
:105A900001F046FA072DCDE90001ABDD0DF1FF3233
:105AA00004F1080312F8011F03F8011DA342F9D104
:105AB000A0E7184601F060FB032D00909ADD6A46CE
:105AC000231D12F8011B03F8011DA342F9D191E730
:105AD000184601F0B9FA012D8CDDE20754BF208091
