:020000040801F1
:100000000080012039590208617F0208719A0108B5
:10001000350703083507030835070308000000000B
:10002000000000000000000000000000657F0208E2
:10003000697F0208000000006D7F0208717F0208DE
:100040003507030835070308350703083507030894
:100050003507030835070308A5750208A9750208C6
:10006000AD750208B1750208B5750208857C0208F5
:10007000957C0208A57C0208B57C0208C57C0208B4
:10008000D57C0208E57C020835070308350703081C
:10009000350703083507030835070308B975020853
:1000A0003507030835070308350703083507030834
:1000B0007160020879600208816002083507030850
:1000C000350703083507030835070308A17A020836
:1000D000AD7A02083507030835070308350703081A
:1000E000BD750208350703083507030835070308FF
:1000F000350703083507030835070308F57C0208B0
:10010000350703083507030889600208B97A020831
:1001100035070308350703083507030835070308C3
:10012000057D0208157D0208257D0208357D02083F
:10013000457D02083507030835070308350703081E
:10014000350703083507030835070308B5620208B9
:10015000557D0208657D0208757D02083507030894
:100160003507030835070308350703083507030873
:1001700035070308350703083507030800000000AA
:100180003507030835070308350703083507030853
:10019000C57A020835070308350703083507030841
:1001A0003507030835070308350703083507030833
:1001B00035070308000000002DE9F04F85B00391DA
:1001C0000778A7F10903042B044607F07F0200F12A
:1001D0000100F5D9202AF3D02B2F04BF67780446FD
:1001E0002D2F72D09FED427B8DED007B4FF00008EC
:1001F0004FF000098FB34FF0000E4FF0000ADFF808
:1002000000B1754619E01CF09DFE804689463046D7
:100210001CF032FE42464B461CF0E2FC5246804641
:1002200089465B46DDE9000135B31CF0B5FFCDE939
:100230000001AE4614F8017F7FB1A7F13006092E08
:1002400052465B4640464946DDD9C5B92E2F16D1E8
:1002500014F8017F0125002FEFD142464B46DDE91E
:1002600000011CF06FFE80468946039B40464946CC
:100270001C6005B0BDE8F08F4FF0010EDAE7BEF16B
:10028000000F29D042464B46DDE900011CF05AFE22
:1002900007F0DF07452F80468946E6D10399601CA9
:1002A0000A221FF077FE1649024600201DF0AAF927
:1002B00002460B46404649461CF044FE80468946AD
:1002C0004046494605B0BDE8F08F9FED0B7B67784F
:1002D0008DED007B013489E7DFF828904FF00008AE
:1002E0004046494605B0BDE8F08F00BFAFF300803F
:1002F000000000000000F03F000000000000F0BF20
:10030000000024400000F87F2DE9F84F1646002336
:10031000002204460D461DF087F8002840F09D801D
:1003200000220023204629461DF074F828B130220F
:10033000002332707370BDE8F88F204629461DF007
:1003400071FF1DF0AFF87BA3D3E900238146294656
:1003500020461DF069F8002800F08680B9F1000FF2
:10036000C0F2BE804A4600206F491DF04BF902469C
:100370000B46204629461CF00FFF04460D4666A199
:10038000D1E9000101274FF0000822462B461CF05E
:10039000D9FD0022654B1CF023FC1DF06FF9002FE6
:1003A000CC464FF0FF3AC1464FF0000840F385803D
:1003B000DFF888E15E4C0122AEF1700945F6F325C5
:1003C0004FF02E0BA94208BFA0424FF0300309D3D3
:1003D000001B61EB0501A94208BFA04203F1010324
:1003E000F6D2DBB2337050EA010306F1010409D101
:1003F000BA4210DACE4502F101020CD026467EE860
:100400000245DFE7BA4204BF86F801B0B41CCE450E
:1004100002F10102F2D1B8F1000F0DD022463021D5
:1004200002F8011BC2F1010353442344002BF7DC03
:100430002AEAEA7301331C44BCF1010F4CD0652356
:10044000BCF1000F2370C5BF2B236370611CA11C7E
:100450006046BDE8F84F10F0E9BC05F100431D46C9
:100460002D23337001365BE72DA3D3E9002320460B
:1004700029461CF0F7FF00287FF470AFB9F10E0F8A
:1004800009F101073DDDA9F10E0842460020264989
:100490001DF0B8F802460B46204629461CF07CFEAB
:1004A0000022224B1CF09CFB1DF0E8F8002FA9F164
:1004B0000F0A4FF0010C3FF77BAF334630222E245A
:1004C00003F8022B74707FEA090618D01E4403F863
:1004D000012BB342FBD16BE700232370BDE8F88FFB
:1004E000C9F10002002010491DF08CF802460B46AD
:1004F000204629461CF026FD04460D463FE71E46D1
:1005000056E7C9F10E0200200749C8461DF07AF8E7
:100510004FF0010939E700BF0000901EC4BCD6426D
:1005200050EFE2D6E41A4B44000024400000E03FC4
:1005300000407A108DEDB5A0F7C6B03E500F03080D
:1005400070B54FF0FF3006F085F804466FF07F403D
:1005500006F080F8064620461CF07EFC00220C4B7C
:100560001CF0F0FC044630460D461CF075FC06A35A
:10057000D3E900231CF010FE02460B462046294614
:100580001CF02EFB70BD00BF0000E0DFFFFF6F43DB
:100590000000F03D000000002DE9F04F2DED028B32
:1005A000044683B0C0681CF067FC80462069894619
:1005B0001CF062FC824660698B461CF05DFC0246C2
:1005C00001F1004306460F46404649461DF0DAFC5D
:1005D0001CF0B0FFE06205461DF098FB0190284634
:1005E0001DF058FB019B054618461CF057FC42467F
:1005F0004B461CF0A7FC8046284689461CF04EFC62
:1006000032463B461CF09EFC02460B46404649469D
:100610001CF0E4FA02460B46504659461DF0B2FC67
:100620001CF088FF002208EE100A002330463946ED
:100630001CF018FF28B3B5EEC08AF1EE10FA1CDDED
:1006400011A7D7E9006718EE100A1CF027FC024634
:100650000B46304639461CF0C1FA32463B461CF088
:10066000BFFA1CF067FFA062E38843F00203E38057
:1006700003B0BDEC028BBDE8F08F05A7D7E900679A
:10068000E1E784ED0A8AEFE7EA2E4454FB21F93FC3
:10069000EA2E4454FB21F9BF08B511F025FEDFED29
:1006A0000C7A07EE100A67EE277A17EE900A1CF014
:1006B000F5FB05A3D3E900231CF06EFD1CF0F2FE50
:1006C00008BD00BFAFF30080EA2E4454FB2119405F
:1006D0000000B4430000000008B511F019FEDFED82
:1006E0000C7A07EE100A67EE277A17EE900A1CF0D4
:1006F000D5FB05A3D3E900231CF04EFD1CF0D2FE70
:1007000008BD00BFAFF30080EA2E4454FB2119401E
:100710000000B443000000004F4A21F00043934220
:100720002DE970430D4604464FDC4C4A93420E4679
:100730000FDC45A3D3E900231CF052FA0022484BFA
:100740001CF090FE002856D02B4620461946BDE8E6
:100750007083444A934242DCB3F1804F4BDD1DF07D
:100760006BF92246804689462B46204629461CF0D6
:10077000E9FB00223A4B1CF033FA1EF0EFF9024677
:100780000B46404649461CF02BFA02460B46002019
:1007900033491CF001FD424604460D464B46404697
:1007A00049461CF01DFA0B460246294620461CF01D
:1007B00017FA01F0FDFE04460B46002E0BDC03F198
:1007C000004320461946BDE870830B4602461CF0E4
:1007D00007FA04460B4620461946BDE870831DF013
:1007E0002BF901F0E5FE1AA3D3E900231CF0F8F978
:1007F00004460B46E1E722462B46204629461CF0DC
:10080000A1FB80468946204629461DF015F90022A5
:100810000446134B0D46404649461CF0E1F91EF0D4
:100820009DF900220E4B1CF0DBF902460B464046B8
:1008300049461CF0B1FC22462B461CF0D1F900F0D1
:10084000D3FA04460B46B8E79C7500883CE4377E33
:10085000EF39FAFE422EE63FFFFFEF7FFFFF2F3E0C
:100860000000F03F0000B0412DE9F84FC24B21F0ED
:1008700000469E420D468A46044610DDBF4B9E420E
:1008800000F3B58000F0B080BD4BBE49BE4CBAF15C
:10089000000FD8BF0B4620461946BDE8F88FBB4B6A
:1008A0009E4200F3C180A3F1DE739E4240F3AB8011
:1008B0004FF0FF3B22462B46204629461CF042FBC8
:1008C00002460B46804689461CF03CFB92A3D3E9C6
:1008D000002306460F461CF035FB91A3D3E9002305
:1008E0001CF07EF932463B461CF02CFB8EA3D3E96C
:1008F00000231CF075F932463B461CF023FB8CA309
:10090000D3E900231CF06CF932463B461CF01AFB7D
:1009100089A3D3E900231CF063F932463B461CF05F
:1009200011FB87A3D3E900231CF05AF942464B463A
:100930001CF008FB84A3D3E9002380468946304697
:1009400039461CF0FFFA82A3D3E900231CF046F9D4
:1009500032463B461CF0F6FA7FA3D3E900231CF095
:100960003DF932463B461CF0EDFA7DA3D3E9002366
:100970001CF034F932463B461CF0E4FA7AA3D3E982
:1009800000231CF02BF932463B461CF0DBFABBF18E
:10099000FF3F02460B466ED0404649461CF020F908
:1009A00022462B461CF0CEFA794E7A4B4FEACB0BFF
:1009B0005E449B44DBE900231CF010F922462B46E1
:1009C0001CF00CF90B460246D6E900011CF006F9B2
:1009D000BAF1000F04460B46BFF65DAF01F10043CC
:1009E00020461946BDE8F88F00283FF44DAF224657
:1009F0002B46204629461CF0F3F804460B462046B9
:100A00001946BDE8F88F5AA3D3E900231CF0E8F893
:100A10000022614B1CF026FD00283FF449AF2B4615
:100A200020461946BDE8F88F1DF006F85B4B9E4244
:100A300004460D4630DCA3F550239E4255DC0246A9
:100A40000B461CF0CDF80022534B1CF0C7F80022D7
:100A500006460F464FF08043204629461CF0C0F85A
:100A600002460B46304639461CF096FB4FF0000B11
:100A700004460D461EE7404649461CF0B1F82246A2
:100A80002B461CF05FFA0B460246294620461CF016
:100A9000A5F804460B46FEE6414B9E421ADC0022B6
:100AA000404B1CF09BF8002206460F463D4B20466B
:100AB00029461CF047FA0022374B1CF091F80246F9
:100AC0000B46304639461CF067FB4FF0020B0446DC
:100AD0000D46EFE602460B46002033491CF05CFB56
:100AE0004FF0030B04460D46E4E600222A4B1CF0AF
:100AF00075F8002206460F46274B204629461CF073
:100B00006FF802460B46304639461CF045FB4FF065
:100B1000010B04460D46CDE611DA22E33AAD903FD3
:100B2000EB0D76244B7BA93F513DD0A0660DB13F24
:100B30006E204CC5CD45B73FFF8300922449C23F8C
:100B40000D5555555555D53F2F6C6A2C44B4A2BF51
:100B50009AFDDE522DDEAD3F6D9A74AFF2B0B33F19
:100B6000711623FEC671BC3FC4EB98999999C93F91
:100B70009C7500883CE4377EFFFF0F440000F07F47
:100B8000FB21F93FFB21F9BF182D4454FFFFDB3F48
:100B9000600F0308800F03080000F03FFFFFF23FE3
:100BA000FF7F03400000F83F0000F0BF000000009E
:100BB0002DE9F047C1F30A59A9F2FF36132E0B466F
:100BC0000D46044607468846824622DC002E4FDB4F
:100BD0003D4A42FA06F901EA090202431ED038A34F
:100BE000D3E900231BF0FCFF002200231CF03AFC99
:100BF00050B1002D04DD4FF4801343FA06F6B044E3
:100C000028EA09054FF0000A544629462046BDE867
:100C1000F087332E06DDB6F5806F3DD019462046AD
:100C2000BDE8F087A9F213494FF0FF3222FA09F923
:100C300010EA090FF2D022A3D3E900231BF0D0FF62
:100C4000002200231CF00EFC0028DDD0002D09DD61
:100C5000142E2FD00123C6F1340603FA06F63719F5
:100C600028BF9844454627EA090A54462946CDE755
:100C700013A3D3E900231BF0B3FF002200231CF0D1
:100C8000F1FB0028C0D0002D0FDB55EA040709D086
:100C90004FF0000A0D4DB7E702460B461BF0A0FFD0
:100CA0000446BCE7BA463D46AEE74FF0000A4FF0B7
:100CB0000045A9E705F10108D4E700BFAFF30080C4
:100CC0009C7500883CE4377EFFFF0F000000F03F7A
:100CD000C1F30A522DE9F843A2F2FF36132E0B4658
:100CE0000D460446884607461DDC002E40DB3C4A84
:100CF00042FA06F901EA09020243864618D036A3F1
:100D0000D3E900231BF06CFF002200231CF0AAFB98
:100D100020B1002D42DB28EA090500273C46294680
:100D20002046BDE8F883332E06DDB6F5806F2FD060
:100D300019462046BDE8F883A2F213424FF0FF396E
:100D400029FA02F910EA090FF2D023A3D3E900230C
:100D50001BF046FF002200231CF084FB0028DDD09E
:100D6000002D21DB454627EA09073C462946D7E7FF
:100D700019A3D3E900231BF033FF002200231CF04A
:100D800071FB0028CAD0002D19DB00273D46C5E7BE
:100D900002460B461BF024FF0446CAE74FF48013BB
:100DA00043FA06F6B044B6E7142E10D00123C6F17C
:100DB000340603FA06F6371928BF9844D2E725F01F
:100DC0000042084B224318BF1D460027A6E705F145
:100DD0000108C7E7AFF300809C7500883CE4377ECC
:100DE000FFFF0F000000F0BF2DE9F04FD64B9942F6
:100DF00089B00E460F46824613DCD44B21F00044E6
:100E00009C4218DD0022D24B1CF004FB002879D054
:100E1000002200230020CF491CF0BEF909B0BDE834
:100E2000F08FCD4B99422FDD524633461BF0D8FE52
:100E300009B0BDE8F08FC94B9C4270DDC84B1F4420
:100E40009F427ED8504631460022C64B1BF0C8FE5A
:100E50004FEA215BABF2FF3BBBF1000F04460D46AE
:100E60000F4640F3E081524633461BF0B7FE024680
:100E70000B460020BB491BF0B1FE22462B461CF05E
:100E80008BF9CDE900010BE0B74B9F42DADD002280
:100E90000023CDE900234FEA275B5446ABF2FF3B2A
:100EA000B24BC7F313079F4247F07F5500F3E7802B
:100EB00045F44015204629460022AA4B1BF08EFE21
:100EC000002204460D46AA4B1CF03CF822462B4655
:100ED0001CF038F8A246CDE902012E46804689462C
:100EE000002F3AD100220023204629461CF092FA16
:100EF000002800F0CE80BBF1000F40F0768100208A
:100F0000014695E752463346504631461BF066FE91
:100F100002460B461CF040F909B0BDE8F08F0022F4
:100F2000944B1BF05DFE002200231CF09BFA00286E
:100F300000F0CC80904B9C4200F3C8805046314674
:100F400076E700228A4B1BF0FDFF524633461BF02A
:100F5000F9FF4FF0000B8046894600224FF0804396
:100F6000504631461BF03CFE02460B465046314689
:100F70001CF012F902460B46CDE902231BF0E2FFFA
:100F80005DA3D3E9002304460D461BF0DBFF5CA301
:100F9000D3E900231BF024FE22462B461BF0D2FF90
:100FA00059A3D3E900231BF01BFE22462B461BF05E
:100FB000C9FF57A3D3E900231BF012FE22462B469C
:100FC0001BF0C0FF54A3D3E900231BF009FE224607
:100FD0002B461BF0B7FF52A3D3E900231BF000FE02
:100FE00022462B461BF0AEFF4FA3D3E900231BF094
:100FF000F7FD22462B461BF0A5FF04460D46BBF12C
:10100000000F00F0BB8058461BF036FF48A3D3E921
:101010000023CDE904011BF095FF4246CDE906010E
:101020004B46204629461BF0DBFDDDE902231BF081
:1010300089FF41A3D3E9002304460D46DDE90401FD
:101040001BF080FFDDE900231BF0CAFD02460B46C2
:10105000204629461BF0C4FD02460B464046494641
:101060001BF0BCFD524633461BF0B8FD02460B4652
:10107000DDE906011BF0B2FD09B0BDE8F08F45F4D3
:101080000015C7F5801720462946BF100BF1010B4C
:1010900012E72BA3D3E90023204629461BF052FF79
:1010A00002460B4600202F491BF098FDDDE9022384
:1010B0001BF048FF06460F46BBF1000F6DD10246FC
:1010C0000B46204629461BF089FDB1E652463346C1
:1010D000504631461BF036FF0022254B1BF032FFF5
:1010E00002460B46504631461BF078FD09B0BDE87C
:1010F000F08F00BFAFF3008044523EDF12F1C23FD9
:101100009FC678D0099AC33FDE03CB966446C73F9B
:10111000AF788E1DC571CC3F599322942449D23F9C
:1011200004FA97999999D93F935555555555E53FE7
:101130000000E0FE422EE63F763C7935EF39EA3D8D
:10114000555555555555E53F7982DA3FFFFFEF3F3D
:101150000000F0BF000050C3FFFFEF7FFFFF1F3E06
:101160003C412D400000F03FFFFF3F439DA00600A3
:101170000000E03F00005043FFFF8F3C42464B46DB
:101180001BF02EFDDDE902231BF0DCFE02460B46C0
:10119000404649461BF022FDA2E758461BF06CFE74
:1011A00027A3D3E9002382468B461BF0CBFE26A360
:1011B000D3E9002380468946504659461BF0C2FEBB
:1011C000DDE900231BF00CFD02460B463046394694
:1011D0001BF004FD22462B461BF000FD02460B4689
:1011E000404649461BF0FAFC22E658461BF044FEF6
:1011F00015A3D3E9002306460F461BF0A3FEDDE945
:1012000000231BF0EDFC0EA3D3E9002304460D469A
:10121000304639461BF096FE02460B4620462946CC
:101220001BF0DEFC04E60022094B1BF0D7FC024653
:101230000B46504631461BF0D1FC1EE6AFF3008052
:101240000000E0FE422EE63F763C7935EF39EA3D7C
:101250000000F03F0000000008B51CF067FF04A389
:10126000D3E900231BF098FF08BD00BFAFF3008057
:10127000EF39FAFE422EE63F2DE9F043DFF8B48065
:101280008BB004460D4600F06BFF98F90030013337
:1012900006460F462BD022462B46204629461CF0F8
:1012A000EBF8814618BB204629461CF0C5FB1CA361
:1012B000D3E900231CF0D6F8C8B11B4A98F90030D6
:1012C000CDF820900321CDE90445CDE902458DE814
:1012D00006008BB9154B4FF06042CDE906236846F6
:1012E0001EF0C4FC70B1089B9BB9DDE9066730466F
:1012F00039460BB0BDE8F0830D490020022BCDE943
:101300000601ECD11EF002FE22230360089B002B95
:10131000EBD01EF0FBFD089B0360E6E7AFF3008017
:101320007DF8B98FCE3386409C2B0308FFFFEF4733
:101330000000F07F9A0300202DE9F043DFF8E480FD
:101340008BB004460D4600F0BBFF98F90030013326
:1013500006460F4633D0204629461EF081FC70B366
:1013600029A3D3E90023204629461CF07BF88146B7
:1013700050BB27A3D3E90023204629461CF054F88C
:10138000E8B198F90030244ACDF8209004260020D6
:101390000021022BCDE90445CDE9024500960192DA
:1013A000CDE9060129D068461EF060FC28B3089BF1
:1013B0001BB11EF0ABFD089B0360DDE906673046FC
:1013C00039460BB0BDE8F083134A98F9003001921A
:1013D00003210022CDE90445CDE9024500910892A0
:1013E0002BB90E4B4FF06042CDE90623DBE70C49E9
:1013F0000020022BCDE90601D5D11EF087FD222366
:101400000360D4E7AFF30080EF39FAFE422E864046
:1014100051302DD5104987C0A42B0308FFFFEF479B
:101420000000F07F9A0300202DE9F84FC44E21F010
:101430000043B3420C4605460DDD03F1404303F57E
:101440008013034340F0B980002940F3408100201D
:101450000021BDE8F88FBB4EB34240F3A6800029BF
:10146000C0F2788102460B460020B7491BF0B6FB5C
:101470000022B64B1BF066FD04460D461DF06EFBC8
:1014800095A3D3E9002389468046294620461BF0D0
:1014900059FD93A3D3E900231BF0A2FB22462B4660
:1014A0001BF050FD90A3D3E900231BF097FB2246CD
:1014B0002B461BF047FD8EA3D3E900231BF090FBC6
:1014C00022462B461BF03EFD8BA3D3E900231BF0E5
:1014D00085FB22462B461BF035FD89A3D3E900236B
:1014E0001BF07EFB22462B461BF02CFD86A3D3E986
:1014F000002382468B46204629461BF023FD84A309
:10150000D3E900231BF06AFB22462B461BF01AFD91
:1015100081A3D3E900231BF063FB22462B461BF07B
:1015200011FD7FA3D3E900231BF058FB22462B4675
:101530001BF008FD0022844B1BF052FB02460B46B9
:10154000504659461BF028FE42464B461BF0FAFC1B
:10155000002682468B4632464B46304649461BF0B3
:10156000F1FC02460B46204629461BF037FB32466B
:1015700004460D464B46404649461BF031FB0246A9
:101580000B46204629461BF007FE02460B465046F6
:1015900059461BF025FB32464B461BF021FB024609
:1015A0000B461BF01DFBBDE8F88F694A93420EDC29
:1015B0005DA1D1E90001BDE8F88F02460B461BF0A2
:1015C0000DFB02460B461BF0E7FDBDE8F88F024617
:1015D0000B461BF0B7FC40A3D3E9002306460F4699
:1015E0001BF0B0FC3EA3D3E900231BF0F9FA32460E
:1015F0003B461BF0A7FC3CA3D3E900231BF0EEFA0B
:1016000032463B461BF09EFC39A3D3E900231BF076
:10161000E7FA32463B461BF095FC37A3D3E900239B
:101620001BF0DCFA32463B461BF08CFC34A3D3E9BA
:1016300000231BF0D5FA32463B461BF083FC32A355
:10164000D3E9002380468946304639461BF07AFCB0
:101650002FA3D3E900231BF0C1FA32463B461BF00F
:1016600071FC2DA3D3E900231BF0BAFA32463B46A6
:101670001BF068FC2AA3D3E900231BF0AFFA324623
:101680003B461BF05FFC00222F4B1BF0A9FA0246E1
:101690000B46404649461BF07FFD2A4623461BF079
:1016A00051FC02460B4622A1D1E900011BF096FA3B
:1016B00002460B46284621461BF090FA02460B468E
:1016C00019A1D1E900011BF089FABDE8F88F1AA130
:1016D000D1E90001BDE8F88F09F7FD0DE13D023FBA
:1016E00088B20175E0EF493F3B8F68B52882A43F7F
:1016F0005544880E55C1C93F7D6FEB0312D6D43FC8
:10170000555555555555C53F82922EB1C5B8B33F75
:1017100059018D1B6C06E63FC88A599CE52A00409A
:101720004B2D8A1C273A0340182D4454FB21F93FC6
:10173000075C143326A6913C182D4454FB21094024
:10174000FFFFEF3FFFFFDF3F0000F03F0000E03F03
:101750000000603C00225C4B1BF042FA00225B4B15
:101760001BF0F0FB40A3D3E9002304460D461BF019
:10177000E9FB3FA3D3E900231BF032FA22462B46B4
:101780001BF0E0FB3CA3D3E900231BF027FA224621
:101790002B461BF0D7FB3AA3D3E900231BF020FA1A
:1017A00022462B461BF0CEFB37A3D3E900231BF0C8
:1017B00015FA22462B461BF0C5FB35A3D3E90023BF
:1017C0001BF00EFA22462B461BF0BCFB80468946D6
:1017D000204629461DF0C2F92FA3D3E9002306466F
:1017E0000F46204629461BF0ADFB2DA3D3E900236D
:1017F0001BF0F4F922462B461BF0A4FB2AA3D3E9E5
:1018000000231BF0EDF922462B461BF09BFB28A37F
:10181000D3E900231BF0E2F922462B461BF092FB92
:101820000022294B1BF0DCF902460B464046494694
:101830001BF0B2FC32463B461BF084FB1EA3D3E9EF
:1018400000231BF0CBF932463B461BF0C9F9024698
:101850000B461BF0C5F902460B4619A1D1E9000160
:101860001BF0BCF9BDE8F88F09F7FD0DE13D023F23
:1018700088B20175E0EF493F3B8F68B52882A43FED
:101880005544880E55C1C93F7D6FEB0312D6D43F36
:10189000555555555555C53F82922EB1C5B8B33FE4
:1018A00059018D1B6C06E63FC88A599CE52A004009
:1018B0004B2D8A1C273A0340075C143326A6913C23
:1018C000182D4454FB2109400000F03F0000E03F88
:1018D000434A91422DE9F8430C46054639DD414A19
:1018E000914209DD02F17952914240DD02460B46F8
:1018F0001BF076F9BDE8F88301F1404202F5801251
:10190000024330D0B1F1804F3ADC0022364B1BF05D
:1019100065F902460B4604460D461BF061F9224666
:1019200006460F462B46204629461BF00BFB024677
:101930000B46304639461BF053F91DF00FF90B46A4
:101940000246294620461BF04BF9BDE8F843FFF755
:101950004BBA02460B461BF041F902460B461BF000
:101960001BFCBDE8F88300200021BDE8F88300F0EF
:101970001FFE19A3D3E900231BF032F9BDE8F88359
:1019800002460B461BF0DEFA0022174B1BF026F92D
:101990001DF0E4F82A46804689462346284621461B
:1019A0001BF01EF9424606460F464B462846214686
:1019B0001BF016F902460B4600200B491BF0ECFB0E
:1019C0000B460246394630461BF008F9BDE8F8439D
:1019D00000F0EEBDAFF30080EF39FAFE422EE63F95
:1019E000FFFFEF3FFFFFAF410000F03F00000000AE
:1019F0002DE9F047C44B21F00048984584B00D46CE
:101A0000044616DD08F1404808F58018034658EAF8
:101A1000030326D002460B461BF0E0F80B460246B5
:101A20001BF0BAFB04460B462046194604B0BDE83D
:101A3000F087B64B98458A462EDCB8F1795F80F284
:101A40006D8195A3D3E900231BF0CAF80022B04BA7
:101A50001BF008FD00B32B462046194604B0BDE834
:101A6000F0878FA3D3E900231BF06CFA8EA3D3E990
:101A7000002306460F46204629461BF063FA02461D
:101A80000B46304639461BF0ABF804460B46204661
:101A9000194604B0BDE8F087204629461BF0CCFF6C
:101AA00002460B4600209A491BF098F80022994BF9
:101AB0001BF048FA7EA3D3E9002304460D461BF031
:101AC00041FA7DA3D3E900231BF08AF822462B4676
:101AD0001BF038FA7AA3D3E900231BF07FF82246E3
:101AE0002B461BF02FFA78A3D3E900231BF078F8DC
:101AF00022462B461BF026FA75A3D3E900231BF0E0
:101B00006DF822462B461BF01DFA73A3D3E9002380
:101B10001BF066F822462B461BF014FA70A3D3E99B
:101B20000023CDE90001204629461BF00BFA6EA3E5
:101B3000D3E900231BF052F822462B461BF002FA91
:101B40006BA3D3E900231BF04BF822462B461BF076
:101B5000F9F969A3D3E900231BF040F822462B468C
:101B60001BF0F0F96A4B00221BF03AF8CDE90201B4
:101B7000204629461CF0F2FF674B984506460F4663
:101B800067DCDDE90223DDE900011BF005FB3246DD
:101B9000CDE900013B46304639461BF021F80246AC
:101BA0000B46DDE900011BF0CDF94FF00008CDE94F
:101BB000000142463B46404639461BF0C3F9024607
:101BC0000B46204629461BF009F8424604460D46BE
:101BD0003B46304639461BF003F802460B4620468A
:101BE00029461BF0D9FA02460B461AF0F9FF0246C5
:101BF0000B462DA1D1E900011AF0F0FF02460B4679
:101C0000DDE900011AF0EAFF424604460D463B4674
:101C1000404639461AF0E4FF02460B4638A1D1E9A6
:101C200000011AF0DBFF02460B46204629461AF057
:101C3000D5FF0B46024632A1D1E900011AF0CEFFD2
:101C400004460B46BAF1000F3FF7EEAE03F1004336
:101C5000EAE6DDE90223DDE900011BF09DFA3246E8
:101C60003B461BF06FF932463B461AF0B9FF02467D
:101C70000B461AF0B5FF0CA3D3E900231AF0AEFF10
:101C80000B46024606A1D1E900011AF0A7FF04465F
:101C90000B46D7E7AFF300809C7500883CE4377EA5
:101CA000182D4454FB21F93F075C143326A6913CC0
:101CB00009F7FD0DE13D023F88B20175E0EF493FB4
:101CC0003B8F68B52882A43F5544880E55C1C93F53
:101CD0007D6FEB0312D6D43F555555555555C53F2D
:101CE00082922EB1C5B8B33F59018D1B6C06E63FF9
:101CF000C88A599CE52A00404B2D8A1C273A03408C
:101D0000182D4454FB21E93FFFFFEF3FFFFFDF3F6A
:101D10000000F03F0000E03F3233EF3F02460B4649
:101D20001BF010F938A3D3E9002306460F461BF039
:101D300009F937A3D3E900231AF052FF32463B4694
:101D40001BF000F934A3D3E900231AF047FF324611
:101D50003B461BF0F7F832A3D3E900231AF040FF0B
:101D600032463B461BF0EEF82FA3D3E900231AF0CE
:101D700035FF32463B461BF0E5F82DA3D3E900239F
:101D80001AF02EFF32463B461BF0DCF82AA3D3E9BB
:101D9000002380468946304639461BF0D3F828A3F5
:101DA000D3E900231AF01AFF32463B461BF0CAF86B
:101DB00025A3D3E900231AF013FF32463B461BF05C
:101DC000C1F823A3D3E900231AF008FF32463B46AB
:101DD0001BF0B8F80022204B1AF002FF02460B4617
:101DE000404649461BF0D8F922462B461BF0AAF87C
:101DF00022462B461AF0F4FE04460B4620461946AE
:101E000004B0BDE8F08700BF09F7FD0DE13D023FDA
:101E100088B20175E0EF493F3B8F68B52882A43F47
:101E20005544880E55C1C93F7D6FEB0312D6D43F90
:101E3000555555555555C53F82922EB1C5B8B33F3E
:101E400059018D1B6C06E63FC88A599CE52A004063
:101E50004B2D8A1C273A03400000F03F0000000091
:101E60002DE9F84F5442144323F00049704E49EADB
:101E7000D474B44286460F4640D84442044321F00D
:101E8000004B4BEAD474B4428A4637D803F140443D
:101E900004F5801414434AD09C1704F0020444EA69
:101EA000D17450EA0B0131D052EA090137D0B14563
:101EB00052D0B34533D0ABEB09094FEA2959B9F1F8
:101EC0003C0F3BDC002B66DB704639461BF064F9A7
:101ED0001BF0B2FDFEF7C8FC012C58D0022C48D0F4
:101EE000002C5ED040A3D3E900231AF077FE40A374
:101EF000D3E900231AF072FEBDE8F88F10461946A8
:101F000072463B461AF06CFEBDE8F88F022C19D0E1
:101F1000032C10D138A1D1E90001BDE8F88FBAF146
:101F2000000F14DB36A1D1E90001BDE8F88FBDE850
:101F3000F84FFEF799BC3946BDE8F88F30A1D1E9DA
:101F40000001C9E72AA1D1E90001BDE8F88F2EA15F
:101F5000D1E90001BDE8F88FCB4524D0022CF1D0A7
:101F6000032CD7D0012C4FF0000027D00021BDE872
:101F7000F88F1DA3D3E900231AF030FE02460B466A
:101F80001BA1D1E900011AF029FEBDE8F88F01F18B
:101F90000041BDE8F88F19F13C0F95DA00200021CF
:101FA0009AE7BDE8F88F022C16D0032C0FD0012C35
:101FB00008D017A1D1E90001BDE8F88F4FF000412A
:101FC000BDE8F88F14A1D1E90001BDE8F88F14A194
:101FD000D1E90001BDE8F88F13A1D1E90001BDE806
:101FE000F88F00BFAFF30080075C143326A6A13C36
:101FF000182D4454FB210940182D4454FB2109C0DD
:10200000182D4454FB21F93F182D4454FB21F9BFEE
:10201000182D4454FB21E93F182D4454FB21E9BFFE
:10202000D221337F7CD902C0D221337F7CD90240B8
:102030000000F07F0000000043422DE9F047034319
:1020400021F00048424A48EAD373934206460F46BD
:1020500016D890454BD03F4B98458A461EDC3AA394
:10206000D3E9002304461AF0BBFD002200231BF035
:10207000F9F9002845D03B4620461946BDE8F087CF
:1020800002460B461AF0AAFD0B4602461BF084F8E6
:1020900004460B4620461946BDE8F0872E4B98456E
:1020A000044645462FDD0246434641461AF098FD58
:1020B000224606460F464346002025491AF08EFD6B
:1020C00002460B46304639461BF066F8FEF78CFE9A
:1020D000224B00221AF036FFBAF1000F04460B46DD
:1020E000D8DA01F1004320461946BDE8F087002206
:1020F00000231BF051F804460B4620461946BDE864
:10210000F0873446454622462B46204629461AF09B
:1021100067FD22462B4606460F461AF013FF22465D
:10212000804689462B46002009491AF057FD024691
:102130000B46404649461BF02FF832463B461AF004
:102140004FFDC3E7AFF300809C7500883CE4377E09
:102150000000F03FFFFF2F3EFFFFDF3F0000E03FAA
:102160004F4A2DE9F84321F0004494420B460546BE
:102170001BDC4C4A944222DD4B4A944263DD4B4ABD
:1021800094427BDD4A4A944246DD0132944240D07B
:1021900041A3D3E90023104619461AF0D3FE0646A0
:1021A0000F4630463946BDE8F88302460B461AF022
:1021B000C9FE06460F4630463946BDE8F8831BF097
:1021C0003BFC02F0A9FC00223A4B804689461AF0FB
:1021D00007FDB4F1725F06460F46ECDB42464B4604
:1021E000404649461AF0AEFE32463B4604460D468E
:1021F000304639461AF0F4FC02460B462046294682
:102200001AF0CAFF00222B4B1AF0EAFC06460F46D2
:10221000D1E7294A9042BBD8284619461BF00CFC4E
:102220000022264B1AF08EFE00F04AF800220446E7
:102230000D46224B1AF086FE22462B461AF082FEED
:1022400006460F46B7E71BF0F7FB00F039F800220F
:102250001A4B06460F461AF075FE32463B460446B8
:102260000D46002015491AF097FF02460B462046FE
:1022700029461AF0B5FC06460F469CE71BF0DCFB2E
:1022800000F01EF800220D4B1AF05CFE06460F46C9
:1022900091E700BFAFF300809C7500883CE4377E77
:1022A000FFFFEF7F422ED63FFFFF3540412E864095
:1022B000CD3386400000F03F7DF8B98F0000E03F4D
:1022C0002DE9F04FB04F21F00042BA4283B00C46E6
:1022D0004FEAD17605460DD9AC4FBA4225D9C1F3A4
:1022E0001303034340F0EF800EB10020014603B01A
:1022F000BDE8F08FA64B9A4200F2CC80A54B9A42E3
:1023000000F2DE808AA3D3E900231AF069FC0022E0
:10231000A14B1BF0A7F8002800F0058128462146B4
:1023200000229D4B1AF05CFCE1E783A3D3E9002374
:102330001BF098F8002840F0CB802846214680A367
:10234000D3E900231BF070F80028CED1934B284628
:1023500003EBC60621467CA3D3E900231AF0F2FD65
:10236000D6E900231AF03CFC1BF09CF880461AF0DA
:1023700083FD77A3D3E9002306460F461AF0E2FD5A
:1023800002460B46284621461AF028FC72A3D3E9E0
:102390000023CDE90001304639461AF0D3FD8246CC
:1023A0008B4652465B46DDE900011AF017FC0546F4
:1023B0000C462A462346284621461AF0C3FD68A348
:1023C000D3E9002306460F461AF0BCFD66A3D3E905
:1023D00000231AF003FC32463B461AF0B3FD64A317
:1023E000D3E900231AF0FCFB32463B461AF0AAFD63
:1023F00061A3D3E900231AF0F1FB32463B461AF001
:10240000A1FD5FA3D3E900231AF0EAFB32463B4665
:102410001AF098FD02460B46284621461AF0DEFBCC
:1024200006460F462846214632463B46B8F1000F85
:1024300056D01AF087FD324604460D463B46002032
:102440004FF080411AF0CAFB02460B46204629464F
:102450001AF0A2FE02460B46504659461AF0BEFB41
:10246000DDE900231AF0BAFB0B4602464A49002078
:102470001AF0B4FB6FF47F7398454FDA08F57A7859
:1024800001EB085100224FF0B8731AF05BFD03B066
:10249000BDE8F08F424B9A423FF658AF414BF400F3
:1024A0002344D3E900231AF099FB3F4BC6F10108FE
:1024B0002344CDE90001D3E900ABA8EB060870E79F
:1024C0004FF0000875E702460B461AF089FB0EE74D
:1024D00017A3D3E90023104619461AF033FD06E787
:1024E0001AF030FD0022804689464FF08043304686
:1024F00039461AF073FB02460B46404649461AF02D
:102500004BFE2A4623461AF069FB02460B46002082
:1025100021491AF063FB03B0BDE8F08F01EB0851CD
:1025200003B0BDE8F08F804643E700BFAFF3008003
:102530009C7500883CE4377EEF39FAFE422E8640D7
:1025400051302DD5104987C0FE822B654715F73FC6
:102550000000E0FE422EE63F763C7935EF39EA3D59
:10256000D0A4BE726937663EF16BD2C541BDBB3E99
:102570002CDE25AF6A56113F93BDBE166CC1663F77
:102580003E5555555555C53F412E8640FFFFEF7FBF
:10259000422ED63FFFFF2F3E0000F03FA00F030862
:1025A000B1A2F03FB00F0308C00F03080000000005
:1025B0002DE9F04FB1F5801F85B006460F460B465A
:1025C0005ADA024621F00044224300F0F880002944
:1025D000C0F27A810022D64B1AF0B4FCD54A0B46E1
:1025E000934206460F466FF0350C4ADCC3F31305E1
:1025F00005F5152E0EF6647E0EF4801E8EF07F52C9
:1026000082F440121C1542EA0507A4F2FF34644428
:102610000022C94B3046394604EB1E541AF0DEFA4C
:10262000AB1CC3F31303022B82468B464FF0000210
:1026300030DC00231AF0EEFE002800F0C980002CE8
:1026400000F04B8120461AF017FCA5A3D3E9002324
:1026500006460F461AF076FCA3A3D3E900230446EE
:102660000D46304639461AF06DFC02460B462046B0
:1026700029461AF0B5FA0AE0AE4A93424FF0000C30
:10268000B4DD32463B46304639461AF0A9FA05B069
:10269000BDE8F08F4FF080431AF0A2FA02460B46D5
:1026A000504659461AF078FD064620460F461AF065
:1026B000E3FB3246CDE900013B4630463946CDE9E1
:1026C00002671AF03FFC02460B46804689461AF024
:1026D00039FC87A3D3E9002306460F461AF032FCE3
:1026E00085A3D3E900231AF07BFA32463B461AF061
:1026F00029FC83A3D3E900231AF072FA32463B4641
:102700001AF020FC80A3D3E900231AF069FA4246AC
:102710004B461AF017FC7EA3D3E900238046894676
:10272000304639461AF00EFC7BA3D3E900231AF099
:1027300057FA32463B461AF005FC79A3D3E9002349
:102740001AF04EFA32463B461AF0FCFB0B460246A4
:10275000494640461AF044FAA5F5C223C5F5D725E7
:10276000A3F27A4351351D43002D8046894656DD3C
:102770000022724B504659461AF0E4FB52465B4623
:102780001AF0E0FB06460F46002C68D132463B4665
:10279000404649461AF024FADDE902231AF0D2FB3A
:1027A00002460B46304639461AF018FA02460B46E6
:1027B000504659461AF012FA05B0BDE8F08F0022D3
:1027C000002300205E491AF0E7FC05B0BDE8F08F59
:1027D00055A3D3E90023504659461AF0B3FB0246ED
:1027E0000B46002055491AF0F9F9524606460F46A5
:1027F0005B46504659461AF0A5FB02460B4630464A
:1028000039461AF09FFB06460F46002C40F09A808E
:1028100002460B46504659461AF0E0F937E7002CBD
:1028200000F0A4802EA3D3E90023DDE900011AF013
:1028300089FB42464B4604460D46504659461AF01F
:10284000CDF9DDE902231AF07DFB27A3D3E90023AC
:1028500006460F46DDE900011AF074FB21E020A3D3
:10286000D3E90023DDE900011AF06CFB32463B4658
:1028700004460D46404649461AF0B2F9DDE9022306
:102880001AF060FB18A3D3E9002380468946DDE9EE
:1028900000011AF057FB02460B46404649461AF023
:1028A0009FF902460B46304639461AF097F95246D0
:1028B0005B461AF093F902460B46204629461AF069
:1028C0008DF905B0BDE8F08F02460B461AF086F987
:1028D000002200231AF060FCD9E600200021D6E691
:1028E0000000E0FE422EE63F763C7935EF39EA3DC6
:1028F00044523EDF12F1C23FDE03CB966446C73F2F
:10290000599322942449D23F935555555555E53F47
:102910009FC678D0099AC33FAF788E1DC571CC3F52
:1029200004FA97999999D93F555555555555D53F1D
:1029300000005043FFFFEF7F0000F03F0000E03F4A
:10294000000050C320461AF097FA0FA3D3E90023E2
:10295000804689461AF0F6FA0DA3D3E9002304460F
:102960000D46404649461AF0EDFA9AE702460B46F4
:10297000504659461AF032F9DDE902231AF0E2FA1C
:1029800014E700BFAFF300800000E0FE422EE63FF8
:10299000763C7935EF39EA3DB1F5801F2DE9F843F2
:1029A00004460D460B461ADA024621F00046324331
:1029B00059D000295FDB00223B4B1AF0C3FA3B4A97
:1029C0000B4693420D4604466FF035010CDD22465E
:1029D0002B46204629461AF003F9BDE8F883334A0E
:1029E00093424FF00001F2DC1815A0F2FF300844CA
:1029F0004FEAD0794844C3F313081AF03DFAC9F5F9
:102A00007F73033348EA035506460F46204629469E
:102A1000FFF7CEFD1EA3D3E900238046894630464A
:102A200039461AF08FFA1CA3D3E9002304460D4659
:102A3000404649461AF086FA02460B462046294689
:102A40001AF0CEF816A3D3E9002304460D4630460B
:102A500039461AF077FA02460B46204629461AF004
:102A6000BFF8BDE8F88300220023002010491AF0C7
:102A700093FBBDE8F88302460B461AF0AFF800223C
:102A800000231AF089FBBDE8F88300BFAFF3008094
:102A9000362BF111F3FE593D0EE526157BCBDB3FBE
:102AA00000609F501344D33F00005043FFFFEF7F6F
:102AB000000050C3000000002DE9F04F23F0004754
:102AC00057EA020493B037D0674C21F00046A64283
:102AD00083460D4629DC9A46964625D0A74224DC3B
:102AE000614CA74279D0002D89468046CDE900236C
:102AF00077DB0024BEF1000F2CD15B4B9F4200F02E
:102B00008B805A4B9F4261D0BAF1804F00F0BA835C
:102B1000574B9A451ED1002D1CDB4046494613B049
:102B2000BDE8F04F1CF01AB858B106F1404606F562
:102B3000801656EA0B0306D14C49002013B0BDE8BD
:102B4000F08FB742CCDD4B4813B0BDE8F04F1DF01D
:102B50008FB80024404649461AF06EFFBBF1000FC3
:102B600019D126B1414B25F040429A4213D1BAF116
:102B7000000FC0F2BC83002DE0DA06F1404606F5F6
:102B8000801656EA040300F08F84012CD6D101F19F
:102B900000431946D2E7ED0F013D54EA05034ED03C
:102BA000354B9F426EDD03F104739F4240F3E8838F
:102BB000324B9E424EDDBAF1000F4EDD28A3D3E921
:102BC0000023104619461AF0BDF9B7E7BAF1000F15
:102BD000C0F23C8440464946B0E7BEF1000F82D0C7
:102BE000A3E7274B9F4228DCA3F154739F4280DD6B
:102BF0003B15A3F2FF33142B40F33E84C3F134039F
:102C00002EFA03F202FA03F39E457FF472AF02F04C
:102C10000102C2F102046DE706F1404303F580139F
:102C200053EA0B0388D0154B9E4240F33283BAF12E
:102C3000000F12DBDDE9000180E702245AE742467B
:102C40004B464046494619F0C9FF02460B461AF06A
:102C5000A3FA73E7BAF1000FB0DB002000216DE7A3
:102C60009C7500883CE4377E0000F07F0000F03F58
:102C70000000E03FE41803080000E041FFFFEF3FE1
:102C8000FFFF3F43B6F5801F4FF0000205DAD44B3B
:102C90001AF058F96FF034020E463315D14FC6F3CF
:102CA0001306A3F2FF33134446F07F5ABE421A467E
:102CB0000D934AF4401A40F32183CB4B9E4240F3DC
:102CC000FD83134601330D93C84B0022CDE9062343
:102CD00000270026CDE90867CDE90E67AAF5801A1E
:102CE0000027024653465146CDE90A23DDE9062373
:102CF00019F074FFDDE9062380468946DDE90A0103
:102D000019F06EFF02460B460020B8491AF044FA4B
:102D10000A460146CDE9101213464946024640468E
:102D20001AF010F94FEA6A0343F000538C468346C9
:102D300003F50023CDE904BCDA468B46D9190023FC
:102D4000CDE902AB0293DDE902AB002006460F4657
:102D500002460B46504659461AF0F4F802460B4616
:102D60004046494619F03AFFDDE906238046894688
:102D70003046394619F032FF02460B46DDE90A01BA
:102D800019F02CFF52465B461AF0DCF802460B465F
:102D90004046494619F022FFDDE910231AF0D2F827
:102DA000DDE90467CDE9060132463B463046394647
:102DB0001AF0C8F878A3D3E9002306460F461AF0A4
:102DC000C1F877A3D3E9002319F00AFF32463B4646
:102DD0001AF0B8F874A3D3E9002319F001FF3246C2
:102DE0003B461AF0AFF872A3D3E9002319F0F8FEBE
:102DF00032463B461AF0A6F86FA3D3E9002319F038
:102E0000EFFE32463B461AF09DF86DA3D3E900234E
:102E100019F0E6FE3246804689463B463046394642
:102E20001AF090F802460B46404649461AF08AF8D6
:102E3000524606460F465B46DDE9040119F0D0FE16
:102E4000DDE906231AF07EF832463B4619F0C8FE4B
:102E50005246804689465B46504659461AF072F8FB
:102E60000022634BCDE90A0119F0BAFE42464B46F7
:102E700019F0B6FE02980F46064632463B465046CB
:102E800059461AF05FF8002282468B46584B30466E
:102E9000394619F0A3FEDDE90A2319F09FFE024628
:102EA0000B464046494619F099FEDDE904231AF025
:102EB00049F83246804689463B46DDE906011AF06C
:102EC00041F802460B464046494619F089FE8046C5
:102ED000894602460B4650465946CDE904AB19F0E7
:102EE0007FFEDDE902AB38A3D3E9002350460F464D
:102EF0001AF028F8DDE90423CDE9020139465046ED
:102F000019F06CFE02460B464046494619F066FE33
:102F10002FA3D3E900231AF015F82FA3D3E9002338
:102F200080468946504639461AF00CF802460B4650
:102F30004046494619F054FEDDE90E2319F050FED3
:102F400080460D98894619F097FF424606460F467F
:102F50004B46DDE9020119F043FEDDE9082319F0D3
:102F60003FFE32463B4619F03BFE32463B4650465A
:102F70008B4619F033FEDDE9082319F02FFEDDE959
:102F8000022319F02BFE02460B464046494619F033
:102F900025FE80462EE000BFEF4E454A287ECA3F00
:102FA00065DBC9934A86CD3F01411DA96074D13FBD
:102FB0004D268F515555D53FFFAB6FDBB66DDB3FCF
:102FC000033333333333E33F000000E009C7EE3F00
:102FD000FD033ADC09C7EE3FF5015B14E02F3EBE6E
:102FE000000040438E98030079B60B000000F03FCC
:102FF000000008408946013C54EA0503DDE9000170
:1030000014BFD94CD94C0023CDE9043403460C46F7
:10301000CDE9023400230293DDE9024522462B4626
:1030200019F0DCFD52465B4619F08CFFDDE9002308
:1030300006460F464046494619F084FF02460B46B5
:103040003046394619F0CCFD2246804689462B464B
:1030500050465946CDE9008919F074FF0B460246E7
:1030600006460F464046494619F0BAFDC04B994204
:1030700004460D468A4640F3168101F13F4303F5AD
:10308000E003034340F0EA81A3A3D3E90023DDE991
:10309000000119F0A5FD3246804689463B46204690
:1030A000294619F09BFD02460B46404649461AF058
:1030B000D9F9002840F0D281A8464FEA28534FF4AE
:1030C0008012A3F2FE3342FA03F35344C3F30A52CD
:1030D000A84DA2F2FF321541C3F3130423EA050100
:1030E0000020C2F1140B44F48014BAF1000F024620
:1030F0000B4644FA0BFB30463946B8BFCBF1000B08
:1031000019F06CFD02460B4606460F46DDE900014C
:1031100019F066FD4FEA0B5A0D46002480A3D3E94F
:1031200000232046294619F00DFF32468046894685
:103130003B462046294619F051FD02460B46DDE983
:10314000000119F04BFD78A3D3E9002319F0FAFE32
:1031500077A3D3E9002306460F462046294619F0F7
:10316000F1FE02460B463046394619F039FD064657
:103170000F4602460B464046494619F031FD42468D
:103180004B4604460D4619F029FD02460B463046D3
:10319000394619F023FD2246804689462B462046B3
:1031A000294619F0CFFE64A3D3E9002306460F4653
:1031B00019F0C8FE62A3D3E9002319F00FFD3246CF
:1031C0003B4619F0BFFE60A3D3E9002319F008FDC8
:1031D00032463B4619F0B6FE5DA3D3E9002319F051
:1031E000FDFC32463B4619F0ADFE5BA3D3E900235C
:1031F00019F0F6FC32463B4619F0A4FE02460B4697
:103200002046294619F0EAFC06460F4602460B46C0
:103210002046294619F096FE0022CDE900014FF024
:1032200080433046394619F0D9FC02460B46DDE9A9
:10323000000119F0B1FF424606460F464B462046B4
:10324000294619F07FFE42464B4619F0C9FC02465A
:103250000B463046394619F0C1FC22462B4619F080
:10326000BDFC02460B4600203F4919F0B7FC8A44DA
:10327000BAF5801FC0F233815146DDE9042319F00D
:1032800061FE5BE4424640464B46494619F05AFE11
:1032900054E4BAF1000FBFF6E0ACDDE900341846A3
:1032A00004F100414AE4344B21F00048984540F3D2
:1032B000F280324B0B4403430CD132463B4619F0AB
:1032C0008DFC02460B46DDE900011AF0B7F8002834
:1032D0003FF4F3AEDDE9040121A3D3E9002319F0A3
:1032E00031FE1FA3D3E9002319F02CFE26E4024689
:1032F0000B4600201C4919F04FFF3CE4002200233C
:10330000CDE90823CDE90E23174B00220027CDE994
:103310000623E6E4AFF30080FE822B654715973C59
:1033200000000000432EE63FEF39FAFE422EE63F52
:10333000396CA80C615C20BED0A4BE726937663EB1
:10334000F16BD2C541BDBB3E2CDE25AF6A56113FA5
:1033500093BDBE166CC1663F3E5555555555C53F8C
:1033600059F3F8C21F6EA5010000F03F0000F0BF46
:10337000FFFF8F40FFFF0F00FFCB904000346F3FF7
:103380006B4B9E427FF766AC6A4B9E423FF713AC95
:103390000022684B19F022FC57A3D3E9002306460C
:1033A0000F4619F0CFFD56A3D3E900238046894686
:1033B0003046394619F0C6FD002282468B465E4BE8
:1033C0003046394619F0BEFD02460B464EA1D1E902
:1033D000000119F003FC32463B4619F0B3FD0246EA
:1033E0000B460020554919F0F9FB3246CDE90201A0
:1033F0003B463046394619F0A5FD02460B46DDE94D
:10340000020119F09FFD42A3D3E9002319F09AFDB0
:1034100002460B465046594619F0E0FB02460B4661
:1034200006460F464046494619F0DAFB42464B46EF
:10343000002082468B4619F0D1FB02460B463046EF
:10344000394619F0CBFB80468946D4E542464B46C7
:103450000020384919F0A0FEFFF770BBDDE9040138
:103460002DA3D3E9002319F06DFD2BA3D3E900238D
:1034700019F068FDFFF762BBBEF1000F7FF469AB86
:10348000C3F1140347FA03F202FA03F39F422AD06E
:103490007446FFF736BB294B98453FF70EAEDDE982
:1034A00002239246934638E602460B4619F096FBF5
:1034B00002460B4619F070FEFFF740BB18A3D3E994
:1034C0000023CDE9082318A3D3E90023CDE90E2377
:1034D0001B4B00224FF48027CDE9062301E45A4616
:1034E00001F05AFDC9E602F00102C2F10204FFF741
:1034F00008BB00BFAFF30080000000604715F73F36
:1035000044DF5DF80BAE543E555555555555D53FE6
:10351000FE822B654715F73F9C7500883CE4377E9B
:103520000000004003B8E23F06D0CF43EBFD4C3E25
:10353000FEFFEF3F0000F03F0000D03F0000E03F03
:103540000000F83F000000002DE9F04F9A4E21F0F6
:103550000047B74291B040F38E809246974A974217
:103560000C4626DC00298AA3D3E9002340F3B4816A
:1035700019F034FB924B9F4204460D4600F09080B8
:1035800085A3D3E9002319F029FB02460B46CAE9BB
:1035900000232046294619F021FB7FA3D3E900230D
:1035A00019F01CFB0125CAE90201284611B0BDE84B
:1035B000F08F844A974240F39080834A974265DCBB
:1035C0003D15A5F21645A7EB055319461F460646BD
:1035D00019F068FF19F050FC8046894602460B46F8
:1035E00030463946CDE90A8919F0F8FA0022774BBE
:1035F00019F0A8FC8946804619F054FF19F03CFCEC
:1036000002460B4606460F4640464946CDE90C6742
:1036100019F0E4FA00226D4B19F094FC002200230B
:10362000CDE90E0119F0F6FE002800F073810023A9
:1036300030463946002219F0EDFE002814BF012360
:103640000223634A019202212A4600910AA85146A8
:1036500000F086FB002C054614DADAF80420DAF8CC
:103660000C3002F1004203F100434542CAF8042045
:10367000CAF80C3006E0C2E9000100250024C2E9C6
:1036800002450025284611B0BDE8F08F02460B46E2
:1036900019F0A4FA0025CAE90201CAE90001F1E71C
:1036A0003FA3D3E9002319F099FA3FA3D3E90023FC
:1036B0000D46044619F092FA02460B46CAE9002369
:1036C0002946204619F08AFA37A3D3E9002319F0D6
:1036D00085FA0125CAE90201D4E71AF0ADF934A34D
:1036E000D3E900238046894619F02CFC0022394B8F
:1036F00019F076FA19F0D6FE054619F0BDFB24A3A1
:10370000D3E90023CDE9040119F01CFC02460B4665
:103710004046494619F062FA1FA3D3E900238046C8
:103720008946DDE9040119F00DFC1F2DCDE90201E8
:1037300054DC294B6A1E53F822309F424ED0024679
:103740000B464046494619F049FA02460B46CAE97B
:10375000002383460E465A4633464046494619F0F2
:103760003DFADDE9022319F039FA002C02460B4636
:10377000CAE9022386DA5B4606F1004601F1004100
:103780008AE84800CAF80C10CAF808006D4279E7C8
:1037900000004054FB21F93F3163621A61B4D03D0F
:1037A0000000601A61B4D03D7370032E8A19A33BE8
:1037B00083C8C96D305FE43FFB21E93F7BD90240FC
:1037C000FB21F93FFB213941FFFFEF7F00007041F2
:1037D000602C03080000E03FE02B0308DDE9022332
:1037E0004046494619F0FAF93A15C1F30A53D31A7B
:1037F000102B83460E460992CAE90001ABDD58A39F
:10380000D3E90023DDE9040119F09CFB06460F46CD
:1038100002460B464046494619F0E0F9CDE906015B
:1038200002460B464046494619F0D8F932463B4617
:1038300019F0D4F94CA3D3E9002306460F46DDE97D
:10384000040119F07FFB32463B4619F0C7F9DDE968
:103850000689CDE9020102460B464046494619F069
:10386000BDF90B46C1F30A570E460999CF1B024614
:10387000312F8346CAE900236CDD3DA3D3E9002341
:10388000DDE9040119F05EFB06460F4602460B46D1
:1038900040464946CDE9068919F0A0F902460B4693
:1038A00080468946DDE9060119F098F932463B4623
:1038B00019F094F930A3D3E9002306460F46DDE959
:1038C000040119F03FFB32463B4619F087F90246E6
:1038D0000B46CDE9022334E719F082F92A4B9F42C7
:1038E00004460D4618D026A3D3E9002319F078F931
:1038F00002460B46CAE900232946204619F06EF914
:103900001FA3D3E9002319F06BF94FF0FF35CAE983
:103910000201B7E6032394E611A3D3E9002319F0CB
:103920005FF911A3D3E900230D46044619F058F9B5
:1039300002460B46CAE900232946204619F04EF9F3
:1039400009A3D3E9002319F04BF94FF0FF35CAE979
:10395000020197E6DDE90689FDE600BFAFF30080CE
:103960000000601A61B4D03D7370032E8A19A33B26
:103970000000002E8A19A33BC14920259A837B3978
:103980003163621A61B4D03DFB21F93F00000000B1
:10399000574A2DE9F84F21F0004890450E4607465A
:1039A0002BDC544B0029B4BF534D544D98454FF078
:1039B000000410DC524B98456EDC4BA3D3E9002386
:1039C00019F00EF900224F4B19F04CFDD8B13846D2
:1039D0003146BDE8F88F4C4B984579DD4B4B984507
:1039E00043DD013398453DD0384631463EA3D3E907
:1039F000002319F0A7FABDE8F88F02460B4619F02C
:103A0000EFF8BDE8F88F384631461AF015F801F0A6
:103A100083F806460F4632463B463046394619F093
:103A2000DFF8324682468B463B463046394619F02F
:103A300089FA002280468946324B3046394619F0D1
:103A4000CFF802460B464046494619F0A5FB024610
:103A50000B465046594619F0C1F822462B4619F03C
:103A600071FACEE72A4B9842BED83846314619F053
:103A7000E3FF0022214B19F065FAFEF721FC064610
:103A80000F4602460B462046294619F05BFA32469D
:103A90003B4619F057FAB4E719F0CEFF01F03CF8B5
:103AA0001C4B984506460F46B5DD0022154B19F014
:103AB00097F802460B463046394619F06DFB324600
:103AC0003B4619F08DF822462B4619F03BFA98E751
:103AD00019F0B2FFFEF7F4FB02460B4620462946DA
:103AE00019F030FA8DE700BF3374AC3C1F7BAC7F1C
:103AF000FFFFEF7FFFFF35400000E0BF0000E03F29
:103B0000FFFF2F3E0000F03F412E8640CD33864020
:103B10007DF8B98FFFFFEF3F2DE9F04F21F0004610
:103B2000B6F1795F85B00C4692469B4605466BDA46
:103B300019F0B8FC002800F0E8802A462346284601
:103B4000214619F0FFF974A3D3E900238046894682
:103B500019F0F8F972A3D3E9002319F041F84246AD
:103B60004B4619F0EFF970A3D3E9002319F036F8AA
:103B700042464B4619F0E6F96DA3D3E9002319F04C
:103B80002FF842464B4619F0DDF96BA3D3E9002329
:103B900019F024F842464B4619F0D4F968A3D3E94A
:103BA000002319F01DF842464B4619F0CBF9CDE938
:103BB00000010022644B4046494619F0C3F9DDE993
:103BC000002306460F464046494619F0BBF95246C7
:103BD000804689465B462846214619F0B3F90246DD
:103BE0000B464046494618F0F9FF02460B46304660
:103BF000394618F0F3FF02460B460020534918F0EF
:103C0000EDFF05B0BDE8F08F02460B4619F09AF9BA
:103C100041A3D3E900238046894619F093F940A3D4
:103C2000D3E9002318F0DCFF42464B4619F08AF92D
:103C30003DA3D3E9002318F0D1FF42464B4619F0CB
:103C400081F93BA3D3E9002318F0CAFF42464B4653
:103C500019F078F938A3D3E9002318F0BFFF4246E2
:103C60004B4619F06FF936A3D3E9002318F0B8FFDB
:103C70004B46424619F066F9354B9E42CDE90001AC
:103C800097DD344B9E424FF0000238DCA6F500135E
:103C900000202E4916461F4618F0A0FFCDE902016C
:103CA0000022294B4046494619F04CF932463B4622
:103CB00018F094FFDDE9002306460F4640464946CA
:103CC00019F040F95246804689465B46284621460F
:103CD00019F038F902460B464046494618F07EFF77
:103CE00002460B463046394618F078FF02460B462E
:103CF000DDE9020118F072FF05B0BDE8F08F164B48
:103D0000164FCDE902230026CAE71049002005B06E
:103D1000BDE8F08FAFF30080D43888BEE9FAA8BDC3
:103D2000C4B1B4BD9EEE213EAD529C804F7E923E0A
:103D30009015CB19A001FA3E7751C1166CC1563FC0
:103D40004C5555555555A53F0000E03F0000F03F4C
:103D50003233D33F0000E93F0000E73F0000D23F8D
:103D60002DE9F04FADF5197D9C4CA29E9C4D54F869
:103D7000264005942646D41E85FB0475E417C4EB43
:103D8000A50424EAE4741D460893631CA3EB830393
:103D9000013D02EBC30304932B4609940295651B76
:103DA000F418039006911AD42C4401340DF17808CC
:103DB00000260027DDF88C9208E059F8250019F05C
:103DC0005BF80135A542E8E9020108D0002DF4DADC
:103DD000013530463946A542E8E90201F6D1059B96
:103DE000002B2EDB089B4FEAC309039BA9F10808AF
:103DF000984420AB9944059B70AA02EBC30B0DF5C8
:103E0000DC7A029B002BC0F20F83039B4D46A3F18B
:103E100008040026002775E90223F4E9020119F0DD
:103E200091F802460B463046394618F0D9FE444513
:103E300006460F46EFD1EAE90267DA4509F10809BB
:103E4000DFD10598089A009000F18043013B9B0068
:103E50000CAC191F234402F100520B93039B013A4F
:103E600021440A9103EBC20B009A98A901EBC2030B
:103E7000002A53E9284513462BDD01EBC308A8F1BE
:103E8000A8080DF12C090DF5DC7A0022554B2046CF
:103E9000294619F057F819F005FB18F0EDFF00223C
:103EA000514B06460F4619F04DF802460B46204688
:103EB000294618F093FE19F0F5FA78E8022349F83C
:103EC000040F3946304618F08BFED04504460D46A7
:103ED000DBD1DDF81090204629464A4601F05CF817
:103EE00000224FF07F5304460D4619F02BF8FCF7E3
:103EF000EFFE00223D4B19F025F802460B46204606
:103F0000294618F06BFE0D46044619F0CBFA8046A0
:103F100018F0B2FF0B4602462946204618F05EFE16
:103F20004B46002B06460F4640F3F780009A0CA93B
:103F3000013AC9F1180351F8225045FA03F101FA88
:103F400003F30CA8EB1A40F82230C9F11705884496
:103F500043FA05F5002D63DD009B002B08F10108F5
:103F600040F381820C9C002C00F018830120002378
:103F70000CAAC4F1807442F82340009A824219DDF1
:103F80000CAA0CAC52F820106FF07F42511A44F882
:103F900020100099023399420CDD1046009A0CA9BA
:103FA00001EB830301EB82011A68821A43F8042BA8
:103FB0008B42F9D1049B002B1ADD049B012B4FF09F
:103FC000010440F05882009B5A1E0CAB0CA953F818
:103FD0002230C3F3160341F8223058E200310308BF
:103FE000ABAAAA2A0000703E0000704100002040E9
:103FF000022D15D132463B460020974918F0EEFDC0
:1040000006460F46049A9449002000F0C5FF024678
:104010000B463046394618F0E1FD022506460F46AC
:10402000002200233046394619F0F4F9002800F048
:104030005282009A059B501E83420FDC02F180439E
:10404000013B0CAA0B9C02EB8303002253F80419DA
:10405000A34242EA0102F9D1002A6FD1059B0CAAC2
:10406000013B52F82330002B40F033820A9A01239F
:1040700052F8041901330029FAD0009AD31802F13A
:10408000010A9A4507933DDC009B0899099A0B4465
:1040900007990AEB0208994620AB08F1804803EB28
:1040A000C9098B18A39A08F1FF3802EB880870AA97
:1040B00002EBCA0AA39A02EB8303009358F8040F99
:1040C00018F0DAFE029B002BE9E802011DDB039BDE
:1040D0004D46A3F108040026002775E90223F4E900
:1040E000020118F02FFF02460B463046394618F001
:1040F00077FD5C4506460F46EFD1009B9845EAE800
:104100000267DBD1079B0093AEE6009B00260027E9
:104110009845EAE80267D1D1F4E706D1009B0CAAE2
:10412000013B52F82350ED1514E700224B4B19F0D8
:104130008FF9002840F08281054671E70CA90295AD
:1041400051F820300499CDF81C80183902460090AF
:1041500004916BB900F18043013B0CA800EB830391
:1041600053F80409013A18390028F9D00092049153
:10417000049A3949002000F00FFF009B002B0446F1
:104180000D46C0F20382DA0070A901EB020B049223
:104190000CAA02EB8306DFF8C8900BF1080704367F
:1041A0004FF0000856F8040D18F066FE22462B4624
:1041B00018F0C8FE4B4667E90201424620462946F0
:1041C00018F0C0FE0CAB9E4204460D46EAD10DF538
:1041D000907ACDF80CA0DDF814A04FF00009BAF1E8
:1041E000000FC0F23D81DFF87C805D4618A1D1E967
:1041F000000100260027002403E04C4510DCF8E80D
:104200000201F5E8022318F09DFE02460B463046F7
:10421000394618F0E5FC0134A24506460F46ECDAB3
:10422000039B03EBC903ABF1080BC3E900676EAB5B
:104230005B4509F10109D2D1A29BDDF80CA0032B4B
:1042400000F28B80DFE813F0D100900090001000A6
:1042500000000040FB21F93F0000F03F0000E03F7C
:104260000000703EE80F0308009B002B40F3A48180
:10427000049B0AEB0308D8E90067D34658E9029A81
:1042800032463B464846514618F0AAFC04460D46C5
:1042900002460B464846514618F0A0FC32463B46C3
:1042A00018F09EFCC8E9000168E90245C3452646AE
:1042B0002F46E3D1009B012BDA4640F37D81049B1E
:1042C0005B44D3E90067984699460DF5947B59E91C
:1042D00002343246184621463B46CDE9000118F02B
:1042E0007FFC04460D4602460B46DDE9000118F04E
:1042F00075FC32463B4618F073FCC9E9000169E9D8
:104300000245CB4526462F46E1D1002308F1080897
:104310001D464CAC1846294678E9022318F060FC8B
:10432000444503460D46F5D1029A002A00F020814B
:10433000DAF80440DAF80C20069FDAF80010DAF810
:1043400008003B6105F1004504F1004402F1004220
:104350007D617C60FA603960B860079B03F00700FC
:104360000DF5197DBDE8F08F049C002608345444F7
:1043700033463046194674E9022318F031FC54459F
:1043800006460B46F5D1029A30461946002A00F03F
:10439000DA80069803F10044324644600660DAE9A8
:1043A000000118F01BFC0B460099002902460EDDA7
:1043B000012410461946FAE9022318F011FC0B46B5
:1043C00000990134A1420246F3DA029909B103F1DE
:1043D00000431946069B1046C3E90201079B03F000
:1043E00007000DF5197DBDE8F08F049C002208340C
:1043F000544413461046194674E9022318F0F0FBA2
:10440000A24502460B46F5D1029909B103F10043DA
:104410001946069B1046C3E90001079B03F00700FD
:104420000DF5197DBDE8F08F00260027EAE9026747
:10443000DA4509F108097FF4E4AC02E5009B002BA2
:1044400008F10108C8BF02253FF78CAD32463B4654
:104450000020634918F0C2FB022506460F46DFE53F
:1044600000260027DCE6049B002B26DD0024049BAD
:10447000012B3FF4A8AD022B09D1009B5A1E0CABB7
:104480000CA953F82230C3F3150341F82230022D52
:104490007FF4C6AD32463B460020514918F09EFBE2
:1044A00006460F46002C3FF4BBADABE50099013347
:1044B000994278D1049B002BD9DC022D7FF4B0AD5A
:1044C00032463B460020464918F088FB06460F4618
:1044D000A6E50123D1E53946049F02957A4230468C
:1044E000CDF81C8000F058FD00223E4B04460D46DE
:1044F00018F0AEFF002862D000223B4B2046294630
:1045000018F020FD18F0CEFF064618F0B5FC00228A
:10451000344B18F017FD02460B462046294618F08A
:104520005DFB18F0BFFF00990B4601331A4600935C
:104530003B46183304930B460CA941F8230013465D
:1045400041F8236014E6069B3246C3E900010B469E
:10455000DAE9000118F042FB0B46009900290246F7
:104560003FF726AF1946069B1046C3E9020135E71F
:1045700018462946DAE90023DAE90245069FC7E929
:104580000401C7E90023C7E90245E6E6A29B032B25
:104590003FF6E3AEDFE803F0211C1C0E009B012B6D
:1045A00088DD0CAA012352F8044F002C3FF47EAFA3
:1045B000581CDDE40DF5907A00231D46B4E629462B
:1045C000204618F06FFF009A0CA941F82200CFE5B1
:1045D000002633460DF5907AD5E60022134613E700
:1045E0000000F03F000070410000703E000000003D
:1045F0002DE9F04F21F00046B6F1795F85B00C4609
:1046000090469946054604DA18F04CFF002800F061
:1046100085802A4623462846214618F093FC064604
:104620000F4602460B462846214618F08BFC3EA357
:10463000D3E9002382468B463046394618F082FC87
:104640003BA3D3E9002318F0C9FA32463B4618F0E1
:1046500079FC39A3D3E9002318F0C2FA32463B466D
:1046600018F070FC36A3D3E9002318F0B7FA3246ED
:104670003B4618F067FC34A3D3E9002318F0B0FAE6
:104680000E9BCDE900019BB30022334B40464946C7
:1046900018F058FCDDE90023CDE9020150465946E7
:1046A00018F050FC02460B46DDE9020118F096FABC
:1046B00032463B4618F046FC42464B4618F08EFA0E
:1046C00023A3D3E9002306460F465046594618F067
:1046D00039FC02460B463046394618F081FA02464C
:1046E0000B462846214618F079FA05B0BDE8F08F50
:1046F00002460B463046394618F024FC14A3D3E991
:10470000002318F06BFA52465B4618F01BFC2A4651
:10471000234618F065FA05B0BDE8F08F284621461B
:1047200005B0BDE8F08F00BF7CD5CF5A3AD9E53D42
:10473000EB9C2B8AE6E55A3E7DFEB157E31DC73E52
:10474000D561C119A0012A3FA6F810111111813FAE
:10475000495555555555C53F0000E03F0000000044
:104760002DE9F04FDA4C21F00046A64287B08A4688
:1047700089461746984683461ADC18F093FEA8BB74
:104780005B461E43109B0133334300F0A981109B0D
:10479000012B00F0B9815A4653460020CD4918F04C
:1047A000FBFC04460D462046294607B0BDE8F08FC5
:1047B000C94B9E421ADD0029C0F29F815A465346DA
:1047C000A5A1D1E9000118F009FA3A46434604468A
:1047D0000D46A3A1D1E9000118F000FA22462B46AC
:1047E00018F0FEF9002783468A46B8465A465346D3
:1047F0005846514618F0A6FB03460C46CDE9003456
:1048000002460B4618F09EFBDDE9002304460D46E8
:104810005846514618F096FB93A3D3E90023CDE9FF
:1048200002012046294618F08DFB91A3D3E900230D
:1048300018F0D6F922462B4618F084FB8EA3D3E954
:10484000002318F0CDF922462B4618F07BFB8CA3F1
:10485000D3E9002318F0C4F922462B4618F072FB66
:1048600089A3D3E9002318F0BBF922462B4618F0A0
:1048700069FB87A3D3E9002318F0B2F9DDE900232F
:1048800018F060FB84A3D3E90023CDE9040120469E
:10489000294618F057FB82A3D3E9002318F0A0F9AA
:1048A00022462B4618F04EFB7FA3D3E9002318F0D5
:1048B00097F922462B4618F045FB7DA3D3E9002348
:1048C00018F08EF922462B4618F03CFB7AA3D3E968
:1048D000002318F085F922462B4618F033FB78A305
:1048E000D3E9002318F07CF902460B46DDE9040108
:1048F00018F076F9DDE9022318F024FB3A46434626
:1049000018F06EF9DDE9002318F01CFB02460B4697
:104910003846414618F064F96BA3D3E900230446F6
:104920000D46DDE9020118F00DFB22462B4618F07A
:1049300057F90B46024651465846CDE9002318F078
:104940004FF9654B9E4204460D463EDC109B012B01
:1049500036D002460B4600205E4918F01DFC0024AC
:104960000F4606465A4653462046294618F036F961
:10497000A04602460B46DDE9000118F02FF9424639
:104980003B4618F0DFFAA94604460D4642463B4630
:104990004046494618F0D6FA0022504B18F020F94C
:1049A00002460B462046294618F01AF932463B4685
:1049B00018F0C8FA42463B4618F012F904460D4674
:1049C0002046294607B0BDE8F08F109818F054FA39
:1049D000224606460F462B462046294618F0B2FAD4
:1049E0003246CDE902013B462046294618F0F8F848
:1049F00002460B46DDE9020118F0CEFBDDE900239B
:104A000018F0ECF802460B465846514618F0E6F806
:104A100002460B4618F0E4F802460B46304639468B
:104A200018F0DCF804464FEAA97000F00200C0F16B
:104A300001000D4618F020FA02460B462046294692
:104A400018F080FA04460D462046294607B0BDE816
:104A5000F08F00BFAFF30080182D4454FB21E93FD5
:104A6000075C143326A6813CD47ABF74702AFB3EBF
:104A7000E9A7F0320FB8123F68108D1AF726303FC1
:104A80001583E0FEC8DB573F93846EE9E326823F3F
:104A9000FE41B31BBAA1AB3F735360DBCB75F3BED2
:104AA000A69237A0887E143F0165F2F2D844433FB6
:104AB000280356C9226D6D3F37D60684F464963FAD
:104AC0007AFE10111111C13F635555555555D53F0B
:104AD000FFFF2F3E0000F0BF2794E53F0000F03FAE
:104AE0005846514618F0A8FF02460B4600200849D8
:104AF00018F052FB04460D4662E701F1004308F14D
:104B0000004883469A4659E65C46554658E700BF3A
:104B10000000F03F000000002DE9F04FD24A21F0E4
:104B20000043934285B00C460E4605462DD9CF4A28
:104B300093421AD8002E80F21681B5A3D3E9002340
:104B40002846214618F04CF80022002318F06CFC8F
:104B5000C0B9B1A3D3E900232846214618F0F2F9E1
:104B600002460B460020C24908E1C24A934240F285
:104B7000D0800346C1F31302134340F0F6810029AD
:104B800080F2C4800020BC49C0E0BC4A934200F2DD
:104B90002981BB4A934240F2DE8000230193002228
:104BA000B84B2846214618F0CDF906460F46024676
:104BB0000B462846214618F0C5F999A3D3E90023EE
:104BC00082468B4618F0BEF997A3D3E9002318F06C
:104BD00007F852465B4618F0B5F995A3D3E90023D0
:104BE00017F0FCFF52465B4618F0ACF992A3D3E9EC
:104BF000002317F0F5FF52465B4618F0A3F990A387
:104C0000D3E9002317F0EAFF52465B4618F09AF901
:104C100000229D4B17F0E4FF8046894602460B4672
:104C20003046394618F08EF902460B460020974967
:104C300017F0D4FF064602460B460F46404649464B
:104C400017F0CCFF3246804689463B46284621462F
:104C500018F078F902460B4600208D4917F0BEFF88
:104C600002460B464046494618F096FA52465B46C5
:104C700018F068F9019E02460B46002E38D0DDE997
:104C8000026732463B4617F0A9FF2A46234618F032
:104C900059F932463B4617F0A1FF5B46524617F0E2
:104CA0009DFF019B013306460F4600F00F81019BDB
:104CB000012B00F0F180019B0133392B39D8019B86
:104CC000132B40F31281019FC7F57F760336002234
:104CD000330517F085FF02460B462846214617F09C
:104CE0007DFF0022684B17F07BFF01EB07510DE0C1
:104CF0002846214618F026F952465B4617F06EFF0B
:104D000002460B462846214617F068FF05B0BDE86D
:104D1000F08F4DA3D3E9002318F0A4FB00283FF443
:104D200009AF4BA3D3E900231046194618F00AF93E
:104D3000ECE72A46234617F051FF02460B460020B7
:104D4000514917F04BFF019A4F4B01EB02510022E2
:104D500017F044FFDAE73EA3D3E9002317F040FF42
:104D600002460B46CAE72CA3D3E900232846214676
:104D700018F0E8F80B4643490246002017F030FFD0
:104D800018F090FB019018F077F833A3D3E90023D3
:104D900006460F4618F0D6F802460B46284621462E
:104DA00017F01CFF2EA3D3E9002380468946304626
:104DB000394618F0C7F806460F4632463B4640468D
:104DC000494617F00BFF02460B4605460C46404687
:104DD000494617F003FF32463B4617F0FFFECDE988
:104DE0000201DCE62B4A934200F2978000291AA3C5
:104DF000D3E90023C0F2AE8017F0F0FE0123804615
:104E00008946019316A7D7E90067D6E7AFF300807C
:104E100059F3F8C21F6EA501FE822B654715F73FB7
:104E20002DC3096EB7FD8ABE3952E686CACFD03E81
:104E3000B7DBAA9E19CE143F8555FE19A0015A3F33
:104E4000F41011111111A13FEF39FAFE422E8640E4
:104E50009C7500883CE4377E0000E0FE422EE63F71
:104E6000763C7935EF39EA3D79684340412E8640FA
:104E70000000E0BFFFFFEF7F0000F0BF422ED63FF3
:104E8000FFFF8F3C0000E03F0000F03F00000840C3
:104E900000001840B1A2F03F2846214600223A4BBC
:104EA00018F0C2FA002846D0284621460022374B87
:104EB00017F096FE02460B463046394617F08EFE36
:104EC00000224FF0404318F03DF81FE732463B46C2
:104ED0002846214617F082FE00222C4B18F032F8AB
:104EE00000222A4B17F07AFE10E7019E4FF4001EB5
:104EF0004EFA06FE2A462346CEF17F5717F06EFE85
:104F0000002607F5401702460B463046394617F093
:104F100065FE019E01EB0651F8E617A3D3E90023D5
:104F200018F010F8002C02460B464FF00000FFF678
:104F30001AAE164922E732463B462846214617F06C
:104F40004DFE02460B4617F04BFE0022104B17F0A9
:104F500047FEDBE617F044FE4FF0FF3380468946FC
:104F6000019307A7D7E9006727E702460B4617F02A
:104F700037FECBE6AFF30080FE822B654715F73F87
:104F8000763C7935EF39EABD0000D0BF0000E03F44
:104F90000000F03F00000000F8B5C1F30A560446D7
:104FA0000D460B4617460EBB21F0004303438646D1
:104FB00025D00022344B17F0C5FF344A97420446EF
:104FC0000D460B462ADBC1F30A56363E3E4440F2FC
:104FD000FE72964228DC002E12DD23F0FF4323F4FC
:104FE000E00343EA065520462946F8BD40F2FF7229
:104FF0009642EBD102460B4617F0F2FDF8BDF8BD24
:1050000016F1350F1DDA4CF250339F4222462B46E3
:1050100025DC19A1D1E900011AF05CFF16A3D3E940
:10502000002317F08FFFF8BD22462B4614A1D1E9CB
:1050300000011AF04FFF12A3D3E9002317F082FFFB
:10504000F8BD23F0FF4323F4E003363643EA065568
:105050002046294600220E4B17F074FFF8BD08A128
:10506000D1E900011AF036FF05A3D3E9002317F0B8
:1050700069FFF8BDAFF3008059F3F8C21F6EA501B8
:105080009C7500883CE4377E00005043B03CFFFF35
:105090000000903C10B5054C237833B9044B13B194
:1050A0000448AFF300800123237010BDC803002023
:1050B00000000000803603080C4B43B10C480D493A
:1050C00010B5AFF300800C48036823B910BD0A483F
:1050D000036833B97047094B002BF7D0BDE8104087
:1050E0001847064B002BF5D0184700BF0000000002
:1050F00080360308CC030020B0030020000000002D
:1051000070B504460E4600F0D1F888B10368DB6A3A
:1051100005469847082C0CD0A4F10903012B14D99B
:105120003246214610230D20BDE8704004F0D8B867
:1051300070BD2B6828465B6A98470228F0DC2B6814
:1051400028461B6A04219847EAE72B6828465B6AD1
:1051500098470528E4DC2B6828461B6A08219847F5
:10516000DEE700BF30B52DED028B83B0054600F0C1
:105170009DF8044640B10368DB6A9847032D50D878
:10518000DFE805F0373F47080190019803B0BDEC18
:10519000028B30BD20460DF07DF807EE900A2046C8
:1051A000F8EEE78A0DF084F807EE900A2046B8EE94
:1051B000E78A0DF08BF868EE087A07EE100AE8EE41
:1051C000A87AB8EEC77AE7EE077AF5EE407AF1EE04
:1051D00010FAB1EEE78A03D517EE900A19F056FBE4
:1051E000FDEEC87ACDED017A019803B0BDEC028BDB
:1051F00030BD204603B0BDEC028BBDE830400DF061
:1052000049B8204603B0BDEC028BBDE830400DF03C
:105210004FB8204603B0BDEC028BBDE830400DF026
:1052200055B800230193B0E738B5054600F03EF8C5
:1052300058B10368DB6A0446984745B1012D04D193
:105240002046BDE83840FBF747BA002038BD20466D
:10525000BDE83840FBF720BA10B5044600F026F848
:1052600028B1036821461B6ABDE81040184710BDED
:105270000048704716FCFFFF704700BF10B5034B96
:10528000036004460CF002FE204610BD2C200308EB
:1052900010B5054B036004460CF0F8FD20461BF0EA
:1052A0004AFA204610BD00BF2C2003082DE9F04328
:1052B000BD4C236885B01BB1986805B0BDE8F0838C
:1052C0004FF0FF31012001F0F9FC05F001F8002852
:1052D00000F0EC800C201BF030FA4FF0FF31064656
:1052E000462001F0EBFC68280CBF3321032151203C
:1052F00001F0E4FCDFF8E0E2AC4B054605F00F07F7
:10530000C5F3031815F4807508BF7346A8483946DD
:1053100042460BF0C3FF2A1C18BF01223946434600
:1053200030460FF067FD0023A248B3600BF0B6FFD4
:105330004FF0FF31032001F0C1FC04F0C9FF4FF032
:10534000FF310546022001F0B9FC04F0C1FF002D39
:1053500000F09580002800F092800146284604F075
:10536000D3FB0746002800F09D803821462001F03D
:10537000A5FC322880462AD027DD382866D0682848
:105380003DD14FF0FF31012001F098FC04F0A0FF67
:1053900081465C201BF0D1F90523054601934A465E
:1053A000CDF80080394633460EF0E6FC2846B06062
:1053B00003689B6A9847B0680368DB6A98477E4831
:1053C0000BF06CFF2660B06877E7302817D14FF0FC
:1053D000FF31012001F072FC04F07AFF8146502079
:1053E0001BF0ABF91FFA88F1054605234A460091E8
:1053F0000193394633460EF091FA2846D7E73A68CA
:105400000125002301950095D2F82480B3600F2276
:105410000DF10F0332213846C047002851D14FF01B
:105420003208414665480BF039FF4FF0FF3101204B
:1054300001F044FC04F04CFF814650201BF07DF944
:10544000052305464A46CDF80080D1E74FF0FF31ED
:10545000012001F033FC04F03BFF814650201BF09B
:105460006CF9052305464A46CDF80080394601937C
:1054700033460EF05DFB524B2B60284697E75148B0
:105480000BF00CFF4FF0FF31192001F017FC04F076
:105490001FFF4FF0FF310546182001F00FFC04F00C
:1054A00017FF5AE748480BF0F9FE8BE74FF0FF3142
:1054B000032001F003FC04F00BFF00287FF40AAF87
:1054C000FBE63B6801950095D3F824800F220DF18F
:1054D0000F0330213846C04718B94FF03008414615
:1054E000A0E73B6801950095D3F824800D220DF1CB
:1054F0000F0338213846C047B8B938212F480BF080
:10550000CDFE4FF0FF31284601F0D8FB04F0E0FE5D
:10551000804650201BF011F94FF0050E3823054648
:10552000424639468DE80840A2E73A680195009561
:10553000D2F824800DF10F03752268213846C04748
:10554000D8B968211D480BF0A9FE4FF0FF3128465D
:1055500001F0B4FB04F0BCFE80465C201BF0EDF8CB
:105560004FF0050E682305468DE80840424639464F
:1055700033460EF001FC284619E714480BF08EFE66
:10558000B06800287FF414AF4FF0FF31032001F022
:1055900095FB04F09DFE18B10D480BF07FFE11E75E
:1055A0000C480BF07BFE0DE7E40300206C100308B1
:1055B0007C1003089C1003083411030858110308D9
:1055C00038100308AC100308C01003084411030886
:1055D000D8100308141103087410030808B501F06B
:1055E0009FFCFBF739FEBDE8084001F0FDB900BFA4
:1055F00008B501F095FCFBF79FFEBDE8084001F0FF
:10560000F3B900BF08B501F08BFC18F08BFABDE8C8
:10561000084001F0E9B900BF08B501F081FC18F0BD
:10562000FDFFBDE8084001F0DFB900BF08B501F09B
:1056300077FCFBF721FEBDE8084001F0D5B900BFBB
:1056400008B501F06DFC18F09FFCBDE8084001F0C2
:10565000CBB900BF08B501F063FCFBF75DF8BDE80E
:10566000084001F0C1B900BF08B501F059FC18F0BD
:10567000DFFBBDE8084001F0B7B900BF70B5049E7C
:1056800096420C4628DB15466BB1002A00EB02015E
:1056900007DD2046A21811F8013D00F8013B9042B9
:1056A000F9D1002070BD042A0FD0022A02D110F0D7
:1056B000010306D001462A46204607F0E7FF0020F6
:1056C00070BD02880A80184670BD10F00303F1D146
:1056D00002680A60184670BD0846002109F0C6F944
:1056E0004FF0FF3070BD00BF0830704740B1002957
:1056F00005DB4368994202DA0844007A70470020CB
:10570000704700BF30B1002904DB43689942BCBF39
:1057100040180272704700BF40B1002905DB4368A2
:10572000994202DA0844007A70470020704700BFAF
:10573000830705D120B1030F0CBF01200020704763
:105740000120704730B1002904DB43689942BCBF97
:1057500040180272704700BF002B23DB002921DBB9
:1057600070B54668B1421ADC5568761A1446EA1AD2
:10577000B242A8BF3246002A11DB84420D4607D050
:10578000083408300844E11807F080FF002070BD9D
:105790000834E11860191BF00AF8002070BD4FF0C2
:1057A000FF3070BD4FF0FF30704700BF406870475A
:1057B00010B4141E10DB426894420DDC33EA23035C
:1057C00028BF1346121B08309A422044A8BF1A462D
:1057D0005DF8044B09F04AB95DF8044B704700BF0F
:1057E00043688B4210B400F108041846A8BF08466D
:1057F00032EA220128BF19461B1A99422044A8BF49
:1058000019465DF8044B00F0F3BE00BF002BBCBF8F
:1058100043689B1A002A70B50E4620DB446899182D
:10582000A1421CDC8A421ADCCBB136F0004116D012
:1058300059428E4214DDB34212DD0830002E00EBD7
:10584000020515DB9C1B2246A91928461AF0AFFF5A
:10585000324628190021BDE8704009F007B970BD33
:10586000002211464FF0FF33BDE87040FFF7A0BFA4
:1058700074429A19294628191AF099FF2246284697
:105880000021BDE8704009F0F1B800BF03460830C0
:10589000596800F02DBE00BF70B504460020616855
:1058A000490000F0A7FD6668002E11DD094D04F1E6
:1058B000080100EB4606034611F8012B141102F013
:1058C0000F022C5DAA5C9C71DA7102339E42F3D107
:1058D00070BD00BF6C110308002BBCBF43689B1A4E
:1058E000002A2FDB70B445689C18AC4229DCA24228
:1058F00027DC33B331F0004423D00029B8BF01EBDB
:10590000032191FBF3F603FB1616002E00F10800AD
:10591000B8BFF61802441644B242134411D03046C0
:1059200004E0B24208460ED090420AD001461478F4
:1059300011F8015B02F8015B8B420470F1D1304633
:10594000F2E770BC70470E46EEE700BF00B583B0CB
:105950004FF0FF3300930023FFF7FEFE03B05DF826
:1059600004FB00BF10B50C1E0EDD4168083002F0CC
:10597000FFF81F2C09DC0123A34020FA04F4013BAB
:10598000444004EA030010BD002010BD0146002081
:1059900000F02EBE38B50021054600F0D7FD0146C7
:1059A000002000F025FE044600F10801284600F022
:1059B000CDFD204638BD00BF30B5013A83B0044666
:1059C0000D460F2A16D8DFE802F01717838D9417BB
:1059D0002E08081F424D5C367462184601F034FBF5
:1059E000012DADF8000005DD9DF800209DF8013087
:1059F0002370627003B030BD184601F025FB002D06
:105A0000F8DD207003B030BD184601F01DFB032DFA
:105A10000090EFDD6A46231D12F8011B03F8011DFB
:105A20009C42F9D1E6E7184601F00EFB002DC0B20A
:105A3000E0DD2070E6E7184601F072FA072DCDE9A7
:105A40000001D7DD6B4603CB20606160D2E71846CA
:105A500001F08EFA032DCDDDA3070CBF206020607E
:105A600003B030BD184601F083FA032D0090C1DD6C
:105A70006A46231D12F8011B03F8011D9C42F9D14F
:105A8000B8E7184601F078FB032DE5DCB2E71846CD
:105A900001F046FA072DCDE90001ABDD0DF1FF3233
:105AA00004F1080312F8011F03F8011DA342F9D104
:105AB000A0E7184601F060FB032D00909ADD6A46CE
:105AC000231D12F8011B03F8011DA342F9D191E730
:105AD000184601F0B9FA012D8CDDE20754BF208091
