:020000040002F8
:1060000000000420D1B70300F9B70300FBB7030079
:10601000FDB70300FFB7030001B803000000000054
:1060200000000000000000000000000003B80300B2
:1060300005B803000000000007B8030009B803001A
:106040000BB803000BB8030071B6030035B60300AC
:1060500049B603000BB80300B5AA03000BB8030050
:1060600015B303001DB3030025B303000BB80300F1
:106070000BB803000BB803000BB803000BB8030008
:106080000BB803000BB803000BB803000BB80300F8
:106090000BB803000BB803000BB803000BB80300E8
:1060A0000BB803000BB803002DB3030035B3030096
:1060B0000BB803000BB80300000000000000000054
:1060C0000BB803000BB803000BB803005DB6030068
:1060D0000BB803000BB803000BB803000BB80300A8
:1060E00099B603000BB803000BB8030000000000D2
:1060F000000000000BB803000000000085B603009C
:10610000000000000000000000000000000000008F
:10611000000000000000000000000000000000007F
:10612000000000000000000000000000000000006F
:10613000000000000000000000000000000000005F
:10614000000000000000000000000000000000004F
:10615000000000000000000000000000000000003F
:10616000000000000000000000000000000000002F
:10617000000000000000000000000000000000001F
:10618000000000000000000000000000000000000F
:1061900000000000000000000000000000000000FF
:1061A00000000000000000000000000000000000EF
:1061B00000000000000000000000000000000000DF
:1061C00000000000000000000000000000000000CF
:1061D00000000000000000000000000000000000BF
:1061E00000000000000000000000000000000000AF
:1061F000000000000000000000000000000000009F
:106200007CB0EE877CB0EE87FF00FF00FF00FF0050
:10621000FF00FF00FF00FF00FF00FF00FF00FF0086
:10622000FF00FF00FF00FF00FF00FF00FF00FF0076
:10623000FF00FF00FF00FF002DE9F04F85B0039144
:106240000778A7F10903042B044607F07F0200F149
:106250000100F5D9202AF3D02B2F04BF677804461C
:106260002D2F72D09FED427B8DED007B4FF000080B
:106270004FF000098FB34FF0000E4FF0000ADFF827
:1062800000B1754619E017F0F1FF804689463046A7
:1062900017F086FF42464B4617F036FE52468046C0
:1062A00089465B46DDE9000135B318F009F9CDE90F
:1062B0000001AE4614F8017F7FB1A7F13006092E28
:1062C00052465B4640464946DDD9C5B92E2F16D108
:1062D00014F8017F0125002FEFD142464B46DDE93E
:1062E000000117F0C3FF80468946039B404649469C
:1062F0001C6005B0BDE8F08F4FF0010EDAE7BEF18B
:10630000000F29D042464B46DDE9000117F0AEFFF1
:1063100007F0DF07452F80468946E6D10399601CC8
:106320000A2217F0D5FD16490246002018F0FEFAA1
:1063300002460B464046494617F098FF804689467C
:106340004046494605B0BDE8F08F9FED0B7B67786E
:106350008DED007B013489E7DFF828904FF00008CD
:106360004046494605B0BDE8F08F00BFAFF300805E
:10637000000000000000F03F000000000000F0BF3F
:10638000000024400000F87F2DE9F84F1646002356
:10639000002204460D4618F0DBF9002840F09D80ED
:1063A000002200232046294618F0C8F928B13022DF
:1063B000002332707370BDE8F88F2046294616F02E
:1063C00057FA18F003FA7BA3D3E900238146294644
:1063D000204618F0BDF9002800F08680B9F1000FC2
:1063E000C0F2BE804A4600206F4918F09FFA02466C
:1063F0000B462046294618F063F804460D4666A170
:10640000D1E9000101274FF0000822462B4617F082
:106410002DFF0022654B17F077FD18F0C3FA002F0F
:10642000CC464FF0FF3AC1464FF0000840F385805C
:10643000DFF888E15E4C0122AEF1700945F6F325E4
:106440004FF02E0BA94208BFA0424FF0300309D3F2
:10645000001B61EB0501A94208BFA04203F1010343
:10646000F6D2DBB2337050EA010306F1010409D120
:10647000BA4210DACE4502F101020CD026467EE87F
:106480000245DFE7BA4204BF86F801B0B41CCE452E
:1064900002F10102F2D1B8F1000F0DD022463021F5
:1064A00002F8011BC2F1010353442344002BF7DC23
:1064B0002AEAEA7301331C44BCF1010F4CD0652376
:1064C000BCF1000F2370C5BF2B236370611CA11C9E
:1064D0006046BDE8F84F10F0F9B805F100431D46DD
:1064E0002D23337001365BE72DA3D3E9002320462B
:1064F000294618F04BF900287FF470AFB9F10E0F60
:1065000009F101073DDDA9F10E08424600202649A8
:1065100018F00CFA02460B462046294617F0D0FF29
:106520000022224B17F0F0FC18F03CFA002FA9F1E2
:106530000F0A4FF0010C3FF77BAF334630222E2479
:1065400003F8022B74707FEA090618D01E4403F882
:10655000012BB342FBD16BE700232370BDE8F88F1A
:10656000C9F100020020104918F0E0F902460B467C
:106570002046294617F07AFE04460D463FE71E46A0
:1065800056E7C9F10E0200200749C84618F0CEF9B7
:106590004FF0010939E700BF0000901EC4BCD6428D
:1065A00050EFE2D6E41A4B44000024400000E03FE4
:1065B00000407A108DEDB5A0F7C6B03EC0F40300E0
:1065C00070B54FF0FF3006F0B5F904466FF07F402C
:1065D00006F0B0F90646204617F0D2FD00220C4B1B
:1065E00017F044FE044630460D4617F0C9FD06A3D9
:1065F000D3E9002317F064FF02460B4620462946E4
:1066000017F082FC70BD00BF0000E0DFFFFF6F43AA
:106610000000F03D0000000008B511F003FBDFEDC5
:106620000C7A07EE100A67EE277A17EE900A17F039
:10663000C9FD05A3D3E9002317F042FF18F0C6F8FF
:1066400008BD00BFAFF30080EA2E4454FB2119407F
:106650000000B4430000000008B511F0F7FADFEDC8
:106660000C7A07EE100A67EE277A17EE900A17F0F9
:10667000A9FD05A3D3E9002317F022FF18F0A6F81F
:1066800008BD00BFAFF30080EA2E4454FB2119403F
:106690000000B44300000000494A21F00043934247
:1066A0002DE9704304460D464BDC464A93420E46A4
:1066B0000EDC3FA3D3E9002317F026FC0022424B57
:1066C00018F064F800284CD020462946BDE87083B5
:1066D0003E4A93423BDCB3F1804F42DD15F0C2FCF1
:1066E0002246804689462B462046294617F0BEFDA5
:1066F0000022354B17F008FC16F078FB02460B46DB
:106700004046494617F000FC02460B4600202E4941
:1067100017F0D6FE424604460D464B4640464946D3
:1067200017F0F2FB02460B462046294617F0ECFB19
:1067300002F06AF8002EC9DC01F100431946BDE8F9
:10674000708302460B4617F0DFFBBDE8708315F03F
:1067500089FC02F059F818A3D3E9002317F0D4FB01
:10676000E8E722462B462046294617F07FFD804663
:1067700089462046294615F075FC002204460D4640
:10678000114B4046494617F0BFFB16F02FFB002285
:106790000D4B17F0B9FB02460B464046494617F031
:1067A0008FFE22462B4617F0AFFB00F0C5FAC1E77B
:1067B0009C7500883CE4377EEF39FAFE422EE63FB6
:1067C000FFFFEF7FFFFF2F3E0000F03F0000B041D2
:1067D0002DE9F84FC44B21F000469E4204460D4679
:1067E0008A460EDDC14B9E4200F3AC8000F0A780CC
:1067F000BAF1000F40F3EA809FA1D1E90001BDE8A2
:10680000F88FBB4B9E4200F3B580A3F1DE739E422E
:1068100040F3A0804FF0FF3B22462B4620462946FE
:1068200017F024FD02460B468046894617F01EFDF0
:1068300093A3D3E9002306460F4617F017FD92A352
:10684000D3E9002317F060FB32463B4617F00EFDFC
:106850008FA3D3E9002317F057FB32463B4617F0CE
:1068600005FD8DA3D3E9002317F04EFB32463B46CE
:1068700017F0FCFC8AA3D3E9002317F045FB32464E
:106880003B4617F0F3FC88A3D3E9002317F03CFB49
:1068900042464B4617F0EAFC85A3D3E90023804625
:1068A00089463046394617F0E1FC83A3D3E900233B
:1068B00017F028FB32463B4617F0D8FC80A3D3E9FB
:1068C000002317F01FFB32463B4617F0CFFC7EA398
:1068D000D3E9002317F016FB32463B4617F0C6FCFF
:1068E0007BA3D3E9002317F00DFB32463B4617F09C
:1068F000BDFCBBF1FF3F02460B466CD0404649460B
:1069000017F002FB22462B4617F0B0FC794E7A4B6B
:106910004FEACB0B5E449B44DBE9002317F0F2FA0D
:1069200022462B4617F0EEFA02460B46D6E9000146
:1069300017F0E8FABAF1000F43DBBDE8F88F002842
:106940003FF456AF22462B462046294617F0DCFA84
:10695000BDE8F88F60A3D3E9002317F0D5FA002231
:10696000664B17F013FF00283FF454AF204629462A
:10697000BDE8F88F15F076FB614B9E4204460D464C
:1069800039DCA3F550239E425EDC02460B4617F02D
:10699000BBFA0022594B17F0B5FA002206460F4603
:1069A0004FF080432046294617F0AEFA02460B46C8
:1069B0003046394617F084FD4FF0000B04460D4673
:1069C0002AE701F100431946BDE8F88F44A1D1E957
:1069D0000001BDE8F88F4046494617F095FA224677
:1069E0002B4617F043FC02460B462046294617F07B
:1069F00089FABDE8F88F434B9E421ADC0022424BD5
:106A000017F080FA002206460F463F4B20462946E3
:106A100017F02CFC0022394B17F076FA02460B4691
:106A20003046394617F04CFD4FF0020B04460D4638
:106A3000F2E602460B460020344917F041FD4FF0C4
:106A4000030B04460D46E7E600222C4B17F05AFADA
:106A5000002206460F46294B2046294617F054FAD5
:106A600002460B463046394617F02AFD4FF0010B1F
:106A700004460D46D0E600BF182D4454FB21F93FD3
:106A800011DA22E33AAD903FEB0D76244B7BA93F20
:106A9000513DD0A0660DB13F6E204CC5CD45B73FEE
:106AA000FF8300922449C23F0D5555555555D53F9A
:106AB0002F6C6A2C44B4A2BF9AFDDE522DDEAD3F8E
:106AC0006D9A74AFF2B0B33F711623FEC671BC3F2E
:106AD000C4EB98999999C93F9C7500883CE4377E2E
:106AE000182D4454FB21F9BFFFFF0F440000F07F35
:106AF000FFFFDB3FD0F40300F0F403000000F03FA1
:106B0000FFFFF23FFF7F03400000F83F0000F0BFAF
:106B10002DE9F843C1F30A59A9F2FF35132D0246B6
:106B20000B460C4606468846074622DC002D50DB05
:106B3000DFF8F09049FA05F901EA090E5EEA060667
:106B40001CD036A3D3E9002317F0DEF9002200237E
:106B500017F01CFE48B1002C04DD4FF4801343FAFB
:106B600005F5A84428EA0904002721463846BDE86F
:106B7000F883332D06DDB5F5806F3DD010461946FC
:106B8000BDE8F883A9F213494FF0FF3E2EFA09F948
:106B900010EA090FF2D021A3D3E9002317F0B4F9CA
:106BA0000022002317F0F2FD0028DED0002C09DDC2
:106BB000142D2BD00127C5F1340507FA05F5AE19C0
:106BC00028BFB844444626EA090721463846BDE8AE
:106BD000F88312A3D3E9002317F096F900220023CB
:106BE00017F0D4FD0028C0D0002C0BDB54EA0607B8
:106BF00006D00027084CB8E717F086F9BDE8F883FF
:106C00003C46B2E700274FF00044AEE704F101082C
:106C1000D8E700BFAFF300800000F03F9C7500880C
:106C20003CE4377EFFFF0F002DE9F041C1F30A5726
:106C3000A7F2FF35132D02460B460C468846064642
:106C40001CDC002D3FDB3A4F2F41864601EA070C42
:106C50005CEA0E0E17D034A3D3E9002317F054F9E1
:106C60000022002317F092FD20B1002C3FDB28EA20
:106C70000704002621463046BDE8F081332D06DDAD
:106C8000B5F5806F2FD010461946BDE8F081A7F208
:106C900013474FF0FF3E2EFA07F73842F3D022A3F6
:106CA000D3E9002317F030F90022002317F06EFD1E
:106CB0000028DFD0002C20DB444626EA07062146C8
:106CC0003046BDE8F08118A3D3E9002317F01CF982
:106CD0000022002317F05AFD0028CBD0002C17DB30
:106CE00000263446C6E717F00FF9BDE8F0814FF4EF
:106CF000801343FA05F5A844B9E7142D10D00123F9
:106D0000C5F1340503FA05F5AE1928BF9844D3E759
:106D100024F00042074B324318BF1C460026A9E767
:106D200004F10108C8E700BF9C7500883CE4377E89
:106D3000FFFF0F000000F0BF2DE9F04FD84B994244
:106D400087B0804689460E4613DCD64B21F00044BE
:106D50009C4218DD0022D44B17F0F0FC002879D0BB
:106D6000002200230020D14917F0AAFB07B0BDE89C
:106D7000F08FCF4B99422FDD42464B4617F0C4F8B7
:106D800007B0BDE8F08FCB4B9C4270DDCA4B1E4470
:106D90009E427ED80022C94B4046494617F0B4F8BF
:106DA0004FEA215AAAF2FF3ABAF1000F04460D4603
:106DB0000E4640F3DE8142464B4617F0A3F80246EA
:106DC0000B460020BD4917F09DF822462B4617F0D0
:106DD00077FBCDE902010BE0B94B9E42DADD9FED76
:106DE0009A7B8DED027B4FEA265A4446AAF2FF3A7F
:106DF000B44BC6F313069E4246F07F5500F3E7807E
:106E000045F44015204629460022AC4B17F07AF88D
:106E1000002204460D46AC4B17F028FA22462B46BA
:106E200017F024FAA046CDE90401A946CDE90001F6
:106E3000002E3AD1002200232046294617F07EFC7E
:106E4000002800F0CE80BAF1000F40F074810020DD
:106E5000002195E742464B464046314617F052F82E
:106E600002460B4617F02CFB07B0BDE8F08F00225E
:106E7000964B17F049F80022002317F087FC0028F2
:106E800000F0CC80924B9C4200F3C88040464946BB
:106E900076E700228C4B17F0E9F942464B4617F093
:106EA000E5F9CDE900014FF0000A00224FF08043E0
:106EB0004046494617F028F802460B4640464946E8
:106EC00017F0FEFA02460B4606460F4617F0CEF9BB
:106ED0005FA3D3E9002304460D4617F0C7F95EA36C
:106EE000D3E9002317F010F822462B4617F0BEF91D
:106EF0005BA3D3E9002317F007F822462B4617F0CF
:106F0000B5F959A3D3E9002316F0FEFF22462B461C
:106F100017F0ACF956A3D3E9002316F0F5FF22468B
:106F20002B4617F0A3F954A3D3E9002316F0ECFF86
:106F300022462B4617F09AF951A3D3E9002316F005
:106F4000E3FF22462B4617F091F904460D46BAF1AD
:106F5000000F00F0BF80504617F022F94AA3D3E992
:106F6000002382468B4617F081F9DDE90023CDE945
:106F700004012046294616F0C7FF32463B4617F06B
:106F800075F943A3D3E9002304460D4650465946FC
:106F900017F06CF9DDE9022316F0B6FF02460B4646
:106FA0002046294616F0B0FF02460B46DDE90001F7
:106FB00016F0A8FF42464B4616F0A4FF02460B46C9
:106FC000DDE9040116F09EFF07B0BDE8F08F45F43F
:106FD0000015C6F5801620462946B6100AF1010AAA
:106FE00012E72DA3D3E900232046294617F03EF9E6
:106FF00002460B460020314916F084FFDDE90423E8
:1070000017F034F906460F46BAF1000F73D1024665
:107010000B462046294616F075FFB1E642464B4620
:107020004046494617F022F90022274B17F01EF977
:1070300002460B464046494616F064FF07B0BDE8DD
:10704000F08F00BFAFF300800000000000000000E0
:1070500044523EDF12F1C23F9FC678D0099AC33F27
:10706000DE03CB966446C73FAF788E1DC571CC3F1B
:10707000599322942449D23F04FA97999999D93F78
:10708000935555555555E53F0000E0FE422EE63F2D
:10709000763C7935EF39EA3D555555555555E53F1F
:1070A0007982DA3FFFFFEF3F0000F0BF000050C3DE
:1070B000FFFFEF7FFFFF1F3E3C412D400000F03FF0
:1070C000FFFF3F439DA006000000E03F000050434B
:1070D000FFFF8F3CDDE9004522462B4616F014FFEA
:1070E00032463B4617F0C2F802460B462046294678
:1070F00016F008FF9CE7504617F052F823A3D3E997
:10710000002382468B4617F0B1F822A3D3E900236F
:10711000804689465046594617F0A8F8DDE9022313
:1071200016F0F2FE02460B463046394616F0EAFEED
:1071300022462B46DCE7504617F032F815A3D3E978
:10714000002306460F4617F091F8DDE9022316F0FA
:10715000DBFE0EA3D3E9002304460D463046394634
:1071600017F084F802460B462046294616F0CCFE5E
:1071700006E60022044B16F0C5FE02460B464046CA
:10718000494616F0BFFE20E60000F03F0000E0FE9A
:10719000422EE63F763C7935EF39EA3D00000000AB
:1071A00008B515F0E5FA04A3D3E9002317F088F930
:1071B00008BD00BFAFF30080EF39FAFE422EE63F74
:1071C0002DE9F043DFF8B4808BB004460D4601F0A2
:1071D000F3F898F90030013306460F462BD02246CB
:1071E0002B462046294617F0DBFA814618BB20467D
:1071F000294614F037FF1FA3D3E9002317F0C6FA7E
:10720000C8B1194A98F90030CDF820900321CDE992
:107210000445CDE902458DE806008BB9134B4FF0CC
:107220006042CDE90623684616F06EFC70B1089BFB
:107230009BB9DDE90667304639460BB0BDE8F083FF
:107240000B490020022BCDE90601ECD116F0E8FD38
:1072500022230360089B002BEBD016F0E1FD089B76
:107260000360E6E7AFF30080AC060400FFFFEF47E2
:107270000000F07F7DF8B98FCE338640FB8100207F
:107280002DE9F043DFF8E4808BB004460D4601F0B1
:1072900043F998F90030013306460F4633D02046B3
:1072A000294616F02BFC70B32CA3D3E9002320460B
:1072B000294617F06BFA814650BB2AA3D3E9002375
:1072C0002046294617F044FAE8B198F90030204AE0
:1072D000CDF82090002600270421022BCDE904459B
:1072E000CDE90245CDE906678DE8060029D068465C
:1072F00016F00AFC28B3089B1BB116F091FD089B01
:107300000360DDE90667304639460BB0BDE8F0831F
:107310000F4A98F90030019203210022CDE904457B
:10732000CDE90245009108922BB90A4B4FF060421B
:10733000CDE90623DBE708490020022BCDE9060151
:10734000D5D116F06DFD22230360D4E7AFF30080A2
:10735000B4060400FFFFEF470000F07FEF39FAFEAC
:10736000422E864051302DD5104987C0FB81002028
:107370002DE9F04FDFF80C938DB006460F4614460A
:107380001D4601F0C5FC99F90080B8F1FF3FCDE939
:10739000000136D022462B462046294617F000FA37
:1073A000834670BB32463B463046394617F0F8F903
:1073B0008246002840F0A280304639460022002351
:1073C00017F0BCF910B3002200232046294617F01D
:1073D000B5F9834600286AD09FEDA17B0122A44B1A
:1073E000CDF828A00292CDE90467CDE906458DEDE0
:1073F000087B0393B8F1000F45D09FED9B7B8DED8B
:10740000007BDDE900010DB0BDE8F08FDDE9000192
:1074100016F074FB8046002800F08D804FF0000AC3
:107420004FF0000BDDE9000152465B4617F086F98C
:107430000028E6D03046394616F060FB0028E0D040
:107440002046294616F05AFB0028DAD099F9003078
:10745000874A039204210022022BCDE90467CDE97B
:107460000645CDE908AB02910A9203D002A816F0B6
:107470004BFB68B916F0D4FC2223036008E09FEDB3
:10748000787B8DED087B02A816F03EFB002830D0FB
:107490000A9B1BB116F0C4FC0A9B03609DED087BA0
:1074A0008DED007BDDE900010DB0BDE8F08F2046D9
:1074B000294616F023FB0028A3D0002200232046F3
:1074C000294617F045F900289BD099F90030684A01
:1074D000CDF828B00121CDE90467CDE90645029138
:1074E0000392002BCBD063490020022BCDE9080189
:1074F000C9D116F095FC21230360C9E700220023BF
:107500002046294617F01AF900283FF47AAF5A4B63
:107510005749CDF828B000220120B8F1020FCDE97B
:1075200004670290CDE90645CDE908230391AAD16D
:10753000CDE9002365E73046394616F0DFFA00282A
:107540003FF46CAF2046294616F0D8FA00283FF4E5
:1075500065AFDDE900231046194617F021F9002830
:107560005FD1032399F900800293414B0A90CDE942
:107570000467CDE906450393B8F1000F2BD1DFF87E
:1075800008B14FF0604A0022002330463946CDE969
:1075900008AB17F0DDF800283FF468AF0022374B46
:1075A0002046294616F062FE04460D4616F0B4FA4F
:1075B00002460B462046294617F0C0F870BB304BF8
:1075C00099F900804FF06042CDE90823B8F1020F2D
:1075D0007FF44CAF4EE7DFF8B4B04FF0000A002262
:1075E000002330463946CDE908AB17F0B1F8002842
:1075F000ECD00022214B2046294616F037FE0446E7
:107600000D4616F089FA02460B462046294617F029
:1076100095F818B9174B0022CDE9082399F9008095
:10762000D4E799F90090124BCDF828800122CDE9DA
:107630000467CDE9064502920393B9F1000F3FF4C8
:107640001EAF002200231046194616F039FFB9F18B
:10765000020FCDE908013FF44CAF14E7AFF300800F
:107660000000000000000000000000000000F03FEB
:10767000CC0604000000F0FF0000F03F0000E03FF7
:10768000FFFFEFC7FB810020FFFFEF470000F07F07
:107690002DE9F84FC44E21F00043B34204460D4695
:1076A0000DDD03F1404303F58013034340F0B9803F
:1076B000002940F3408100200021BDE8F88FBB4E37
:1076C000B34240F3A6800029C0F2788102460B46FF
:1076D0000020B74916F016FC0022B64B16F0C6FD86
:1076E00004460D4615F082FB95A3D3E90023894695
:1076F00080462946204616F0B9FD93A3D3E900231E
:1077000016F002FC22462B4616F0B0FD90A3D3E9FA
:10771000002316F0F7FB22462B4616F0A7FD8EA39A
:10772000D3E9002316F0F0FB22462B4616F09EFD0F
:107730008BA3D3E9002316F0E5FB22462B4616F077
:1077400095FD89A3D3E9002316F0DEFB22462B46E4
:1077500016F08CFD86A3D3E9002382468B46204693
:10776000294616F083FD84A3D3E9002316F0CAFB53
:1077700022462B4616F07AFD81A3D3E9002316F0AA
:10778000C3FB22462B4616F071FD7FA3D3E90023ED
:1077900016F0B8FB22462B4616F068FD0022844BFB
:1077A00016F0B2FB02460B465046594616F088FECC
:1077B00042464B4616F05AFD002682468B4632461C
:1077C0004B463046494616F051FD02460B462046D0
:1077D000294616F097FB324604460D464B46404676
:1077E000494616F091FB02460B462046294616F004
:1077F00067FE02460B465046594616F085FB324658
:107800004B4616F081FB02460B4616F07DFBBDE8A9
:10781000F88F694A93420EDC5DA1D1E90001BDE811
:10782000F88F02460B4616F06DFB02460B4616F02B
:1078300047FEBDE8F88F02460B4616F017FD40A341
:10784000D3E9002306460F4616F010FD3EA3D3E908
:10785000002316F059FB32463B4616F007FD3CA3C9
:10786000D3E9002316F04EFB32463B4616F0FEFCF1
:1078700039A3D3E9002316F047FB32463B4616F006
:10788000F5FC37A3D3E9002316F03CFB32463B4618
:1078900016F0ECFC34A3D3E9002316F035FB324696
:1078A0003B4616F0E3FC32A3D3E900238046894629
:1078B0003046394616F0DAFC2FA3D3E9002316F040
:1078C00021FB32463B4616F0D1FC2DA3D3E9002321
:1078D00016F01AFB32463B4616F0C8FC2AA3D3E941
:1078E000002316F00FFB32463B4616F0BFFC002289
:1078F0002F4B16F009FB02460B464046494616F050
:10790000DFFD22462B4616F0B1FC02460B4622A1B3
:10791000D1E9000116F0F6FA02460B462046294648
:1079200016F0F0FA02460B4619A1D1E9000116F053
:10793000E9FABDE8F88F1AA1D1E90001BDE8F88F96
:1079400009F7FD0DE13D023F88B20175E0EF493FC7
:107950003B8F68B52882A43F5544880E55C1C93F66
:107960007D6FEB0312D6D43F555555555555C53F40
:1079700082922EB1C5B8B33F59018D1B6C06E63F0C
:10798000C88A599CE52A00404B2D8A1C273A03409F
:10799000182D4454FB21F93F075C143326A6913C73
:1079A000182D4454FB210940FFFFEF3FFFFFDF3F4D
:1079B0000000F03F0000E03F0000603C00225C4B14
:1079C00016F0A2FA00225B4B16F050FC40A3D3E95C
:1079D000002304460D4616F049FC3FA3D3E90023DB
:1079E00016F092FA22462B4616F040FC3CA3D3E94F
:1079F000002316F087FA22462B4616F037FC3AA3EE
:107A0000D3E9002316F080FA22462B4616F02EFC0E
:107A100037A3D3E9002316F075FA22462B4616F059
:107A200025FC35A3D3E9002316F06EFA22462B4637
:107A300016F01CFC804689462046294615F0D6F9EA
:107A40002FA3D3E9002306460F462046294616F009
:107A50000DFC2DA3D3E9002316F054FA22462B4641
:107A600016F004FC2AA3D3E9002316F04DFA2246AF
:107A70002B4616F0FBFB28A3D3E9002316F042FAAD
:107A800022462B4616F0F2FB0022294B16F03CFA58
:107A900002460B464046494616F012FD32463B462A
:107AA00016F0E4FB1EA3D3E9002316F02BFA3246AE
:107AB0003B4616F029FA02460B4616F025FA024616
:107AC0000B4619A1D1E9000116F01CFABDE8F88FA8
:107AD00009F7FD0DE13D023F88B20175E0EF493F36
:107AE0003B8F68B52882A43F5544880E55C1C93FD5
:107AF0007D6FEB0312D6D43F555555555555C53FAF
:107B000082922EB1C5B8B33F59018D1B6C06E63F7A
:107B1000C88A599CE52A00404B2D8A1C273A03400D
:107B2000075C143326A6913C182D4454FB210940D0
:107B30000000F03F0000E03F434A91422DE9F84346
:107B400004460D4639DD414A914209DD02F1795280
:107B5000914240DD02460B4616F0D6F9BDE8F883A7
:107B600001F1404202F58012024330D0B1F1804F62
:107B70003ADC0022364B16F0C5F902460B460446A5
:107B80000D4616F0C1F9224606460F462B46204602
:107B9000294616F06BFB02460B463046394616F076
:107BA000B3F915F023F90B4602462946204616F094
:107BB000ABF9BDE8F843FFF7BFB802460B4616F035
:107BC000A1F902460B4616F07BFCBDE8F8830020C5
:107BD0000021BDE8F88300F017FE19A3D3E90023C4
:107BE00016F092F9BDE8F88302460B4616F03EFB0C
:107BF0000022174B16F086F915F0F8F82246804659
:107C000089462B462046294616F07EF9424606460E
:107C10000F464B462046294616F076F902460B469B
:107C200000200B4916F04CFC0B4602463946304604
:107C300016F068F9BDE8F84300F0E6BDAFF3008048
:107C4000EF39FAFE422EE63FFFFFEF3FFFFFAF4165
:107C50000000F03F000000002DE9F047BE4B21F08E
:107C60000048984584B004460D4612DD08F14048AE
:107C700008F58018034658EA030321D002460B4654
:107C800016F040F902460B4616F01AFC04B0BDE8A7
:107C9000F087B24B98458A4629DCB8F1795F80F2CB
:107CA000658191A3D3E9002316F02EF90022AC4B95
:107CB00016F06CFDD8B12046294604B0BDE8F08727
:107CC0008BA3D3E9002316F0D1FA8BA3D3E90023C9
:107CD00006460F462046294616F0C8FA02460B46CD
:107CE0003046394616F010F904B0BDE8F08720465A
:107CF000294614F0B7F902460B460020984916F0C1
:107D000001F90022974B16F0B1FA7DA3D3E90023C5
:107D100004460D4616F0AAFA7BA3D3E9002316F019
:107D2000F3F822462B4616F0A1FA79A3D3E90023F3
:107D300016F0E8F822462B4616F098FA76A3D3E917
:107D4000002316F0E1F822462B4616F08FFA74A3B2
:107D5000D3E9002316F0D6F822462B4616F086FA11
:107D600071A3D3E9002316F0CFF822462B4616F074
:107D70007DFA6FA3D3E90023CDE90001204629460F
:107D800016F074FA6CA3D3E9002316F0BBF8224670
:107D90002B4616F06BFA6AA3D3E9002316F0B4F869
:107DA00022462B4616F062FA67A3D3E9002316F0A9
:107DB000A9F822462B4616F059FA694B002216F014
:107DC000A3F8CDE902012046294615F00FF8664BCD
:107DD000984506460F4666DCDDE90223DDE9000131
:107DE00016F06EFB3246CDE900013B46304639467F
:107DF00016F08AF802460B46DDE9000116F036FA65
:107E00004FF00008CDE9000142463B464046394666
:107E100016F02CFA02460B462046294616F072F858
:107E2000424604460D463B463046394616F06CF84D
:107E300002460B462046294616F042FB02460B46F8
:107E400016F062F802460B462BA1D1E9000116F0AC
:107E500059F802460B46DDE9000116F053F8424698
:107E600004460D463B464046394616F04DF802465C
:107E70000B4637A1D1E9000116F044F802460B4643
:107E80002046294616F03EF802460B4630A1D1E9BD
:107E9000000116F037F8BAF1000F3FF7F7AE01F125
:107EA00000431946F2E6DDE90223DDE9000116F0A0
:107EB00007FB32463B4616F0D9F932463B4616F0F0
:107EC00023F802460B4616F01FF80BA3D3E9002354
:107ED00016F018F802460B4605A1D1E9000116F08C
:107EE00011F8D8E7AFF300809C7500883CE4377E3A
:107EF000182D4454FB21F93F075C143326A6913C0E
:107F000009F7FD0DE13D023F88B20175E0EF493F01
:107F10003B8F68B52882A43F5544880E55C1C93FA0
:107F20007D6FEB0312D6D43F555555555555C53F7A
:107F300082922EB1C5B8B33F59018D1B6C06E63F46
:107F4000C88A599CE52A00404B2D8A1C273A0340D9
:107F5000182D4454FB21E93FFFFFEF3FFFFFDF3FB8
:107F60000000F03F0000E03F3233EF3F02460B4697
:107F700016F07CF937A3D3E9002306460F4616F026
:107F800075F936A3D3E9002315F0BEFF32463B4610
:107F900016F06CF933A3D3E9002315F0B3FF324692
:107FA0003B4616F063F931A3D3E9002315F0ACFF8B
:107FB00032463B4616F05AF92EA3D3E9002315F0BA
:107FC000A1FF32463B4616F051F92CA3D3E900231A
:107FD00015F09AFF32463B4616F048F929A3D3E93B
:107FE0000023804689463046394616F03FF927A3DC
:107FF000D3E9002315F086FF32463B4616F036F9EA
:1080000024A3D3E9002315F07FFF32463B4616F048
:108010002DF922A3D3E9002315F074FF32463B4625
:1080200016F024F900220A4B15F06EFF02460B46AB
:108030004046494616F044FA22462B4616F016F9F9
:1080400022462B4615F060FF04B0BDE8F08700BF64
:108050000000F03F09F7FD0DE13D023F88B20175D8
:10806000E0EF493F3B8F68B52882A43F5544880E16
:1080700055C1C93F7D6FEB0312D6D43F55555555B9
:108080005555C53F82922EB1C5B8B33F59018D1BDE
:108090006C06E63FC88A599CE52A00404B2D8A1C95
:1080A000273A0340000000002DE9F84F1D465342D7
:1080B000134325F0004ADFF8E0E14AEAD373734541
:1080C000144606460F4647D8C0F1000848EA0008A3
:1080D00021F0004343EAD878F0458B463CD805F1BF
:1080E000404808F5801858EA020850D04FEAA578B1
:1080F00008F0020848EAD17850EA030134D052EA85
:108100000A023CD0F24557D0734538D0A3EB0A039E
:108110001B153C2B42DC002D70DB22462B463046E3
:10812000394616F0CDF913F09DFFFEF751FBB8F17B
:10813000010F5FD0B8F1020F4ED0B8F1000F62D03E
:1081400043A3D3E9002315F0DDFE43A3D3E90023C5
:1081500015F0D8FEBDE8F88F32463B46204629464A
:1081600015F0D2FEBDE8F88FB8F1020F1AD0B8F1C1
:10817000030F10D13AA1D1E90001BDE8F88FBBF19E
:10818000000F14DB38A1D1E90001BDE8F88FBDE88C
:10819000F84FFEF71DBB3946BDE8F88F32A1D1E993
:1081A0000001C4E72CA1D1E90001BDE8F88F30A19E
:1081B000D1E90001BDE8F88F534526D0B8F1020F90
:1081C000F0D0B8F1030FD5D0B8F1010F4FF0000097
:1081D00029D00021BDE8F88F1DA3D3E9002315F0B5
:1081E00091FE02460B461CA1D1E9000115F08AFE62
:1081F000BDE8F88F01F10041BDE8F88F3C338CDA1F
:108200000020002193E7BDE8F88FB8F1020F18D0E5
:10821000B8F1030F10D0B8F1010F08D016A1D1E9C1
:108220000001BDE8F88F4FF00041BDE8F88F14A1C0
:10823000D1E90001BDE8F88F13A1D1E90001BDE843
:10824000F88F13A1D1E90001BDE8F88FAFF30080EA
:10825000075C143326A6A13C182D4454FB21094089
:10826000182D4454FB2109C0182D4454FB21F93F1B
:10827000182D4454FB21F9BF182D4454FB21E93F2C
:10828000182D4454FB21E9BFD221337F7CD902C091
:10829000D221337F7CD902400000F07F0000000033
:1082A00043422DE9F047034321F000463E4A46EAA7
:1082B000D373934204460D4613D896423DD03B4BB0
:1082C0009E428A4617DC36A3D3E9002315F01CFE34
:1082D0000022002316F05AFAA8B320462946BDE82A
:1082E000F08702460B4615F00DFE02460B4616F0CF
:1082F000E7F8BDE8F0872E4B9E42354624DD334635
:108300000246314615F000FE224606460F462B4631
:108310000020254915F0F6FD02460B463046394649
:1083200016F0CEF8FEF708FD0022224B15F09EFF56
:10833000BAF1000F2FDBBDE8F0870022002316F012
:10834000BFF8BDE8F087354622462B462046294631
:1083500015F0DAFD22462B4606460F4615F086FF3D
:108360002246804689462B4600200F4915F0CAFD5B
:1083700002460B464046494616F0A2F832463B46B6
:1083800015F0C2FDFEF7D8FC00220A4B15F06EFF77
:10839000BAF1000FCFDA01F100431946BDE8F087CA
:1083A0009C7500883CE4377E0000F03FFFFF2F3EC5
:1083B000FFFFDF3F0000E03F2DE9F8434E4B21F087
:1083C00000449C4206460F461BDC4C4B9C4222DD7F
:1083D0004B4B9C4263DD4B4B9C427BDD4A4B9C42AA
:1083E00046DD01339C4240D041A3D3E9002310462F
:1083F000194615F03BFF06460F4630463946BDE8A4
:10840000F88302460B4615F031FF06460F4630460C
:108410003946BDE8F88313F025FE02F0B1FC0022D6
:108420003A4B8046894615F06FFDB4F1725F0646FF
:108430000F46ECDB42464B464046494615F016FFD8
:1084400032463B4604460D463046394615F05CFD43
:1084500002460B462046294616F032F800222B4BE6
:1084600015F052FD06460F46D1E7294B9842BBD87E
:108470003046394613F0F6FD0022264B15F0F6FE85
:1084800000F04AF8002204460D46224B15F0EEFE9D
:1084900022462B4615F0EAFE06460F46B7E713F0D4
:1084A000E1FD00F039F800221A4B06460F4615F0A0
:1084B000DDFE32463B4604460D460020154915F0C8
:1084C000FFFF02460B462046294615F01DFD0646D5
:1084D0000F469CE713F0C6FD00F01EF800220D4B7E
:1084E00015F0C4FE06460F4691E700BFAFF30080CB
:1084F0009C7500883CE4377EFFFFEF7F422ED63F1D
:10850000FFFF3540412E8640CD3386400000F03FCE
:108510007DF8B98F0000E03F2DE9F04FB04E21F01B
:108520000042B24283B004460D464FEAD1770DD9DE
:10853000AC4EB24225D9C1F31303034340F0EC80A3
:108540000FB10020002103B0BDE8F08FA64B9A4286
:1085500000F2CB80A54B9A4200F2DC808AA3D3E9DB
:10856000002315F0D1FC0022A14B16F00FF90028D2
:1085700000F006812046294600229D4B15F0C4FCE0
:10858000E1E783A3D3E9002316F000F9002840F0C7
:10859000C88081A3D3E900232046294616F0D8F8E5
:1085A0000028CED1934E7EA3D3E9002306EBC70665
:1085B0002046294615F05AFED6E9002315F0A4FC02
:1085C00016F004F9064615F0EBFD77A3D3E9002376
:1085D0008046894615F04AFE02460B46204629464B
:1085E00015F090FC72A3D3E90023CDE900014046C9
:1085F000494615F03BFE82468B4652465B46DDE916
:10860000000115F07FFC04460D4622462B4620460D
:10861000294615F02BFE68A3D3E90023804689463E
:1086200015F024FE66A3D3E9002315F06BFC424647
:108630004B4615F01BFE64A3D3E9002315F064FC40
:1086400042464B4615F012FE61A3D3E9002315F014
:1086500059FC42464B4615F009FE5FA3D3E90023BF
:1086600015F052FC42464B4615F000FE02460B4602
:108670002046294615F046FC80468946002E58D0F3
:108680002046294642464B4615F0F0FD4246044638
:108690000D464B4600204FF0804115F033FC02465A
:1086A0000B462046294615F00BFF02460B46504666
:1086B000594615F027FCDDE9002315F023FC0B4695
:1086C00002464B49002015F01DFC6FF47F739E425B
:1086D00051DA06F57A7601EB065100224FF0B873B5
:1086E00015F0C4FD03B0BDE8F08F434B9A423FF64E
:1086F00059AF424BFC002344D3E9002315F002FCA0
:108700003F4BC7F101062344CDE90001D3E900AB9B
:10871000F61B72E7002678E702460B4615F0F4FBDD
:1087200011E719A3D3E900231046194615F09EFD61
:1087300009E702460B462046294615F097FD002220
:1087400006460F464FF080434046494615F0DAFB97
:1087500002460B463046394615F0B2FE22462B46FD
:1087600015F0D0FB02460B460020214915F0CAFB4C
:1087700003B0BDE8F08F01EB065103B0BDE8F08F08
:10878000064642E7AFF300809C7500883CE4377EE4
:10879000EF39FAFE422E864051302DD5104987C060
:1087A000FE822B654715F73F0000E0FE422EE63FB4
:1087B000763C7935EF39EA3DD0A4BE726937663E22
:1087C000F16BD2C541BDBB3E2CDE25AF6A56113FD1
:1087D00093BDBE166CC1663F3E5555555555C53FB8
:1087E000412E8640FFFFEF7F422ED63FFFFF2F3EF8
:1087F0000000F03F10F50300B1A2F03F20F50300A8
:1088000030F50300000000002DE9F04FB1F5801FA6
:1088100085B006460F460B465ADA024621F0004460
:10882000224300F0F8800029C0F27A810022D64B62
:1088300015F01CFDD54A0B46934206460F466FF0D5
:10884000350C4ADCC3F3130505F5152E0EF6647ED0
:108850000EF4801E8EF07F5282F440121C1542EA04
:108860000507A4F2FF3464440022C94B3046394660
:1088700004EB1E5415F046FBAB1CC3F31303022B91
:1088800082468B464FF0000230DC002315F056FF85
:10889000002800F0C980002C00F04B81204615F024
:1088A0007FFCA5A3D3E9002306460F4615F0DEFCA6
:1088B000A3A3D3E9002304460D463046394615F0FC
:1088C000D5FC02460B462046294615F01DFB0AE062
:1088D000AE4A93424FF0000CB4DD32463B46304680
:1088E000394615F011FB05B0BDE8F08F4FF080431D
:1088F00015F00AFB02460B465046594615F0E0FDBE
:10890000064620460F4615F04BFC3246CDE90001E5
:108910003B4630463946CDE9026715F0A7FC0246D2
:108920000B468046894615F0A1FC87A3D3E90023B6
:1089300006460F4615F09AFC85A3D3E9002315F0EF
:10894000E3FA32463B4615F091FC83A3D3E90023BA
:1089500015F0DAFA32463B4615F088FC80A3D3E9DD
:10896000002315F0D1FA42464B4615F07FFC7EA35A
:10897000D3E90023804689463046394615F076FC17
:108980007BA3D3E9002315F0BFFA32463B4615F02E
:108990006DFC79A3D3E9002315F0B6FA32463B46C5
:1089A00015F064FC0B4602464946404615F0ACFA09
:1089B000A5F5C223C5F5D725A3F27A4351351D434A
:1089C000002D8046894656DD0022724B504659469E
:1089D00015F04CFC52465B4615F048FC06460F4627
:1089E000002C68D132463B464046494615F08CFA89
:1089F000DDE9022315F03AFC02460B4630463946C3
:108A000015F080FA02460B465046594615F07AFAA0
:108A100005B0BDE8F08F0022002300205E4915F06C
:108A20004FFD05B0BDE8F08F55A3D3E900235046B4
:108A3000594615F01BFC02460B460020554915F01F
:108A400061FA524606460F465B465046594615F0B7
:108A50000DFC02460B463046394615F007FC06462B
:108A60000F46002C40F09A8002460B46504659466D
:108A700015F048FA37E7002C00F0A4802EA3D3E9C4
:108A80000023DDE9000115F0F1FB42464B460446A8
:108A90000D465046594615F035FADDE9022315F02A
:108AA000E5FB27A3D3E9002306460F46DDE90001D5
:108AB00015F0DCFB21E020A3D3E90023DDE9000170
:108AC00015F0D4FB32463B4604460D464046494627
:108AD00015F01AFADDE9022315F0C8FB18A3D3E953
:108AE000002380468946DDE9000115F0BFFB024600
:108AF0000B464046494615F007FA02460B463046FB
:108B0000394615F0FFF952465B4615F0FBF902466F
:108B10000B462046294615F0F5F905B0BDE8F08F63
:108B200002460B4615F0EEF90022002315F0C8FCB2
:108B3000D9E600200021D6E60000E0FE422EE63F06
:108B4000763C7935EF39EA3D44523EDF12F1C23FBF
:108B5000DE03CB966446C73F599322942449D23F03
:108B6000935555555555E53F9FC678D0099AC33F53
:108B7000AF788E1DC571CC3F04FA97999999D93F6A
:108B8000555555555555D53F00005043FFFFEF7FD4
:108B90000000F03F0000E03F000050C3204615F009
:108BA000FFFA0FA3D3E900238046894615F05EFB48
:108BB0000DA3D3E9002304460D464046494615F06F
:108BC00055FB9AE702460B465046594615F09AF96E
:108BD000DDE9022315F04AFB14E700BFAFF3008084
:108BE0000000E0FE422EE63F763C7935EF39EA3D63
:108BF000B1F5801F2DE9F84304460D460B461ADAFD
:108C0000024621F00046324359D000295FDB0022A2
:108C10003B4B15F02BFB3B4A0D462B46934204463B
:108C20006FF035010CDD22462B462046294615F013
:108C30006BF9BDE8F883334A93424FF00001F2DC50
:108C40001815A0F2FF3008444FEAD0794844C3F326
:108C5000130815F0A5FAC9F57F73033348EA0355E5
:108C600006460F4620462946FFF7CEFD1EA3D3E950
:108C70000023804689463046394615F0F7FA1CA392
:108C8000D3E9002304460D464046494615F0EEFA66
:108C900002460B462046294615F036F916A3D3E9BD
:108CA000002304460D463046394615F0DFFA0246E9
:108CB0000B462046294615F027F9BDE8F883002227
:108CC00000230020104915F0FBFBBDE8F8830246A5
:108CD0000B4615F017F90022002315F0F1FBBDE853
:108CE000F88300BFAFF30080362BF111F3FE593D3E
:108CF0000EE526157BCBDB3F00609F501344D33F2E
:108D000000005043FFFFEF7F000050C30000000051
:108D10002DE9F04F23F0004757EA020493B037D013
:108D2000674C21F00046A64283460D4629DC9A4650
:108D3000964625D0A74224DC614CA74279D0002D6D
:108D400080468946CDE9002377DB0024BEF1000F81
:108D50002CD15B4B9F4200F08B805A4B9F4261D0DD
:108D6000BAF1804F00F0C383574B9A451ED1002DB6
:108D70001CDB4046494613B0BDE8F04F14F036B84E
:108D800058B106F1404606F5801656EA0B0306D1A7
:108D90004C49002013B0BDE8F08FB742CCDD4B4802
:108DA00013B0BDE8F04F14F0B1BE00244046494670
:108DB00013F058F9BBF1000F19D126B1414B25F042
:108DC00040429A4213D1BAF1000FC0F2CA83002D7B
:108DD000E0DA06F1404606F5801656EA040300F094
:108DE000A584012CD6D101F100431946D2E7ED0F3D
:108DF000013D54EA05034ED0354B9F426EDD03F131
:108E000004739F4240F3FE83324B9E424EDDBAF123
:108E1000000F4EDD28A3D3E900231046194615F0B4
:108E200025FAB7E7BAF1000FC0F25284404649462E
:108E3000B0E7BEF1000F82D0A3E7274B9F4228DCAA
:108E4000A3F154739F4280DD3B15A3F2FF33142B33
:108E500040F35484C3F134032EFA03F202FA03F30D
:108E60009E457FF472AF02F00102C2F102046DE789
:108E700006F1404303F5801353EA0B0388D0154BEA
:108E80009E4240F33B83BAF1000F12DBDDE90001A3
:108E900080E702245AE742464B461046194615F031
:108EA00031F802460B4615F00BFB73E7BAF1000FE1
:108EB000B0DB002000216DE79C7500883CE4377E24
:108EC0000000F07F0000F03F0000E03F74FD030071
:108ED0000000E041FFFFEF3FFFFF3F43B6F5801F7B
:108EE0004FF0000205DAD84B15F0C0F96FF03402EC
:108EF0000E463315D54FC6F31306A3F2FF331344C2
:108F000046F07F5ABE421A460D934AF4401A40F387
:108F10002F83CF4B9E4240F30D849FEDB57B8DEDAB
:108F2000087B8DED0E7B9FEDB47B13468DED067BAC
:108F300001330D93AAF5801A0027DDE90623514677
:108F4000CDE90A0114F0DEFFDDE9062380468946FB
:108F5000DDE90A0114F0D8FF02460B460020BD49A6
:108F600015F0AEFA0A460146CDE9101213464946FD
:108F70000246404615F07AF94FEA6A0343F000537F
:108F80008C46834603F50023CDE904BCDA468B46C4
:108F9000D9190023CDE902AB0293DDE902AB002031
:108FA00006460F4602460B465046594615F05EF9F6
:108FB00002460B464046494614F0A4FFDDE906236D
:108FC000804689463046394614F09CFF02460B46DF
:108FD000DDE90A0114F096FF52465B4615F046F9AA
:108FE00002460B464046494614F08CFFDDE910234B
:108FF00015F03CF9DDE90467CDE9060132463B4650
:109000003046394615F032F97DA3D3E900230646F0
:109010000F4615F02BF97CA3D3E9002314F074FF5D
:1090200032463B4615F022F979A3D3E9002314F028
:109030006BFF32463B4615F019F977A3D3E90023BD
:1090400014F062FF32463B4615F010F974A3D3E9E1
:10905000002314F059FF32463B4615F007F972A37E
:10906000D3E9002314F050FF3246804689463B4640
:109070003046394615F0FAF802460B464046494656
:1090800015F0F4F8524606460F465B46DDE904014A
:1090900014F03AFFDDE9062315F0E8F832463B46C6
:1090A00014F032FF5246804689465B465046594688
:1090B00015F0DCF80022684BCDE90A0114F024FF1A
:1090C00042464B4614F020FF02980F4606463246B1
:1090D0003B465046594615F0C9F8002282468B4659
:1090E0005D4B3046394614F00DFFDDE90A2314F0DC
:1090F00009FF02460B464046494614F003FFDDE9EE
:10910000042315F0B3F83246804689463B46DDE934
:10911000060115F0ABF802460B464046494614F0EE
:10912000F3FE8046894602460B4650465946CDE935
:1091300004AB14F0E9FEDDE902AB3DA3D3E9002363
:1091400050460F4615F092F8DDE90423CDE90201FF
:109150003946504614F0D6FE02460B464046494674
:1091600014F0D0FE34A3D3E9002315F07FF834A324
:10917000D3E90023804689465046394615F076F8F3
:1091800002460B464046494614F0BEFEDDE90E237A
:1091900014F0BAFE80460D98894615F001F8424653
:1091A00006460F464B46DDE9020114F0ADFEDDE94F
:1091B000082314F0A9FE32463B4614F0A5FE3246C1
:1091C0003B4650468B4614F09DFEDDE9082314F023
:1091D00099FEDDE9022314F095FE02460B46404657
:1091E000494614F08FFE8046894637E0AFF3008091
:1091F0000000000000000000000000000000F03F40
:10920000EF4E454A287ECA3F65DBC9934A86CD3F6B
:1092100001411DA96074D13F4D268F515555D53F51
:10922000FFAB6FDBB66DDB3F033333333333E33FE9
:10923000000000E009C7EE3FFD033ADC09C7EE3F3E
:10924000F5015B14E02F3EBE000040438E98030002
:1092500079B60B000000F03F00000840013C54EAE2
:10926000050300F079819FEDC87B8DED047BDDE97E
:1092700000120B461446CDE9023400230293DDE9C7
:10928000024508462B461146224614F03BFE524644
:109290005B4614F0EBFFDDE9002306460F4640462F
:1092A000494614F0E3FF02460B463046394614F0B7
:1092B0002BFE2246804689462B4650465946CDE92C
:1092C000008914F0D3FF0B46024606460F4640467F
:1092D000494614F019FEC64B994204460D468A468B
:1092E00040F3168101F13F4303F5E003034340F0EF
:1092F000F781A7A3D3E90023DDE9000114F004FE00
:109300003246804689463B462046294614F0FAFDFF
:1093100002460B464046494615F038FA002840F010
:10932000DF81A8464FEA28534FF48012A3F2FE33A0
:1093300042FA03F35344C3F30A52AE4DA2F2FF3292
:109340001541C3F3130423EA05010020C2F1140BF5
:1093500044F48014BAF1000F02460B4644FA0BFBAA
:1093600030463946B8BFCBF1000B14F0CBFD0246B6
:109370000B4606460F46DDE9000114F0C5FD4FEA35
:109380000B5A0D46002484A3D3E900232046294626
:1093900014F06CFF3246804689463B4620462946FB
:1093A00014F0B0FD02460B46DDE9000114F0AAFD01
:1093B0007BA3D3E9002314F059FF7BA3D3E9002357
:1093C00006460F462046294614F050FF02460B463B
:1093D0003046394614F098FD06460F4602460B46C5
:1093E0004046494614F090FD42464B4604460D4621
:1093F00014F088FD02460B463046394614F082FDD3
:109400002246804689462B462046294614F02EFFE8
:1094100067A3D3E9002306460F4614F027FF66A38F
:10942000D3E9002314F06EFD32463B4614F01EFFD4
:1094300063A3D3E9002314F067FD32463B4614F0E2
:1094400015FF61A3D3E9002314F05CFD32463B46CF
:1094500014F00CFF5EA3D3E9002314F055FD32464F
:109460003B4614F003FF02460B462046294614F003
:1094700049FD06460F4602460B462046294614F093
:10948000F5FE0022CDE900014FF080433046394619
:1094900014F038FD02460B46DDE9000115F010F826
:1094A000424606460F464B462046294614F0DEFE4D
:1094B00042464B4614F028FD02460B4630463946DC
:1094C00014F020FD22462B4614F01CFD02460B46EC
:1094D0000020494914F016FD8A44BAF5801FC0F2F5
:1094E00039815146DDE9042314F0C0FE52E44246BE
:1094F0004B464046494614F0B9FE4BE4BAF1000F22
:10950000BFF6D7ACDDE90034184604F1004141E470
:109510003A4B21F00048984540F3FF80384B0B440C
:1095200003430CD132463B4614F0ECFC02460B469A
:10953000DDE9000115F016F900283FF4F3AEDDE98E
:10954000040125A3D3E9002314F090FE22A3D3E95C
:10955000002314F08BFE1DE49FED217B8DED047B39
:1095600085E602460B460020234914F0A9FF2EE4AD
:109570009FED1D7B8DED087B8DED0E7B9FED027BBE
:1095800000278DED067BD8E4000000000000F03FCE
:10959000FE822B654715973C00000000432EE63FF6
:1095A000EF39FAFE422EE63F396CA80C615C20BE12
:1095B000D0A4BE726937663EF16BD2C541BDBB3ED9
:1095C0002CDE25AF6A56113F93BDBE166CC1663FB7
:1095D0003E5555555555C53F59F3F8C21F6EA50167
:1095E000000000000000F0BF0000000000000000CC
:1095F000FFFF8F40FFFF0F000000F03FFFCB9040C8
:1096000000346F3F684B9E427FF750AC674B9E42E1
:109610003FF7FDAB0022654B14F074FC52A3D3E975
:10962000002306460F4614F021FE51A3D3E9002380
:10963000804689463046394614F018FE002282469C
:109640008B465B4B3046394614F010FE02460B4603
:1096500049A1D1E9000114F055FC32463B4614F013
:1096600005FE02460B460020524914F04BFC3246E0
:10967000CDE902013B463046394614F0F7FD02467B
:109680000B46DDE9020114F0F1FD3DA3D3E900230F
:1096900014F0ECFD02460B465046594614F032FCDD
:1096A00002460B4606460F464046494614F02CFC3F
:1096B00042464B46002082468B4614F023FC02466D
:1096C0000B463046394614F01DFC80468946C5E5F8
:1096D00042464B460020354914F0F2FEFFF75ABBD4
:1096E000DDE9040128A3D3E9002314F0BFFD26A37C
:1096F000D3E9002314F0BAFDFFF74CBBBEF1000F15
:109700007FF453ABC3F1140347FA03F202FA03F3F5
:109710009F4223D07446FFF720BB264B98453FF766
:1097200001AEDDE90223924693462BE602460B4644
:10973000FFF7B3BB9FED167B8DED087B9FED167B8E
:109740008DED0E7B9FED167B4FF480278DED067B14
:10975000FFF7F3BB5A4601F04FFDC3E602F00102EA
:10976000C2F10204FFF7F9BA000000604715F73FA5
:1097700044DF5DF80BAE543E555555555555D53F14
:10978000FE822B654715F73F9C7500883CE4377EC9
:109790000000004003B8E23F06D0CF43EBFD4C3E53
:1097A000000000000000F83FFEFFEF3F0000F03F28
:1097B0000000D03F0000E03F2DE9F0479C4B21F036
:1097C00000479F4290B08046894640F38E80994B77
:1097D0009F420C46924626DC00298BA3D3E9002346
:1097E00040F3B08114F08EFB934B9F4204460D462C
:1097F00000F0908086A3D3E9002314F083FB024697
:109800000B46CAE900232046294614F07BFB80A3BF
:10981000D3E9002314F076FB0125CAE902012846AA
:1098200010B0BDE8F087854B9F4240F39080844B99
:109830009F4265DC3D15A5F21645A7EB0553194679
:109840001F46064614F0C2FF14F0AAFC8046894663
:1098500042464B4630463946CDE90A8914F052FB60
:109860000022784B14F002FD8946804614F0AEFFCA
:1098700014F096FC06460F4632463B4640464946A3
:10988000CDE90C6714F03EFB00226E4B14F0EEFCA9
:1098900000220023CDE90E0114F050FF002800F053
:1098A0006F81002330463946002214F047FF00281C
:1098B00014BF01230223644A019202212A46009127
:1098C0000AA8514600F08CFB002C054614DADAF8A1
:1098D0000420DAF80C3002F1004203F10043454263
:1098E000CAF80420CAF80C3006E000200021C2E9C2
:1098F0000089C2E902010025284610B0BDE8F087C2
:1099000002460B4614F0FEFA0025CAE90201CAE934
:109910000001F1E740A3D3E9002314F0F3FA40A3D8
:10992000D3E900230D46044614F0ECFA02460B4638
:10993000CAE900232946204614F0E4FA38A3D3E903
:10994000002314F0DFFA0125CAE90201D4E712F07E
:1099500089FB35A3D3E900238046894614F086FCB1
:1099600000223A4B14F0D0FA14F030FF054614F000
:1099700017FC25A3D3E90023CDE9060114F076FCFA
:1099800002460B464046494614F0BCFA20A3D3E9F0
:109990000023CDE90201DDE9060114F067FC1F2D6B
:1099A00080468946CDE9048954DC294B6A1E53F868
:1099B00022309F424ED002460B46DDE9020114F0F0
:1099C000A1FA80468946CAE9008942464B46DDE94C
:1099D000020114F097FADDE9042314F093FA002C45
:1099E000CAE9020188DA09F1004401F100436D423D
:1099F000CAF80080CAF80440CAF80800CAF80C3057
:109A00007AE700BFAFF3008000004054FB21F93F2C
:109A10003163621A61B4D03D0000601A61B4D03D78
:109A20007370032E8A19A33B83C8C96D305FE43F6E
:109A3000FB21E93F7BD90240FB21F93FFB21394162
:109A4000FFFFEF7F00007041680704000000E03F67
:109A5000E8060400DDE90423DDE9020114F052FA0E
:109A60003F15C1F30A53FB1A80468946102BCAE9F9
:109A70000089AADD58A3D3E90023DDE9060114F02B
:109A8000F5FB8046894602460B46DDE9020114F0EB
:109A900039FA02460B46DDE90201CDE9082314F04C
:109AA00031FA42464B4614F02DFA4DA3D3E9002378
:109AB00080468946DDE9060114F0D8FB42464B4654
:109AC00014F020FA0B46CDE904010246DDE9080155
:109AD00014F018FAC1F30A53FF1A80468946312F51
:109AE000CAE900896CDD41A3D3E90023DDE9060161
:109AF00014F0BCFBDDE9088906460F4602460B461A
:109B00004046494614F0FEF902460B464046494697
:109B1000CDE9022314F0F6F932463B4614F0F2F98F
:109B200034A3D3E9002306460F46DDE9060114F00D
:109B30009DFB32463B4614F0E5F902460B46CDE963
:109B400004233AE714F0E0F9274B9F4204460D4600
:109B500018D01FA3D3E9002314F0D6F902460B4610
:109B6000CAE900232946204614F0CCF918A3D3E90A
:109B7000002314F0C9F94FF0FF35CAE90201BBE632
:109B8000032398E614A3D3E9002314F0BDF914A32A
:109B9000D3E900230D46044614F0B6F902460B46FD
:109BA000CAE900232946204614F0ACF90CA3D3E9F6
:109BB000002314F0A9F94FF0FF35CAE902019BE632
:109BC0009DED087B8DED027BFFE600BFAFF30080CB
:109BD0003163621A61B4D03D0000601A61B4D03DB7
:109BE0007370032E8A19A33BFB21F93F0000002E5E
:109BF0008A19A33BC14920259A837B3900000000C4
:109C0000594A2DE9F84F21F00048904506460F4685
:109C10002BDC564B0029B4BF554D564D98454FF09F
:109C2000000410DC544B984570DC4DA3D3E90023AD
:109C300014F06AF90022514B14F0A8FDD8B1304657
:109C40003946BDE8F88F4E4B98457CDD4D4B984525
:109C500044DD013398453ED03046394640A3D3E930
:109C6000002314F003FBBDE8F88F02460B4614F006
:109C70004BF9BDE8F88F3046394612F0F3F901F0A0
:109C80007FF806460F4632463B463046394614F0CA
:109C90003BF9324682468B463B463046394614F005
:109CA000E5FA002280468946344B3046394614F0A6
:109CB0002BF902460B464046494614F001FC024689
:109CC0000B465046594614F01DF922462B4614F017
:109CD000CDFABDE8F88F2C4B9842BDD830463946B6
:109CE00012F0C0F90022234B14F0C0FAFEF714FC66
:109CF00006460F4602460B462046294614F0B6FAA1
:109D000032463B4614F0B2FABDE8F88F12F0AAF9D9
:109D100001F036F81D4B984506460F46B3DD00228C
:109D2000164B14F0F1F802460B463046394614F053
:109D3000C7FB32463B4614F0E7F822462B4614F0A8
:109D400095FABDE8F88F12F08DF9FEF7E5FB0246B3
:109D50000B462046294614F089FABDE8F88F00BF6B
:109D60003374AC3C1F7BAC7FFFFFEF7FFFFF3540C0
:109D70000000E0BF0000E03FFFFF2F3E0000F03F8B
:109D8000412E8640CD3386407DF8B98FFFFFEF3FEF
:109D90002DE9F04F21F00048B8F1795F85B0064613
:109DA0000F4692469B466BDA14F010FD002800F037
:109DB000EA8032463B463046394614F057FA74A3DF
:109DC000D3E9002304460D4614F050FA72A3D3E9F8
:109DD000002314F099F822462B4614F047FA70A39A
:109DE000D3E9002314F08EF822462B4614F03EFAF5
:109DF0006DA3D3E9002314F087F822462B4614F014
:109E000035FA6BA3D3E9002314F07CF822462B46E5
:109E100014F02CFA68A3D3E9002314F075F8224655
:109E20002B4614F023FACDE900010022664B2046B0
:109E3000294614F01BFADDE90023804689462046B6
:109E4000294614F013FA524604460D465B46304646
:109E5000394614F00BFA02460B462046294614F008
:109E600051F802460B464046494614F04BF802466C
:109E70000B460020554914F045F805B0BDE8F08FB9
:109E800002460B4614F0F2F941A3D3E9002304463D
:109E90000D4614F0EBF940A3D3E9002314F034F895
:109EA00022462B4614F0E2F93DA3D3E9002314F037
:109EB00029F822462B4614F0D9F93BA3D3E9002315
:109EC00014F022F822462B4614F0D0F938A3D3E937
:109ED000002314F017F822462B4614F0C7F936A3D6
:109EE000D3E9002314F010F82B46224614F0BEF9F3
:109EF000374B9845CDE9000197DD364B984539DC65
:109F0000A8F500130022002030499046994613F02E
:109F1000F9FFCDE9020100222B4B2046294614F01F
:109F2000A5F942464B4613F0EDFFDDE900238046DC
:109F300089462046294614F099F9524604460D46B2
:109F40005B463046394614F091F902460B462046EE
:109F5000294613F0D7FF02460B464046494613F008
:109F6000D1FF02460B46DDE9020113F0CBFF05B03D
:109F7000BDE8F08F9FED127B4FF000088DED027B66
:109F8000DFF85490C7E71149002005B0BDE8F08F15
:109F9000D43888BEE9FAA8BDC4B1B4BD9EEE213E56
:109FA000AD529C804F7E923E9015CB19A001FA3E97
:109FB0007751C1166CC1563F4C5555555555A53F67
:109FC000000000000000E73F0000E03F0000F03F1D
:109FD0003233D33F0000E93F0000D23F00000000D1
:109FE0002DE9F04FADF51B7D9F4CA49E9F4D54F87D
:109FF000264007942646D41E85FB0475E417C4EB5F
:10A00000A50424EAE4741D460A93631CA3EB8303AE
:10A01000013D02EBC30306932B460B940395651B8E
:10A02000F418049008911AD42C4400260027013417
:10A030000DF18808DDF8949208E059F8250014F035
:10A04000AFF80135A542E8E8020108D0002DF4DAA6
:10A05000013530463946A542E8E80201F6D1079BB2
:10A06000002BC0F2DF83079B03F1010B0A9B22A99F
:10A07000DB001A4601EB03090093049B0DF5E47A1B
:10A0800019460AEBCB0B01EB0208039B002BC0F235
:10A09000F582049C4D460026002775E90223F4E86A
:10A0A000020114F0E3F802460B463046394613F03D
:10A0B0002BFF444506460F46EFD1EAE80267DA4532
:10A0C00009F10809E1D107990098049C009101F178
:10A0D0008043013B9B0020441A1F83460EA8024484
:10A0E00003440C920D93009A9AA901EBC203002A33
:10A0F00053E9284529DD0DF5E47A0AEBC2080DF194
:10A10000340900225A4B2046294614F0AFF814F0C7
:10A110005DFB14F045F80022564B06460F4614F03E
:10A12000A5F802460B462046294613F0EBFE14F034
:10A130004DFB78E9022349F8040F3946304613F005
:10A14000E3FED04504460D46DBD1DDF818902046ED
:10A1500029464A4601F050F800224FF07F5304464A
:10A160000D4614F083F8FCF75FFD0022424B14F01B
:10A170007DF802460B462046294613F0C3FE0D46E5
:10A18000044614F023FB804614F00AF80B460246FE
:10A190002946204613F0B6FE4B46002B06460F46D6
:10A1A00040F3F980009A0EA9013AC9F1180351F859
:10A1B000225045FA03F101FA03F30EA8EB1A40F816
:10A1C0002230C9F11705884443FA05F5002D6DDDED
:10A1D000009B002B08F1010840F36F820E9C002CBD
:10A1E00040F01683009B012B40F38F820EAA0123BF
:10A1F00052F8044F002C00F08382581C0EAAC4F1C0
:10A20000807442F82340009A824219DD0EAA0EACF7
:10A2100052F820106FF07F42511A44F82010009934
:10A22000023399420CDD1046009A0EA901EB83031C
:10A2300001EB82011A68821A43F8042B8B42F9D190
:10A24000069B002B1ADD069B012B4FF0010440F00A
:10A250003C82009B5A1E0EAB0EA953F82230C3F36A
:10A26000160341F822303CE2080C0400ABAAAA2AEB
:10A270000000703E0000704100002040022D15D10A
:10A2800032463B460020924913F03CFE06460F46FC
:10A29000069A8F49002000F0AFFF02460B46304679
:10A2A000394613F02FFE022506460F4600220023F2
:10A2B0003046394614F042FA002800F03782009AFE
:10A2C000079B501E83420FDC02F18043013B0EAA24
:10A2D0000D9C02EB8303002253F80419A34242EAC7
:10A2E0000102F9D1002A67D1079B0EAA013B52F85F
:10A2F0002330002B40F018820C9A012352F80419E5
:10A3000001330029FAD0009AD31802F1010A9A45C4
:10A3100009933DDC009B0A990B9A0B4409990AEBBF
:10A320000208994622AB08F1804803EBC9098B1853
:10A33000A59A08F1FF3802EB880872AA02EBCA0A54
:10A34000A59A02EB8303009358F8040F13F028FF3B
:10A35000039B002BE9E802014FF000064FF00007D5
:10A3600011DB049C4D4675E90223F4E8020113F069
:10A370007DFF02460B463046394613F0C5FD5C456D
:10A3800006460F46EFD1009B9845EAE80267DBD10D
:10A39000099B0093A7E606D1009B0EAA013B52F849
:10A3A0002350ED1512E700224A4B14F0E5F900287E
:10A3B00040F06E81054679E70EA9039551F82030EB
:10A3C0000699CDF8248018390246009006916BB9A1
:10A3D00000F18043013B0EA800EB830353F804090E
:10A3E000013A18390028F9D000920691069A3849A6
:10A3F000002000F001FF009B002B04460D46C0F238
:10A40000F781DA0072A901EB020B06920EAA02EBA9
:10A410008306DFF8C4904FF000080BF108070436FC
:10A4200056F8040D13F0BCFE22462B4613F01EFF17
:10A430004B4667E9020142462046294613F016FFC3
:10A440000EAB9E4204460D46EAD14AACDDF81C90A4
:10A4500004944FF0000AB9F1000FC0F22B81DFF82D
:10A460007C805D4618A1D1E9000100260027002468
:10A4700003E0544510DCF8E80201F5E8022313F08C
:10A48000F5FE02460B463046394613F03DFD0134D9
:10A49000A14506460F46ECDA049B03EBCA03ABF179
:10A4A000080BC3E9006770AB9B450AF1010AD2D1E2
:10A4B000A49B049C032B00F28980DFE803F0C58E87
:10A4C0008E1100BFAFF3008000000040FB21F93F78
:10A4D0000000F03F0000E03F0000703E58F5030030
:10A4E000009B002B40F38181069A04EB020ADAE913
:10A4F000008902F1080525440DF5987B1AED027BD1
:10A5000042464B4651EC170B8DED047B13F0FCFCDF
:10A5100006460F4602460B46DDE9040113F0F2FC45
:10A5200042464B4613F0F0FC65E902015D45B0463A
:10A53000B9466AE90267E1D1009B012B40F35581DE
:10A54000069BE518D5E9008903F1080B04EB0B0A1B
:10A5500015ED027B42464B4651EC170B8DED007B0F
:10A5600013F0D2FC06460F4602460B46DDE9000119
:10A5700013F0C8FC4B46424613F0C6FC6AE90201E0
:10A580004EAB5345B046B94665E90267E0D10020BD
:10A59000002104EB0B0575E9022313F0B5FCAA4575
:10A5A000F9D1039B002B00F00A816268E368089FE1
:10A5B0002568A4683D6002F1004203F1004301F107
:10A5C00000417A60FB60BC6038617961099B03F0EF
:10A5D00007000DF51B7DBDE8F08F069D083525446D
:10A5E0000020002175E9022313F08EFCA542F9D169
:10A5F000039B002B00F0D280089E024601F100432D
:10A6000086E80C000B460246D4E9000113F07AFC00
:10A61000009B002B0BDD4CAD0124F5E8022313F069
:10A6200073FC009B0134A342F7DA039B13B101F1E1
:10A6300000431946089BC3E90201099B03F0070088
:10A640000DF51B7DBDE8F08F069D0835002000212B
:10A65000254475E9022313F057FCAC42F9D1039B62
:10A6600013B101F100431946089BC3E90001099B9E
:10A6700003F007000DF51B7DBDE8F08F00260027D5
:10A68000EAE80267DA4509F108097FF4FEAC1AE549
:10A69000009B002B08F10108C8BF02253FF79EADC3
:10A6A00032463B460020614913F02CFC0225064649
:10A6B0000F46FBE500260027EEE6069B002B27DD74
:10A6C0000024069B012B3FF4C4AD022B09D1009B53
:10A6D0005A1E0EAB0EA953F82230C3F3150341F8EE
:10A6E0002230022D7FF4E2AD32463B4600204F4936
:10A6F00013F008FC06460F46002C3FF4D7ADC7E523
:10A700000099013399427FF473AD069B002BD8DC8E
:10A71000022D7FF4CBAD32463B460020434913F077
:10A72000F1FB06460F46C1E50123ECE53946069FDD
:10A7300003957A423046CDF8248000F05DFD00227A
:10A740003B4B04460D4614F017F8002843D0002276
:10A75000384B2046294613F089FD14F037F8064699
:10A7600013F01EFD0022324B13F080FD02460B4613
:10A770002046294613F0C6FB14F028F800990B4632
:10A7800001331A4600933B46183306930B460EA935
:10A7900041F82300134641F8236027E6089B024650
:10A7A000C3E900010B46D4E9000113F0ABFB009BA9
:10A7B000002B3FF730AF089BC3E902013DE7D4E926
:10A7C0000067D4E90223089DC5E90401C5E90067D3
:10A7D000C5E90223FAE62946204613F0F7FF009A5E
:10A7E0000EA941F8220001E64AAC00200021D8E67B
:10A7F000A49B032B3FF6EAAE01A252F823F000BF60
:10A800001FA8020017A8020017A80200E9A702006B
:10A8100001200023F2E4002000214AACE8E60020F9
:10A8200000211CE70A9BDB0000934CE40000F03F92
:10A83000000070410000703E2DE9F04F21F000460D
:10A84000B6F1795F85B004460D469046994604DA24
:10A8500013F0BCFF002800F0858022462B462046DE
:10A86000294613F003FD06460F4602460B462046D6
:10A87000294613F0FBFC41A3D3E9002382468B4613
:10A880003046394613F0F2FC3EA3D3E9002313F01F
:10A8900039FB32463B4613F0E9FC3CA3D3E90023E5
:10A8A00013F032FB32463B4613F0E0FC39A3D3E908
:10A8B000002313F027FB32463B4613F0D7FC37A3A7
:10A8C000D3E9002313F020FB0E9BCDE900019BB3DD
:10A8D0000022294B4046494613F0C8FCDDE900231D
:10A8E000CDE902015046594613F0C0FC02460B4622
:10A8F000DDE9020113F006FB32463B4613F0B6FCDD
:10A9000042464B4613F0FEFA19A3D3E9002306464C
:10A910000F465046594613F0A9FC02460B463046F6
:10A92000394613F0F1FA02460B462046294613F049
:10A93000E9FA05B0BDE8F08F02460B4630463946CD
:10A9400013F094FC0AA3D3E9002313F0DBFA524678
:10A950005B4613F08BFC22462B4613F0D5FA05B06C
:10A96000BDE8F08F2046294605B0BDE8F08F00BF56
:10A97000495555555555C53F0000E03F7CD5CF5A48
:10A980003AD9E53DEB9C2B8AE6E55A3E7DFEB15770
:10A99000E31DC73ED561C119A0012A3FA6F81011D9
:10A9A0001111813F000000002DE9F04FBE4C21F055
:10A9B000004687B0A64282468B460F46CDE900236B
:10A9C0001BDC13F003FF002837D153461E43109BB6
:10A9D0000133334300F0B381109B012B00F0C88199
:10A9E00052465B460020B14913F06AFD04460D460D
:10A9F0002046294607B0BDE8F08FAD4B9E421CDDD6
:10AA00000029C0F2A98152465B4687A1D1E9000125
:10AA100013F078FADDE9002304460D4684A1D1E95C
:10AA2000000113F06FFA9FED847B22462B468DEDDB
:10AA3000007B13F069FA82468B4652465B465046CD
:10AA4000594613F013FC02460B468046894613F024
:10AA50000DFC424604460D464B465046594613F0FF
:10AA600005FC77A3D3E90023CDE90201204629465E
:10AA700013F0FCFB74A3D3E9002313F045FA22463C
:10AA80002B4613F0F3FB72A3D3E9002313F03CFA37
:10AA900022462B4613F0EAFB6FA3D3E9002313F001
:10AAA00033FA22462B4613F0E1FB6DA3D3E90023D2
:10AAB00013F02AFA22462B4613F0D8FB6AA3D3E9F7
:10AAC000002313F021FA42464B4613F0CFFB68A354
:10AAD000D3E90023CDE904012046294613F0C6FB43
:10AAE00065A3D3E9002313F00FFA22462B4613F097
:10AAF000BDFB63A3D3E9002313F006FA22462B46DD
:10AB000013F0B4FB60A3D3E9002313F0FDF9224650
:10AB10002B4613F0ABFB5EA3D3E9002313F0F4F94B
:10AB200022462B4613F0A2FB5BA3D3E9002313F0CC
:10AB3000EBF902460B46DDE9040113F0E5F9DDE926
:10AB4000022313F093FBDDE9004522462B4613F068
:10AB5000DBF942464B4613F089FB02460B46204682
:10AB6000294613F0D1F94EA3D3E9002304460D463C
:10AB7000DDE9020113F07AFB22462B4613F0C4F9FB
:10AB80000B460246804689465046594613F0BCF9AA
:10AB9000474B9E4204460D4600F38E80109B012BCE
:10ABA0003BD002460B460020404913F089FC0024AC
:10ABB00006460F462046294652465B46CDE90067C9
:10ABC000CDE90201009413F09DF9DDE900AB0246E6
:10ABD0000B464046494613F095F952465B4613F042
:10ABE00045FB524604460D465B46DDE9020113F083
:10ABF0003DFB00222F4B13F087F902460B462046FF
:10AC0000294613F081F932463B4613F02FFB52469A
:10AC10005B4613F079F904460D462046294607B0F5
:10AC2000BDE8F08FAFF30080182D4454FB21E93FBD
:10AC3000075C143326A6813C0000000000000000E1
:10AC4000D47ABF74702AFB3EE9A7F0320FB8123FE6
:10AC500068108D1AF726303F1583E0FEC8DB573F9A
:10AC600093846EE9E326823FFE41B31BBAA1AB3F5A
:10AC7000735360DBCB75F3BEA69237A0887E143F7A
:10AC80000165F2F2D844433F280356C9226D6D3F57
:10AC900037D60684F464963F7AFE10111111C13F35
:10ACA000635555555555D53FFFFF2F3E0000F0BF6A
:10ACB0002794E53F0000F03F109813F071FA224608
:10ACC000CDE900012B462046294613F0CFFADDE9F5
:10ACD0000023CDE902012046294613F015F902466A
:10ACE0000B46DDE9020113F0EBFB42464B4613F045
:10ACF00009F902460B465046594613F003F902463D
:10AD00000B4613F001F902460B46DDE9000113F092
:10AD1000F9F80446B81700F00200C0F101000D4632
:10AD200013F03EFA02460B462046294613F09EFADF
:10AD300004460D462046294607B0BDE8F08F504630
:10AD4000594611F08FF902460B4600200A4913F0CC
:10AD5000B7FB04460D4660E7DDE9004501F100411F
:10AD6000224605F1004382468B46CDE900234AE6A0
:10AD700054465D4651E700BF0000F03F0000000070
:10AD80002DE9F04FD24A21F00043934285B082462C
:10AD90008B460C462DD9CF4A93421AD8002C80F20C
:10ADA0001681B5A3D3E900235046594613F0ACF8F9
:10ADB0000022002313F0CCFCC0B9B1A3D3E90023D7
:10ADC0005046594613F052FA02460B460020C2493B
:10ADD00008E1C24A934240F2D0800346C1F3130215
:10ADE000134340F0F481002980F2C4800020BC4964
:10ADF000C0E0BC4A934200F22981BB4A934240F230
:10AE0000DE80002301930022B84B5046594613F0D0
:10AE10002DFA06460F4602460B465046594613F099
:10AE200025FA99A3D3E9002304460D4613F01EFA30
:10AE300097A3D3E9002313F067F822462B4613F0BB
:10AE400015FA95A3D3E9002313F05CF822462B46AC
:10AE500013F00CFA92A3D3E9002313F055F822461D
:10AE60002B4613F003FA90A3D3E9002313F04AF81A
:10AE700022462B4613F0FAF900229D4B13F044F8BA
:10AE80008046894602460B463046394613F0EEF9B5
:10AE900002460B460020974913F034F80646024656
:10AEA0000B460F464046494613F02CF83246804682
:10AEB00089463B465046594613F0D8F902460B46A0
:10AEC00000208D4913F01EF802460B4640464946C5
:10AED00013F0F6FA22462B4613F0C8F9019E0246FB
:10AEE0000B46002E38D0DDE9026732463B4613F0B0
:10AEF00009F852465B4613F0B9F932463B4613F067
:10AF000001F82B46224612F0FDFF019B0133064655
:10AF10000F4600F00F81019B012B00F0F180019B97
:10AF20000133392B39D8019B132B40F31281019C3B
:10AF3000C4F57F75033500222B0512F0E5FF0246AC
:10AF40000B465046594612F0DDFF0022684B12F0C6
:10AF5000DBFF01EB04510DE05046594613F086F932
:10AF600022462B4612F0CEFF02460B46504659466B
:10AF700012F0C8FF05B0BDE8F08F4DA3D3E9002360
:10AF800013F004FC00283FF409AF4BA3D3E90023DE
:10AF90001046194613F06AF9ECE752465B4612F088
:10AFA000B1FF02460B460020514912F0ABFF019A57
:10AFB0004F4B01EB0251002212F0A4FFDAE73EA34F
:10AFC000D3E9002312F0A0FF02460B46CAE72CA3E8
:10AFD000D3E900235046594613F048F90B4643493C
:10AFE0000246002012F090FF13F0F0FB019013F0E6
:10AFF000D7F833A3D3E9002306460F4613F036F9FA
:10B0000002460B465046594612F07CFF2EA3D3E968
:10B010000023804689463046394613F027F9064614
:10B020000F4632463B464046494612F06BFF024609
:10B030000B4682468B464046494612F063FF324635
:10B040003B4612F05FFFCDE90201DCE62B4A93425A
:10B0500000F2958000291AA3D3E90023C0F2AC8046
:10B0600012F050FF012380468946019316A7D7E9C5
:10B070000067D6E7AFF3008059F3F8C21F6EA50151
:10B08000FE822B654715F73F2DC3096EB7FD8ABEBB
:10B090003952E686CACFD03EB7DBAA9E19CE143FFE
:10B0A0008555FE19A0015A3FF41011111111A13F4D
:10B0B000EF39FAFE422E86409C7500883CE4377ECC
:10B0C0000000E0FE422EE63F763C7935EF39EA3D5E
:10B0D00079684340412E86400000E0BFFFFFEF7FCC
:10B0E0000000F0BF422ED63FFFFF8F3C0000E03F44
:10B0F0000000F03F0000084000001840B1A2F03FFF
:10B100000022394B5046594613F022FB002844D008
:10B11000504659460022354B12F0F6FE02460B46C9
:10B120003046394612F0EEFE00224FF0404313F055
:10B130009DF81FE702460B465046594612F0E2FEC4
:10B1400000222A4B13F092F80022284B12F0DAFE6C
:10B1500010E7019C4FF400132341C3F17F5752467F
:10B160005B4612F0CFFE002607F5401702460B465D
:10B170003046394612F0C6FE01EB0451FAE616A33A
:10B18000D3E9002313F072F8002C02460B464FF06F
:10B190000000FFF61CAE154924E732463B465046F8
:10B1A000594612F0AFFE02460B4612F0ADFE0022E9
:10B1B0000F4B12F0A9FEDDE612F0A6FE4FF0FF33B2
:10B1C00080468946019306A7D7E9006729E702462A
:10B1D0000B4612F099FECDE6FE822B654715F73F30
:10B1E000763C7935EF39EABD0000D0BF0000E03F82
:10B1F0000000F03F00000000F8B5C1F30A56044615
:10B200000D460B4617460EBB21F00043034386460E
:10B2100025D00022344B13F029F8344A97420446D3
:10B220000D460B462ADBC1F30A56363E3E4440F239
:10B23000FE72964228DC002E12DD23F0FF4323F439
:10B24000E00343EA065520462946F8BD40F2FF7266
:10B250009642EBD102460B4612F056FEF8BDF8BD01
:10B2600016F1350F1DDA4CF250339F4222462B4621
:10B2700025DC19A1D1E9000112F0B6FD16A3D3E92E
:10B28000002312F0F3FFF8BD22462B4614A1D1E9AA
:10B29000000112F0A9FD12A3D3E9002312F0E6FF8A
:10B2A000F8BD23F0FF4323F4E003363643EA0655A6
:10B2B0002046294600220E4B12F0D8FFF8BD08A107
:10B2C000D1E9000112F090FD05A3D3E9002312F0AB
:10B2D000CDFFF8BDAFF3008059F3F8C21F6EA50192
:10B2E0009C7500883CE4377E00005043B03CFFFF73
:10B2F0000000903C10B5054C237833B9044B13B1D2
:10B300000448AFF300800123237010BD1085002096
:10B3100000000000600D04000C4B43B10C480D49C7
:10B3200010B5AFF300800C48036823B910BD0A487C
:10B33000036833B97047094B002BF7D0BDE81040C4
:10B340001847064B002BF5D0184700BF000000003F
:10B35000600D040014850020108200200000000011
:10B36000154B002B08BF134B9D46A3F5803A0021D7
:10B370008B460F461348144A121A08F0A5FD0F4BCE
:10B38000002B00D098470E4B002B00D09847002090
:10B39000002104000D000D48002802D00C48AFF336
:10B3A000008012F057FD2000290005F0B7F912F0D7
:10B3B0003DFD00BF00000800000004200000000068
:10B3C0000000000000840020808C002000000000AD
:10B3D0000000000070B504460E4600F0D1F888B1B8
:10B3E0000368DB6A05469847082C0CD0A4F10903D2
:10B3F000012B14D93246214610230D20BDE87040A0
:10B4000004F0BCB870BD2B6828465B6A98470228D8
:10B41000F0DC2B6828461B6A04219847EAE72B6872
:10B4200028465B6A98470528E4DC2B6828461B6A97
:10B4300008219847DEE700BF30B52DED028B83B0C1
:10B44000054600F09DF8044640B10368DB6A984762
:10B45000032D50D8DFE805F0373F470801900198E9
:10B4600003B0BDEC028B30BD20460CF053FB07EE61
:10B47000900A2046F8EEE78A0CF05CFB07EE900A93
:10B480002046B8EEE78A0CF065FB68EE087A07EE16
:10B49000100AE8EEA87AB8EEC77AE7EE077AF5EE7A
:10B4A000407AF1EE10FAB1EEE78A03D517EE900A72
:10B4B00011F024FBFDEEC87ACDED017A019803B0BE
:10B4C000BDEC028B30BD204603B0BDEC028BBDE865
:10B4D00030400CF01FBB204603B0BDEC028BBDE832
:10B4E00030400CF027BB204603B0BDEC028BBDE81A
:10B4F00030400CF02FBB00230193B0E738B5054670
:10B5000000F03EF858B10368DB6A0446984745B13D
:10B51000012D04D12046BDE83840FBF79DB800203E
:10B5200038BD2046BDE83840FBF776B810B5044674
:10B5300000F026F828B1036821461B6ABDE81040D8
:10B54000184710BD0048704716FCFFFF704700BF4A
:10B5500010B5034B036004460CF0BCF8204610BD48
:10B56000D002040010B5054B036004460CF0B2F89D
:10B57000204613F0BDFB204610BD00BFD0020400E2
:10B580002DE9F043C04C236885B01BB1986805B025
:10B59000BDE8F0834FF0FF31012001F0FFFCC0B2A5
:10B5A00004F03CFB002800F0ED800C2013F0A2FB1F
:10B5B00003210646512001F0F1FCDFF8FCE2B34B19
:10B5C000054605F00F07C5F3031815F4807518BF7D
:10B5D0007346AF48394642460BF07AFA2A1C18BF28
:10B5E00001223946434630460EF0FAF90023A948B5
:10B5F000B3600BF06DFA4FF0FF31032001F0CEFC89
:10B60000C0B204F00BFB4FF0FF310546022001F001
:10B61000C5FCC0B204F002FB002D00F09A800028A7
:10B6200000F097800146284604F08AF80746002873
:10B6300000F0A4804FF0FF31462001F0AFFC32282B
:10B6400080462BD028DD382869D068283FD14FF0BC
:10B65000FF31012001F0A2FCC0B204F0DFFA814604
:10B660004C2013F047FB0523054601934A46CDF8CD
:10B670000080394633460DF083F92846B0600368F0
:10B680009B6A9847B0680368DB6A984782480BF06A
:10B690001FFA2660B0687AE7302818D14FF0FF31E2
:10B6A000012001F07BFCC0B204F0B8FA81464C20C6
:10B6B00013F020FB1FFA88F1054605234A46009146
:10B6C0000193394633460CF03DFF2846D6E73A68E9
:10B6D0000125002301950095D2F82080B3600F2248
:10B6E0000DF10F0332213846C047002856D14FF0E4
:10B6F0003208414669480BF0EBF94FF0FF31012069
:10B7000001F04CFCC0B204F089FA81464C2013F0E1
:10B71000F1FA052305464A46CDF80080D0E74FF000
:10B72000FF31012001F03AFCC0B204F077FA814603
:10B73000442013F0DFFA052305464A46CDF8008081
:10B740003946019333460DF073F8554B2B6028466C
:10B7500094E754480BF0BCF94FF0FF31192001F089
:10B760001DFCC0B204F05AFA4FF0FF310546182014
:10B7700001F014FCC0B204F051FA53E74A480BF050
:10B78000A7F986E74FF0FF31032001F007FCC0B2B4
:10B7900004F044FA00287FF408AFF8E63B6801950E
:10B7A0000095D3F820800F220DF10F033021384689
:10B7B000C04718B94FF0300841469BE73B680195F8
:10B7C0000095D3F820800D220DF10F033821384663
:10B7D000C047C0B9382131480BF07AF94FF0FF313A
:10B7E000284601F0DBFBC0B204F018FA8046442082
:10B7F00013F080FA4FF0050E3823054642463946CD
:10B800008DE808409EE73A6801950095D2F82080BF
:10B810000DF10F03752268213846C047E0B9682151
:10B820001E480BF055F94FF0FF31284601F0B6FBEA
:10B83000C0B204F0F3F980464C2013F05BFA4FF0ED
:10B84000050E682305468DE80840424639463346D2
:10B850000DF096F8284611E714480BF039F9B06856
:10B8600000287FF40CAF4FF0FF31032001F096FB6E
:10B87000C0B204F0D3F918B10D480BF029F908E76C
:10B880000C480BF025F904E72C850020E4F50300B3
:10B89000ECF503000CF60300A4F60300C8F6030061
:10B8A000A8F503001CF6030030F60300B4F603000D
:10B8B00048F6030084F60300DCF5030008B501F048
:10B8C0009FFCFBF76DFCBDE8084001F0FDB900BF2F
:10B8D00008B501F095FCFBF7D3FCBDE8084001F08A
:10B8E000F3B900BF08B501F08BFC10F031FCBDE8E6
:10B8F000084001F0E9B900BF08B501F081FC11F082
:10B9000039F8BDE8084001F0DFB900BF08B501F023
:10B9100077FCFBF755FCBDE8084001F0D5B900BF46
:10B9200008B501F06DFC10F051FEBDE8084001F0D3
:10B93000CBB900BF08B501F063FCFAF7ADFEBDE876
:10B94000084001F0C1B900BF08B501F059FC10F082
:10B9500091FDBDE8084001F0B7B900BF70B5049E85
:10B9600096420C4628DB15466BB1002A00EB02011B
:10B9700007DD2046A21811F8013D00F8013B904276
:10B98000F9D1002070BD042A0FD0022A02D110F094
:10B99000010306D001462A46204607F0A5F80020FC
:10B9A00070BD02880A80184670BD10F00303F1D103
:10B9B00002680A60184670BD0846002108F084FA43
:10B9C0004FF0FF3070BD00BF0830704740B1002914
:10B9D00005DB4368994202DA0844007A7047002088
:10B9E000704700BF30B1002904DB43689942BCBFF7
:10B9F00040180272704700BF40B1002905DB436860
:10BA0000994202DA0844007A70470020704700BF6C
:10BA1000830705D120B1030F0CBF01200020704720
:10BA20000120704730B1002904DB43689942BCBF54
:10BA300040180272704700BF002B23DB002921DB76
:10BA400070B54668B1421ADC5568761A1446EA1A8F
:10BA5000B242A8BF3246002A11DB84420D4607D00D
:10BA6000083408300844E11807F03EF8002070BDA3
:10BA70000834E118601913F06BF9002070BD4FF025
:10BA8000FF3070BD4FF0FF30704700BF4068704717
:10BA900010B4141E10DB426894420DDC33EA230319
:10BAA00028BF1346121B08309A422044A8BF1A46EA
:10BAB0005DF8044B08F008BA5DF8044B704700BF0E
:10BAC00043688B4210B400F108041846A8BF08462A
:10BAD00032EA220128BF19461B1A99422044A8BF06
