:1040000000000320014F0100FD4E010099DB00007C
:10401000FD4E0100FD4E0100FD4E010000000000BC
:10402000000000000000000000000000FD4E010044
:10403000FD4E010000000000FD4E0100FD4E01009C
:10404000FD4E0100FD4E0100FD4E0100FD4E010040
:10405000FD4E0100FD4E0100FD4E0100FD4E010030
:10406000FD4E0100FD4E0100FD4E0100FD4E010020
:10407000F5D50100FDD5010005D601000DD60100E2
:1040800015D601001DD6010025D601002DD6010050
:1040900035D601003DD6010045D601004DD60100C0
:1040A00055D601005DD6010065D601006DD6010030
:1040B000FD4E0100FD4E0100FD4E0100A1D00100AA
:1040C000A5D00100A9D00100ADD00100B1D0010000
:1040D000FD4E0100FD4E0100FD4E0100FD4E0100B0
:1040E000FD4E0100FD4E0100FD4E0100FD4E0100A0
:1040F00000000000FD4E0100E5CB0100E1CB010016
:10410000DDCB0100D1CB0100FDCB0100F9CB0100DB
:10411000F5CB0100E9CB010015CC010011CC010069
:104120000DCC010001CC01002DCC010029CC0100F7
:1041300025CC010019CC010045CC010041CC010087
:104140003DCC010031CC01005DCC010059CC010017
:1041500055CC010049CC0100000000000000000027
:10416000000000000000000000000000000000004F
:10417000000000000000000000000000000000003F
:1041800051A2010055A201004DA2010049A2010067
:1041900000000000FD4E0100FD4E0100FD4E01003B
:1041A000FD4E0100FD4E0100FD4E0100FD4E0100DF
:1041B000FD4E0100FD4E0100FD4E0100FD4E0100CF
:1041C000FD4E0100FD4E0100FD4E0100FD4E0100BF
:1041D000FD4E0100FD4E0100FD4E0100FD4E0100AF
:1041E000FD4E0100FD4E0100FD4E0100A9C201007F
:1041F000B1C20100B9C20100C1C20100C9C20100BF
:10420000D1C201000000000000000000FD4E0100CE
:10421000FD4E0100FD4E0100FD4E0100FD4E01006E
:10422000FD4E0100FD4E0100FD4E0100FD4E01005E
:10423000FD4E0100FD4E0100FD4E0100FD4E01004E
:10424000FD4E0100FD4E0100FD4E0100FD4E01003E
:10425000FD4E0100FD4E0100FD4E0100FD4E01002E
:10426000000000007CB0EE877CB0EE87FF00FF000E
:10427000FF00FF00FF00FF00FF00FF00FF00FF0046
:10428000FF00FF00FF00FF00FF00FF00FF00FF0036
:10429000FF00FF00FF00FF00FF00FF000000000024
:1042A0002DE9F04F85B003910778A7F10903042B9E
:1042B000044607F07F0200F10100F5D9202AF3D06F
:1042C0002B2F04BF677804462D2F72D09FED427BC1
:1042D0008DED007B4FF000084FF000098FB34FF0D9
:1042E000000E4FF0000ADFF800B1754619E019F032
:1042F00083FC80468946304619F018FC42464B46FE
:1043000019F0C8FA5246804689465B46DDE900014D
:1043100035B319F09BFDCDE90001AE4614F8017FDD
:104320007FB1A7F13006092E52465B46404649460A
:10433000DDD9C5B92E2F16D114F8017F0125002F24
:10434000EFD142464B46DDE9000119F055FC8046AD
:104350008946039B404649461C6005B0BDE8F08F86
:104360004FF0010EDAE7BEF1000F29D042464B466E
:10437000DDE9000119F040FC07F0DF07452F80461A
:104380008946E6D10399601C0A221CF0A5FA164959
:104390000246002019F090FF02460B46404649466F
:1043A00019F02AFC804689464046494605B0BDE8DA
:1043B000F08F9FED0B7B67788DED007B013489E7F3
:1043C000DFF828904FF000084046494605B0BDE8A8
:1043D000F08F00BFAFF30080000000000000F03F4E
:1043E000000000000000F0BF000024400000F87F43
:1043F0002DE9F84F16460023002204460D4619F019
:104400006DFE002840F09D800022002320462946B2
:1044100019F05AFE28B13022002332707370BDE8C3
:10442000F88F204629461AF057FD19F095FE7BA318
:10443000D3E9002381462946204619F04FFE002883
:1044400000F08680B9F1000FC0F2BE804A4600201D
:104450006F4919F031FF02460B462046294619F0F4
:10446000F5FC04460D4666A1D1E9000101274FF095
:10447000000822462B4619F0BFFB0022654B19F0BD
:1044800009FA19F055FF002FCC464FF0FF3AC1460C
:104490004FF0000840F38580DFF888E15E4C012290
:1044A000AEF1700945F6F3254FF02E0BA94208BF77
:1044B000A0424FF0300309D3001B61EB0501A94274
:1044C00008BFA04203F10103F6D2DBB2337050EA19
:1044D000010306F1010409D1BA4210DACE4502F116
:1044E00001020CD026467EE80245DFE7BA4204BF4F
:1044F00086F801B0B41CCE4502F10102F2D1B8F148
:10450000000F0DD02246302102F8011BC2F1010339
:1045100053442344002BF7DC2AEAEA7301331C449A
:10452000BCF1010F4CD06523BCF1000F2370C5BF57
:104530002B236370611CA11C6046BDE8F84F10F08E
:104540004DBD05F100431D462D23337001365BE759
:104550002DA3D3E900232046294619F0DDFD0028CC
:104560007FF470AFB9F10E0F09F101073DDDA9F13C
:104570000E0842460020264919F09EFE02460B46D0
:104580002046294619F062FC0022224B19F082F9DC
:1045900019F0CEFE002FA9F10F0A4FF0010C3FF7E2
:1045A0007BAF334630222E2403F8022B74707FEA4F
:1045B000090618D01E4403F8012BB342FBD16BE768
:1045C00000232370BDE8F88FC9F1000200201049D4
:1045D00019F072FE02460B462046294619F00CFBE4
:1045E00004460D463FE71E4656E7C9F10E0200207D
:1045F0000749C84619F060FE4FF0010939E700BFCE
:104600000000901EC4BCD64250EFE2D6E41A4B44E0
:10461000000024400000E03F00407A108DEDB5A07E
:10462000F7C6B03E4819020070B54FF0FF3006F0F3
:10463000CBF804466FF07F4006F0C6F806462046E9
:1046400019F064FA00220C4B19F0D6FA04463046F1
:104650000D4619F05BFA06A3D3E9002319F0F6FB27
:1046600002460B462046294619F014F970BD00BFDA
:104670000000E0DFFFFF6F430000F03D000000009E
:1046800008B511F05FFFDFED0C7A07EE100A67EE58
:10469000277A17EE900A19F05BFA05A3D3E90023F5
:1046A00019F0D4FB19F058FD08BD00BFAFF300802E
:1046B000EA2E4454FB2119400000B44300000000DE
:1046C00008B511F053FFDFED0C7A07EE100A67EE24
:1046D000277A17EE900A19F03BFA05A3D3E90023D5
:1046E00019F0B4FB19F038FD08BD00BFAFF300802E
:1046F000EA2E4454FB2119400000B443000000009E
:104700002DE9F04F046985B0E3699B07FCD123686C
:10471000C3F3400BBBF1000F40F0AF80B0F80CA02A
:1047200015468046BAF1000F23D0BAF1010F62D0CE
:10473000BAF1020F40F0A4805500E1685448C5F575
:104740003B438033B3FBF5F31A0421F47F0102F4F9
:104750007F020A43E260E2685B00A0FB03135B0890
:1047600022F07F4242EA03635846E36005B0BDE8A9
:10477000F08FE2684BF6803B05EB850022F0FF03EB
:10478000ABEB4000019319F0C1F90646B8F80E00F2
:104790000F4619F0CBF93CA3D3E9002319F02CFA0A
:1047A00080460BFB05F0894619F0B0F902460B462E
:1047B0004046494619F020FA02460B463046394633
:1047C00019F066F8064668000F4619F09FF9024690
:1047D0000B463046394619F039FB19F0E5FC019BD0
:1047E000C0B21843E060E368504623F47F43E360BF
:1047F00005B0BDE8F08FE2684BF6803A05EB850026
:1048000022F0FF03AAEB4000019319F07FF9CDE9F4
:104810000201B8F80E0019F089F91BA3D3E90023AF
:1048200019F0EAF906460AFB05F00F4619F06EF991
:1048300002460B463046394619F0DEF902460B4671
:10484000DDE9020119F024F8064668000F4619F068
:104850005DF902460B463046394619F0F7FA19F071
:10486000A3FC019AC3B21343E360E368584623F400
:104870007F43E36005B0BDE8F08F6FF0100075E78F
:104880006FF00C0072E700BF95D626E80B2E113EA4
:10489000ABAAAAAA000000004F4A21F000439342AD
:1048A0002DE970430D4604464FDC4C4A93420E46B8
:1048B0000FDC45A3D3E9002318F0ECFF0022484B9E
:1048C00019F02AFC002856D02B4620461946BDE890
:1048D0007083444A934242DCB3F1804F4BDD19F0C0
:1048E00005FF2246804689462B462046294619F078
:1048F00083F900223A4B18F0CDFF1AF015FF02465B
:104900000B464046494618F0C5FF02460B460020BC
:10491000334919F09BFA424604460D464B46404641
:10492000494618F0B7FF0B4602462946204618F0C4
:10493000B1FF01F0FDFE04460B46002E0BDC03F137
:10494000004320461946BDE870830B46024618F026
:10495000A1FF04460B4620461946BDE8708319F0B6
:10496000C5FE01F0E5FE1AA3D3E9002318F092FF7B
:1049700004460B46E1E722462B462046294619F01D
:104980003BF9804689462046294619F0AFFE0022B1
:104990000446134B0D464046494618F07BFF1AF07B
:1049A000C3FE00220E4B18F075FF02460B46404630
:1049B000494619F04BFA22462B4618F06BFF00F0DF
:1049C000D3FA04460B46B8E79C7500883CE4377E72
:1049D000EF39FAFE422EE63FFFFFEF7FFFFF2F3E4B
:1049E0000000F03F0000B0412DE9F84FC24B21F02C
:1049F00000469E420D468A46044610DDBF4B9E424D
:104A000000F3B58000F0B080BD4BBE49BE4CBAF19A
:104A1000000FD8BF0B4620461946BDE8F88FBB4BA8
:104A20009E4200F3C180A3F1DE739E4240F3AB804F
:104A30004FF0FF3B22462B462046294619F0DCF872
:104A400002460B468046894619F0D6F892A3D3E970
:104A5000002306460F4619F0CFF891A3D3E90023AF
:104A600018F018FF32463B4619F0C6F88EA3D3E97A
:104A7000002318F00FFF32463B4619F0BDF88CA317
:104A8000D3E9002318F006FF32463B4619F0B4F88C
:104A900089A3D3E9002318F0FDFE32463B4619F006
:104AA000ABF887A3D3E9002318F0F4FE42464B4647
:104AB00019F0A2F884A3D3E9002380468946304642
:104AC000394619F099F882A3D3E9002318F0E0FEE3
:104AD00032463B4619F090F87FA3D3E9002318F043
:104AE000D7FE32463B4619F087F87DA3D3E9002371
:104AF00018F0CEFE32463B4619F07EF87AA3D3E991
:104B0000002318F0C5FE32463B4619F075F8BBF19C
:104B1000FF3F02460B466ED04046494618F0BAFEAB
:104B200022462B4619F068F8794E7A4B4FEACB0BA8
:104B30005E449B44DBE9002318F0AAFE22462B4684
:104B400018F0A6FE0B460246D6E9000118F0A0FEBA
:104B5000BAF1000F04460B46BFF65DAF01F100430A
:104B600020461946BDE8F88F00283FF44DAF224695
:104B70002B462046294618F08DFE04460B4620465B
:104B80001946BDE8F88F5AA3D3E9002318F082FE36
:104B90000022614B19F0C0FA00283FF449AF2B46C0
:104BA00020461946BDE8F88F19F0A0FD5B4B9E42E8
:104BB00004460D4630DCA3F550239E4255DC0246E8
:104BC0000B4618F067FE0022534B18F061FE0022DE
:104BD00006460F464FF080432046294618F05AFEFD
:104BE00002460B463046394619F030F94FF0000BBB
:104BF00004460D461EE74046494618F04BFE224645
:104C00002B4618F0F9FF0B4602462946204618F0BD
:104C10003FFE04460B46FEE6414B9E421ADC002254
:104C2000404B18F035FE002206460F463D4B20460D
:104C3000294618F0E1FF0022374B18F02BFE024600
:104C40000B463046394619F001F94FF0020B044685
:104C50000D46EFE602460B460020334919F0F6F800
:104C60004FF0030B04460D46E4E600222A4B18F0F1
:104C70000FFE002206460F46274B2046294618F015
:104C800009FE02460B463046394619F0DFF84FF070
:104C9000010B04460D46CDE611DA22E33AAD903F12
:104CA000EB0D76244B7BA93F513DD0A0660DB13F63
:104CB0006E204CC5CD45B73FFF8300922449C23FCB
:104CC0000D5555555555D53F2F6C6A2C44B4A2BF90
:104CD0009AFDDE522DDEAD3F6D9A74AFF2B0B33F58
:104CE000711623FEC671BC3FC4EB98999999C93FD0
:104CF0009C7500883CE4377EFFFF0F440000F07F86
:104D0000FB21F93FFB21F9BF182D4454FFFFDB3F86
:104D100058190200781902000000F03FFFFFF23F2F
:104D2000FF7F03400000F83F0000F0BF00000000DC
:104D30002DE9F047C1F30A59A9F2FF36132E0B46AD
:104D40000D46044607468846824622DC002E4FDB8D
:104D50003D4A42FA06F901EA090202431ED038A38D
:104D6000D3E9002318F096FD0022002319F0D4F9AE
:104D700050B1002D04DD4FF4801343FA06F6B04421
:104D800028EA09054FF0000A544629462046BDE8A6
:104D9000F087332E06DDB6F5806F3DD019462046EC
:104DA000BDE8F087A9F213494FF0FF3222FA09F962
:104DB00010EA090FF2D022A3D3E9002318F06AFD0C
:104DC0000022002319F0A8F90028DDD0002D09DD0C
:104DD000142E2FD00123C6F1340603FA06F6371934
:104DE00028BF9844454627EA090A54462946CDE794
:104DF00013A3D3E9002318F04DFD0022002319F07E
:104E00008BF90028C0D0002D0FDB55EA040709D02C
:104E10004FF0000A0D4DB7E702460B4618F03AFD79
:104E20000446BCE7BA463D46AEE74FF0000A4FF0F5
:104E30000045A9E705F10108D4E700BFAFF3008002
:104E40009C7500883CE4377EFFFF0F000000F03FB8
:104E5000C1F30A522DE9F843A2F2FF36132E0B4696
:104E60000D460446884607461DDC002E40DB3C4AC2
:104E700042FA06F901EA09020243864618D036A32F
:104E8000D3E9002318F006FD0022002319F044F9AD
:104E900020B1002D42DB28EA090500273C462946BF
:104EA0002046BDE8F883332E06DDB6F5806F2FD09F
:104EB00019462046BDE8F883A2F213424FF0FF39AD
:104EC00029FA02F910EA090FF2D023A3D3E900234B
:104ED00018F0E0FC0022002319F01EF90028DDD0B4
:104EE000002D21DB454627EA09073C462946D7E73E
:104EF00019A3D3E9002318F0CDFC0022002319F0F8
:104F00000BF90028CAD0002D19DB00273D46C5E764
:104F100002460B4618F0BEFC0446CAE74FF4801365
:104F200043FA06F6B044B6E7142E10D00123C6F1BA
:104F3000340603FA06F6371928BF9844D2E725F05D
:104F40000042084B224318BF1D460027A6E705F183
:104F50000108C7E7AFF300809C7500883CE4377E0A
:104F6000FFFF0F000000F0BF2DE9F04FD64B994234
:104F700089B00E460F46824613DCD44B21F0004424
:104F80009C4218DD0022D24B19F09EF8002879D0FF
:104F9000002200230020CF4918F058FF09B0BDE8D7
:104FA000F08FCD4B99422FDD5246334618F072FCFC
:104FB00009B0BDE8F08FC94B9C4270DDC84B1F445F
:104FC0009F427ED8504631460022C64B18F062FC04
:104FD0004FEA215BABF2FF3BBBF1000F04460D46ED
:104FE0000F4640F3E0815246334618F051FC02462A
:104FF0000B460020BB4918F04BFC22462B4618F00C
:1050000025FFCDE900010BE0B74B9F42DADD00221E
:105010000023CDE900234FEA275B5446ABF2FF3B68
:10502000B24BC7F313079F4247F07F5500F3E78069
:1050300045F44015204629460022AA4B18F028FCCA
:10504000002204460D46AA4B18F0D6FD22462B46F8
:1050500018F0D2FDA246CDE902012E4680468946CF
:10506000002F3AD1002200232046294619F02CF8BF
:10507000002800F0CE80BBF1000F40F076810020C8
:10508000014695E7524633465046314618F000FC3B
:1050900002460B4618F0DAFE09B0BDE8F08F002298
:1050A000944B18F0F7FB0022002319F035F8002884
:1050B00000F0CC80904B9C4200F3C88050463146B3
:1050C00076E700228A4B18F097FD5246334618F0D7
:1050D00093FD4FF0000B8046894600224FF080433D
:1050E0005046314618F0D6FB02460B465046314634
:1050F00018F0ACFE02460B46CDE9022318F07CFD09
:105100005DA3D3E9002304460D4618F075FD5CA3AA
:10511000D3E9002318F0BEFB22462B4618F06CFDA5
:1051200059A3D3E9002318F0B5FB22462B4618F00B
:1051300063FD57A3D3E9002318F0ACFB22462B46AE
:1051400018F05AFD54A3D3E9002318F0A3FB22461C
:105150002B4618F051FD52A3D3E9002318F09AFB17
:1051600022462B4618F048FD4FA3D3E9002318F040
:1051700091FB22462B4618F03FFD04460D46BBF13D
:10518000000F00F0BB80584618F0D0FC48A3D3E9CC
:105190000023CDE9040118F02FFD4246CDE90601B8
:1051A0004B462046294618F075FBDDE9022318F02E
:1051B00023FD41A3D3E9002304460D46DDE90401A4
:1051C00018F01AFDDDE9002318F064FB02460B46D7
:1051D0002046294618F05EFB02460B4640464946EB
:1051E00018F056FB5246334618F052FB02460B4667
:1051F000DDE9060118F04CFB09B0BDE8F08F45F47D
:105200000015C7F5801720462946BF100BF1010B8A
:1052100012E72BA3D3E900232046294618F0ECFC23
:1052200002460B4600202F4918F032FBDDE902232D
:1052300018F0E2FC06460F46BBF1000F6DD10246A6
:105240000B462046294618F023FBB1E6524633466A
:105250005046314618F0D0FC0022254B18F0CCFC0B
:1052600002460B465046314618F012FB09B0BDE825
:10527000F08F00BFAFF3008044523EDF12F1C23F17
:105280009FC678D0099AC33FDE03CB966446C73FDA
:10529000AF788E1DC571CC3F599322942449D23FDB
:1052A00004FA97999999D93F935555555555E53F26
:1052B0000000E0FE422EE63F763C7935EF39EA3DCC
:1052C000555555555555E53F7982DA3FFFFFEF3F7C
:1052D0000000F0BF000050C3FFFFEF7FFFFF1F3E45
:1052E0003C412D400000F03FFFFF3F439DA00600E2
:1052F0000000E03F00005043FFFF8F3C42464B461A
:1053000018F0C8FADDE9022318F076FC02460B46D5
:105310004046494618F0BCFAA2E7584618F006FC89
:1053200027A3D3E9002382468B4618F065FC26A309
:10533000D3E90023804689465046594618F05CFC64
:10534000DDE9002318F0A6FA02460B46304639463E
:1053500018F09EFA22462B4618F09AFA02460B469F
:105360004046494618F094FA22E6584618F0DEFB0B
:1053700015A3D3E9002306460F4618F03DFCDDE9EE
:10538000002318F087FA0EA3D3E9002304460D4644
:105390003046394618F030FC02460B462046294676
:1053A00018F078FA04E60022094B18F071FA024668
:1053B0000B465046314618F06BFA1EE6AFF30080FC
:1053C0000000E0FE422EE63F763C7935EF39EA3DBB
:1053D0000000F03F0000000008B519F001FD04A333
:1053E000D3E9002318F032FD08BD00BFAFF3008001
:1053F000EF39FAFE422EE63F2DE9F043DFF8B480A4
:105400008BB004460D4600F06BFF98F90030013375
:1054100006460F462BD022462B462046294618F03A
:1054200085FE814618BB2046294619F05FF91CA36A
:10543000D3E9002318F070FEC8B11B4A98F9003078
:10544000CDF820900321CDE90445CDE902458DE852
:1054500006008BB9154B4FF06042CDE90623684634
:105460001BF0A6F870B1089B9BB9DDE906673046D2
:1054700039460BB0BDE8F0830D490020022BCDE981
:105480000601ECD11BF0E4F922230360089B002BFA
:10549000EBD01BF0DDF9089B0360E6E7AFF300807B
:1054A0007DF8B98FCE338640A0300200FFFFEF4772
:1054B0000000F07F1E0200202DE9F043DFF8E480B9
:1054C0008BB004460D4600F0BBFF98F90030013365
:1054D00006460F4633D0204629461BF063F870B3CA
:1054E00029A3D3E900232046294618F015FE81465A
:1054F00050BB27A3D3E900232046294618F0EEFD30
:10550000E8B198F90030244ACDF820900426002014
:105510000021022BCDE90445CDE902450096019218
:10552000CDE9060129D068461BF042F828B3089B54
:105530001BB11BF08DF9089B0360DDE9066730465F
:1055400039460BB0BDE8F083134A98F90030019258
:1055500003210022CDE90445CDE9024500910892DE
:105560002BB90E4B4FF06042CDE90623DBE70C4927
:105570000020022BCDE90601D5D11BF069F92223C9
:105580000360D4E7AFF30080EF39FAFE422E864085
:1055900051302DD5104987C0A8300200FFFFEF47DA
:1055A0000000F07F1E0200202DE9F84FC44E21F0CC
:1055B0000043B3420C4605460DDD03F1404303F5BD
:1055C0008013034340F0B980002940F3408100205C
:1055D0000021BDE8F88FBB4EB34240F3A6800029FE
:1055E000C0F2788102460B460020B74918F050F906
:1055F0000022B64B18F000FB04460D461AF094F852
:1056000095A3D3E90023894680462946204618F011
:10561000F3FA93A3D3E9002318F03CF922462B4672
:1056200018F0EAFA90A3D3E9002318F031F92246E2
:105630002B4618F0E1FA8EA3D3E9002318F02AF9DB
:1056400022462B4618F0D8FA8BA3D3E9002318F092
:105650001FF922462B4618F0CFFA89A3D3E900237D
:1056600018F018F922462B4618F0C6FA86A3D3E99B
:10567000002382468B462046294618F0BDFA84A3B3
:10568000D3E9002318F004F922462B4618F0B4FAA7
:1056900081A3D3E9002318F0FDF822462B4618F029
:1056A000ABFA7FA3D3E9002318F0F2F822462B4689
:1056B00018F0A2FA0022844B18F0ECF802460B46D0
:1056C0005046594618F0C2FB42464B4618F094FA31
:1056D000002682468B4632464B463046494618F0F5
:1056E0008BFA02460B462046294618F0D1F832467E
:1056F00004460D464B464046494618F0CBF8024654
:105700000B462046294618F0A1FB02460B465046A0
:10571000594618F0BFF832464B4618F0BBF802461F
:105720000B4618F0B7F8BDE8F88F694A93420EDCD3
:105730005DA1D1E90001BDE8F88F02460B4618F0E3
:10574000A7F802460B4618F081FBBDE8F88F024629
:105750000B4618F051FA40A3D3E9002306460F4642
:1057600018F04AFA3EA3D3E9002318F093F8324622
:105770003B4618F041FA3CA3D3E9002318F088F81F
:1057800032463B4618F038FA39A3D3E9002318F023
:1057900081F832463B4618F02FFA37A3D3E90023AD
:1057A00018F076F832463B4618F026FA34A3D3E9CF
:1057B000002318F06FF832463B4618F01DFA32A36A
:1057C000D3E90023804689463046394618F014FA5A
:1057D0002FA3D3E9002318F05BF832463B4618F0BC
:1057E0000BFA2DA3D3E9002318F054F832463B46B8
:1057F00018F002FA2AA3D3E9002318F049F8324638
:105800003B4618F0F9F900222F4B18F043F80246F6
:105810000B464046494618F019FB2A46234618F025
:10582000EBF902460B4622A1D1E9000118F030F84D
:1058300002460B462846214618F02AF802460B4637
:1058400019A1D1E9000118F023F8BDE8F88F1AA1D9
:10585000D1E90001BDE8F88F09F7FD0DE13D023FF8
:1058600088B20175E0EF493F3B8F68B52882A43FBD
:105870005544880E55C1C93F7D6FEB0312D6D43F06
:10588000555555555555C53F82922EB1C5B8B33FB4
:1058900059018D1B6C06E63FC88A599CE52A0040D9
:1058A0004B2D8A1C273A0340182D4454FB21F93F05
:1058B000075C143326A6913C182D4454FB21094063
:1058C000FFFFEF3FFFFFDF3F0000F03F0000E03F42
:1058D0000000603C00225C4B17F0DCFF00225B4BB9
:1058E00018F08AF940A3D3E9002304460D4618F0C6
:1058F00083F93FA3D3E9002317F0CCFF22462B46C0
:1059000018F07AF93CA3D3E9002317F0C1FF22462F
:105910002B4618F071F93AA3D3E9002317F0BAFF28
:1059200022462B4618F068F937A3D3E9002317F075
:10593000AFFF22462B4618F05FF935A3D3E90023C9
:1059400017F0A8FF22462B4618F056F980468946E4
:105950002046294619F0E8FE2FA3D3E90023064686
:105960000F462046294618F047F92DA3D3E9002316
:1059700017F08EFF22462B4618F03EF92AA3D3E9F2
:10598000002317F087FF22462B4618F035F928A38D
:10599000D3E9002317F07CFF22462B4618F02CF9A0
:1059A0000022294B17F076FF02460B464046494637
:1059B00018F04CFA32463B4618F01EF91EA3D3E904
:1059C000002317F065FF32463B4617F063FF02469F
:1059D0000B4617F05FFF02460B4619A1D1E9000103
:1059E00017F056FFBDE8F88F09F7FD0DE13D023FC6
:1059F00088B20175E0EF493F3B8F68B52882A43F2C
:105A00005544880E55C1C93F7D6FEB0312D6D43F74
:105A1000555555555555C53F82922EB1C5B8B33F22
:105A200059018D1B6C06E63FC88A599CE52A004047
:105A30004B2D8A1C273A0340075C143326A6913C61
:105A4000182D4454FB2109400000F03F0000E03FC6
:105A5000434A91422DE9F8430C46054639DD414A57
:105A6000914209DD02F17952914240DD02460B4636
:105A700017F010FFBDE8F88301F1404202F58012F3
:105A8000024330D0B1F1804F3ADC0022364B17F0A0
:105A9000FFFE02460B4604460D4617F0FBFE22466B
:105AA00006460F462B462046294618F0A5F8024622
:105AB0000B463046394617F0EDFE19F035FE0B4621
:105AC00002462946204617F0E5FEBDE8F843FFF7F9
:105AD0004BBA02460B4617F0DBFE02460B4618F0A7
:105AE000B5F9BDE8F88300200021BDE8F88300F097
:105AF0001FFE19A3D3E9002317F0CCFEBDE8F883FD
:105B000002460B4618F078F80022174B17F0C0FE3B
:105B100019F00AFE2A468046894623462846214631
:105B200017F0B8FE424606460F464B462846214629
:105B300017F0B0FE02460B4600200B4918F086F91C
:105B40000B4602463946304617F0A2FEBDE8F84340
:105B500000F0EEBDAFF30080EF39FAFE422EE63FD3
:105B6000FFFFEF3FFFFFAF410000F03F00000000EC
:105B70002DE9F047C44B21F00048984584B00D460C
:105B8000044616DD08F1404808F58018034658EA37
:105B9000030326D002460B4617F07AFE0B46024658
:105BA00018F054F904460B462046194604B0BDE8E7
:105BB000F087B64B98458A462EDCB8F1795F80F2C3
:105BC0006D8195A3D3E9002317F064FE0022B04B4A
:105BD00018F0A2FA00B32B462046194604B0BDE8DF
:105BE000F0878FA3D3E9002318F006F88EA3D3E93A
:105BF000002306460F462046294617F0FDFF0246C1
:105C00000B463046394617F045FE04460B46204603
:105C1000194604B0BDE8F0872046294618F066FD15
:105C200002460B4600209A4917F032FE0022994B9B
:105C300017F0E2FF7EA3D3E9002304460D4617F0D8
:105C4000DBFF7DA3D3E9002317F024FE22462B4679
:105C500017F0D2FF7AA3D3E9002317F019FE2246EA
:105C60002B4617F0C9FF78A3D3E9002317F012FEE3
:105C700022462B4617F0C0FF75A3D3E9002317F087
:105C800007FE22462B4617F0B7FF73A3D3E9002384
:105C900017F000FE22462B4617F0AEFF70A3D3E9A3
:105CA0000023CDE900012046294617F0A5FF6EA389
:105CB000D3E9002317F0ECFD22462B4617F09CFF9A
:105CC0006BA3D3E9002317F0E5FD22462B4617F01E
:105CD00093FF69A3D3E9002317F0DAFD22462B4690
:105CE00017F08AFF6A4B002217F0D4FDCDE90201BC
:105CF0002046294619F018FD674B984506460F4681
:105D000067DCDDE90223DDE9000118F09FF8324687
:105D1000CDE900013B463046394617F0BBFD02464F
:105D20000B46DDE9000117F067FF4FF00008CDE9F1
:105D3000000142463B464046394617F05DFF0246A9
:105D40000B462046294617F0A3FD424604460D4661
:105D50003B463046394617F09DFD02460B4620462D
:105D6000294618F073F802460B4617F093FD0246D9
:105D70000B462DA1D1E9000117F08AFD02460B4622
:105D8000DDE9000117F084FD424604460D463B461E
:105D90004046394617F07EFD02460B4638A1D1E950
:105DA000000117F075FD02460B462046294617F004
:105DB0006FFD0B46024632A1D1E9000117F068FDE4
:105DC00004460B46BAF1000F3FF7EEAE03F1004375
:105DD000EAE6DDE90223DDE9000118F037F8324692
:105DE0003B4617F009FF32463B4617F053FD02468B
:105DF0000B4617F04FFD0CA3D3E9002317F048FD25
:105E00000B46024606A1D1E9000117F041FD044608
:105E10000B46D7E7AFF300809C7500883CE4377EE3
:105E2000182D4454FB21F93F075C143326A6913CFE
:105E300009F7FD0DE13D023F88B20175E0EF493FF2
:105E40003B8F68B52882A43F5544880E55C1C93F91
:105E50007D6FEB0312D6D43F555555555555C53F6B
:105E600082922EB1C5B8B33F59018D1B6C06E63F37
:105E7000C88A599CE52A00404B2D8A1C273A0340CA
:105E8000182D4454FB21E93FFFFFEF3FFFFFDF3FA9
:105E90000000F03F0000E03F3233EF3F02460B4688
:105EA00017F0AAFE38A3D3E9002306460F4617F0E1
:105EB000A3FE37A3D3E9002317F0ECFC32463B46A0
:105EC00017F09AFE34A3D3E9002317F0E1FC324621
:105ED0003B4617F091FE32A3D3E9002317F0DAFC1A
:105EE00032463B4617F088FE2FA3D3E9002317F074
:105EF000CFFC32463B4617F07FFE2DA3D3E90023AB
:105F000017F0C8FC32463B4617F076FE2AA3D3E9C9
:105F10000023804689463046394617F06DFE28A397
:105F2000D3E9002317F0B4FC32463B4617F064FE79
:105F300025A3D3E9002317F0ADFC32463B4617F00A
:105F40005BFE23A3D3E9002317F0A2FC32463B46B5
:105F500017F052FE0022204B17F09CFC02460B4625
:105F60004046494617F072FF22462B4617F044FE82
:105F700022462B4617F08EFC04460B462046194657
:105F800004B0BDE8F08700BF09F7FD0DE13D023F19
:105F900088B20175E0EF493F3B8F68B52882A43F86
:105FA0005544880E55C1C93F7D6FEB0312D6D43FCF
:105FB000555555555555C53F82922EB1C5B8B33F7D
:105FC00059018D1B6C06E63FC88A599CE52A0040A2
:105FD0004B2D8A1C273A03400000F03F00000000D0
:105FE0002DE9F84F5442144323F00049704E49EA1A
:105FF000D474B44286460F4640D84442044321F04C
:10600000004B4BEAD474B4428A4637D803F140447B
:1060100004F5801414434AD09C1704F0020444EAA7
:10602000D17450EA0B0131D052EA090137D0B145A1
:1060300052D0B34533D0ABEB09094FEA2959B9F136
:106040003C0F3BDC002B66DB7046394617F0FEFE4A
:1060500018F04CFBFEF7C8FC012C58D0022C48D09D
:10606000002C5ED040A3D3E9002317F011FC40A31D
:10607000D3E9002317F00CFCBDE8F88F1046194651
:1060800072463B4617F006FCBDE8F88F022C19D08B
:10609000032C10D138A1D1E90001BDE8F88FBAF185
:1060A000000F14DB36A1D1E90001BDE8F88FBDE88F
:1060B000F84FFEF799BC3946BDE8F88F30A1D1E919
:1060C0000001C9E72AA1D1E90001BDE8F88F2EA19E
:1060D000D1E90001BDE8F88FCB4524D0022CF1D0E6
:1060E000032CD7D0012C4FF0000027D00021BDE8B1
:1060F000F88F1DA3D3E9002317F0CAFB02460B4615
:106100001BA1D1E9000117F0C3FBBDE8F88F01F135
:106110000041BDE8F88F19F13C0F95DA002000210D
:106120009AE7BDE8F88F022C16D0032C0FD0012C73
:1061300008D017A1D1E90001BDE8F88F4FF0004168
:10614000BDE8F88F14A1D1E90001BDE8F88F14A1D2
:10615000D1E90001BDE8F88F13A1D1E90001BDE844
:10616000F88F00BFAFF30080075C143326A6A13C74
:10617000182D4454FB210940182D4454FB2109C01B
:10618000182D4454FB21F93F182D4454FB21F9BF2D
:10619000182D4454FB21E93F182D4454FB21E9BF3D
:1061A000D221337F7CD902C0D221337F7CD90240F7
:1061B0000000F07F0000000043422DE9F047034358
:1061C00021F00048424A48EAD373934206460F46FC
:1061D00016D890454BD03F4B98458A461EDC3AA3D3
:1061E000D3E90023044617F055FB0022002317F0E3
:1061F00093FF002845D03B4620461946BDE8F0876E
:1062000002460B4617F044FB0B46024617F01EFEF3
:1062100004460B4620461946BDE8F0872E4B9845AC
:10622000044645462FDD02464346414617F032FB01
:10623000224606460F4643460020254917F028FB14
:1062400002460B463046394617F000FEFEF78CFE3C
:10625000224B002217F0D0FCBAF1000F04460B4687
:10626000D8DA01F1004320461946BDE8F087002244
:10627000002317F0EBFD04460B4620461946BDE807
:10628000F0873446454622462B462046294617F0DD
:1062900001FB22462B4606460F4617F0ADFC224670
:1062A000804689462B460020094917F0F1FA02463C
:1062B0000B464046494617F0C9FD32463B4617F0AB
:1062C000E9FAC3E7AFF300809C7500883CE4377EB1
:1062D0000000F03FFFFF2F3EFFFFDF3F0000E03FE9
:1062E0004F4A2DE9F84321F0004494420B460546FD
:1062F0001BDC4C4A944222DD4B4A944263DD4B4AFC
:1063000094427BDD4A4A944246DD0132944240D0B9
:1063100041A3D3E900231046194617F06DFC064649
:106320000F4630463946BDE8F88302460B4617F063
:1063300063FC06460F4630463946BDE8F88318F040
:10634000D5F902F0A9FC00223A4B8046894617F0A5
:10635000A1FAB4F1725F06460F46ECDB42464B46AB
:106360004046494617F048FC32463B4604460D4637
:106370003046394617F08EFA02460B46204629462B
:1063800017F064FD00222B4B17F084FA06460F46E7
:10639000D1E7294A9042BBD82846194618F0A6F9F9
:1063A0000022264B17F028FC00F04AF80022044691
:1063B0000D46224B17F020FC22462B4617F01CFC02
:1063C00006460F46B7E718F091F900F039F80022B9
:1063D0001A4B06460F4617F00FFC32463B46044662
:1063E0000D460020154917F031FD02460B462046A8
:1063F000294617F04FFA06460F469CE718F076F943
:1064000000F01EF800220D4B17F0F6FB06460F4673
:1064100091E700BFAFF300809C7500883CE4377EB5
:10642000FFFFEF7F422ED63FFFFF3540412E8640D3
:10643000CD3386400000F03F7DF8B98F0000E03F8B
:106440002DE9F04FB04F21F00042BA4283B00C4624
:106450004FEAD17605460DD9AC4FBA4225D9C1F3E2
:106460001303034340F0EF800EB10020014603B058
:10647000BDE8F08FA64B9A4200F2CC80A54B9A4221
:1064800000F2DE808AA3D3E9002317F003FA00228A
:10649000A14B17F041FE002800F005812846214657
:1064A00000229D4B17F0F6F9E1E783A3D3E900231F
:1064B00017F032FE002840F0CB802846214680A30A
:1064C000D3E9002317F00AFE0028CED1934B2846CB
:1064D00003EBC60621467CA3D3E9002317F08CFB0F
:1064E000D6E9002317F0D6F917F036FE804617F0EC
:1064F0001DFB77A3D3E9002306460F4617F07CFB6C
:1065000002460B462846214617F0C2F972A3D3E98A
:106510000023CDE900013046394617F06DFB824675
:106520008B4652465B46DDE9000117F0B1F905469E
:106530000C462A4623462846214617F05DFB68A3F1
:10654000D3E9002306460F4617F056FB66A3D3E9AE
:10655000002317F09DF932463B4617F04DFB64A32C
:10656000D3E9002317F096F932463B4617F044FB77
:1065700061A3D3E9002317F08BF932463B4617F0AD
:106580003BFB5FA3D3E9002317F084F932463B4677
:1065900017F032FB02460B462846214617F078F9E1
:1065A00006460F462846214632463B46B8F1000FC4
:1065B00056D017F021FB324604460D463B460020DC
:1065C0004FF0804117F064F902460B4620462946F9
:1065D00017F03CFC02460B465046594617F058F956
:1065E000DDE9002317F054F90B4602464A49002022
:1065F00017F04EF96FF47F7398454FDA08F57A7803
:1066000001EB085100224FF0B87317F0F5FA03B010
:10661000BDE8F08F424B9A423FF658AF414BF40031
:106620002344D3E9002317F033F93F4BC6F10108A7
:106630002344CDE90001D3E900ABA8EB060870E7DD
:106640004FF0000875E702460B4617F023F90EE7F6
:1066500017A3D3E900231046194617F0CDFA06E731
:1066600017F0CAFA0022804689464FF08043304630
:10667000394617F00DF902460B464046494617F0D9
:10668000E5FB2A46234617F003F902460B46002095
:10669000214917F0FDF803B0BDE8F08F01EB085178
:1066A00003B0BDE8F08F804643E700BFAFF3008042
:1066B0009C7500883CE4377EEF39FAFE422E864016
:1066C00051302DD5104987C0FE822B654715F73F05
:1066D0000000E0FE422EE63F763C7935EF39EA3D98
:1066E000D0A4BE726937663EF16BD2C541BDBB3ED8
:1066F0002CDE25AF6A56113F93BDBE166CC1663FB6
:106700003E5555555555C53F412E8640FFFFEF7FFD
:10671000422ED63FFFFF2F3E0000F03F98190200A7
:10672000B1A2F03FA8190200B81902000000000051
:106730002DE9F04FB1F5801F85B006460F460B4698
:106740005ADA024621F00044224300F0F880002982
:10675000C0F27A810022D64B17F04EFAD54A0B468A
:10676000934206460F466FF0350C4ADCC3F313051F
:1067700005F5152E0EF6647E0EF4801E8EF07F5207
:1067800082F440121C1542EA0507A4F2FF34644467
:106790000022C94B3046394604EB1E5417F078F8F6
:1067A000AB1CC3F31303022B82468B464FF000024F
:1067B00030DC002317F088FC002800F0C980002C92
:1067C00000F04B81204617F0B1F9A5A3D3E90023CF
:1067D00006460F4617F010FAA3A3D3E90023044698
:1067E0000D463046394617F007FA02460B4620465A
:1067F000294617F04FF80AE0AE4A93424FF0000CDA
:10680000B4DD32463B463046394617F043F805B012
:10681000BDE8F08F4FF0804317F03CF802460B467E
:106820005046594617F012FB064620460F4617F011
:106830007DF93246CDE900013B4630463946CDE987
:10684000026717F0D9F902460B468046894617F0D1
:10685000D3F987A3D3E9002306460F4617F0CCF9F6
:1068600085A3D3E9002317F015F832463B4617F00D
:10687000C3F983A3D3E9002317F00CF832463B4653
:1068800017F0BAF980A3D3E9002317F003F84246C2
:106890004B4617F0B1F97EA3D3E900238046894621
:1068A0003046394617F0A8F97BA3D3E9002316F048
:1068B000F1FF32463B4617F09FF979A3D3E9002355
:1068C00016F0E8FF32463B4617F096F90B460246B3
:1068D0004946404616F0DEFFA5F5C223C5F5D7258B
:1068E000A3F27A4351351D43002D8046894656DD7B
:1068F0000022724B5046594617F07EF952465B46CD
:1069000017F07AF906460F46002C68D132463B460E
:106910004046494616F0BEFFDDE9022317F06CF948
:1069200002460B463046394616F0B2FF02460B4689
:106930005046594616F0ACFF05B0BDE8F08F002276
:10694000002300205E4917F081FA05B0BDE8F08F02
:1069500055A3D3E900235046594617F04DF9024696
:106960000B460020554916F093FF524606460F4647
:106970005B465046594617F03FF902460B463046F3
:10698000394617F039F906460F46002C40F09A8038
:1069900002460B465046594616F07AFF37E7002C60
:1069A00000F0A4802EA3D3E90023DDE9000117F055
:1069B00023F942464B4604460D465046594616F0CA
:1069C00067FFDDE9022317F017F927A3D3E90023B6
:1069D00006460F46DDE9000117F00EF921E020A37D
:1069E000D3E90023DDE9000117F006F932463B4602
:1069F00004460D464046494616F04CFFDDE90223A9
:106A000017F0FAF818A3D3E9002380468946DDE998
:106A1000000117F0F1F802460B464046494616F0D1
:106A200039FF02460B463046394616F031FF5246D2
:106A30005B4616F02DFF02460B462046294616F00F
:106A400027FF05B0BDE8F08F02460B4616F020FF89
:106A50000022002317F0FAF9D9E600200021D6E63B
:106A60000000E0FE422EE63F763C7935EF39EA3D04
:106A700044523EDF12F1C23FDE03CB966446C73F6D
:106A8000599322942449D23F935555555555E53F86
:106A90009FC678D0099AC33FAF788E1DC571CC3F91
:106AA00004FA97999999D93F555555555555D53F5C
:106AB00000005043FFFFEF7F0000F03F0000E03F89
:106AC000000050C3204617F031F80FA3D3E900238C
:106AD0008046894617F090F80DA3D3E900230446B9
:106AE0000D464046494617F087F89AE702460B469E
:106AF0005046594616F0CCFEDDE9022317F07CF82B
:106B000014E700BFAFF300800000E0FE422EE63F36
:106B1000763C7935EF39EA3DB1F5801F2DE9F84330
:106B200004460D460B461ADA024621F0004632436F
:106B300059D000295FDB00223B4B17F05DF83B4A40
:106B40000B4693420D4604466FF035010CDD22469C
:106B50002B462046294616F09DFEBDE8F883334AB1
:106B600093424FF00001F2DC1815A0F2FF30084408
:106B70004FEAD0794844C3F3130816F0D7FFC9F59C
:106B80007F73033348EA035506460F4620462946DD
:106B9000FFF7CEFD1EA3D3E9002380468946304689
:106BA000394617F029F81CA3D3E9002304460D4603
:106BB0004046494617F020F802460B462046294633
:106BC00016F068FE16A3D3E9002304460D463046AE
:106BD000394617F011F802460B462046294616F0B2
:106BE00059FEBDE8F883002200230020104917F069
:106BF0002DF9BDE8F88302460B4616F049FE002247
:106C0000002317F023F9BDE8F88300BFAFF300803D
:106C1000362BF111F3FE593D0EE526157BCBDB3FFC
:106C200000609F501344D33F00005043FFFFEF7FAD
:106C3000000050C3000000002DE9F04F23F0004792
:106C400057EA020493B037D0674C21F00046A642C1
:106C500083460D4629DC9A46964625D0A74224DC79
:106C6000614CA74279D0002D89468046CDE90023AA
:106C700077DB0024BEF1000F2CD15B4B9F4200F06C
:106C80008B805A4B9F4261D0BAF1804F00F0BA839B
:106C9000574B9A451ED1002D1CDB4046494613B088
:106CA000BDE8F04F18F040BD58B106F1404606F57A
:106CB000801656EA0B0306D14C49002013B0BDE8FC
:106CC000F08FB742CCDD4B4813B0BDE8F04F19F060
:106CD00071BC00244046494617F008FDBBF1000F87
:106CE00019D126B1414B25F040429A4213D1BAF155
:106CF000000FC0F2BC83002DE0DA06F1404606F535
:106D0000801656EA040300F08F84012CD6D101F1DD
:106D100000431946D2E7ED0F013D54EA05034ED07A
:106D2000354B9F426EDD03F104739F4240F3E883CD
:106D3000324B9E424EDDBAF1000F4EDD28A3D3E95F
:106D400000231046194616F057FFB7E7BAF1000FB7
:106D5000C0F23C8440464946B0E7BEF1000F82D005
:106D6000A3E7274B9F4228DCA3F154739F4280DDA9
:106D70003B15A3F2FF33142B40F33E84C3F13403DD
:106D80002EFA03F202FA03F39E457FF472AF02F08B
:106D90000102C2F102046DE706F1404303F58013DE
:106DA00053EA0B0388D0154B9E4240F33283BAF16D
:106DB000000F12DBDDE9000180E702245AE74246BA
:106DC0004B464046494616F063FD02460B4617F017
:106DD0003DF873E7BAF1000FB0DB002000216DE74A
:106DE0009C7500883CE4377E0000F07F0000F03F97
:106DF0000000E03FC82202000000E041FFFFEF3F3B
:106E0000FFFF3F43B6F5801F4FF0000205DAD44B79
:106E100016F0F2FE6FF034020E463315D14FC6F372
:106E20001306A3F2FF33134446F07F5ABE421A46BC
:106E30000D934AF4401A40F32183CB4B9E4240F31A
:106E4000FD83134601330D93C84B0022CDE9062381
:106E500000270026CDE90867CDE90E67AAF5801A5C
:106E60000027024653465146CDE90A23DDE90623B1
:106E700016F00EFDDDE9062380468946DDE90A01AC
:106E800016F008FD02460B460020B84916F0DEFF5A
:106E90000A460146CDE910121346494602464046CD
:106EA00016F0AAFE4FEA6A0343F000538C4683466D
:106EB00003F50023CDE904BCDA468B46D91900233B
:106EC000CDE902AB0293DDE902AB002006460F4696
:106ED00002460B465046594616F08EFE02460B46B9
:106EE0004046494616F0D4FCDDE906238046894633
:106EF0003046394616F0CCFC02460B46DDE90A0165
:106F000016F0C6FC52465B4616F076FE02460B466D
:106F10004046494616F0BCFCDDE9102316F06CFE35
:106F2000DDE90467CDE9060132463B463046394685
:106F300016F062FE78A3D3E9002306460F4616F04A
:106F40005BFE77A3D3E9002316F0A4FC32463B4650
:106F500016F052FE74A3D3E9002316F09BFC3246D0
:106F60003B4616F049FE72A3D3E9002316F092FCCB
:106F700032463B4616F040FE6FA3D3E9002316F0DD
:106F800089FC32463B4616F037FE6DA3D3E9002359
:106F900016F080FC3246804689463B4630463946EC
:106FA00016F02AFE02460B464046494616F024FEDD
:106FB000524606460F465B46DDE9040116F06AFCC0
:106FC000DDE9062316F018FE32463B4616F062FC59
:106FD0005246804689465B465046594616F00CFE9E
:106FE0000022634BCDE90A0116F054FC42464B46A1
:106FF00016F050FC02980F46064632463B46504675
:10700000594616F0F9FD002282468B46584B304611
:10701000394616F03DFCDDE90A2316F039FC02463C
:107020000B464046494616F033FCDDE9042316F0D2
:10703000E3FD3246804689463B46DDE9060116F00F
:10704000DBFD02460B464046494616F023FC8046CF
:10705000894602460B4650465946CDE904AB16F028
:1070600019FCDDE902AB38A3D3E9002350460F46F3
:1070700016F0C2FDDDE90423CDE902013946504690
:1070800016F006FC02460B464046494616F000FC48
:107090002FA3D3E9002316F0AFFD2FA3D3E90023DC
:1070A000804689465046394616F0A6FD02460B46F4
:1070B0004046494616F0EEFBDDE90E2316F0EAFBEA
:1070C00080460D98894616F031FD424606460F4629
:1070D0004B46DDE9020116F0DDFBDDE9082316F081
:1070E000D9FB32463B4616F0D5FB32463B4650466E
:1070F0008B4616F0CDFBDDE9082316F0C9FBDDE970
:10710000022316F0C5FB02460B464046494616F0E0
:10711000BFFB80462EE000BFEF4E454A287ECA3FA7
:1071200065DBC9934A86CD3F01411DA96074D13FFB
:107130004D268F515555D53FFFAB6FDBB66DDB3F0D
:10714000033333333333E33F000000E009C7EE3F3E
:10715000FD033ADC09C7EE3FF5015B14E02F3EBEAC
:10716000000040438E98030079B60B000000F03F0A
:10717000000008408946013C54EA0503DDE90001AE
:1071800014BFD94CD94C0023CDE9043403460C4636
:10719000CDE9023400230293DDE9024522462B4665
:1071A00016F076FB52465B4616F026FDDDE900231D
:1071B00006460F464046494616F01EFD02460B465F
:1071C0003046394616F066FB2246804689462B46F5
:1071D00050465946CDE9008916F00EFD0B46024691
:1071E00006460F464046494616F054FBC04B9942AE
:1071F00004460D468A4640F3168101F13F4303F5EC
:10720000E003034340F0EA81A3A3D3E90023DDE9CF
:10721000000116F03FFB3246804689463B46204639
:10722000294616F035FB02460B464046494616F005
:1072300073FF002840F0D281A8464FEA28534FF44C
:107240008012A3F2FE3342FA03F35344C3F30A520B
:10725000A84DA2F2FF321541C3F3130423EA05013E
:107260000020C2F1140B44F48014BAF1000F02465E
:107270000B4644FA0BFB30463946B8BFCBF1000B46
:1072800016F006FB02460B4606460F46DDE90001F6
:1072900016F000FB4FEA0B5A0D46002480A3D3E9F9
:1072A00000232046294616F0A7FC32468046894630
:1072B0003B462046294616F0EBFA02460B46DDE92E
:1072C000000116F0E5FA78A3D3E9002316F094FC48
:1072D00077A3D3E9002306460F462046294616F039
:1072E0008BFC02460B463046394616F0D3FA06466A
:1072F0000F4602460B464046494616F0CBFA424638
:107300004B4604460D4616F0C3FA02460B4630467D
:10731000394616F0BDFA2246804689462B4620465D
:10732000294616F069FC64A3D3E9002306460F46FC
:1073300016F062FC62A3D3E9002316F0A9FA3246E4
:107340003B4616F059FC60A3D3E9002316F0A2FADD
:1073500032463B4616F050FC5DA3D3E9002316F0FD
:1073600097FA32463B4616F047FC5BA3D3E900236D
:1073700016F090FA32463B4616F03EFC02460B46AB
:107380002046294616F084FA06460F4602460B466A
:107390002046294616F030FC0022CDE900014FF0CE
:1073A00080433046394616F073FA02460B46DDE953
:1073B000000116F04BFD424606460F464B4620465E
:1073C000294616F019FC42464B4616F063FA02466F
:1073D0000B463046394616F05BFA22462B4616F02D
:1073E00057FA02460B4600203F4916F051FA8A44EC
:1073F000BAF5801FC0F233815146DDE9042316F04F
:10740000FBFB5BE4424640464B46494616F0F4FB24
:1074100054E4BAF1000FBFF6E0ACDDE900341846E1
:1074200004F100414AE4344B21F00048984540F310
:10743000F280324B0B4403430CD132463B4616F0EC
:1074400027FA02460B46DDE9000116F051FE00283E
:107450003FF4F3AEDDE9040121A3D3E9002316F0E4
:10746000CBFB1FA3D3E9002316F0C6FB26E402469C
:107470000B4600201C4916F0E9FC3CE400220023E6
:10748000CDE90823CDE90E23174B00220027CDE9D3
:107490000623E6E4AFF30080FE822B654715973C98
:1074A00000000000432EE63FEF39FAFE422EE63F91
:1074B000396CA80C615C20BED0A4BE726937663EF0
:1074C000F16BD2C541BDBB3E2CDE25AF6A56113FE4
:1074D00093BDBE166CC1663F3E5555555555C53FCB
:1074E00059F3F8C21F6EA5010000F03F0000F0BF85
:1074F000FFFF8F40FFFF0F00FFCB904000346F3F36
:107500006B4B9E427FF766AC6A4B9E423FF713ACD3
:107510000022684B16F0BCF957A3D3E900230646B6
:107520000F4616F069FB56A3D3E90023804689462F
:107530003046394616F060FB002282468B465E4B91
:107540003046394616F058FB02460B464EA1D1E9AB
:10755000000116F09DF932463B4616F04DFB0246FF
:107560000B460020554916F093F93246CDE9020149
:107570003B463046394616F03FFB02460B46DDE9F6
:10758000020116F039FB42A3D3E9002316F034FBC5
:1075900002460B465046594616F07AF902460B460B
:1075A00006460F464046494616F074F942464B4699
:1075B000002082468B4616F06BF902460B46304699
:1075C000394616F065F980468946D4E542464B4671
:1075D0000020384916F03AFCFFF770BBDDE90401E2
:1075E0002DA3D3E9002316F007FB2BA3D3E9002337
:1075F00016F002FBFFF762BBBEF1000F7FF469AB30
:10760000C3F1140347FA03F202FA03F39F422AD0AC
:107610007446FFF736BB294B98453FF70EAEDDE9C0
:1076200002239246934638E602460B4616F030F99E
:1076300002460B4616F00AFCFFF740BB18A3D3E93D
:107640000023CDE9082318A3D3E90023CDE90E23B5
:107650001B4B00224FF48027CDE9062301E45A4654
:1076600001F05AFDC9E602F00102C2F10204FFF77F
:1076700008BB00BFAFF30080000000604715F73F74
:1076800044DF5DF80BAE543E555555555555D53F25
:10769000FE822B654715F73F9C7500883CE4377EDA
:1076A0000000004003B8E23F06D0CF43EBFD4C3E64
:1076B000FEFFEF3F0000F03F0000D03F0000E03F42
:1076C0000000F83F000000002DE9F04F9A4E21F035
:1076D0000047B74291B040F38E809246974A974256
:1076E0000C4626DC00298AA3D3E9002340F3B481A9
:1076F00016F0CEF8924B9F4204460D4600F0908063
:1077000085A3D3E9002316F0C3F802460B46CAE965
:1077100000232046294616F0BBF87FA3D3E90023B7
:1077200016F0B6F80125CAE90201284611B0BDE8F5
:10773000F08F844A974240F39080834A974265DCF9
:107740003D15A5F21645A7EB055319461F460646FB
:1077500016F002FD16F0EAF98046894602460B460D
:1077600030463946CDE90A8916F092F80022774B67
:1077700016F042FA8946804616F0EEFC16F0D6F96D
:1077800002460B4606460F4640464946CDE90C6781
:1077900016F07EF800226D4B16F02EFA0022002320
:1077A000CDE90E0116F090FC002800F07381002353
:1077B00030463946002216F087FC002814BF01230A
:1077C0000223634A019202212A4600910AA85146E7
:1077D00000F086FB002C054614DADAF80420DAF80B
:1077E0000C3002F1004203F100434542CAF8042084
:1077F000CAF80C3006E0C2E9000100250024C2E905
:1078000002450025284611B0BDE8F08F02460B4620
:1078100016F03EF80025CAE90201CAE90001F1E7C5
:107820003FA3D3E9002316F033F83FA3D3E90023A5
:107830000D46044616F02CF802460B46CAE9002312
:107840002946204616F024F837A3D3E9002316F082
:107850001FF80125CAE90201D4E716F047FF34A357
:10786000D3E900238046894616F0C6F90022394B39
:1078700016F010F816F070FC054616F057F924A320
:10788000D3E90023CDE9040116F0B6F902460B4610
:107890004046494615F0FCFF1FA3D3E9002380466C
:1078A0008946DDE9040116F0A7F91F2DCDE9020193
:1078B00054DC294B6A1E53F822309F424ED00246B8
:1078C0000B464046494615F0E3FF02460B46CAE91F
:1078D000002383460E465A4633464046494615F035
:1078E000D7FFDDE9022315F0D3FF002C02460B463B
:1078F000CAE9022386DA5B4606F1004601F100413F
:107900008AE84800CAF80C10CAF808006D4279E706
:1079100000004054FB21F93F3163621A61B4D03D4D
:107920000000601A61B4D03D7370032E8A19A33B26
:1079300083C8C96D305FE43FFB21E93F7BD902403A
:10794000FB21F93FFB213941FFFFEF7F0000704130
:107950005C3102000000E03FDC300200DDE9022380
:107960004046494615F094FF3A15C1F30A53D31A1D
:10797000102B83460E460992CAE90001ABDD58A3DD
:10798000D3E90023DDE9040116F036F906460F4677
:1079900002460B464046494615F07AFFCDE90601FE
:1079A00002460B464046494615F072FF32463B46BA
:1079B00015F06EFF4CA3D3E9002306460F46DDE920
:1079C000040116F019F932463B4615F061FFDDE976
:1079D0000689CDE9020102460B464046494615F0AC
:1079E00057FF0B46C1F30A570E460999CF1B0246B3
:1079F000312F8346CAE900236CDD3DA3D3E9002380
:107A0000DDE9040116F0F8F806460F4602460B467B
:107A100040464946CDE9068915F03AFF02460B4635
:107A200080468946DDE9060115F032FF32463B46C5
:107A300015F02EFF30A3D3E9002306460F46DDE9FB
:107A4000040116F0D9F832463B4615F021FF0246F4
:107A50000B46CDE9022334E715F01CFF2A4B9F4269
:107A600004460D4618D026A3D3E9002315F012FFD3
:107A700002460B46CAE900232946204615F008FFB6
:107A80001FA3D3E9002315F005FF4FF0FF35CAE926
:107A90000201B7E6032394E611A3D3E9002315F00E
:107AA000F9FE11A3D3E900230D46044615F0F2FEBA
:107AB00002460B46CAE900232946204615F0E8FE97
:107AC00009A3D3E9002315F0E5FE4FF0FF35CAE91D
:107AD000020197E6DDE90689FDE600BFAFF300800D
:107AE0000000601A61B4D03D7370032E8A19A33B65
:107AF0000000002E8A19A33BC14920259A837B39B7
:107B00003163621A61B4D03DFB21F93F00000000EF
:107B1000574A2DE9F84F21F0004890450E46074698
:107B20002BDC544B0029B4BF534D544D98454FF0B6
:107B3000000410DC524B98456EDC4BA3D3E90023C4
:107B400015F0A8FE00224F4B16F0E6FAD8B13846E1
:107B50003146BDE8F88F4C4B984579DD4B4B984545
:107B600043DD013398453DD0384631463EA3D3E945
:107B7000002316F041F8BDE8F88F02460B4615F0D9
:107B800089FEBDE8F88F3846314616F0AFFD01F0AA
:107B900083F806460F4632463B463046394615F0D6
:107BA00079FE324682468B463B463046394616F0D1
:107BB00023F8002280468946324B3046394615F07C
:107BC00069FE02460B464046494616F03FF902461A
:107BD0000B465046594615F05BFE22462B4616F0E2
:107BE0000BF8CEE72A4B9842BED83846314616F0FD
:107BF0007DFD0022214B15F0FFFFFEF721FC06461C
:107C00000F4602460B462046294615F0F5FF324640
:107C10003B4615F0F1FFB4E716F068FD01F03CF8C3
:107C20001C4B984506460F46B5DD0022154B15F056
:107C300031FE02460B463046394616F007F9324609
:107C40003B4615F027FE22462B4615F0D5FF98E758
:107C500016F04CFDFEF7F4FB02460B462046294683
:107C600015F0CAFF8DE700BF3374AC3C1F7BAC7FBF
:107C7000FFFFEF7FFFFF35400000E0BF0000E03F67
:107C8000FFFF2F3E0000F03F412E8640CD3386405F
:107C90007DF8B98FFFFFEF3F2DE9F04F21F000464F
:107CA000B6F1795F85B00C4692469B4605466BDA85
:107CB00016F052FA002800F0E8802A4623462846AB
:107CC000214615F099FF74A3D3E900238046894625
:107CD00015F092FF72A3D3E9002315F0DBFD4246B5
:107CE0004B4615F089FF70A3D3E9002315F0D0FDB2
:107CF00042464B4615F080FF6DA3D3E9002315F0F3
:107D0000C9FD42464B4615F077FF6BA3D3E900232C
:107D100015F0BEFD42464B4615F06EFF68A3D3E951
:107D2000002315F0B7FD42464B4615F065FFCDE93F
:107D300000010022644B4046494615F05DFFDDE935
:107D4000002306460F464046494615F055FF524669
:107D5000804689465B462846214615F04DFF02467F
:107D60000B464046494615F093FD02460B46304609
:107D7000394615F08DFD02460B460020534915F09B
:107D800087FD05B0BDE8F08F02460B4615F034FFC5
:107D900041A3D3E900238046894615F02DFF40A377
:107DA000D3E9002315F076FD42464B4615F024FF3B
:107DB0003DA3D3E9002315F06BFD42464B4615F079
:107DC0001BFF3BA3D3E9002315F064FD42464B465D
:107DD00015F012FF38A3D3E9002315F059FD4246F0
:107DE0004B4615F009FF36A3D3E9002315F052FDE9
:107DF0004B46424615F000FF354B9E42CDE900014F
:107E000097DD344B9E424FF0000238DCA6F500139C
:107E100000202E4916461F4615F03AFDCDE9020115
:107E20000022294B4046494615F0E6FE32463B46C5
:107E300015F02EFDDDE9002306460F464046494673
:107E400015F0DAFE5246804689465B4628462146B2
:107E500015F0D2FE02460B464046494615F018FD85
:107E600002460B463046394615F012FD02460B46D7
:107E7000DDE9020115F00CFD05B0BDE8F08F164BF1
:107E8000164FCDE902230026CAE71049002005B0AD
:107E9000BDE8F08FAFF30080D43888BEE9FAA8BD02
:107EA000C4B1B4BD9EEE213EAD529C804F7E923E49
:107EB0009015CB19A001FA3E7751C1166CC1563FFF
:107EC0004C5555555555A53F0000E03F0000F03F8B
:107ED0003233D33F0000E93F0000E73F0000D23FCC
:107EE0002DE9F04FADF5197D9C4CA29E9C4D54F8A8
:107EF000264005942646D41E85FB0475E417C4EB82
:107F0000A50424EAE4741D460893631CA3EB8303D1
:107F1000013D02EBC30304932B4609940295651BB4
:107F2000F418039006911AD42C4401340DF178080A
:107F300000260027DDF88C9208E059F8250015F09E
:107F4000F5FD0135A542E8E9020108D0002DF4DA7B
:107F5000013530463946A542E8E90201F6D1059BD4
:107F6000002B2EDB089B4FEAC309039BA9F10808ED
:107F7000984420AB9944059B70AA02EBC30B0DF506
:107F8000DC7A029B002BC0F20F83039B4D46A3F1CA
:107F900008040026002775E90223F4E9020115F020
:107FA0002BFE02460B463046394615F073FC44451D
:107FB00006460F46EFD1EAE90267DA4509F10809FA
:107FC000DFD10598089A009000F18043013B9B00A7
:107FD0000CAC191F234402F100520B93039B013A8E
:107FE00021440A9103EBC20B009A98A901EBC2034A
:107FF000002A53E9284513462BDD01EBC308A8F1FD
:10800000A8080DF12C090DF5DC7A0022554B20460D
:10801000294615F0F1FD16F09FF815F087FD0022B6
:10802000514B06460F4615F0E7FD02460B4620462B
:10803000294615F02DFC16F08FF878E8022349F850
:10804000040F3946304615F025FCD04504460D4650
:10805000DBD1DDF81090204629464A4601F05CF855
:1080600000224FF07F5304460D4615F0C5FDFCF786
:10807000EFFE00223D4B15F0BFFD02460B462046A9
:10808000294615F005FC0D46044616F065F88046B5
:1080900015F04CFD0B4602462946204615F0F8FB2C
:1080A0004B46002B06460F4640F3F780009A0CA97A
:1080B000013AC9F1180351F8225045FA03F101FAC7
:1080C00003F30CA8EB1A40F82230C9F117058844D5
:1080D00043FA05F5002D63DD009B002B08F1010834
:1080E00040F381820C9C002C00F0188301200023B7
:1080F0000CAAC4F1807442F82340009A824219DD30
:108100000CAA0CAC52F820106FF07F42511A44F8C0
:1081100020100099023399420CDD1046009A0CA9F8
:1081200001EB830301EB82011A68821A43F8042BE6
:108130008B42F9D1049B002B1ADD049B012B4FF0DD
:10814000010440F05882009B5A1E0CAB0CA953F856
:108150002230C3F3160341F8223058E2FC35020006
:10816000ABAAAA2A0000703E000070410000204027
:10817000022D15D132463B460020974915F088FB69
:1081800006460F46049A9449002000F0C5FF0246B7
:108190000B463046394615F07BFB022506460F4656
:1081A000002200233046394615F08EFF002800F0EB
:1081B0005282009A059B501E83420FDC02F18043DD
:1081C000013B0CAA0B9C02EB8303002253F8041919
:1081D000A34242EA0102F9D1002A6FD1059B0CAA01
:1081E000013B52F82330002B40F033820A9A0123DE
:1081F00052F8041901330029FAD0009AD31802F179
:10820000010A9A4507933DDC009B0899099A0B44A3
:1082100007990AEB0208994620AB08F1804803EB66
:10822000C9098B18A39A08F1FF3802EB880870AAD5
:1082300002EBCA0AA39A02EB8303009358F8040FD7
:1082400015F074FC029B002BE9E802011DDB039B87
:108250004D46A3F108040026002775E90223F4E93E
:10826000020115F0C9FC02460B463046394615F0AE
:1082700011FB5C4506460F46EFD1009B9845EAE8A6
:108280000267DBD1079B0093AEE6009B0026002728
:108290009845EAE80267D1D1F4E706D1009B0CAA21
:1082A000013B52F82350ED1514E700224B4B15F01B
:1082B00029FF002840F08281054671E70CA902954C
:1082C00051F820300499CDF81C80183902460090EE
:1082D00004916BB900F18043013B0CA800EB8303D0
:1082E00053F80409013A18390028F9D00092049192
:1082F000049A3949002000F00FFF009B002B044630
:108300000D46C0F20382DA0070A901EB020B049261
:108310000CAA02EB8306DFF8C8900BF108070436BD
:108320004FF0000856F8040D15F000FC22462B46CD
:1083300015F062FC4B4667E9020142462046294699
:1083400015F05AFC0CAB9E4204460D46EAD10DF5E1
:10835000907ACDF80CA0DDF814A04FF00009BAF126
:10836000000FC0F23D81DFF87C805D4618A1D1E9A5
:10837000000100260027002403E04C4510DCF8E84B
:108380000201F5E8022315F037FC02460B463046A1
:10839000394615F07FFA0134A24506460F46ECDA5D
:1083A000039B03EBC903ABF1080BC3E900676EAB9A
:1083B0005B4509F10109D2D1A29BDDF80CA0032B8A
:1083C00000F28B80DFE813F0D100900090001000E5
:1083D00000000040FB21F93F0000F03F0000E03FBB
:1083E0000000703EE0190200009B002B40F3A481C6
:1083F000049B0AEB0308D8E90067D34658E9029AC0
:1084000032463B464846514615F044FA04460D466E
:1084100002460B464846514615F03AFA32463B466C
:1084200015F038FAC8E9000168E90245C345264657
:108430002F46E3D1009B012BDA4640F37D81049B5C
:108440005B44D3E90067984699460DF5947B59E95A
:1084500002343246184621463B46CDE9000115F06C
:1084600019FA04460D4602460B46DDE9000115F0F7
:108470000FFA32463B4615F00DFAC9E9000169E9E9
:108480000245CB4526462F46E1D1002308F10808D6
:108490001D464CAC1846294678E9022315F0FAF936
:1084A000444503460D46F5D1029A002A00F020818A
:1084B000DAF80440DAF80C20069FDAF80010DAF84F
:1084C00008003B6105F1004504F1004402F100425F
:1084D0007D617C60FA603960B860079B03F007003B
:1084E0000DF5197DBDE8F08F049C00260834544436
:1084F00033463046194674E9022315F0CBF954454A
:1085000006460B46F5D1029A30461946002A00F07D
:10851000DA80069803F10044324644600660DAE9E6
:10852000000115F0B5F90B460099002902460EDD51
:10853000012410461946FAE9022315F0ABF90B465F
:1085400000990134A1420246F3DA029909B103F11C
:1085500000431946069B1046C3E90201079B03F03E
:1085600007000DF5197DBDE8F08F049C002208344A
:10857000544413461046194674E9022315F08AF94B
:10858000A24502460B46F5D1029909B103F1004319
:108590001946069B1046C3E90001079B03F007003C
:1085A0000DF5197DBDE8F08F00260027EAE9026786
:1085B000DA4509F108097FF4E4AC02E5009B002BE1
:1085C00008F10108C8BF02253FF78CAD32463B4693
:1085D0000020634915F05CF9022506460F46DFE5E9
:1085E00000260027DCE6049B002B26DD0024049BEC
:1085F000012B3FF4A8AD022B09D1009B5A1E0CABF6
:108600000CA953F82230C3F3150341F82230022D90
:108610007FF4C6AD32463B460020514915F038F98B
:1086200006460F46002C3FF4BBADABE50099013385
:10863000994278D1049B002BD9DC022D7FF4B0AD98
:1086400032463B460020464915F022F906460F46C1
:10865000A6E50123D1E53946049F02957A423046CA
:10866000CDF81C8000F058FD00223E4B04460D461C
:1086700015F048FD002862D000223B4B20462946D9
:1086800015F0BAFA15F068FD064615F04FFA00220B
:10869000344B15F0B1FA02460B462046294615F038
:1086A000F7F815F059FD00990B4601331A4600936F
:1086B0003B46183304930B460CA941F8230013469C
:1086C00041F8236014E6069B3246C3E900010B46DD
:1086D000DAE9000115F0DCF80B46009900290246A2
:1086E0003FF726AF1946069B1046C3E9020135E75E
:1086F00018462946DAE90023DAE90245069FC7E968
:108700000401C7E90023C7E90245E6E6A29B032B63
:108710003FF6E3AEDFE803F0211C1C0E009B012BAB
:1087200088DD0CAA012352F8044F002C3FF47EAFE1
:10873000581CDDE40DF5907A00231D46B4E6294669
:10874000204615F009FD009A0CA941F82200CFE55A
:10875000002633460DF5907AD5E60022134613E73E
:108760000000F03F000070410000703E000000007B
:108770002DE9F04F21F00046B6F1795F85B00C4647
:1087800090469946054604DA15F0E6FC002800F00C
:1087900085802A4623462846214615F02DFA0646AE
:1087A0000F4602460B462846214615F025FA3EA301
:1087B000D3E9002382468B463046394615F01CFA31
:1087C0003BA3D3E9002315F063F832463B4615F08E
:1087D00013FA39A3D3E9002315F05CF832463B467F
:1087E00015F00AFA36A3D3E9002315F051F8324602
:1087F0003B4615F001FA34A3D3E9002315F04AF8FB
:108800000E9BCDE900019BB30022334B4046494605
:1088100015F0F2F9DDE90023CDE902015046594691
:1088200015F0EAF902460B46DDE9020115F030F8D1
:1088300032463B4615F0E0F942464B4615F028F823
:1088400023A3D3E9002306460F465046594615F0A8
:10885000D3F902460B463046394615F01BF802465E
:108860000B462846214615F013F805B0BDE8F08FF9
:1088700002460B463046394615F0BEF914A3D3E93B
:10888000002315F005F852465B4615F0B5F92A4667
:10889000234614F0FFFF05B0BDE8F08F28462146BF
:1088A00005B0BDE8F08F00BF7CD5CF5A3AD9E53D81
:1088B000EB9C2B8AE6E55A3E7DFEB157E31DC73E91
:1088C000D561C119A0012A3FA6F810111111813FED
:1088D000495555555555C53F0000E03F0000000083
:1088E0002DE9F04FDA4C21F00046A64287B08A46C7
:1088F00089461746984683461ADC15F02DFCA8BB1E
:108900005B461E43109B0133334300F0A981109B4B
:10891000012B00F0B9815A4653460020CD4915F08D
:1089200095FA04460D462046294607B0BDE8F08F6B
:10893000C94B9E421ADD0029C0F29F815A46534618
:10894000A5A1D1E9000114F0A3FF3A46434604462D
:108950000D46A3A1D1E9000114F09AFF22462B464F
:1089600014F098FF002783468A46B8465A46534675
:108970005846514615F040F903460C46CDE90034FF
:1089800002460B4615F038F9DDE9002304460D4692
:108990005846514615F030F993A3D3E90023CDE9A9
:1089A00002012046294615F027F991A3D3E90023B7
:1089B00014F070FF22462B4615F01EF98EA3D3E962
:1089C000002314F067FF22462B4615F015F98CA3FF
:1089D000D3E9002314F05EFF22462B4615F00CF974
:1089E00089A3D3E9002314F055FF22462B4615F046
:1089F00003F987A3D3E9002314F04CFFDDE900233A
:108A000015F0FAF884A3D3E90023CDE90401204648
:108A1000294615F0F1F882A3D3E9002314F03AFFB8
:108A200022462B4615F0E8F87FA3D3E9002314F083
:108A300031FF22462B4615F0DFF87DA3D3E9002352
:108A400014F028FF22462B4615F0D6F87AA3D3E976
:108A5000002314F01FFF22462B4615F0CDF878A313
:108A6000D3E9002314F016FF02460B46DDE90401AA
:108A700014F010FFDDE9022315F0BEF83A46434634
:108A800014F008FFDDE9002315F0B6F802460B46A6
:108A90003846414614F0FEFE6BA3D3E9002304469A
:108AA0000D46DDE9020115F0A7F822462B4614F029
:108AB000F1FE0B46024651465846CDE9002314F01C
:108AC000E9FE654B9E4204460D463EDC109B012BA1
:108AD00036D002460B4600205E4915F0B7F9002457
:108AE0000F4606465A4653462046294614F0D0FE05
:108AF000A04602460B46DDE9000114F0C9FE4246DD
:108B00003B4615F079F8A94604460D4642463B46D9
:108B10004046494615F070F80022504B14F0BAFE5A
:108B200002460B462046294614F0B4FE32463B4628
:108B300015F062F842463B4614F0ACFE04460D4682
:108B40002046294607B0BDE8F08F109814F0EEFFDC
:108B5000224606460F462B462046294615F04CF87D
:108B60003246CDE902013B462046294614F092FEEA
:108B700002460B46DDE9020115F068F9DDE9002344
:108B800014F086FE02460B465846514614F080FE0D
:108B900002460B4614F07EFE02460B46304639462E
:108BA00014F076FE04464FEAA97000F00200C0F10E
:108BB00001000D4614F0BAFF02460B462046294636
:108BC00015F01AF804460D462046294607B0BDE8C0
:108BD000F08F00BFAFF30080182D4454FB21E93F14
:108BE000075C143326A6813CD47ABF74702AFB3EFE
:108BF000E9A7F0320FB8123F68108D1AF726303F00
:108C00001583E0FEC8DB573F93846EE9E326823F7D
:108C1000FE41B31BBAA1AB3F735360DBCB75F3BE10
:108C2000A69237A0887E143F0165F2F2D844433FF4
:108C3000280356C9226D6D3F37D60684F464963FEB
:108C40007AFE10111111C13F635555555555D53F49
:108C5000FFFF2F3E0000F0BF2794E53F0000F03FEC
:108C60005846514615F042FD02460B460020084981
:108C700015F0ECF804460D4662E701F1004308F1F7
:108C8000004883469A4659E65C46554658E700BF79
:108C90000000F03F000000002DE9F04FD24A21F023
:108CA0000043934285B00C460E4605462DD9CF4A67
:108CB00093421AD8002E80F21681B5A3D3E900237F
:108CC0002846214614F0E6FD0022002315F006FA9E
:108CD000C0B9B1A3D3E900232846214614F08CFF84
:108CE00002460B460020C24908E1C24A934240F2C4
:108CF000D0800346C1F31302134340F0F6810029EC
:108D000080F2C4800020BC49C0E0BC4A934200F21B
:108D10002981BB4A934240F2DE8000230193002266
:108D2000B84B2846214614F067FF06460F46024618
:108D30000B462846214614F05FFF99A3D3E9002390
:108D400082468B4614F058FF97A3D3E9002314F012
:108D5000A1FD52465B4614F04FFF95A3D3E90023D3
:108D600014F096FD52465B4614F046FF92A3D3E9F9
:108D7000002314F08FFD52465B4614F03DFF90A394
:108D8000D3E9002314F084FD52465B4614F034FF0F
:108D900000229D4B14F07EFD8046894602460B461C
:108DA0003046394614F028FF02460B46002097490A
:108DB00014F06EFD064602460B460F4640464946F5
:108DC00014F066FD3246804689463B4628462146D9
:108DD00014F012FF02460B4600208D4914F058FD96
:108DE00002460B464046494615F030F852465B466F
:108DF00014F002FF019E02460B46002E38D0DDE93A
:108E0000026732463B4614F043FD2A46234614F0DF
:108E1000F3FE32463B4614F03BFD5B46524614F0EF
:108E200037FD019B013306460F4600F00F81019B81
:108E3000012B00F0F180019B0133392B39D8019BC4
:108E4000132B40F31281019FC7F57F760336002272
:108E5000330514F01FFD02460B462846214614F048
:108E600017FD0022684B14F015FD01EB07510DE0D2
:108E70002846214614F0C0FE52465B4614F008FD19
:108E800002460B462846214614F002FD05B0BDE817
:108E9000F08F4DA3D3E9002315F03EF900283FF4ED
:108EA00009AF4BA3D3E900231046194614F0A4FEE2
:108EB000ECE72A46234614F0EBFC02460B46002062
:108EC000514914F0E5FC019A4F4B01EB025100228D
:108ED00014F0DEFCDAE73EA3D3E9002314F0DAFC59
:108EE00002460B46CAE72CA3D3E9002328462146B5
:108EF00014F082FE0B4643490246002014F0CAFCDF
:108F000015F02AF9019014F011FE33A3D3E90023E0
:108F100006460F4614F070FE02460B4628462146D0
:108F200014F0B6FC2EA3D3E90023804689463046D0
:108F3000394614F061FE06460F4632463B4640462F
:108F4000494614F0A5FC02460B4605460C46404631
:108F5000494614F09DFC32463B4614F099FCCDE99D
:108F60000201DCE62B4A934200F2978000291AA303
:108F7000D3E90023C0F2AE8014F08AFC01238046BE
:108F80008946019316A7D7E90067D6E7AFF30080BB
:108F900059F3F8C21F6EA501FE822B654715F73FF6
:108FA0002DC3096EB7FD8ABE3952E686CACFD03EC0
:108FB000B7DBAA9E19CE143F8555FE19A0015A3F72
:108FC000F41011111111A13FEF39FAFE422E864023
:108FD0009C7500883CE4377E0000E0FE422EE63FB0
:108FE000763C7935EF39EA3D79684340412E864039
:108FF0000000E0BFFFFFEF7F0000F0BF422ED63F32
:10900000FFFF8F3C0000E03F0000F03F0000084001
:1090100000001840B1A2F03F2846214600223A4BFA
:1090200015F05CF8002846D0284621460022374B30
:1090300014F030FC02460B463046394614F028FC4A
:1090400000224FF0404314F0D7FD1FE732463B4665
:109050002846214614F01CFC00222C4B14F0CCFDB9
:1090600000222A4B14F014FC10E7019E4FF4001E5E
:109070004EFA06FE2A462346CEF17F5714F008FC2E
:10908000002607F5401702460B463046394614F0D5
:10909000FFFB019E01EB0651F8E617A3D3E900237D
:1090A00014F0AAFD002C02460B464FF00000FFF61C
:1090B0001AAE164922E732463B462846214614F0AE
:1090C000E7FB02460B4614F0E5FB0022104B14F0C0
:1090D000E1FBDBE614F0DEFB4FF0FF338046894610
:1090E000019307A7D7E9006727E702460B4614F06C
:1090F000D1FBCBE6AFF30080FE822B654715F73F2F
:10910000763C7935EF39EABD0000D0BF0000E03F82
:109110000000F03F00000000F8B5C1F30A56044615
:109120000D460B4617460EBB21F00043034386460F
:1091300025D00022344B14F05FFD344A9742044698
:109140000D460B462ADBC1F30A56363E3E4440F23A
:10915000FE72964228DC002E12DD23F0FF4323F43A
:10916000E00343EA065520462946F8BD40F2FF7267
:109170009642EBD102460B4614F08CFBF8BDF8BDCD
:1091800016F1350F1DDA4CF250339F4222462B4622
:1091900025DC19A1D1E9000117F03EFB16A3D3E9A4
:1091A000002314F029FDF8BD22462B4614A1D1E975
:1091B000000117F031FB12A3D3E9002314F01CFDCA
:1091C000F8BD23F0FF4323F4E003363643EA0655A7
:1091D0002046294600220E4B14F00EFDF8BD08A1D2
:1091E000D1E9000117F018FB05A3D3E9002314F01F
:1091F00003FDF8BDAFF3008059F3F8C21F6EA5015F
:109200009C7500883CE4377E00005043B03CFFFF73
:109210000000903C10B5054C237833B9044B13B1D2
:109220000448AFF300800123237010BD30020020FA
:1092300000000000843702000C4B43B10C480D497C
:1092400010B5AFF300800C48036823B910BD0A487D
:10925000036833B97047094B002BF7D0BDE81040C5
:109260001847064B002BF5D0184700BF0000000040
:10927000843702003402002084370200000000001E
:1092800070B504460E4600F0D1F888B10368DB6A79
:1092900005469847082C0CD0A4F10903012B14D9DA
:1092A0003246214610230D20BDE8704004F0B0B8CE
:1092B00070BD2B6828465B6A98470228F0DC2B6853
:1092C00028461B6A04219847EAE72B6828465B6A10
:1092D00098470528E4DC2B6828461B6A0821984734
:1092E000DEE700BF30B52DED028B83B0054600F000
:1092F0009DF8044640B10368DB6A9847032D50D8B7
:10930000DFE805F0373F47080190019803B0BDEC56
:10931000028B30BD20460DF08DF807EE900A2046F6
:10932000F8EEE78A0DF096F807EE900A2046B8EEC0
:10933000E78A0DF09FF868EE087A07EE100AE8EE6B
:10934000A87AB8EEC77AE7EE077AF5EE407AF1EE42
:1093500010FAB1EEE78A03D517EE900A16F07CF802
:10936000FDEEC87ACDED017A019803B0BDEC028B19
:1093700030BD204603B0BDEC028BBDE830400DF09F
:1093800059B8204603B0BDEC028BBDE830400DF06B
:1093900061B8204603B0BDEC028BBDE830400DF053
:1093A00069B800230193B0E738B5054600F03EF8F0
:1093B00058B10368DB6A0446984745B1012D04D1D2
:1093C0002046BDE83840FBF77BB9002038BD204679
:1093D000BDE83840FBF754B910B5044600F026F854
:1093E00028B1036821461B6ABDE81040184710BD2C
:1093F0000048704716FCFFFF704700BF10B5034BD5
:10940000036004460CF0F6FD204610BD042A02005D
:1094100010B5054B036004460CF0ECFD204617F038
:1094200097FE204610BD00BF042A02002DE9F0433C
:10943000BA4C236885B01BB1986805B0BDE8F083CD
:109440004FF0FF31012001F0F5FC04F0DFFD0028B2
:1094500000F0E5800C2017F07DFE03210646512028
:1094600001F0E8FCDFF8E4E2AD4B054605F00F073C
:10947000C5F3031815F4807518BF7346A94839461B
:1094800042460BF0ADFF2A1C18BF01223946434665
:1094900030460FF033FD0023A348B3600BF0A0FF6C
:1094A0004FF0FF31032001F0C5FC04F0AFFD4FF099
:1094B000FF310546022001F0BDFC04F0A7FD002DA0
:1094C00000F09680002800F093800146284604F0C2
:1094D000AFFB0746002800F09E804FF0FF3146208A
:1094E00001F0A8FC322880462AD027DD382866D033
:1094F00068283DD14FF0FF31012001F09BFC04F0C2
:1095000085FD81464C2017F025FE05230546019375
:109510004A46CDF80080394633460EF0BFFC284657
:10952000B06003689B6A9847B0680368DB6A984735
:109530007E480BF055FF2660B0687EE7302817D1D3
:109540004FF0FF31012001F075FC04F05FFD814612
:109550004C2017F0FFFD1FFA88F1054605234A4607
:1095600000910193394633460EF07AFA2846D7E740
:109570003A680125002301950095D2F82080B36058
:109580000F220DF10F0332213846C047002851D178
:109590004FF03208414666480BF022FF4FF0FF3192
:1095A000012001F047FC04F031FD81464C2017F00A
:1095B000D1FD052305464A46CDF80080D1E74FF09E
:1095C000FF31012001F036FC04F020FD81464420EB
:1095D00017F0C0FD052305464A46CDF80080394600
:1095E000019333460EF0B2FB524B2B60284697E7AF
:1095F00051480BF0F5FE4FF0FF31192001F01AFC35
:1096000004F004FD4FF0FF310546182001F012FC74
:1096100004F0FCFC59E749480BF0E2FE8BE74FF001
:10962000FF31032001F006FC04F0F0FC00287FF479
:1096300011AF02E73B6801950095D3F820800F2217
:109640000DF10F0330213846C04718B94FF03008EC
:109650004146A0E73B6801950095D3F820800D2294
:109660000DF10F0338213846C047B8B938213048CA
:109670000BF0B6FE4FF0FF31284601F0DBFB04F0A3
:10968000C5FC8046442017F065FD4FF0050E3823D9
:109690000546424639468DE80840A2E73A680195FA
:1096A0000095D2F820800DF10F037522682138460D
:1096B000C047D8B968211E480BF092FE4FF0FF3129
:1096C000284601F0B7FB04F0A1FC80464C2017F0BF
:1096D00041FD4FF0050E682305468DE808404246DF
:1096E000394633460EF0DAFB284619E714480BF0EA
:1096F00077FEB06800287FF414AF4FF0FF310320ED
:1097000001F098FB04F082FC18B10E480BF068FEE3
:1097100011E70D480BF064FE0DE700BF4C0200207E
:109720006C1A0200741A0200941A02002C1B020028
:10973000501B0200301A0200A41A0200B81A0200DC
:109740003C1B0200D01A02000C1B0200641A02002B
:1097500008B501F0A1FCFBF73FFEBDE8084001F0B1
:10976000FDB900BF08B501F097FCFBF7A5FEBDE809
:10977000084001F0F3B900BF08B501F08DFC15F009
:109780002BF8BDE8084001F0E9B900BF08B501F0C9
:1097900083FC15F09DFDBDE8084001F0DFB900BF76
:1097A00008B501F079FCFBF727FEBDE8084001F0A1
:1097B000D5B900BF08B501F06FFC15F03FFABDE860
:1097C000084001F0CBB900BF08B501F065FCFBF71C
:1097D00063F8BDE8084001F0C1B900BF08B501F069
:1097E0005BFC15F07FF9BDE8084001F0B7B900BF98
:1097F00070B5049E96420C4628DB15466BB1002AD4
:1098000000EB020107DD2046A21811F8013D00F827
:10981000013B9042F9D1002070BD042A0FD0022AEA
:1098200002D110F0010306D001462A46204607F077
:10983000C3FC002070BD02880A80184670BD10F07D
:109840000303F1D102680A60184670BD0846002182
:1098500008F0A2FE4FF0FF3070BD00BF0830704727
:1098600040B1002905DB4368994202DA0844007AD6
:1098700070470020704700BF30B1002904DB436807
:109880009942BCBF40180272704700BF40B1002926
:1098900005DB4368994202DA0844007A70470020E9
:1098A000704700BF830705D120B1030F0CBF012013
:1098B000002070470120704730B1002904DB436865
:1098C0009942BCBF40180272704700BF002B23DBD7
:1098D000002921DB70B54668B1421ADC5568761A5A
:1098E0001446EA1AB242A8BF3246002A11DB84426B
:1098F0000D4607D0083408300844E11807F05CFC36
:10990000002070BD0834E118601917F05DFC0020DC
:1099100070BD4FF0FF3070BD4FF0FF30704700BF9B
:109920004068704710B4141E10DB426894420DDC8E
:1099300033EA230328BF1346121B08309A422044FF
:10994000A8BF1A465DF8044B08F026BE5DF8044B2C
:10995000704700BF43688B4210B400F108041846FA
:10996000A8BF084632EA220128BF19461B1A9942AD
:109970002044A8BF19465DF8044B00F0F3BE00BFB9
:10998000002BBCBF43689B1A002A70B50E4620DB33
:1099900044689918A1421CDC8A421ADCCBB136F02B
:1099A000004116D059428E4214DDB34212DD083018
:1099B000002E00EB020515DB9C1B2246A919284648
:1099C00017F002FC324628190021BDE8704008F06B
:1099D000E3BD70BD002211464FF0FF33BDE870407B
:1099E000FFF7A0BF74429A192946281917F0ECFB1B
:1099F000224628460021BDE8704008F0CDBD00BFDA
:109A000003460830596800F02DBE00BF70B504460B
:109A100000206168490000F0A7FD6668002E11DD96
:109A2000094D04F1080100EB4606034611F8012B2D
:109A3000141102F00F022C5DAA5C9C71DA710233E2
:109A40009E42F3D170BD00BF641B0200002BBCBF5F
:109A500043689B1A002A2FDB70B445689C18AC42FF
:109A600029DCA24227DC33B331F0004423D00029A3
:109A7000B8BF01EB032191FBF3F603FB1616002E92
:109A800000F10800B8BFF61802441644B24213446D
:109A900011D0304604E0B24208460ED090420AD0BF
:109AA0000146147811F8015B02F8015B8B420470E7
:109AB000F1D13046F2E770BC70470E46EEE700BFCA
:109AC00000B583B04FF0FF3300930023FFF7FEFE95
:109AD00003B05DF804FB00BF10B50C1E0EDD41683D
