:1040000000000320714A01006D4A010099DB0000A5
:104010006D4A01006D4A01006D4A01000000000078
:104020000000000000000000000000006D4A0100D8
:104030006D4A0100000000006D4A01006D4A010058
:104040006D4A01006D4A01006D4A01006D4A010090
:104050006D4A01006D4A01006D4A01006D4A010080
:104060006D4A01006D4A01006D4A01006D4A010070
:1040700081D2010089D2010091D2010099D20100C0
:10408000A1D20100A9D20100B1D20100B9D2010030
:10409000C1D20100C9D20100D1D20100D9D20100A0
:1040A000E1D20100E9D20100F1D20100F9D2010010
:1040B0006D4A01006D4A01006D4A01002DCD0100DD
:1040C00031CD010035CD010039CD01003DCD0100DC
:1040D0006D4A01006D4A01006D4A01006D4A010000
:1040E0006D4A01006D4A01006D4A01006D4A0100F0
:1040F000000000006D4A010071C801006DC8010098
:1041000069C801005DC8010089C8010085C80100B7
:1041100081C8010075C80100A1C801009DC8010047
:1041200099C801008DC80100B9C80100B5C80100D7
:10413000B1C80100A5C80100D1C80100CDC8010067
:10414000C9C80100BDC80100E9C80100E5C80100F7
:10415000E1C80100D5C80100000000000000000017
:10416000000000000000000000000000000000004F
:10417000000000000000000000000000000000003F
:10418000DD9E0100E19E0100D99E0100D59E010047
:10419000000000006D4A01006D4A01006D4A0100F7
:1041A0006D4A01006D4A01006D4A01006D4A01002F
:1041B0006D4A01006D4A01006D4A01006D4A01001F
:1041C0006D4A01006D4A01006D4A01006D4A01000F
:1041D0006D4A01006D4A01006D4A01006D4A0100FF
:1041E0006D4A01006D4A01006D4A010035BF0100B2
:1041F0003DBF010045BF01004DBF010055BF01009B
:104200005DBF010000000000000000006D4A0100D9
:104210006D4A01006D4A01006D4A01006D4A0100BE
:104220006D4A01006D4A01006D4A01006D4A0100AE
:104230006D4A01006D4A01006D4A01006D4A01009E
:104240006D4A01006D4A01006D4A01006D4A01008E
:104250006D4A01006D4A01006D4A01006D4A01007E
:10426000000000007CB0EE877CB0EE87FF00FF000E
:10427000FF00FF00FF00FF00FF00FF00FF00FF0046
:10428000FF00FF00FF00FF00FF00FF00FF00FF0036
:10429000FF00FF00FF00FF00FF00FF000000000024
:1042A0002DE9F04F85B003910778A7F10903042B9E
:1042B000044607F07F0200F10100F5D9202AF3D06F
:1042C0002B2F04BF677804462D2F72D09FED427BC1
:1042D0008DED007B4FF000084FF000098FB34FF0D9
:1042E000000E4FF0000ADFF800B1754619E019F032
:1042F000C9FA80468946304619F05EFA42464B4676
:1043000019F00EF95246804689465B46DDE9000108
:1043100035B319F0E1FBCDE90001AE4614F8017F99
:104320007FB1A7F13006092E52465B46404649460A
:10433000DDD9C5B92E2F16D114F8017F0125002F24
:10434000EFD142464B46DDE9000119F09BFA804669
:104350008946039B404649461C6005B0BDE8F08F86
:104360004FF0010EDAE7BEF1000F29D042464B466E
:10437000DDE9000119F086FA07F0DF07452F8046D6
:104380008946E6D10399601C0A221CF0A3FA16495B
:104390000246002019F0D6FD02460B46404649462B
:1043A00019F070FA804689464046494605B0BDE896
:1043B000F08F9FED0B7B67788DED007B013489E7F3
:1043C000DFF828904FF000084046494605B0BDE8A8
:1043D000F08F00BFAFF30080000000000000F03F4E
:1043E000000000000000F0BF000024400000F87F43
:1043F0002DE9F84F16460023002204460D4619F019
:10440000B3FC002840F09D8000220023204629466E
:1044100019F0A0FC28B13022002332707370BDE87F
:10442000F88F204629461AF09DFB19F0DBFC7BA390
:10443000D3E9002381462946204619F095FC00283F
:1044400000F08680B9F1000FC0F2BE804A4600201D
:104450006F4919F077FD02460B462046294619F0B0
:104460003BFB04460D4666A1D1E9000101274FF050
:10447000000822462B4619F005FA0022654B19F078
:104480004FF819F09BFD002FCC464FF0FF3AC14684
:104490004FF0000840F38580DFF888E15E4C012290
:1044A000AEF1700945F6F3254FF02E0BA94208BF77
:1044B000A0424FF0300309D3001B61EB0501A94274
:1044C00008BFA04203F10103F6D2DBB2337050EA19
:1044D000010306F1010409D1BA4210DACE4502F116
:1044E00001020CD026467EE80245DFE7BA4204BF4F
:1044F00086F801B0B41CCE4502F10102F2D1B8F148
:10450000000F0DD02246302102F8011BC2F1010339
:1045100053442344002BF7DC2AEAEA7301331C449A
:10452000BCF1010F4CD06523BCF1000F2370C5BF57
:104530002B236370611CA11C6046BDE8F84F10F08E
:1045400005BB05F100431D462D23337001365BE7A3
:104550002DA3D3E900232046294619F023FC002887
:104560007FF470AFB9F10E0F09F101073DDDA9F13C
:104570000E0842460020264919F0E4FC02460B468C
:104580002046294619F0A8FA0022224B18F0C8FF4D
:1045900019F014FD002FA9F10F0A4FF0010C3FF79D
:1045A0007BAF334630222E2403F8022B74707FEA4F
:1045B000090618D01E4403F8012BB342FBD16BE768
:1045C00000232370BDE8F88FC9F1000200201049D4
:1045D00019F0B8FC02460B462046294619F052F95C
:1045E00004460D463FE71E4656E7C9F10E0200207D
:1045F0000749C84619F0A6FC4FF0010939E700BF8A
:104600000000901EC4BCD64250EFE2D6E41A4B44E0
:10461000000024400000E03F00407A108DEDB5A07E
:10462000F7C6B03E4819020070B54FF0FF3006F0F3
:10463000CBF804466FF07F4006F0C6F806462046E9
:1046400019F0AAF800220C4B19F01CF90446304668
:104650000D4619F0A1F806A3D3E9002319F03CFA9E
:1046600002460B462046294618F05AFF70BD00BF8F
:104670000000E0DFFFFF6F430000F03D000000009E
:1046800008B511F017FDDFED0C7A07EE100A67EEA2
:10469000277A17EE900A19F0A1F805A3D3E90023B1
:1046A00019F01AFA19F09EFB08BD00BFAFF30080A5
:1046B000EA2E4454FB2119400000B44300000000DE
:1046C00008B511F00BFDDFED0C7A07EE100A67EE6E
:1046D000277A17EE900A19F081F805A3D3E9002391
:1046E00019F0FAF919F07EFB08BD00BFAFF30080A6
:1046F000EA2E4454FB2119400000B443000000009E
:104700002DE9F04F046985B0E3699B07FCD123686C
:10471000C3F3400BBBF1000F40F0AF80B0F80CA02A
:1047200015468046BAF1000F23D0BAF1010F62D0CE
:10473000BAF1020F40F0A4805500E1685448C5F575
:104740003B438033B3FBF5F31A0421F47F0102F4F9
:104750007F020A43E260E2685B00A0FB03135B0890
:1047600022F07F4242EA03635846E36005B0BDE8A9
:10477000F08FE2684BF6803B05EB850022F0FF03EB
:10478000ABEB4000019319F007F80646B8F80E00AD
:104790000F4619F011F83CA3D3E9002319F072F881
:1047A00080460BFB05F0894618F0F6FF02460B46E3
:1047B0004046494619F066F802460B4630463946EF
:1047C00018F0ACFE064668000F4618F0E5FF0246FA
:1047D0000B463046394619F07FF919F02BFB019B47
:1047E000C0B21843E060E368504623F47F43E360BF
:1047F00005B0BDE8F08FE2684BF6803A05EB850026
:1048000022F0FF03AAEB4000019318F0C5FFCDE9A9
:104810000201B8F80E0018F0CFFF1BA3D3E9002364
:1048200019F030F806460AFB05F00F4618F0B4FF01
:1048300002460B463046394619F024F802460B462C
:10484000DDE9020118F06AFE064668000F4618F01E
:10485000A3FF02460B463046394619F03DF919F0E0
:10486000E9FA019AC3B21343E360E368584623F4BC
:104870007F43E36005B0BDE8F08F6FF0100075E78F
:104880006FF00C0072E700BF95D626E80B2E113EA4
:10489000ABAAAAAA000000004F4A21F000439342AD
:1048A0002DE970430D4604464FDC4C4A93420E46B8
:1048B0000FDC45A3D3E9002318F032FE0022484B59
:1048C00019F070FA002856D02B4620461946BDE84C
:1048D0007083444A934242DCB3F1804F4BDD19F0C0
:1048E0004BFD2246804689462B462046294618F035
:1048F000C9FF00223A4B18F013FE1AF0CFFD024612
:104900000B464046494618F00BFE02460B46002077
:10491000334919F0E1F8424604460D464B464046FD
:10492000494618F0FDFD0B4602462946204618F080
:10493000F7FD01F0FDFE04460B46002E0BDC03F1F3
:10494000004320461946BDE870830B46024618F026
:10495000E7FD04460B4620461946BDE8708319F072
:104960000BFD01F0E5FE1AA3D3E9002318F0D8FDF2
:1049700004460B46E1E722462B462046294618F01E
:1049800081FF804689462046294619F0F5FC002221
:104990000446134B0D464046494618F0C1FD1AF037
:1049A0007DFD00220E4B18F0BBFD02460B46404633
:1049B000494619F091F822462B4618F0B1FD00F057
:1049C000D3FA04460B46B8E79C7500883CE4377E72
:1049D000EF39FAFE422EE63FFFFFEF7FFFFF2F3E4B
:1049E0000000F03F0000B0412DE9F84FC24B21F02C
:1049F00000469E420D468A46044610DDBF4B9E424D
:104A000000F3B58000F0B080BD4BBE49BE4CBAF19A
:104A1000000FD8BF0B4620461946BDE8F88FBB4BA8
:104A20009E4200F3C180A3F1DE739E4240F3AB804F
:104A30004FF0FF3B22462B462046294618F022FF26
:104A400002460B468046894618F01CFF92A3D3E924
:104A5000002306460F4618F015FF91A3D3E9002363
:104A600018F05EFD32463B4618F00CFF8EA3D3E9EA
:104A7000002318F055FD32463B4618F003FF8CA387
:104A8000D3E9002318F04CFD32463B4618F0FAFEFD
:104A900089A3D3E9002318F043FD32463B4618F0C2
:104AA000F1FE87A3D3E9002318F03AFD42464B46B6
:104AB00018F0E8FE84A3D3E90023804689463046F7
:104AC000394618F0DFFE82A3D3E9002318F026FD53
:104AD00032463B4618F0D6FE7FA3D3E9002318F0F8
:104AE0001DFD32463B4618F0CDFE7DA3D3E90023E1
:104AF00018F014FD32463B4618F0C4FE7AA3D3E901
:104B0000002318F00BFD32463B4618F0BBFEBBF10C
:104B1000FF3F02460B466ED04046494618F000FD66
:104B200022462B4618F0AEFE794E7A4B4FEACB0B5D
:104B30005E449B44DBE9002318F0F0FC22462B4640
:104B400018F0ECFC0B460246D6E9000118F0E6FC32
:104B5000BAF1000F04460B46BFF65DAF01F100430A
:104B600020461946BDE8F88F00283FF44DAF224695
:104B70002B462046294618F0D3FC04460B46204617
:104B80001946BDE8F88F5AA3D3E9002318F0C8FCF2
:104B90000022614B19F006F900283FF449AF2B467B
:104BA00020461946BDE8F88F19F0E6FB5B4B9E42A4
:104BB00004460D4630DCA3F550239E4255DC0246E8
:104BC0000B4618F0ADFC0022534B18F0A7FC002256
:104BD00006460F464FF080432046294618F0A0FCB9
:104BE00002460B463046394618F076FF4FF0000B70
:104BF00004460D461EE74046494618F091FC224601
:104C00002B4618F03FFE0B4602462946204618F078
:104C100085FC04460B46FEE6414B9E421ADC002210
:104C2000404B18F07BFC002206460F463D4B2046C9
:104C3000294618F027FE0022374B18F071FC024677
:104C40000B463046394618F047FF4FF0020B04463A
:104C50000D46EFE602460B460020334918F03CFFB4
:104C60004FF0030B04460D46E4E600222A4B18F0F1
:104C700055FC002206460F46274B2046294618F0D1
:104C80004FFC02460B463046394618F025FF4FF0E0
:104C9000010B04460D46CDE611DA22E33AAD903F12
:104CA000EB0D76244B7BA93F513DD0A0660DB13F63
:104CB0006E204CC5CD45B73FFF8300922449C23FCB
:104CC0000D5555555555D53F2F6C6A2C44B4A2BF90
:104CD0009AFDDE522DDEAD3F6D9A74AFF2B0B33F58
:104CE000711623FEC671BC3FC4EB98999999C93FD0
:104CF0009C7500883CE4377EFFFF0F440000F07F86
:104D0000FB21F93FFB21F9BF182D4454FFFFDB3F86
:104D100058190200781902000000F03FFFFFF23F2F
:104D2000FF7F03400000F83F0000F0BF00000000DC
:104D30002DE9F047C1F30A59A9F2FF36132E0B46AD
:104D40000D46044607468846824622DC002E4FDB8D
:104D50003D4A42FA06F901EA090202431ED038A38D
:104D6000D3E9002318F0DCFB0022002319F01AF825
:104D700050B1002D04DD4FF4801343FA06F6B04421
:104D800028EA09054FF0000A544629462046BDE8A6
:104D9000F087332E06DDB6F5806F3DD019462046EC
:104DA000BDE8F087A9F213494FF0FF3222FA09F962
:104DB00010EA090FF2D022A3D3E9002318F0B0FBC8
:104DC0000022002318F0EEFF0028DDD0002D09DDC1
:104DD000142E2FD00123C6F1340603FA06F6371934
:104DE00028BF9844454627EA090A54462946CDE794
:104DF00013A3D3E9002318F093FB0022002318F03B
:104E0000D1FF0028C0D0002D0FDB55EA040709D0E0
:104E10004FF0000A0D4DB7E702460B4618F080FB35
:104E20000446BCE7BA463D46AEE74FF0000A4FF0F5
:104E30000045A9E705F10108D4E700BFAFF3008002
:104E40009C7500883CE4377EFFFF0F000000F03FB8
:104E5000C1F30A522DE9F843A2F2FF36132E0B4696
:104E60000D460446884607461DDC002E40DB3C4AC2
:104E700042FA06F901EA09020243864618D036A32F
:104E8000D3E9002318F04CFB0022002318F08AFF1E
:104E900020B1002D42DB28EA090500273C462946BF
:104EA0002046BDE8F883332E06DDB6F5806F2FD09F
:104EB00019462046BDE8F883A2F213424FF0FF39AD
:104EC00029FA02F910EA090FF2D023A3D3E900234B
:104ED00018F026FB0022002318F064FF0028DDD024
:104EE000002D21DB454627EA09073C462946D7E73E
:104EF00019A3D3E9002318F013FB0022002318F0B4
:104F000051FF0028CAD0002D19DB00273D46C5E718
:104F100002460B4618F004FB0446CAE74FF4801320
:104F200043FA06F6B044B6E7142E10D00123C6F1BA
:104F3000340603FA06F6371928BF9844D2E725F05D
:104F40000042084B224318BF1D460027A6E705F183
:104F50000108C7E7AFF300809C7500883CE4377E0A
:104F6000FFFF0F000000F0BF2DE9F04FD64B994234
:104F700089B00E460F46824613DCD44B21F0004424
:104F80009C4218DD0022D24B18F0E4FE002879D0B4
:104F9000002200230020CF4918F09EFD09B0BDE893
:104FA000F08FCD4B99422FDD5246334618F0B8FAB8
:104FB00009B0BDE8F08FC94B9C4270DDC84B1F445F
:104FC0009F427ED8504631460022C64B18F0A8FAC0
:104FD0004FEA215BABF2FF3BBBF1000F04460D46ED
:104FE0000F4640F3E0815246334618F097FA0246E6
:104FF0000B460020BB4918F091FA22462B4618F0C8
:105000006BFDCDE900010BE0B74B9F42DADD0022DA
:105010000023CDE900234FEA275B5446ABF2FF3B68
:10502000B24BC7F313079F4247F07F5500F3E78069
:1050300045F44015204629460022AA4B18F06EFA86
:10504000002204460D46AA4B18F01CFC22462B46B3
:1050500018F018FCA246CDE902012E46804689468A
:10506000002F3AD1002200232046294618F072FE74
:10507000002800F0CE80BBF1000F40F076810020C8
:10508000014695E7524633465046314618F046FAF7
:1050900002460B4618F020FD09B0BDE8F08F002253
:1050A000944B18F03DFA0022002318F07BFE0028F4
:1050B00000F0CC80904B9C4200F3C88050463146B3
:1050C00076E700228A4B18F0DDFB5246334618F093
:1050D000D9FB4FF0000B8046894600224FF08043F9
:1050E0005046314618F01CFA02460B4650463146EF
:1050F00018F0F2FC02460B46CDE9022318F0C2FB81
:105100005DA3D3E9002304460D4618F0BBFB5CA366
:10511000D3E9002318F004FA22462B4618F0B2FB1C
:1051200059A3D3E9002318F0FBF922462B4618F0C7
:10513000A9FB57A3D3E9002318F0F2F922462B4626
:1051400018F0A0FB54A3D3E9002318F0E9F9224694
:105150002B4618F097FB52A3D3E9002318F0E0F98F
:1051600022462B4618F08EFB4FA3D3E9002318F0FC
:10517000D7F922462B4618F085FB04460D46BBF1B5
:10518000000F00F0BB80584618F016FB48A3D3E987
:105190000023CDE9040118F075FB4246CDE9060174
:1051A0004B462046294618F0BBF9DDE9022318F0EA
:1051B00069FB41A3D3E9002304460D46DDE9040160
:1051C00018F060FBDDE9002318F0AAF902460B464F
:1051D0002046294618F0A4F902460B4640464946A7
:1051E00018F09CF95246334618F098F902460B46DF
:1051F000DDE9060118F092F909B0BDE8F08F45F439
:105200000015C7F5801720462946BF100BF1010B8A
:1052100012E72BA3D3E900232046294618F032FBDE
:1052200002460B4600202F4918F078F9DDE90223E9
:1052300018F028FB06460F46BBF1000F6DD1024661
:105240000B462046294618F069F9B1E65246334626
:105250005046314618F016FB0022254B18F012FB81
:1052600002460B465046314618F058F909B0BDE8E1
:10527000F08F00BFAFF3008044523EDF12F1C23F17
:105280009FC678D0099AC33FDE03CB966446C73FDA
:10529000AF788E1DC571CC3F599322942449D23FDB
:1052A00004FA97999999D93F935555555555E53F26
:1052B0000000E0FE422EE63F763C7935EF39EA3DCC
:1052C000555555555555E53F7982DA3FFFFFEF3F7C
:1052D0000000F0BF000050C3FFFFEF7FFFFF1F3E45
:1052E0003C412D400000F03FFFFF3F439DA00600E2
:1052F0000000E03F00005043FFFF8F3C42464B461A
:1053000018F00EF9DDE9022318F0BCFA02460B464C
:105310004046494618F002F9A2E7584618F04CFA00
:1053200027A3D3E9002382468B4618F0ABFA26A3C5
:10533000D3E90023804689465046594618F0A2FA20
:10534000DDE9002318F0ECF802460B4630463946FA
:1053500018F0E4F822462B4618F0E0F802460B4617
:105360004046494618F0DAF822E6584618F024FA82
:1053700015A3D3E9002306460F4618F083FADDE9AA
:10538000002318F0CDF80EA3D3E9002304460D4600
:105390003046394618F076FA02460B462046294632
:1053A00018F0BEF804E60022094B18F0B7F80246E0
:1053B0000B465046314618F0B1F81EE6AFF30080B8
:1053C0000000E0FE422EE63F763C7935EF39EA3DBB
:1053D0000000F03F0000000008B519F047FB04A3EF
:1053E000D3E9002318F078FB08BD00BFAFF30080BD
:1053F000EF39FAFE422EE63F2DE9F043DFF8B480A4
:105400008BB004460D4600F06BFF98F90030013375
:1054100006460F462BD022462B462046294618F03A
:10542000CBFC814618BB2046294618F0A5FF1CA3DB
:10543000D3E9002318F0B6FCC8B11B4A98F9003034
:10544000CDF820900321CDE90445CDE902458DE852
:1054500006008BB9154B4FF06042CDE90623684634
:105460001BF0A4F870B1089B9BB9DDE906673046D4
:1054700039460BB0BDE8F0830D490020022BCDE981
:105480000601ECD11BF0E2F922230360089B002BFC
:10549000EBD01BF0DBF9089B0360E6E7AFF300807D
:1054A0007DF8B98FCE338640C8300200FFFFEF474A
:1054B0000000F07F1E0200202DE9F043DFF8E480B9
:1054C0008BB004460D4600F0BBFF98F90030013365
:1054D00006460F4633D0204629461BF061F870B3CC
:1054E00029A3D3E900232046294618F05BFC814616
:1054F00050BB27A3D3E900232046294618F034FCEB
:10550000E8B198F90030244ACDF820900426002014
:105510000021022BCDE90445CDE902450096019218
:10552000CDE9060129D068461BF040F828B3089B56
:105530001BB11BF08BF9089B0360DDE90667304661
:1055400039460BB0BDE8F083134A98F90030019258
:1055500003210022CDE90445CDE9024500910892DE
:105560002BB90E4B4FF06042CDE90623DBE70C4927
:105570000020022BCDE90601D5D11BF067F92223CB
:105580000360D4E7AFF30080EF39FAFE422E864085
:1055900051302DD5104987C0D0300200FFFFEF47B2
:1055A0000000F07F1E0200202DE9F84FC44E21F0CC
:1055B0000043B3420C4605460DDD03F1404303F5BD
:1055C0008013034340F0B980002940F3408100205C
:1055D0000021BDE8F88FBB4EB34240F3A6800029FE
:1055E000C0F2788102460B460020B74917F096FFBB
:1055F0000022B64B18F046F904460D4619F04EFF4E
:1056000095A3D3E90023894680462946204618F011
:1056100039F993A3D3E9002317F082FF22462B46E2
:1056200018F030F990A3D3E9002317F077FF224652
:105630002B4618F027F98EA3D3E9002317F070FF4B
:1056400022462B4618F01EF98BA3D3E9002317F04E
:1056500065FF22462B4618F015F989A3D3E90023EC
:1056600017F05EFF22462B4618F00CF986A3D3E90B
:10567000002382468B462046294618F003F984A36E
:10568000D3E9002317F04AFF22462B4618F0FAF818
:1056900081A3D3E9002317F043FF22462B4618F0DD
:1056A000F1F87FA3D3E9002317F038FF22462B46F9
:1056B00018F0E8F80022844B17F032FF02460B4640
:1056C0005046594618F008FA42464B4618F0DAF8A8
:1056D000002682468B4632464B463046494618F0F5
:1056E000D1F802460B462046294617F017FF3246EE
:1056F00004460D464B464046494617F011FF024608
:105700000B462046294618F0E7F902460B4650465C
:10571000594617F005FF32464B4617F001FF024687
:105720000B4617F0FDFEBDE8F88F694A93420EDC88
:105730005DA1D1E90001BDE8F88F02460B4617F0E4
:10574000EDFE02460B4618F0C7F9BDE8F88F024699
:105750000B4618F097F840A3D3E9002306460F46FE
:1057600018F090F83EA3D3E9002317F0D9FE324693
:105770003B4618F087F83CA3D3E9002317F0CEFE90
:1057800032463B4618F07EF839A3D3E9002317F0E0
:10579000C7FE32463B4618F075F837A3D3E900231D
:1057A00017F0BCFE32463B4618F06CF834A3D3E940
:1057B000002317F0B5FE32463B4618F063F832A3DB
:1057C000D3E90023804689463046394618F05AF816
:1057D0002FA3D3E9002317F0A1FE32463B4618F071
:1057E00051F82DA3D3E9002317F09AFE32463B4629
:1057F00018F048F82AA3D3E9002317F08FFE3246A9
:105800003B4618F03FF800222F4B17F089FE024666
:105810000B464046494618F05FF92A46234618F0E1
:1058200031F802460B4622A1D1E9000117F076FEBD
:1058300002460B462846214617F070FE02460B46EC
:1058400019A1D1E9000117F069FEBDE8F88F1AA18E
:10585000D1E90001BDE8F88F09F7FD0DE13D023FF8
:1058600088B20175E0EF493F3B8F68B52882A43FBD
:105870005544880E55C1C93F7D6FEB0312D6D43F06
:10588000555555555555C53F82922EB1C5B8B33FB4
:1058900059018D1B6C06E63FC88A599CE52A0040D9
:1058A0004B2D8A1C273A0340182D4454FB21F93F05
:1058B000075C143326A6913C182D4454FB21094063
:1058C000FFFFEF3FFFFFDF3F0000F03F0000E03F42
:1058D0000000603C00225C4B17F022FE00225B4B74
:1058E00017F0D0FF40A3D3E9002304460D4617F07C
:1058F000C9FF3FA3D3E9002317F012FE22462B462F
:1059000017F0C0FF3CA3D3E9002317F007FE22469F
:105910002B4617F0B7FF3AA3D3E9002317F000FE98
:1059200022462B4617F0AEFF37A3D3E9002317F02A
:10593000F5FD22462B4617F0A5FF35A3D3E900233A
:1059400017F0EEFD22462B4617F09CFF8046894655
:105950002046294619F0A2FD2FA3D3E900230646CD
:105960000F462046294617F08DFF2DA3D3E90023CB
:1059700017F0D4FD22462B4617F084FF2AA3D3E963
:10598000002317F0CDFD22462B4617F07BFF28A3FE
:10599000D3E9002317F0C2FD22462B4617F072FF11
:1059A0000022294B17F0BCFD02460B4640464946F3
:1059B00018F092F832463B4617F064FF1EA3D3E975
:1059C000002317F0ABFD32463B4617F0A9FD024617
:1059D0000B4617F0A5FD02460B4619A1D1E90001BF
:1059E00017F09CFDBDE8F88F09F7FD0DE13D023F82
:1059F00088B20175E0EF493F3B8F68B52882A43F2C
:105A00005544880E55C1C93F7D6FEB0312D6D43F74
:105A1000555555555555C53F82922EB1C5B8B33F22
:105A200059018D1B6C06E63FC88A599CE52A004047
:105A30004B2D8A1C273A0340075C143326A6913C61
:105A4000182D4454FB2109400000F03F0000E03FC6
:105A5000434A91422DE9F8430C46054639DD414A57
:105A6000914209DD02F17952914240DD02460B4636
:105A700017F056FDBDE8F88301F1404202F58012AF
:105A8000024330D0B1F1804F3ADC0022364B17F0A0
:105A900045FD02460B4604460D4617F041FD2246E1
:105AA00006460F462B462046294617F0EBFE0246D7
:105AB0000B463046394617F033FD19F0EFFC0B4624
:105AC00002462946204617F02BFDBDE8F843FFF7B4
:105AD0004BBA02460B4617F021FD02460B4617F063
:105AE000FBFFBDE8F88300200021BDE8F88300F04B
:105AF0001FFE19A3D3E9002317F012FDBDE8F883B8
:105B000002460B4617F0BEFE0022174B17F006FDAB
:105B100019F0C4FC2A468046894623462846214679
:105B200017F0FEFC424606460F464B4628462146E5
:105B300017F0F6FC02460B4600200B4917F0CCFF8D
:105B40000B4602463946304617F0E8FCBDE8F843FC
:105B500000F0EEBDAFF30080EF39FAFE422EE63FD3
:105B6000FFFFEF3FFFFFAF410000F03F00000000EC
:105B70002DE9F047C44B21F00048984584B00D460C
:105B8000044616DD08F1404808F58018034658EA37
:105B9000030326D002460B4617F0C0FC0B46024614
:105BA00017F09AFF04460B462046194604B0BDE89C
:105BB000F087B64B98458A462EDCB8F1795F80F2C3
:105BC0006D8195A3D3E9002317F0AAFC0022B04B06
:105BD00018F0E8F800B32B462046194604B0BDE89B
:105BE000F0878FA3D3E9002317F04CFE8EA3D3E9EF
:105BF000002306460F462046294617F043FE02467C
:105C00000B463046394617F08BFC04460B462046BF
:105C1000194604B0BDE8F0872046294618F0ACFBD1
:105C200002460B4600209A4917F078FC0022994B57
:105C300017F028FE7EA3D3E9002304460D4617F093
:105C400021FE7DA3D3E9002317F06AFC22462B46F0
:105C500017F018FE7AA3D3E9002317F05FFC224661
:105C60002B4617F00FFE78A3D3E9002317F058FC5A
:105C700022462B4617F006FE75A3D3E9002317F042
:105C80004DFC22462B4617F0FDFD73A3D3E90023FC
:105C900017F046FC22462B4617F0F4FD70A3D3E91B
:105CA0000023CDE900012046294617F0EBFD6EA345
:105CB000D3E9002317F032FC22462B4617F0E2FD11
:105CC0006BA3D3E9002317F02BFC22462B4617F0D9
:105CD000D9FD69A3D3E9002317F020FC22462B4607
:105CE00017F0D0FD6A4B002217F01AFCCDE9020133
:105CF0002046294619F0D2FB674B984506460F46C9
:105D000067DCDDE90223DDE9000117F0E5FE32463C
:105D1000CDE900013B463046394617F001FC02460A
:105D20000B46DDE9000117F0ADFD4FF00008CDE9AD
:105D3000000142463B464046394617F0A3FD024665
:105D40000B462046294617F0E9FB424604460D461D
:105D50003B463046394617F0E3FB02460B462046E9
:105D6000294617F0B9FE02460B4617F0D9FB02464A
:105D70000B462DA1D1E9000117F0D0FB02460B46DE
:105D8000DDE9000117F0CAFB424604460D463B46DA
:105D90004046394617F0C4FB02460B4638A1D1E90C
:105DA000000117F0BBFB02460B462046294617F0C0
:105DB000B5FB0B46024632A1D1E9000117F0AEFB5C
:105DC00004460B46BAF1000F3FF7EEAE03F1004375
:105DD000EAE6DDE90223DDE9000117F07DFE324647
:105DE0003B4617F04FFD32463B4617F099FB024603
:105DF0000B4617F095FB0CA3D3E9002317F08EFB9D
:105E00000B46024606A1D1E9000117F087FB0446C4
:105E10000B46D7E7AFF300809C7500883CE4377EE3
:105E2000182D4454FB21F93F075C143326A6913CFE
:105E300009F7FD0DE13D023F88B20175E0EF493FF2
:105E40003B8F68B52882A43F5544880E55C1C93F91
:105E50007D6FEB0312D6D43F555555555555C53F6B
:105E600082922EB1C5B8B33F59018D1B6C06E63F37
:105E7000C88A599CE52A00404B2D8A1C273A0340CA
:105E8000182D4454FB21E93FFFFFEF3FFFFFDF3FA9
:105E90000000F03F0000E03F3233EF3F02460B4688
:105EA00017F0F0FC38A3D3E9002306460F4617F09D
:105EB000E9FC37A3D3E9002317F032FB32463B4617
:105EC00017F0E0FC34A3D3E9002317F027FB324698
:105ED0003B4617F0D7FC32A3D3E9002317F020FB91
:105EE00032463B4617F0CEFC2FA3D3E9002317F030
:105EF00015FB32463B4617F0C5FC2DA3D3E9002322
:105F000017F00EFB32463B4617F0BCFC2AA3D3E940
:105F10000023804689463046394617F0B3FC28A353
:105F2000D3E9002317F0FAFA32463B4617F0AAFCF1
:105F300025A3D3E9002317F0F3FA32463B4617F0C6
:105F4000A1FC23A3D3E9002317F0E8FA32463B462D
:105F500017F098FC0022204B17F0E2FA02460B469D
:105F60004046494617F0B8FD22462B4617F08AFCFA
:105F700022462B4617F0D4FA04460B462046194613
:105F800004B0BDE8F08700BF09F7FD0DE13D023F19
:105F900088B20175E0EF493F3B8F68B52882A43F86
:105FA0005544880E55C1C93F7D6FEB0312D6D43FCF
:105FB000555555555555C53F82922EB1C5B8B33F7D
:105FC00059018D1B6C06E63FC88A599CE52A0040A2
:105FD0004B2D8A1C273A03400000F03F00000000D0
:105FE0002DE9F84F5442144323F00049704E49EA1A
:105FF000D474B44286460F4640D84442044321F04C
:10600000004B4BEAD474B4428A4637D803F140447B
:1060100004F5801414434AD09C1704F0020444EAA7
:10602000D17450EA0B0131D052EA090137D0B145A1
:1060300052D0B34533D0ABEB09094FEA2959B9F136
:106040003C0F3BDC002B66DB7046394617F044FD05
:1060500018F092F9FEF7C8FC012C58D0022C48D059
:10606000002C5ED040A3D3E9002317F057FA40A3D9
:10607000D3E9002317F052FABDE8F88F104619460D
:1060800072463B4617F04CFABDE8F88F022C19D047
:10609000032C10D138A1D1E90001BDE8F88FBAF185
:1060A000000F14DB36A1D1E90001BDE8F88FBDE88F
:1060B000F84FFEF799BC3946BDE8F88F30A1D1E919
:1060C0000001C9E72AA1D1E90001BDE8F88F2EA19E
:1060D000D1E90001BDE8F88FCB4524D0022CF1D0E6
:1060E000032CD7D0012C4FF0000027D00021BDE8B1
:1060F000F88F1DA3D3E9002317F010FA02460B46D0
:106100001BA1D1E9000117F009FABDE8F88F01F1F0
:106110000041BDE8F88F19F13C0F95DA002000210D
:106120009AE7BDE8F88F022C16D0032C0FD0012C73
:1061300008D017A1D1E90001BDE8F88F4FF0004168
:10614000BDE8F88F14A1D1E90001BDE8F88F14A1D2
:10615000D1E90001BDE8F88F13A1D1E90001BDE844
:10616000F88F00BFAFF30080075C143326A6A13C74
:10617000182D4454FB210940182D4454FB2109C01B
:10618000182D4454FB21F93F182D4454FB21F9BF2D
:10619000182D4454FB21E93F182D4454FB21E9BF3D
:1061A000D221337F7CD902C0D221337F7CD90240F7
:1061B0000000F07F0000000043422DE9F047034358
:1061C00021F00048424A48EAD373934206460F46FC
:1061D00016D890454BD03F4B98458A461EDC3AA3D3
:1061E000D3E90023044617F09BF90022002317F09F
:1061F000D9FD002845D03B4620461946BDE8F0872A
:1062000002460B4617F08AF90B46024617F064FC6B
:1062100004460B4620461946BDE8F0872E4B9845AC
:10622000044645462FDD02464346414617F078F9BD
:10623000224606460F4643460020254917F06EF9D0
:1062400002460B463046394617F046FCFEF78CFEF8
:10625000224B002217F016FBBAF1000F04460B4642
:10626000D8DA01F1004320461946BDE8F087002244
:10627000002317F031FC04460B4620461946BDE8C2
:10628000F0873446454622462B462046294617F0DD
:1062900047F922462B4606460F4617F0F3FA2246E8
:1062A000804689462B460020094917F037F90246F7
:1062B0000B464046494617F00FFC32463B4617F066
:1062C0002FF9C3E7AFF300809C7500883CE4377E6C
:1062D0000000F03FFFFF2F3EFFFFDF3F0000E03FE9
:1062E0004F4A2DE9F84321F0004494420B460546FD
:1062F0001BDC4C4A944222DD4B4A944263DD4B4AFC
:1063000094427BDD4A4A944246DD0132944240D0B9
:1063100041A3D3E900231046194617F0B3FA064605
:106320000F4630463946BDE8F88302460B4617F063
:10633000A9FA06460F4630463946BDE8F88318F0FC
:106340001BF802F0A9FC00223A4B8046894617F060
:10635000E7F8B4F1725F06460F46ECDB42464B4667
:106360004046494617F08EFA32463B4604460D46F3
:106370003046394617F0D4F802460B4620462946E7
:1063800017F0AAFB00222B4B17F0CAF806460F465F
:10639000D1E7294A9042BBD82846194617F0ECFFAE
:1063A0000022264B17F06EFA00F04AF8002204464D
:1063B0000D46224B17F066FA22462B4617F062FA7A
:1063C00006460F46B7E717F0D7FF00F039F800226E
:1063D0001A4B06460F4617F055FA32463B4604461E
:1063E0000D460020154917F077FB02460B46204664
:1063F000294617F095F806460F469CE717F0BCFFB4
:1064000000F01EF800220D4B17F03CFA06460F462E
:1064100091E700BFAFF300809C7500883CE4377EB5
:10642000FFFFEF7F422ED63FFFFF3540412E8640D3
:10643000CD3386400000F03F7DF8B98F0000E03F8B
:106440002DE9F04FB04F21F00042BA4283B00C4624
:106450004FEAD17605460DD9AC4FBA4225D9C1F3E2
:106460001303034340F0EF800EB10020014603B058
:10647000BDE8F08FA64B9A4200F2CC80A54B9A4221
:1064800000F2DE808AA3D3E9002317F049F8002246
:10649000A14B17F087FC002800F005812846214613
:1064A00000229D4B17F03CF8E1E783A3D3E90023DA
:1064B00017F078FC002840F0CB802846214680A3C6
:1064C000D3E9002317F050FC0028CED1934B284687
:1064D00003EBC60621467CA3D3E9002317F0D2F9CB
:1064E000D6E9002317F01CF817F07CFC804617F063
:1064F00063F977A3D3E9002306460F4617F0C2F9E4
:1065000002460B462846214617F008F872A3D3E945
:106510000023CDE900013046394617F0B3F9824631
:106520008B4652465B46DDE9000116F0F7FF054653
:106530000C462A4623462846214617F0A3F968A3AD
:10654000D3E9002306460F4617F09CF966A3D3E96A
:10655000002316F0E3FF32463B4617F093F964A39D
:10656000D3E9002316F0DCFF32463B4617F08AF9E8
:1065700061A3D3E9002316F0D1FF32463B4617F062
:1065800081F95FA3D3E9002316F0CAFF32463B46E8
:1065900017F078F902460B462846214616F0BEFF52
:1065A00006460F462846214632463B46B8F1000FC4
:1065B00056D017F067F9324604460D463B46002098
:1065C0004FF0804116F0AAFF02460B4620462946AE
:1065D00017F082FA02460B465046594616F09EFFC7
:1065E000DDE9002316F09AFF0B4602464A490020D7
:1065F00016F094FF6FF47F7398454FDA08F57A78B8
:1066000001EB085100224FF0B87317F03BF903B0CB
:10661000BDE8F08F424B9A423FF658AF414BF40031
:106620002344D3E9002316F079FF3F4BC6F101085C
:106630002344CDE90001D3E900ABA8EB060870E7DD
:106640004FF0000875E702460B4616F069FF0EE7AB
:1066500017A3D3E900231046194617F013F906E7EC
:1066600017F010F90022804689464FF080433046EB
:10667000394616F053FF02460B464046494617F08E
:106680002BFA2A46234616F049FF02460B46002005
:10669000214916F043FF03B0BDE8F08F01EB08512C
:1066A00003B0BDE8F08F804643E700BFAFF3008042
:1066B0009C7500883CE4377EEF39FAFE422E864016
:1066C00051302DD5104987C0FE822B654715F73F05
:1066D0000000E0FE422EE63F763C7935EF39EA3D98
:1066E000D0A4BE726937663EF16BD2C541BDBB3ED8
:1066F0002CDE25AF6A56113F93BDBE166CC1663FB6
:106700003E5555555555C53F412E8640FFFFEF7FFD
:10671000422ED63FFFFF2F3E0000F03F98190200A7
:10672000B1A2F03FA8190200B81902000000000051
:106730002DE9F04FB1F5801F85B006460F460B4698
:106740005ADA024621F00044224300F0F880002982
:10675000C0F27A810022D64B17F094F8D54A0B4646
:10676000934206460F466FF0350C4ADCC3F313051F
:1067700005F5152E0EF6647E0EF4801E8EF07F5207
:1067800082F440121C1542EA0507A4F2FF34644467
:106790000022C94B3046394604EB1E5416F0BEFEAB
:1067A000AB1CC3F31303022B82468B464FF000024F
:1067B00030DC002317F0CEFA002800F0C980002C4E
:1067C00000F04B81204616F0F7FFA5A3D3E9002384
:1067D00006460F4617F056F8A3A3D3E90023044654
:1067E0000D463046394617F04DF802460B46204616
:1067F000294616F095FE0AE0AE4A93424FF0000C8F
:10680000B4DD32463B463046394616F089FE05B0C7
:10681000BDE8F08F4FF0804316F082FE02460B4633
:106820005046594617F058F9064620460F4616F0CE
:10683000C3FF3246CDE900013B4630463946CDE93B
:10684000026717F01FF802460B468046894617F08C
:1068500019F887A3D3E9002306460F4617F012F86C
:1068600085A3D3E9002316F05BFE32463B4617F0C2
:1068700009F883A3D3E9002316F052FE32463B46C3
:1068800017F000F880A3D3E9002316F049FE424632
:106890004B4616F0F7FF7EA3D3E9002380468946D6
:1068A0003046394616F0EEFF7BA3D3E9002316F0FD
:1068B00037FE32463B4616F0E5FF79A3D3E90023C5
:1068C00016F02EFE32463B4616F0DCFF0B46024623
:1068D0004946404616F024FEA5F5C223C5F5D72546
:1068E000A3F27A4351351D43002D8046894656DD7B
:1068F0000022724B5046594616F0C4FF52465B4682
:1069000016F0C0FF06460F46002C68D132463B46C3
:106910004046494616F004FEDDE9022316F0B2FFB8
:1069200002460B463046394616F0F8FD02460B4645
:106930005046594616F0F2FD05B0BDE8F08F002232
:10694000002300205E4917F0C7F805B0BDE8F08FBE
:1069500055A3D3E900235046594616F093FF02464B
:106960000B460020554916F0D9FD524606460F4603
:106970005B465046594616F085FF02460B463046A8
:10698000394616F07FFF06460F46002C40F09A80ED
:1069900002460B465046594616F0C0FD37E7002C1C
:1069A00000F0A4802EA3D3E90023DDE9000116F056
:1069B00069FF42464B4604460D465046594616F07E
:1069C000ADFDDDE9022316F05DFF27A3D3E9002327
:1069D00006460F46DDE9000116F054FF21E020A332
:1069E000D3E90023DDE9000116F04CFF32463B46B7
:1069F00004460D464046494616F092FDDDE9022365
:106A000016F040FF18A3D3E9002380468946DDE94C
:106A1000000116F037FF02460B464046494616F085
:106A20007FFD02460B463046394616F077FD52464A
:106A30005B4616F073FD02460B462046294616F0CB
:106A40006DFD05B0BDE8F08F02460B4616F066FD01
:106A50000022002317F040F8D9E600200021D6E6F6
:106A60000000E0FE422EE63F763C7935EF39EA3D04
:106A700044523EDF12F1C23FDE03CB966446C73F6D
:106A8000599322942449D23F935555555555E53F86
:106A90009FC678D0099AC33FAF788E1DC571CC3F91
:106AA00004FA97999999D93F555555555555D53F5C
:106AB00000005043FFFFEF7F0000F03F0000E03F89
:106AC000000050C3204616F077FE0FA3D3E9002341
:106AD0008046894616F0D6FE0DA3D3E9002304466E
:106AE0000D464046494616F0CDFE9AE702460B4653
:106AF0005046594616F012FDDDE9022316F0C2FE9B
:106B000014E700BFAFF300800000E0FE422EE63F36
:106B1000763C7935EF39EA3DB1F5801F2DE9F84330
:106B200004460D460B461ADA024621F0004632436F
:106B300059D000295FDB00223B4B16F0A3FE3B4AF5
:106B40000B4693420D4604466FF035010CDD22469C
:106B50002B462046294616F0E3FCBDE8F883334A6D
:106B600093424FF00001F2DC1815A0F2FF30084408
:106B70004FEAD0794844C3F3130816F01DFEC9F557
:106B80007F73033348EA035506460F4620462946DD
:106B9000FFF7CEFD1EA3D3E9002380468946304689
:106BA000394616F06FFE1CA3D3E9002304460D46B8
:106BB0004046494616F066FE02460B4620462946E8
:106BC00016F0AEFC16A3D3E9002304460D4630466A
:106BD000394616F057FE02460B462046294616F067
:106BE0009FFCBDE8F883002200230020104916F026
:106BF00073FFBDE8F88302460B4616F08FFC0022B7
:106C0000002316F069FFBDE8F88300BFAFF30080F2
:106C1000362BF111F3FE593D0EE526157BCBDB3FFC
:106C200000609F501344D33F00005043FFFFEF7FAD
:106C3000000050C3000000002DE9F04F23F0004792
:106C400057EA020493B037D0674C21F00046A642C1
:106C500083460D4629DC9A46964625D0A74224DC79
:106C6000614CA74279D0002D89468046CDE90023AA
:106C700077DB0024BEF1000F2CD15B4B9F4200F06C
:106C80008B805A4B9F4261D0BAF1804F00F0BA839B
:106C9000574B9A451ED1002D1CDB4046494613B088
:106CA000BDE8F04F18F0FABB58B106F1404606F5C2
:106CB000801656EA0B0306D14C49002013B0BDE8FC
:106CC000F08FB742CCDD4B4813B0BDE8F04F19F060
:106CD0006FBC00244046494617F04EFBBBF1000F45
:106CE00019D126B1414B25F040429A4213D1BAF155
:106CF000000FC0F2BC83002DE0DA06F1404606F535
:106D0000801656EA040300F08F84012CD6D101F1DD
:106D100000431946D2E7ED0F013D54EA05034ED07A
:106D2000354B9F426EDD03F104739F4240F3E883CD
:106D3000324B9E424EDDBAF1000F4EDD28A3D3E95F
:106D400000231046194616F09DFDB7E7BAF1000F73
:106D5000C0F23C8440464946B0E7BEF1000F82D005
:106D6000A3E7274B9F4228DCA3F154739F4280DDA9
:106D70003B15A3F2FF33142B40F33E84C3F13403DD
:106D80002EFA03F202FA03F39E457FF472AF02F08B
:106D90000102C2F102046DE706F1404303F58013DE
:106DA00053EA0B0388D0154B9E4240F33283BAF16D
:106DB000000F12DBDDE9000180E702245AE74246BA
:106DC0004B464046494616F0A9FB02460B4616F0D4
:106DD00083FE73E7BAF1000FB0DB002000216DE7FE
:106DE0009C7500883CE4377E0000F07F0000F03F97
:106DF0000000E03FC82202000000E041FFFFEF3F3B
:106E0000FFFF3F43B6F5801F4FF0000205DAD44B79
:106E100016F038FD6FF034020E463315D14FC6F32D
:106E20001306A3F2FF33134446F07F5ABE421A46BC
:106E30000D934AF4401A40F32183CB4B9E4240F31A
:106E4000FD83134601330D93C84B0022CDE9062381
:106E500000270026CDE90867CDE90E67AAF5801A5C
:106E60000027024653465146CDE90A23DDE90623B1
:106E700016F054FBDDE9062380468946DDE90A0168
:106E800016F04EFB02460B460020B84916F024FED1
:106E90000A460146CDE910121346494602464046CD
:106EA00016F0F0FC4FEA6A0343F000538C46834629
:106EB00003F50023CDE904BCDA468B46D91900233B
:106EC000CDE902AB0293DDE902AB002006460F4696
:106ED00002460B465046594616F0D4FC02460B4675
:106EE0004046494616F01AFBDDE9062380468946EE
:106EF0003046394616F012FB02460B46DDE90A0120
:106F000016F00CFB52465B4616F0BCFC02460B46E4
:106F10004046494616F002FBDDE9102316F0B2FCAC
:106F2000DDE90467CDE9060132463B463046394685
:106F300016F0A8FC78A3D3E9002306460F4616F006
:106F4000A1FC77A3D3E9002316F0EAFA32463B46C8
:106F500016F098FC74A3D3E9002316F0E1FA324648
:106F60003B4616F08FFC72A3D3E9002316F0D8FA43
:106F700032463B4616F086FC6FA3D3E9002316F099
:106F8000CFFA32463B4616F07DFC6DA3D3E90023D1
:106F900016F0C6FA3246804689463B4630463946A8
:106FA00016F070FC02460B464046494616F06AFC55
:106FB000524606460F465B46DDE9040116F0B0FA7C
:106FC000DDE9062316F05EFC32463B4616F0A8FAD1
:106FD0005246804689465B465046594616F052FC5A
:106FE0000022634BCDE90A0116F09AFA42464B465D
:106FF00016F096FA02980F46064632463B46504631
:10700000594616F03FFC002282468B46584B3046CC
:10701000394616F083FADDE90A2316F07FFA0246B4
:107020000B464046494616F079FADDE9042316F08E
:1070300029FC3246804689463B46DDE9060116F0CA
:1070400021FC02460B464046494616F069FA804646
:10705000894602460B4650465946CDE904AB16F028
:107060005FFADDE902AB38A3D3E9002350460F46AF
:1070700016F008FCDDE90423CDE90201394650464B
:1070800016F04CFA02460B464046494616F046FAC0
:107090002FA3D3E9002316F0F5FB2FA3D3E9002398
:1070A000804689465046394616F0ECFB02460B46B0
:1070B0004046494616F034FADDE90E2316F030FA60
:1070C00080460D98894616F077FB424606460F46E5
:1070D0004B46DDE9020116F023FADDE9082316F03C
:1070E0001FFA32463B4616F01BFA32463B465046E4
:1070F0008B4616F013FADDE9082316F00FFADDE9E6
:10710000022316F00BFA02460B464046494616F09B
:1071100005FA80462EE000BFEF4E454A287ECA3F62
:1071200065DBC9934A86CD3F01411DA96074D13FFB
:107130004D268F515555D53FFFAB6FDBB66DDB3F0D
:10714000033333333333E33F000000E009C7EE3F3E
:10715000FD033ADC09C7EE3FF5015B14E02F3EBEAC
:10716000000040438E98030079B60B000000F03F0A
:10717000000008408946013C54EA0503DDE90001AE
:1071800014BFD94CD94C0023CDE9043403460C4636
:10719000CDE9023400230293DDE9024522462B4665
:1071A00016F0BCF952465B4616F06CFBDDE9002395
:1071B00006460F464046494616F064FB02460B461B
:1071C0003046394616F0ACF92246804689462B46B1
:1071D00050465946CDE9008916F054FB0B4602464D
:1071E00006460F464046494616F09AF9C04B99426A
:1071F00004460D468A4640F3168101F13F4303F5EC
:10720000E003034340F0EA81A3A3D3E90023DDE9CF
:10721000000116F085F93246804689463B462046F5
:10722000294616F07BF902460B464046494616F0C1
:10723000B9FD002840F0D281A8464FEA28534FF408
:107240008012A3F2FE3342FA03F35344C3F30A520B
:10725000A84DA2F2FF321541C3F3130423EA05013E
:107260000020C2F1140B44F48014BAF1000F02465E
:107270000B4644FA0BFB30463946B8BFCBF1000B46
:1072800016F04CF902460B4606460F46DDE90001B2
:1072900016F046F94FEA0B5A0D46002480A3D3E9B5
:1072A00000232046294616F0EDFA324680468946EC
:1072B0003B462046294616F031F902460B46DDE9E9
:1072C000000116F02BF978A3D3E9002316F0DAFABF
:1072D00077A3D3E9002306460F462046294616F039
:1072E000D1FA02460B463046394616F019F90646E1
:1072F0000F4602460B464046494616F011F94246F3
:107300004B4604460D4616F009F902460B46304638
:10731000394616F003F92246804689462B46204618
:10732000294616F0AFFA64A3D3E9002306460F46B8
:1073300016F0A8FA62A3D3E9002316F0EFF832465C
:107340003B4616F09FFA60A3D3E9002316F0E8F855
:1073500032463B4616F096FA5DA3D3E9002316F0B9
:10736000DDF832463B4616F08DFA5BA3D3E90023E5
:1073700016F0D6F832463B4616F084FA02460B4623
:107380002046294616F0CAF806460F4602460B4626
:107390002046294616F076FA0022CDE900014FF08A
:1073A00080433046394616F0B9F802460B46DDE90F
:1073B000000116F091FB424606460F464B4620461A
:1073C000294616F05FFA42464B4616F0A9F80246E7
:1073D0000B463046394616F0A1F822462B4616F0E9
:1073E0009DF802460B4600203F4916F097F88A4464
:1073F000BAF5801FC0F233815146DDE9042316F04F
:1074000041FA5BE4424640464B46494616F03AFA9A
:1074100054E4BAF1000FBFF6E0ACDDE900341846E1
:1074200004F100414AE4344B21F00048984540F310
:10743000F280324B0B4403430CD132463B4616F0EC
:107440006DF802460B46DDE9000116F097FC0028B6
:107450003FF4F3AEDDE9040121A3D3E9002316F0E4
:1074600011FA1FA3D3E9002316F00CFA26E4024612
:107470000B4600201C4916F02FFB3CE400220023A1
:10748000CDE90823CDE90E23174B00220027CDE9D3
:107490000623E6E4AFF30080FE822B654715973C98
:1074A00000000000432EE63FEF39FAFE422EE63F91
:1074B000396CA80C615C20BED0A4BE726937663EF0
:1074C000F16BD2C541BDBB3E2CDE25AF6A56113FE4
:1074D00093BDBE166CC1663F3E5555555555C53FCB
:1074E00059F3F8C21F6EA5010000F03F0000F0BF85
:1074F000FFFF8F40FFFF0F00FFCB904000346F3F36
:107500006B4B9E427FF766AC6A4B9E423FF713ACD3
:107510000022684B16F002F857A3D3E90023064671
:107520000F4616F0AFF956A3D3E9002380468946EB
:107530003046394616F0A6F9002282468B465E4B4D
:107540003046394616F09EF902460B464EA1D1E967
:10755000000115F0E3FF32463B4616F093F9024670
:107560000B460020554915F0D9FF3246CDE90201FE
:107570003B463046394616F085F902460B46DDE9B2
:10758000020116F07FF942A3D3E9002316F07AF93D
:1075900002460B465046594615F0C0FF02460B46C0
:1075A00006460F464046494615F0BAFF42464B464E
:1075B000002082468B4615F0B1FF02460B4630464E
:1075C000394615F0ABFF80468946D4E542464B4626
:1075D0000020384916F080FAFFF770BBDDE904019E
:1075E0002DA3D3E9002316F04DF92BA3D3E90023F3
:1075F00016F048F9FFF762BBBEF1000F7FF469ABEC
:10760000C3F1140347FA03F202FA03F39F422AD0AC
:107610007446FFF736BB294B98453FF70EAEDDE9C0
:1076200002239246934638E602460B4615F076FF53
:1076300002460B4616F050FAFFF740BB18A3D3E9F9
:107640000023CDE9082318A3D3E90023CDE90E23B5
:107650001B4B00224FF48027CDE9062301E45A4654
:1076600001F05AFDC9E602F00102C2F10204FFF77F
:1076700008BB00BFAFF30080000000604715F73F74
:1076800044DF5DF80BAE543E555555555555D53F25
:10769000FE822B654715F73F9C7500883CE4377EDA
:1076A0000000004003B8E23F06D0CF43EBFD4C3E64
:1076B000FEFFEF3F0000F03F0000D03F0000E03F42
:1076C0000000F83F000000002DE9F04F9A4E21F035
:1076D0000047B74291B040F38E809246974A974256
:1076E0000C4626DC00298AA3D3E9002340F3B481A9
:1076F00015F014FF924B9F4204460D4600F0908017
:1077000085A3D3E9002315F009FF02460B46CAE919
:1077100000232046294615F001FF7FA3D3E900236B
:1077200015F0FCFE0125CAE90201284611B0BDE8AA
:10773000F08F844A974240F39080834A974265DCF9
:107740003D15A5F21645A7EB055319461F460646FB
:1077500016F048FB16F030F88046894602460B4684
:1077600030463946CDE90A8915F0D8FE0022774B1C
:1077700016F088F88946804616F034FB16F01CF89F
:1077800002460B4606460F4640464946CDE90C6781
:1077900015F0C4FE00226D4B16F074F80022002391
:1077A000CDE90E0116F0D6FA002800F0738100230F
:1077B00030463946002216F0CDFA002814BF0123C6
:1077C0000223634A019202212A4600910AA85146E7
:1077D00000F086FB002C054614DADAF80420DAF80B
:1077E0000C3002F1004203F100434542CAF8042084
:1077F000CAF80C3006E0C2E9000100250024C2E905
:1078000002450025284611B0BDE8F08F02460B4620
:1078100015F084FE0025CAE90201CAE90001F1E77A
:107820003FA3D3E9002315F079FE3FA3D3E900235A
:107830000D46044615F072FE02460B46CAE90023C7
:107840002946204615F06AFE37A3D3E9002315F038
:1078500065FE0125CAE90201D4E716F08DFD34A3C7
:10786000D3E900238046894616F00CF80022394BF4
:1078700015F056FE16F0B6FA054615F09DFF24A346
:10788000D3E90023CDE9040115F0FCFF02460B46C5
:107890004046494615F042FE1FA3D3E90023804627
:1078A0008946DDE9040115F0EDFF1F2DCDE9020148
:1078B00054DC294B6A1E53F822309F424ED00246B8
:1078C0000B464046494615F029FE02460B46CAE9DA
:1078D000002383460E465A4633464046494615F035
:1078E0001DFEDDE9022315F019FE002C02460B46B1
:1078F000CAE9022386DA5B4606F1004601F100413F
:107900008AE84800CAF80C10CAF808006D4279E706
:1079100000004054FB21F93F3163621A61B4D03D4D
:107920000000601A61B4D03D7370032E8A19A33B26
:1079300083C8C96D305FE43FFB21E93F7BD902403A
:10794000FB21F93FFB213941FFFFEF7F0000704130
:107950008C3102000000E03F0C310200DDE902231F
:107960004046494615F0DAFD3A15C1F30A53D31AD9
:10797000102B83460E460992CAE90001ABDD58A3DD
:10798000D3E90023DDE9040115F07CFF06460F462C
:1079900002460B464046494615F0C0FDCDE90601BA
:1079A00002460B464046494615F0B8FD32463B4676
:1079B00015F0B4FD4CA3D3E9002306460F46DDE9DC
:1079C000040115F05FFF32463B4615F0A7FDDDE9E7
:1079D0000689CDE9020102460B464046494615F0AC
:1079E0009DFD0B46C1F30A570E460999CF1B02466F
:1079F000312F8346CAE900236CDD3DA3D3E9002380
:107A0000DDE9040115F03EFF06460F4602460B462F
:107A100040464946CDE9068915F080FD02460B46F1
:107A200080468946DDE9060115F078FD32463B4681
:107A300015F074FD30A3D3E9002306460F46DDE9B7
:107A4000040115F01FFF32463B4615F067FD024664
:107A50000B46CDE9022334E715F062FD2A4B9F4225
:107A600004460D4618D026A3D3E9002315F058FD8F
:107A700002460B46CAE900232946204615F04EFD72
:107A80001FA3D3E9002315F04BFD4FF0FF35CAE9E2
:107A90000201B7E6032394E611A3D3E9002315F00E
:107AA0003FFD11A3D3E900230D46044615F038FD30
:107AB00002460B46CAE900232946204615F02EFD52
:107AC00009A3D3E9002315F02BFD4FF0FF35CAE9D8
:107AD000020197E6DDE90689FDE600BFAFF300800D
:107AE0000000601A61B4D03D7370032E8A19A33B65
:107AF0000000002E8A19A33BC14920259A837B39B7
:107B00003163621A61B4D03DFB21F93F00000000EF
:107B1000574A2DE9F84F21F0004890450E46074698
:107B20002BDC544B0029B4BF534D544D98454FF0B6
:107B3000000410DC524B98456EDC4BA3D3E90023C4
:107B400015F0EEFC00224F4B16F02CF9D8B1384658
:107B50003146BDE8F88F4C4B984579DD4B4B984545
:107B600043DD013398453DD0384631463EA3D3E945
:107B7000002315F087FEBDE8F88F02460B4615F08E
:107B8000CFFCBDE8F88F3846314616F0F5FB01F022
:107B900083F806460F4632463B463046394615F0D6
:107BA000BFFC324682468B463B463046394615F08E
:107BB00069FE002280468946324B3046394615F030
:107BC000AFFC02460B464046494615F085FF02468B
:107BD0000B465046594615F0A1FC22462B4615F09F
:107BE00051FECEE72A4B9842BED83846314616F0B1
:107BF000C3FB0022214B15F045FEFEF721FC064693
:107C00000F4602460B462046294615F03BFE3246FB
:107C10003B4615F037FEB4E716F0AEFB01F03CF83A
:107C20001C4B984506460F46B5DD0022154B15F056
:107C300077FC02460B463046394615F04DFF32467A
:107C40003B4615F06DFC22462B4615F01BFE98E7CF
:107C500016F092FBFEF7F4FB02460B46204629463F
:107C600015F010FE8DE700BF3374AC3C1F7BAC7F7A
:107C7000FFFFEF7FFFFF35400000E0BF0000E03F67
:107C8000FFFF2F3E0000F03F412E8640CD3386405F
:107C90007DF8B98FFFFFEF3F2DE9F04F21F000464F
:107CA000B6F1795F85B00C4692469B4605466BDA85
:107CB00016F098F8002800F0E8802A462346284667
:107CC000214615F0DFFD74A3D3E9002380468946E1
:107CD00015F0D8FD72A3D3E9002315F021FC42462C
:107CE0004B4615F0CFFD70A3D3E9002315F016FC29
:107CF00042464B4615F0C6FD6DA3D3E9002315F0AF
:107D00000FFC42464B4615F0BDFD6BA3D3E90023A3
:107D100015F004FC42464B4615F0B4FD68A3D3E9C8
:107D2000002315F0FDFB42464B4615F0ABFDCDE9B7
:107D300000010022644B4046494615F0A3FDDDE9F1
:107D4000002306460F464046494615F09BFD524625
:107D5000804689465B462846214615F093FD02463B
:107D60000B464046494615F0D9FB02460B463046C5
:107D7000394615F0D3FB02460B460020534915F057
:107D8000CDFB05B0BDE8F08F02460B4615F07AFD3D
:107D900041A3D3E900238046894615F073FD40A333
:107DA000D3E9002315F0BCFB42464B4615F06AFDB3
:107DB0003DA3D3E9002315F0B1FB42464B4615F035
:107DC00061FD3BA3D3E9002315F0AAFB42464B46D5
:107DD00015F058FD38A3D3E9002315F09FFB424668
:107DE0004B4615F04FFD36A3D3E9002315F098FB61
:107DF0004B46424615F046FD354B9E42CDE900010B
:107E000097DD344B9E424FF0000238DCA6F500139C
:107E100000202E4916461F4615F080FBCDE90201D1
:107E20000022294B4046494615F02CFD32463B4680
:107E300015F074FBDDE9002306460F46404649462F
:107E400015F020FD5246804689465B46284621466D
:107E500015F018FD02460B464046494615F05EFBFC
:107E600002460B463046394615F058FB02460B4693
:107E7000DDE9020115F052FB05B0BDE8F08F164BAD
:107E8000164FCDE902230026CAE71049002005B0AD
:107E9000BDE8F08FAFF30080D43888BEE9FAA8BD02
:107EA000C4B1B4BD9EEE213EAD529C804F7E923E49
:107EB0009015CB19A001FA3E7751C1166CC1563FFF
:107EC0004C5555555555A53F0000E03F0000F03F8B
:107ED0003233D33F0000E93F0000E73F0000D23FCC
:107EE0002DE9F04FADF5197D9C4CA29E9C4D54F8A8
:107EF000264005942646D41E85FB0475E417C4EB82
:107F0000A50424EAE4741D460893631CA3EB8303D1
:107F1000013D02EBC30304932B4609940295651BB4
:107F2000F418039006911AD42C4401340DF178080A
:107F300000260027DDF88C9208E059F8250015F09E
:107F40003BFC0135A542E8E9020108D0002DF4DA36
:107F5000013530463946A542E8E90201F6D1059BD4
:107F6000002B2EDB089B4FEAC309039BA9F10808ED
:107F7000984420AB9944059B70AA02EBC30B0DF506
:107F8000DC7A029B002BC0F20F83039B4D46A3F1CA
:107F900008040026002775E90223F4E9020115F020
:107FA00071FC02460B463046394615F0B9FA444595
:107FB00006460F46EFD1EAE90267DA4509F10809FA
:107FC000DFD10598089A009000F18043013B9B00A7
:107FD0000CAC191F234402F100520B93039B013A8E
:107FE00021440A9103EBC20B009A98A901EBC2034A
:107FF000002A53E9284513462BDD01EBC308A8F1FD
:10800000A8080DF12C090DF5DC7A0022554B20460D
:10801000294615F037FC15F0E5FE15F0CDFB0022E2
:10802000514B06460F4615F02DFC02460B462046E6
:10803000294615F073FA15F0D5FE78E8022349F8C1
:10804000040F3946304615F06BFAD04504460D460C
:10805000DBD1DDF81090204629464A4601F05CF855
:1080600000224FF07F5304460D4615F00BFCFCF741
:10807000EFFE00223D4B15F005FC02460B46204664
:10808000294615F04BFA0D46044615F0ABFE804626
:1080900015F092FB0B4602462946204615F03EFAA3
:1080A0004B46002B06460F4640F3F780009A0CA97A
:1080B000013AC9F1180351F8225045FA03F101FAC7
:1080C00003F30CA8EB1A40F82230C9F117058844D5
:1080D00043FA05F5002D63DD009B002B08F1010834
:1080E00040F381820C9C002C00F0188301200023B7
:1080F0000CAAC4F1807442F82340009A824219DD30
:108100000CAA0CAC52F820106FF07F42511A44F8C0
:1081100020100099023399420CDD1046009A0CA9F8
:1081200001EB830301EB82011A68821A43F8042BE6
:108130008B42F9D1049B002B1ADD049B012B4FF0DD
:10814000010440F05882009B5A1E0CAB0CA953F856
:108150002230C3F3160341F8223058E22C360200D5
:10816000ABAAAA2A0000703E000070410000204027
:10817000022D15D132463B460020974915F0CEF925
:1081800006460F46049A9449002000F0C5FF0246B7
:108190000B463046394615F0C1F9022506460F4612
:1081A000002200233046394615F0D4FD002800F0A7
:1081B0005282009A059B501E83420FDC02F18043DD
:1081C000013B0CAA0B9C02EB8303002253F8041919
:1081D000A34242EA0102F9D1002A6FD1059B0CAA01
:1081E000013B52F82330002B40F033820A9A0123DE
:1081F00052F8041901330029FAD0009AD31802F179
:10820000010A9A4507933DDC009B0899099A0B44A3
:1082100007990AEB0208994620AB08F1804803EB66
:10822000C9098B18A39A08F1FF3802EB880870AAD5
:1082300002EBCA0AA39A02EB8303009358F8040FD7
:1082400015F0BAFA029B002BE9E802011DDB039B43
:108250004D46A3F108040026002775E90223F4E93E
:10826000020115F00FFB02460B463046394615F069
:1082700057F95C4506460F46EFD1009B9845EAE862
:108280000267DBD1079B0093AEE6009B0026002728
:108290009845EAE80267D1D1F4E706D1009B0CAA21
:1082A000013B52F82350ED1514E700224B4B15F01B
:1082B0006FFD002840F08281054671E70CA9029508
:1082C00051F820300499CDF81C80183902460090EE
:1082D00004916BB900F18043013B0CA800EB8303D0
:1082E00053F80409013A18390028F9D00092049192
:1082F000049A3949002000F00FFF009B002B044630
:108300000D46C0F20382DA0070A901EB020B049261
:108310000CAA02EB8306DFF8C8900BF108070436BD
:108320004FF0000856F8040D15F046FA22462B4689
:1083300015F0A8FA4B4667E9020142462046294655
:1083400015F0A0FA0CAB9E4204460D46EAD10DF59D
:10835000907ACDF80CA0DDF814A04FF00009BAF126
:10836000000FC0F23D81DFF87C805D4618A1D1E9A5
:10837000000100260027002403E04C4510DCF8E84B
:108380000201F5E8022315F07DFA02460B4630465D
:10839000394615F0C5F80134A24506460F46ECDA19
:1083A000039B03EBC903ABF1080BC3E900676EAB9A
:1083B0005B4509F10109D2D1A29BDDF80CA0032B8A
:1083C00000F28B80DFE813F0D100900090001000E5
:1083D00000000040FB21F93F0000F03F0000E03FBB
:1083E0000000703EE0190200009B002B40F3A481C6
:1083F000049B0AEB0308D8E90067D34658E9029AC0
:1084000032463B464846514615F08AF804460D462A
:1084100002460B464846514615F080F832463B4628
:1084200015F07EF8C8E9000168E90245C345264613
:108430002F46E3D1009B012BDA4640F37D81049B5C
:108440005B44D3E90067984699460DF5947B59E95A
:1084500002343246184621463B46CDE9000115F06C
:108460005FF804460D4602460B46DDE9000115F0B3
:1084700055F832463B4615F053F8C9E9000169E961
:108480000245CB4526462F46E1D1002308F10808D6
:108490001D464CAC1846294678E9022315F040F8F1
:1084A000444503460D46F5D1029A002A00F020818A
:1084B000DAF80440DAF80C20069FDAF80010DAF84F
:1084C00008003B6105F1004504F1004402F100425F
:1084D0007D617C60FA603960B860079B03F007003B
:1084E0000DF5197DBDE8F08F049C00260834544436
:1084F00033463046194674E9022315F011F8544505
:1085000006460B46F5D1029A30461946002A00F07D
:10851000DA80069803F10044324644600660DAE9E6
:10852000000114F0FBFF0B460099002902460EDD06
:10853000012410461946FAE9022314F0F1FF0B4614
:1085400000990134A1420246F3DA029909B103F11C
:1085500000431946069B1046C3E90201079B03F03E
:1085600007000DF5197DBDE8F08F049C002208344A
:10857000544413461046194674E9022314F0D0FF00
:10858000A24502460B46F5D1029909B103F1004319
:108590001946069B1046C3E90001079B03F007003C
:1085A0000DF5197DBDE8F08F00260027EAE9026786
:1085B000DA4509F108097FF4E4AC02E5009B002BE1
:1085C00008F10108C8BF02253FF78CAD32463B4693
:1085D0000020634914F0A2FF022506460F46DFE59E
:1085E00000260027DCE6049B002B26DD0024049BEC
:1085F000012B3FF4A8AD022B09D1009B5A1E0CABF6
:108600000CA953F82230C3F3150341F82230022D90
:108610007FF4C6AD32463B460020514914F07EFF40
:1086200006460F46002C3FF4BBADABE50099013385
:10863000994278D1049B002BD9DC022D7FF4B0AD98
:1086400032463B460020464914F068FF06460F4676
:10865000A6E50123D1E53946049F02957A423046CA
:10866000CDF81C8000F058FD00223E4B04460D461C
:1086700015F08EFB002862D000223B4B2046294695
:1086800015F000F915F0AEFB064615F095F800223E
:10869000344B15F0F7F802460B462046294614F0F5
:1086A0003DFF15F09FFB00990B4601331A460093DE
:1086B0003B46183304930B460CA941F8230013469C
:1086C00041F8236014E6069B3246C3E900010B46DD
:1086D000DAE9000114F022FF0B4600990029024656
:1086E0003FF726AF1946069B1046C3E9020135E75E
:1086F00018462946DAE90023DAE90245069FC7E968
:108700000401C7E90023C7E90245E6E6A29B032B63
:108710003FF6E3AEDFE803F0211C1C0E009B012BAB
:1087200088DD0CAA012352F8044F002C3FF47EAFE1
:10873000581CDDE40DF5907A00231D46B4E6294669
:10874000204615F04FFB009A0CA941F82200CFE516
:10875000002633460DF5907AD5E60022134613E73E
:108760000000F03F000070410000703E000000007B
:108770002DE9F04F21F00046B6F1795F85B00C4647
:1087800090469946054604DA15F02CFB002800F0C7
:1087900085802A4623462846214615F073F806466A
:1087A0000F4602460B462846214615F06BF83EA3BD
:1087B000D3E9002382468B463046394615F062F8ED
:1087C0003BA3D3E9002314F0A9FE32463B4615F043
:1087D00059F839A3D3E9002314F0A2FE32463B46F0
:1087E00015F050F836A3D3E9002314F097FE324673
:1087F0003B4615F047F834A3D3E9002314F090FE6C
:108800000E9BCDE900019BB30022334B4046494605
:1088100015F038F8DDE90023CDE90201504659464C
:1088200015F030F802460B46DDE9020114F076FE41
:1088300032463B4615F026F842464B4614F06EFE93
:1088400023A3D3E9002306460F465046594615F0A8
:1088500019F802460B463046394614F061FE0246CE
:108860000B462846214614F059FE05B0BDE8F08FAE
:1088700002460B463046394615F004F814A3D3E9F6
:10888000002314F04BFE52465B4614F0FBFF2A46D1
:10889000234614F045FE05B0BDE8F08F284621467A
:1088A00005B0BDE8F08F00BF7CD5CF5A3AD9E53D81
:1088B000EB9C2B8AE6E55A3E7DFEB157E31DC73E91
:1088C000D561C119A0012A3FA6F810111111813FED
:1088D000495555555555C53F0000E03F0000000083
:1088E0002DE9F04FDA4C21F00046A64287B08A46C7
:1088F00089461746984683461ADC15F073FAA8BBDA
:108900005B461E43109B0133334300F0A981109B4B
:10891000012B00F0B9815A4653460020CD4915F08D
:10892000DBF804460D462046294607B0BDE8F08F27
:10893000C94B9E421ADD0029C0F29F815A46534618
:10894000A5A1D1E9000114F0E9FD3A4643460446E9
:108950000D46A3A1D1E9000114F0E0FD22462B460B
:1089600014F0DEFD002783468A46B8465A46534631
:108970005846514614F086FF03460C46CDE90034B4
:1089800002460B4614F07EFFDDE9002304460D4647
:108990005846514614F076FF93A3D3E90023CDE95E
:1089A00002012046294614F06DFF91A3D3E900236C
:1089B00014F0B6FD22462B4614F064FF8EA3D3E9D3
:1089C000002314F0ADFD22462B4614F05BFF8CA370
:1089D000D3E9002314F0A4FD22462B4614F052FFE5
:1089E00089A3D3E9002314F09BFD22462B4614F003
:1089F00049FF87A3D3E9002314F092FDDDE90023AA
:108A000014F040FF84A3D3E90023CDE904012046FC
:108A1000294614F037FF82A3D3E9002314F080FD28
:108A200022462B4614F02EFF7FA3D3E9002314F037
:108A300077FD22462B4614F025FF7DA3D3E90023C2
:108A400014F06EFD22462B4614F01CFF7AA3D3E9E6
:108A5000002314F065FD22462B4614F013FF78A383
:108A6000D3E9002314F05CFD02460B46DDE9040166
:108A700014F056FDDDE9022314F004FF3A464346A4
:108A800014F04EFDDDE9002314F0FCFE02460B4617
:108A90003846414614F044FD6BA3D3E90023044655
:108AA0000D46DDE9020114F0EDFE22462B4614F0DE
:108AB00037FD0B46024651465846CDE9002314F0D7
:108AC0002FFD654B9E4204460D463EDC109B012B5C
:108AD00036D002460B4600205E4914F0FDFF00240C
:108AE0000F4606465A4653462046294614F016FDC0
:108AF000A04602460B46DDE9000114F00FFD424698
:108B00003B4614F0BFFEA94604460D4642463B468E
:108B10004046494614F0B6FE0022504B14F000FDCA
:108B200002460B462046294614F0FAFC32463B46E4
:108B300014F0A8FE42463B4614F0F2FC04460D46F3
:108B40002046294607B0BDE8F08F109814F034FE97
:108B5000224606460F462B462046294614F092FE32
:108B60003246CDE902013B462046294614F0D8FCA6
:108B700002460B46DDE9020114F0AEFFDDE90023F9
:108B800014F0CCFC02460B465846514614F0C6FC85
:108B900002460B4614F0C4FC02460B4630463946EA
:108BA00014F0BCFC04464FEAA97000F00200C0F1CA
:108BB00001000D4614F000FE02460B4620462946F1
:108BC00014F060FE04460D462046294607B0BDE875
:108BD000F08F00BFAFF30080182D4454FB21E93F14
:108BE000075C143326A6813CD47ABF74702AFB3EFE
:108BF000E9A7F0320FB8123F68108D1AF726303F00
:108C00001583E0FEC8DB573F93846EE9E326823F7D
:108C1000FE41B31BBAA1AB3F735360DBCB75F3BE10
:108C2000A69237A0887E143F0165F2F2D844433FF4
:108C3000280356C9226D6D3F37D60684F464963FEB
:108C40007AFE10111111C13F635555555555D53F49
:108C5000FFFF2F3E0000F0BF2794E53F0000F03FEC
:108C60005846514615F088FB02460B46002008493D
:108C700014F032FF04460D4662E701F1004308F1AB
:108C8000004883469A4659E65C46554658E700BF79
:108C90000000F03F000000002DE9F04FD24A21F023
:108CA0000043934285B00C460E4605462DD9CF4A67
:108CB00093421AD8002E80F21681B5A3D3E900237F
:108CC0002846214614F02CFC0022002315F04CF815
:108CD000C0B9B1A3D3E900232846214614F0D2FD40
:108CE00002460B460020C24908E1C24A934240F2C4
:108CF000D0800346C1F31302134340F0F6810029EC
:108D000080F2C4800020BC49C0E0BC4A934200F21B
:108D10002981BB4A934240F2DE8000230193002266
:108D2000B84B2846214614F0ADFD06460F460246D4
:108D30000B462846214614F0A5FD99A3D3E900234C
:108D400082468B4614F09EFD97A3D3E9002314F0CE
:108D5000E7FB52465B4614F095FD95A3D3E900234B
:108D600014F0DCFB52465B4614F08CFD92A3D3E971
:108D7000002314F0D5FB52465B4614F083FD90A30C
:108D8000D3E9002314F0CAFB52465B4614F07AFD87
:108D900000229D4B14F0C4FB8046894602460B46D8
:108DA0003046394614F06EFD02460B4600209749C6
:108DB00014F0B4FB064602460B460F4640464946B1
:108DC00014F0ACFB3246804689463B462846214695
:108DD00014F058FD02460B4600208D4914F09EFB0E
:108DE00002460B464046494614F076FE52465B4624
:108DF00014F048FD019E02460B46002E38D0DDE9F6
:108E0000026732463B4614F089FB2A46234614F09B
:108E100039FD32463B4614F081FB5B46524614F066
:108E20007DFB019B013306460F4600F00F81019B3D
:108E3000012B00F0F180019B0133392B39D8019BC4
:108E4000132B40F31281019FC7F57F760336002272
:108E5000330514F065FB02460B462846214614F004
:108E60005DFB0022684B14F05BFB01EB07510DE04A
:108E70002846214614F006FD52465B4614F04EFB90
:108E800002460B462846214614F048FB05B0BDE8D3
:108E9000F08F4DA3D3E9002314F084FF00283FF4A2
:108EA00009AF4BA3D3E900231046194614F0EAFC9E
:108EB000ECE72A46234614F031FB02460B4600201D
:108EC000514914F02BFB019A4F4B01EB0251002248
:108ED00014F024FBDAE73EA3D3E9002314F020FBCF
:108EE00002460B46CAE72CA3D3E9002328462146B5
:108EF00014F0C8FC0B4643490246002014F010FB56
:108F000014F070FF019014F057FC33A3D3E9002351
:108F100006460F4614F0B6FC02460B46284621468C
:108F200014F0FCFA2EA3D3E900238046894630468C
:108F3000394614F0A7FC06460F4632463B464046EB
:108F4000494614F0EBFA02460B4605460C464046ED
:108F5000494614F0E3FA32463B4614F0DFFACDE915
:108F60000201DCE62B4A934200F2978000291AA303
:108F7000D3E90023C0F2AE8014F0D0FA012380467A
:108F80008946019316A7D7E90067D6E7AFF30080BB
:108F900059F3F8C21F6EA501FE822B654715F73FF6
:108FA0002DC3096EB7FD8ABE3952E686CACFD03EC0
:108FB000B7DBAA9E19CE143F8555FE19A0015A3F72
:108FC000F41011111111A13FEF39FAFE422E864023
:108FD0009C7500883CE4377E0000E0FE422EE63FB0
:108FE000763C7935EF39EA3D79684340412E864039
:108FF0000000E0BFFFFFEF7F0000F0BF422ED63F32
:10900000FFFF8F3C0000E03F0000F03F0000084001
:1090100000001840B1A2F03F2846214600223A4BFA
:1090200014F0A2FE002846D0284621460022374BE5
:1090300014F076FA02460B463046394614F06EFAC2
:1090400000224FF0404314F01DFC1FE732463B4620
:109050002846214614F062FA00222C4B14F012FC30
:1090600000222A4B14F05AFA10E7019E4FF4001E1A
:109070004EFA06FE2A462346CEF17F5714F04EFAEA
:10908000002607F5401702460B463046394614F0D5
:1090900045FA019E01EB0651F8E617A3D3E9002338
:1090A00014F0F0FB002C02460B464FF00000FFF6D8
:1090B0001AAE164922E732463B462846214614F0AE
:1090C0002DFA02460B4614F02BFA0022104B14F036
:1090D00027FADBE614F024FA4FF0FF338046894686
:1090E000019307A7D7E9006727E702460B4614F06C
:1090F00017FACBE6AFF30080FE822B654715F73FEA
:10910000763C7935EF39EABD0000D0BF0000E03F82
:109110000000F03F00000000F8B5C1F30A56044615
:109120000D460B4617460EBB21F00043034386460F
:1091300025D00022344B14F0A5FB344A9742044654
:109140000D460B462ADBC1F30A56363E3E4440F23A
:10915000FE72964228DC002E12DD23F0FF4323F43A
:10916000E00343EA065520462946F8BD40F2FF7267
:109170009642EBD102460B4614F0D2F9F8BDF8BD89
:1091800016F1350F1DDA4CF250339F4222462B4622
:1091900025DC19A1D1E9000117F03CFB16A3D3E9A6
:1091A000002314F06FFBF8BD22462B4614A1D1E931
:1091B000000117F02FFB12A3D3E9002314F062FB88
:1091C000F8BD23F0FF4323F4E003363643EA0655A7
:1091D0002046294600220E4B14F054FBF8BD08A18E
:1091E000D1E9000117F016FB05A3D3E9002314F021
:1091F00049FBF8BDAFF3008059F3F8C21F6EA5011B
:109200009C7500883CE4377E00005043B03CFFFF73
:109210000000903C10B5054C237833B9044B13B1D2
:109220000448AFF300800123237010BD30020020FA
:1092300000000000B43702000C4B43B10C480D494C
:1092400010B5AFF300800C48036823B910BD0A487D
:10925000036833B97047094B002BF7D0BDE81040C5
:109260001847064B002BF5D0184700BF0000000040
:10927000B437020034020020B437020000000000BE
:1092800070B504460E4600F0D1F888B10368DB6A79
:1092900005469847082C0CD0A4F10903012B14D9DA
:1092A0003246214610230D20BDE8704004F0B0B8CE
:1092B00070BD2B6828465B6A98470228F0DC2B6853
:1092C00028461B6A04219847EAE72B6828465B6A10
:1092D00098470528E4DC2B6828461B6A0821984734
:1092E000DEE700BF30B52DED028B83B0054600F000
:1092F0009DF8044640B10368DB6A9847032D50D8B7
:10930000DFE805F0373F47080190019803B0BDEC56
:10931000028B30BD20460CF045FE07EE900A204639
:10932000F8EEE78A0CF04EFE07EE900A2046B8EE03
:10933000E78A0CF057FE68EE087A07EE100AE8EEAE
:10934000A87AB8EEC77AE7EE077AF5EE407AF1EE42
:1093500010FAB1EEE78A03D517EE900A15F036FF42
:10936000FDEEC87ACDED017A019803B0BDEC028B19
:1093700030BD204603B0BDEC028BBDE830400CF0A0
:1093800011BE204603B0BDEC028BBDE830400CF0AE
:1093900019BE204603B0BDEC028BBDE830400CF096
:1093A00021BE00230193B0E738B5054600F03EF832
:1093B00058B10368DB6A0446984745B1012D04D1D2
:1093C0002046BDE83840FBF77BB9002038BD204679
:1093D000BDE83840FBF754B910B5044600F026F854
:1093E00028B1036821461B6ABDE81040184710BD2C
:1093F0000048704716FCFFFF704700BF10B5034BD5
:10940000036004460CF0AEFB204610BD042A0200A7
:1094100010B5054B036004460CF0A4FB204617F082
:1094200095FE204610BD00BF042A02002DE9F0433E
:10943000BA4C236885B01BB1986805B0BDE8F083CD
:109440004FF0FF31012001F0F5FC04F0DFFD0028B2
:1094500000F0E5800C2017F07BFE0321064651202A
:1094600001F0E8FCDFF8E4E2AD4B054605F00F073C
:10947000C5F3031815F4807518BF7346A94839461B
:1094800042460BF065FD2A1C18BF012239464346AF
:1094900030460FF079FB0023A348B3600BF058FD72
:1094A0004FF0FF31032001F0C5FC04F0AFFD4FF099
:1094B000FF310546022001F0BDFC04F0A7FD002DA0
:1094C00000F09680002800F093800146284604F0C2
:1094D000AFFB0746002800F09E804FF0FF3146208A
:1094E00001F0A8FC322880462AD027DD382866D033
:1094F00068283DD14FF0FF31012001F09BFC04F0C2
:1095000085FD81464C2017F023FE05230546019377
:109510004A46CDF80080394633460EF077FA2846A1
:10952000B06003689B6A9847B0680368DB6A984735
:109530007E480BF00DFD2660B0687EE7302817D11D
:109540004FF0FF31012001F075FC04F05FFD814612
:109550004C2017F0FDFD1FFA88F1054605234A4609
:1095600000910193394633460EF032F82846D7E78A
:109570003A680125002301950095D2F82080B36058
:109580000F220DF10F0332213846C047002851D178
:109590004FF03208414666480BF0DAFC4FF0FF31DD
:1095A000012001F047FC04F031FD81464C2017F00A
:1095B000CFFD052305464A46CDF80080D1E74FF0A0
:1095C000FF31012001F036FC04F020FD81464420EB
:1095D00017F0BEFD052305464A46CDF80080394602
:1095E000019333460EF06AF9524B2B60284697E7F9
:1095F00051480BF0ADFC4FF0FF31192001F01AFC7F
:1096000004F004FD4FF0FF310546182001F012FC74
:1096100004F0FCFC59E749480BF09AFC8BE74FF04B
:10962000FF31032001F006FC04F0F0FC00287FF479
:1096300011AF02E73B6801950095D3F820800F2217
:109640000DF10F0330213846C04718B94FF03008EC
:109650004146A0E73B6801950095D3F820800D2294
:109660000DF10F0338213846C047B8B938213048CA
:109670000BF06EFC4FF0FF31284601F0DBFB04F0ED
:10968000C5FC8046442017F063FD4FF0050E3823DB
:109690000546424639468DE80840A2E73A680195FA
:1096A0000095D2F820800DF10F037522682138460D
:1096B000C047D8B968211E480BF04AFC4FF0FF3173
:1096C000284601F0B7FB04F0A1FC80464C2017F0BF
:1096D0003FFD4FF0050E682305468DE808404246E1
:1096E000394633460EF092F9284619E714480BF034
:1096F0002FFCB06800287FF414AF4FF0FF31032037
:1097000001F098FB04F082FC18B10E480BF020FC2D
:1097100011E70D480BF01CFC0DE700BF4C020020C8
:109720006C1A0200741A0200941A02002C1B020028
:10973000501B0200301A0200A41A0200B81A0200DC
:109740003C1B0200D01A02000C1B0200641A02002B
:1097500008B501F0A1FCFBF73FFEBDE8084001F0B1
:10976000FDB900BF08B501F097FCFBF7A5FEBDE809
:10977000084001F0F3B900BF08B501F08DFC14F00A
:1097800071FEBDE8084001F0E9B900BF08B501F07D
:1097900083FC15F0E3FBBDE8084001F0DFB900BF32
:1097A00008B501F079FCFBF727FEBDE8084001F0A1
:1097B000D5B900BF08B501F06FFC15F085F8BDE81C
:1097C000084001F0CBB900BF08B501F065FCFBF71C
:1097D00063F8BDE8084001F0C1B900BF08B501F069
:1097E0005BFC14F0C5FFBDE8084001F0B7B900BF4D
:1097F00070B5049E96420C4628DB15466BB1002AD4
:1098000000EB020107DD2046A21811F8013D00F827
:10981000013B9042F9D1002070BD042A0FD0022AEA
:1098200002D110F0010306D001462A46204607F077
:10983000C3FC002070BD02880A80184670BD10F07D
:109840000303F1D102680A60184670BD0846002182
:1098500008F0A2FE4FF0FF3070BD00BF0830704727
:1098600040B1002905DB4368994202DA0844007AD6
:1098700070470020704700BF30B1002904DB436807
:109880009942BCBF40180272704700BF40B1002926
:1098900005DB4368994202DA0844007A70470020E9
:1098A000704700BF830705D120B1030F0CBF012013
:1098B000002070470120704730B1002904DB436865
:1098C0009942BCBF40180272704700BF002B23DBD7
:1098D000002921DB70B54668B1421ADC5568761A5A
:1098E0001446EA1AB242A8BF3246002A11DB84426B
:1098F0000D4607D0083408300844E11807F05CFC36
:10990000002070BD0834E118601917F05BFC0020DE
:1099100070BD4FF0FF3070BD4FF0FF30704700BF9B
:109920004068704710B4141E10DB426894420DDC8E
:1099300033EA230328BF1346121B08309A422044FF
:10994000A8BF1A465DF8044B08F026BE5DF8044B2C
:10995000704700BF43688B4210B400F108041846FA
:10996000A8BF084632EA220128BF19461B1A9942AD
:109970002044A8BF19465DF8044B00F0F3BE00BFB9
:10998000002BBCBF43689B1A002A70B50E4620DB33
:1099900044689918A1421CDC8A421ADCCBB136F02B
:1099A000004116D059428E4214DDB34212DD083018
:1099B000002E00EB020515DB9C1B2246A919284648
:1099C00017F000FC324628190021BDE8704008F06D
:1099D000E3BD70BD002211464FF0FF33BDE870407B
:1099E000FFF7A0BF74429A192946281917F0EAFB1D
:1099F000224628460021BDE8704008F0CDBD00BFDA
:109A000003460830596800F02DBE00BF70B504460B
:109A100000206168490000F0A7FD6668002E11DD96
:109A2000094D04F1080100EB4606034611F8012B2D
:109A3000141102F00F022C5DAA5C9C71DA710233E2
:109A40009E42F3D170BD00BF641B0200002BBCBF5F
:109A500043689B1A002A2FDB70B445689C18AC42FF
:109A600029DCA24227DC33B331F0004423D00029A3
:109A7000B8BF01EB032191FBF3F603FB1616002E92
:109A800000F10800B8BFF61802441644B24213446D
:109A900011D0304604E0B24208460ED090420AD0BF
:109AA0000146147811F8015B02F8015B8B420470E7
:109AB000F1D13046F2E770BC70470E46EEE700BFCA
:109AC00000B583B04FF0FF3300930023FFF7FEFE95
:109AD00003B05DF804FB00BF10B50C1E0EDD41683D
