:10000000000002207D620100A5620100A7620100DC
:10001000A9620100AB620100AD62010000000000B6
:10002000000000000000000000000000AF620100BE
:10003000B162010000000000B3620100B56201007E
:10004000B7620100B76201001D610100E1600100BB
:10005000F5600100B7620100F9510100CD680100AF
:10006000055D01000D5D0100155D0100B762010035
:10007000B7620100B7620100B7620100B762010018
:10008000B7620100B7620100B7620100B762010008
:10009000B7620100B7620100B7620100B7620100F8
:1000A000B7620100B76201001D5D0100255D01001E
:1000B000B7620100B762010000000000000000000C
:1000C000B7620100B7620100B76201000961010077
:1000D000B7620100B7620100B7620100B7620100B8
:1000E0004561010000000000000000000000000069
:1000F00000000000B7620100000000003161010053
:1001000000000000000000000000000000000000EF
:1001100000000000000000000000000000000000DF
:1001200000000000000000000000000000000000CF
:1001300000000000000000000000000000000000BF
:1001400000000000000000000000000000000000AF
:10015000000000000000000000000000000000009F
:10016000000000000000000000000000000000008F
:10017000000000000000000000000000000000007F
:10018000000000000000000000000000000000006F
:10019000000000000000000000000000000000005F
:1001A000000000000000000000000000000000004F
:1001B000000000000000000000000000000000003F
:1001C000000000000000000000000000000000002F
:1001D000000000000000000000000000000000001F
:1001E000000000000000000000000000000000000F
:1001F00000000000000000000000000000000000FF
:100200007CB0EE877CB0EE87FF00FF00FF00FF00B0
:10021000FF00FF00FF00FF00FF00FF00FF00FF00E6
:10022000FF00FF00FF00FF00FF00FF00FF00FF00D6
:10023000FF00FF00FF00FF002DE9F04F85B00391A4
:100240000778A7F10903042B044607F07F0200F1A9
:100250000100F5D9202AF3D02B2F04BF677804467C
:100260002D2F72D09FED427B8DED007B4FF000086B
:100270004FF000098FB34FF0000E4FF0000ADFF887
:1002800000B1754619E019F067F980468946304695
:1002900019F0FCF842464B4618F0ACFF5246804637
:1002A00089465B46DDE9000135B319F07FFACDE9F7
:1002B0000001AE4614F8017F7FB1A7F13006092E88
:1002C00052465B4640464946DDD9C5B92E2F16D168
:1002D00014F8017F0125002FEFD142464B46DDE99E
:1002E000000119F039F980468946039B404649468A
:1002F0001C6005B0BDE8F08F4FF0010EDAE7BEF1EB
:10030000000F29D042464B46DDE9000119F024F9DF
:1003100007F0DF07452F80468946E6D10399601C28
:100320000A2218F04BFF16490246002019F074FC0F
:1003300002460B464046494619F00EF9804689466A
:100340004046494605B0BDE8F08F9FED0B7B6778CE
:100350008DED007B013489E7DFF828904FF000082D
:100360004046494605B0BDE8F08F00BFAFF30080BE
:10037000000000000000F03F000000000000F0BF9F
:10038000000024400000F87F2DE9F84F16460023B6
:10039000002204460D4619F051FB002840F09D80D4
:1003A000002200232046294619F03EFB28B13022C6
:1003B000002332707370BDE8F88F2046294617F08D
:1003C000CDFB19F079FB7BA3D3E9002381462946B5
:1003D000204619F033FB002800F08680B9F1000FA9
:1003E000C0F2BE804A4600206F4919F015FC024653
:1003F0000B462046294619F0D9F904460D4666A158
:10040000D1E9000101274FF0000822462B4619F0E0
:10041000A3F80022654B18F0EDFE19F039FC002F0F
:10042000CC464FF0FF3AC1464FF0000840F38580BC
:10043000DFF888E15E4C0122AEF1700945F6F32544
:100440004FF02E0BA94208BFA0424FF0300309D352
:10045000001B61EB0501A94208BFA04203F10103A3
:10046000F6D2DBB2337050EA010306F1010409D180
:10047000BA4210DACE4502F101020CD026467EE8DF
:100480000245DFE7BA4204BF86F801B0B41CCE458E
:1004900002F10102F2D1B8F1000F0DD02246302155
:1004A00002F8011BC2F1010353442344002BF7DC83
:1004B0002AEAEA7301331C44BCF1010F4CD06523D6
:1004C000BCF1000F2370C5BF2B236370611CA11CFE
:1004D0006046BDE8F84F0FF01DBF05F100431D4613
:1004E0002D23337001365BE72DA3D3E9002320468B
:1004F000294619F0C1FA00287FF470AFB9F10E0F48
:1005000009F101073DDDA9F10E0842460020264908
:1005100019F082FB02460B462046294619F046F99F
:100520000022224B18F066FE19F0B2FB002FA9F151
:100530000F0A4FF0010C3FF77BAF334630222E24D9
:1005400003F8022B74707FEA090618D01E4403F8E2
:10055000012BB342FBD16BE700232370BDE8F88F7A
:10056000C9F100020020104919F056FB02460B4663
:100570002046294618F0F0FF04460D463FE71E4688
:1005800056E7C9F10E0200200749C84619F044FB9E
:100590004FF0010939E700BF0000901EC4BCD642ED
:1005A00050EFE2D6E41A4B44000024400000E03F44
:1005B00000407A108DEDB5A0F7C6B03EC0A701008F
:1005C00070B54FF0FF3006F035FA04466FF07F400B
:1005D00006F030FA0646204618F048FF00220C4B81
:1005E00018F0BAFF044630460D4618F03FFF06A348
:1005F000D3E9002319F0DAF802460B4620462946D3
:1006000018F0F8FD70BD00BF0000E0DFFFFF6F4392
:100610000000F03D000000002DE9F04F2DED028BB1
:10062000044683B0C06818F031FF804620698946CF
:1006300018F02CFF824660698B4618F027FF0246AF
:1006400001F1004306460F464046494617F032F98D
:1006500019F07AFAE062054616F0E0FF01902846AC
:1006600016F090FF019B0546184618F021FF424600
:100670004B4618F071FF80462846894618F018FF4F
:1006800032463B4618F068FF02460B464046494654
:1006900018F0AEFD02460B465046594617F00AF9CF
:1006A00019F052FA002208EE100A002330463946AB
:1006B00019F0E2F928B3B5EEC08AF1EE10FA1CDDAC
:1006C00011A7D7E9006718EE100A18F0F1FE0246EC
:1006D0000B463046394618F08BFD32463B4618F043
:1006E00089FD19F031FAA062E38843F00203E38048
:1006F00003B0BDEC028BBDE8F08F05A7D7E900671A
:10070000E1E784ED0A8AEFE7EA2E4454FB21F93F42
:10071000EA2E4454FB21F9BF08B511F0E9F8DFEDEA
:100720000C7A07EE100A67EE277A17EE900A18F097
:10073000BFFE05A3D3E9002319F038F819F0BCF97E
:1007400008BD00BFAFF30080EA2E4454FB211940DE
:100750000000B4430000000008B511F0DDF8DFED43
:100760000C7A07EE100A67EE277A17EE900A18F057
:100770009FFE05A3D3E9002319F018F819F09CF99E
:1007800008BD00BFAFF30080EA2E4454FB2119409E
:100790000000B44300000000494A21F000439342A6
:1007A0002DE9704304460D464BDC464A93420E4603
:1007B0000EDC3FA3D3E9002318F01CFD0022424BBE
:1007C00019F05AF900284CD020462946BDE870831C
:1007D0003E4A93423BDCB3F1804F42DD16F0B8FD58
:1007E0002246804689462B462046294618F0B4FE0C
:1007F0000022354B18F0FEFC17F06EFC02460B464B
:100800004046494618F0F6FC02460B4600202E49A9
:1008100018F0CCFF424604460D464B46404649463A
:1008200018F0E8FC02460B462046294618F0E2FC88
:1008300002F06AF8002EC9DC01F100431946BDE858
:10084000708302460B4618F0D5FCBDE8708316F0A5
:100850007FFD02F059F818A3D3E9002318F0CAFC71
:10086000E8E722462B462046294618F075FE8046CA
:1008700089462046294616F06BFD002204460D46A7
:10088000114B4046494618F0B5FC17F025FC0022F4
:100890000D4B18F0AFFC02460B464046494618F097
:1008A00085FF22462B4618F0A5FC00F0C5FAC1E7EB
:1008B0009C7500883CE4377EEF39FAFE422EE63F15
:1008C000FFFFEF7FFFFF2F3E0000F03F0000B04131
:1008D0002DE9F84FC44B21F000469E4204460D46D8
:1008E0008A460EDDC14B9E4200F3AC8000F0A7802B
:1008F000BAF1000F40F3EA809FA1D1E90001BDE801
:10090000F88FBB4B9E4200F3B580A3F1DE739E428D
:1009100040F3A0804FF0FF3B22462B46204629465D
:1009200018F01AFE02460B468046894618F014FE5F
:1009300093A3D3E9002306460F4618F00DFE92A3B9
:10094000D3E9002318F056FC32463B4618F004FE6B
:100950008FA3D3E9002318F04DFC32463B4618F034
:10096000FBFD8DA3D3E9002318F044FC32463B463F
:1009700018F0F2FD8AA3D3E9002318F03BFC3246BD
:100980003B4618F0E9FD88A3D3E9002318F032FCB8
:1009900042464B4618F0E0FD85A3D3E9002380468C
:1009A00089463046394618F0D7FD83A3D3E90023A2
:1009B00018F01EFC32463B4618F0CEFD80A3D3E96A
:1009C000002318F015FC32463B4618F0C5FD7EA307
:1009D000D3E9002318F00CFC32463B4618F0BCFD6E
:1009E0007BA3D3E9002318F003FC32463B4618F002
:1009F000B3FDBBF1FF3F02460B466CD04046494673
:100A000018F0F8FB22462B4618F0A6FD794E7A4BDB
:100A10004FEACB0B5E449B44DBE9002318F0E8FB74
:100A200022462B4618F0E4FB02460B46D6E90001AD
:100A300018F0DEFBBAF1000F43DBBDE8F88F0028A9
:100A40003FF456AF22462B462046294618F0D2FBEB
:100A5000BDE8F88F60A3D3E9002318F0CBFB002298
:100A6000664B19F009F800283FF454AF2046294698
:100A7000BDE8F88F16F06CFC614B9E4204460D46B3
:100A800039DCA3F550239E425EDC02460B4618F08B
:100A9000B1FB0022594B18F0ABFB002206460F4673
:100AA0004FF080432046294618F0A4FB02460B462F
:100AB0003046394618F07AFE4FF0000B04460D46DA
:100AC0002AE701F100431946BDE8F88F44A1D1E9B6
:100AD0000001BDE8F88F4046494618F08BFB2246DE
:100AE0002B4618F039FD02460B462046294618F0E1
:100AF0007FFBBDE8F88F434B9E421ADC0022424B3D
:100B000018F076FB002206460F463F4B204629464A
:100B100018F022FD0022394B18F06CFB02460B4600
:100B20003046394618F042FE4FF0020B04460D469F
:100B3000F2E602460B460020344918F037FE4FF02B
:100B4000030B04460D46E7E600222C4B18F050FB41
:100B5000002206460F46294B2046294618F04AFB3C
:100B600002460B463046394618F020FE4FF0010B86
:100B700004460D46D0E600BF182D4454FB21F93F32
:100B800011DA22E33AAD903FEB0D76244B7BA93F7F
:100B9000513DD0A0660DB13F6E204CC5CD45B73F4D
:100BA000FF8300922449C23F0D5555555555D53FF9
:100BB0002F6C6A2C44B4A2BF9AFDDE522DDEAD3FED
:100BC0006D9A74AFF2B0B33F711623FEC671BC3F8D
:100BD000C4EB98999999C93F9C7500883CE4377E8D
:100BE000182D4454FB21F9BFFFFF0F440000F07F94
:100BF000FFFFDB3FD0A70100F0A701000000F03F9E
:100C0000FFFFF23FFF7F03400000F83F0000F0BF0E
:100C10002DE9F843C1F30A59A9F2FF35132D024615
:100C20000B460C4606468846074622DC002D50DB64
:100C3000DFF8F09049FA05F901EA090E5EEA0606C6
:100C40001CD036A3D3E9002318F0D4FA00220023E5
:100C500018F012FF48B1002C04DD4FF4801343FA62
:100C600005F5A84428EA0904002721463846BDE8CE
:100C7000F883332D06DDB5F5806F3DD0104619465B
:100C8000BDE8F883A9F213494FF0FF3E2EFA09F9A7
:100C900010EA090FF2D021A3D3E9002318F0AAFA31
:100CA0000022002318F0E8FE0028DED0002C09DD29
:100CB000142D2BD00127C5F1340507FA05F5AE191F
:100CC00028BFB844444626EA090721463846BDE80D
:100CD000F88312A3D3E9002318F08CFA0022002332
:100CE00018F0CAFE0028C0D0002C0BDB54EA06071F
:100CF00006D00027084CB8E718F07CFABDE8F88366
:100D00003C46B2E700274FF00044AEE704F101088B
:100D1000D8E700BFAFF300800000F03F9C7500886B
:100D20003CE4377EFFFF0F002DE9F041C1F30A5785
:100D3000A7F2FF35132D02460B460C4688460646A1
:100D40001CDC002D3FDB3A4F2F41864601EA070CA1
:100D50005CEA0E0E17D034A3D3E9002318F04AFA48
:100D60000022002318F088FE20B1002C3FDB28EA87
:100D70000704002621463046BDE8F081332D06DD0C
:100D8000B5F5806F2FD010461946BDE8F081A7F267
:100D900013474FF0FF3E2EFA07F73842F3D022A355
:100DA000D3E9002318F026FA0022002318F064FE8D
:100DB0000028DFD0002C20DB444626EA0706214627
:100DC0003046BDE8F08118A3D3E9002318F012FAE9
:100DD0000022002318F050FE0028CBD0002C17DB97
:100DE00000263446C6E718F005FABDE8F0814FF456
:100DF000801343FA05F5A844B9E7142D10D0012358
:100E0000C5F1340503FA05F5AE1928BF9844D3E7B8
:100E100024F00042074B324318BF1C460026A9E7C6
:100E200004F10108C8E700BF9C7500883CE4377EE8
:100E3000FFFF0F000000F0BF2DE9F04FD84B9942A3
:100E400087B0804689460E4613DCD64B21F000441D
:100E50009C4218DD0022D44B18F0E6FD002879D022
:100E6000002200230020D14918F0A0FC07B0BDE803
:100E7000F08FCF4B99422FDD42464B4618F0BAF91E
:100E800007B0BDE8F08FCB4B9C4270DDCA4B1E44CF
:100E90009E427ED80022C94B4046494618F0AAF926
:100EA0004FEA215AAAF2FF3ABAF1000F04460D4662
:100EB0000E4640F3DE8142464B4618F099F9024651
:100EC0000B460020BD4918F093F922462B4618F036
:100ED0006DFCCDE902010BE0B94B9E42DADD9FEDDE
:100EE0009A7B8DED027B4FEA265A4446AAF2FF3ADE
:100EF000B44BC6F313069E4246F07F5500F3E780DD
:100F000045F44015204629460022AC4B18F070F9F4
:100F1000002204460D46AC4B18F01EFB22462B4621
:100F200018F01AFBA046CDE90401A946CDE900015D
:100F3000002E3AD1002200232046294618F074FDE5
:100F4000002800F0CE80BAF1000F40F0748100203C
:100F5000002195E742464B464046314618F048F995
:100F600002460B4618F022FC07B0BDE8F08F0022C5
:100F7000964B18F03FF90022002318F07DFD002861
:100F800000F0CC80924B9C4200F3C880404649461A
:100F900076E700228C4B18F0DFFA42464B4618F0F9
:100FA000DBFACDE900014FF0000A00224FF0804348
:100FB0004046494618F01EF902460B46404649464F
:100FC00018F0F4FB02460B4606460F4618F0C4FA2A
:100FD0005FA3D3E9002304460D4618F0BDFA5EA3D3
:100FE000D3E9002318F006F922462B4618F0B4FA8C
:100FF0005BA3D3E9002318F0FDF822462B4618F036
:10100000ABFA59A3D3E9002318F0F4F822462B4693
:1010100018F0A2FA56A3D3E9002318F0EBF8224601
:101020002B4618F099FA54A3D3E9002318F0E2F8FC
:1010300022462B4618F090FA51A3D3E9002318F06A
:10104000D9F822462B4618F087FA04460D46BAF125
:10105000000F00F0BF80504618F018FA4AA3D3E9F9
:10106000002382468B4618F077FADDE90023CDE9AC
:1010700004012046294618F0BDF832463B4618F0D8
:101080006BFA43A3D3E9002304460D465046594664
:1010900018F062FADDE9022318F0ACF802460B46BC
:1010A0002046294618F0A6F802460B46DDE9000165
:1010B00018F09EF842464B4618F09AF802460B4646
:1010C000DDE9040118F094F807B0BDE8F08F45F4AD
:1010D0000015C6F5801620462946B6100AF1010A09
:1010E00012E72DA3D3E900232046294618F034FA4D
:1010F00002460B460020314918F07AF8DDE9042356
:1011000018F02AFA06460F46BAF1000F73D10246CC
:101110000B462046294618F06BF8B1E642464B468E
:101120004046494618F018FA0022274B18F014FAE6
:1011300002460B464046494618F05AF807B0BDE84B
:10114000F08F00BFAFF3008000000000000000003F
:1011500044523EDF12F1C23F9FC678D0099AC33F86
:10116000DE03CB966446C73FAF788E1DC571CC3F7A
:10117000599322942449D23F04FA97999999D93FD7
:10118000935555555555E53F0000E0FE422EE63F8C
:10119000763C7935EF39EA3D555555555555E53F7E
:1011A0007982DA3FFFFFEF3F0000F0BF000050C33D
:1011B000FFFFEF7FFFFF1F3E3C412D400000F03F4F
:1011C000FFFF3F439DA006000000E03F00005043AA
:1011D000FFFF8F3CDDE9004522462B4618F00AF858
:1011E00032463B4618F0B8F902460B4620462946DF
:1011F00017F0FEFF9CE7504618F048F923A3D3E907
:10120000002382468B4618F0A7F922A3D3E90023D6
:10121000804689465046594618F09EF9DDE902237A
:1012200017F0E8FF02460B463046394617F0E0FF5C
:1012300022462B46DCE7504618F028F915A3D3E9DF
:10124000002306460F4618F087F9DDE9022317F060
:10125000D1FF0EA3D3E9002304460D46304639469C
:1012600018F07AF902460B462046294617F0C2FFCD
:1012700006E60022044B17F0BBFF02460B46404631
:10128000494617F0B5FF20E60000F03F0000E0FE01
:10129000422EE63F763C7935EF39EA3D000000000A
:1012A00008B516F0DBFB04A3D3E9002318F07EFA9F
:1012B00008BD00BFAFF30080EF39FAFE422EE63FD3
:1012C0002DE9F043DFF8B4808BB004460D4601F001
:1012D000F3F898F90030013306460F462BD022462A
:1012E0002B462046294618F0D1FB814618BB2046E4
:1012F000294616F02DF81FA3D3E9002318F0BCFBF4
:10130000C8B1194A98F90030CDF820900321CDE9F1
:101310000445CDE902458DE806008BB9134B4FF02B
:101320006042CDE90623684617F064FD70B1089B62
:101330009BB9DDE90667304639460BB0BDE8F0835E
:101340000B490020022BCDE90601ECD117F0DEFE9F
:1013500022230360089B002BEBD017F0D7FE089BDD
:101360000360E6E7AFF30080B4BA0100FFFFEF4788
:101370000000F07F7DF8B98FCE338640FF0100205A
:101380002DE9F043DFF8E4808BB004460D4601F010
:1013900043F998F90030013306460F4633D0204612
:1013A000294617F021FD70B32CA3D3E90023204672
:1013B000294618F061FB814650BB2AA3D3E90023DC
:1013C0002046294618F03AFBE8B198F90030204A47
:1013D000CDF82090002600270421022BCDE90445FA
:1013E000CDE90245CDE906678DE8060029D06846BB
:1013F00017F000FD28B3089B1BB117F087FE089B70
:101400000360DDE90667304639460BB0BDE8F0837E
:101410000F4A98F90030019203210022CDE90445DA
:10142000CDE90245009108922BB90A4B4FF060427A
:10143000CDE90623DBE708490020022BCDE90601B0
:10144000D5D117F063FE22230360D4E7AFF3008009
:10145000BCBA0100FFFFEF470000F07FEF39FAFE52
:10146000422E864051302DD5104987C0FF01002003
:101470002DE9F04FDFF80C938DB006460F46144669
:101480001D4601F0C5FC99F90080B8F1FF3FCDE998
:10149000000136D022462B462046294618F0F6FA9F
:1014A000834670BB32463B463046394618F0EEFA6A
:1014B0008246002840F0A2803046394600220023B0
:1014C00018F0B2FA10B3002200232046294618F083
:1014D000ABFA834600286AD09FEDA17B0122A44B82
:1014E000CDF828A00292CDE90467CDE906458DED3F
:1014F000087B0393B8F1000F45D09FED9B7B8DEDEA
:10150000007BDDE900010DB0BDE8F08FDDE90001F1
:1015100017F06AFC8046002800F08D804FF0000A2A
:101520004FF0000BDDE9000152465B4618F07CFAF3
:101530000028E6D03046394617F056FC0028E0D0A7
:101540002046294617F050FC0028DAD099F90030DF
:10155000874A039204210022022BCDE90467CDE9DA
:101560000645CDE908AB02910A9203D002A817F014
:1015700041FC68B917F0CAFD2223036008E09FED23
:10158000787B8DED087B02A817F034FC002830D062
:101590000A9B1BB117F0BAFD0A9B03609DED087B07
:1015A0008DED007BDDE900010DB0BDE8F08F204638
:1015B000294617F019FC0028A3D00022002320465A
:1015C000294618F03BFA00289BD099F90030684A68
:1015D000CDF828B00121CDE90467CDE90645029197
:1015E0000392002BCBD063490020022BCDE90801E8
:1015F000C9D117F08BFD21230360C9E70022002326
:101600002046294618F010FA00283FF47AAF5A4BCA
:101610005749CDF828B000220120B8F1020FCDE9DA
:1016200004670290CDE90645CDE908230391AAD1CC
:10163000CDE9002365E73046394617F0D5FB002891
:101640003FF46CAF2046294617F0CEFB00283FF44C
:1016500065AFDDE900231046194618F017FA002897
:101660005FD1032399F900800293414B0A90CDE9A1
:101670000467CDE906450393B8F1000F2BD1DFF8DD
:1016800008B14FF0604A0022002330463946CDE9C8
:1016900008AB18F0D3F900283FF468AF0022374BAD
:1016A0002046294617F058FF04460D4617F0AAFBBE
:1016B00002460B462046294618F0B6F970BB304B5F
:1016C00099F900804FF06042CDE90823B8F1020F8C
:1016D0007FF44CAF4EE7DFF8B4B04FF0000A0022C1
:1016E000002330463946CDE908AB18F0A7F90028A9
:1016F000ECD00022214B2046294617F02DFF04464E
:101700000D4617F07FFB02460B462046294618F08F
:101710008BF918B9174B0022CDE9082399F90080FD
:10172000D4E799F90090124BCDF828800122CDE939
:101730000467CDE9064502920393B9F1000F3FF427
:101740001EAF002200231046194618F02FF8B9F1F9
:10175000020FCDE908013FF44CAF14E7AFF300806E
:101760000000000000000000000000000000F03F4A
:10177000D4BA01000000F0FF0000F03F0000E03F9D
:10178000FFFFEFC7FF010020FFFFEF470000F07FE2
:101790002DE9F84FC44E21F00043B34204460D46F4
:1017A0000DDD03F1404303F58013034340F0B9809E
:1017B000002940F3408100200021BDE8F88FBB4E96
:1017C000B34240F3A6800029C0F2788102460B465E
:1017D0000020B74917F00CFD0022B64B17F0BCFEF5
:1017E00004460D4616F078FC95A3D3E900238946FC
:1017F00080462946204617F0AFFE93A3D3E9002385
:1018000017F0F8FC22462B4617F0A6FE90A3D3E96A
:10181000002317F0EDFC22462B4617F09DFE8EA309
:10182000D3E9002317F0E6FC22462B4617F094FE7E
:101830008BA3D3E9002317F0DBFC22462B4617F0DD
:101840008BFE89A3D3E9002317F0D4FC22462B4654
:1018500017F082FE86A3D3E9002382468B462046FA
:10186000294617F079FE84A3D3E9002317F0C0FCC2
:1018700022462B4617F070FE81A3D3E9002317F010
:10188000B9FC22462B4617F067FE7FA3D3E900235D
:1018900017F0AEFC22462B4617F05EFE0022844B6A
:1018A00017F0A8FC02460B465046594617F07EFF3B
:1018B00042464B4617F050FE002682468B46324683
:1018C0004B463046494617F047FE02460B46204637
:1018D000294617F08DFC324604460D464B464046DD
:1018E000494617F087FC02460B462046294617F06A
:1018F0005DFF02460B465046594617F07BFC3246C8
:101900004B4617F077FC02460B4617F073FCBDE818
:10191000F88F694A93420EDC5DA1D1E90001BDE870
:10192000F88F02460B4617F063FC02460B4617F091
:101930003DFFBDE8F88F02460B4617F00DFE40A3B1
:10194000D3E9002306460F4617F006FE3EA3D3E96F
:10195000002317F04FFC32463B4617F0FDFD3CA339
:10196000D3E9002317F044FC32463B4617F0F4FD60
:1019700039A3D3E9002317F03DFC32463B4617F06C
:10198000EBFD37A3D3E9002317F032FC32463B4688
:1019900017F0E2FD34A3D3E9002317F02BFC324605
:1019A0003B4617F0D9FD32A3D3E900238046894690
:1019B0003046394617F0D0FD2FA3D3E9002317F0A6
:1019C00017FC32463B4617F0C7FD2DA3D3E9002391
:1019D00017F010FC32463B4617F0BEFD2AA3D3E9B0
:1019E000002317F005FC32463B4617F0B5FD0022F8
:1019F0002F4B17F0FFFB02460B464046494617F0B7
:101A0000D5FE22462B4617F0A7FD02460B4622A123
:101A1000D1E9000117F0ECFB02460B4620462946AF
:101A200017F0E6FB02460B4619A1D1E9000117F0B9
:101A3000DFFBBDE8F88F1AA1D1E90001BDE8F88FFE
:101A400009F7FD0DE13D023F88B20175E0EF493F26
:101A50003B8F68B52882A43F5544880E55C1C93FC5
:101A60007D6FEB0312D6D43F555555555555C53F9F
:101A700082922EB1C5B8B33F59018D1B6C06E63F6B
:101A8000C88A599CE52A00404B2D8A1C273A0340FE
:101A9000182D4454FB21F93F075C143326A6913CD2
:101AA000182D4454FB210940FFFFEF3FFFFFDF3FAC
:101AB0000000F03F0000E03F0000603C00225C4B73
:101AC00017F098FB00225B4B17F046FD40A3D3E9CB
:101AD000002304460D4617F03FFD3FA3D3E9002342
:101AE00017F088FB22462B4617F036FD3CA3D3E9BE
:101AF000002317F07DFB22462B4617F02DFD3AA35D
:101B0000D3E9002317F076FB22462B4617F024FD7D
:101B100037A3D3E9002317F06BFB22462B4617F0BF
:101B20001BFD35A3D3E9002317F064FB22462B46A7
:101B300017F012FD804689462046294616F0CCFA59
:101B40002FA3D3E9002306460F462046294617F067
:101B500003FD2DA3D3E9002317F04AFB22462B46B1
:101B600017F0FAFC2AA3D3E9002317F043FB22461F
:101B70002B4617F0F1FC28A3D3E9002317F038FB1C
:101B800022462B4617F0E8FC0022294B17F032FBC7
:101B900002460B464046494617F008FE32463B4691
:101BA00017F0DAFC1EA3D3E9002317F021FB32461D
:101BB0003B4617F01FFB02460B4617F01BFB024685
:101BC0000B4619A1D1E9000117F012FBBDE8F88F0F
:101BD00009F7FD0DE13D023F88B20175E0EF493F95
:101BE0003B8F68B52882A43F5544880E55C1C93F34
:101BF0007D6FEB0312D6D43F555555555555C53F0E
:101C000082922EB1C5B8B33F59018D1B6C06E63FD9
:101C1000C88A599CE52A00404B2D8A1C273A03406C
:101C2000075C143326A6913C182D4454FB2109402F
:101C30000000F03F0000E03F434A91422DE9F843A5
:101C400004460D4639DD414A914209DD02F17952DF
:101C5000914240DD02460B4617F0CCFABDE8F8830E
:101C600001F1404202F58012024330D0B1F1804FC1
:101C70003ADC0022364B17F0BBFA02460B4604460C
:101C80000D4617F0B7FA224606460F462B46204669
:101C9000294617F061FC02460B463046394617F0DC
:101CA000A9FA16F019FA0B4602462946204617F003
:101CB000A1FABDE8F843FFF7BFB802460B4617F09C
:101CC00097FA02460B4617F071FDBDE8F883002035
:101CD0000021BDE8F88300F017FE19A3D3E9002323
:101CE00017F088FABDE8F88302460B4617F034FC7B
:101CF0000022174B17F07CFA16F0EEF922468046C8
:101D000089462B462046294617F074FA4246064675
:101D10000F464B462046294617F06CFA02460B4602
:101D200000200B4917F042FD0B460246394630466B
:101D300017F05EFABDE8F84300F0E6BDAFF30080AF
:101D4000EF39FAFE422EE63FFFFFEF3FFFFFAF41C4
:101D50000000F03F000000002DE9F047BE4B21F0ED
:101D60000048984584B004460D4612DD08F140480D
:101D700008F58018034658EA030321D002460B46B3
:101D800017F036FA02460B4617F010FD04B0BDE816
:101D9000F087B24B98458A4629DCB8F1795F80F22A
:101DA000658191A3D3E9002317F024FA0022AC4BFC
:101DB00017F062FED8B12046294604B0BDE8F0878E
:101DC0008BA3D3E9002317F0C7FB8BA3D3E9002330
:101DD00006460F462046294617F0BEFB02460B4634
:101DE0003046394617F006FA04B0BDE8F0872046C1
:101DF000294615F0ADFA02460B460020984917F027
:101E0000F7F90022974B17F0A7FB7DA3D3E9002336
:101E100004460D4617F0A0FB7BA3D3E9002317F07F
:101E2000E9F922462B4617F097FB79A3D3E9002363
:101E300017F0DEF922462B4617F08EFB76A3D3E986
:101E4000002317F0D7F922462B4617F085FB74A321
:101E5000D3E9002317F0CCF922462B4617F07CFB80
:101E600071A3D3E9002317F0C5F922462B4617F0DA
:101E700073FB6FA3D3E90023CDE900012046294677
:101E800017F06AFB6CA3D3E9002317F0B1F92246DF
:101E90002B4617F061FB6AA3D3E9002317F0AAF9D8
:101EA00022462B4617F058FB67A3D3E9002317F00F
:101EB0009FF922462B4617F04FFB694B002217F083
:101EC00099F9CDE902012046294616F005F9664B3D
:101ED000984506460F4666DCDDE90223DDE9000190
:101EE00017F064FC3246CDE900013B4630463946E6
:101EF00017F080F902460B46DDE9000117F02CFBD4
:101F00004FF00008CDE9000142463B4640463946C5
:101F100017F022FB02460B462046294617F068F9C7
:101F2000424604460D463B463046394617F062F9B4
:101F300002460B462046294617F038FC02460B465F
:101F400017F058F902460B462BA1D1E9000117F012
:101F50004FF902460B46DDE9000117F049F9424608
:101F600004460D463B464046394617F043F90246C3
:101F70000B4637A1D1E9000117F03AF902460B46AA
:101F80002046294617F034F902460B4630A1D1E924
:101F9000000117F02DF9BAF1000F3FF7F7AE01F18C
:101FA00000431946F2E6DDE90223DDE9000117F0FE
:101FB000FDFB32463B4617F0CFFA32463B4617F060
:101FC00019F902460B4617F015F90BA3D3E90023C4
:101FD00017F00EF902460B4605A1D1E9000117F0F2
:101FE00007F9D8E7AFF300809C7500883CE4377EA2
:101FF000182D4454FB21F93F075C143326A6913C6D
:1020000009F7FD0DE13D023F88B20175E0EF493F60
:102010003B8F68B52882A43F5544880E55C1C93FFF
:102020007D6FEB0312D6D43F555555555555C53FD9
:1020300082922EB1C5B8B33F59018D1B6C06E63FA5
:10204000C88A599CE52A00404B2D8A1C273A034038
:10205000182D4454FB21E93FFFFFEF3FFFFFDF3F17
:102060000000F03F0000E03F3233EF3F02460B46F6
:1020700017F072FA37A3D3E9002306460F4617F08C
:102080006BFA36A3D3E9002317F0B4F832463B4687
:1020900017F062FA33A3D3E9002317F0A9F8324608
:1020A0003B4617F059FA31A3D3E9002317F0A2F801
:1020B00032463B4617F050FA2EA3D3E9002317F01F
:1020C00097F832463B4617F047FA2CA3D3E9002392
:1020D00017F090F832463B4617F03EFA29A3D3E9B1
:1020E0000023804689463046394617F035FA27A343
:1020F000D3E9002317F07CF832463B4617F02CFA60
:1021000024A3D3E9002317F075F832463B4617F0B5
:1021100023FA22A3D3E9002317F06AF832463B469C
:1021200017F01AFA00220A4B17F064F802460B4621
:102130004046494617F03AFB22462B4617F00CFA68
:1021400022462B4617F056F804B0BDE8F08700BFD2
:102150000000F03F09F7FD0DE13D023F88B2017537
:10216000E0EF493F3B8F68B52882A43F5544880E75
:1021700055C1C93F7D6FEB0312D6D43F5555555518
:102180005555C53F82922EB1C5B8B33F59018D1B3D
:102190006C06E63FC88A599CE52A00404B2D8A1CF4
:1021A000273A0340000000002DE9F84F1D46534236
:1021B000134325F0004ADFF8E0E14AEAD3737345A0
:1021C000144606460F4647D8C0F1000848EA000802
:1021D00021F0004343EAD878F0458B463CD805F11E
:1021E000404808F5801858EA020850D04FEAA57810
:1021F00008F0020848EAD17850EA030134D052EAE4
:102200000A023CD0F24557D0734538D0A3EB0A03FD
:102210001B153C2B42DC002D70DB22462B46304642
:10222000394617F0C3FA15F093F8FEF751FBB8F1F1
:10223000010F5FD0B8F1020F4ED0B8F1000F62D09D
:1022400043A3D3E9002316F0D3FF43A3D3E900232C
:1022500016F0CEFFBDE8F88F32463B4620462946B1
:1022600016F0C8FFBDE8F88FB8F1020F1AD0B8F128
:10227000030F10D13AA1D1E90001BDE8F88FBBF1FD
:10228000000F14DB38A1D1E90001BDE8F88FBDE8EB
:10229000F84FFEF71DBB3946BDE8F88F32A1D1E9F2
:1022A0000001C4E72CA1D1E90001BDE8F88F30A1FD
:1022B000D1E90001BDE8F88F534526D0B8F1020FEF
:1022C000F0D0B8F1030FD5D0B8F1010F4FF00000F6
:1022D00029D00021BDE8F88F1DA3D3E9002316F013
:1022E00087FF02460B461CA1D1E9000116F080FFD2
:1022F000BDE8F88F01F10041BDE8F88F3C338CDA7E
:102300000020002193E7BDE8F88FB8F1020F18D044
:10231000B8F1030F10D0B8F1010F08D016A1D1E920
:102320000001BDE8F88F4FF00041BDE8F88F14A11F
:10233000D1E90001BDE8F88F13A1D1E90001BDE8A2
:10234000F88F13A1D1E90001BDE8F88FAFF3008049
:10235000075C143326A6A13C182D4454FB210940E8
:10236000182D4454FB2109C0182D4454FB21F93F7A
:10237000182D4454FB21F9BF182D4454FB21E93F8B
:10238000182D4454FB21E9BFD221337F7CD902C0F0
:10239000D221337F7CD902400000F07F0000000092
:1023A00043422DE9F047034321F000463E4A46EA06
:1023B000D373934204460D4613D896423DD03B4B0F
:1023C0009E428A4617DC36A3D3E9002316F012FF9B
:1023D0000022002317F050FBA8B320462946BDE891
:1023E000F08702460B4616F003FF02460B4617F035
:1023F000DDF9BDE8F0872E4B9E42354624DD33469D
:102400000246314616F0F6FE224606460F462B4699
:102410000020254916F0ECFE02460B4630463946B0
:1024200017F0C4F9FEF708FD0022224B17F094F8CC
:10243000BAF1000F2FDBBDE8F0870022002317F070
:10244000B5F9BDE8F087354622462B462046294699
:1024500016F0D0FE22462B4606460F4617F07CF8B3
:102460002246804689462B4600200F4916F0C0FEC2
:1024700002460B464046494617F098F932463B461D
:1024800016F0B8FEFEF7D8FC00220A4B17F064F8ED
:10249000BAF1000FCFDA01F100431946BDE8F08729
:1024A0009C7500883CE4377E0000F03FFFFF2F3E24
:1024B000FFFFDF3F0000E03F2DE9F8434E4B21F0E6
:1024C00000449C4206460F461BDC4C4B9C4222DDDE
:1024D0004B4B9C4263DD4B4B9C427BDD4A4B9C4209
:1024E00046DD01339C4240D041A3D3E9002310468E
:1024F000194617F031F806460F4630463946BDE812
:10250000F88302460B4617F027F806460F4630467A
:102510003946BDE8F88314F01BFF02F0B1FC00223D
:102520003A4B8046894616F065FEB4F1725F064666
:102530000F46ECDB42464B464046494617F00CF846
:1025400032463B4604460D463046394616F052FEAA
:1025500002460B462046294617F028F900222B4B4D
:1025600016F048FE06460F46D1E7294B9842BBD8E5
:102570003046394614F0ECFE0022264B16F0ECFFF4
:1025800000F04AF8002204460D46224B16F0E4FF04
:1025900022462B4616F0E0FF06460F46B7E714F03A
:1025A000D7FE00F039F800221A4B06460F4616F007
:1025B000D3FF32463B4604460D460020154917F02E
:1025C000F5F802460B462046294616F013FE06464D
:1025D0000F469CE714F0BCFE00F01EF800220D4BE5
:1025E00016F0BAFF06460F4691E700BFAFF3008032
:1025F0009C7500883CE4377EFFFFEF7F422ED63F7C
:10260000FFFF3540412E8640CD3386400000F03F2D
:102610007DF8B98F0000E03F2DE9F04FB04E21F07A
:102620000042B24283B004460D464FEAD1770DD93D
:10263000AC4EB24225D9C1F31303034340F0EC8002
:102640000FB10020002103B0BDE8F08FA64B9A42E5
:1026500000F2CB80A54B9A4200F2DC808AA3D3E93A
:10266000002316F0C7FD0022A14B17F005FA002841
:1026700000F006812046294600229D4B16F0BAFD47
:10268000E1E783A3D3E9002317F0F6F9002840F02F
:10269000C88081A3D3E900232046294617F0CEF94C
:1026A0000028CED1934E7EA3D3E9002306EBC706C4
:1026B0002046294616F050FFD6E9002316F09AFD71
:1026C00017F0FAF9064616F0E1FE77A3D3E90023E6
:1026D0008046894616F040FF02460B4620462946B2
:1026E00016F086FD72A3D3E90023CDE90001404630
:1026F000494616F031FF82468B4652465B46DDE97D
:10270000000116F075FD04460D4622462B46204674
:10271000294616F021FF68A3D3E9002380468946A5
:1027200016F01AFF66A3D3E9002316F061FD4246B6
:102730004B4616F011FF64A3D3E9002316F05AFDAF
:1027400042464B4616F008FF61A3D3E9002316F07A
:102750004FFD42464B4616F0FFFE5FA3D3E9002330
:1027600016F048FD42464B4616F0F6FE02460B4672
:102770002046294616F03CFD80468946002E58D05A
:102780002046294642464B4616F0E6FE424604469F
:102790000D464B4600204FF0804116F029FD0246C1
:1027A0000B462046294617F001F802460B465046D4
:1027B000594616F01DFDDDE9002316F019FD0B4604
:1027C00002464B49002016F013FD6FF47F739E42C2
:1027D00051DA06F57A7601EB065100224FF0B87314
:1027E00016F0BAFE03B0BDE8F08F434B9A423FF6B5
:1027F00059AF424BFC002344D3E9002316F0F8FC08
:102800003F4BC7F101062344CDE90001D3E900ABFA
:10281000F61B72E7002678E702460B4616F0EAFC44
:1028200011E719A3D3E900231046194616F094FEC8
:1028300009E702460B462046294616F08DFE002287
:1028400006460F464FF080434046494616F0D0FCFE
:1028500002460B463046394616F0A8FF22462B4664
:1028600016F0C6FC02460B460020214916F0C0FCBB
:1028700003B0BDE8F08F01EB065103B0BDE8F08F67
:10288000064642E7AFF300809C7500883CE4377E43
:10289000EF39FAFE422E864051302DD5104987C0BF
:1028A000FE822B654715F73F0000E0FE422EE63F13
:1028B000763C7935EF39EA3DD0A4BE726937663E81
:1028C000F16BD2C541BDBB3E2CDE25AF6A56113F30
:1028D00093BDBE166CC1663F3E5555555555C53F17
:1028E000412E8640FFFFEF7F422ED63FFFFF2F3E57
:1028F0000000F03F10A80100B1A2F03F20A80100A5
:1029000030A80100000000002DE9F04FB1F5801F54
:1029100085B006460F460B465ADA024621F00044BF
:10292000224300F0F8800029C0F27A810022D64BC1
:1029300016F012FED54A0B46934206460F466FF03C
:10294000350C4ADCC3F3130505F5152E0EF6647E2F
:102950000EF4801E8EF07F5282F440121C1542EA63
:102960000507A4F2FF3464440022C94B30463946BF
:1029700004EB1E5416F03CFCAB1CC3F31303022BF8
:1029800082468B464FF0000230DC002317F04CF8F3
:10299000002800F0C980002C00F04B81204616F082
:1029A00075FDA5A3D3E9002306460F4616F0D4FD16
:1029B000A3A3D3E9002304460D463046394616F05A
:1029C000CBFD02460B462046294616F013FC0AE0D2
:1029D000AE4A93424FF0000CB4DD32463B463046DF
:1029E000394616F007FC05B0BDE8F08F4FF0804384
:1029F00016F000FC02460B465046594616F0D6FE2D
:102A0000064620460F4616F041FD3246CDE900014C
:102A10003B4630463946CDE9026716F09DFD024639
:102A20000B468046894616F097FD87A3D3E900231D
:102A300006460F4616F090FD85A3D3E9002316F055
:102A4000D9FB32463B4616F087FD83A3D3E900232A
:102A500016F0D0FB32463B4616F07EFD80A3D3E94C
:102A6000002316F0C7FB42464B4616F075FD7EA3C9
:102A7000D3E90023804689463046394616F06CFD7E
:102A80007BA3D3E9002316F0B5FB32463B4616F094
:102A900063FD79A3D3E9002316F0ACFB32463B4635
:102AA00016F05AFD0B4602464946404616F0A2FB78
:102AB000A5F5C223C5F5D725A3F27A4351351D43A9
:102AC000002D8046894656DD0022724B50465946FD
:102AD00016F042FD52465B4616F03EFD06460F4696
:102AE000002C68D132463B464046494616F082FBF0
:102AF000DDE9022316F030FD02460B46304639462A
:102B000016F076FB02460B465046594616F070FB0F
:102B100005B0BDE8F08F0022002300205E4916F0CA
:102B200045FE05B0BDE8F08F55A3D3E9002350461C
:102B3000594616F011FD02460B460020554916F085
:102B400057FB524606460F465B465046594616F01E
:102B500003FD02460B463046394616F0FDFC06469C
:102B60000F46002C40F09A8002460B4650465946CC
:102B700016F03EFB37E7002C00F0A4802EA3D3E92B
:102B80000023DDE9000116F0E7FC42464B4604460F
:102B90000D465046594616F02BFBDDE9022316F090
:102BA000DBFC27A3D3E9002306460F46DDE900013D
:102BB00016F0D2FC21E020A3D3E90023DDE90001D7
:102BC00016F0CAFC32463B4604460D46404649468E
:102BD00016F010FBDDE9022316F0BEFC18A3D3E9C2
:102BE000002380468946DDE9000116F0B5FC024667
:102BF0000B464046494616F0FDFA02460B46304663
:102C0000394616F0F5FA52465B4616F0F1FA0246DE
:102C10000B462046294616F0EBFA05B0BDE8F08FCA
:102C200002460B4616F0E4FA0022002316F0BEFD21
:102C3000D9E600200021D6E60000E0FE422EE63F65
:102C4000763C7935EF39EA3D44523EDF12F1C23F1E
:102C5000DE03CB966446C73F599322942449D23F62
:102C6000935555555555E53F9FC678D0099AC33FB2
:102C7000AF788E1DC571CC3F04FA97999999D93FC9
:102C8000555555555555D53F00005043FFFFEF7F33
:102C90000000F03F0000E03F000050C3204616F067
:102CA000F5FB0FA3D3E900238046894616F054FCB8
:102CB0000DA3D3E9002304460D464046494616F0CD
:102CC0004BFC9AE702460B465046594616F090FADE
:102CD000DDE9022316F040FC14E700BFAFF30080EB
:102CE0000000E0FE422EE63F763C7935EF39EA3DC2
:102CF000B1F5801F2DE9F84304460D460B461ADA5C
:102D0000024621F00046324359D000295FDB002201
:102D10003B4B16F021FC3B4A0D462B4693420446A2
:102D20006FF035010CDD22462B462046294616F071
:102D300061FABDE8F883334A93424FF00001F2DCB8
:102D40001815A0F2FF3008444FEAD0794844C3F385
:102D5000130816F09BFBC9F57F73033348EA03554C
:102D600006460F4620462946FFF7CEFD1EA3D3E9AF
:102D70000023804689463046394616F0EDFB1CA3F9
:102D8000D3E9002304460D464046494616F0E4FBCD
:102D900002460B462046294616F02CFA16A3D3E924
:102DA000002304460D463046394616F0D5FB024650
:102DB0000B462046294616F01DFABDE8F88300228E
:102DC00000230020104916F0F1FCBDE8F88302460C
:102DD0000B4616F00DFA0022002316F0E7FCBDE8C2
:102DE000F88300BFAFF30080362BF111F3FE593D9D
:102DF0000EE526157BCBDB3F00609F501344D33F8D
:102E000000005043FFFFEF7F000050C300000000B0
:102E10002DE9F04F23F0004757EA020493B037D072
:102E2000674C21F00046A64283460D4629DC9A46AF
:102E3000964625D0A74224DC614CA74279D0002DCC
:102E400080468946CDE9002377DB0024BEF1000FE0
:102E50002CD15B4B9F4200F08B805A4B9F4261D03C
:102E6000BAF1804F00F0C383574B9A451ED1002D15
:102E70001CDB4046494613B0BDE8F04F15F02CB9B5
:102E800058B106F1404606F5801656EA0B0306D106
:102E90004C49002013B0BDE8F08FB742CCDD4B4861
:102EA00013B0BDE8F04F15F0A7BF002440464946D7
:102EB00014F04EFABBF1000F19D126B1414B25F0A9
:102EC00040429A4213D1BAF1000FC0F2CA83002DDA
:102ED000E0DA06F1404606F5801656EA040300F0F3
:102EE000A584012CD6D101F100431946D2E7ED0F9C
:102EF000013D54EA05034ED0354B9F426EDD03F190
:102F000004739F4240F3FE83324B9E424EDDBAF182
:102F1000000F4EDD28A3D3E900231046194616F012
:102F20001BFBB7E7BAF1000FC0F252844046494696
:102F3000B0E7BEF1000F82D0A3E7274B9F4228DC09
:102F4000A3F154739F4280DD3B15A3F2FF33142B92
:102F500040F35484C3F134032EFA03F202FA03F36C
:102F60009E457FF472AF02F00102C2F102046DE7E8
:102F700006F1404303F5801353EA0B0388D0154B49
:102F80009E4240F33B83BAF1000F12DBDDE9000102
:102F900080E702245AE742464B461046194616F08F
:102FA00027F902460B4616F001FC73E7BAF1000F51
:102FB000B0DB002000216DE79C7500883CE4377E83
:102FC0000000F07F0000F03F0000E03F5CB0010037
:102FD0000000E041FFFFEF3FFFFF3F43B6F5801FDA
:102FE0004FF0000205DAD84B16F0B6FA6FF0340253
:102FF0000E463315D54FC6F31306A3F2FF33134421
:1030000046F07F5ABE421A460D934AF4401A40F3E6
:103010002F83CF4B9E4240F30D849FEDB57B8DED0A
:10302000087B8DED0E7B9FEDB47B13468DED067B0B
:1030300001330D93AAF5801A0027DDE906235146D6
:10304000CDE90A0116F0D4F8DDE906238046894669
:10305000DDE90A0116F0CEF802460B460020BD4914
:1030600016F0A4FB0A460146CDE910121346494664
:103070000246404616F070FA4FEA6A0343F00053E6
:103080008C46834603F50023CDE904BCDA468B4623
:10309000D9190023CDE902AB0293DDE902AB002090
:1030A00006460F4602460B465046594616F054FA5D
:1030B00002460B464046494616F09AF8DDE90623DB
:1030C000804689463046394616F092F802460B464D
:1030D000DDE90A0116F08CF852465B4616F03CFA20
:1030E00002460B464046494616F082F8DDE91023B9
:1030F00016F032FADDE90467CDE9060132463B46B7
:103100003046394616F028FA7DA3D3E90023064657
:103110000F4616F021FA7CA3D3E9002316F06AF8D3
:1031200032463B4616F018FA79A3D3E9002316F08D
:1031300061F832463B4616F00FFA77A3D3E9002335
:1031400016F058F832463B4616F006FA74A3D3E957
:10315000002316F04FF832463B4616F0FDF972A3F5
:10316000D3E9002316F046F83246804689463B46AE
:103170003046394616F0F0F902460B4640464946BD
:1031800016F0EAF9524606460F465B46DDE90401B1
:1031900016F030F8DDE9062316F0DEF932463B463C
:1031A00016F028F85246804689465B4650465946F6
:1031B00016F0D2F90022684BCDE90A0116F01AF890
:1031C00042464B4616F016F802980F46064632461F
:1031D0003B465046594616F0BFF9002282468B46C0
:1031E0005D4B3046394616F003F8DDE90A2315F049
:1031F000FFFF02460B464046494615F0F9FFDDE960
:10320000042316F0A9F93246804689463B46DDE99B
:10321000060116F0A1F902460B464046494615F054
:10322000E9FF8046894602460B4650465946CDE99D
:1032300004AB15F0DFFFDDE902AB3DA3D3E90023CA
:1032400050460F4616F088F9DDE90423CDE9020166
:103250003946504615F0CCFF02460B4640464946DB
:1032600015F0C6FF34A3D3E9002316F075F934A393
:10327000D3E90023804689465046394616F06CF95A
:1032800002460B464046494615F0B4FFDDE90E23E1
:1032900015F0B0FF80460D98894616F0F7F84246C3
:1032A00006460F464B46DDE9020115F0A3FFDDE9B6
:1032B000082315F09FFF32463B4615F09BFF324630
:1032C0003B4650468B4615F093FFDDE9082315F089
:1032D0008FFFDDE9022315F08BFF02460B464046C7
:1032E000494615F085FF8046894637E0AFF30080F8
:1032F0000000000000000000000000000000F03F9F
:10330000EF4E454A287ECA3F65DBC9934A86CD3FCA
:1033100001411DA96074D13F4D268F515555D53FB0
:10332000FFAB6FDBB66DDB3F033333333333E33F48
:10333000000000E009C7EE3FFD033ADC09C7EE3F9D
:10334000F5015B14E02F3EBE000040438E98030061
:1033500079B60B000000F03F00000840013C54EA41
:10336000050300F079819FEDC87B8DED047BDDE9DD
:1033700000120B461446CDE9023400230293DDE926
:10338000024508462B461146224615F031FF5246AB
:103390005B4616F0E1F8DDE9002306460F4640469D
:1033A000494616F0D9F802460B463046394615F024
:1033B00021FF2246804689462B4650465946CDE994
:1033C000008916F0C9F80B46024606460F464046ED
:1033D000494615F00FFFC64B994204460D468A46F2
:1033E00040F3168101F13F4303F5E003034340F04E
:1033F000F781A7A3D3E90023DDE9000115F0FAFE68
:103400003246804689463B462046294615F0F0FE66
:1034100002460B464046494616F02EFB002840F077
:10342000DF81A8464FEA28534FF48012A3F2FE33FF
:1034300042FA03F35344C3F30A52AE4DA2F2FF32F1
:103440001541C3F3130423EA05010020C2F1140B54
:1034500044F48014BAF1000F02460B4644FA0BFB09
:1034600030463946B8BFCBF1000B15F0C1FE02461D
:103470000B4606460F46DDE9000115F0BBFE4FEA9C
:103480000B5A0D46002484A3D3E900232046294685
:1034900016F062F83246804689463B462046294669
:1034A00015F0A6FE02460B46DDE9000115F0A0FE70
:1034B0007BA3D3E9002316F04FF87BA3D3E90023C5
:1034C00006460F462046294616F046F802460B46A9
:1034D0003046394615F08EFE06460F4602460B462C
:1034E0004046494615F086FE42464B4604460D4688
:1034F00015F07EFE02460B463046394615F078FE42
:103500002246804689462B462046294616F024F856
:1035100067A3D3E9002306460F4616F01DF866A3FD
:10352000D3E9002315F064FE32463B4616F014F84A
:1035300063A3D3E9002315F05DFE32463B4616F047
:103540000BF861A3D3E9002315F052FE32463B4647
:1035500016F002F85EA3D3E9002315F04BFE3246C5
:103560003B4615F0F9FF02460B462046294615F06A
:103570003FFE06460F4602460B462046294615F0FA
:10358000EBFF0022CDE900014FF080433046394681
:1035900015F02EFE02460B46DDE9000116F006F995
:1035A000424606460F464B462046294615F0D4FFB4
:1035B00042464B4615F01EFE02460B463046394643
:1035C00015F016FE22462B4615F012FE02460B465B
:1035D0000020494915F00CFE8A44BAF5801FC0F25C
:1035E00039815146DDE9042315F0B6FF52E4424625
:1035F0004B464046494615F0AFFF4BE4BAF1000F89
:10360000BFF6D7ACDDE90034184604F1004141E4CF
:103610003A4B21F00048984540F3FF80384B0B446B
:1036200003430CD132463B4615F0E2FD02460B4601
:10363000DDE9000116F00CFA00283FF4F3AEDDE9F5
:10364000040125A3D3E9002315F086FF22A3D3E9C3
:10365000002315F081FF1DE49FED217B8DED047BA0
:1036600085E602460B460020234916F09FF82EE41B
:103670009FED1D7B8DED087B8DED0E7B9FED027B1D
:1036800000278DED067BD8E4000000000000F03F2D
:10369000FE822B654715973C00000000432EE63F55
:1036A000EF39FAFE422EE63F396CA80C615C20BE71
:1036B000D0A4BE726937663EF16BD2C541BDBB3E38
:1036C0002CDE25AF6A56113F93BDBE166CC1663F16
:1036D0003E5555555555C53F59F3F8C21F6EA501C6
:1036E000000000000000F0BF00000000000000002B
:1036F000FFFF8F40FFFF0F000000F03FFFCB904027
:1037000000346F3F684B9E427FF750AC674B9E4240
:103710003FF7FDAB0022654B15F06AFD52A3D3E9DC
:10372000002306460F4615F017FF51A3D3E90023E7
:10373000804689463046394615F00EFF0022824603
:103740008B465B4B3046394615F006FF02460B466A
:1037500049A1D1E9000115F04BFD32463B4615F079
:10376000FBFE02460B460020524915F041FD324651
:10377000CDE902013B463046394615F0EDFE0246E2
:103780000B46DDE9020115F0E7FE3DA3D3E9002376
:1037900015F0E2FE02460B465046594615F028FD4C
:1037A00002460B4606460F464046494615F022FDA6
:1037B00042464B46002082468B4615F019FD0246D4
:1037C0000B463046394615F013FD80468946C5E55F
:1037D00042464B460020354915F0E8FFFFF75ABB3B
:1037E000DDE9040128A3D3E9002315F0B5FE26A3E3
:1037F000D3E9002315F0B0FEFFF74CBBBEF1000F7C
:103800007FF453ABC3F1140347FA03F202FA03F354
:103810009F4223D07446FFF720BB264B98453FF7C5
:1038200001AEDDE90223924693462BE602460B46A3
:10383000FFF7B3BB9FED167B8DED087B9FED167BED
:103840008DED0E7B9FED167B4FF480278DED067B73
:10385000FFF7F3BB5A4601F04FFDC3E602F0010249
:10386000C2F10204FFF7F9BA000000604715F73F04
:1038700044DF5DF80BAE543E555555555555D53F73
:10388000FE822B654715F73F9C7500883CE4377E28
:103890000000004003B8E23F06D0CF43EBFD4C3EB2
:1038A000000000000000F83FFEFFEF3F0000F03F87
:1038B0000000D03F0000E03F2DE9F0479C4B21F095
:1038C00000479F4290B08046894640F38E80994BD6
:1038D0009F420C46924626DC00298BA3D3E90023A5
:1038E00040F3B08115F084FC934B9F4204460D4693
:1038F00000F0908086A3D3E9002315F079FC0246FE
:103900000B46CAE900232046294615F071FC80A326
:10391000D3E9002315F06CFC0125CAE90201284611
:1039200010B0BDE8F087854B9F4240F39080844BF8
:103930009F4265DC3D15A5F21645A7EB05531946D8
:103940001F46064616F0B8F815F0A0FD80468946D9
:1039500042464B4630463946CDE90A8915F048FCC7
:103960000022784B15F0F8FD8946804616F0A4F841
:1039700015F08CFD06460F4632463B46404649460A
:10398000CDE90C6715F034FC00226E4B15F0E4FD18
:1039900000220023CDE90E0116F046F8002800F0C1
:1039A0006F81002330463946002216F03DF800288A
:1039B00014BF01230223644A019202212A46009186
:1039C0000AA8514600F08CFB002C054614DADAF800
:1039D0000420DAF80C3002F1004203F100434542C2
:1039E000CAF80420CAF80C3006E000200021C2E921
:1039F0000089C2E902010025284610B0BDE8F08721
:103A000002460B4615F0F4FB0025CAE90201CAE99B
:103A10000001F1E740A3D3E9002315F0E9FB40A33F
:103A2000D3E900230D46044615F0E2FB02460B469F
:103A3000CAE900232946204615F0DAFB38A3D3E96A
:103A4000002315F0D5FB0125CAE90201D4E713F0E4
:103A50007FFC35A3D3E900238046894615F07CFD21
:103A600000223A4B15F0C6FB16F026F8054615F075
:103A70000DFD25A3D3E90023CDE9060115F06CFD6A
:103A800002460B464046494615F0B2FB20A3D3E957
:103A90000023CDE90201DDE9060115F05DFD1F2DD2
:103AA00080468946CDE9048954DC294B6A1E53F8C7
:103AB00022309F424ED002460B46DDE9020115F04E
:103AC00097FB80468946CAE9008942464B46DDE9B4
:103AD000020115F08DFBDDE9042315F089FB002CB4
:103AE000CAE9020188DA09F1004401F100436D429C
:103AF000CAF80080CAF80440CAF80800CAF80C30B6
:103B00007AE700BFAFF3008000004054FB21F93F8B
:103B10003163621A61B4D03D0000601A61B4D03DD7
:103B20007370032E8A19A33B83C8C96D305FE43FCD
:103B3000FB21E93F7BD90240FB21F93FFB213941C1
:103B4000FFFFEF7F0000704170BB01000000E03F0D
:103B5000F0BA0100DDE90423DDE9020115F048FBBC
:103B60003F15C1F30A53FB1A80468946102BCAE958
:103B70000089AADD58A3D3E90023DDE9060115F089
:103B8000EBFC8046894602460B46DDE9020115F052
:103B90002FFB02460B46DDE90201CDE9082315F0B3
:103BA00027FB42464B4615F023FB4DA3D3E90023E8
:103BB00080468946DDE9060115F0CEFC42464B46BB
:103BC00015F016FB0B46CDE904010246DDE90801BC
:103BD00015F00EFBC1F30A53FF1A80468946312FB8
:103BE000CAE900896CDD41A3D3E90023DDE90601C0
:103BF00015F0B2FCDDE9088906460F4602460B4681
:103C00004046494615F0F4FA02460B4640464946FE
:103C1000CDE9022315F0ECFA32463B4615F0E8FAFE
:103C200034A3D3E9002306460F46DDE9060115F06B
:103C300093FC32463B4615F0DBFA02460B46CDE9D3
:103C400004233AE715F0D6FA274B9F4204460D4667
:103C500018D01FA3D3E9002315F0CCFA02460B4677
:103C6000CAE900232946204615F0C2FA18A3D3E971
:103C7000002315F0BFFA4FF0FF35CAE90201BBE699
:103C8000032398E614A3D3E9002315F0B3FA14A391
:103C9000D3E900230D46044615F0ACFA02460B4664
:103CA000CAE900232946204615F0A2FA0CA3D3E95D
:103CB000002315F09FFA4FF0FF35CAE902019BE699
:103CC0009DED087B8DED027BFFE600BFAFF300802A
:103CD0003163621A61B4D03D0000601A61B4D03D16
:103CE0007370032E8A19A33BFB21F93F0000002EBD
:103CF0008A19A33BC14920259A837B390000000023
:103D0000594A2DE9F84F21F00048904506460F46E4
:103D10002BDC564B0029B4BF554D564D98454FF0FE
:103D2000000410DC544B984570DC4DA3D3E900230C
:103D300015F060FA0022514B15F09EFED8B13046C6
:103D40003946BDE8F88F4E4B98457CDD4D4B984584
:103D500044DD013398453ED03046394640A3D3E98F
:103D6000002315F0F9FBBDE8F88F02460B4615F06D
:103D700041FABDE8F88F3046394613F0E9FA01F010
:103D80007FF806460F4632463B463046394615F028
:103D900031FA324682468B463B463046394615F06C
:103DA000DBFB002280468946344B3046394615F00D
:103DB00021FA02460B464046494615F0F7FC0246FA
:103DC0000B465046594615F013FA22462B4615F07D
:103DD000C3FBBDE8F88F2C4B9842BDD8304639461E
:103DE00013F0B6FA0022234B15F0B6FBFEF714FCD5
:103DF00006460F4602460B462046294615F0ACFB08
:103E000032463B4615F0A8FBBDE8F88F13F0A0FA48
:103E100001F036F81D4B984506460F46B3DD0022EB
:103E2000164B15F0E7F902460B463046394615F0B9
:103E3000BDFC32463B4615F0DDF922462B4615F017
:103E40008BFBBDE8F88F13F083FAFEF7E5FB024623
:103E50000B462046294615F07FFBBDE8F88F00BFD2
:103E60003374AC3C1F7BAC7FFFFFEF7FFFFF35401F
:103E70000000E0BF0000E03FFFFF2F3E0000F03FEA
:103E8000412E8640CD3386407DF8B98FFFFFEF3F4E
:103E90002DE9F04F21F00048B8F1795F85B0064672
:103EA0000F4692469B466BDA15F006FE002800F09E
:103EB000EA8032463B463046394615F04DFB74A346
:103EC000D3E9002304460D4615F046FB72A3D3E95F
:103ED000002315F08FF922462B4615F03DFB70A309
:103EE000D3E9002315F084F922462B4615F034FB64
:103EF0006DA3D3E9002315F07DF922462B4615F07A
:103F00002BFB6BA3D3E9002315F072F922462B4655
:103F100015F022FB68A3D3E9002315F06BF92246C4
:103F20002B4615F019FBCDE900010022664B204617
:103F3000294615F011FBDDE900238046894620461D
:103F4000294615F009FB524604460D465B463046AD
:103F5000394615F001FB02460B462046294615F06E
:103F600047F902460B464046494615F041F90246DC
:103F70000B460020554915F03BF905B0BDE8F08F20
:103F800002460B4615F0E8FA41A3D3E900230446A4
:103F90000D4615F0E1FA40A3D3E9002315F02AF904
:103FA00022462B4615F0D8FA3DA3D3E9002315F09D
:103FB0001FF922462B4615F0CFFA3BA3D3E9002385
:103FC00015F018F922462B4615F0C6FA38A3D3E9A6
:103FD000002315F00DF922462B4615F0BDFA36A345
:103FE000D3E9002315F006F92B46224615F0B4FA62
:103FF000374B9845CDE9000197DD364B984539DCC4
:10400000A8F500130022002030499046994615F08B
:10401000EFF8CDE9020100222B4B2046294615F08E
:104020009BFA42464B4615F0E3F8DDE90023804653
:1040300089462046294615F08FFA524604460D4619
:104040005B463046394615F087FA02460B46204655
:10405000294615F0CDF802460B464046494615F074
:10406000C7F802460B46DDE9020115F0C1F805B0BC
:10407000BDE8F08F9FED127B4FF000088DED027BC5
:10408000DFF85490C7E71149002005B0BDE8F08F74
:10409000D43888BEE9FAA8BDC4B1B4BD9EEE213EB5
:1040A000AD529C804F7E923E9015CB19A001FA3EF6
:1040B0007751C1166CC1563F4C5555555555A53FC6
:1040C000000000000000E73F0000E03F0000F03F7C
:1040D0003233D33F0000E93F0000D23F0000000030
:1040E0002DE9F04FADF51B7D9F4CA49E9F4D54F8DC
:1040F000264007942646D41E85FB0475E417C4EBBE
:10410000A50424EAE4741D460A93631CA3EB83030D
:10411000013D02EBC30306932B460B940395651BED
:10412000F418049008911AD42C4400260027013476
:104130000DF18808DDF8949208E059F8250015F093
:10414000A5F90135A542E8E8020108D0002DF4DA0E
:10415000013530463946A542E8E80201F6D1079B11
:10416000002BC0F2DF83079B03F1010B0A9B22A9FE
:10417000DB001A4601EB03090093049B0DF5E47A7A
:1041800019460AEBCB0B01EB0208039B002BC0F294
:10419000F582049C4D460026002775E90223F4E8C9
:1041A000020115F0D9F902460B463046394615F0A2
:1041B00021F8444506460F46EFD1EAE80267DA45A2
:1041C00009F10809E1D107990098049C009101F1D7
:1041D0008043013B9B0020441A1F83460EA80244E3
:1041E00003440C920D93009A9AA901EBC203002A92
:1041F00053E9284529DD0DF5E47A0AEBC2080DF1F3
:10420000340900225A4B2046294615F0A5F915F02D
:1042100053FC15F03BF90022564B06460F4615F0AD
:104220009BF902460B462046294614F0E1FF15F0A3
:1042300043FC78E9022349F8040F3946304614F06C
:10424000D9FFD04504460D46DBD1DDF81890204655
:1042500029464A4601F050F800224FF07F530446A9
:104260000D4615F079F9FCF75FFD0022424B15F081
:1042700073F902460B462046294614F0B9FF0D4655
:10428000044615F019FC804615F000F90B4602466D
:104290002946204614F0ACFF4B46002B06460F463D
:1042A00040F3F980009A0EA9013AC9F1180351F8B8
:1042B000225045FA03F101FA03F30EA8EB1A40F875
:1042C0002230C9F11705884443FA05F5002D6DDD4C
:1042D000009B002B08F1010840F36F820E9C002C1C
:1042E00040F01683009B012B40F38F820EAA01231E
:1042F00052F8044F002C00F08382581C0EAAC4F11F
:10430000807442F82340009A824219DD0EAA0EAC56
:1043100052F820106FF07F42511A44F82010009993
:10432000023399420CDD1046009A0EA901EB83037B
:1043300001EB82011A68821A43F8042B8B42F9D1EF
:10434000069B002B1ADD069B012B4FF0010440F069
:104350003C82009B5A1E0EAB0EA953F82230C3F3C9
:10436000160341F822303CE210C00100ABAAAA2A91
:104370000000703E0000704100002040022D15D169
:1043800032463B460020924914F032FF06460F4663
:10439000069A8F49002000F0AFFF02460B463046D8
:1043A000394614F025FF022506460F460022002359
:1043B0003046394615F038FB002800F03782009A65
:1043C000079B501E83420FDC02F18043013B0EAA83
:1043D0000D9C02EB8303002253F80419A34242EA26
:1043E0000102F9D1002A67D1079B0EAA013B52F8BE
:1043F0002330002B40F018820C9A012352F8041944
:1044000001330029FAD0009AD31802F1010A9A4523
:1044100009933DDC009B0A990B9A0B4409990AEB1E
:104420000208994622AB08F1804803EBC9098B18B2
:10443000A59A08F1FF3802EB880872AA02EBCA0AB3
:10444000A59A02EB8303009358F8040F15F01EF8A9
:10445000039B002BE9E802014FF000064FF0000734
:1044600011DB049C4D4675E90223F4E8020115F0C6
:1044700073F802460B463046394614F0BBFE5C45E5
:1044800006460F46EFD1009B9845EAE80267DBD16C
:10449000099B0093A7E606D1009B0EAA013B52F8A8
:1044A0002350ED1512E700224A4B15F0DBFA0028E5
:1044B00040F06E81054679E70EA9039551F820304A
:1044C0000699CDF8248018390246009006916BB900
:1044D00000F18043013B0EA800EB830353F804096D
:1044E000013A18390028F9D000920691069A384905
:1044F000002000F001FF009B002B04460D46C0F297
:10450000F781DA0072A901EB020B06920EAA02EB08
:104510008306DFF8C4904FF000080BF1080704365B
:1045200056F8040D14F0B2FF22462B4615F014F88D
:104530004B4667E9020142462046294615F00CF831
:104540000EAB9E4204460D46EAD14AACDDF81C9003
:1045500004944FF0000AB9F1000FC0F22B81DFF88C
:104560007C805D4618A1D1E90001002600270024C7
:1045700003E0544510DCF8E80201F5E8022314F0EA
:10458000EBFF02460B463046394614F033FE013449
:10459000A14506460F46ECDA049B03EBCA03ABF1D8
:1045A000080BC3E9006770AB9B450AF1010AD2D141
:1045B000A49B049C032B00F28980DFE803F0C58EE6
:1045C0008E1100BFAFF3008000000040FB21F93FD7
:1045D0000000F03F0000E03F0000703E58A80100DE
:1045E000009B002B40F38181069A04EB020ADAE972
:1045F000008902F1080525440DF5987B1AED027B30
:1046000042464B4651EC170B8DED047B14F0F2FD46
:1046100006460F4602460B46DDE9040114F0E8FDAC
:1046200042464B4614F0E6FD65E902015D45B046A1
:10463000B9466AE90267E1D1009B012B40F355813D
:10464000069BE518D5E9008903F1080B04EB0B0A7A
:1046500015ED027B42464B4651EC170B8DED007B6E
:1046600014F0C8FD06460F4602460B46DDE9000180
:1046700014F0BEFD4B46424614F0BCFD6AE902014F
:104680004EAB5345B046B94665E90267E0D100201C
:10469000002104EB0B0575E9022314F0ABFDAA45DC
:1046A000F9D1039B002B00F00A816268E368089F40
:1046B0002568A4683D6002F1004203F1004301F166
:1046C00000417A60FB60BC6038617961099B03F04E
:1046D00007000DF51B7DBDE8F08F069D08352544CC
:1046E0000020002175E9022314F084FDA542F9D1D0
:1046F000039B002B00F0D280089E024601F100438C
:1047000086E80C000B460246D4E9000114F070FD67
:10471000009B002B0BDD4CAD0124F5E8022314F0C7
:1047200069FD009B0134A342F7DA039B13B101F149
:1047300000431946089BC3E90201099B03F00700E7
:104740000DF51B7DBDE8F08F069D0835002000218A
:10475000254475E9022314F04DFDAC42F9D1039BC9
:1047600013B101F100431946089BC3E90001099BFD
:1047700003F007000DF51B7DBDE8F08F0026002734
:10478000EAE80267DA4509F108097FF4FEAC1AE5A8
:10479000009B002B08F10108C8BF02253FF79EAD22
:1047A00032463B460020614914F022FD02250646B0
:1047B0000F46FBE500260027EEE6069B002B27DDD3
:1047C0000024069B012B3FF4C4AD022B09D1009BB2
:1047D0005A1E0EAB0EA953F82230C3F3150341F84D
:1047E0002230022D7FF4E2AD32463B4600204F4995
:1047F00014F0FEFC06460F46002C3FF4D7ADC7E58B
:104800000099013399427FF473AD069B002BD8DCED
:10481000022D7FF4CBAD32463B460020434914F0D5
:10482000E7FC06460F46C1E50123ECE53946069F45
:1048300003957A423046CDF8248000F05DFD0022D9
:104840003B4B04460D4615F00DF9002843D00022DD
:10485000384B2046294614F07FFE15F02DF9064608
:1048600014F014FE0022324B14F076FE02460B4682
:104870002046294614F0BCFC15F01EF900990B46A1
:1048800001331A4600933B46183306930B460EA994
:1048900041F82300134641F8236027E6089B0246AF
:1048A000C3E900010B46D4E9000114F0A1FC009B10
:1048B000002B3FF730AF089BC3E902013DE7D4E985
:1048C0000067D4E90223089DC5E90401C5E9006732
:1048D000C5E90223FAE62946204615F0EDF8009ACC
:1048E0000EA941F8220001E64AAC00200021D8E6DA
:1048F000A49B032B3FF6EAAE01A252F823F000BFBF
:104900001F4900001749000017490000E94800004E
:1049100001200023F2E4002000214AACE8E6002058
:1049200000211CE70A9BDB0000934CE40000F03FF1
:10493000000070410000703E2DE9F04F21F000466C
:10494000B6F1795F85B004460D469046994604DA83
:1049500015F0B2F8002800F0858022462B4620464C
:10496000294614F0F9FD06460F4602460B4620463E
:10497000294614F0F1FD41A3D3E9002382468B467A
:104980003046394614F0E8FD3EA3D3E9002314F085
:104990002FFC32463B4614F0DFFD3CA3D3E9002355
:1049A00014F028FC32463B4614F0D6FD39A3D3E977
:1049B000002314F01DFC32463B4614F0CDFD37A316
:1049C000D3E9002314F016FC0E9BCDE900019BB344
:1049D0000022294B4046494614F0BEFDDDE9002384
:1049E000CDE902015046594614F0B6FD02460B4689
:1049F000DDE9020114F0FCFB32463B4614F0ACFD4D
:104A000042464B4614F0F4FB19A3D3E900230646B3
:104A10000F465046594614F09FFD02460B4630465D
:104A2000394614F0E7FB02460B462046294614F0AF
:104A3000DFFB05B0BDE8F08F02460B463046394635
:104A400014F08AFD0AA3D3E9002314F0D1FB5246E7
:104A50005B4614F081FD22462B4614F0CBFB05B0DB
:104A6000BDE8F08F2046294605B0BDE8F08F00BFB5
:104A7000495555555555C53F0000E03F7CD5CF5AA7
:104A80003AD9E53DEB9C2B8AE6E55A3E7DFEB157CF
:104A9000E31DC73ED561C119A0012A3FA6F8101138
:104AA0001111813F000000002DE9F04FBE4C21F0B4
:104AB000004687B0A64282468B460F46CDE90023CA
:104AC0001BDC14F0F9FF002837D153461E43109B1E
:104AD0000133334300F0B381109B012B00F0C881F8
:104AE00052465B460020B14914F060FE04460D4674
:104AF0002046294607B0BDE8F08FAD4B9E421CDD35
:104B00000029C0F2A98152465B4687A1D1E9000184
:104B100014F06EFBDDE9002304460D4684A1D1E9C3
:104B2000000114F065FB9FED847B22462B468DED42
:104B3000007B14F05FFB82468B4652465B46504634
:104B4000594614F009FD02460B468046894614F08A
:104B500003FD424604460D464B465046594614F066
:104B6000FBFC77A3D3E90023CDE9020120462946C7
:104B700014F0F2FC74A3D3E9002314F03BFB2246AB
:104B80002B4614F0E9FC72A3D3E9002314F032FBA6
:104B900022462B4614F0E0FC6FA3D3E9002314F067
:104BA00029FB22462B4614F0D7FC6DA3D3E9002342
:104BB00014F020FB22462B4614F0CEFC6AA3D3E966
:104BC000002314F017FB42464B4614F0C5FC68A3C3
:104BD000D3E90023CDE904012046294614F0BCFCAA
:104BE00065A3D3E9002314F005FB22462B4614F0FD
:104BF000B3FC63A3D3E9002314F0FCFA22462B464E
:104C000014F0AAFC60A3D3E9002314F0F3FA2246BF
:104C10002B4614F0A1FC5EA3D3E9002314F0EAFABA
:104C200022462B4614F098FC5BA3D3E9002314F032
:104C3000E1FA02460B46DDE9040114F0DBFADDE996
:104C4000022314F089FCDDE9004522462B4614F0CE
:104C5000D1FA42464B4614F07FFC02460B462046F2
:104C6000294614F0C7FA4EA3D3E9002304460D46A3
:104C7000DDE9020114F070FC22462B4614F0BAFA6A
:104C80000B460246804689465046594614F0B2FA11
:104C9000474B9E4204460D4600F38E80109B012B2D
:104CA0003BD002460B460020404914F07FFD002413
:104CB00006460F462046294652465B46CDE9006728
:104CC000CDE90201009414F093FADDE900AB02464D
:104CD0000B464046494614F08BFA52465B4614F0A8
:104CE0003BFC524604460D465B46DDE9020114F0EA
:104CF00033FC00222F4B14F07DFA02460B4620466F
:104D0000294614F077FA32463B4614F025FC524609
:104D10005B4614F06FFA04460D462046294607B05C
:104D2000BDE8F08FAFF30080182D4454FB21E93F1C
:104D3000075C143326A6813C000000000000000040
:104D4000D47ABF74702AFB3EE9A7F0320FB8123F45
:104D500068108D1AF726303F1583E0FEC8DB573FF9
:104D600093846EE9E326823FFE41B31BBAA1AB3FB9
:104D7000735360DBCB75F3BEA69237A0887E143FD9
:104D80000165F2F2D844433F280356C9226D6D3FB6
:104D900037D60684F464963F7AFE10111111C13F94
:104DA000635555555555D53FFFFF2F3E0000F0BFC9
:104DB0002794E53F0000F03F109814F067FB22466F
:104DC000CDE900012B462046294614F0C5FBDDE95C
:104DD0000023CDE902012046294614F00BFA0246D1
:104DE0000B46DDE9020114F0E1FC42464B4614F0AB
:104DF000FFF902460B465046594614F0F9F90246AF
:104E00000B4614F0F7F902460B46DDE9000114F0F9
:104E1000EFF90446B81700F00200C0F101000D469A
:104E200014F034FB02460B462046294614F094FB4E
:104E300004460D462046294607B0BDE8F08F50468F
:104E4000594612F085FA02460B4600200A4914F032
:104E5000ADFC04460D4660E7DDE9004501F1004187
:104E6000224605F1004382468B46CDE900234AE6FF
:104E700054465D4651E700BF0000F03F00000000CF
:104E80002DE9F04FD24A21F00043934285B082468B
:104E90008B460C462DD9CF4A93421AD8002C80F26B
:104EA0001681B5A3D3E900235046594614F0A2F960
:104EB0000022002314F0C2FDC0B9B1A3D3E900233E
:104EC0005046594614F048FB02460B460020C249A2
:104ED00008E1C24A934240F2D0800346C1F3130274
:104EE000134340F0F481002980F2C4800020BC49C3
:104EF000C0E0BC4A934200F22981BB4A934240F28F
:104F0000DE80002301930022B84B5046594614F02E
:104F100023FB06460F4602460B465046594614F000
:104F20001BFB99A3D3E9002304460D4614F014FBA0
:104F300097A3D3E9002314F05DF922462B4614F021
:104F40000BFB95A3D3E9002314F052F922462B461C
:104F500014F002FB92A3D3E9002314F04BF922468C
:104F60002B4614F0F9FA90A3D3E9002314F040F98A
:104F700022462B4614F0F0FA00229D4B14F03AF929
:104F80008046894602460B463046394614F0E4FA1C
:104F900002460B460020974914F02AF906460246BD
:104FA0000B460F464046494614F022F932468046E9
:104FB00089463B465046594614F0CEFA02460B4607
:104FC00000208D4914F014F902460B46404649462C
:104FD00014F0ECFB22462B4614F0BEFA019E02466A
:104FE0000B46002E38D0DDE9026732463B4614F00E
:104FF000FFF852465B4614F0AFFA32463B4614F0D7
:10500000F7F82B46224614F0F3F8019B01330646CD
:105010000F4600F00F81019B012B00F0F180019BF6
:105020000133392B39D8019B132B40F31281019C9A
:10503000C4F57F75033500222B0514F0DBF802461A
:105040000B465046594614F0D3F80022684B14F032
:10505000D1F801EB04510DE05046594614F07CFAAA
:1050600022462B4614F0C4F802460B4650465946D9
:1050700014F0BEF805B0BDE8F08F4DA3D3E90023CE
:1050800014F0FAFC00283FF409AF4BA3D3E9002346
:105090001046194614F060FAECE752465B4614F0ED
:1050A000A7F802460B460020514914F0A1F8019AD6
:1050B0004F4B01EB0251002214F09AF8DAE73EA3BD
:1050C000D3E9002314F096F802460B46CAE72CA356
:1050D000D3E900235046594614F03EFA0B464349A3
:1050E0000246002014F086F814F0E6FC019014F05B
:1050F000CDF933A3D3E9002306460F4614F02CFA6A
:1051000002460B465046594614F072F82EA3D3E9D6
:105110000023804689463046394614F01DFA06467B
:105120000F4632463B464046494614F061F8024677
:105130000B4682468B464046494614F059F83246A3
:105140003B4614F055F8CDE90201DCE62B4A9342C8
:1051500000F2958000291AA3D3E90023C0F2AC80A5
:1051600014F046F8012380468946019316A7D7E933
:105170000067D6E7AFF3008059F3F8C21F6EA501B0
:10518000FE822B654715F73F2DC3096EB7FD8ABE1A
:105190003952E686CACFD03EB7DBAA9E19CE143F5D
:1051A0008555FE19A0015A3FF41011111111A13FAC
:1051B000EF39FAFE422E86409C7500883CE4377E2B
:1051C0000000E0FE422EE63F763C7935EF39EA3DBD
:1051D00079684340412E86400000E0BFFFFFEF7F2B
:1051E0000000F0BF422ED63FFFFF8F3C0000E03FA3
:1051F0000000F03F0000084000001840B1A2F03F5E
:105200000022394B5046594614F018FC002844D06F
:10521000504659460022354B13F0ECFF02460B4630
:105220003046394613F0E4FF00224FF0404314F0BB
:1052300093F91FE702460B465046594613F0D8FF34
:1052400000222A4B14F088F90022284B13F0D0FFDB
:1052500010E7019C4FF400132341C3F17F575246DE
:105260005B4613F0C5FF002607F5401702460B46C4
:105270003046394613F0BCFF01EB0451FAE616A3A1
:10528000D3E9002314F068F9002C02460B464FF0D6
:105290000000FFF61CAE154924E732463B46504657
:1052A000594613F0A5FF02460B4613F0A3FF002258
:1052B0000F4B13F09FFFDDE613F09CFF4FF0FF3321
:1052C00080468946019306A7D7E9006729E7024689
:1052D0000B4613F08FFFCDE6FE822B654715F73F97
:1052E000763C7935EF39EABD0000D0BF0000E03FE1
:1052F0000000F03F00000000F8B5C1F30A56044674
:105300000D460B4617460EBB21F00043034386466D
:1053100025D00022344B14F01FF9344A974204463A
:105320000D460B462ADBC1F30A56363E3E4440F298
:10533000FE72964228DC002E12DD23F0FF4323F498
:10534000E00343EA065520462946F8BD40F2FF72C5
:105350009642EBD102460B4613F04CFFF8BDF8BD68
:1053600016F1350F1DDA4CF250339F4222462B4680
:1053700025DC19A1D1E9000113F0ACFE16A3D3E995
:10538000002314F0E9F8F8BD22462B4614A1D1E918
:10539000000113F09FFE12A3D3E9002314F0DCF800
:1053A000F8BD23F0FF4323F4E003363643EA065505
:1053B0002046294600220E4B14F0CEF8F8BD08A175
:1053C000D1E9000113F086FE05A3D3E9002314F010
:1053D000C3F8F8BDAFF3008059F3F8C21F6EA50102
:1053E0009C7500883CE4377E00005043B03CFFFFD2
:1053F0000000903C10B5054C237833B9044B13B131
:105400000448AFF300800123237010BD1005002075
:105410000000000068C101000C4B43B10C480D496D
:1054200010B5AFF300800C48036823B910BD0A48DB
:10543000036833B97047094B002BF7D0BDE8104023
:105440001847064B002BF5D0184700BF000000009E
:1054500068C10100140500201402002000000000B3
:10546000154B002B08BF134B9D46A3F5803A002136
:105470008B460F461348144A121A08F013FE0F4BBE
:10548000002B00D098470E4B002B00D098470020EF
:10549000002104000D000D48002802D00C48AFF395
:1054A000008013F04DFE2000290005F019FA13F0DA
:1054B00033FE00BF000008000000022000000000D2
:1054C0000000000000040020A40C002000000000E8
:1054D0000000000070B504460E4600F0D1F888B117
:1054E00003681B6B05469847082C0CD0A4F10903F0
:1054F000012B14D93246214610230D20BDE87040FF
:1055000004F0DEB870BD2B6828469B6A98470228D5
:10551000F0DC2B6828465B6A04219847EAE72B6891
:1055200028469B6A98470528E4DC2B6828465B6A76
:1055300008219847DEE700BF30B52DED028B83B020
:10554000054600F09DF8044640B103681B6B984780
:10555000032D50D8DFE805F0373F47080190019848
:1055600003B0BDEC028B30BD20460CF097F907EE7E
:10557000900A2046F8EEE78A0CF09EF907EE900AB2
:105580002046B8EEE78A0CF0A5F968EE087A07EE37
:10559000100AE8EEA87AB8EEC77AE7EE077AF5EED9
:1055A000407AF1EE10FAB1EEE78A03D517EE900AD1
:1055B00012F01AFCFDEEC87ACDED017A019803B025
:1055C000BDEC028B30BD204603B0BDEC028BBDE8C4
:1055D00030400CF063B9204603B0BDEC028BBDE84F
:1055E00030400CF069B9204603B0BDEC028BBDE839
:1055F00030400CF06FB900230193B0E738B5054691
:1056000000F03EF858B103681B6B0446984745B15B
:10561000012D04D12046BDE83840FBF79DB800209D
:1056200038BD2046BDE83840FBF776B810B50446D3
:1056300000F026F828B1036821465B6ABDE81040F7
:10564000184710BD0048704716FCFFFF704700BFA9
:1056500010B5034B036004460BF01CFF204610BD41
:1056600058B6010010B5054B036004460BF012FF5D
:10567000204614F0B3FC204610BD00BF58B6010010
:105680002DE9F043C04C236885B01BB1986805B084
:10569000BDE8F0834FF0FF31012001F0FFFCC0B204
:1056A00004F000FB002800F0ED800C2014F098FCC2
:1056B00003210646512001F0F1FCDFF8FCE2B34B78
:1056C000054605F00F07C5F3031815F4807518BFDC
:1056D0007346AF48394642460BF07CF82A1C18BF87
:1056E00001223946434630460EF090FA0023A9487D
:1056F000B3600BF06FF84FF0FF31032001F0CEFCE8
:10570000C0B204F0CFFA4FF0FF310546022001F09D
:10571000C5FCC0B204F0C6FA002D00F09A80002843
:1057200000F097800146284604F0ACF807460028B0
:1057300000F0A4804FF0FF31462001F0AFFC32288A
:1057400080462BD028DD382869D068283FD14FF01B
:10575000FF31012001F0A2FCC0B204F0A3FA81469F
:105760005C2014F03DFC0523054601934A46CDF824
:105770000080394633460DF01BFA2846B0600368B6
:10578000DB6A9847B06803681B6B984782480BF048
:1057900021F82660B0687AE7302818D14FF0FF3141
:1057A000012001F07BFCC0B204F07CFA814650205D
:1057B00014F016FC1FFA88F1054605234A460091AD
:1057C0000193394633460CF0C5FF2846D6E73A68C0
:1057D0000125002301950095D2F82480B3600F22A3
:1057E0000DF10F0332213846C047002856D14FF043
:1057F0003208414669480AF0EDFF4FF0FF310120C1
:1058000001F04CFCC0B204F04DFA8146502014F077
:10581000E7FB052305464A46CDF80080D0E74FF068
:10582000FF31012001F03AFCC0B204F03BFA81469E
:10583000502014F0D5FB052305464A46CDF80080DC
:105840003946019333460DF08FF8554B2B602846AF
:1058500094E754480AF0BEFF4FF0FF31192001F0E1
:105860001DFCC0B204F01EFA4FF0FF3105461820AF
:1058700001F014FCC0B204F015FA53E74A480AF0EC
:10588000A9FF86E74FF0FF31032001F007FCC0B20B
:1058900004F008FA00287FF408AFF8E63B680195A9
:1058A0000095D3F824800F220DF10F0330213846E4
:1058B000C04718B94FF0300841469BE73B68019557
:1058C0000095D3F824800D220DF10F0338213846BE
:1058D000C047C0B9382131480AF07CFF4FF0FF3192
:1058E000284601F0DBFBC0B204F0DCF98046502012
:1058F00014F076FB4FF0050E382305464246394634
:105900008DE808409EE73A6801950095D2F824801A
:105910000DF10F03752268213846C047E0B96821B0
:105920001E480AF057FF4FF0FF31284601F0B6FB42
:10593000C0B204F0B7F980465C2014F051FB4FF080
:10594000050E682305468DE8084042463946334631
:105950000DF02EF9284611E714480AF03BFFB06815
:1059600000287FF40CAF4FF0FF31032001F096FBCD
:10597000C0B204F097F918B10D480AF02BFF08E700
:105980000C480AF027FF04E72C050020E8A80100D6
:10599000F0A8010010A90100A8A90100CCA90100EC
:1059A000A8A8010020A9010034A90100B8A901009C
:1059B0004CA9010088A90100E0A8010008B501F088
:1059C0009FFCFBF76DFCBDE8084001F0FDB900BF8E
:1059D00008B501F095FCFBF7D3FCBDE8084001F0E9
:1059E000F3B900BF08B501F08BFC11F027FDBDE84D
:1059F000084001F0E9B900BF08B501F081FC12F0E0
:105A00002FF9BDE8084001F0DFB900BF08B501F08B
:105A100077FCFBF755FCBDE8084001F0D5B900BFA5
:105A200008B501F06DFC11F047FFBDE8084001F03A
:105A3000CBB900BF08B501F063FCFAF7ADFEBDE8D5
:105A4000084001F0C1B900BF08B501F059FC11F0E0
:105A500087FEBDE8084001F0B7B900BF70B5049EED
:105A600096420C4628DB15466BB1002A00EB02017A
:105A700007DD2046A21811F8013D00F8013B9042D5
:105A8000F9D1002070BD042A0FD0022A02D110F0F3
:105A9000010306D001462A46204607F013F90020EC
:105AA00070BD02880A80184670BD10F00303F1D162
:105AB00002680A60184670BD0846002108F0F2FA34
:105AC0004FF0FF3070BD00BF0830704740B1002973
:105AD00005DB4368994202DA0844007A70470020E7
